:020000040800F2
:10000000300F0024690300083D400008E33F00086A
:1000100039400008CB040008E96000080000000037
:10002000000000000000000000000000AD02000819
:10003000CF0400080000000001030008A14D0008E3
:100040008303000883030008830300088303000878
:100050008303000883030008830300088303000868
:100060008303000883030008830300088303000858
:100070008303000883030008830300088303000848
:100080008303000883030008830300088303000838
:100090008303000883030008830300088303000828
:1000A0008303000883030008830300088303000818
:1000B00083030008814F0008914F00088303000864
:1000C00083030008830300088303000883030008F8
:1000D00083030008D9600008830300088303000835
:1000E000D104000883030008000000008303000817
:1000F00083030008830300088303000883030008C8
:1001000083030008830300088303000883030008B7
:1001100083030008830300088303000883030008A7
:100120008303000883030008830300088303000897
:100130008303000883030008830300088303000887
:1001400000000000000000000000000000000000AF
:100150008303000883030008830300088303000867
:100160008303000883030008830300088303000857
:100170008303000883030008830300088303000847
:100180008303000883030008830300088303000837
:100190008303000883030008830300088303000827
:1001A0008303000883030008830300088303000817
:1001B0008303000883030008830300088303000807
:1001C00083030008830300088303000883030008F7
:1001D00083030008830300088303000883030008E7
:1001E00083030008830300088303000883030008D7
:1001F00083030008830300088303000883030008C7
:1002000083030008830300088303000883030008B6
:1002100083030008830300088303000883030008A6
:100220008303000883030008830300080000000024
:100230008303000883030008000000008303000814
:100240008303000883030008830300088303000876
:100250008303000883030008830300088303000866
:100260008303000883030008830300088303000856
:1002700083030008830300088303000800000000D4
:1002800083030008830300088303000800000000C4
:100290000000000083030008DFF80CD000F0D8F85D
:1002A0000048004779660008300F00242B4B19687E
:1002B0000868B0E8F04F80F30988BFF36F8F4FF004
:1002C000000080F3118870470000000006480068B5
:1002D000006880F3088862B661B6BFF34F8FBFF342
:1002E0006F8F00DF00BF00BF08ED00E0DFF80C00FB
:1002F000016841F470010160704700BF88ED00E0C3
:10030000EFF30980BFF36F8F144B1A681EF0100FC4
:1003100008BF20ED108A20E9F04F106008B44FF0BC
:10032000500072B680F31188BFF34F8FBFF36F8F09
:1003300062B607F073FB4FF0000080F3118808BC31
:1003400019680868B0E8F04F1EF0100F08BFB0EC55
:10035000108A80F30988BFF36F8F70475001002423
:10036000EFF30580704700000648804706480047C5
:10037000FEE7FEE7FEE7FEE7FEE7FEE7FEE7FEE755
:10038000FEE7FEE7854E0008990200082DE9F05FC0
:100390000546002092469B468846064681464024F4
:1003A0001BE0284641464746224600F041F85346A6
:1003B0005A46C01A914110D311461846224600F001
:1003C00028F82D1A67EB01084F462246012000212C
:1003D00000F01FF817EB00094E41201EA4F10104A4
:1003E000DFDC484631462A464346BDE8F09FD2B29C
:1003F00001E000F8012B491EFBD270470022F6E70E
:1004000010B513460A4604461946FFF7F0FF20468A
:1004100010BD202A04DB203A00FA02F100207047C8
:100420009140C2F1200320FA03F319439040704732
:10043000202A04DB203A21FA02F00021704721FA39
:1004400002F3D040C2F120029140084319467047A0
:10045000064C074D06E0E06840F0010394E8070011
:1004600098471034AC42F6D3FFF71AFF107E00080D
:10047000307E000870B58C1810F8015B15F007038A
:1004800001D110F8013B2A1106D110F8012B03E02D
:1004900010F8016B01F8016B5B1EF9D12B0705D435
:1004A0000023521E0DD401F8013BFAE710F8013B7E
:1004B000CB1A921C03E013F8015B01F8015B521E9A
:1004C000F9D5A142D8D3002070BD00BFFEE7704728
:1004D000704772B600BFFEE72DE9F041044600F018
:1004E0004DFD804614B90120BDE8F08194F8350037
:1004F000022808D08020606500BF002084F8340006
:1005000000BF0120F0E7FE492068884249D0FC493D
:1005100018312068884244D0F94930312068884237
:100520003FD0F7494831206888423AD0F4496031D9
:100530002068884235D0F24978312068884230D02E
:10054000EF499031206888422BD0ED49A8312068CE
:10055000884226D0EB492068884222D0E9491831E8
:10056000206888421DD0E74930312068884218D081
:10057000E44948312068884213D0E249603120685C
:1005800088420ED0DF4978312068884209D0DD49A1
:1005900090312068884204D0DA49A8312068884226
:1005A00001D1012000E0002068B12068006820F03F
:1005B0001E00216808602068406920F080002168E2
:1005C0004861256806E02068006820F00E00216878
:1005D00008602568CA492068884270D0C849183127
:1005E000206888426BD0C64930312068884266D086
:1005F000C34948312068884261D0C14960312068D0
:1006000088425CD0BE4978312068884257D0BC49C6
:1006100090312068884252D0B949A8312068884278
:100620004DD0B8492068884249D0B6491831206871
:10063000884244D0B3493031206888423FD0B14924
:100640004831206888423AD0AE49603120688842FB
:1006500035D0AC4978312068884230D0A9499031F2
:10066000206888422BD0A749A8312068884226D02C
:10067000A5492068884222D0A349143120688842C5
:100680001DD0A14928312068884218D09E493C31AC
:100690002068884213D09C495031206888420ED08F
:1006A000994964312068884209D097497831206897
:1006B000884204D094498C312068884201D10120BD
:1006C00000E0002028B1206E006820F48070216EC8
:1006D00008608B492068884249D0894918312068D0
:1006E000884244D086493031206888423FD08449CE
:1006F0004831206888423AD0814960312068884278
:1007000035D07F4978312068884230D07C4990319B
:10071000206888422BD07A49A8312068884226D0A8
:1007200078492068884222D076491831206888426A
:100730001DD0744930312068884218D07149483141
:100740002068884213D06F496031206888420ED0FB
:100750006C4978312068884209D06A499031206814
:10076000884204D06749A8312068884206D12068B1
:10077000006820F001002168086005E0206800683A
:1007800020F001002168086011E000F0F7FBA0EB09
:10079000080005280BD920206065032084F8350067
:1007A00000BF002084F8340000BF01209CE62868C8
:1007B00000F001000028E8D151492068884249D062
:1007C0004F4918312068884244D04D493031206863
:1007D00088423FD04A494831206888423AD0484947
:1007E00060312068884235D0454978312068884298
:1007F00030D043499031206888422BD04049A831FD
:100800002068884226D03F492068884222D03D494E
:100810001831206888421DD03A493031206888421A
:1008200018D0384948312068884213D035496031A2
:10083000206888420ED0334978312068884209D038
:10084000304990312068884204D02E49A831206870
:10085000884201D1012000E0002040B1A66D94F84B
:100860005C0000F01F013F208840B06007E0A76DEA
:1008700094F85C0000F01F01012088407860204956
:100880002068884276D01E4918312068884271D08D
:100890001B493031206888426CD0194948312068A2
:1008A000884267D0164960312068884262D0144976
:1008B0007831206888425DD01149903120688842A3
:1008C00058D00F49A8312068884253D00D4920687C
:1008D00088424FD00B491831206888424AD00949D4
:1008E00030312068884245D0064948312068884226
:1008F00040D004496031206888423BD0014905E07E
:100900001000024010040240085402587831206858
:1009100088422FD02549206888422BD0234918319E
:100920002068884226D022492068884222D0204967
:100930001431206888421DD01D4928312068884222
:1009400018D01B493C312068884213D018495031D7
:10095000206888420ED0164964312068884209D048
:10096000134978312068884204D011498C312068BD
:10097000884201D1012000E0002068B1D4E91910BB
:100980004860E06E40B1E06E006820F48070E16E77
:100990000860D4E91C104860012084F8350000BFCD
:1009A000002084F8340000BF00BF9DE5A004024091
:1009B0000854025870B504460CB9012070BD94F873
:1009C0003500022803D0802060650120F6E7DC496D
:1009D0002068884249D0DA4918312068884244D0DA
:1009E000D7493031206888423FD0D5494831206806
:1009F00088423AD0D24960312068884235D0D04907
:100A000078312068884230D0CD49903120688842C2
:100A10002BD0CB49A8312068884226D0C94920680C
:100A2000884222D0C7491831206888421DD0C54964
:100A300030312068884218D0C24948312068884245
:100A400013D0C0496031206888420ED0BD4978314A
:100A50002068884209D0BB4990312068884204D080
:100A6000B849A8312068884201D1012000E0002067
:100A7000F0B3042084F83500B149206888424BD097
:100A8000AF4918312068884246D0AD4930312068DE
:100A9000884241D0AA494831206888423CD0A849C0
:100AA00060312068884237D0A54978312068884273
:100AB00032D0A3499031206888422DD0A049A83176
:100AC0002068884228D09F492068884224D09D49C8
:100AD0001831206888421FD09A49303120688842F6
:100AE0001AD0984948312068884215D0954900E0CD
:100AF00020E06031206888420ED092497831206829
:100B0000884209D08F4990312068884204D08D49AD
:100B1000A8312068884206D12068006820F00100D2
:100B20002168086009E12068006820F00100216860
:100B3000086002E12068006820F00E00216808606B
:100B40007F492068884249D07D4918312068884211
:100B500044D07B493031206888423FD078494831C1
:100B6000206888423AD0764960312068884235D082
:100B7000734978312068884230D0714990312068BB
:100B800088422BD06E49A8312068884226D06D4912
:100B90002068884222D06B491831206888421DD0D5
:100BA000684930312068884218D066494831206849
:100BB000884213D063496031206888420ED0614971
:100BC00078312068884209D05E4990312068884297
:100BD00004D05C49A8312068884206D120680068AA
:100BE00020F001002168086005E02068006820F01E
:100BF00001002168086052492068884270D050493D
:100C00001831206888426BD04D49303120688842C5
:100C100066D04B4948312068884261D048496031EC
:100C2000206888425CD0464978312068884257D095
:100C3000434990312068884252D04149A831206808
:100C400088424DD03F492068884249D03D491831FB
:100C50002068884244D03B493031206888423FD0E8
:100C600038494831206888423AD036496031206896
:100C7000884235D0334978312068884230D03149B4
:100C80009031206888422BD02E49A83120688842B4
:100C900026D02D492068884222D02B491431206863
:100CA00088421DD0284928312068884218D026491A
:100CB0003C312068884213D0234950312068884253
:100CC0000ED0214964312068884209D01E4978310C
:100CD0002068884204D01C498C312068884201D1A8
:100CE000012000E00020D8B1206E006820F4807060
:100CF000216E0860A56D94F85C0000F01F010120D2
:100D000088406860D4E919104860E06E40B1E06E38
:100D1000006820F48070E16E0860D4E91C1048601F
:100D2000012084F8350000BF002084F8340000BFA3
:100D3000206D10B12046216D884700203EE600005E
:100D400010000240100402400854025870B50446D6
:100D500000F014F906462546681C10B104480078D6
:100D6000054400BF00F00AF9801BA842FAD370BD09
:100D700014000024F8B502460B4600216F4DD7E061
:100D800001278F401E6806EA0704002C72D01E79E6
:100D900006F00306012E04D01E7906F00306022E8B
:100DA00013D190684F000326BE40B0434F00DE6869
:100DB000BE4030439060506801268E40B0431E799B
:100DC000C6F300168E40304350601E7906F00306CD
:100DD000032E09D0D0684F000326BE40B0434F0019
:100DE0009E68BE403043D0601E7906F00306022E96
:100DF00013D1CF0802F1200656F827004E07F70E50
:100E00000F26BE40B0434F07FF0E1E69BE40304361
:100E1000CF0802F1200646F8270010684F0003268D
:100E2000BE40B0431E7906F003064F00BE4030437B
:100E300010605E6806F44036002E78D000BF404E49
:100E4000366846F002063E4F3E603E46366806F083
:100E50000206009600BF00BF3A4E8F0856F82700E2
:100E60008E07370F0F26BE40B043374EB24202D135
:100E700000262EE05BE0354EB24201D1012628E08B
:100E8000334EB24201D1022623E0324EB24201D1AA
:100E900003261EE0304EB24201D1042619E02F4E47
:100EA000B24201D1052614E02D4EB24201D10626F0
:100EB0000FE02C4EB24201D107260AE02A4EB24280
:100EC00001D1082605E0294EB24201D1092600E0F1
:100ED0000A268F073F0FBE4030431A4E8F0846F850
:100EE00027004FF0B0463068A0435E6806F48016D5
:100EF00006B120434FF0B04630607068A0435E6892
:100F000006F4001606B120434FF0B04670606868E2
:100F1000A0435E6806F4003606B120436860286886
:100F2000A0435E6806F4803606B120432860491C61
:100F30001E68CE40002E7FF423AFF8BD800000581D
:100F4000F4440258080400580000025800040258F3
:100F500000080258000C02580010025800140258F1
:100F600000180258001C02580020025800240258A1
:100F700001480068000C70470010005C01480068E0
:100F8000704700000C0000240348006803490978FA
:100F900008440149086070470C0000241400002434
:100FA00010B5032000F0A4F801F072FA0F490968A7
:100FB000C1F303210E4A515C01F01F0120FA01F434
:100FC0000A48006800F00F001146085C00F01F009E
:100FD00024FA00F007490860074804600F2000F079
:100FE0000DF808B1012010BD0020FCE7184402589C
:100FF000347D0008040000240000002470B504467D
:101000001148007808B9012070BD0F4800784FF4EE
:101010007A71B1FBF0F00D490968B1FBF0F5284693
:1010200002F0E6FA08B10120EEE7102C07D2002208
:101030002146501E00F01EF80548046001E0012022
:10104000E2E70020E0E70000140000240000002494
:101050001000002401460846002809DB00F01F03A9
:1010600001229A4043099B0003F1E023C3F80021C9
:1010700000BF70472DE9F05F80460D46164605F02B
:1010800045F8074639462A46334601F00700C0F1C5
:10109000070ABAF1040F02D94FF0040A01E0C0F1C7
:1010A000070AD14600F1040ABAF1070F02D24FF045
:1010B000000A01E0A0F1030AD4464FF0010A0AFA3F
:1010C00009FAAAF1010A0AEA020A0AFA0CFA4FF02E
:1010D000010B0BFA0CFBABF1010B0BEA030B4AEA19
:1010E0000B042146404605F019F8BDE8F09F0000CA
:1010F00000BF00F00702064B19684FF6FF031940C6
:10110000044B0B4343EA0221014B196000BF7047B7
:101110000CED00E00000FA0570B5044615480068C3
:10112000C0F3800048B91348006800F00700A042EF
:1011300001D0012070BD0020FCE70E48006820F0BF
:10114000070020430B490860FFF718FF054607E03A
:10115000FFF714FF401BB0F57A7F01D90120E9E7C2
:10116000044808380068C0F340300028F0D0002060
:10117000E0E700000C48025810B501F03FF90549BE
:101180000968C1F30211044A515C01F01F01C84013
:1011900010BD000020440258347D000870B501469F
:1011A000844D2D6805F00303824D2D68C5F30510AD
:1011B000804D2D1D2D6805F001047E4D0C352D68E8
:1011C000C5F3CC0515FB04F501EE105AB8EE411A33
:1011D000F0EE410A00286FD023B1012B4ED0022B34
:1011E0006BD16BE0734D283D2D68C5F340153DB3C1
:1011F000704D283D2D68C5F3C1066F4D25FA06F2E6
:1012000001EE102AF8EE411A01EE100AB8EE411A6A
:1012100081EE812A9FED691AC0EE811A654D08356D
:101220002D68C5F3080501EE105AB8EE411A31EEEB
:10123000811AF7EE001A31EE211A22EE010A1CE0A3
:1012400001EE100AB8EE411ADFED5D1A81EE812A37
:101250009FED5A1AC0EE811A564D08352D68C5F318
:10126000080501EE105AB8EE411A31EE811AF7EE78
:10127000001A31EE211A22EE010A5BE001EE100A9B
:10128000B8EE411ADFED4F1A81EE812A9FED4B1A1D
:10129000C0EE811A474D08352D68C5F3080501EEEB
:1012A000105AB8EE411A31EE811AF7EE001A31EEFB
:1012B000211A22EE010A3DE077E01DE001EE100A5E
:1012C000B8EE411A9FED402AC2EE011A9FED3B1A7B
:1012D00080EE812A374D08352D68C5F3080501EEEB
:1012E000105AB8EE411A32EE011AB7EE002A31EE6A
:1012F000021A21EE810A1DE001EE100AB8EE411A31
:10130000DFED2F1A81EE812A9FED2C1AC0EE811A93
:10131000284D08352D68C5F3080501EE105AB8EEC2
:10132000411A31EE811AF7EE001A31EE211A22EE3F
:10133000010A00BF00BF1F4D08352D68C5F34625C3
:1013400001EE105AB8EE411AF7EE001A31EE211AEA
:10135000C0EE011ABCEEE11A81ED001A154D0835F8
:101360002D68C5F3064501EE105AB8EE411AF7EEA6
:10137000001A31EE211AC0EE011ABCEEE11A81ED1D
:10138000011A0C4D08352D68C5F3066501EE105A9B
:10139000B8EE411AF7EE001A31EE211AC0EE011A2A
:1013A000BCEEE11A81ED021A03E000250D604D60EC
:1013B0008D6070BD284402580090D00300000046A4
:1013C0000024744C0024744A20BCBE4B70B5014606
:1013D000844D2D6805F00303824D2D68C5F305305B
:1013E000804D2D1D2D68C5F300147E4D14352D68DC
:1013F000C5F3CC0515FB04F501EE105AB8EE411A01
:10140000F0EE410A00286FD023B1012B4ED0022B01
:101410006BD16BE0734D283D2D68C5F340153DB38E
:10142000704D283D2D68C5F3C1066F4D25FA06F2B3
:1014300001EE102AF8EE411A01EE100AB8EE411A38
:1014400081EE812A9FED691AC0EE811A654D103533
:101450002D68C5F3080501EE105AB8EE411A31EEB9
:10146000811AF7EE001A31EE211A22EE010A1CE071
:1014700001EE100AB8EE411ADFED5D1A81EE812A05
:101480009FED5A1AC0EE811A564D10352D68C5F3DE
:10149000080501EE105AB8EE411A31EE811AF7EE46
:1014A000001A31EE211A22EE010A5BE001EE100A69
:1014B000B8EE411ADFED4F1A81EE812A9FED4B1AEB
:1014C000C0EE811A474D10352D68C5F3080501EEB1
:1014D000105AB8EE411A31EE811AF7EE001A31EEC9
:1014E000211A22EE010A3DE077E01DE001EE100A2C
:1014F000B8EE411A9FED402AC2EE011A9FED3B1A49
:1015000080EE812A374D10352D68C5F3080501EEB0
:10151000105AB8EE411A32EE011AB7EE002A31EE37
:10152000021A21EE810A1DE001EE100AB8EE411AFE
:10153000DFED301A81EE812A9FED2C1AC0EE811A60
:10154000284D10352D68C5F3080501EE105AB8EE88
:10155000411A31EE811AF7EE001A31EE211A22EE0D
:10156000010A00BF00BF1F4D10352D68C5F3462589
:1015700001EE105AB8EE411AF7EE001A31EE211AB8
:10158000C0EE011ABCEEE11A81ED001A154D1035BE
:101590002D68C5F3064501EE105AB8EE411AF7EE74
:1015A000001A31EE211AC0EE011ABCEEE11A81EDEB
:1015B000011A0C4D10352D68C5F3066501EE105A61
:1015C000B8EE411AF7EE001A31EE211AC0EE011AF8
:1015D000BCEEE11A81ED021A03E000250D604D60BA
:1015E0008D6070BD284402580090D0030000004672
:1015F0000024744C0024744A20BCBE4B70B50146D4
:10160000844D2D6805F00303824D2D68C5F3055008
:10161000804D2D1D2D68C5F300247E4D1C352D6891
:10162000C5F3CC0515FB04F501EE105AB8EE411ACE
:10163000F0EE410A00286FD023B1012B4ED0022BCF
:101640006BD16BE0734D283D2D68C5F340153DB35C
:10165000704D283D2D68C5F3C1066F4D25FA06F281
:1016600001EE102AF8EE411A01EE100AB8EE411A06
:1016700081EE812A9FED691AC0EE811A654D1835F9
:101680002D68C5F3080501EE105AB8EE411A31EE87
:10169000811AF7EE001A31EE211A22EE010A1CE03F
:1016A00001EE100AB8EE411ADFED5D1A81EE812AD3
:1016B0009FED5A1AC0EE811A564D18352D68C5F3A4
:1016C000080501EE105AB8EE411A31EE811AF7EE14
:1016D000001A31EE211A22EE010A5BE001EE100A37
:1016E000B8EE411ADFED4F1A81EE812A9FED4B1AB9
:1016F000C0EE811A474D18352D68C5F3080501EE77
:10170000105AB8EE411A31EE811AF7EE001A31EE96
:10171000211A22EE010A3DE077E01DE001EE100AF9
:10172000B8EE411A9FED402AC2EE011A9FED3B1A16
:1017300080EE812A374D18352D68C5F3080501EE76
:10174000105AB8EE411A32EE011AB7EE002A31EE05
:10175000021A21EE810A1DE001EE100AB8EE411ACC
:10176000DFED301A81EE812A9FED2C1AC0EE811A2E
:10177000284D18352D68C5F3080501EE105AB8EE4E
:10178000411A31EE811AF7EE001A31EE211A22EEDB
:10179000010A00BF00BF1F4D18352D68C5F346254F
:1017A00001EE105AB8EE411AF7EE001A31EE211A86
:1017B000C0EE011ABCEEE11A81ED001A154D183584
:1017C0002D68C5F3064501EE105AB8EE411AF7EE42
:1017D000001A31EE211AC0EE011ABCEEE11A81EDB9
:1017E000011A0C4D18352D68C5F3066501EE105A27
:1017F000B8EE411AF7EE001A31EE211AC0EE011AC6
:10180000BCEEE11A81ED021A03E000250D604D6087
:101810008D6070BD284402580090D003000000463F
:101820000024744C0024744A20BCBE4B2DE9F043C4
:1018300089B006460F464FF4807186EA01003843AE
:1018400070D1F748006800F00709B9F1050F65D2BB
:10185000DFE809F0031221623000F14850380068D7
:1018600000F00070B0F1007F04D106A8FFF796FCED
:10187000079C00E0002453E0E9485038006800F07D
:101880000060B0F1006F04D103A8FFF79FFD039C37
:1018900000E0002444E0E2485038006800F00050C6
:1018A000B0F1005F04D16846FFF7A8FE009C00E09D
:1018B000002435E0DA48001F006800F04055D848A1
:1018C0005038006800F00400042809D145B9D44814
:1018D00050380068C0F3C101D24820FA01F41AE080
:1018E000CF485038006800F48070B0F5807F04D194
:1018F000B5F1805F01D1CC4C0DE0C948503800688B
:1019000000F40030B0F5003F04D1B5F1005F01D123
:10191000C64C00E0002403E0C54C01E0002400BFF9
:10192000D4E3FFE74FF4007186EA010038437AD12F
:10193000BB48006800F4E079B9F1800F2CD006DCD8
:10194000B9F1000F0AD0B9F1400F69D115E0B9F132
:10195000C00F63D0B9F5807F62D12CE0B048503819
:10196000006800F00070B0F1007F04D106A8FFF716
:1019700015FC079C00E0002454E0A948503800689A
:1019800000F00060B0F1006F04D103A8FFF71EFD66
:10199000039C00E0002445E0A1485038006800F0B6
:1019A0000050B0F1005F04D16846FFF727FE009CAD
:1019B00000E0002436E09A48001F006800F040551F
:1019C00097485038006800F00400042809D145B950
:1019D000934850380068C0F3C101924820FA01F4DE
:1019E0001BE08F485038006800F48070B0F5807FAD
:1019F00004D1B5F1805F01D18B4C0EE0884850389E
:101A0000006800F40030B0F5003F05D1B5F1005F8B
:101A100002D1864C01E006E0002403E0844C01E0A2
:101A2000002400BF52E34FF4806186EA010038438E
:101A30007BD17B480830006800F46009B9F5800F5D
:101A40002CD006DCB9F1000F0AD0B9F5001F69D11E
:101A500015E0B9F5C00F63D0B9F5000F62D12CE0E5
:101A60006F485038006800F00070B0F1007F04D17A
:101A700006A8FFF793FB079C00E0002454E06848A9
:101A80005038006800F00060B0F1006F04D103A886
:101A9000FFF79CFC039C00E0002445E060485038C0
:101AA000006800F00050B0F1005F04D16846FFF715
:101AB000A5FD009C00E0002436E05948001F0068A6
:101AC00000F0405556485038006800F004000428E3
:101AD00009D145B9524850380068C0F3C101514896
:101AE00020FA01F41BE04E485038006800F4807082
:101AF000B0F5807F04D1B5F1805F01D14A4C0EE092
:101B000047485038006800F40030B0F5003F05D178
:101B1000B5F1005F02D1454C01E006E0002403E08E
:101B2000434C01E0002400BFD0E24FF4006186EA9C
:101B30000100384373D13A480830006800F0E0698A
:101B4000B9F1007F2CD006DCB9F1000F0AD0B9F151
:101B5000807F75D115E0B9F1407F6FD0B9F1806F0A
:101B60006ED12CE02E485038006800F00070B0F1C3
:101B7000007F04D106A8FFF711FB079C00E00024BA
:101B800060E027485038006800F00060B0F1006F56
:101B900004D103A8FFF71AFC039C00E0002451E0E5
:101BA0001F485038006800F00050B0F1005F04D1C9
:101BB0006846FFF723FD009C00E0002442E018483F
:101BC000001F006800F0405515485038006800F0CC
:101BD0000400042809D145B9114850380068C0F301
:101BE000C101104820FA01F427E00D485038006880
:101BF00000F48070B0F5807F04D1B5F1805F01D131
:101C0000094C1AE006485038006800F40030B0F57E
:101C1000003F11D1B5F1005F0ED1044C0DE012E090
:101C2000504402580090D00300093D0040787D01E7
:101C30000080BB0004E001E0002403E0F74C01E079
:101C4000002400BF42E24FF4805186EA010038438D
:101C50007AD1F348006800F4E048B8F5005F2CD072
:101C600006DCB8F1000F0AD0B8F5805F69D115E045
:101C7000B8F5405F63D0B8F5804F62D12CE0E848FA
:101C80005038006800F00070B0F1007F04D106A861
:101C9000FFF784FA079C00E0002454E0E048503845
:101CA000006800F00060B0F1006F04D103A8FFF7F6
:101CB0008DFB039C00E0002445E0D94850380068C3
:101CC00000F00050B0F1005F04D16846FFF796FCC9
:101CD000009C00E0002436E0D148001F006800F0BE
:101CE0004055CF485038006800F00400042809D15E
:101CF00045B9CB4850380068C0F3C101C94820FA43
:101D000001F41BE0C6485038006800F48070B0F55C
:101D1000807F04D1B5F1805F01D1C34C0EE0C04893
:101D20005038006800F40030B0F5003F05D1B5F13F
:101D3000005F02D1BD4C01E006E0002403E0B74C97
:101D400001E0002400BFC1E14FF4005186EA010028
:101D5000384367D1B248006800F4E028B8F5403F46
:101D600033D009DCB8F1000F0DD0B8F5803F0ED0AC
:101D7000B8F5003F53D119E0B8F5802F37D0B8F54A
:101D8000A02F4CD13FE000F05FFB044649E0A4489F
:101D90005038006800F00060B0F1006F04D103A873
:101DA000FFF714FB049C00E000243AE09C48503804
:101DB000006800F00050B0F1005F04D16846FFF702
:101DC0001DFC019C00E000242BE095485038006881
:101DD00000F00400042808D1914850380068C0F38E
:101DE000C101904820FA01F400E0002419E08C4879
:101DF0005038006800F48070B0F5807F01D18A4CC3
:101E000000E000240DE086485038006800F40030FF
:101E1000B0F5003F01D1854C00E0002401E0002432
:101E200000BF53E14FF4002186EA0100384361D13D
:101E30007B480830006800F44038B8F1000F06D045
:101E4000B8F5803F12D0B8F5003F50D11DE074487E
:101E50005038006800F00060B0F1006F04D103A8B2
:101E6000FFF7B4FA039C00E0002442E06C485038CD
:101E7000006800F00050B0F1005F04D16846FFF741
:101E8000BDFB029C00E0002433E06548001F0068B1
:101E900000F0405562485038006800F00400042803
:101EA00009D145B95E4850380068C0F3C1015D48AA
:101EB00020FA01F41AE05A485038006800F48070A3
:101EC000B0F5807F04D1B5F1805F01D1564C0DE0B3
:101ED00053485038006800F40030B0F5003F04D19A
:101EE000B5F1005F01D1514C00E0002401E0002475
:101EF00000BFEBE04FF4803186EA010038432CD17B
:101F00004748001F006800F48038B8F1000F03D084
:101F1000B8F5803F1ED10EE041485038006800F00F
:101F20000070B0F1007F04D106A8FFF737F9079CD5
:101F300000E0002410E03A485038006800F00060EB
:101F4000B0F1006F04D103A8FFF740FA059C00E050
:101F5000002401E0002400BFB8E04FF4804186EA8D
:101F60000100384372D12E480830006800F0E04884
:101F7000B8F1405F33D009DCB8F1000F0DD0B8F1F3
:101F8000805F0ED0B8F1005F5DD119E0B8F1804FED
:101F900037D0B8F1A04F56D14AE0FFF7EDF804462C
:101FA00053E01F485038006800F00060B0F1006F47
:101FB00004D103A8FFF70AFA049C00E0002444E0DF
:101FC00017485038006800F00050B0F1005F04D1AD
:101FD0006846FFF713FB019C00E0002435E0104841
:101FE0005038006800F00400042808D10C4850382C
:101FF0000068C0F3C1010B4820FA01F400E000249E
:1020000023E007485038006800F48070B0F5807F06
:1020100001D1054C00E0002417E017E00080BB0070
:10202000504402580090D00300093D0040787D01E3
:102030002848006800F40030B0F5003F01D1264C7C
:1020400000E0002401E0002400BF3FE04FF4004125
:1020500086EA0100384338D11E485030006800F04D
:102060004058B8F1000F06D0B8F1805F0ED0B8F13B
:10207000005F27D118E01748006800F40030B0F581
:10208000003F01D1144C00E000241DE0114800681D
:1020900000F00070B0F1007F04D106A8FFF77EF8D1
:1020A000079C00E000240FE00A48006800F0006090
:1020B000B0F1006F04D103A8FFF788F9049C00E099
:1020C000002401E0002400BF00E00024204609B005
:1020D000BDE8F0830044025840787D012DE9F041CD
:1020E00004460D4614B90120BDE8F081BD480068E2
:1020F00000F00F00A8420ED2BA48006820F00F008E
:102100002843B84908600846006800F00F00A8425C
:1021100001D00120E8E7207800F0040004280ED167
:10212000B1492069096801F07001884207D9AE48B9
:10213000006820F0700021690843AB4908602078EE
:1021400000F00800082811D1A749091D6069096835
:1021500001F07001884209D9A348001D006820F0F1
:10216000700061690843A049091D0860207800F0EB
:102170001000102811D19C49091DA069096801F4BB
:10218000E061884209D99848001D006820F4E060A9
:10219000A16908439449091D0860207800F02000D7
:1021A000202811D190490831E069096801F07001D7
:1021B000884209D98C480830006820F07000E16935
:1021C0000843894908310860207800F0020002289D
:1021D0000ED18549E068096801F00F01884207D9EE
:1021E0008148006820F00F00E16808437E490860DC
:1021F000207800F00100002850D07B48006820F4CF
:102200007060A1680843784908606068022807D1B7
:10221000754818380068C0F34040F8B9012063E7FA
:102220006068032807D1704818380068C0F3406020
:10223000A0B9012058E76068012807D16A4818381A
:102240000068C0F3002048B901204DE766481838FF
:102250000068C0F3800008B9012045E762480838EB
:10226000006820F00700616808435F49083908608A
:10227000FEF784FE064608E0FEF780FE801B41F272
:102280008831884201D903202EE757480838006872
:1022900000F038006168B0EBC10FEDD1207800F09C
:1022A000020002280ED15049E068096801F00F01D0
:1022B000884207D24C48006820F00F00E1680843CC
:1022C000494908604748006800F00F00A8420ED94D
:1022D0004448006820F00F0028434249086008463F
:1022E000006800F00F00A84201D00120FCE6207831
:1022F00000F0040004280ED13B492069096801F070
:102300007001884207D23848006820F070002169C7
:10231000084335490860207800F00800082811D1EA
:102320003149091D6069096801F07001884209D2CC
:102330002D48001D006820F07000616908432A499B
:10234000091D0860207800F01000102811D12649DE
:10235000091DA069096801F4E061884209D2224898
:10236000001D006820F4E060A16908431E49091DB2
:102370000860207800F02000202811D11A49083187
:10238000E069096801F07001884209D216480830F6
:10239000006820F07000E1690843134908310860C3
:1023A00000F076F810490968C1F303210F4A515C27
:1023B00001F01F0120FA01F70B48006800F00F0040
:1023C0001146085C00F01F0027FA00F00849086079
:1023D0000848076008480068FEF710FE804640463F
:1023E00082E600000020005218440258347D0008A4
:1023F00004000024000000241000002410B500F0A8
:1024000047F80D490968C1F303210C4A515C01F0FA
:102410001F0120FA01F40848006800F00F0011467F
:10242000085C00F01F0024FA00F005490860054828
:1024300004600846006810BD18440258347D000846
:10244000040000240000002400B5FFF7D7FF054971
:102450000968C1F30211044A515C01F01F01C84030
:1024600000BD00001C440258347D000800B5FFF791
:10247000C5FF05490968C1F30221044A515C01F016
:102480001F01C84000BD00001C440258347D0008F4
:10249000F0B5824E366806F0380636B1082E15D0F3
:1024A000102E15D0182E7DD114E07C4E103E3668CB
:1024B000C6F3401646B1794E103E3668C6F3C107E2
:1024C000774E26FA07F000E07548E5E07548E3E04E
:1024D0007548E1E0714E1836366806F003046F4E19
:1024E00018363668C6F305116C4E1C36366806F091
:1024F00001056A4E24363668C6F3CC0616FB05F68F
:1025000001EE106AB8EE410A002971D024B1012C05
:1025100050D0022C6DD16DE0604E103E3668C6F38F
:1025200040163EB35D4E103E3668C6F3C1075C4EA2
:1025300026FA07F301EE103AF8EE411A01EE101AEE
:10254000B8EE411A81EE812A9FED581AC0EE011AA9
:10255000524E20363668C6F3080601EE106AB8EE11
:10256000411A31EE811AF7EE001A31EE211A62EEAD
:10257000010A1EE001EE101AB8EE411ADFED4C1A06
:1025800081EE812A9FED491AC0EE011A434E203692
:102590003668C6F3080601EE106AB8EE411A31EE4D
:1025A000811A00E076E0F7EE001A31EE211A62EEB1
:1025B000010A5BE001EE101AB8EE411A9FED3D2AC8
:1025C000C2EE011A9FED391A80EE012A334E2036F1
:1025D0003668C6F3080601EE106AB8EE411A32EE0C
:1025E000011AB7EE002A31EE021A61EE810A3DE0CF
:1025F0004EE01DE001EE101AB8EE411ADFED2E1A82
:1026000081EE812A9FED291AC0EE011A234E203651
:102610003668C6F3080601EE106AB8EE411A31EECC
:10262000811AF7EE001A31EE211A62EE010A1DE05E
:1026300001EE101AB8EE411A9FED1E2AC2EE011AE1
:102640009FED1A1A80EE012A144E20363668C6F322
:10265000080601EE106AB8EE411A32EE011AB7EE22
:10266000002A31EE021A61EE810A00BF00BF0B4E54
:1026700020363668C6F34626721C01EE102AB8EEE4
:10268000411AC0EE811ABCEEE11A11EE100A00E008
:10269000002001E0034800BF00BFF0BD1044025815
:1026A0000090D00300093D0040787D010000004605
:1026B0000024744C0024744A20BCBE4B2DE9F04722
:1026C000044614B90120BDE8F087207800F001002D
:1026D000002870D0FA48006800F03808F848183030
:1026E000D0F80090B8F1100F06D0B8F1180F0FD144
:1026F00009F0030002280BD1F14810380068C0F33C
:10270000404000286AD06068002867D10120DAE7DD
:1027100000BF6068B0F5803F08D1E9481038006814
:1027200040F48030E649103908602EE0606868B9EE
:10273000E3481038006820F48030E149103908601F
:102740000846006820F4802008601EE06068B0F54C
:10275000A02F0DD1DA481038006840F48020D84905
:10276000103908600846006840F4803008600CE0CA
:10277000D3481038006820F48030D14910390860FF
:102780000846006820F48020086000BF606898B1A7
:10279000FEF7F4FB054606E0FEF7F0FB401B64285D
:1027A00001D903208FE7C64810380068C0F34040C5
:1027B0000028F1D012E012E0FEF7E0FB054606E04B
:1027C000FEF7DCFB401B642801D903207BE7BC48F3
:1027D00010380068C0F340400028F1D100BF2078D5
:1027E00000F00200022874D1B548006800F03808F3
:1027F000B3481830D0F80090B8F1000F05D0B8F108
:10280000180F56D109F00300D0BBAD48103800684E
:10281000C0F3800018B1E06808B9012053E7A84868
:102820001038006820F01900E1680843A449103905
:102830000860FEF7A3FB054606E0FEF79FFB401B82
:10284000022801D903203EE79D4810380068C0F3F4
:1028500080000028F1D000BFFEF78AFB41F203019F
:1028600088421AD8206940280BD195480C38006856
:1028700020F47C3040F4003091490C39086017E0B6
:1028800017E08F480C38006820F47C30216940EA5A
:1028900001308B490C3908600AE089480C3800681F
:1028A00020F0FE40217C40EA016085490C39086037
:1028B00066E0E06888B382481038006820F01900AC
:1028C000E16808437E4910390860FEF757FB05466A
:1028D00007E056E0FEF752FB401B022801D9032017
:1028E000F1E6774810380068C0F380000028F1D086
:1028F00000BFFEF73DFB41F2030188421AD8206970
:1029000040280BD16E480C38006820F47C3040F42D
:1029100000306B490C39086017E017E068480C3844
:10292000006820F47C30216940EA013064490C39A8
:1029300008600AE062480C38006820F0FE40217C04
:1029400040EA01605E490C39086019E05C481038C3
:10295000006820F001005A4910390860FEF70EFBAC
:10296000054606E0FEF70AFB401B022801D90320BA
:10297000A9E6534810380068C0F380000028F1D160
:1029800000BF207800F0100010287CD14C4800686F
:1029900000F038084A481830D0F80090B8F1080F15
:1029A00006D0B8F1180F3DD109F00300012839D144
:1029B000434810380068C0F3002020B1E069802847
:1029C00001D001207FE600BFFEF7D2FA41F20301F9
:1029D00088421AD8206A20280AD139480C38006861
:1029E00020F0F84040F0804035490C39086018E08C
:1029F00033480C38006820F0F84094F8201040EA82
:102A000081602F490C3908600BE02D48001F0068D9
:102A100020F07C5094F8201040EA01602849091FFA
:102A2000086066E0E06978B325481038006840F037
:102A30008000234910390860FEF7A0FA054606E039
:102A4000FEF79CFA401B022801D903203BE61C48F4
:102A500010380068C0F300200028F1D000BFFEF756
:102A600087FA41F2030188421CD8206A20280CD141
:102A700013480C38006820F0F84040F080401049BE
:102A80000C3908601AE035E01CE00D480C3800688D
:102A900020F0F84094F8201040EA816008490C3991
:102AA00008600BE00648001F006820F07C5094F896
:102AB000201040EA01600249091F086019E0000087
:102AC00010440258FA48006820F08000F849086075
:102AD000FEF754FA054606E0FEF750FA401B0228BE
:102AE00001D90320EFE5F2480068C0F30020002878
:102AF000F2D100BF207800F00800082836D16069C4
:102B0000D0B1EB487430006840F00100E8497431FE
:102B10000860FEF733FA054606E0FEF72FFA401B81
:102B2000022801D90320CEE5E14874300068C0F3E3
:102B300040000028F1D019E0DD487430006820F032
:102B40000100DB4974310860FEF718FA054606E01B
:102B5000FEF714FA401B022801D90320B3E5D4483C
:102B600074300068C0F340000028F1D1207800F0F4
:102B70002000202830D1A069B8B1CD48006840F4C9
:102B80008050CB490860FEF7F9F9054606E0FEF7EC
:102B9000F5F9401B022801D9032094E5C4480068D8
:102BA000C0F340300028F2D016E0C148006820F49D
:102BB0008050BF490860FEF7E1F9054606E0FEF7E0
:102BC000DDF9401B022801D903207CE5B8480068E4
:102BD000C0F340300028F2D1207800F0040004282F
:102BE0007DD1B448006840F48070B2490860FEF7B7
:102BF000C5F9054606E0FEF7C1F9401B642801D976
:102C0000032060E5AB48006800F480700028F2D033
:102C100000BFA068012808D1A5487030006840F0C6
:102C20000100A349703108602DE0A06868B9A04890
:102C30007030006820F001009D497031086008463E
:102C4000006820F0040008601DE0A06805280DD190
:102C500097487030006840F0040095497031086072
:102C60000846006840F0010008600CE090487030B1
:102C7000006820F001008E49703108600846006845
:102C800020F00400086000BFA068A0B1FEF776F94C
:102C9000054608E0FEF772F9401B41F28831884290
:102CA00001D903200FE5824870300068C0F340006E
:102CB0000028EFD013E0FEF761F9054608E0FEF7C3
:102CC0005DF9401B41F28831884201D90320FAE4C2
:102CD000774870300068C0F340000028EFD1606A88
:102CE00000287DD072481030006800F038001828A5
:102CF00077D0606A022875D16D48006820F0807036
:102D00006B490860FEF73AF9054606E0FEF736F92A
:102D1000401B022801D90320D5E465480068C0F3B0
:102D200040600028F2D100BFD4E90A1041EA001047
:102D30005F492831096840F2F332914308435C4906
:102D400028310860208E401EC0F30800616B491EC8
:102D50004FF47E4202EA41210843218F491ED201ED
:102D600002EA014108433C21095D491E120202EAC0
:102D7000016108434E493031086000BF081F0068F8
:102D800020F00100091F08604948343000684FF600
:102D9000F8718843A16C40EAC100454934310860AC
:102DA00043482C30006820F00C00216C0843404957
:102DB0002C3108600846006820F00200616C08436E
:102DC0003B492C3108600846006840F480300860B8
:102DD0000846006840F4003008600846006802E0D9
:102DE00093E038E01FE040F4802008600846006867
:102DF00040F0010008602E48006840F080702C49C7
:102E00000860FEF7BBF8054606E0FEF7B7F8401B82
:102E1000022801D9032056E425480068C0F3406029
:102E20000028F2D071E02248006820F0807020492C
:102E30000860FEF7A3F8054606E0FEF79FF8401B82
:102E4000022801D903203EE419480068C0F340601D
:102E50000028F2D159E0164828300768144830306D
:102E60000668606A012821D007F00301A06A814248
:102E70001CD1C7F30511E06A884217D1C6F30801D7
:102E8000206B401E814211D1606B401EC6F346216B
:102E900088420BD1A06B401EC6F30641884205D183
:102EA000E06B401EC6F30661884205D001200AE4AB
:102EB000004402580048025815480068C0F3CC0787
:102EC000A06CB84221D012480838006820F00100F8
:102ED0000F4908390860FEF751F8054600BFFEF7B4
:102EE0004DF8401BFBD00A4800684FF6F871884344
:102EF000A16C40EAC100064908600548083800682E
:102F000040F0010002490839086000204AE400004E
:102F1000344402582DE9F04188B004460F464FF082
:102F20000008032084F83000A06B032820D0B7F5F8
:102F3000004F04D1606B40F0805060631CE0B7F537
:102F4000804F07D1204601F0F7FE0646606B304304
:102F5000606311E03FB9204601F0BAFE0646606B9F
:102F60003043606308E0606B40F00060606303E042
:102F7000606B40F080506063606B28B1424821680C
:102F800088634FF0010869E04FF480300021FEF7BC
:102F90004DFC0546002D5BD060680390A06804904E
:102FA0000597206906903948B5FBF0F160698142C8
:102FB00002D86069079041E0A06DB0F5007F02D1B2
:102FC000606907903AE0A06DB0F5807F1BD1606921
:102FD00050B92E48854204D94000B5FBF0F0079067
:102FE0002CE06069079029E060694000B5FBF0F0D3
:102FF0002649884204D94800B5FBF0F007901DE04F
:10300000606907901AE0606950B92148854204D987
:103010004000B5FBF0F0079010E0606907900DE00C
:1030200060694000B5FBF0F01949884204D94800B6
:10303000B5FBF0F0079001E060690790DDE906015B
:10304000CDE90001206803A90EC901F0A7FB05E046
:10305000606B40F0006060634FF001084FF4007156
:10306000206801F056F806463EB10748216888639B
:10307000606B304360634FF00108012084F830003A
:10308000404608B0BDE8F081FF0FE01F80F0FA0273
:1030900040787D010246D06E000E0870D06EC0F3FD
:1030A0000F20488092F86C000306106F43EA10204E
:1030B00048607020805C0872506F000E4872506F3C
:1030C0000302906F43EA1060C860906FC0F3035032
:1030D0000874906FC0F30B2048827820805CC0F3A6
:1030E00046000875012048750020704710B502465B
:1030F000D06D800F0870D06DC0F383604870D06DC4
:10310000C0F301608870D06D000CC870B2F85C002C
:10311000000A087192F85C004871106E000DC880BA
:10312000106EC0F3034008726020805AC0F3C030B4
:1031300048726020805AC0F3803088726020805AC4
:10314000C0F34030C8726020805AC0F3003008736A
:1031500000204873906B002836D16020805A80058B
:10316000030D506E43EA90700861506EC0F3C26068
:103170000875506EC0F302604875506EC0F342503F
:103180008875506EC0F38240C875506EC0F3C2306F
:1031900008760869401C90640B7E906C03F007036E
:1031A0009B1C01249C4060439064087A00F00F034C
:1031B00001209840D064D2E912035B0A584310659D
:1031C0004FF40073536521E0906B012813D1602008
:1031D000805C8006830A506E43EA104008610869EB
:1031E000401C83029364936C13654FF40073D364A3
:1031F000D36C53650AE02E4813689863506B40F017
:1032000080505063012082F8300010BD6420805A45
:10321000C0F3803001F8190F6420805AC0F3C61043
:1032200048706420805C00F07F008870906EC00F52
:10323000C870906EC0F341700871906EC0F38260E8
:103240004871906EC0F383508871906EC0F3405007
:10325000C87100200872906EC0F300404872682068
:10326000805AC0F3C03088726820805AC0F3803022
:10327000C8726820805AC0F3403008736820805AB2
:10328000C0F3003048736820805AC0F381208873EF
:103290006820805AC0F30120C8736820805CC0F3A6
:1032A000460008740120487419390020ADE7000079
:1032B000FF0FE01F0246906B0860D06B4860106CF7
:1032C0008860506CC860906C0861D06C4861106D6B
:1032D0008861506DC86100207047F8B50446002031
:1032E00000906946204601F0DBFC054615B1606B95
:1032F000284360630098C0F343263046F8BD0000C1
:10330000F0B591B005460C46002795F8300003282B
:1033100002D1012011B0F0BD01A9284601F026FC20
:10332000064656B12F4829688863686B3043686346
:10333000012085F83000012743E00198C0F3811097
:1033400020700198C0F340106070019800F47F0075
:10335000000A019940EA1160608002980006029913
:1033600001F47F4140EA0120029901F47F0140EA23
:103370001120029940EA116060600398207203985E
:10338000000A60720398C0F30350A0720498C0B2A0
:10339000039901F07F4140EA1140A0810498C0F3F5
:1033A0008520A0730498C0F30120E0730498C0F353
:1033B00003102074049800F00F0060740598000E4C
:1033C000A0744FF40071286800F0A3FE06463EB1D9
:1033D0000448296888636E63012085F8300001275E
:1033E000384697E7FF0FE01FF0B585B0044614B9E3
:1033F000012005B0F0BD94F8300020B900202076FF
:10340000204600F0B3F8042084F83000204600F095
:1034100045F808B10120ECE769462046FFF770FF48
:1034200008B10120E5E79DF810609DF81170A06BD0
:10343000012805D106B91FB14FF40071A16507E05D
:10344000A06B012802D10102A16501E00021A16564
:103450002046E168FFF75EFD08B10120C9E7FDF7EE
:103460008DFD05460CE0FDF789FD401B401C38B979
:103470004FF000406063012084F830000320B8E77B
:103480002046FFF72AFF0428EDD100206063E062A8
:10349000012084F830000020ABE70000F0B587B0D1
:1034A0000446002002900390049005904FF4803071
:1034B0000021FEF7BBF906463EB9012084F8300032
:1034C000C0066063012007B0F0BD2548B6FBF0F0F0
:1034D0000690DDE90501CDE90001206802A90EC9C9
:1034E00001F05CF9206801F073F9069818B10698AC
:1034F0004000B6FBF0F636B11A48B0FBF6F0471CB8
:103500003846FDF723FC204601F0CAFA05463DB1D6
:10351000012084F83000606B284360630120D2E70B
:10352000204601F037FA05463DB1012084F830000D
:10353000606B284360630120C5E74FF40071206889
:1035400000F0E7FD05464DB1074821688863606BD0
:1035500028436063012084F83000B4E70020B2E71C
:1035600000350C0010210100FF0FE01F10B586B0E0
:10357000044600BF1148006840F480300F490860DD
:103580000846006800F48030009000BF00BF4FF490
:10359000F850019002200290012003900320049033
:1035A0000C20059001A90648FDF7E4FB04200190DA
:1035B00001A90448FDF7DEFB06B010BDD444025853
:1035C00000080258000C0258042808D14FF0E021EE
:1035D000096941F004014FF0E022116107E04FF06A
:1035E000E021096921F004014FF0E02211617047E8
:1035F00070B504462546681EB0F1807F01D30120D6
:103600000FE0681E4FF0E02148610F214FF0FF30BE
:1036100002F084FD00204FF0E0218861072008615E
:10362000002070BD70477047704710B504460CB954
:10363000012010BD94F83D0028B9002084F83C001A
:10364000204600F029F8022084F83D00211D206862
:1036500001F0C0FC012084F8480000BF84F83E005F
:1036600001213F20015540200155412001554220B4
:1036700001554320015500BF00BF012084F84400DC
:1036800045200155462001554720015500BF012026
:1036900084F83D000020CCE738B504460E49206888
:1036A000884217D100BF00BF0C48006840F00200FC
:1036B0000A4908600846006800F00200009000BF58
:1036C00000BF00BF002204211D20FDF7D3FC1D20F8
:1036D000FDF7C0FC38BD000000040040E84402587B
:1036E000014691F83D00012801D0012070470220D9
:1036F00081F83D000868C06840F001000B68D860A0
:103700001C4B086898421BD00868B0F1804F17D056
:10371000194B0868984213D0184B086898420FD08C
:10372000174B086898420BD0164B0868984207D090
:10373000154B0868984203D0144B0868984210D182
:1037400008688068124B00EA0302062A0FD0B2F51F
:10375000803F0CD00868006840F001000B681860DA
:1037600005E00868006840F001000B681860002060
:10377000BCE70000000001400004004000080040D9
:10378000000C0040000401400018004000400140CF
:1037900007000100704770B504462068C6682068BD
:1037A000056905F00200022819D106F0020002287E
:1037B00015D1401F216808610120207720688069A9
:1037C00000F0030018B12046FFF7E4FF05E02046B3
:1037D00000F0ADF8204600F0ABF80020207705F0AF
:1037E0000400042819D106F00400042815D1C043B0
:1037F00021680861022020772068806900F4407009
:1038000018B12046FFF7C6FF05E0204600F08FF80C
:10381000204600F08DF80020207705F008000828E9
:1038200019D106F00800082815D1C04321680861A5
:10383000042020772068C06900F0030018B12046FA
:10384000FFF7A8FF05E0204600F071F8204600F0E1
:103850006FF80020207705F01000102819D106F02D
:103860001000102815D1C043216808610820207776
:103870002068C06900F4407018B12046FFF78AFF45
:1038800005E0204600F053F8204600F051F80020F3
:10389000207705F0010048B106F0010030B16FF06B
:1038A000010021680861204600F044F805F080001E
:1038B000802804D005F40050B0F5005F0AD106F06E
:1038C0008000802806D16FF40250216808612046EC
:1038D000FFF7A9FE05F48070B0F5807F0AD106F0ED
:1038E0008000802806D16FF480702168086120462E
:1038F000FFF798FE05F04000402809D106F040008F
:10390000402805D1C04321680861204600F020F816
:1039100005F02000202809D106F02000202805D13C
:10392000C043216808612046FFF77EFE70BD7047E6
:10393000704700000449884204D104490968491CC1
:10394000024A1160704700009C0100240800002416
:103950007047704770477047704770472DE9F047D0
:1039600004462068C569206806682068876840F6B4
:103970000F0005EA0009B9F1000F0FD105F0200092
:1039800060B106F0200010B907F0805030B1606FD0
:1039900010B12046616F8847BDE8F087B9F1000F8C
:1039A0007ED0FE48384018B9FD4830400028F7D096
:1039B00005F0010058B106F4807040B10120216883
:1039C0000862D4F8900040F00100C4F8900005F0BF
:1039D000020058B107F0010040B1022021680862DE
:1039E000D4F8900040F00400C4F8900005F0040002
:1039F00058B107F0010040B1042021680862D4F8F2
:103A0000900040F00200C4F8900005F0080070B18A
:103A100006F0200010B9E148384040B10820216884
:103A20000862D4F8900040F00800C4F8900005F453
:103A3000006060B106F0806048B14FF4006021681A
:103A40000862D4F8900040F02000C4F89000D4F848
:103A50009000002852D005F0200050B106F0200060
:103A600010B907F0805020B1606F10B12046616F2F
:103A70008847D4F890A02068806800F04000402873
:103A800002D00AF0280070B3204601F00FFC206835
:103A9000806800F04000402826D100BF00BF00E051
:103AA0002DE02168083151E8001F21F04000216815
:103AB000083141E80002002AF1D100BFD4F88000AB
:103AC00068B1B848D4F880100865D4F88000FCF7D5
:103AD00071FF98B1D4F88000016D88470EE0204650
:103AE000FFF73BFF0AE003E02046FFF736FF05E063
:103AF0002046FFF732FF0020C4F890004CE7E06E4C
:103B000001287DD105F01000002879D006F01000C2
:103B10000028FAD01020216808622068806800F030
:103B2000400040286DD1D4F8800000689E4988424A
:103B30006BD0D4F8800000689B491831884264D06B
:103B4000D4F8800000689849303188425DD0D4F8BC
:103B50008000006894494831884256D0D4F88000EB
:103B600000689149603188424FD0D4F880000068E5
:103B70008D497831884248D0D4F8800000688A495D
:103B80009031884241D0D4F8800000688649A8313D
:103B900088423AD0D4F8800000688449884234D002
:103BA000D4F8800000688149183188422DD0D4F8BB
:103BB000800000687D493031884226D0D4F88000EA
:103BC00000687A49483188421FD0D4F880000068E4
:103BD00076496031884218D0D4F880000068734973
:103BE0007831884211D0D4F8800000686F49903154
:103BF00088420AD0D4F8800000686C49A83102E0FD
:103C0000AEE069E001E0884204D1D4F880000068A9
:103C1000406803E0D4F88000006840681FFA80F82C
:103C2000B8F1000F57D0B4F85C00404553DDA4F85C
:103C30005E80D4F88000C069B0F5807F40D000BFBE
:103C400000BF216851E8001F21F48070226842E81B
:103C500000010029F5D100BF00BF00BF2168083175
:103C600051E8001F21F001002168083141E80002FD
:103C7000002AF3D100BF00BF00BF2168083151E81E
:103C8000001F21F040002168083141E80002002AAD
:103C9000F3D100BF2020C4F88C000020E06600BFF4
:103CA00000BF216851E8001F21F01000226842E89F
:103CB00000010029F5D100BFD4F88000FCF70CFC0E
:103CC00002202067B4F85C00B4F85E20801A81B24C
:103CD0002046FFF73EFE5FE634F85C0F6188401A2D
:103CE0001FFA80F860885C3CC8B3B8F1000F36D08A
:103CF00000BF00BF216851E8001F21F490702268C6
:103D000042E800010029F5D100BF00BF00BF2168D3
:103D1000083151E8001F214AD24301EA020021681C
:103D2000083141E80002002AF1D100BF2020C4F888
:103D30008C000020E066606700BF00BF216851E88A
:103D4000001F21F01000226842E800010029F5D18F
:103D500000BF0220206741462046FFF7FAFD1BE620
:103D600005F4801050B107F4800038B14FF4801092
:103D7000216808622046FFF7EFFD0DE605F08000A0
:103D8000B0B106F0800010B907F4000080B1A06F58
:103D900010B12046A16F8847FEE500000100001029
:103DA0002001000493520008100002401004024059
:103DB00005F0400030B106F0400018B1204601F097
:103DC000ABFAE9E505F4000030B106F0804018B127
:103DD0002046FFF7C0FDDFE505F0807030B106F04A
:103DE000004018B12046FFF7B5FDD5E500BFD3E58B
:103DF00010B504460CB9012010BDA06900B100E067
:103E000000BFD4F8880028B9002084F88400204638
:103E100000F02AF82420C4F888002068006820F008
:103E2000010021680860A06A10B1204601F040F945
:103E3000204601F087FD012800D1DDE720684068B9
:103E400020F49040216848602068806820F02A00B3
:103E5000216888602068006840F0010021680860DF
:103E6000204601F0A1F9C7E710B586B00446142139
:103E700001A8FCF7C3FA1949206888422CD100BF79
:103E80001748006840F010001549086008460068AF
:103E900000F01000009000BF00BF00BF10481038B5
:103EA000006840F001000E491039086008460068BB
:103EB00000F00100009000BF00BF4FF4C06001900F
:103EC0000220029000200390032004900720059018
:103ED00001A90448FCF74EFF06B010BD00100140D8
:103EE000F04402580000025870B504460D461646CC
:103EF000D4F88C00202821D105B10EB9012070BD65
:103F00000020E0660E492068884211D02068406891
:103F100000F4000060B100BF00BF216851E8001F3D
:103F200041F08060226842E800010029F5D100BF1D
:103F300032462946204601F0CBFFE0E70220DEE7CB
:103F4000000C005810B504462049206888423CD136
:103F50001F48008800F4004090BB1D48008800F412
:103F6000804070B11B4800780A2803D0002018490F
:103F7000088025E01648008840F400401449088075
:103F80001EE0144800780D2806D11148008840F43E
:103F900080400F49088013E00E4800780C490988DA
:103FA000C1F30D010C4A505409480088401C0849CF
:103FB000088008460088B0F5FA7F01DB0020088001
:103FC000012204490548FFF78FFF10BD0010014092
:103FD0001C0000241E0000240C0600247805002488
:103FE000704700BFFEE7000010B510481049086098
:103FF0004FF4E130486000210D488160C1600161EB
:104000000C21416100218161C161FFF7F1FE0022B5
:1040100002212520FDF72EF82520FDF71BF80122AF
:1040200004490348FFF760FF10BD00000010014085
:10403000780500241E00002400BFFEE77047000042
:1040400000B587B000BF1548006840F00400134970
:1040500008600846006800F00400019000BF00BF3F
:1040600000BF0846006840F0080008600846006885
:1040700000F00800019000BF00BF142102A8FCF767
:10408000BDF90120039040030290002004900590A8
:1040900002A90348FCF76EFE07B000BDE0440258D9
:1040A0000008025870B585B005460C4600943720CC
:1040B00001904FF480700290002003904FF48050E4
:1040C00004906946284600F08FFB41F28832372180
:1040D000284600F085F90646304605B070BD70B53B
:1040E00085B005460C460094292001904FF480705D
:1040F0000290002003904FF48050049069462846B7
:1041000000F072FB284600F077FA0646304605B00C
:1041100070BD70B585B005460C4600941020019026
:1041200000010290002003904FF4805004906946F3
:10413000284600F059FB41F288321021284600F051
:104140004FF90646304605B070BD70B585B00546DE
:104150000C460094062001904FF4807002900020DD
:1041600003904FF4805004906946284600F03CFBD1
:1041700041F288320621284600F032F906463046E0
:1041800005B070BD30B585B00446002000900190A8
:10419000029003904FF4805004906946204600F04E
:1041A00023FB204600F0FAF80546284605B030BD4E
:1041B00030B585B004464FF4D570009008200190CA
:1041C00040010290002003904FF480500490694613
:1041D000204600F009FB204600F09AFA05462846E2
:1041E00005B030BD70B585B005460C46009407207B
:1041F00001904FF480700290002003904FF48050A3
:1042000004906946284600F0EFFA41F2883207210F
:10421000284600F0E5F80646304605B070BD30B5DA
:1042200085B0044600200090022001904FF44070B9
:104230000290002003904FF480500490694620467D
:1042400000F0D2FA204600F0A3F90546284605B052
:1042500030BD70B585B005460C460094092001902C
:104260004FF440700290002003904FF4805004906F
:104270006946284600F0B8FA284600F089F9064653
:10428000304605B070BD30B585B0044600200090C2
:10429000332001904FF480700290002003904FF47F
:1042A000805004906946204600F09EFA41F2883220
:1042B0003321204600F094F80546284605B030BD6D
:1042C00070B585B005460C4600940D2001904FF462
:1042D00080700290002003904FF480500490694653
:1042E000284600F081FA41F288320D21284600F07C
:1042F00077F80646304605B070BD70B585B0054606
:104300000C4600200090032001904FF48070029032
:10431000002003904FF4805004906946284600F036
:1043200063FA22460321284600F094F906463046F7
:1043300005B070BD30B585B00446002000900D205A
:1043400001904FF480700290002003904FF4805051
:1043500004906946204600F047FA41F288320D2168
:10436000204600F03DF80546284605B030BD10B5A2
:10437000024600230868506248689062D1E902044E
:1043800020430C6920434C6920430343D06A20F04A
:10439000FF001843D062002010BD000001460E4807
:1043A0000068C0084FF47A73B0FBF3F041F2883331
:1043B00000FB03F200BF101EA2F1010202D14FF078
:1043C00000407047486B00F080000028F3D003489D
:1043D00088630020F5E7000000000024C5002000ED
:1043E0002DE9F04305460F46904666480068C00830
:1043F0004FF47A71B0FBF1F000FB08F900BFB9F19E
:104400000000A9F1010903D14FF00040BDE8F0839D
:104410006E6B5D4830400028F1D006F40050002853
:10442000EDD1686B00F0040010B10420A863EDE743
:10443000686B00F0010010B10120A863E6E7524864
:104440008030A863284600F099F9B84201D00120D5
:10445000DCE70021284600F09AF904464B4820404A
:1044600008B90020D2E704F00040B0F1004F02D1BB
:104470004FF00070CAE704F08040B0F1804F01D1E6
:104480004020C3E704F00050B0F1005F01D180206C
:10449000BCE704F08050B0F1805F02D14FF480702F
:1044A000B4E704F00060B0F1006F02D14FF4007087
:1044B000ACE704F08060B0F1806F02D14FF480600F
:1044C000A4E704F08070B0F1807F02D14FF4006067
:1044D0009CE704F40000B0F5000F02D14FF48050C7
:1044E00094E704F48000B0F5800F02D14FF400503F
:1044F0008CE704F40010B0F5001F02D14FF48040A7
:1045000084E704F48010B0F5801F02D14FF400401E
:104510007CE704F48020B0F5802F02D14FF4003006
:1045200074E704F40030B0F5003F02D14FF480206E
:104530006CE704F48030B0F5803F02D14FF40020E6
:1045400064E704F40040B0F5004F02D14FF480104E
:104550005CE704F48040B0F5804F02D14FF40010C6
:1045600054E704F40050B0F5005F02D14FF480002E
:104570004CE704F00800082801D1000546E74FF495
:10458000803043E7000000244500200008E0FFFDE4
:1045900010B5014616480068C0084FF47A74B0FBA5
:1045A000F4F041F2883400FB04F300BF181EA3F1BD
:1045B000010302D14FF0004010BD4A6B02F04500EC
:1045C0000028F3D002F400500028EFD1486B00F02F
:1045D000040010B104208863EEE7486B00F001008E
:1045E00010B101208863E7E7024888630020E3E711
:1045F00000000024C500200010B5014613480068E3
:10460000C0084FF47A74B0FBF4F041F2883400FB38
:1046100004F300BF181EA3F1010302D14FF00040C4
:1046200010BD4A6B02F045000028F3D002F40050A0
:104630000028EFD1486B00F0040010B1042088631B
:10464000EEE7034888630020EAE70000000000244A
:10465000C50020002DE9F04304460F4690462A4845
:104660000068C0084FF47A71B0FBF1F041F2883174
:1046700000FB01F900BFB9F10000A9F1010903D164
:104680004FF00040BDE8F083666B06F0450000285F
:10469000F1D006F400500028EDD1606B00F004006A
:1046A00010B10420A063EDE7606B00F0010010B1D1
:1046B0000120A063E6E7204600F060F8B84201D090
:1046C0000120DFE71148A0630021204600F05FF8D9
:1046D000054605F4604020B9280CA8F80000002029
:1046E000D0E705F48040B0F5804F02D14FF4005080
:1046F000C8E705F40040B0F5004F02D14FF48050F8
:10470000C0E74FF48030BDE700000024C500200062
:1047100010B5014618480068C0084FF47A74B0FB21
:10472000F4F041F2883400FB04F300BF181EA3F13B
:10473000010302D14FF0004010BD4A6B02F045006A
:104740000028F3D002F400500028EFD1486B00F0AD
:10475000040010B104208863EEE7486B00F001000C
:1047600010B101208863E7E7486B00F0400008B112
:10477000402088630020DFE700000024014608692C
:10478000C0B270470146086800F003007047024657
:1047900002F1140043181868704700000FB410B5F8
:1047A00004460021DDE903021043059A1043069AEE
:1047B0001043079A104301436068044A10400843BD
:1047C0006060002010BC5DF814FB0000002CC0FFEE
:1047D0000146086840F00300086000207047014669
:1047E000D1F880007047000010B502460023086829
:1047F0009060D1E901042043CC6820430C69204338
:104800000343D068024C20401843D060002010BD04
:10481000C0E0FEFF2DE9F04389B004460F46FCF7E7
:10482000ADFB81464FF000080020019002903E460B
:1048300008212068FFF76DFC05461DB1284609B028
:10484000BDE8F0834422125B11042068FFF72AFCC4
:1048500005460DB12846F2E74FF0FF3003900820DF
:10486000049030200590022006900020079001203F
:10487000089003A92068FFF77AFD2068FFF703FD81
:1048800005460DB12846DAE71AE02068406B00F4CF
:10489000002060B9B8F1000F09D12068FFF79FFF31
:1048A00001902068FFF79BFF029008F10108FCF7D8
:1048B00065FBA0EB0900401C10B94FF00040BEE7BB
:1048C0002068406B40F22A5108400028DDD0206863
:1048D000406B00F0080018B1082021688863AEE73B
:1048E0002068406B00F0020018B102202168886344
:1048F000A5E72068406B00F0200018B12020216857
:1049000088639CE712482168886302980006029930
:1049100001F47F4140EA0120029901F47F0140EA5D
:104920001120029940EA11603060361D019800069E
:10493000019901F47F4140EA0120019901F47F01CE
:1049400040EA1120019940EA11603060002076E7CA
:104950003A0F001810B50D480D4908600020486056
:1049600000210B488160C160016106214161FEF7B1
:104970003BFD08B1012010BD4FF480410448FEF713
:10498000C9FA08B10220F6E70020F4E700700052EF
:10499000E801002470B58CB0044600200090FCF7BC
:1049A000EDFA06462068FFF7EDFE18B94FF080607B
:1049B0000CB070BDA06B03281AD02068FFF72FFC45
:1049C00005460DB12846F3E700212068FFF7DFFE1A
:1049D000E06604212068FFF7DAFE206708212068DE
:1049E000FFF7D5FE60670C212068FFF7D0FEA067B7
:1049F000A06B032815D010E069462068FFF77DFC06
:104A000005460DB12846D3E7FCF7B8FA801B41F202
:104A10008831884201D30807CAE7BDF800000028A2
:104A2000EAD0A06B032820D0BDF8001061644422B6
:104A3000125B11042068FFF70CFC05460DB12846F7
:104A4000B6E700212068FFF7A2FEE0650421206898
:104A5000FFF79DFE206608212068FFF798FE60663C
:104A60000C212068FFF793FEA06604212068FFF761
:104A70008EFE010D216401A92046FEF737FB10B11F
:104A80004FF0805094E74422125B11042068FFF736
:104A9000A9FB05460DB128468AE7002088E70000FB
:104AA000F8B5044600200090002600272068FFF794
:104AB00069FB05460DB12846F8BD2068FFF778FB75
:104AC0000546B5F1004F08D10021E1632068FFF7EA
:104AD00059FB05461DB12846EEE70121E163E06B75
:104AE000012808D100212068FFF7DCFA054615B13E
:104AF0004FF08050E0E71DE000212068FFF7D2FA78
:104B000005460DB12846D7E717492068FFF7E7FAB1
:104B1000054615B14FF08050CEE700212068FFF721
:104B200036FE0646012080EAD67080F00107009824
:104B3000401C00904FF6FF710098884201D2002F70
:104B4000DAD04FF6FF710098884202D34FF08070A0
:104B5000B2E70020A06306F08040B0F1804F01D1A1
:104B60000120A0630020A7E7000010C12DE9F04359
:104B700087B004460F46FCF701FA80463E46002106
:104B80002068FFF704FE00F00070B0F1007F04D150
:104B90004FF4006007B0BDE8F08340212068FFF7C4
:104BA000B8FA05461DB1606B60632846F2E74422FF
:104BB000125B11042068FFF775FA05461DB1606BA2
:104BC00060632846E6E74FF0FF30019040200290F6
:104BD00060200390022004900020059001200690A0
:104BE00001A92068FFF7C3FB2068FFF7A3FB054678
:104BF0001DB1606B60632846CCE71AE02068406B0B
:104C000000F4004060B14FF0000906E02068FFF7B3
:104C1000E6FD3060361D09F10109B9F1080FF5D341
:104C2000FCF7ACF9A0EB0800401C10B94FF00040B5
:104C3000B0E72068406B00F495700028DED0206853
:104C4000406B00F0080008B10820A3E72068406B23
:104C500000F0020008B102209CE72068406B00F0E1
:104C6000200008B1202095E70DE02068FFF7B7FD90
:104C70003060361DFCF782F9A0EB0800401C10B92B
:104C80004FF0004086E72068406B00F48050002819
:104C9000EBD102482168886300207BE73A0F0018B7
:104CA00070B504460D4615B94FF0006070BD442242
:104CB000125B11042068FFF703FB06460EB1304675
:104CC000F4E700212068FFF762FD28600020EDE78F
:104CD0007CB5044600200090019000212068FFF779
:104CE00056FD00F00070B0F1007F02D14FF400607B
:104CF0007CBD69462046FFF78DFD05460DB128466F
:104D0000F6E7019800F4803098B14422125B110458
:104D10002068FFF7C7F905460DB12846E8E70021EE
:104D20002068FFF712FA05460DB12846E0E700209B
:104D3000DEE74FF08060DBE77CB5044600200090A2
:104D4000019000212068FFF722FD00F00070B0F113
:104D5000007F02D14FF400607CBD69462046FFF71A
:104D600059FD05460DB12846F6E7019800F480206C
:104D700098B14422125B11042068FFF793F90546AD
:104D80000DB12846E8E702212068FFF7DEF9054665
:104D90000DB12846E0E70020DEE74FF08060DBE75A
:104DA00010B5FCF7F1F802F0CBFE012801D002F0BB
:104DB000ABFE10BD00B59DB04C210AA8FBF71EFB51
:104DC000202102A8FBF71AFB0220FCF7A5F900BF7F
:104DD000002001902948006820F001002749086060
:104DE0000846006800F0010001902548006840F482
:104DF0004040234908600846006800F440400190A4
:104E000000BF00BF00BF1E48006800F40050B0F5AE
:104E1000005FF8D101200A9000040B90022013904B
:104E20000221149105211591C0211691022117919B
:104E30001891199108211A9100211B911C910AA81F
:104E4000FDF73CFC08B1FBF744FB3F200290032038
:104E500003900020049008200590402006900790C1
:104E60000001089040200990042102A8FDF736F9BE
:104E700008B1FBF72EFB1DB000BD00002C0400584C
:104E8000184802583448006840F4700032490860FD
:104E90003248006800F00F00072806D22F4800684B
:104EA00020F00F00C01D2D4908602D48006840F01B
:104EB00001002B490860002029491031086028486A
:104EC000006828490840264908602448006800F026
:104ED0000F00072806D92148006820F00F00C01DE8
:104EE0001E49086000201E4918310860091D08602D
:104EF000091D08601C481A49283108601B48091D13
:104F000008601B48091D08600020091D086018483A
:104F1000091D08600020091D08601548091D08606A
:104F20000020091D08600E48006820F480200C490C
:104F3000086000200A49603108600E4800686FF37D
:104F40000F00B0F1005F02D201200B49086043F26C
:104F5000D2000A490860704788ED00E00020005246
:104F6000004402587FEDF6EA000202020000FF0151
:104F7000800201010010005C0881005100400052D5
:104F800010B50248FEF707FC10BD00009C0100248C
:104F900010B50E480068C06800F0010078B10C49F7
:104FA00008698047002009490968486200BF6420F9
:104FB00006490968C86264210448C16000BF6FF0F7
:104FC000010002490968086110BD000000080024C2
:104FD0005C00002410B502682D4B98420ED0B0F151
:104FE000804F0BD02B4B984208D02B4B984205D0CA
:104FF0002A4B984202D02A4B984203D122F07002E9
:105000004B681A43224B984217D0B0F1804F14D00E
:10501000204B984211D0204B98420ED01F4B984203
:105020000BD01F4B984208D01E4B984205D01E4B08
:10503000984202D01D4B984203D122F44072CB68B3
:105040001A4322F080034C6943EA040202608B6831
:10505000C3620B6883620E4B98420BD0104B984290
:1050600008D0104B984205D00F4B984202D00F4BFE
:10507000984201D10B69036301234361036903F083
:1050800001031BB1036923F00103036110BD00009C
:10509000000001400004004000080040000C0040F7
:1050A000000401400040014000440140004801402C
:1050B00090F8281001F00801082907D10168496813
:1050C00021F40041826B11430268516090F828106E
:1050D00001F0010139B10168496821F40031C26A67
:1050E00011430268516090F8281001F00201022972
:1050F00007D10168496821F48031026B11430268CD
:10510000516090F8281001F00401042907D10168CA
:10511000496821F48021426B11430268516090F884
:10512000281001F01001102907D10168896821F4C5
:105130008051C26B11430268916090F8281001F011
:105140002001202907D10168896821F40051026CEF
:1051500011430268916090F8281001F04001402945
:1051600013D10168496821F48011426C114302682F
:105170005160416CB1F5801F07D10168496821F485
:10518000C001826C11430268516090F8281001F050
:105190008001802907D10168496821F40021C26C8F
:1051A000114302685160704738B504460020C4F8C6
:1051B0009000FBF7E3FE05462068006800F0080059
:1051C000082821D16FF07E402B4600224FF40011B9
:1051D0000090204600F02AFFB0B100BF00BF216858
:1051E00051E8001F21F08000226842E800010029F8
:1051F000F5D100BF2020C4F8880000BF002084F84B
:10520000840000BF032038BD2068006800F004005F
:10521000042830D16FF07E402B4600224FF48001ED
:105220000090204600F002FF28B300BF00BF2168B5
:1052300051E8001F21F49070226842E80001002923
:10524000F5D100BF00BF00BF2168083151E8001F41
:1052500021F001002168083141E80002002AF3D161
:1052600000BF2020C4F88C0000BF002084F8840018
:1052700000BF0320C7E72020C4F88800C4F88C00D2
:105280000020E066206700BF84F8840000BF00BFF4
:10529000B9E770B50546AC6B0020A4F85E00A4F831
:1052A00056002046FEF759FB70BD000000BF00BF4E
:1052B000026852E8002F22F49071036843E800125C
:1052C000002AF5D100BF00BF00BF0268083252E8D3
:1052D000002F104B02EA03010268083242E8001373
:1052E000002BF2D100BFC16E01290CD100BF00BF5D
:1052F000026852E8002F22F01001036843E8001210
:10530000002AF5D100BF2021C0F88C100021C16611
:1053100041677047FEFFFFEF10B5044600BF00BFB6
:10532000216851E8001F21F04000226842E8000196
:105330000029F5D100BF2020C4F888000020A06714
:105340002046FEF74DFE10BD2DE9F0410446B4F8AD
:105350006070D4F88C0022286ED12068406A86B232
:10536000A56D06EA07002880A06D801CA065B4F832
:105370005E00401EA4F85E00B4F85E00002861D113
:1053800000BF00BF216851E8001F21F4907022681F
:1053900042E800010029F5D100BF00BF00BF21682D
:1053A000083151E8001F21F001002168083141E86F
:1053B0000002002AF3D100BF2020C4F88C00002096
:1053C0006067206720492068884211D020684068C3
:1053D00000F4000060B100BF00BF216851E8001F69
:1053E00021F08060226842E800010029F5D100BF69
:1053F000E06E01281CD10020E06600BF00BF2168DC
:1054000051E8001F21F01000226842E80001002945
:10541000F5D100BF2068C069C0F3001010B11020A2
:1054200021680862B4F85C102046FEF792FA09E0A1
:105430002046FEF787FD05E02068806940F00800FF
:1054400021688861BDE8F081000C00582DE9F84F13
:105450000446B4F860B02068C56920680068009010
:105460002068D0F808A0D4F88C0022287ED1B4F8A7
:105470006890ADE02068406A1FFA80F8A76D08EADE
:105480000B003880A06D801CA065B4F85E00401E43
:10549000A4F85E002068C56905F00700B0B305F008
:1054A000010060B1009800F4807040B101202168D3
:1054B0000862D4F8900040F00100C4F8900005F0B4
:1054C000020058B10AF0010040B1022021680862D0
:1054D000D4F8900040F00400C4F8900005F00400F7
:1054E00058B10AF0010040B1042021680862D4F8E4
:1054F000900040F00200C4F89000D4F8900028B169
:105500002046FEF72AFA0020C4F89000B4F85E00A6
:1055100000285DD100BF00BF216851E8001F21F4C1
:105520008070226842E800010029F5D100BF00BF69
:1055300000BF2168083151E8001F404A01EA02001B
:105540002168083141E80002002AF2D100BF202082
:10555000C4F88C00002060672067394920688842C1
:1055600013D02068406800F4000000E05DE060B106
:1055700000BF00BF216851E8001F21F08060226851
:1055800042E800010029F5D100BFE06E01281CD1DE
:105590000020E06600BF00BF216851E8001F21F035
:1055A0001000226842E800010029F5D100BF206800
:1055B000C069C0F3001010B1102021680862B4F86F
:1055C0005C102046FEF7C5F902E02046FEF7BAFC63
:1055D000B9F1000F04D005F0200000287FF44AAF95
:1055E000B4F85E6006B3B4F86800B04223DD00BFD3
:1055F00000BF2168083151E8001F21F08050216868
:10560000083141E80002002AF3D100BF0D4860676D
:1056100000BF00BF216851E8001F41F02000226850
:1056200042E800010029F5D105E02068806940F0DA
:10563000080021688861BDE8F88F0000FEFFFFEFD9
:10564000000C00584953000870B50446B4F8606077
:10565000D4F88C0022286FD12068406A85B2F0B25D
:105660002840A16D0870A06D401CA065B4F85E00D4
:10567000401EA4F85E00B4F85E00002862D100BFAE
:1056800000BF216851E8001F21F49070226842E8B1
:1056900000010029F5D100BF00BF00BF216808311B
:1056A00051E8001F21F001002168083141E80002A3
:1056B000002AF3D100BF2020C4F88C0000206067CE
:1056C000206721492068884211D02068406800F492
:1056D000000060B100BF00BF216851E8001F21F049
:1056E0008060226842E800010029F5D100BFE06E29
:1056F00001281CD10020E06600BF00BF216851E8EE
:10570000001F21F01000226842E800010029F5D1B5
:1057100000BF2068C069C0F3001010B110202168DC
:105720000862B4F85C102046FEF713F90AE0204640
:10573000FEF708FC06E0FFE72068806940F00800FB
:105740002168886170BD0000000C00582DE9F05FF1
:105750000446B4F860A02068C5692068D0F800B09D
:105760002068D0F80890D4F88C0022287ED1B4F8B4
:105770006880ACE02068406A87B20AF0FF003840D9
:10578000A16D0870A06D401CA065B4F85E00401EBD
:10579000A4F85E002068C56905F00700A8B305F00D
:1057A000010058B10BF4807040B1012021680862FB
:1057B000D4F8900040F00100C4F8900005F0020019
:1057C00058B109F0010040B1022021680862D4F804
:1057D000900040F00400C4F8900005F0040058B1B7
:1057E00009F0010040B1042021680862D4F890005B
:1057F00040F00200C4F89000D4F8900028B1204690
:10580000FEF7ABF80020C4F89000B4F85E00002862
:105810005DD100BF00BF216851E8001F21F48070F6
:10582000226842E800010029F5D100BF00BF00BF97
:105830002168083151E8001F3F4A01EA020021684F
:10584000083141E80002002AF2D100BF2020C4F84C
:105850008C0000206067206738492068884213D098
:105860002068406800F4000070B100E05CE000BF18
:1058700000BF216851E8001F21F08060226842E8E3
:1058800000010029F5D100BFE06E01281CD10020E5
:10589000E06600BF00BF216851E8001F21F0100042
:1058A000226842E800010029F5D100BF2068C069E4
:1058B000C0F3001010B1102021680862B4F85C1029
:1058C0002046FEF746F802E02046FEF73BFBB8F123
:1058D000000F04D005F0200000287FF44BAFB4F88F
:1058E0005E6006B3B4F86800B04223DD00BF00BFBD
:1058F0002168083151E8001F21F0805021680831EB
:1059000041E80002002AF3D100BF0D48606700BFE4
:1059100000BF216851E8001F41F02000226842E8E2
:1059200000010029F5D105E02068806940F00800F9
:1059300021688861BDE8F09FFEFFFFEF000C005872
:10594000495600082DE9F04F89B00546002008901F
:10595000F8492868884200D100E000BF2969A8689A
:10596000084369690843E96940EA01082868006852
:10597000F149084040EA0800296808602868406842
:1059800020F44050E968084329684860D5F8188039
:10599000E8492868884202D0286A40EA080828684E
:1059A0008068E649084040EA08002968886028685D
:1059B000C06A20F00F00696A08432968C86200BF06
:1059C000DF492868884220D1DE48006800F03800AE
:1059D000182811D005DC48B1082809D0102811D1A9
:1059E00008E020280AD028280CD109E001240BE087
:1059F000042409E0082407E0102405E0202403E043
:105A0000402401E0802400BFF8E0CF4928688842A4
:105A100019D1CC48006800F00700062810D2DFE852
:105A200000F0030507090B0D00240BE0042409E036
:105A3000082407E0102405E0202403E0402401E0CE
:105A4000802400BFDAE0C1492868884219D1BD48E6
:105A5000006800F00700062810D2DFE800F0030518
:105A600007090B0D00240BE0042409E0082407E0DB
:105A7000102405E0202403E0402401E0802400BF3E
:105A8000BCE0B3492868884219D1AE48006800F0EC
:105A90000700062810D2DFE800F0030507090B0D08
:105AA00000240BE0042409E0082407E0102405E0AA
:105AB000202403E0402401E0802400BF9EE0A549AB
:105AC0002868884219D19F48006800F0070006281E
:105AD00010D2DFE800F0030507090B0D00240BE0EE
