:020000040800F2
:10000000F0040020AD020008F31F0008711F000873
:10001000F11F0008B9030008992F00080000000034
:10002000000000000000000000000000192500088A
:10003000BB03000800000000F51F00081B25000896
:10004000C7020008C7020008C7020008C70200086C
:10005000C7020008C7020008C7020008C70200085C
:10006000C7020008C7020008C7020008C70200084C
:10007000C7020008C7020008C7020008C70200083C
:10008000C7020008C7020008C7020008C70200082C
:10009000C7020008C7020008C7020008C70200081C
:1000A000C7020008C7020008C7020008C70200080C
:1000B000C7020008C7020008C7020008C7020008FC
:1000C000C7020008C7020008C7020008C7020008EC
:1000D000C7020008C7020008C7020008C7020008DC
:1000E000C7020008C702000800000000C70200089D
:1000F000C7020008C7020008C7020008C7020008BC
:10010000C7020008C7020008C7020008C7020008AB
:10011000C7020008C7020008C7020008C70200089B
:10012000C7020008C7020008C7020008C70200088B
:10013000C7020008C7020008C7020008C70200087B
:1001400000000000000000000000000000000000AF
:10015000C7020008C7020008C7020008C70200085B
:10016000C7020008C7020008C7020008C70200084B
:10017000C7020008C7020008C7020008C70200083B
:10018000C7020008C7020008C7020008C70200082B
:10019000C7020008C7020008C7020008C70200081B
:1001A000C7020008C7020008C7020008C70200080B
:1001B000C7020008C7020008C7020008C7020008FB
:1001C000C7020008C7020008C7020008C7020008EB
:1001D000C7020008C7020008C7020008C7020008DB
:1001E000C7020008C7020008C7020008C7020008CB
:1001F000C7020008C7020008C7020008C7020008BB
:10020000C7020008C7020008C7020008C7020008AA
:10021000C7020008C7020008C7020008C70200089A
:10022000C7020008C7020008C7020008000000005B
:10023000C7020008C702000800000000C70200084B
:10024000C7020008C7020008C7020008C70200086A
:10025000C7020008C7020008C7020008C70200085A
:10026000C7020008C7020008C7020008C70200084A
:10027000C7020008C7020008C7020008000000000B
:10028000C7020008C7020008C702000800000000FB
:1002900000000000C7020008DFF80CD000F07AF878
:1002A00000480047BD2F0008F004002006488047A2
:1002B00006480047FEE7FEE7FEE7FEE7FEE7FEE74B
:1002C000FEE7FEE7FEE7FEE7E525000899020008E5
:1002D0002DE9F05F0546002092469B46884606467B
:1002E000814640241BE0284641464746224600F00E
:1002F00041F853465A46C01A914110D31146184648
:10030000224600F028F82D1A67EB01084F462246D6
:100310000120002100F01FF817EB00094E41201EBC
:10032000A4F10104DFDC484631462A464346BDE8D5
:10033000F09FD2B201E000F8012B491EFBD27047BA
:100340000022F6E710B513460A4604461946FFF7A1
:10035000F0FF204610BD202A04DB203A00FA02F10B
:10036000002070479140C2F1200320FA03F31943A3
:1003700090407047202A04DB203A21FA02F0002145
:10038000704721FA02F3D040C2F1200291400843A5
:1003900019467047064C074D06E0E06840F001033F
:1003A00094E8070098471034AC42F6D3FFF778FF83
:1003B0005031000870310008FEE770472DE9F84F12
:1003C000594A4FF00A0A4FF000084FF0010B4FF066
:1003D000000C9042554A08BF4FF0090A02444FEA08
:1003E000B223092B38BF4FEAB22A00220D6835FA32
:1003F00002F600F097800BFA02F715EA070900F001
:1004000084804E68122E00F286800BFA06F414F0F7
:10041000061F00F08080032303FA0CF48368CD6884
:10042000A34305FA0CF56FEA040E2B4383603309EE
:100430004568BD43934057002B434360C3688C68B5
:1004400003EA0E03BC402343C36046F01003122BA3
:1004500011D16FF0030508F01C030F2405EA5205C3
:100460009C4005442E6A26EA04040E6906FA03F34A
:1004700023432B624E68036806F0030403EA0E036D
:10048000BC4023430360F3003FD5664C294F4FF037
:10049000B04E236843F00203236023680F2403F067
:1004A00002030093009D08F00C0322F003059C401A
:1004B0000AFA03F3EE5926EA04042343EB511C4FD6
:1004C000FB6F4D6843EA0904EE0358BF23EA0904B1
:1004D000FC67AE03D7F8803043EA090458BF23EA2B
:1004E0000904C7F88040EE02DEF8003043EA090450
:1004F00058BF23EA0904CEF80040AD023B6843EA46
:10050000090458BF23EA09043C6008F104080CF10F
:10051000020C01326AE70323674603FA0CF46FEA20
:10052000040E8BE7BDE8F88F002402580000FEA7F8
:100530000400005808040058002A08BF090481611B
:100540007047000001480068000C70470010005C14
:1005500005480068704700BF2948034900780A68C9
:1005600010440860704700BFEC00002080B50320F5
:1005700000F076F801F048F90E490F4B0A68C2F313
:100580000322096801F00F019A5C595C02F01F0216
:10059000D0401C4A01F01F011060C84007490860A4
:1005A000002000F00DF808B1012080BD00F02CF80B
:1005B000002080BD18440258303100080C00002093
:1005C00070B50F4E04463078B0B14FF47A71B1FB7C
:1005D000F0F00C490968B1FBF0F001F0D7FB012500
:1005E0000F2C0AD848B94FF0FF30214600220025D1
:1005F00000F01AF8746000E00125284670BD00BFC5
:10060000000000200800002081B00648016841F089
:1006100002010160006800F002000090009801B043
:10062000704700BFF444025870B5134B4FF0FF35CC
:100630001B68C3F30223DC1E83F0070338BF0024CA
:10064000042B28BF042305FA04F605FA03F3B2438A
:100650009943A1401143BDE8704002F09FBC00BF28
:1006600005494FF6FF030A681A4060F30A2203485F
:1006700010430860704700BF0CED00E00000FA0571
:100680002DE9FC411D46174688460446FFF760FFEA
:10069000064694F84000012802D10220BDE8FC8102
:1006A000012084F8400094F84100012832D1002054
:1006B0006064202100223346422084F841000095E6
:1006C000204601F007FE30BB206897E80E108162DB
:1006D0004262C362C8F828C03969026822F4400245
:1006E00011434FF0006241F4800101602046414611
:1006F00001F081FC2046082101223346009508259F
:10070000012701F0E7FD30B92068C560002084F8BA
:10071000417000E00220002184F84010BDE8FC8117
:10072000F8B515460F460446FFF712FF064694F843
:100730004000012801D10220F8BD012084F84000CA
:1007400094F841100220012921D10021616484F82C
:1007500041002046002233460095202101F0BAFDD9
:10076000A8B920463946002201F045FC786A20B13C
:10077000012084F84100002009E0204602210122E6
:10078000334600950225012701F0A4FD18B1002190
:1007900084F84010F8BD2068C56084F84170EAE72D
:1007A000F8B50446FFF7D4FE2CB1054694F8410095
:1007B00018B1A06C07E00120F8BD204600F080F8D9
:1007C00041F28830A0642168A2686FF0FF03002620
:1007D00003EB02220B6823F470631A430A60009053
:1007E000204620212B46002201F074FD00B1F8BD07
:1007F000D4E90001D4E903230F4F05683D402A43A3
:1008000042EA0161E2691143226A114301600B4A25
:100810004168114062691143A26941EA03411143F1
:100820004160016841F0010101600120666484F8C3
:1008300041000020F8BD00BF2FFFFF00FEF8E0FFE1
:100840007CB516460D460446FFF782FE034694F833
:100850004000012801D102207CBD012084F8400025
:1008600094F84100012826D1002060642021002254
:10087000822084F84100A06C0090204601F02AFDFF
:10088000D0B9206871680829026822F0080242EA9B
:100890000102026007D1316801631021C160016863
:1008A00041F480110160204629464FF0406201F07A
:1008B000A2FB002000E00220002184F840107CBD53
:1008C0002DE9F04387B0044602A81421FFF738FD54
:1008D00020684349884240F080804248424D02AC43
:1008E000424F4FF009084FF0040950F80C1C41F436
:1008F000804140F80C1C50F80C1C01F4804101911F
:100900000199016841F002010160016801F00201F2
:1009100001910199016841F002010160016801F053
:10092000020101910199016841F00801016001682B
:1009300001F0080101910199016841F01001016085
:10094000016801F0100101910199016841F008016D
:100950000160016801F0080101910199016841F00D
:10096000080101600068214600F00800019001982C
:10097000CDF81880CDF80890032005900020049051
:10098000022003902846B8470A20069021464020BE
:1009900002902846B8474FF4006005F500660290C3
:1009A0002146CDF818803046B84705F5406021460D
:1009B000CDF81880CDF80890B8474FF480500290D9
:1009C0002146CDF818803046B8474FF400500290C9
:1009D0002146CDF818803046B84707B0BDE8F0830F
:1009E00000500052E044025800040258BD030008C1
:1009F0002DE9FC41154688460446FFF7A9FD276806
:100A00000646B86994F84010012902D10220BDE8D9
:100A1000FC81012184F8401094F8411001292BD168
:100A2000B8F1000F4FF00001616427D0222184F853
:100A30004110012239690131A163396901316163D2
:100A4000796962F39B617961C4F83080B861A06B09
:100A5000D0B12046062101223346009501F03AFC30
:100A6000F0B997F82000216B0870206BA16B013062
:100A70002063481EA063EAE7022014E0606C40F0A7
:100A80000800606401200EE0204602210122334666
:100A90000095022501F01EFC10B92068C5600020F9
:100AA000012184F84110002184F84010BDE8FC8148
:100AB00080B500F06BFE0549054A0968C1F30211D3
:100AC000515C01F01F01C84080BD00BF20440258A6
:100AD00030310008B0B53B498B6A8A6ACC6AC4F3EE
:100AE0000014CD6BC5F3CC056C4300EE104AB8EE94
:100AF000400AC2F30532AAB103F00303022B15D05A
:100B0000BBB90B689B0651BF9FED311A0B68C3F34D
:100B1000C103304C42BF24FA03F301EE103AB8EEA1
:100B2000411A08E00021C0E9001148E09FED271AB2
:100B300001E09FED251A8B6B9FED273A6FF35F2342
:100B400002EE103AB8EE422A00EE032A03EE102A13
:100B5000B7EE000AB8EE433A8A6BC2F3462232EE91
:100B6000002A81EE031A21EE021A02EE102AB8EED4
:100B7000422A32EE002A81EE022ABCEEC22A80ED21
:100B8000002A8A6BC2F3064202EE102AB8EE422A0D
:100B900032EE002A81EE022ABCEEC22A80ED012A42
:100BA000896BC1F3066102EE101AB8EE422A32EEEA
:100BB000000A81EE000ABCEEC00A10EE101A816035
:100BC000B0BD00BF004402580024744A20BCBE4B94
:100BD0000024744C0090D00300000039B0B53B49AC
:100BE0008B6A8A6ACC6AC4F300244D6CC5F3CC05C9
:100BF0006C4300EE104AB8EE400AC2F30552AAB1A7
:100C000003F00303022B15D0BBB90B689B0651BF41
:100C10009FED311A0B68C3F3C103304C42BF24FA75
:100C200003F301EE103AB8EE411A08E00021C0E9E2
:100C3000001148E09FED271A01E09FED251A0B6C8B
:100C40009FED273A6FF35F2302EE103AB8EE422A87
:100C500000EE032A03EE102AB7EE000AB8EE433A7C
:100C60000A6CC2F3462232EE002A81EE031A21EE0C
:100C7000021A02EE102AB8EE422A32EE002A81EE63
:100C8000022ABCEEC22A80ED002A0A6CC2F3064298
:100C900002EE102AB8EE422A32EE002A81EE022A33
:100CA000BCEEC22A80ED012A096CC1F3066102EE96
:100CB000101AB8EE422A32EE000A81EE000ABCEEAB
:100CC000C00A10EE101A8160B0BD00BF0044025887
:100CD0000024744A20BCBE4B0024744C0090D00306
:100CE000000000392DE9F0470446C078A94F0007FD
:100CF00021D5606E4FEA3051032908D8DFE801F0B2
:100D000002090E16F96941F40031F9610EE001267D
:100D100012E0201D022101F007FB04E004F1240091
:100D2000022101F07DFB064630B9606E396C21F47A
:100D300040110843386400266078BA46C00701D1E4
:100D4000354628E0606D04280BD83546DFE800F012
:100D5000030C11171700F869354640F40030F861AC
:100D60000DE00125012717E0201D002101F0DCFA2C
:100D700004E004F12400002101F052FB05462F4657
:100D800055B9606DDAF840100025524621F0070190
:100D90000843CAF840003746607880072BD5A06D1D
:100DA0004FEAB01004280CD8DFE800F0030E131946
:100DB0001900DAF81C00514640F40030CAF81C0053
:100DC0000DE00125012617E0201D002101F0ACFAFD
:100DD00004E004F12400002101F022FB05462E4628
:100DE00055B9A06DDAF840100025524621F4E071A3
:100DF0000843CAF840003E466078400702D4B04637
:100E000057462AE0D4F8A40057464FEA7050042809
:100E100009D8DFE800F0030C11171700F86940F457
:100E20000030F8610EE001254FF0010815E0201DAB
:100E3000002101F079FA04E004F12400002101F01E
:100E4000EFFA0546A84645B9D4F8A400B96C0025C8
:100E5000B04621F460010843B864607800072AD5E1
:100E6000D4F8A8004FEA3060042809D8DFE800F081
:100E7000030B10161600F86940F40030F8610DE01D
:100E80000125012718E0201D002101F04DFA04E0A2
:100E900004F12400002101F0C3FA05462F465DB994
:100EA000D4F8A800DAF848100025524621F0E06195
:100EB0000843CAF848004746E078800724D5A06C6C
:100EC0004FEA301003280BD8DFE800F012020D12B1
:100ED000DAF81C00514640F40030CAF81C0007E064
:100EE0000125012611E0201D022101F01DFA054611
:100EF0002E4655B9A06CDAF83C100025524621F078
:100F000030010843CAF83C003E466078C0062BD545
:100F1000E06D4FEA303004280CD8DFE800F0030E13
:100F200013191900DAF81C00514640F40030CAF8D1
:100F30001C000DE00125012717E0201D002101F014
:100F4000F3F904E004F12400002101F069FA0546F8
:100F50002F4655B9E06DDAF840100025524621F4CD
:100F6000E0410843CAF8400037466078800625D53E
:100F7000206E4FEA3040052809D8DFE800F013035F
:100F80000D131313201D012101F0CEF909E00125F5
:100F9000012614E01044025804F12400012101F05C
:100FA0003FFA05462E4655B9206EDAF84010002566
:100FB000524621F4E0210843CAF840003E466078DA
:100FC000400625D5D4F8AC004FEA3070052809D882
:100FD000DFE800F011030B111111201D012101F0B8
:100FE000A3F907E00125012713E004F12400012102
:100FF00001F016FA05462F465DB9D4F8AC00DAF8D0
:1010000048100025524621F0E0410843CAF8480044
:1010100037466078000620D5E06E90B1B0F1005FF1
:101020000AD0B0F1805F2CD1DAF81C00514640F4B0
:101030000030CAF81C0004E0201D012101F074F901
:1010400005462E4655B9E06EDAF8401000255246A6
:1010500021F040510843CAF840003E46E078C007FE
:1010600002D1B046574622E0606C574603280BD8A1
:10107000DFE800F013020E13F86940F40030F86165
:101080000BE001250126E9E701254FF001080EE0FC
:10109000201D022101F048F90546A8463DB9606CC3
:1010A000F96B0025B04621F003010843F863A078EE
:1010B000400601D4474616E0D7F8F00340F48070AC
:1010C000C7F8F003FFF744FA0646D7F8F003C00567
:1010D00007D4FFF73DFA801B6428F6D903250327C0
:1010E00001E02F468DB12078C0074ED0A06F4FEAA7
:1010F000F000052834D8DFE800F03C03363C3C3CE7
:10110000201D012101F010F932E0DAF86010D4F866
:10111000B0005546414011F4407F0BD0296E2A6E35
:1011200042F480322A6621F440712A6E22F4803221
:101130002A662966B0F5807F40F00582FFF708FA3D
:10114000064641F288390327DAF86000800700F18B
:10115000F781FFF7FDF9801B03254845F4D9C2E765
:101160000125012612E004F12400012101F058F9C3
:1011700005462E4655B9A06FDAF8441000255246B0
:1011800021F038010843CAF844003E462078800721
:1011900021D5606F052809D8DFE800F011030B1195
:1011A0001111201D012101F0BFF807E001250127E1
:1011B00012E004F12400012101F032F905462F4626
:1011C00055B9606FDAF844100025524621F0070146
:1011D0000843CAF8440037462078400723D5D4F89E
:1011E0009000052809D8DFE800F011030B11111158
:1011F000201D012101F098F807E00125012613E0E8
:1012000004F12400012101F00BF905462E465DB9D9
:10121000D4F89000DAF848100025524621F0070172
:101220000843CAF848003E462078800625D5D4F801
:101230008C004FEA3070052809D8DFE800F0110370
:101240000B111111201D002101F06EF807E001259E
:10125000012713E004F12400022101F0E1F8054622
:101260002F465DB9D4F88C00DAF8441000255246B8
:1012700021F0E0410843CAF8440037462078400690
:1012800025D5D4F898004FEAB020052809D8DFE822
:1012900000F011030B111111201D002101F044F881
:1012A00007E00125012613E004F12400022101F0EA
:1012B000B7F805462E465DB9D4F89800DAF848101C
:1012C0000025524621F4E0510843CAF848003E4642
:1012D0002078000625D5D4F89C004FEA7030052808
:1012E00009D8DFE800F011030B111111201D0021B6
:1012F00001F01AF807E00125012713E004F12400AA
:10130000022101F08DF805462F465DB9D4F89C0006
:10131000DAF848100025524621F460410843CAF823
:10132000480037462068010717D5D4F88010B1F57A
:10133000805F0AD104F12400022101F071F8002835
:1013400018BF01272068D4F88010DAF844205346EB
:1013500022F440521143CAF84410C10617D5D4F8FC
:101360009410B1F5807F0AD104F12400022101F02C
:1013700057F8002818BF01272068D4F89410DAF82D
:101380004820534622F440721143CAF84810000323
:1013900020D5D4F8A000B0F5003F0ED0B0F5803FC6
:1013A00005D078BB201D002100F0BEFF04E004F151
:1013B0002400022101F034F805462E465DB9D4F828
:1013C000A000DAF848100025524621F440310843C5
:1013D000CAF848003E46A078400729D5D4F88400D2
:1013E000B0F5401F17D0B0F5001F0ED0B0F5801F2C
:1013F00040F0A380DAF81C00514640F40030CAF8EF
:101400001C0008E001250126E5E704F12400012184
:1014100001F006F805462F465DB9D4F88400DAF8E5
:1014200044100025524621F440110843CAF84400F4
:101430003746A078C00701D13E4620E0E06CB0F509
:10144000803F08D0C8B9DAF81C00514640F400309B
:10145000CAF81C0004E0201D022100F065FF0546CB
:101460002E4665B9E06CDAF83C100025524621F4AE
:1014700080310843CAF83C00DEE7012501262068D8
:10148000810008D504F12400022100F0C9FF0028E2
:1014900018BF0126206881031BD5E16F6FF00102A0
:1014A00002EB3122022A0AD34FEA31223AB1012A51
:1014B00006D1DAF81C2042F40032CAF81C200DB123
:1014C000012606E0DAF8442022F440721143CAF8FB
:1014D0004410C10207D5216FDAF8402022F0004203
:1014E0001143CAF84010810207D5A16EDAF84020F6
:1014F00022F080721143CAF8401041000CD5DAF88E
:10150000001021F40041CAF80010D4F8B810DAF83D
:1015100000201143CAF80010B0F1FF3F07DC206D36
:10152000DAF83C1021F040510843CAF83C00002E84
:1015300018BF01263046BDE8F0870125012778E76E
:101540005546D4F8B0002A68094900F4407322F4E3
:101550007C5201EA1011B3F5407F6FF31F3008BFD2
:101560000A432A60296E084328660025A2E500BFC9
:10157000CFFFFF002DE9F843002800F00081814DE6
:1015800004468846286800F00F0088420BD228687D
:1015900020F00F0040EA08002860286800F00F00E3
:1015A000404540F0EC802068CC4F41070AD52169C6
:1015B000BA6902F07002914204D9BA6922F070024D
:1015C0001143B96101070AD56169FA6902F0700235
:1015D000914204D9FA6922F070021143F961C106FF
:1015E0000AD5A169FA6902F4E062914204D9FA6964
:1015F00022F4E0621143F96181060AD5E1693A6A91
:1016000002F07002914204D93A6A22F0700211434A
:10161000396210F002010AD0E268BB6903F00F03DF
:101620009A4204D9BB6923F00F031A43BA61C20777
:101630003AD0D4E90101BA6922F47062032841EA80
:101640000201B96105D0022807D1396889030DD498
:1016500095E03968890109D491E03968012802D1FF
:10166000C90503D48BE0490740F189803969A9464F
:1016700021F0070108433861FEF76AFF064641F290
:1016800088356068396901F03801B1EBC00F07D0C7
:10169000FEF75EFF801BA842F3D90320BDE8F88364
:1016A00020684D4600F0020151B1E168BA6902F0CC
:1016B0000F02914204D2BA6922F00F021143B961BC
:1016C000296801F00F0141450AD9296821F00F016D
:1016D00041EA08012960296801F00F0141454ED116
:1016E00041070AD52169BA6902F07002914204D219
:1016F000BA6922F070021143B96101070AD5616924
:10170000FA6902F07002914204D2FA6922F0700282
:101710001143F961C1060AD5A169FA6902F4E062D0
:10172000914204D2FA6922F4E0621143F961800621
:101730000AD5E069396A01F07001884204D2396A39
:1017400021F070010843386200F05EF8B9692D4A53
:101750001B4BC1F30321515C01F01F01C840B96963
:10176000186001F00F01515C01F01F01C8401549DC
:10177000086005480068BDE8F843FEF721BF012076
:10178000BDE8F883002000520400002080B500F07E
:101790003BF80A491B4B0A68C2F30322096801F0AF
:1017A0000F019A5C595C02F01F02D040044A01F01C
:1017B0001F011060C8400349086080BD18440258EA
:1017C000080000200C00002080B5FFF7DFFF0C4967
:1017D0000C4A0968C1F30211515C01F01F01C840B5
:1017E00080BD00BF80B5FFF7D1FF0549054A0968F4
:1017F000C1F30221515C01F01F01C84080BD00BF50
:101800001C4402583031000810B534490869C0F34F
:10181000C20003280BD002282FD080BB08688006A6
:1018200034485AD50968C1F3C101C84010BD8A6A5D
:10183000886ACB6A4C6B03F00103C4F3CC046343A6
:1018400000EE103AB8EE400AC0F30510C8B102F03D
:101850000302022A17D0CAB90A68920651BF9FED47
:10186000241A0A68C2F3C102224B42BF23FA02F2D1
:1018700001EE102AB8EE411A0AE01A4810BD1848C5
:1018800010BD002010BD9FED191A01E09FED161A42
:101890000A6B9FED193A6FF35F2202EE102AB8EE41
:1018A000422A00EE032AB7EE000A32EE000A02EEE8
:1018B000100AB8EE422A086BC0F3462081EE021AE5
:1018C000013021EE000A01EE100AB8EE411A80EE56
:1018D000010ABCEEC00A10EE100A10BD0044025806
:1018E00000093D0040787D010024744A20BCBE4BB5
:1018F0000024744C0090D00300000039F8B5002893
:1019000000F0C88004460078D84EC00712D0306975
:1019100000F03801B06A102905D018292CD100F048
:101920000300022828D13068800303D560680028AE
:1019300000F0B0802078800748D5306910F0380179
:10194000B06A2CD0182908BF5FEA807027D03068B1
:10195000E168002900F0FD8020F0190008433060A4
:10196000FEF7F6FD0546306840071ED4FEF7F0FD91
:10197000401B0228F7D976E16068002800F0FA8061
:10198000B0F5803F07D03168B0F5A02F40F0588106
:1019900041F480203060306840F4803056E1306897
:1019A000400702D5E068002874D0FEF7CBFD41F275
:1019B000030271689042206987BF21F0FE4141EA2D
:1019C000006021F47C3141EA003070602078C0066C
:1019D00026D5306900F03801B06A082906D01829E8
:1019E00040F0808000F0030001287BD13068C00502
:1019F00002D5E06980284DD1FEF7A4FD41F2030134
:101A00008842206A81BFF16821F07C5141EA006080
:101A1000F0609FBF716821F0F84141EA806070601A
:101A20002078000738D42078800648D420784007F2
:101A30006CD4676A67B3306900F03800182840F04A
:101A4000E180B16A306B012F24D0A26A01F0030358
:101A500093421FD1E26AC1F3051191421AD10146A6
:101A6000226B6FF35F21013A914213D1C0F34621FB
:101A7000626B013A91420DD1C0F30641A26B013A6B
:101A8000914207D1C0F30660E16B0139884201D170
:101A900000207AE10120F8BD706F6169002948D00B
:101AA00040F001007067FEF753FD0546706F800738
:101AB000B9D4FEF74DFD401B0228F7D9D3E03068BA
:101AC000A16900297CD040F480503060FEF740FDD1
:101AD000054630688004A9D4FEF73AFD401B022871
:101AE000F7D9C0E03068E16900297AD040F0800081
:101AF0003060FEF72DFD05463068C0053FF57CAF30
:101B0000FEF726FD401B0228F6D9ACE0D6F800040B
:101B100040F48070C6F80004FEF71AFD0546D6F8BA
:101B20000004C0053CD4FEF713FD401B6428F6D921
:101B300099E020F001007067FEF70AFD0546706F1E
:101B400080077FF570AFFEF703FD401B0228F6D932
:101B500089E020F001003060FEF7FAFC05463068AD
:101B600040077FF533AFFEF7F3FC411B032002294A
:101B7000F5D90AE1306820F480303060306820F414
:101B800080203060FEF7E4FC0546306880037FF576
:101B9000D1AEFEF7DDFC411B03206429F5D9F4E04A
:101BA000A068002864D0012806D0316F052840F0D5
:101BB000D68041F004003067306F40F00100D4E07F
:101BC00020F480503060FEF7C3FC05463068800486
:101BD0007FF52CAFFEF7BCFC411B03200229F5D991
:101BE000D3E020F080003060FEF7B2FC054630689C
:101BF000C0057FF515AFFEF7ABFC411B03200229A2
:101C0000F5D9C2E0306820F080703060FEF7A0FCAB
:101C10000546022F09D13068800141D5FEF798FCB6
:101C2000411B03200229F6D9AFE0306880017FF51F
:101C30002FAFFEF78DFC411B03200229F5D9A4E04C
:101C400021F480303060306820F480203060FEF76E
:101C50007FFC0546306880033FF56CAEFEF778FCEC
:101C6000401B6428F6D90320F8BD00BF0044025889
:101C7000306F20F001003067306F20F004003067D3
:101C8000FEF766FC054641F28837306F80077FF526
:101C9000D0AEFEF75DFC411B0320B942F5D974E0DC
:101CA00004F12805B06A40F2F33188432ECD084391
:101CB000591E40EA0210B0626FF35F214FF4FE023A
:101CC0004FF47E4000EB452080B20844A16B02EB4C
:101CD00001414FF0FE4201F4FE010844E16B02EBCA
:101CE000016101F0FE41084430634FF6F871F06A7B
:101CF00020F00100F062706B8843A16C40EAC100E3
:101D00007063206CF16A21F00C010843F062F06A04
:101D1000616C20F002000843F062F06A40F4803009
:101D2000F062F06A40F40030F062F06A40F4802023
:101D3000F062F06A40F00100F062306840F08070BC
:101D40003060FEF705FC0446306880013FF5A0AE28
:101D5000FEF7FEFB011B03200229F5D915E021F057
:101D600001003067306F20F004003067FEF7F0FBB1
:101D7000054641F28837306F80073FF55AAEFEF7CF
:101D8000E7FB411B0320B942F5D9F8BD411E0020F5
:101D9000B0EB116F01D001207047044AF02351606D
:101DA00003490B70906007211160704710E000E05C
:101DB00023ED00E090F87C10012901D1022112E00E
:101DC0002421C0F8801001680A680B6823F0010321
:101DD0000B6022F000520A600021416680F87C10FE
:101DE0002022C0F8802008467047B0B5044690F81D
:101DF0007C00012801D10220B0BD2420C4F880005D
:101E000020680568026822F001020260012284F85D
:101E10007C20826822F0606211438160204600F0DD
:101E20001BFC206820210560002084F87C00C4F899
:101E30008010B0BDB0B5044690F87C00012801D1F7
:101E40000220B0BD2420C4F8800020680568026824
:101E500022F001020260012284F87C20826822F0D4
:101E6000604211438160204600F0F6FB206820218B
:101E70000560002084F87C00C4F88010B0BD10B567
:101E8000B0B10446D0F8800028B9002084F87C0066
:101E9000204600F027F82420C4F88000206801685C
:101EA00021F001010160204600F07EFC012801D1F3
:101EB000012010BDA06A10B1204600F0EFFB2068A1
:101EC000416821F490414160816821F02A018160DC
:101ED000016841F0010101602046BDE8104000F0BA
:101EE00032BC0000B0B586B0044601A81421FEF74C
:101EF00027FA20681C49884233D12F481B4C01AD7A
:101F0000016941F010010161016901F010010091C6
:101F10000099016841F001010160016801F00101CF
:101F200000910099016841F00101016000682946B3
:101F300000F0010000900098072005900320049015
:101F400001200390022002904FF40070019020467F
:101F5000FEF734FA4FF48060019029462046FEF7E0
:101F60002DFA06B0B0BD00BF0010014000000258BD
:101F7000FEE70000F0B587B00F48002506950F4C2E
:101F800001224FF400560127016841F0040101606D
:101F900000684FF4005100F00400019001982046C1
:101FA000FEF7CAFA02A92046CDE90455CDE9026739
:101FB000FEF704FA07B0F0BDE044025800080258EA
:101FC00070B5C34800210122162310242025074E96
:101FD0000162C0E90062C0E90254C0E90431C0E90D
:101FE0000621BDE87040FEF7DBBB00BF0050005289
:101FF000FEE7704770472DE9F0414B6AB2F1406F40
:1020000018BF002B03D004688D6A013D25618C69DF
:102010000D6A7CB3002D49D0D0F800C0CE698F681E
:10202000D1E904E82B43002ECCF81C70D1E90B5702
:10203000486B43EA050343EA070340EA030040EA2A
:10204000884040EA0E034BD044EA0200CC68B2F16B
:10205000406F40EA060040EA03000B6840EA0400D3
:1020600040EA0300CCF8140072D04868CCF818009D
:10207000BDE8F081EDB3006801F12C07CC698E68F2
:10208000D1E904CE2B43002CC661E0CF43EA05031F
:1020900043EA060343EA070343EA8E4343EA0C0399
:1020A00041D014432343CC68234334E0D1E90B7679
:1020B000D1F814C04D6BD1F81CE03B43BEF1000FCA
:1020C00043EA060343EA050343EA8C432ED0144354
:1020D000CD6844EA0E0423430C682B43234319E0E4
:1020E00044EA0200096818430843CCF81400BDE82C
:1020F000F081CC69FCB11343D1E90B674D69D1F88C
:102100000CC023434C6B33433B43234343EA854397
:1021100043EA0C030068B2F1406F436118D049688C
:102120008161BDE8F08143EA020110E022430968C1
:102130001A4311430AE05BB11A43D1E90B454B69DD
:10214000496B22432A43114341EA834100684161BC
:10215000BDE8F08180B594B000201390CDE9110066
:10216000CDE90D004FF480710B90049000900C911C
:102170006A4641F288334FF480004FF08071059039
:102180000F911020052102900691012003900190EB
:1021900006A94F48FEF774FA002818BF6FF0020036
:1021A00014B080BD80B5FFF70BFF00F061F800F0C0
:1021B0002FF80349401A18BF4FF0FF3080BD00BF11
:1021C0001740EF0080B590B04FF480704FF400518D
:1021D000089000200F90CDE90D0005914FF040715F
:1021E0000B910A90CDE900004FF44061099106215E
:1021F0000791EB21029100F03BF8354802A96A46AD
:10220000FEF71EFB002818BF6FF0050010B080BD60
:1022100010B590B04FF480704FF4005108902C4CE2
:1022200041F2883200200F90CDE90D0005914FF06A
:1022300080710B910A900990079003219F200C91C7
:10224000029002A92046FEF76BFA0DF10501204627
:1022500041F28832FEF7CCFB9DF806109DF8050090
:102260009DF80720090241EA0040104410B010BD5B
:1022700080B58EB000200D90CDE90B00CDE90700B0
:102280004FF480710990CDE9050141F28832662052
:10229000009069460E48FEF743FA08B1FF2003E0BC
:1022A000FFF758FF18B1FD2040B20EB080BD992055
:1022B0000090694641F288320548FEF731FA00285D
:1022C000ECD1FFF747FF002818BF6FF00200EBE7E3
:1022D000140000202DE9F843DDF8209098461646BA
:1022E0000F46044609F1010520688068384018BF90
:1022F0000120B04214D0002DF6D0FEF729F9B9F133
:10230000000F03D0A0EB08004845EDD9042084F865
:102310004100606C40F0010060640120BDE8F8837A
:102320000020BDE8F8830000F8B5C74F0546B86A3D
:1023300000F00300032801D10120F8BD38680C46E5
:1023400020F080603860FEF703F906463868000127
:1023500005D5FEF7FDF8801B0228F7D95CE095E86B
:102360000F00BE6A26F47C36A1F1010146EA003076
:10237000B8626FF35F214FF47E4000EB42204FF0D4
:10238000FE4280B208444FF4FE0101EB034101F428
:10239000FE010844296902EB016101F0FE41084495
:1023A000B8636869F96A21F0C00140EA0100F86287
:1023B000A869F96A21F0200140EA0100F8624FF6AD
:1023C000F871F86A20F01000F862F86B20EA01005A
:1023D000E96940EAC100F863F86A40F01000F86269
:1023E0003CB1F86A012C14BF40F4001040F4801096
:1023F00002E0F86A40F40020F862386840F080603B
:102400003860FEF7A5F804463868000106D4FEF7E8
:102410009FF8001B0328F7D30320F8BD0020F8BD68
:10242000F8B5894F0546B86A00F00300032801D1CA
:102430000120F8BD38680C4620F080503860FEF767
:1024400087F806463868800005D5FEF781F8801BBE
:102450000228F7D95CE095E80F00BE6A26F07C768A
:10246000A1F1010146EA0050B8626FF35F214FF419
:102470007E4000EB42204FF0FE4280B208444FF411
:10248000FE0101EB034101F4FE010844296902EB5E
:10249000016101F0FE41084438646869F96A21F479
:1024A000406140EA0100F862A869F96A21F400710C
:1024B00040EA0100F8624FF6F871F86A20F4807083
:1024C000F862786C20EA0100E96940EAC1007864AA
:1024D000F86A40F48070F8623CB1F86A012C14BFCD
:1024E00040F0807040F4000002E0F86A40F48000A0
:1024F000F862386840F080503860FEF729F80446EA
:102500003868800006D4FEF723F8001B0328F7D3B1
:102510000320F8BD0020F8BD7047FEF71DB800008D
:1025200010B5CCB039A84C21FDF70AFF31A8202105
:10253000FDF706FF02A8BC21FDF702FF264801684F
:1025400021F0040101600021019124490A6822F070
:1025500001020A60096801F001010191C16841F4BA
:102560004041C160C16801F4404101910199C168D5
:102570008904FCD50C200024CDE94A444990A021CF
:1025800002204890CDE94600459105214491CDE9CE
:1025900042004FF480303A900120399039A8FFF77B
:1025A000ADF940204FF4806137913890CDE9350086
:1025B0000820CDE933400421032032903F203190A0
:1025C00031A8FEF7D7FF064802902094149402A881
:1025D000FEF788FB4CB010BD0C4802582C04005884
:1025E0000100000210B51748184CD0F8801041F4D3
:1025F0007001C0F8801014490A6842F001020A60B4
:1026000000220A610B6823400B608A61CA610A627A
:102610008A62CA620A634A638A63CA630A644A6452
:102620000B6823F480230B600A6609490968B2EB42
:10263000517F02D1074901220A604FF00061016019
:1026400010BD00BF08ED00E0004402587FEDF6EA3F
:102650000010005C08810051B0B5416E91B1026874
:102660000C4B0D4D9168C1F342619268520F5C5C56
:10267000695C9B5CAA5CC900D200B1FBF4F1B2FBBF
:10268000F3F201E001220121A0F86810A0F86A200D
:10269000B0BD00BF483100084031000810B5816A64
:1026A000CA0706D00268C36A546824F4003423437E
:1026B00053608A0706D50268036B546824F480349B
:1026C000234353604A0706D50268436B546824F4D9
:1026D0008024234353600A0706D50268836B54683D
:1026E00024F4004423435360CA0606D50268C36B32
:1026F000946824F48054234393608A0606D50268C4
:10270000036C946824F40054234393604A0610D564
:102710000268436CB3F5801F546824F4801444EAC3
:102720000304546005D1836C546824F4C00423432B
:102730005360090606D50168C06C4A6822F400227D
:102740001043486010BDBCB504460020C4F88800A2
:10275000FDF7FEFE05462068016809070BD56FF0FE
:102760007E4000904FF4001100222B46204600F0DE
:102770009DFB70B92068006840070CD56FF07E4063
:1027800000904FF4800100222B46204600F08EFB83
:1027900008B10320BCBD00202021C4F8801084F8BB
:1027A0007C00C4F88410BCBDF0B587B00446006856
:1027B0009C4ED4E9021322690568354011436669CD
:1027C000E2693143666E114331439D4E29430160F6
:1027D000416821F44051194341609A4BA1699842E4
:1027E0001CBF256A294385683540974E294381607F
:1027F000B042D4F824C0C56A25F00F0545EA0C059F
:10280000C562924D29D0924EB04234D0914EB04222
:102810003FD0914EB0424AD0904EB04200F0558029
:102820008F4EB04200F05E80984200F068808D4E7E
:10283000B04200F071808C4E1946B04240F0838067
:102840006E6D2B46C6F3C207052F00F27D80012670
:10285000DFE807F07B6F7173757719462B466D6D56
:1028600005F00707052F00F26F800026DFE807F06C
:102870006D616365676919462B466D6D05F0070745
:10288000052F00F261800026DFE807F05F535557FF
:10289000595B19462B466D6D05F00707052F00F2B1
:1028A00053800026DFE807F0514547494B4D194654
:1028B0002B466D6D05F00707052F00F245800026B9
:1028C000DFE807F04337393B3D3F19462B466D6D36
:1028D00005F00707052F37D80026DFE807F0362A6E
:1028E0002C2E303219462B466D6D05F00707052F4B
:1028F0002AD80026DFE807F0291D1F2123251946C5
:102900002B46AD6D05F00707052F1DD80226DFE821
:1029100007F01C101214161819462B466D6DC5F3DE
:10292000C207052F10D80126DFE807F00F030507BF
:10293000090B042609E0082607E0102605E02026FA
:1029400003E0402601E02B468026884213D0012078
:10295000B2F5004F27D1082E35D8DFE816F0090070
:10296000D20096029602D600960296029602DC00EB
:10297000FEF72AFFC7E0402E00F07A80042E1F46A3
:1029800000F08B80082E00F08F80102E00F0A580C4
:10299000202E00F0AE80022E40F07682FEF788F8FE
:1029A000D4F824C086E0082E2AD8DFE816F0090003
:1029B000C0006E026E02C4006E026E026E02CA0099
:1029C000FEF702FFB5E0102E00F0C780202E00F0C9
:1029D000CF80402E40F059820120BCF10A0F00F256
:1029E000E881DFE81CF0FD010B00EC01EE01F001D5
:1029F000F201F401F601F801FA01FC010220EFE115
:102A0000102E00F0BC80202E00F0C380402E40F03D
:102A10003C820120BCF10A0F00F2EA810FF20802A9
:102A2000D2E81CF0F369FFCFFD012400EC01EE01B8
:102A3000F001F201F401F601F801FA01FC0100BF16
:102A4000FFF4FF11000C00580044004000440258FD
:102A500000480040004C004000500040007800401A
:102A6000007C004000140140001001400220D6E12B
:102A70000120BCF10A0F00F20C811F46DFE81CF0B8
:102A800021010B00100112011401160118011A0195
:102A90001C011E012001022013E104A8FEF71AF810
:102AA000D4F824C0059805E001A8FEF797F8D4F8FB
:102AB00024C00298BCF10B0F04D2DFF8E02352F8D7
:102AC0002C2004E04FF0010208BF4FF48072B0FBED
:102AD000F2F3002B40F0F980AFE1386880065FD454
:102AE000BCF10B0F80F0A880DFF8B00350F82C0089
:102AF000A7E0BCF10B0F60D2DFF8A00350F82C0068
:102B000060E0FEF76FFE616A0AE004A8FDF7E2FFED
:102B1000616A059804E001A8FEF760F8616A02980E
:102B20000B295ED2DFF8742352F821105EE0FEF725
:102B300059FE616A0AE004A8FDF7CCFF616A0598B6
:102B400004E001A8FEF74AF8616A02980B2964D2F2
:102B5000DFF8482352F8211064E01868800633D467
:102B6000BCF10B0F77D2DFF8340350F82C0077E07C
:102B7000BCF10B0F3DD2C94850F82C003EE018685C
:102B800080063DD4BCF10B0F7CD2C44850F82C0019
:102B90007DE0BCF10B0F48D2C04850F82C0049E052
:102BA0003868C04ABCF10B0FC0F3C10022FA00F034
:102BB00049D2BA4A52F82C204AE04FF0010008BF2F
:102BC0004FF48070B64A7EE01868B64ABCF10B0F2D
:102BD000C0F3C10022FA00F003D2B04A52F82C1020
:102BE00004E04FF0010108BF4FF48071B0FBF1F039
:102BF00039E04FF0010008BF4FF48070A84930E081
:102C00001868A84ABCF10B0FC0F3C10022FA00F00B
:102C100003D2A24A52F82C1004E04FF0010108BF81
:102C20004FF48071B0FBF1F0FDE04FF0010008BF00
:102C30004FF480709A49F4E04FF0010008BF4FF460
:102C40008070984A3FE04FF0010208BF4FF4807255
:102C5000B0FBF2F339E04FF0010008BF4FF4807091
:102C60009049B1FBF0F0616840004A081044B0FBA5
:102C7000F1F04FF6F071014000F00681C0F3420020
:102C80000843D8E04FF0010008BF4FF48070854939
:102C9000C7E0BCF10B0F08BF4FF480701F4610E077
:102CA00004200EE006200CE008200AE00A2008E0DC
:102CB0000C2006E0102004E0202002E0402000E08C
:102CC00080204FF40042B2FBF0F36268012002EB77
:102CD0004205AB42C0F0D9801503AB4200F2D5806B
:102CE000402E0ED0042E1BD0082E1FD0102E31D017
:102CF000202E3ED0022E40F0C780FDF7D9FE616A3B
:102D000019E00120BCF10A0F00F29980DFE80CF015
:102D1000AE069D9FA1A3A5A7A9ABAD000220A5E08B
:102D200004A8FDF7D7FE616A059804E001A8FDF745
:102D300055FF616A02980B2903D2584A52F82110B4
:102D400004E04FF0010108BF4FF48071B0FBF1F0D7
:102D500062681CE038688006524803D53B68C3F3BC
:102D6000C103D840BCF10B0F0AD24C4B53F82C10C6
:102D70000BE0BCF10B0F15D2484850F82C0016E0C0
:102D80004FF0010108BF4FF48071B0FBF1F0010E6C
:102D9000000210EB52004FF0000341F10001FDF77B
:102DA00097FA6CE04FF0010008BF4FF480703C4987
:102DB0005EE0BCF10B0F08BF4FF4807010E0042000
:102DC0000EE006200CE008200AE00A2008E00C20B3
:102DD00006E0102004E0202002E0402000E08020F7
:102DE0004FF40041B1FBF0F06168420048083DE754
:102DF000BCF10B0F08BF4FF4807010E004200EE010
:102E000006200CE008200AE00A2008E00C2006E07A
:102E1000102004E0202002E0402000E080204FF459
:102E20000041B1FBF0F0616800EB5100B0FBF1F044
:102E300080B2102828D32168C860002025E0BCF1AA
:102E40000B0F08BF4FF4807010E004200EE0062046
:102E50000CE008200AE00A2008E00C2006E0102020
:102E600004E0202002E0402000E080204FF40041F8
:102E7000B1FBF0F0000200EB5200B0FBF2F0A0F565
:102E80004071094A9142D6D9012000214FF0011228
:102E9000C4E91A21216707B0F0BD00BF0431000862
:102EA00000093D000090D003FFFC0F002DE9F8431E
:102EB000DDF820900F46984616460446016809F151
:102EC0000105C8693840C01BB0FA80F04009B04223
:102ED00025D1002DF5D0FDF73BFB2168B9F1000F9E
:102EE0000A681FD0A0EB080048451BD8500744BF14
:102EF000C8695FEA0050E4D54FF4006008620868D2
:102F000020F4D0700860886820F0010088602020DC
:102F1000C4F88000C4F8840004F188000EE00020AA
:102F2000BDE8F88322F4D0700860886820F00100C2
:102F300088602020C4F8800004F18400002184F817
:102F40007C10202101600320BDE8F88310B5104CEF
:102F50000C2000214FF4E1320E4BC4E90032C4E9E9
:102F60000211C4E9041004F118001421FDF7E8F976
:102F70002046FEF784FF20460021FEF75BFF204637
:102F80000021FEF732FF2046BDE81040FEF712BFD9
:102F90006000002000100140FEE7000010B500F0C6
:102FA0000F034C4C044AB0F1FF3F2344C8BF8318C1
:102FB0000801187010BD00BF00E400E0454CBFF3ED
:102FC0004F8F002043F6E07CBFF36F8FC4F83C02C4
:102FD000BFF34F8FBFF36F8F216841F40031216041
:102FE000BFF34F8FBFF36F8F2067BFF34F8FE16E3B
:102FF000C1F34E30C1F3C902910701320CEA40150A
:103000000E46174646EA050306F14046013FC4F85E
:103010004C32F7D1431E00281846EFD1BFF34F8F33
:10302000206840F480302060BFF34F8FBFF36F8F74
:10303000FDF79CFAFFF774FAFEF79CFFFFF786FF97
:10304000FFF7B0F8FFF7BEF8BFF34F8F43F6E07C11
:10305000BFF36F8F206820F4003020600020C4F898
:103060003C02BFF34F8FBFF36F8F2067BFF34F8FCB
:10307000206820F480302060BFF34F8FE16EC1F3F1
:103080004E30C1F3C902910701320CEA40150E46D9
:10309000174646EA050306F14046013FC4F8603290
:1030A000F7D1431E00281846EFD10B48BFF34F8FCE
:1030B0000021BFF36F8F01604160816007480849BC
:1030C000006808604FF01040006880F308880868C6
:1030D0008047FEE714ED00E010E000E004000090FF
:1030E0001000002002E008C8121F08C1002AFAD10F
:1030F00070477047002001E001C1121F002AFBD178
:103100007047000001000000020000000400000001
:1031100006000000080000000A0000000C0000008B
:1031200010000000200000004000000080000000AF
:10313000000000000102030401020304060708095D
:103140000101010307010000080402040801010154
:10315000703100080000002010000000E43000087A
:103160008031000810000020E0040000F430000866
:1031700001000000100000000090D0030090D00378
:040000050800029954
:00000001FF
