:020000040800F2
:10000000805100205D020008F94C00089D43000863
:10001000D94C00081B0F0008255F000800000000F5
:100020000000000000000000000000009D0100082A
:10003000231B000800000000F9010008A15300087C
:1000400077020008770200087702000877020008AC
:10005000770200087702000877020008770200089C
:10006000770200087702000877020008770200088C
:10007000E9190008770200087702000877020008F3
:10008000F9190008770200087702000877020008D3
:10009000770200087702000877020008770200085C
:1000A000770200087702000877020008770200084C
:1000B00077020008A15400087702000877020008C0
:1000C000770200087702000877020008770200082C
:1000D00077020008F55E0008055F0008155F00085C
:1000E000770200087702000877020008770200080C
:1000F00077020008770200087702000877020008FC
:1001000077020008770200087702000877020008EB
:100110007702000877020008B1540008C1540008B3
:100120007702000877020008091A00087702000821
:1001300077020008770200087702000877020008BB
:1001400077020008770200087702000877020008AB
:10015000770200087702000877020008770200089B
:10016000770200087702000877020008770200088B
:1001700077020008770200087702000800000000FC
:100180007702000877020008DFF80CD000F06EFE5E
:10019000004800479D6E0008805100202C4B1968D4
:1001A0000868B0E8F04F80F30988BFF36F8F4FF015
:1001B000000080F3118870470000000008480068C4
:1001C000006880F308884FF0000080F3148862B65E
:1001D00061B6BFF34F8FBFF36F8F00DF00BF00BF6B
:1001E00008ED00E0DFF80C00016841F470010160E7
:1001F000704700BF88ED00E0EFF30980BFF36F8F19
:10020000134B1A681EF0100F08BF20ED108A20E96A
:10021000F04F106009B44FF0500080F31188BFF325
:100220004F8FBFF36F8F08F00BF84FF0000080F393
:10023000118809BC19680868B0E8F04F1EF0100F6B
:1002400008BFB0EC108A80F30988BFF36F8F704746
:10025000BC000020EFF3058070470000064880478F
:1002600006480047FEE7FEE7FEE7FEE7FEE7FEE79B
:10027000FEE7FEE7FEE7FEE78D540008890100086F
:100280002DE9F05F0546002092469B4688460646CB
:10029000814640241BE0284641464746224600F05E
:1002A000DCFB53465A46C01A914110D311461846FA
:1002B000224600F0C3FB2D1A67EB01084F46224689
:1002C0000120002100F0BAFB17EB00094E41201E6F
:1002D000A4F10104DFDC484631462A464346BDE826
:1002E000F09FA0F14101192900D82030704740EA61
:1002F00001039B0703D009E008C9121F08C0042AA4
:10030000FAD203E011F8013B00F8013B521EF9D28A
:100310007047D2B201E000F8012B491EFBD27047B2
:100320000022F6E710B513460A4604461946FFF7C1
:10033000F0FF204610BD421C10F8011B0029FBD124
:10034000801A704710B5002200E0521C835C8C5C60
:10035000A34201D1002BF8D1D8B2E1B2401A10BDAE
:1003600030B505460020034600E05B1C934205D2F1
:10037000EC5CC85C201A01D1002CF6D130BD000025
:100380002DE9FF4F087883B09946FF2805D0491C16
:100390002D2804D00024002008E000200BE00124D8
:1003A000F9E700EB800003EB4000491C0B78FF2BC2
:1003B000F7D104B1404200230293147819461D4638
:1003C0002D2C01D02B2C04D1521C2D2C13D0002409
:1003D0000294AA461478FF2C0FD00A25A3FB0578B7
:1003E00001FB05814FF0000C03FB0C11521CE319BB
:1003F0004AEB0101EEE70124EAE7814453EA0100F8
:1004000002D019F5C87F06DA03980021C0E900116F
:1004100007B0BDE8F08F0025AE4E2F46DFF8B8825A
:10042000184600F0FFFCCDE90001B9F1000002DA46
:10043000C9F1000400E004460023A74A1AEB030BAD
:1004400042EB045A12E0E00707D02A46334638460A
:10045000414600F0ECF9074688462A4633461046E6
:10046000194600F0E4F905460E466410002CEAD166
:10047000DDE90001B9F1000F5A46534606DA00F0F3
:1004800011FC3A46434600F00DFC05E000F0CFF9C0
:100490003A46434600F0CBF9029A0AB181F0004196
:1004A000039AC2E90001B3E72DE9FF4F1F468DB063
:1004B000D7E901464FF0FF382E2045464FF000099E
:1004C0000B90B9696D1C0E988847396A8246884737
:1004D0000028F6D1BAF1FF3F0AD024F4D064002EF0
:1004E00011DDBAF12B0F08D0BAF12D0F0BD102E0BC
:1004F000404611B08DE744F48064B9696D1C0E98D4
:1005000088478246761E6946600501D52D2000E0A9
:100510002B208DF8000001F1010B0DF1200809E0FE
:10052000B9696D1C0E98884782460F9844F4007490
:10053000761E0560002E02DDBAF1300FF0D00B9967
:100540008A453ED144F0800406E00F99681CA9F169
:10055000010944F400740860B9696D1C761E0E9898
:10056000884782463028F0D02BE00B998A4505D188
:10057000200603D444F08004761E18E0504605F0AF
:1005800077FF08B30DF11301761E44F400748B4518
:1005900008D2AAF130000BF8010B200607D5A9F10B
:1005A000010003E0200602D409F101008146A00504
:1005B00002D50F99681C0860B9696D1C0E988847B0
:1005C0008246002ED1DC53E0002E51DDBAF1650FDA
:1005D00002D0BAF1450F4BD1A00549D5B9696D1CC0
:1005E00024F44074761E0E9888478246002E0CDD57
:1005F0002B2804D0BAF12D0F07D144F48074B969C7
:100600006D1C0E9888478246761EE00501D52D2187
:1006100000E02B2108F8011BCDF82C8021E00DF122
:100620002901761E44F4007488450CD2AAF13000EA
:1006300010F0FF0088F8000002D10B99884509D915
:1006400008F1010806E0E00501D5244801E042F286
:100650000F708146B9696D1C0E98884782460F98C5
:100660000560002E04DD504605F002FF0028D6D1BB
:10067000F9690E988847FF208BF8000088F8000081
:100680000020069007904B466A4608A906A8FFF787
:1006900077FEA00502D46FF001002AE714F0240FC2
:1006A0000AD0E00714D1DDE906123868031D3B606B
:1006B0000068C0E900120BE0DDE9060100F08CF9EA
:1006C0000146E00704D13868021D3A600068016005
:1006D00028460EE7000014400000F03FF1D8FFFF6D
:1006E0002DE9FE4F804681EA0300C00F0C460090C2
:1006F00021F0004123F00045B8EB0200A94105D2EA
:100700004046214690461C460B46024623F00040D8
:10071000104347D0270DC7F30A00C3F30A510290D4
:10072000401A019040286BDAC3F3130040F4801B99
:100730000098924620B10023D2EB030A63EB0B0B27
:1007400001985946C0F14002504600F077F906463C
:100750000D4650465946019A00F08FF910EB0800FB
:100760006141002487EA115284EAE7731A4340D0BA
:10077000009A62B3019A012A4FEA075215DC001B66
:1007800061EB02014FF0004202EA0752CDE900425C
:10079000001C41F5801132462B4600F035FA03B0BB
:1007A000BDE8F08F40462146F9E7001B61EB0201EE
:1007B000001C41F5801300185B412018A2F50017BA
:1007C00047EB030140EAD570B6196D4111E06D08A1
:1007D0004FEA360645EAC0754FEA0752001B61EB47
:1007E0000201001C41F5801149084FEA3000001950
:1007F000514132462B4603B0BDE8F04F00F0F5B949
:100800000098012240000023D0EB020263EBE0736A
:10081000009821464FEAE074B8EB000061EB040158
:10082000E9E783F000435BE781F0004158E72DE9F9
:10083000FE4F81EA030404F0004421F000410094DB
:100840004FF0000B23F0004350EA01045ED052EA5F
:1008500003045BD0C3F30A54C1F30A552C44A4F239
:10086000F3340194A0FB0254C1F3130141F480114D
:10087000C3F3130343F4801301FB024400FB034E54
:10088000840A970A44EA815447EA8357A4FB07681D
:1008900002958D0A05FB07854FEA932C04FB0C5447
:1008A0002705029D4FEA065847EA1637B5EB0805BB
:1008B0006EEB070C870E920E47EA811742EA83120D
:1008C000A7FB0201B6EB0B0164EB00042B0D43EA1E
:1008D0000C335E1844EB1C50DA465146E7FB02012C
:1008E000C5F313044FEA0B3343EA14534FEA0432BF
:1008F000019C43EA0603A4F10C040294009CCDE998
:1009000000B400F081F903B0BDE8F08F002001468B
:10091000F9E770B5C1F30A5201F000450024C1F3B4
:10092000130140F2FF3341F480119A4201DA0020B2
:1009300070BD40F233439A42A2F2334203DC52428A
:1009400000F08BF800E090402C43F1D0404270BDA5
:1009500000F0004230F000400AD0C10D01F5607196
:10096000C0F3160042EA0151C20840071143704724
:10097000002001467047000030B5041E71F10004EC
:1009800004DB4FF00044404264EB0101141E73F19C
:10099000000405DB1C464FF00043524263EB0403A6
:1009A0008B4208BF824230BD30B5041E71F1000495
:1009B00004DB4FF00044404264EB0101141E73F16C
:1009C000000405DB1C464FF00043524263EB040376
:1009D000994208BF904230BD01F0004330B421F08D
:1009E000004150EA010206D00A0DA2F56072C1F37F
:1009F0001301002A02DC30BC00207047440F44EA97
:100A0000C104C100E01830BC00EBC25000F0B6B821
:100A100030B50B46014600202022012409E021FACE
:100A200002F59D4205D303FA02F5491B04FA02F5CB
:100A30002844151EA2F10102F1DC30BD202A04DB9E
:100A4000203A00FA02F1002070479140C2F12003E1
:100A500020FA03F3194390407047202A04DB203A20
:100A600021FA02F00021704721FA02F3D040C2F1CE
:100A700020029140084319467047202A06DBCB1715
:100A8000203A41FA02F043EAE07306E041FA02F349
:100A9000D040C2F120029140084319467047426895
:100AA00042B1016811F8013B23B1521EC0E90012A6
:100AB000184670470121C160881E704742685AB1CC
:100AC000C368016843B983688B4205D0491E521C34
:100AD000C0E90012002070474FF0FF30704700005F
:100AE0000FB4002300B589B00CA900910B996FF0E9
:100AF0000042CB601E4B06931E4B07930423CDE9A7
:100B000001321D4A089202466B460020FFF7CCFCDA
:100B100009B05DF814FB70B586B006464FF0FF30A3
:100B20000091CDE90101002015460C4604903246A3
:100B3000694604A8FFF7D4FF02460498211825B19E
:100B400008B1084600E020462860049800280DD02F
:100B5000002A02DD0098884208D0081B0094CDE9E5
:100B600001043246694604A8FFF7BAFF06B070BD1B
:100B70009F0A0008BD0A0008910E00080029A8BFBE
:100B80007047401C490008BF20F00100704710B4B6
:100B9000B0FA80FC00FA0CF050EA010404BF10BC6B
:100BA000704749B1CCF1200421FA04F411FA0CF198
:100BB00018BF012121430843A3EB0C01CB1D4FEAD1
:100BC00000614FEA102042BF002010BC704700EBCC
:100BD000C35010440029A4BF10BC7047401C4900FA
:100BE00008BF20F0010010BC704710B5141E73F14F
:100BF000000408DA401C41F1000192185B411A43DD
:100C000001D120F0010010BD2DE9F04D92469B4628
:100C100011B1B1FA81F202E0B0FA80F220329046CE
:100C2000FFF70CFF04460F4640EA0A0041EA0B01B9
:100C300053465A46084313D0114653EA010019D0CF
:100C4000C8F140025046FFF708FF05460E465046E1
:100C500059464246FFF7F2FE084305D0012004E062
:100C600020463946BDE8F08D0020054346EAE0768F
:100C70002C4337430A986305E40AA0EB08000022DE
:100C8000FD0A44EA47540A3002D500200146E9E74C
:100C9000010510196941DDE9084500196941BDE800
:100CA000F04DA2E72DE9F04D81EA030404F0004B7A
:100CB00021F0004514464FF0000A23F0004150EAAD
:100CC000050220D054EA01021DD0C5F30A5702469E
:100CD000C5F31303C1F31300C1F30A5640F48015A2
:100CE00043F48013A7EB0608101BD64608F2FD3824
:100CF00073EB050002D308F1010801E092185B4193
:100D0000B8F1000F03DA00200146BDE8F08D0020A5
:100D10004FF48011064684460EE0171B73EB05075F
:100D200005D3121B63EB050306434CEA010C49088B
:100D30004FEA300092185B4150EA0107EDD152EAC8
:100D4000030012D082EA040083EA0501084305D0BB
:100D5000101BAB4106D20122002306E000224FF017
:100D6000004302E06FF0010253101AEB06004CEB57
:100D7000085110EB0A0041EB0B01BDE8F04DFFF705
:100D800034BF2DE9F04D00231A461B1A8A4103DBBC
:100D900000200146BDE8F08DC1F30A52C1F31301F2
:100DA00041F480154FF0000BD10702D100186D41BE
:100DB000521E0027044640F2FF11384601EB620A3A
:100DC0003E468046024600204FF48011FFF745FE64
:100DD000C2197141BB1846EB0100B4EB030C75EB73
:100DE000000C04D3E41A65EB000517460E462419DF
:100DF00008F101006D4180463428E3DDF91946EB26
:100E00000600091BA84103D24FF0FF32134601E050
:100E1000002213461BEB070046EB0A51BDE8F04DDC
:100E2000FFF7E3BE0EB540F2334202920022CDE955
:100E300000221346FFF7E8FE03B000BDC1F30A52DB
:100E4000C1F3130140F2FF3341F480119A4202DAF8
:100E500000200146704740F233439A42A2F23342E7
:100E600002DC5242FFF7F9BDFFF7E8BD064C074D23
:100E700006E0E06840F0010394E80700984710346A
:100E8000AC42F6D3FFF784F97493000894930008FA
:100E9000C0B24FF4F05100F001B800007F2801D932
:100EA000002208E0064A02EB5002C007127800D187
:100EB000120902F00F020120904008407047000024
:100EC0000293000870B58C1810F8015B15F0070349
:100ED00001D110F8013B2A1106D110F8012B03E0D3
:100EE00010F8016B01F8016B5B1EF9D12B0705D4DB
:100EF0000023521E0DD401F8013BFAE710F8013B24
:100F0000CB1A921C03E013F8015B01F8015B521E3F
:100F1000F9D5A142D8D3002070BD00BFFEE710B5BF
:100F20000246002002E0535C0344D8B20B1EA1F13C
:100F30000101F8DC10BD000008B504A000680090B5
:100F40000121684600F004F908BD0000030000001C
:100F500008B504A0006800900121684600F0F8F888
:100F600008BD0000060000002DE9FE4F04460D46B6
:100F700016461F46DDE90DABDDF83090DDF8448004
:100F8000144A07CA8DE807008DF801408DF8025019
:100F90008DF8036009F00301384661F35F008DF8B6
:100FA00004008DF805A08DF806B00F988DF80700A5
:100FB00010988DF8080008F0FF008DF809004FEA3E
:100FC00018208DF80A000B21684600F0C1F8BDE832
:100FD000FE8F0000C892000808B504A000680090C9
:100FE0000121684600F0B4F808BD000019000000B7
:100FF00010B50446514800782044504908705048C4
:101000000078062871D2DFE800F003182C415571F2
:10101000492C11D100204B490870492149480278D8
:101020000078401C474B18704748815400204349C2
:1010300008700120424908707DE04248017800783C
:10104000401C404A107040484454FF2C03D10020FB
:101050003B4908706FE03A480078401C38490870F6
:1010600069E0384801780078401C364A10703648EC
:101070004454492C00DC1CB90020314908705AE066
:101080002F480078401C2E49087054E02D48017804
:101090000078401C2B4A10702B4844548078C01CA8
:1010A00011460978884204DC25480078401C244910
:1010B000087040E021480078001B2049087008466D
:1010C0000078A0420DD11F4801780078401C1D4ACD
:1010D00010701D4844541A480078401C1849087084
:1010E00002E000201649087025E020E000201449A5
:1010F00008704D2C1AD1134801780078401C114A11
:10110000107011484454407810490978884203D03F
:101110000E480078FF2809D10A480078401FC1B264
:101120000948C01C00F050F8012010BD03E0002069
:101130000349087000BF00BF0020F6E7B900002097
:10114000BB000020BA000020400E0020B0000020AC
:1011500030B593B005460C4616210DA8FFF7E0F810
:10116000342217496846FFF7C2F814B1132C00DC8B
:101170001DB94FF0FF3013B030BD49208DF832005B
:10118000104800788DF833008DF834402246294607
:101190000DF1350003F0A2FDA11C0DF13300FFF7A6
:1011A000BEFE04F135010DF801004D2104F13600B9
:1011B0000DF80010411C684600F00CFC0020DAE736
:1011C00094920008B00000202DE9F0472DED048B2B
:1011D00005468A462878801E37287CD2DFE800F052
:1011E0001C1D1F202122237B7B7B7B7B7B7B24257B
:1011F000FEFDFCFBFAF9F8F77B7B7B7B7B7BF6F54E
:10120000F4F3F2F17BF07B7BEFEEEDECEBEAE9E857
:101210001EE7E6E5E4E3E200C5E3C4E3C3E3C2E3BB
:10122000C1E3C0E3BFE3BEE3BDE36878A97840EA69
:101230000126072406F00100002864D0295D601C07
:10124000285C41EA002000B200EE100AB8EEC00AA5
:10125000DFEDFC0A20EE200AFB4880ED000AA01C0E
:10126000C4B2295D601C285C41EA002000B200EE97
:10127000100AB8EEC00ADFEDF30A20EE200AF348A8
:1012800080ED000AA01CC4B2295D601C285C41EA04
:10129000002000B200EE100AB8EEC00ADFEDE90A45
:1012A00020EE200AEA4880ED000AA01CC4B2E648FD
:1012B00090ED000A20EE000AE448D0ED000A90ED1F
:1012C000001A00EE810AE248D0ED000A90ED001A03
:1012D00000EE810A00E065E310EE101A0846FFF701
:1012E00037FB41EC190BB0EE490AF0EE690A04F045
:1012F0006DFFB0EE408AF0EE608A51EC180BFFF7FC
:101300006BFBD449086006F00200002867D0295D15
:10131000601C285C41EA002000B200EE100AB8EE22
:10132000C00ADFEDC80A20EE200AC74880ED000A97
:10133000A01CC4B2295D601C285C41EA002000B2F8
:1013400000EE100AB8EEC00ADFEDBE0A20EE200A59
:10135000BE4880ED000AA01CC4B2295D601C285C58
:1013600041EA002000B200EE100AB8EEC00ADFED3C
:10137000B50A20EE200AB64880ED000AA01CC4B2CF
:10138000B14890ED000A20EE000AB048D0ED000A06
:1013900090ED001A00EE810AAD48D0ED000A90ED04
:1013A000001A1DE0FDE2FBE2F9E2F7E2F5E2F3E20A
:1013B000F1E2EFE2EDE2EBE2E9E2E7E2E5E2E3E2CD
:1013C000E1E2DFE2DDE2DBE2D9E2D7E2D5E2D3E23D
:1013D000D1E2BFE2BDE2BBE2B9E2B7E2B5E218E0BA
:1013E00000EE810A10EE101A0846FFF7B1FA41EC40
:1013F000190BB0EE490AF0EE690A04F0E7FEB0EE10
:10140000408AF0EE608A51EC180BFFF7E5FA91493B
:10141000086006F00400002862D0295D601C285C8A
:1014200041EA002000B200EE100AB8EEC00ADFED7B
:101430008A0A20EE200A844880ED000AA01CC4B26B
:10144000295D601C285C41EA002000B200EE100A11
:10145000B8EEC00ADFED800A20EE200A7B4880ED5E
:10146000000AA01CC4B2295D601C285C41EA00206F
:1014700000B200EE100AB8EEC00ADFED770A20EEE7
:10148000200A734880ED000AA01CC4B26E4890ED9B
:10149000000A20EE000A6D48D0ED000A90ED001A17
:1014A00000EE810A6A48D0ED000A90ED001A00EEC5
:1014B000810A10EE101A0846FFF74AFA41EC190BA0
:1014C000B0EE490AF0EE690A04F080FEB0EE408A00
:1014D000F0EE608A51EC180BFFF77EFA5D49086068
:1014E00006F00800002862D0295D601C285C41EAF3
:1014F000002000B200EE100AB8EEC00ADFED570A75
:1015000020EE200A504880ED000AA01CC4B2295DDC
:10151000601C285C41EA002000B200EE100AB8EE20
:10152000C00ADFED4E0A20EE200A484880ED000A8E
:10153000A01CC4B2295D601C285C41EA002000B2F6
:1015400000EE100AB8EEC00ADFED440A20EE200AD1
:101550003F4880ED000AA01CC4B23B4890ED000A51
:1015600020EE000A3948D0ED000A90ED001A00EE96
:10157000810A3748D0ED000A90ED001A00EE810A8A
:1015800010EE101A0846FFF7E3F941EC190BB0EE24
:10159000490AF0EE690A04F019FEB0EE408AF0EE56
:1015A000608A51EC180BFFF717FA2A49086006F019
:1015B0001000E0B3295D601C285C41EA002000B205
:1015C00000EE100AB8EEC00ADFED250A20EE200A70
:1015D0001D4880ED000AA01CC4B2A01C285C0104B8
:1015E000601C285C41EA0020295D40EA010707F4FD
:1015F0000000B0F5000F02D147F07F4000E0384610
:10160000074600EE107AB8EEC00ADFED160A20EEAB
:10161000200A0E4880ED000AE01CC4B2A01C285C21
:101620000104601C285C41EA0020295D00E02AE0FA
:1016300040EA010707F40000B0F5000F14D147F0AD
:101640007F4012E0CDCC9C3BA0000020A4000020F5
:10165000A8000020AC00002000007A3D00B01A3E37
:101660000AD7233C00007A393846074600EE107A44
:10167000B8EEC00ADFEDCE0A20EE200ACD4880ED9C
:10168000000AE01CC4B206F02000E0B3295D601C33
:10169000285C41EA002000B200EE100AB8EEC00A51
:1016A000DFEDC50A20EE200AC44880ED000AA01C28
:1016B000C4B2295D601C285C41EA002000B200EE43
:1016C000100AB8EEC00ADFEDBC0A20EE200ABC48C2
:1016D00080ED000AA01CC4B2295D601C285C41EAB0
:1016E000002000B200EE100AB8EEC00ADFEDB20A28
:1016F00020EE200AB34880ED000AA01CC4B2295D88
:10170000601C285C00E00FE041EA002000B200EE1F
:10171000100AB8EEC00ADFEDA80A20EE200AA5489C
:1017200080ED000AA01CC4B206F04000E8B3295DB9
:10173000601C285C41EA002000B200EE100AB8EEFE
:10174000C00ADFEDA10A20EE200A9D4880ED000AC4
:10175000A01CC4B2295D601C285C41EA002000B2D4
:1017600000EE100AB8EEC00ADFED970A20EE200A5C
:10177000944880ED000AA01CC4B2295D601C285C5E
:1017800041EA002000B200EE100AB8EEC00ADFED18
:101790008E0A20EE200A874880ED000AA01CC4B201
:1017A000844890ED000A894800E001E080ED000ADD
:1017B00006F08000C0B3295D601C285C41EA00206F
:1017C00000B200EE100AB8EEC00ADFED810A80EE2A
:1017D000201A7B4880ED001AA01CC4B2295D601C51
:1017E000285C41EA002000B200EE100AB8EEC00A00
:1017F000DFED770A80EE201A724880ED001AA01CF7
:10180000C4B2295D601C285C41EA002000B200EEF1
:10181000100AB8EEC00ADFED6E0A80EE201A6548A5
:1018200080ED001AA01CC4B206F4807098B1E01CD0
:10183000285C0106A01C285C41EA0041601C285C71
:1018400041EA0020295D40EA0107201DC4B215F8D5
:101850000480601CC4B206F40070E0B3295D601C13
:10186000285C41EA002000B200EE100AB8EEC00A7F
:101870005FED8C0A20EE200A514880ED000AA01C82
:10188000C4B2295D601C285C41EA002000B200EE71
:10189000100AB8EEC00A5FED950A20EE200A49480A
:1018A00080ED000AA01CC4B2295D601C285C41EADE
:1018B000002000B200EE100AB8EEC00A5FED9F0AE9
:1018C00020EE200A3B4880ED000AA01CC4B23C4830
:1018D00090ED000A00E026E020EE000A3948D0ED45
:1018E000000A90ED001A00EE810A3248D0ED000A9D
:1018F00090ED001A00EE810A10EE101A0846FFF76C
:1019000027F841EC190BB0EE490AF0EE690A04F031
:101910005DFCB0EE408AF0EE608A51EC180BFFF7E8
:101920005BF82649086006F4806030B1295D601CD0
:10193000285C41EA0029A01CC4B206F4006018B17A
:1019400015F80480601CC4B22DE02CE02BE02AE0E6
:1019500029E028E06878FF280CD06878FE2809D0B4
:101960006878FD2806D06878FC2803D06878FB28C2
:1019700000D000BF17E016E015E014E013E012E01D
:1019800011E010E00FE00EE00DE00CE00BE00AE0EB
:1019900009E008E007E006E005E004E003E002E01B
:1019A00001E000E000BF00BFBDEC048BBDE8F087A4
:1019B00000A08C3AA800002000000038AC000020F5
:1019C000A0000020A40000200000B43BB4000020D0
:1019D00000007A4470B504460D462A46214603208D
:1019E00004F078FA70BD000010B5024800F008F964
:1019F00010BD00002408002010B5024800F000F9D6
:101A000010BD0000C407002010B5024800F0F8F82F
:101A100010BD000064070020014608781038182324
:101A2000B0FBF3F20848805CC865032A05D9086852
:101A30006FF30900001D886503E008686FF3090073
:101A40008865886D704700001088000801460020F6
:101A50008A6A8B69CBB932B1012A0DD0022A03D030
:101A6000032A10D10EE000BFCB6A03F08073B3F1FC
:101A7000807F00D1012007E0CB6AB3F1C07F00D1A5
:101A8000012001E000E000BF34E08B69B3F5005FA6
:101A90001AD132B1012A07D0022A03D0032A11D168
:101AA0000AE000BF01200EE0CB6A03F08073B3F1BF
:101AB000807F00D1012006E0CB6AB3F1C07F00D166
:101AC000012000E000BF15E032B1012A05D0022A52
:101AD00004D0032A0CD103E000BF00BF012008E0BE
:101AE000CB6A03F08073B3F1807F00D1012000E066
:101AF00000BF00BF704730B50468246824F4802418
:101B000005682C60046863608468402C04D1046814
:101B1000A2600468E16003E00468A1600468E26018
:101B200030BD704772B600BFFEE770B50446A56DC4
:101B300000F05AFB064694F83500022808D08020B1
:101B4000606500BF002084F8340000BF012070BD34
:101B50002068006820F0160021680860206840694D
:101B600020F0800021684861206C08B9A06C28B181
:101B70002068006820F0080021680860206800687C
:101B800020F001002168086010E000F02DFB801BB0
:101B900005280BD920206065032084F8350000BF9C
:101BA000002084F8340000BF0320D0E720680068DC
:101BB00000F001000028E8D194F85C103F20884034
:101BC000A860012084F8350000BF002084F83400AC
:101BD00000BF00BFBBE7014691F83500022803D0E3
:101BE0008020486501207047052081F8350008688D
:101BF000006820F001000A6810600020F3E7000090
:101C0000F8B50446002000908C4800684FF4165147
:101C1000B0FBF1F7A56D2E6894F85C1008208840A1
:101C2000304098B12068006800F0040070B120686E
:101C3000006820F004002168086094F85C10082017
:101C40008840A860606D40F00100606594F85C1009
:101C500001208840304068B12068406900F0800071
:101C600040B194F85C1001208840A860606D40F09D
:101C70000200606594F85C1004208840304068B130
:101C80002068006800F0020040B194F85C10042065
:101C90008840A860606D40F00400606594F85C10B6
:101CA00010208840304078B32068006800F00800B9
:101CB00050B394F85C1010208840A8602068006839
:101CC00000F4802080B12068006800F4002028B96A
:101CD000206CC8B12046216C884715E0A06C98B1F3
:101CE0002046A16C88470FE02068006800F48070EF
:101CF00028B92068006820F0080021680860206C7E
:101D000010B12046216C884794F85C102020884050
:101D10003040002865D02068006800F010000028DE
:101D20005FD094F85C1020208840A86094F83500BB
:101D3000052828D12068006820F016002168086076
:101D40002068406920F0800021684861206C08B953
:101D5000A06C28B12068006820F0080021680860A5
:101D600094F85C103F208840A860012084F835007A
:101D700000BF002084F8340000BF206D10B1204661
:101D8000216D8847F8BD2068006800F4802080B18C
:101D90002068006800F4002028B9606C10B120466B
:101DA000616C88471DE0E06BD8B12046E16B884745
:101DB00017E02068006800F4807068B92068006847
:101DC00020F0100021680860012084F8350000BF71
:101DD000002084F8340000BFE06B10B12046E16BB6
:101DE0008847606D38B3606D00F00100F0B10520E8
:101DF00084F835002068006820F001002168086040
:101E000000BF0098401C0090B84200D905E020684F
:101E1000006800F001000028F3D100BF012084F821
:101E2000350000BF002084F8340000BFE06C10B122
:101E30002046E16C884700BFA4E700005400002062
:101E40002DE9F0410446002500F0CEF9074614B90B
:101E50000120BDE8F081606A00B100BF022084F873
:101E6000350000BF002084F8340000BF20680068FF
:101E700020F00100216808600AE000F0B5F9C01BFD
:101E8000052805D920206065032084F83500E0E7A7
:101E90002068006800F001000028EED12068056885
:101EA00021480540D4E901010843E168084321695C
:101EB000084361690843A1690843E1690843216A4D
:101EC00008430543606A042803D1D4E90B010843A1
:101ED0000543206805602068456925F00705606AAC
:101EE0000543606A04280DD1A06A0543E06A48B141
:101EF0002046FFF7ABFD28B140206065012084F843
:101F00003500A6E7206845612046FFF785FD0646B7
:101F100094F85C103F208840B0600020606501208C
:101F200084F83500002094E73F8010F02DE9F04759
:101F300004460D4616461F464FF00008D4F8589048
:101F400000BF94F83400012802D10220BDE8F087D8
:101F5000012084F8340000BF94F83500012825D111
:101F6000022084F83500002060653B463246294651
:101F70002046FFF7C0FD94F85C103F208840C9F868
:101F800008002068006840F0160021680860206C96
:101F900028B12068006840F00800216808602068C7
:101FA000006840F001002168086006E000BF0020E2
:101FB00084F8340000BF4FF002084046C6E7000036
:101FC00070B5044600F010F906462546681C10B1AD
:101FD00004480078054400BF00F006F9801BA842C1
:101FE000FAD370BD50000020F8B502460B4600251C
:101FF000002400200021D6E0012606FA01F51E6823
:1020000006EA0504AC4274D11E7906F00306012EDF
:1020100004D01E7906F00306022E13D190684F00FB
:102020000326BE40B0434F00DE68BE4030439060A0
:10203000506801268E40B0431E79C6F300168E40CC
:10204000304350601E7906F00306032E09D0D06895
:102050004F000326BE40B0434F009E68BE40304351
:10206000D0601E7906F00306022E13D1CF0802F1CC
:10207000200656F827004E07F70E0F26BE40B04345
:102080004F07FF0E1E69BE403043CF0802F1200605
:1020900046F8270010684F000326BE40B0431E7963
:1020A00006F003064F00BE40304310605E6806F441
:1020B0004036002E76D000BF002600963C4E366893
:1020C00046F480463A4F3E603E46366806F4804607
:1020D000009600BF00BF374E8F0856F827008E07C6
:1020E000370F0F26BE40B043334EB24202D1002616
:1020F00024E057E0314EB24201D101261EE0304EBD
:10210000B24201D1022619E02E4EB24201D103267D
:1021100014E02D4EB24201D104260FE02B4EB24204
:1021200001D105260AE02A4EB24201D1062605E079
:10213000284EB24201D1072600E008268F073F0F44
:10214000BE4030431B4E8F0846F82700224E3068B1
:10215000A0435E6806F4801606B120431E4E306030
:10216000361D3068A0435E6806F4001606B12043B1
:10217000194E361D3060184E361F3068A0435E6819
:1021800006F4003606B12043134E361F3060361F6A
:102190003068A0435E6806F4803606B120430E4ED8
:1021A000083E3060491C1029FFF426AFF8BD00003E
:1021B0004438024008380140000002400004024058
:1021C00000080240000C02400010024000140240CF
:1021D00000180240001C0240083C01400AB1816125
:1021E00001E00B04836170470148006870470000FC
:1021F0004800002003480068034909780844014961
:1022000008607047480000205000002010B50D48BD
:10221000006840F400700B4908600846006840F40C
:10222000806008600846006840F480700860032001
:1022300000F0E0F80F2000F007F800F05FF8002051
:1022400010BD0000003C02402DE9F04188B004467A
:102250000027B84600BF002001902348006840F0E6
:102260001000214908600846006800F01000019045
:1022700000BF00BF02A903A800F092F9069F1FB992
:1022800000F0B6F9054602E000F0B2F94500174843
:10229000B5FBF0F0A0F1010815481649086040F2BE
:1022A000E7311448C160C0F80480002101618160F9
:1022B000816100F0F9FC064696B90E4800F0BEFDBB
:1022C00006466EB9362000F043F8102C07D20022E3
:1022D0002146362000F050F80748046000E001264F
:1022E000304608B0BDE8F0814038024040420F005F
:1022F00000100040580900204C00002008B500BF25
:10230000002000901148006840F480400F490860A8
:102310000846006800F48040009000BF00BF00BF86
:1023200000200090081F006840F08050091F0860DE
:102330000846006800F08050009000BF00BF0022F7
:102340000F21901E00F018F808BD0000443802402C
:102350000146084600280DDB00BF00BF00F01F0348
:1023600001229A4043099B0003F1E023C3F80021B6
:1023700000BF00BF00BF70472DE9F05F80460D46EB
:102380001646002703F0D8FE074639462A4633464C
:1023900001F00700C0F1070ABAF1040F02D94FF0AB
:1023A000040A01E0C0F1070AD14600F1040ABAF1BB
:1023B000070F02D24FF0000A01E0A0F1030AD44651
:1023C0004FF0010A0AFA09FAAAF1010A0AEA020A16
:1023D0000AFA0CFA4FF0010B0BFA0CFBABF1010BF4
:1023E0000BEA030B4AEA0B042146404603F0ACFE1D
:1023F000BDE8F09F00BF00F00702064B19684FF6DA
:10240000FF031940044B0B4343EA0221014B1960BF
:1024100000BF70470CED00E00000FA0570B50446FF
:102420000D460CB9012070BD5848006800F0070047
:10243000A84209D255490D700846006800F007000F
:10244000A84201D00120EEE7207800F00200022827
:102450001DD1207800F00400042805D14C48006804
:1024600040F4E0504A490860207800F0080008284D
:1024700005D14748006840F4604045490860444839
:10248000006820F0F000A168084341490860207806
:1024900000F00100A8B36068012807D13C48083863
:1024A0000068C0F34040B8B90120BCE7606802286A
:1024B00002D06068032807D1354808380068C0F3A7
:1024C000406048B90120AEE7314808380068C0F3E1
:1024D000400008B90120A6E72D48006820F003005D
:1024E000616808432A490860FFF77EFE064609E056
:1024F000FFF77AFE801B41F28831884202D903201F
:1025000091E707E02248006800F00C006168B0EB3A
:10251000810FEDD11D48006800F00700A84209D9DD
:102520001A490D700846006800F00700A84201D063
:10253000012078E7207800F00400042807D114482F
:10254000006820F4E050E1680843114908602078F1
:1025500000F00800082808D10D48006820F4604009
:10256000216940EAC1000A49086000F061F80849A1
:102570000968C1F30311074A515CC8400649086065
:1025800006480068FFF760FE00204CE7003C024070
:102590000838024018880008540000204C00002031
:1025A0000F2202600D4A126802F0030242600B4AD9
:1025B000126802F0F0028260084A126802F4E052E7
:1025C000C260064A126802F46042D2080261044AFC
:1025D000126802F007020A607047000008380240E3
:1025E000003C024001480068704700005400002091
:1025F00000B5FFF7F7FF04490968C1F38221034AD8
:10260000515CC84000BD000008380240288800081E
:1026100000B5FFF7E7FF04490968C1F34231034AF7
:10262000515CC84000BD00000838024028880008FE
:102630002DE9F047002400250026A1462548006822
:1026400000F00C0020B1042805D008283AD105E09C
:10265000DFF8849039E0DFF8849036E01D48001FF1
:10266000006800F03F041B48001F006800F4800071
:1026700078B11A481749091F0968C1F38811A0FBEE
:1026800001700146224600233846FDF7F9FD054654
:102690000EE011480F49091F0968C1F38811A0FB1A
:1026A00001700146224600233846FDF7E9FD054644
:1026B0000848001F0068C0F30140401C4600B5FBFD
:1026C000F6F902E0DFF8109000BF00BF4846BDE811
:1026D000F0870000083802400024F40040787D01B3
:1026E000F8B504460CB90120F8BD207800F00100CF
:1026F000002874D0F948006800F00C0004280DD0C0
:10270000F648006800F00C00082813D1F348001FB9
:10271000006800F48000B0F5800F0BD1EF48083856
:102720000068C0F34040002859D06068002856D1A6
:102730000120D9E700BF6068B0F5803F08D1E748C5
:102740000838006840F48030E449083908601EE029
:102750006068B0F5A02F0DD1E0480838006840F45B
:102760008020DE49083908600846006840F480305F
:1027700008600CE0D9480838006820F48030D74958
:10278000083908600846006820F48020086000BF0F
:10279000606890B1FFF728FD054606E0FFF724FDCD
:1027A000401B642801D903209EE7CC480838006804
:1027B000C0F340400028F1D011E0FFF715FD0546B9
:1027C00006E0FFF711FD401B642801D903208BE7C9
:1027D000C24808380068C0F340400028F1D1207892
:1027E00000F0020002285FD1BC48006800F00C0035
:1027F00058B1BA48006800F00C0008281CD1B7484E
:10280000001F006800F48000B0B9B44808380068C0
:10281000C0F3400020B1E068012801D0012063E747
:10282000AE480838006820F0F800216940EAC1008D
:10283000AA490839086037E0E06800B30120A849D8
:102840000860FFF7D1FC054606E0FFF7CDFC401B12
:10285000022801D9032047E7A04808380068C0F3E0
:1028600040000028F1D09D480838006820F0F800AA
:10287000216940EAC10099490839086014E0002044
:1028800097490860FFF7B0FC054606E0FFF7ACFC8F
:10289000401B022801D9032026E790480838006829
:1028A000C0F340000028F1D1207800F0080008288B
:1028B0002CD16069A8B101208A490860FFF794FC17
:1028C000054606E0FFF790FC401B022801D90320D3
:1028D0000AE782486C300068C0F340000028F1D05D
:1028E00014E000207F490860FFF77EFC054606E003
:1028F000FFF77AFC401B022801D90320F4E6774851
:102900006C300068C0F340000028F1D1207800F05E
:102910000400042870D1002770483830006800F0A7
:10292000805090B900BF002000906C48383000689B
:1029300040F080506949383108600846006800F06E
:102940008050009000BF00BF01276748006800F476
:102950008070B0B96448006840F4807062490860D3
:10296000FFF742FC054606E0FFF73EFC401B02284D
:1029700001D90320B8E65C48006800F480700028A4
:10298000F2D000BFA068012808D154486830006820
:1029900040F001005149683108601DE0A068052839
:1029A0000DD14E486830006840F004004B49683152
:1029B00008600846006840F0010008600CE04748E5
:1029C0006830006820F0010044496831086008461A
:1029D000006820F00400086000BFA068A8B1FFF7FD
:1029E00003FC054609E0FFF7FFFB401B41F288317D
:1029F000884202D9032077E626E03848683000682C
:102A0000C0F340000028EED013E0FFF7EDFB0546D1
:102A100008E0FFF7E9FB401B41F28831884201D909
:102A2000032061E62D4868300068C0F340000028AC
:102A3000EFD1012F07D129483830006820F08050AD
:102A400026493831086000BFA069002845D02348D6
:102A5000006800F00C0008285DD0A069022845D16C
:102A600000201F490866FFF7BFFB054606E0FFF799
:102A7000BBFB401B022801D9032035E61748083864
:102A80000068C0F340600028F1D1D4E90701084391
:102A9000616A40EA81110122A06AC2EB500041EA5A
:102AA00000412C20005D41EA00600C49091F0860CC
:102AB00001200B490866FFF797FB054606E0FFF784
:102AC00093FB401B022801D903200DE60348083878
:102AD0000068C0F340600028F1D049E008380240A7
:102AE00000004742800E474200700040002021490C
:102AF0000866FFF779FB054606E0FFF775FB401B0C
:102B0000022801D90320EFE51B480068C0F34060AC
:102B10000028F2D12CE0A069012800D1E4E5164894
:102B2000001D0668A069012820D006F48001E06934
:102B300081421BD106F03F01206A814216D147F63F
:102B4000C0703040616AB0EB811F0FD106F4403194
:102B50000122A06AC2EB5000B1EB004F06D106F093
:102B600070612C20005DB1EB006F01D00120BBE54E
:102B70000020B9E500004742003802407047704726
:102B800010B50346002200BF93F83C00012801D194
:102B9000022010BD012083F83C0000BF22F0FF009E
:102BA000CC6840EA040222F440708C6840EA0402D7
:102BB00022F480604C6840EA040222F400600C6851
:102BC00040EA040222F480500C6940EA040222F434
:102BD00000504C6940EA040222F48040CC6940EA8B
:102BE00004021868426400BF002083F83C0000BF64
:102BF00000BFCEE730B502460B4600BF92F83C005E
:102C0000012801D1022030BD012082F83C0000BF24
:102C1000022082F83D00106844681068816824F042
:102C200070041868044310684460184D1068A84286
:102C30001BD01068B0F1804F17D0154D1068A84216
:102C400013D0144D1068A8420FD0134D1068A8423D
:102C50000BD0124D1068A84207D0114D1068A84241
:102C600003D0104D1068A84205D121F080015868AA
:102C7000014310688160012082F83D0000BF002000
:102C800082F83C0000BF00BFBDE70000000001402B
:102C90000004004000080040000C00400004014017
:102CA000004001400018004010B504460CB9012056
:102CB00010BD94F83D0028B9002084F83C0020465F
:102CC00000F026F8022084F83D00211D206802F063
:102CD000FFFB012084F8460000BF84F83E0001217C
:102CE0003F200155402001554120015500BF00BF44
:102CF000012084F84200432001554420015545201D
:102D0000015500BF012084F83D000020D0E70000FD
:102D100038B504464249206888420FD100BF0020E0
:102D200000904048006840F001003E4908600846B5
:102D3000006800F00100009000BF70E03A49206890
:102D400088421AD100BF002000903648001F00685A
:102D500040F020003349091F08600846006800F071
:102D60002000009000BF00BF002205213720FFF7A0
:102D700003FB3720FFF7ECFA51E02C49206888422A
:102D80000FD100BF002000902648006840F480303A
:102D9000244908600846006800F48030009000BFB5
:102DA0003DE02349206888420FD100BF00200090F9
:102DB0001C48006840F400301A4908600846006862
:102DC00000F40030009000BF29E01A4920688842D2
:102DD0000FD100BF002000901248006840F480200E
:102DE000104908600846006800F48020009000BF89
:102DF00015E011492068884211D100BF00200090E1
:102E00000848001F006840F040000649091F08609C
:102E10000846006800F04000009000BF00BF38BDC9
:102E200000000140443802400014004000400140CE
:102E3000004401400048014000180040014691F85C
:102E40003D00012801D001207047022081F83D009B
:102E50000868C06840F001000B68D8601A4B086829
:102E600098421BD00868B0F1804F17D0174B086804
:102E7000984213D0164B086898420FD0154B08683B
:102E800098420BD0144B0868984207D0134B08683F
:102E9000984203D0124B086898420CD108688068A9
:102EA00000F00702062A0CD00868006840F0010014
:102EB0000B68186005E00868006840F001000B68C6
:102EC00018600020C0E7000000000140000400403E
:102ED00000080040000C0040000401400040014098
:102EE000001800402DE9F04104460D46002700BFC0
:102EF00094F83C00012802D10220BDE8F0810120B5
:102F000084F83C0000BF022084F83D0020688668F9
:102F100026F0770626F47F462068866028685028C9
:102F200033D00CDC202850D004DC00284BD01028F3
:102F300051D149E0302849D040284CD139E06028AF
:102F40002DD0702807D0B0F5805F03D0B0F5005FBA
:102F500041D10DE041E0D5E902136A68206802F032
:102F60003CFB2068866846F077062068866034E07F
:102F7000D5E902136A68206802F02FFB2068806898
:102F800040F480402168886027E0EA68696820682A
:102F900002F014FC5021206802F02AFB1DE0EA68D0
:102FA0006968206802F01DFC6021206802F020FBA7
:102FB00013E0EA686968206802F000FC402120689C
:102FC00002F016FB09E000BF00BF00BF29682068BF
:102FD00002F00EFB01E0012700BF00BF012084F8D2
:102FE0003D0000BF002084F83C0000BF384684E765
:102FF0002DE9F04104460D4614B90120BDE8F081E9
:1030000094F83D0028B9002084F83C00204600F0E8
:1030100053F8022084F83D002068806844F20701DC
:10302000884321688860211D206802F051FA2068D9
:10303000D0F80880206886692068076A286840EA16
:10304000080840F203308643A969A86840EA0120D5
:10305000064340F60C4086434FF2F0008643E96990
:10306000E86840EA0120064328690001296A40EA2D
:103070000130064327F0220727F08807696968684E
:1030800040EA011007432068C0F808802068866184
:1030900020680762012084F8460084F83E00012180
:1030A0003F200155012084F84200432001550120B2
:1030B00084F83D000020A1E710B586B00446142135
:1030C00001A8FDF72DF92068B0F1804F4ED100BF67
:1030D000002000907948006840F0010077490860BE
:1030E0000846006800F00100009000BF00BF00BF6C
:1030F0000020009071481038006840F001006F49CE
:10310000103908600846006800F00100009000BF18
:1031100000BF00BF002000900846006840F0020099
:1031200008600846006800F00200009000BF00BF81
:103130004FF40040019002200290002003900320F1
:1031400004900120059001A95D48FEF74DFF08207D
:10315000019002200290002003900320049001209F
:10316000059001A95748FEF73FFFA5E056492068A2
:10317000884238D100BF002000905048006840F0DD
:1031800002004E4908600846006800F00200009006
:1031900000BF00BF00BF0020009048481038006802
:1031A00040F002004549103908600846006800F008
:1031B0000200009000BF00BF30200190022002906A
:1031C00000200390032004900220059001A93D48AF
:1031D000FEF70AFF002205211D20FFF7CDF81D2074
:1031E000FFF7B6F868E039492068884230D100BF5F
:1031F000002000903148006840F004002F4908602A
:103200000846006800F00400009000BF00BF00BF47
:103210000020009029481038006840F0020027493B
:10322000103908600846006800F00200009000BFF6
:1032300000BFC020019002200290002003900320D4
:1032400004900220059001A91E48FEF7CDFE33E050
:103250001F49206888422FD100BF002000901748E6
:10326000006840F00800154908600846006800F052
:103270000800009000BF00BF00BF002000900F4872
:103280001038006840F001000C4910390860084609
:10329000006800F00100009000BF00BF0320019013
:1032A0000220029000200390032004900220059049
:1032B00001A90348FEF798FE06B010BD4038024051
:1032C00000000240000402400004004000080040EA
:1032D000000C00402DE9F04304460D4694F83E6092
:1032E0003F20075D94F84280432010F804906DB9A8
:1032F000012E02D1B8F1010F02D00120BDE8F08308
:10330000022084F83E0084F8420025E0042D0CD110
:10331000012F02D1B9F1010F01D00120EEE7022106
:103320003F2001554320015516E0012E07D1012F02
:1033300005D1B8F1010F02D1B9F1010F01D001207F
:10334000DCE7022084F83E0002213F2001550220E4
:1033500084F842004320015515B1042D0CD105E03D
:1033600001220021206802F027F910E00122042147
:10337000206802F021F90AE001220021206802F011
:103380001BF901220421206802F016F900BF00BFDA
:103390002068006840F00100216808600020ADE767
:1033A000704770B504462068C5682068066906F055
:1033B0000200022819D105F00200022815D1401F91
:1033C00021680861012020772068806900F00300EF
:1033D00018B12046FFF7E4FF05E0204600F05EF953
:1033E000204600F012FA0020207706F0040004289E
:1033F00019D105F00400042815D1C04321680861E3
:10340000022020772068806900F4407018B12046BF
:10341000FFF7C6FF05E0204600F040F9204600F027
:10342000F4F90020207706F00800082819D105F0EB
:103430000800082815D1C0432168086104202077BE
:103440002068C06900F0030018B12046FFF7A8FF0C
:1034500005E0204600F022F9204600F0D6F90020D1
:10346000207706F01000102819D105F01000102860
:1034700015D1C04321680861082020772068C06901
:1034800000F4407018B12046FFF78AFF05E020469F
:1034900000F004F9204600F0B8F90020207706F08B
:1034A000010048B105F0010030B16FF00100216862
:1034B0000861204600F030FA06F08000802809D12B
:1034C00005F08000802805D1C043216808612046AE
:1034D000FFF754FB06F04000402809D105F04000FA
:1034E000402805D1C04321680861204600F0DAFA7F
:1034F00006F02000202809D105F02000202805D161
:10350000C043216808612046FFF739FB70BD000009
:1035100010B586B00446142101A8FCF701FF5749F5
:10352000206888421FD100BF0020009054480068E6
:1035300040F01000524908600846006800F0100092
:10354000009000BF00BF4FF4D440019002200290D1
:1035500000200390032004900120059001A9494810
:10356000FEF742FD88E04849206888421DD100BF2F
:10357000002000904248006840F010004049086078
:103580000846006800F01000009000BF00BF6020F7
:1035900001900220029000200390032004900590E7
:1035A00001A93848FEF720FD66E0384920688842C6
:1035B0001DD100BF002000903148006840F002009B
:1035C0002F4908600846006800F00200009000BF24
:1035D00000BF881501900220029000200390032074
:1035E0000490059001A92A48FEF7FEFC44E0294911
:1035F000206888421DD100BF00200090204800684C
:1036000040F002001E4908600846006800F0020011
:10361000009000BF00BF48150190022002900020DA
:10362000039003200490059001A91948FEF7DCFCE3
:1036300022E01949206888421ED100BF0020009076
:103640000F48006840F002000D4908600846006815
:1036500000F00200009000BF00BF4FF40040019056
:10366000022002900020039003200490092005907E
:1036700001A90748FEF7B8FC06B010BD00000140E4
:103680003038024000100240004001400044014038
:1036900000040240004801400018004070472DE936
:1036A000F04104460D461646002700BF94F83C0042
:1036B000012802D10220BDE8F081012084F83C00FD
:1036C00000BF36B1042E1BD0082E31D00C2E5ED197
:1036D00045E02946206801F095FF2068806940F0A8
:1036E0000800216888612068806920F00400216852
:1036F000886120688069296908432168886148E0F9
:103700002946206801F0B6FF2068806940F4006017
:10371000216888612068806920F480602168886160
:1037200020688069296940EA01202168886130E0C9
:103730002946206801F0DCFF2068C06940F00800DD
:103740002168C8612068C06920F004002168C86150
:103750002068C069296908432168C86119E02946C1
:10376000206802F001F82068C06940F40060216818
:10377000C8612068C06920F480602168C861206841
:10378000C069296940EA01202168C86101E0012778
:1037900000BF00BF00BF002084F83C0000BF3846D7
:1037A00089E710B504460CB9012010BD94F83D001E
:1037B00028B9002084F83C00204600F025F80220BB
:1037C00084F83D00211D206801F082FE012084F86C
:1037D000460000BF84F83E0001213F2001554020F3
:1037E00001554120015500BF00BF012084F842006F
:1037F00043200155442001554520015500BF0120BB
:1038000084F83D000020D0E77047704770B504464B
:103810000D4615B994F83E000BE0042D02D13F206F
:10382000005D06E0082D02D14020005D01E041204E
:10383000005D012801D0012070BD1DB9022084F86F
:103840003E000EE0042D03D102213F20015508E087
:10385000082D03D102214020015502E00221412020
:10386000015501222946206801F0A6FE234920685F
:10387000884203D022492068884201D1012000E01B
:10388000002028B12068406C40F400402168486462
:103890001A49206888421BD02068B0F1804F17D0A9
:1038A00018492068884213D01749206888420FD0F1
:1038B0001649206888420BD011492068884207D0F9
:1038C00013492068884203D01249206888420CD1ED
:1038D0002068806800F00706062E0CD0206800687B
:1038E00040F001002168086005E02068006840F0B1
:1038F00001002168086000209EE7000000000140F0
:10390000000401400004004000080040000C00409A
:10391000004001400018004010B52DED028B044618
:103920004B492068884201D1FEF764FC4949206870
:1039300088427CD148480068406A00B24749086024
:1039400047480068406A00B2464908604648006837
:10395000406A00B24549086045480068406A00B2C4
:103960004449086000203C49096848623C490968AC
:1039700048623D49096848623D49096848623B48D8
:1039800090ED000AB8EEC00ADFED3B0A80EE201A87
:103990009FED3A0A21EE000A394880ED000A3548C9
:1039A00090ED000AF8EEC00A9FED331A80EE810A0E
:1039B000DFED320A20EE200A324880ED000A274867
:1039C0000068404200EE100AB8EEC00ADFED2A0A95
:1039D00080EE201A9FED290A21EE000A2A4880ED88
:1039E000000A20480068404200EE100AB8EEC00A03
:1039F000DFED260A80EE201A9FED200A21EE000A54
:103A0000234880ED000A2348007880B11C4890EDDF
:103A1000000ADFED210A20EE200ADFED200A20EE69
:103A2000200A10EE101A0846FCF792FF00E00CE0A6
:103A300041EC180B1A4890ED000B53EC102B51EC95
:103A4000180BFCF74DFE164A03C2BDEC028B10BDED
:103A5000001000400014004004040020000000207A
:103A60004C040020040000209404002008000020E2
:103A7000DC0400200C000020000039440000C84293
:103A8000A00D0020C00D0020000E00200000B94451
:103A9000E00D00209C0000200AD7233C6666A6416A
:103AA000100000207047F8B504460E46174694F8FB
:103AB000420020282ED106B10FB90120F8BD012007
:103AC0002063002060633A463146204602F028F920
:103AD0000546EDB9206B012819D100BF00200090E8
:103AE00020680068009020684068009000BF00BF18
:103AF00000BF00BF21680C3151E8001F41F01000E9
:103B000021680C3141E80002002AF3D100E00125D0
:103B10002846D3E70220D1E770B504460D46694830
:103B200084422BD16848D0F8D000C82819D2674801
:103B300000786549D1F8C810634A50541046D0F84F
:103B4000C800401C1146C1F8C800C82802D3002094
:103B5000C1F8C8005C48D0F8D000401C5A49C1F8F0
:103B6000D000012259495748FFF79DFF5848006887
:103B7000006820F0080056490968086055488442EA
:103B80007DD1554803F084F85449086054A1534846
:103B9000006803F067F8D0B151A15048006803F005
:103BA00061F8504908600846006890ED061BB0EEC9
:103BB000410AF0EE610A51EC100BFCF70DFF4A4987
:103BC0000860084690ED000A484880ED020A48A1C6
:103BD0004248006803F046F8D0B145A13F4800686C
:103BE00003F040F83F4908600846006890ED061B66
:103BF000B0EE410AF0EE610A51EC100BFCF7ECFE5E
:103C00003C490860084690ED000A384880ED030AF8
:103C100039A13248006803F025F8D0B136A12F4809
:103C2000006803F01FF82F4908600846006890ED0F
:103C3000061BB0EE410AF0EE610A51EC100BFCF7E6
:103C4000CBFE2E490860084690ED000A274880ED1B
:103C5000040A2BA12148006803F004F8E0B128A170
:103C60001E48006802F0FEFF1E4908600846006812
:103C700090ED061BB0EE410AF0EE610A00E01FE095
:103C800051EC100BFCF7A8FE1E490860084690EDA9
:103C9000000A164880ED010A1048006818B10F4864
:103CA000006802F0B3FF32220B490A48FFF7FBFE1F
:103CB00015480068006820F008001349096808608A
:103CC00070BD0000D40600208408002030000020D1
:103CD000C40700201C070020340100202800002019
:103CE000700000002C00002018000020C00D0020F3
:103CF000690000001C00002064000000200000207B
:103D0000610000002400002024080020704700000B
:103D10002DE9F84F0446206805682068C6682068C9
:103D200047694FF00009CA4605F00F09B9F1000FC5
:103D30000AD105F0200038B106F0200020B120465D
:103D400001F05AFEBDE8F88FB9F1000F7CD007F002
:103D5000010018B906F49070002875D005F0010034
:103D600030B106F4807018B1606C40F001006064FE
:103D700005F0040030B107F0010018B1606C40F0AC
:103D80000200606405F0020030B107F0010018B1D4
:103D9000606C40F00400606405F0080048B106F073
:103DA000200010B907F0010018B1606C40F0080065
:103DB0006064606C002846D005F0200028B106F051
:103DC000200010B1204601F017FE20684069C0F3C2
:103DD000801A606C00F0080010B9BAF1000F2DD005
:103DE000204601F0B0FD2068406900F04000402806
:103DF00020D100BF00BF2168143151E8001F21F01D
:103E000040002168143141E80002002AF3D100BFCC
:103E1000E06B50B17748E16B0865E06BFDF7DBFEC6
:103E200088B1E06B016D88470DE02046FFF76EFF1B
:103E300009E009E02046FFF769FF04E02046FFF7AC
:103E400065FF002060647DE7206B012878D105F0D4
:103E50001000002874D006F010000028FAD000BF2F
:103E60000020009020680068009020684068009062
:103E700000BF00BF2068406900F04000402860D1CA
:103E8000E06B006840681FFA80F8B8F1000F56D068
:103E9000A08D404553DDA4F82E80E06BC069B0F5DD
:103EA000807F43D000BF00BF21680C3151E8001F64
:103EB00021F4807021680C3141E80002002AF3D11E
:103EC00000BF00BF00BF2168143151E8001F21F07E
:103ED00001002168143141E80002002AF3D100BF3B
:103EE00000BF00BF2168143151E8001F21F04000DD
:103EF0002168143141E80002002AF3D100BF2020DC
:103F000084F842000020206300BF00BF21680C310C
:103F100051E8001F21F0100021680C3141E8000237
:103F2000002AF3D100BFE06BFDF7FFFD02206063C4
:103F3000A08DE28D801A81B22046FFF7EDFD01E7EA
:103F400042E0A08DE18D401A1FFA80F8E08DD0B3D9
:103F5000B8F1000F37D000BF00BF21680C3151E825
:103F6000001F21F4907021680C3141E80002002A02
:103F7000F3D100BF00BF00BF2168143151E8001F1A
:103F800021F001002168143141E80002002AF3D138
:103F900000BF202084F842000020206300BF00BF43
:103FA00021680C3151E8001F21F0100021680C310C
:103FB00041E80002002AF3D100BF022060634146BD
:103FC0002046FFF7A9FDBDE605F0800030B106F000
:103FD000800018B1204601F007FFB3E605F040006D
:103FE00030B106F0400018B1204601F0E2FCA9E62D
:103FF00000BFA7E60B58000810B504460CB9012015
:1040000010BDA06900B100E000BF94F8410028B9DC
:10401000002084F84000204600F02AF8242084F88C
:1040200041002068C06820F400502168C860204624
:1040300001F060FD2068006920F49040216808616B
:104040002068406920F02A00216848612068C06823
:1040500040F400502168C86000206064202084F88B
:10406000410084F842000020606300BFC8E7000000
:1040700010B586B00446142101A8FCF751F98B490C
:104080002068884256D100BF002000908848006810
:1040900040F01000864908600846006800F01000F3
:1040A000009000BF00BF00BF00200090804814387F
:1040B000006840F001007E49143908600846006835
:1040C00000F00100009000BF00BF4FF4C0600190FD
:1040D0000220029000200390032004900720059006
:1040E00001A97448FDF780FF7348744908604FF0D8
:1040F00000604860002171488160C1604FF48061B8
:104100000161002141618161C16101624162FDF78C
:1041100097FE08B1FDF706FD00BF6848E0638463C1
:1041200000BF002205212520FEF726F92520FEF7F5
:104130000FF9B8E062492068884257D100BF0020DB
:1041400000905B48001F006840F400305849091F88
:1041500008600846006800F40030009000BF00BF0F
:1041600000BF0020009052481438006840F008005A
:104170004F49143908600846006800F008000090B4
:1041800000BF00BF60200190022002900020039039
:10419000032004900720059001A94A48FDF724FF59
:1041A00049484A4908604FF000604860002147488C
:1041B0008160C1604FF480610161002141618161D2
:1041C000C16101624162FDF73BFE08B1FDF7AAFC47
:1041D00000BF3E48E063846300BF00220521262023
:1041E000FEF7CAF82620FEF7B3F85CE038492068ED
:1041F000884258D100BF002000902D48001F006861
:1042000040F480202A49091F08600846006800F42D
:104210008020009000BF00BF00BF00200090244815
:104220001438006840F00800214914390860084635
:10423000006800F00800009000BF00BF4FF440701D
:104240000190022002900020039003200490072098
:10425000059001A91B48FDF7C7FE1B4860381D49A2
:1042600008604FF00060486000211A488160C1601A
:104270004FF480610161002141618161C16101628E
:104280004162FDF7DDFD08B1FDF74CFC00BF1148B0
:10429000E063846300BF002205212720FEF76CF84D
:1042A0002720FEF755F806B010BD000000100140B1
:1042B000443802400000024040640240640700208D
:1042C00000440040000C024088600240C407002007
:1042D0000048004024080020704770472DE9F84F3F
:1042E00004460E46174699464FF0000A94F84100DE
:1042F000202850D106B117B90120BDE8F88F002061
:104300006064212084F84100FDF76EFF8246A78497
:10431000E784A068B0F5805F04D1206910B900255A
:10432000B04602E035464FF000081EE0534600223A
:1043300080212046CDF8009001F086FD20B120209C
:1043400084F841000320D8E745B9B8F80000C0F36D
:1043500008002168486008F1020803E02878216815
:1043600048606D1CE08C401EE084E08C0028DDD1AC
:104370005346002240212046CDF8009001F064FD14
:1043800020B1202084F841000320B6E7202084F8E3
:1043900041000020B1E70220AFE7704700BFFEE711
:1043A000F0EE400A90ED000A30EE600A244981EDFB
:1043B000000A91ED000A234991ED001A30EE410AFE
:1043C000214981ED000A1E4991ED000A1F4981ED46
:1043D000000A1B4991ED000A1A4991ED001A30EECE
:1043E000410A91ED001A1A49D1ED001A31EE611A15
:1043F00030EE410A174981ED000A124991ED000A99
:10440000134981ED000A0E4991ED000A0D4981ED35
:10441000000A90ED010A0C4991ED001A20EE010A04
:1044200090ED021A0949D1ED001A01EE210A90ED32
:10443000031A0849D1ED001A01EE210A7047000065
:10444000780000207C0000206C000020700000201C
:1044500080000020740000209FED0D0A0D4880EDC3
:10446000010A9FED0D0A80ED020A9FED0C0A80ED16
:10447000030A9FED090A0A4880ED010A9FED060A2A
:1044800080ED020A9FED040A80ED030A70470000E8
:10449000A69B443C200E002000000000ACC5A736BF
:1044A000300E002008B500BF002000901A480068B8
:1044B00040F40010184908600846006800F4001035
:1044C000009000BF00BF00BF0020009008460068B9
:1044D00040F4800008600846006800F48000009006
:1044E00000BF00BF002205210C20FDF745FF0C2076
:1044F000FDF72EFF002205211020FDF73DFF1020C3
:10450000FDF726FF002205213A20FDF735FF3A206E
:10451000FDF71EFF08BD00003038024000B59DB019
:104520001C22184916A8FBF7E2FE002116A802F08B
:1045300089FD154908601C2212491C310FA8FBF7A0
:10454000D6FE00210FA802F07DFD104908601C2254
:104550000C49383108A8FBF7CAFE002108A802F070
:1045600071FD0B4908601C220649543101A8FBF774
:10457000BEFE002101A802F065FD064908601DB0DD
:1045800000BD0000A0870008380000203C0000208B
:10459000400000204400002000B587B0142102A88C
:1045A000FBF7BEFE00BF002001904D48006840F0C0
:1045B00010004B4908600846006800F010000190A8
:1045C00000BF00BF00BF002001900846006840F017
:1045D000800008600846006800F08000019000BF7D
:1045E00000BF00BF002001900846006840F00400B2
:1045F00008600846006800F00400019000BF00BF9A
:1046000000BF002001900846006840F001000860EB
:104610000846006800F00100019000BF00BF00BF25
:10462000002001900846006840F00200086008463B
:10463000006800F00200019000BF00BF00BF002032
:1046400001900846006840F00800086008460068CD
:1046500000F00800019000BF00BF00220C2121489B
:10466000FDF7BCFD00224FF4F0411F48FDF7B6FDF9
:104670000C2002901120039001200490032005904B
:1046800002A91848FDF7B0FCCC200290002003904E
:104690000120049002A91548FDF7A6FC4FF4F04054
:1046A00002900120039000200490059002A90E487A
:1046B000FDF79AFC4FF460700290002003900120F7
:1046C000049002A90748FDF78FFC0120029000200A
:1046D0000390049002A90648FDF786FC07B000BDD0
:1046E0003038024000080240000C02400000024046
:1046F0000010024000B587B01C216846FBF710FE91
:1047000015481649086044F29F104860002113487C
:1047100081606321C160002101618161FEF7C4FAFB
:1047200008B1FDF7FFF90D48FFF73BF808B1FDF7B9
:10473000F9F960200090002001900290049000227E
:1047400069460648FEF7ABFF08B1FDF7EBF90348F1
:10475000FEF7DEFE07B000BD00440140B4050020B6
:1047600000B587B01C216846FBF7DAFD15481649ED
:10477000086044F29F104860002113488160632163
:10478000C160002101618161FEF78EFA08B1FDF779
:10479000C9F90D48FFF705F808B1FDF7C3F9602026
:1047A0000090002001900290049000226946064883
:1047B000FEF775FF08B1FDF7B5F90348FEF7A8FE4F
:1047C00007B000BD00480140FC05002000B58BB0DB
:1047D00000200790089009900A901C216846FBF77A
:1047E0009FFD1B481B490860532048600021194861
:1047F000816044F61F61C160002101618161FEF7A3
:1048000053FA08B1FDF78EF94FF48050079007A9CD
:104810001048FEF767FB08B1FDF784F90D48FEF775
:10482000C0FF08B1FDF77EF96020009000200190E4
:1048300002900490042269460648FEF730FF08B152
:10484000FDF770F90348FEF763FE0BB000BD0000F2
:10485000001800404406002000B595B000201190DB
:104860001290139014900F9010901C2108A8FBF741
:1048700057FD20216846FBF753FD3748374908604C
:1048800044F29F1048600021344881606321C16078
:104890000021016141618161FEF706FA08B1FDF76F
:1048A00041F94FF48050119011A92C48FEF71AFBE2
:1048B00008B1FDF737F92948FEF773FF08B1FDF796
:1048C00031F900200F9010900FA92448FEF792F9BB
:1048D00008B1FDF727F960200890002009900A90A0
:1048E0000B900C900D900E90002208A91B48FEF72B
:1048F000D6FE08B1FDF716F9042208A91748FEF7FD
:10490000CEFE08B1FDF70EF9082208A91348FEF7FC
:10491000C6FE08B1FDF706F90C2208A90F48FEF7FC
:10492000BEFE08B1FDF7FEF8002000900190029055
:10493000039004904FF400500590002007906946C2
:104940000648FEF71DF908B1FDF7ECF80348FEF73D
:10495000DFFD15B000BD000000000140BC030020D9
:1049600000B58BB0242102A8FBF7DAFC00200090F0
:1049700001904FF0804017490860002048600021F6
:1049800014488160491EC1600021016181610120DC
:1049900002900020039001200490002005900690D2
:1049A000079001200890002009900A9002A9094868
:1049B000FEF71EFB08B1FDF7B5F80020009001904E
:1049C00069460448FEF716F908B1FDF7ABF80BB0DD
:1049D00000BD00000404002000B58BB0242102A813
:1049E000FBF79EFC002000900190184818490860D1
:1049F000002048600021164881604FF6FF71C160B9
:104A000000210161816103200290002003900120B8
:104A10000490002005900690079001200890002047
:104A200009900A9002A90A48FEF7E2FA08B1FDF7D8
:104A300079F800200090019069460548FEF7DAF801
:104A400008B1FDF76FF80BB000BD00000004004096
:104A50004C04002000B58BB0242102A8FBF760FCB9
:104A60000020009001901848184908600020486014
:104A70000021164881604FF6FF71C160002101617D
:104A80008161012002900020039001200490002009
:104A900005900690079001200890002009900A9048
:104AA00002A90A48FEF7A4FA08B1FDF73BF8002076
:104AB0000090019069460548FEF79CF808B1FDF7A3
:104AC00031F80BB000BD0000000800409404002045
:104AD00000B58BB0242102A8FBF722FC0020009037
:104AE00001901748174908600020486000211548C8
:104AF0008160491EC1600021016181610120029035
:104B0000002003900120049000200590069007905B
:104B100001200890002009900A9002A90948FEF798
:104B200067FA08B1FCF7FEFF00200090019069468B
:104B30000448FEF75FF808B1FCF7F4FF0BB000BDC6
:104B4000000C0040DC0400201CB500200090019007
:104B50000E480F49086040F24730486000210C4879
:104B6000816040F2E731C16080218161FEF79CF8ED
:104B700008B1FCF7D7FF0020009001906946044877
:104B8000FEF738F808B1FCF7CDFF1CBD001400405B
:104B90002405002000B58BB00020079008900990F4
:104BA0000A901C216846FBF7BBFB1F481F490860A1
:104BB00044F29F10486000211C4881606321C1605D
:104BC000002101618161FEF76FF808B1FCF7AAFFCF
:104BD0004FF48050079007A91448FEF783F908B1F5
:104BE000FCF7A0FF1148FEF7DCFD08B1FCF79AFFC7
:104BF00060200090002001900290049000226946FD
:104C00000A48FEF74CFD08B1FCF78CFF0422694608
:104C10000648FEF744FD08B1FCF784FF0348FEF7A1
:104C200077FC0BB000BD0000004001406C05002087
:104C300010B50B480B4908604FF4E1304860002183
:104C400008488160C16001610C21416100218161DE
:104C5000C161FFF7D1F908B1FCF764FF10BD000096
:104C6000001001408C06002010B50B480B4908606D
:104C70004FF4E1304860002108488160C160016163
:104C80000C21416100218161C161FFF7B5F908B1D3
:104C9000FCF748FF10BD000000440040D40600208F
:104CA00010B50B480B4908604FF4E1304860002113
:104CB00008488160C16001610C214161002181616E
:104CC000C161FFF799F908B1FCF72CFF10BD000096
:104CD000004800401C07002000BFFEE730B5034637
:104CE0000C4642B1521C03E014F8015B03F8015B6F
:104CF000551E2A1EF8D130BD00BFFEE770B5002456
:104D00000CE0002506E00020074901EBC50108552D
:104D1000681CC5B2802DF6DB601CC4B2082CF0DB29
:104D200000F0BEF870BD0000A009002010B5002101
:104D30008D2000F063F90021142000F05FF90021BC
:104D4000AF2000F05BF910BDF0B5144600267F28B7
:104D500001DC3F2900DDF0BD0B46CF1701EB577793
:104D6000FF10C7F10707FAB2CF1701EB5777FF1013
:104D7000A1EBC707FDB2C5F107070123BB40DEB2B7
:104D80004CB10A4B03EBC0039B5C3343074F07EB6B
:104D9000C007BB5408E0054B03EBC0039B5CB34367
:104DA000024F07EBC007BB5400BFD4E7A0090020A7
:104DB00010B500224FF480513848FDF70FFA6420F7
:104DC000FDF7FEF8012211033448FDF707FA002130
:104DD000AE2000F013F90021D52000F00FF90021DA
:104DE000502000F00BF90021A82000F007F9002165
:104DF0003F2000F003F90021D32000F0FFF800214C
:104E0000084600F0FBF80021402000F0F7F80021F0
:104E10008D2000F0F3F80021142000F0EFF80021BD
:104E2000202000F0EBF80021022000F0E7F800213C
:104E3000A12000F0E3F80021C02000F0DFF80021FD
:104E4000DA2000F0DBF80021122000F0D7F8002172
:104E5000812000F0D3F80021EF2000F0CFF80021EE
:104E6000D92000F0CBF80021F12000F0C7F8002194
:104E7000DB2000F0C3F80021302000F0BFF8002153
:104E8000A42000F0BBF80021A62000F0B7F8002114
:104E9000AF2000F0B3F8FFF731FF10BD000C024067
:104EA00070B500241CE004F1B001C8B2002100F08C
:104EB000A5F80021084600F0A1F80021102000F01C
:104EC0009DF8002508E0084901EBC501085D0121B6
:104ED00000F094F8681CC5B2802DF4DB601CC4B2ED
:104EE000082CE0DB70BD0000A00900202DE9F04F88
:104EF00080460C4615461E46A346A5F12000C5B2C5
:104F000000273EE00C2E07D105EB45001F4901EBC1
:104F1000800010F8079004E01D4800EB051010F821
:104F200007904FF0000A26E009F0800028B12146E2
:104F30004046099AFFF708FF09E0099808B90120DF
:104F400000E00020024621464046FFF7FDFE4FEA02
:104F500049604FEA1069601CC4B2A4EB0B00B04278
:104F600005D15C4608F1010000F0FF0806E00AF1F7
:104F7000010000F0FF0ABAF1080FD5DB00BF781C72
:104F8000C7B2B742BEDBBDE8F08F00003088000832
:104F9000A48C0008F0B52DED048B87B0B0EE408AEC
:104FA00005460E46174618EE100AFBF7D1FC41ECF9
:104FB000190B8DED009B2B460EA2102103A801F0CA
:104FC0008BF800240CE0012003A900900A5D06EB99
:104FD000C401C8B210233946FFF788FF601CC4B271
:104FE00003A8FBF7A8F9A042EDD807B0BDEC048BED
:104FF000F0BD0000252E2A660000000070B50446B2
:105000000E462EB10122D1021848FDF7E7F805E05F
:1050100000224FF400611548FDF7E0F800251DE07F
:1050200000224FF480411148FDF7D8F804F08000C9
:1050300028B1012251030D48FDF7D0F805E0002208
:105040004FF400510948FDF7C9F8012291030748C0
:10505000FDF7C4F86006040E681CC5B2082DDFDB3E
:105060000122D1020148FDF7B9F870BD000C0240E1
:10507000F0EE400A90ED000A30EE600A1C4981ED26
:10508000000A91ED000A1B4981ED000A1A4991EDD1
:10509000000A174991ED001A30EE010A164981ED18
:1050A000000A134991ED000A144991ED001A30EEFF
:1050B000410A134981ED000A0D4991ED000A0F499B
:1050C00081ED000A90ED010A0A4991ED001A20EEE7
:1050D000010A90ED021A0849D1ED001A01EE210AE9
:1050E00090ED031A0649D1ED001A01EE210A70472E
:1050F00064000020580000205C00002068000020B0
:10510000600000200549086000BF0449091F0968C4
:10511000C1F3C0110029F8D07047000004480040D6
:1051200070B5044651A12046FBF70CF9002854D174
:105130004F48D0ED000AB0EE600A001DFFF730F9CD
:10514000BDEEC00A10EE100A4949496908444849B1
:1051500048614848D0ED000AB0EE600A001DFFF734
:105160001FF9BDEEC00A10EE100A42494969084411
:10517000404948614048D0ED000AB0EE600A001D89
:10518000FFF70EF9BDEEC00A10EE100A3A49496960
:105190000844394948613948D0ED000AB0EE600A48
:1051A000001DFFF7FDF8BDEEC00A10EE100A3349EE
:1051B00049690844314948612D4A506991698847D5
:1051C0002C4A5069916988472B4A506991698847F0
:1051D0002A4A50699169884746E029A12046FBF791
:1051E000B1F8E8BB2248D0ED000AB0EE600A001D1D
:1051F000FFF73EFFBDEEC00A10EE105A1C48816951
:10520000284688471B48D0ED000AB0EE600A001D12
:10521000FFF72EFFBDEEC00A10EE105A1548816947
:10522000284688471448D0ED000AB0EE600A001DF9
:10523000FFF71EFFBDEEC00A10EE105A0E4881693E
:10524000284688470D48D0ED000AB0EE600A001DE0
:10525000FFF70EFFBDEEC00A10EE105A074800E03F
:1052600002E081692846884770BD0000496E6300EE
:10527000C00D0020000E0020E00D0020A00D002039
:10528000506F730000BF002520E01948D0F8D0000F
:10529000D8B11748D0F8CC0015490C5C0846D0F8B6
:1052A000CC00401CC1F8CC00C82802D30020C1F8B3
:1052B000CC0072B60E48D0F8D000401E0C49C1F8A0
:1052C000D00062B62046FBF793FE6D1CB5F57A7FE1
:1052D000DBDB012211460320064B93ED000AFFF7AA
:1052E00059FEFFF7DDFD012001F09BFECBE700003A
:1052F00084080020A80000202DED048B82B000BFA0
:105300001A49B7EE000AC86980471949B0EE080A81
:10531000C86980471749BFEE000AC8698047164927
:10532000B8EE080AC869804714A0FFF7F9FE0F48D5
:1053300090ED000A10EE101A0846FBF709FB41EC4D
:10534000180B0A4890ED010A10EE101A0846FBF7F8
:10535000FFFA41EC190B8DED008B53EC192B08A0D3
:1053600000F0AAFE092001F05CFEC9E7C00D002094
:10537000A00D0020000E0020E00D0020506F7300F3
:10538000252E32662C252E32660D0A0000BF0F2016
:1053900001F047FEFBE700BF012001F042FEFBE702
:1053A00010B500BF502080F31188BFF34F8FBFF3BB
:1053B0006F8F00BF03F0CEF818B14FF08050044952
:1053C000086000BF002080F3118800BF10BD0000FE
:1053D00004ED00E000B593B0302107A8FAF7A0FF74
:1053E000142102A8FAF79CFF00BF00200190254875
:1053F000006840F08050234908600846006800F0CB
:105400008050019000BF00BF00BF002001901E48E7
:10541000006840F480401C4908600846006800F4B9
:105420008040019000BF00BF0220079001200A9039
:1054300010200B9002200D9000210E9108210F9159
:10544000A8211091022111910421129107A8FDF7C2
:1054500047F908B1FCF766FB0F2002900220039089
:10546000002004904FF4A05005904FF48050069017
:10547000052102A8FCF7D2FF08B1FCF753FB13B0DB
:1054800000BD000040380240007000400348006842
:1054900040F47000014908607047000088ED00E0AA
:1054A00010B50248FDF77DFF10BD00004C04002040
:1054B00010B50248FDF775FF10BD00005809002027
:1054C00010B50248FDF76DFF10BD00002405002057
:1054D00010B502682D4B98420ED0B0F1804F0BD022
:1054E0002B4B984208D02B4B984205D02A4B984220
:1054F00002D02A4B984203D122F070024B681A4323
:10550000224B984220D0B0F1804F1DD0204B9842C2
:105510001AD0204B984217D01F4B984214D01F4BE3
:10552000984211D01E4B98420ED01E4B98420BD081
:105530001D4B984208D01D4B984205D01C4B9842F9
:1055400002D01C4B984203D122F44072CB681A431C
:1055500022F080034C6943EA040202608B68C36254
:105560000B688362094B984202D00C4B984201D1E0
:105570000B69036301234361036903F001031BB15A
:10558000036923F00103036110BD00000000014026
:105590000004004000080040000C004000040140EE
:1055A0000040014000440140004801400018004014
:1055B000001C00400020004030B501F01F05012410
:1055C00004FA05F3046A9C430462046A01F01F05AF
:1055D00002FA05F52C43046230BD30B50C468168F3
:1055E00021F47F4142EA032525432943816030BDF0
:1055F0000A46816821F0700142F007031943816077
:105600007047000030B5026A056A25F001050562A1
:105610004368846924F0700424F003040D682C436B
:1056200022F002028D682A43104DA84200D103E007
:105630000F4DA84206D100BF22F00802CD682A43D0
:1056400022F00402094DA84202D0094DA84207D118
:1056500023F4807323F400734D692B438D692B432E
:10566000436084614D684563026230BD00000140C3
:105670000004014030B5026A056A25F01005056294
:105680004368846924F4E04424F440740D6844EAD7
:10569000052422F020028D6842EA0512124DA8422C
:1056A00000D103E0114DA84207D100BF22F08002D3
:1056B000CD6842EA051222F040020B4DA84202D00A
:1056C0000A4DA84209D123F4806323F400634D6995
:1056D00043EA85038D6943EA8503436084614D682D
:1056E0008563026230BD00000000014000040140FB
:1056F00030B5026A056A25F4807505624368C4699D
:1057000024F0700424F003040D682C4322F400728A
:105710008D6842EA0522124DA84200D103E0114DE6
:10572000A84207D100BF22F40062CD6842EA0522F8
:1057300022F480620A4DA84202D00A4DA84209D143
:1057400023F4805323F400534D6943EA05138D6914
:1057500043EA05134360C4614D68C563026230BD0E
:10576000000001400004014030B5036A056A25F4D9
:10577000805505624468C26922F4E04222F4407216
:105780000D6842EA052223F400538D6843EA05338D
:10579000084DA84202D0084DA84204D124F4804408
:1057A0004D6944EA85144460C2614D680564036232
:1057B00030BD0000000001400004014030B50B4640
:1057C0001446026A056A25F001050562816921F027
:1057D000F00141EA041122F00A021A4381610262D7
:1057E00030BD30B50B461446026A056A25F0100537
:1057F0000562816921F4704141EA043122F0A0027E
:1058000042EA03128161026230BD70B50546AC6B9D
:105810000020E085E0842046FEF778FA70BD70B580
:1058200006460025B46B20684069C0F3C01594F8A3
:105830004100212805D125B10020E084204600F058
:10584000C8F820684069C0F3801594F84200222807
:1058500005D125B10020E085204600F074F8606C89
:1058600040F0100060642046FEF750FA70BD70B53D
:105870000546AC6B2868006800F48070002842D1AF
:10588000E08500BF00BF21680C3151E8001F21F402
:10589000807021680C3141E80002002AF3D100BF7A
:1058A00000BF00BF2168143151E8001F21F0010042
:1058B0002168143141E80002002AF3D100BF00BF83
:1058C00000BF2168143151E8001F21F04000216819
:1058D000143141E80002002AF3D100BF202084F8EF
:1058E0004200206B01280ED100BF00BF21680C319F
:1058F00051E8001F21F0100021680C3141E800023E
:10590000002AF3D100BF00206063206B012804D17E
:10591000A18D2046FEF700F902E02046FEF7DCFCF0
:1059200070BD70B50546AC6B01206063206B01282B
:1059300005D1A08D41082046FEF7EEF802E0204692
:10594000FEF7CBFC70BD00BF00BF02680C3252E80E
:10595000002F22F4907102680C3242E80013002BF1
:10596000F3D100BF00BF00BF0268143252E8002F1D
:1059700022F001010268143242E80013002BF3D137
:1059800000BF016B01290ED100BF00BF02680C32BD
:1059900052E8002F22F0100102680C3242E8001396
:1059A000002BF3D100BF202180F8421000210163B9
:1059B000704710B504462068C06820F04000216898
:1059C000C860202084F841002046FEF7E6FC002055
:1059D00010BD00BF00BF02680C3252E8002F22F059
:1059E000C00102680C3242E80013002BF3D100BF63
:1059F000202180F841107047F8B5044694F8420021
:105A0000222875D1A068B0F5805F0CD1206950B90B
:105A10000025A66A20684068C0F308003080A06AAC
:105A2000801CA06215E0A56A0026A068B0F5805F22
:105A300003D0A06828B9206918B920684068287088
:105A400004E02068406800F07F002870A06A401CD5
:105A5000A062E08D401E80B2E085002846D120681B
:105A6000C06820F020002168C8602068C06820F469
:105A700080702168C8602068406920F001002168BA
:105A80004861202084F8420000206063206B0128D8
:105A900026D10020206300BF00BF21680C3151E8EF
:105AA000001F21F0100021680C3141E80002002A9B
:105AB000F3D100BF2068006800F0100010280AD160
:105AC00000BF0020009020680068009020684068B7
:105AD000009000BF00BFA18D2046FEF71DF802E038
