:020000040800F2
:10000000484500205D020008592D0008172300080C
:10001000552D000807070008694800080000000087
:100020000000000000000000000000009D0100082A
:100030000B07000800000000F9010008B9300008B3
:1000400077020008770200087702000877020008AC
:10005000770200087702000877020008770200089C
:10006000770200087702000877020008770200088C
:10007000770200087702000877020008770200087C
:10008000770200087702000877020008770200086C
:10009000770200087702000877020008770200085C
:1000A000770200087702000877020008770200084C
:1000B00077020008770200089531000877020008EF
:1000C000770200087702000877020008770200082C
:1000D00077020008594800087702000877020008F4
:1000E000770200087702000877020008770200080C
:1000F00077020008770200087702000877020008FC
:1001000077020008770200087702000877020008EB
:1001100077020008770200087702000877020008DB
:1001200077020008770200087702000877020008CB
:1001300077020008770200087702000877020008BB
:1001400077020008770200087702000877020008AB
:10015000770200087702000877020008770200089B
:10016000770200087702000877020008770200088B
:1001700077020008770200087702000800000000FC
:100180007702000877020008DFF80CD000F07EFA52
:100190000048004761520008484500202C4B196870
:1001A0000868B0E8F04F80F30988BFF36F8F4FF015
:1001B000000080F3118870470000000008480068C4
:1001C000006880F308884FF0000080F3148862B65E
:1001D00061B6BFF34F8FBFF36F8F00DF00BF00BF6B
:1001E00008ED00E0DFF80C00016841F470010160E7
:1001F000704700BF88ED00E0EFF30980BFF36F8F19
:10020000134B1A681EF0100F08BF20ED108A20E96A
:10021000F04F106009B44FF0500080F31188BFF325
:100220004F8FBFF36F8F07F0E7FB4FF0000080F3B5
:10023000118809BC19680868B0E8F04F1EF0100F6B
:1002400008BFB0EC108A80F30988BFF36F8F704746
:10025000A4000020EFF305807047000006488047A7
:1002600006480047FEE7FEE7FEE7FEE7FEE7FEE79B
:10027000FEE7FEE7FEE7FEE781310008890100089E
:100280002DE9F05F0546002092469B4688460646CB
:10029000814640241BE0284641464746224600F05E
:1002A00036F953465A46C01A914110D311461846A2
:1002B000224600F01DF92D1A67EB01084F46224631
:1002C0000120002100F014F917EB00094E41201E17
:1002D000A4F10104DFDC484631462A464346BDE826
:1002E000F09F40EA01039B0703D009E008C9121FF1
:1002F00008C0042AFAD203E011F8013B00F8013BE0
:10030000521EF9D27047D2B201E000F8012B491E0B
:10031000FBD270470022F6E710B513460A460446A2
:100320001946FFF7F0FF204610BD421C10F8011BD4
:100330000029FBD1801A70472DE9FE4F81EA0304A2
:1003400004F0004421F0004100944FF0000B23F032
:10035000004350EA01045ED052EA03045BD0C3F3C9
:100360000A54C1F30A552C44A4F2F3340194A0FBBF
:100370000254C1F3130141F48011C3F3130343F496
:10038000801301FB024400FB034E840A970A44EAEF
:10039000815447EA8357A4FB076802958D0A05FB41
:1003A00007854FEA932C04FB0C542705029D4FEA66
:1003B000065847EA1637B5EB08056EEB070C870EB3
:1003C000920E47EA811742EA8312A7FB0201B6EBBD
:1003D0000B0164EB00042B0D43EA0C335E1844EB75
:1003E0001C50DA465146E7FB0201C5F313044FEAFD
:1003F0000B3343EA14534FEA0432019C43EA0603E9
:10040000A4F10C040294009CCDE900B400F09EF825
:1004100003B0BDE8F08F00200146F9E70EB540F2C9
:10042000334102910021CDE900110A460B4600F04C
:100430008DF803B000BDC1F30A5210B5C1F313012A
:1004400040F2FF3341F480119A4201DA002010BDDE
:1004500040F233439A42A2F2334203DC524200F0AC
:1004600056F810BD904010BD00F0004230F0004042
:100470000AD0C10D01F56071C0F3160042EA0151C6
:10048000C208400711437047002001467047000032
:1004900030B5041E71F1000404DB4FF0004440420B
:1004A00064EB0101141E73F1000405DB1C464FF0E0
:1004B0000043524263EB04038B4208BF824230BDCB
:1004C00030B5041E71F1000404DB4FF000444042DB
:1004D00064EB0101141E73F1000405DB1C464FF0B0
:1004E0000043524263EB0403994208BF904230BD7F
:1004F000202A04DB203A00FA02F1002070479140E4
:10050000C2F1200320FA03F3194390407047202AD8
:1005100004DB203A21FA02F00021704721FA02F3AD
:10052000D040C2F12002914008431946704710B5EF
:10053000141E73F1000408DA401C41F10001921806
:100540005B411A4301D120F0010010BD2DE9F04DAF
:1005500092469B4611B1B1FA81F202E0B0FA80F204
:1005600020329046FFF7C4FF04460F4640EA0A00D7
:1005700041EA0B0153465A46084313D0114653EA49
:10058000010019D0C8F140025046FFF7C0FF0546F0
:100590000E46504659464246FFF7AAFF084305D08B
:1005A000012004E020463946BDE8F08D00200543D7
:1005B00046EAE0762C4337430A986305E40AA0EB49
:1005C00008000022FD0A44EA47540A3002D5002000
:1005D0000146E9E7010510196941DDE908450019FF
:1005E0006941BDE8F04DA2E72DE9F04D00231A4620
:1005F0001B1A8A4103DB00200146BDE8F08DC1F3E0
:100600000A52C1F3130141F480154FF0000BD107DA
:1006100002D100186D41521E0027044640F2FF111E
:10062000384601EB620A3E468046024600204FF4FF
:100630008011FFF76CFFC2197141BB1846EB010036
:10064000B4EB030C75EB000C04D3E41A65EB000566
:1006500017460E46241908F101006D4180463428E2
:10066000E3DDF91946EB0600091BA84103D24FF060
:10067000FF32134601E0002213461BEB070046EB56
:100680000A51BDE8F04DFFF752BF0000064C074D80
:1006900006E0E06840F0010394E807009847103452
:1006A000AC42F6D3FFF774FD08AD000828AD000892
:1006B00070B58C1810F8015B15F0070301D110F824
:1006C000013B2A1106D110F8012B03E010F8016B51
:1006D00001F8016B5B1EF9D12B0705D40023521ED4
:1006E0000DD401F8013BFAE710F8013BCB1A921C3C
:1006F00003E013F8015B01F8015B521EF9D5A1423A
:10070000D8D3002070BD00BFFEE7704772B600BFAF
:10071000FEE7000070B50446B3F5804F13D1D1E970
:10072000000540EA05108D6840EA05208D692843E0
:100730008D8940EA054054F82250064E3540284342
:1007400044F8220003E06FF0704044F822000020DB
:1007500070BD00000000F0CF70B50246086852F886
:10076000200020F001000E6842F826008868082862
:1007700001D1402300E00023486818438E683043CD
:10078000CE6830430E6930434E693043CE69304302
:100790000E6A30434E6A30438E6A3043CE6A30432D
:1007A0000E6B40EA060488690443C86B0443074D96
:1007B00045F4806545F4E025086852F82000A84318
:1007C00020430E6842F82600002070BD7FFB080021
:1007D00010B50346D1E9000440EA04108C6840EAF1
:1007E00004208C8940EA0444088A401E44EA0054EC
:1007F000087D801E44EA00608C692043541C53F835
:10080000244004F040442043541C43F824000020BA
:1008100010BD0000F0B506460C46174601201249EF
:100820000860052000F0D6FA032000F01FF8C4F39A
:10083000074000F01BF8C4F3072000F017F8E0B2FF
:1008400000F014F8002505E0FF2000F00FF87055C7
:10085000681C85B2BD42F7DB002003490860052013
:1008600000F0B8FAF0BD0000B4024142002118E0E7
:1008700000F08002802A03D101220D4B1A6002E0B1
:1008800000220B4B1A6000220A4B1A604206100E1F
:10089000094AD2F808220243D0B201221A604A1C47
:1008A000D1B20829E4DB0122024B1A607047000034
:1008B000AC82424280824042008040422DE9F043B7
:1008C0000746884691461C463E78B9F1200F1ED057
:1008D00009DCB9F10C0F0DD0B9F1100F0FD0B9F13F
:1008E000180F20D10FE0B9F1300F14D0B9F1400F3B
:1008F00019D114E006FB04F000F5002515E00F48BF
:1009000006FB040511E00E4806FB04050DE00D484A
:1009100006FB040509E00C4806FB040505E00B484E
:1009200006FB040501E0BDE8F08300BF224629462E
:100930004046FFF76FFF00BFF5E700000008080022
:100940000012080000260800004808000092080075
:100950002DE9FF4F82460F4698469AF800900AF11B
:10096000010082460478B9F1810F06DB402C04DBDC
:10097000FF2C02D0B9F1FF0F0DD14FF0000B06E0B4
:10098000002007F8010B0BF101001FFA80FBC345A3
:10099000F6DBBDE8FF8F7F2C03DAA4F14000C4B280
:1009A00002E0A4F14100C4B2A9F1810000F0FF0906
:1009B000BE2010FB094000FB08F502980C2806D069
:1009C000102807D0182808D020280CD108E00A48A1
:1009D0002E1809E009482E1806E005F5ED1603E08B
:1009E00005F5601600E0D4E700BF424631463846C0
:1009F000FFF710FF00BFCCE70014090000DD110075
:100A000000B585B014216846FFF784FC06200090ED
:100A1000002001904FF4403003900120029069467D
:100A2000114800F0A7FA01200090019069460E4895
:100A300000F0A0FA4FF400500090012001906946A8
:100A40000A4800F097FA4FF40060009001200190EE
:100A50006946074800F08EFA01200649086000F058
:100A60000BF805B000BD0000000402400008024081
:100A7000001402408082404210B586B017480088BA
:100A800001F0AEFC002404E000200DF80400601C1E
:100A9000C4B2182CF8DB112200216846FFF7BAFE19
:100AA000002404E000200DF80400601CC4B2182CDF
:100AB000F8DB082214216846FFF7ACFE002404E0AE
:100AC00000200DF80400601CC4B2182CF8DB0822CA
:100AD0001E216846FFF79EFE06B010BD860000206E
:100AE0002DE9FF4FC1B080460D461C46AB4620465F
:100AF000E31704EB5373DB1021464FEAE47C04EB6D
:100B00005C7C4FEAEC0CA4EBCC0CBCF1000F02D0E7
:100B10004FF0010C01E04FF0000C6344224604EB5F
:100B2000D27C4FEA6C0C03FB0CF39FB20C2C0CD064
:100B3000102C0AD0182C08D0202C06D0302C04D031
:100B4000402C02D045B0BDE8F08F3B46224601A9BB
:100B50004398FFF7B3FE00262FE001A810F8069097
:100B60004FF0000A23E009F0800028B129464046F2
:100B70004E9A01F09DFD06E0509820B92946404666
:100B80004F9A01F095FD4FEA49604FEA1069681CE1
:100B900085B2A5EB0B00A04205D15D4608F101002E
:100BA0001FFA80F806E00AF101001FFA80FABAF194
:100BB000080FD8DB00BF701C86B2BE42CDDB00BF81
:100BC000C0E72DE9FF4FA1B080460D461C46AB465D
:100BD0002046E21704EB5272D2102146E31704EBD1
:100BE0005373DB10A4EBC3030BB1012300E000231C
:100BF0001A44624397B20C2C08D0102C06D0182C43
:100C000004D0202C02D025B0BDE8F08F3B46224610
:100C100001A92398FFF79CFE00262FE001A810F8F9
:100C200006904FF0000A23E009F0800028B1294621
:100C300040462E9A01F03CFD06E0309820B9294646
:100C400040462F9A01F034FD4FEA49604FEA10699F
:100C5000681C85B2A5EB0B00A04205D15D4608F1EA
:100C600001001FFA80F806E00AF1010000F0FF0A17
:100C7000BAF1080FD8DB00BF701CC6B2BE42CDDB94
:100C800000BFC0E72DE9F04F85B007460D469146FD
:100C90009A46DDE90F4B0E9EB8460495002003905E
:100CA00052E0039888BB3078802802DD0120039051
:100CB0004AE004EBD47108EB0902A2EB6101B942EE
:100CC00002DA281985B2474604985044001BA8420E
:100CD00000DA3CE030780D2804D1281985B2474667
:100CE000761C0AE0DDE9111023463246CDE900B159
:100CF000029029463846FFF7F3FE761C204604EBA7
:100D0000D07107EB61018FB21EE0FFE70020039076
:100D100008EB0900001BB84202DA281985B24746E1
:100D200004985044001BA84200DA10E0DDE91101EC
:100D300023463246CDE900B0029129463846FFF7F6
:100D400040FFB61C381987B230780028A9D100BFFF
:100D500005B0BDE8F08F00002DE9F04F85B080466A
:100D60008B4614461E46DDE90E9A109F0025384634
:100D7000FFF7DBFA85B2204604EBD07149106943D6
:100D80008DB2B5420DDD0120CDE9029ACDE90074A6
:100D900004900F484388028859464046FFF772FF87
:100DA00013E0701B00EBD071C1F34F05012008491F
:100DB000CDE9029ACDE9007404904B880A8805EBCE
:100DC000080188B25946FFF75DFF05B0BDE8F08F16
:100DD00080000020002107E0002201E0531CDAB26D
:100DE000642AFBDB4B1CD9B28142F5DB704770B53E
:100DF0000446A56D00F0B8F9064694F835000228BF
:100E000008D08020606500BF002084F8340000BF57
:100E1000012070BD2068006820F01600216808607D
:100E20002068406920F0800021684861206C08B982
:100E3000A06C28B12068006820F0080021680860D4
:100E40002068006820F001002168086010E000F0D0
:100E50008BF9801B05280BD920206065032084F8BE
:100E6000350000BF002084F8340000BF0320D0E725
:100E70002068006800F001000028E8D194F85C10B8
:100E80003F208840A860012084F8350000BF002082
:100E900084F8340000BF00BFBBE7014691F835007D
:100EA000022803D08020486501207047052081F882
:100EB00035000868006820F001000A681060002012
:100EC000F3E7000000B587B0142102A8FFF722FA6B
:100ED00000BF002001902048006840F001001E493A
:100EE00008600846006800F00100019000BF00BFE4
:100EF00088140290022003900120049003200590A2
:100F00000C20069002A9154800F034F84FF68070C6
:100F1000029002A9124800F02DF84CF233700290B2
:100F200002A9104800F026F84FF48050029002A960
:100F30000D4800F01FF84FF400400290012003908C
:100F400000200490059002A9084800F013F8012041
:100F50000749086007B000BD38380240001402405D
:100F600000100240000C0240001802400004024041
:100F7000BC824042F8B502460B4600250024002002
:100F80000021D6E0012606FA01F51E6806EA0504EE
:100F9000AC4274D11E7906F00306012E04D01E79EE
:100FA00006F00306022E13D190684F000326BE40C0
:100FB000B0434F00DE68BE40304390605068012669
:100FC0008E40B0431E79C6F300168E403043506009
:100FD0001E7906F00306032E09D0D0684F000326C1
:100FE000BE40B0434F009E68BE403043D0601E7983
:100FF00006F00306022E13D1CF0802F1200656F8A0
:1010000027004E07F70E0F26BE40B0434F07FF0ED6
:101010001E69BE403043CF0802F1200646F8270083
:1010200010684F000326BE40B0431E7906F0030649
:101030004F00BE40304310605E6806F44036002E1C
:1010400076D000BF002600963C4E366846F48046B7
:101050003A4F3E603E46366806F48046009600BF32
:1010600000BF374E8F0856F827008E07370F0F2620
:10107000BE40B043334EB24202D1002624E057E0D6
:10108000314EB24201D101261EE0304EB24201D1B2
:10109000022619E02E4EB24201D1032614E02D4E55
:1010A000B24201D104260FE02B4EB24201D10526F7
:1010B0000AE02A4EB24201D1062605E0284EB2428D
:1010C00001D1072600E008268F073F0FBE403043BE
:1010D0001B4E8F0846F82700224E3068A0435E68FA
:1010E00006F4801606B120431E4E3060361D30686F
:1010F000A0435E6806F4001606B12043194E361D63
:101100003060184E361F3068A0435E6806F4003623
:1011100006B12043134E361F3060361F3068A0439F
:101120005E6806F4803606B120430E4E083E3060FD
:10113000491C1029FFF426AFF8BD000044380240D6
:10114000083801400000024000040240000802404C
:10115000000C02400010024000140240001802403F
:10116000001C0240083C0140014800687047000034
:1011700094000020034800680349097808440149A5
:1011800008607047940000209C00002010B50D48B6
:10119000006840F400700B4908600846006840F49D
:1011A000806008600846006840F480700860032092
:1011B00000F0A2F80F2000F007F800F02BF8002054
:1011C00010BD0000003C024070B504460E48007897
:1011D0004FF47A71B1FBF0F00C490968B1FBF0F5FE
:1011E000284600F09AFD08B1012070BD102C07D2EE
:1011F00000222146501E00F041F80548046001E03D
:101200000120F2E70020F0E79C000020A000002071
:101210009800002008B500BF002000900E4800682C
:1012200040F480400C4908600846006800F48040A3
:10123000009000BF00BF00BF00200090081F0068A2
:1012400040F08050091F08600846006800F0805098
:10125000009000BF00BF08BD443802400146084668
:10126000002809DB00F01F0301229A4043099B007C
:1012700003F1E023C3F8002100BF70472DE9F05FC0
:1012800080460D461646002703F078FC074639468F
:101290002A46334601F00700C0F1070ABAF1040FED
:1012A00002D94FF0040A01E0C0F1070AD14600F16B
:1012B000040ABAF1070F02D24FF0000A01E0A0F1D0
:1012C000030AD4464FF0010A0AFA09FAAAF1010A00
:1012D0000AEA020A0AFA0CFA4FF0010B0BFA0CFBAD
:1012E000ABF1010B0BEA030B4AEA0B042146404623
:1012F00003F04CFCBDE8F09F00BF00F00702064B76
:1013000019684FF6FF031940044B0B4343EA0221CF
:10131000014B196000BF70470CED00E00000FA05BA
:1013200070B504460D460CB9012070BD58480068E0
:1013300000F00700A84209D255490D700846006820
:1013400000F00700A84201D00120EEE7207800F06D
:10135000020002281DD1207800F00400042805D1E5
:101360004C48006840F4E0504A490860207800F09A
:101370000800082805D14748006840F46040454906
:1013800008604448006820F0F000A1680843414923
:101390000860207800F00100A8B36068012807D138
:1013A0003C4808380068C0F34040B8B90120BCE7A9
:1013B0006068022802D06068032807D135480838E1
:1013C0000068C0F3406048B90120AEE731480838F2
:1013D0000068C0F3400008B90120A6E72D48006866
:1013E00020F00300616808432A490860FFF7BCFE4B
:1013F000064609E0FFF7B8FE801B41F288318842BB
:1014000002D9032091E707E02248006800F00C00B1
:101410006168B0EB810FEDD11D48006800F0070056
:10142000A84209D91A490D700846006800F0070063
:10143000A84201D0012078E7207800F004000428B9
:1014400007D11448006820F4E050E16808431149CE
:101450000860207800F00800082808D10D480068CE
:1014600020F46040216940EAC1000A49086000F0A8
:101470003FF808490968C1F30311074A515CC840A5
:101480000649086006480068FFF79EFE00204CE70A
:10149000003C024008380240DAAA0008A000002000
:1014A000980000200148006870470000A00000205C
:1014B00000B5FFF7F7FF04490968C1F38221034A29
:1014C000515CC84000BD000008380240EAAA00088C
:1014D00000B5FFF7E7FF04490968C1F34231034A49
:1014E000515CC84000BD000008380240EAAA00086C
:1014F0002DE9F047002400250026A1462548006874
:1015000000F00C0020B1042805D008283AD105E0ED
:10151000DFF8849039E0DFF8849036E01D48001F42
:10152000006800F03F041B48001F006800F48000C2
:1015300078B11A481749091F0968C1F38811A0FB3F
:1015400001700146224600233846FEF799FE054603
:101550000EE011480F49091F0968C1F38811A0FB6B
:1015600001700146224600233846FEF789FE0546F3
:101570000848001F0068C0F30140401C4600B5FB4E
:10158000F6F902E0DFF8109000BF00BF4846BDE862
:10159000F0870000083802400024F40000127A00AE
:1015A000F8B504460CB90120F8BD207800F0010020
:1015B000002874D0F948006800F00C0004280DD011
:1015C000F648006800F00C00082813D1F348001F0B
:1015D000006800F48000B0F5800F0BD1EF480838A8
:1015E0000068C0F34040002859D06068002856D1F8
:1015F0000120D9E700BF6068B0F5803F08D1E74817
:101600000838006840F48030E449083908601EE07A
:101610006068B0F5A02F0DD1E0480838006840F4AC
:101620008020DE49083908600846006840F48030B0
:1016300008600CE0D9480838006820F48030D749A9
:10164000083908600846006820F48020086000BF60
:10165000606890B1FFF788FD054606E0FFF784FD5E
:10166000401B642801D903209EE7CC480838006855
:10167000C0F340400028F1D011E0FFF775FD0546AA
:1016800006E0FFF771FD401B642801D903208BE7BA
:10169000C24808380068C0F340400028F1D12078E3
:1016A00000F0020002285FD1BC48006800F00C0086
:1016B00058B1BA48006800F00C0008281CD1B7489F
:1016C000001F006800F48000B0B9B4480838006812
:1016D000C0F3400020B1E068012801D0012063E799
:1016E000AE480838006820F0F800216940EAC100DF
:1016F000AA490839086037E0E06800B30120A8492A
:101700000860FFF731FD054606E0FFF72DFD401BA1
:10171000022801D9032047E7A04808380068C0F331
:1017200040000028F1D09D480838006820F0F800FB
:10173000216940EAC10099490839086014E0002095
:1017400097490860FFF710FD054606E0FFF70CFD1E
:10175000401B022801D9032026E79048083800687A
:10176000C0F340000028F1D1207800F008000828DC
:101770002CD16069A8B101208A490860FFF7F4FC08
:10178000054606E0FFF7F0FC401B022801D90320C4
:101790000AE782486C300068C0F340000028F1D0AE
:1017A00014E000207F490860FFF7DEFC054606E0F4
:1017B000FFF7DAFC401B022801D90320F4E6774842
:1017C0006C300068C0F340000028F1D1207800F0B0
:1017D0000400042870D1002770483830006800F0F9
:1017E000805090B900BF002000906C4838300068ED
:1017F00040F080506949383108600846006800F0C0
:101800008050009000BF00BF01276748006800F4C7
:101810008070B0B96448006840F480706249086024
:10182000FFF7A2FC054606E0FFF79EFC401B0228DE
:1018300001D90320B8E65C48006800F480700028F5
:10184000F2D000BFA068012808D154486830006871
:1018500040F001005149683108601DE0A06805288A
:101860000DD14E486830006840F004004B496831A3
:1018700008600846006840F0010008600CE0474836
:101880006830006820F0010044496831086008466B
:10189000006820F00400086000BFA068A8B1FFF74E
:1018A00063FC054609E0FFF75FFC401B41F288310D
:1018B000884202D9032077E626E03848683000687D
:1018C000C0F340000028EED013E0FFF74DFC0546C2
:1018D00008E0FFF749FC401B41F28831884201D9FA
:1018E000032061E62D4868300068C0F340000028FE
:1018F000EFD1012F07D129483830006820F08050FF
:1019000026493831086000BFA069002845D0234827
:10191000006800F00C0008285DD0A069022845D1BD
:1019200000201F490866FFF71FFC054606E0FFF789
:101930001BFC401B022801D9032035E61748083854
:101940000068C0F340600028F1D1D4E907010843E2
:10195000616A40EA81110122A06AC2EB500041EAAB
:1019600000412C20005D41EA00600C49091F08601D
:1019700001200B490866FFF7F7FB054606E0FFF775
:10198000F3FB401B022801D903200DE60348083869
:101990000068C0F340600028F1D049E008380240F8
:1019A00000004742800E474200700040002021495D
:1019B0000866FFF7D9FB054606E0FFF7D5FB401B9D
:1019C000022801D90320EFE51B480068C0F34060FE
:1019D0000028F2D12CE0A069012800D1E4E51648E6
:1019E000001D0668A069012820D006F48001E06986
:1019F00081421BD106F03F01206A814216D147F691
:101A0000C0703040616AB0EB811F0FD106F44031E5
:101A10000122A06AC2EB5000B1EB004F06D106F0E4
:101A200070612C20005DB1EB006F01D00120BBE59F
:101A30000020B9E50000474200380240014600227C
:101A40008A6291F8510010B9002081F850000220FC
:101A500081F851000868006820F040000A681060B2
:101A6000888800F482700A8902F4044210438A894B
:101A700002F4006210430A7C02F0020210430A7D65
:101A800002F0010210430A8B02F4007210430A7F35
:101A900002F0380210432022525C02F08002104310
:101AA0000A8D02F4005210430A681060042288690B
:101AB00002EA104091F8242002F0100210430A6854
:101AC00050600868C06920F400600A68D061002096
:101AD0004865012081F85100002070472DE9F84346
:101AE00004460F4616461D46FFF73EFB8046B146AC
:101AF00094F85100012802D00220BDE8F88307B114
:101B00000EB90120F9E700BF94F85000012801D177
:101B10000220F2E7012084F8500000BF032084F87F
:101B20005100002060652763A686E686A063A08733
:101B3000E08760642064A068B0F5004F0BD1206896
:101B4000006820F04000216808602068006840F4C8
:101B50008040216808602068006800F0400040284C
:101B600005D02068006840F0400021680860E06807
:101B7000B0F5006F37D1606810B1B9F1010F09D12C
:101B8000206B00882168C860206B801C2063E08E79
:101B9000401EE08623E02068806800F002000228F2
:101BA0000AD1206B00882168C860206B801C2063EC
:101BB000E08E401EE08612E0FFF7D6FAA0EB0800A8
:101BC000A84201D3681C00B94DB9012084F8510026
:101BD00000BF002084F8500000BF03208DE7E08E96
:101BE0000028D8D136E0606810B1B9F1010F09D1F1
:101BF000206B007821680873206B401C2063E08E06
:101C0000401EE08623E02068806800F00200022881
:101C10000AD1206B007821680873206B401C206378
:101C2000E08E401EE08612E0FFF79EFAA0EB08006F
:101C3000A84201D3681C00B94DB9012084F85100B5
:101C400000BF002084F8500000BF032055E7E08E5D
:101C50000028D8D142462946204601F07DF908B136
:101C600020206065A06850B900BF00200090206867
:101C7000C068009020688068009000BF00BF01200D
:101C800084F8510000BF002084F8500000BF606D50
:101C900008B1012031E700202FE770B504460E4659
:101CA00015460CB9012070BD94F8490010B9002008
:101CB00084F8480004F108012068FEF74DFD314624
:101CC000A2682068FEF784FD2946236BD4E901024F
:101CD000FEF720FDA168206850F8210040F00100C7
:101CE000A268216841F82200012084F84900002000
:101CF000D9E7042808D14FF0E021096941F0040137
:101D00004FF0E022116107E04FF0E021096921F076
:101D100004014FF0E0221161704770B5044625467A
:101D2000681EB0F1807F01D301200FE0681E4FF0E4
:101D3000E02148610F214FF0FF3002F027FF002023
:101D40004FF0E021886107200861002070BD10B5C8
:101D500004460CB9012010BD94F83D0028B90020BC
:101D600084F83C00204600F025F8022084F83D006D
:101D7000211D206801F030FA012084F8460000BFE0
:101D800084F83E0001213F200155402001554120AB
:101D9000015500BF00BF012084F8420043200155D7
:101DA000442001554520015500BF012084F83D0025
:101DB0000020D0E770470000014691F83D0001285F
:101DC00001D001207047022081F83D000868C068FA
:101DD00040F001000B68D8601A4B086898421BD08D
:101DE0000868B0F1804F17D0174B0868984213D09D
:101DF000164B086898420FD0154B086898420BD0D4
:101E0000144B0868984207D0134B0868984203D0D7
:101E1000124B086898420CD10868806800F00702ED
:101E2000062A0CD00868006840F001000B681860B2
:101E300005E00868006840F001000B6818600020A9
:101E4000C0E700000000014000040040000800401E
:101E5000000C004000040140004001400018004018
:101E6000704770472DE9F84F0446206805682068E0
:101E7000C668206847694FF00009CA4605F00F0997
:101E8000B9F1000F0AD105F0200038B106F02000AA
:101E900020B1204602F0FBFABDE8F88FB9F1000F3F
:101EA0007CD007F0010018B906F49070002875D0B6
:101EB00005F0010030B106F4807018B1606C40F09C
:101EC0000100606405F0040030B107F0010018B1B2
:101ED000606C40F00200606405F0020030B107F071
:101EE000010018B1606C40F00400606405F0080067
:101EF00048B106F0200010B907F0010018B1606C7D
:101F000040F008006064606C002846D005F02000B6
:101F100028B106F0200010B1204602F0B8FA20687F
:101F20004069C0F3801A606C00F0080010B9BAF183
:101F3000000F2DD0204602F064FA2068406900F0BE
:101F40004000402820D100BF00BF2168143151E873
:101F5000001F21F040002168143141E80002002AEE
:101F6000F3D100BFE06B50B17748E16B0865E06BDF
:101F7000FEF793FF88B1E06B016D88470DE02046C6
:101F8000FFF76FFF09E009E02046FFF76AFF04E072
:101F90002046FFF766FF002060647DE7206B012884
:101FA00078D105F01000002874D006F01000002849
:101FB000FAD000BF002000902068006800902068E0
:101FC0004068009000BF00BF2068406900F04000FA
:101FD000402860D1E06B006840681FFA80F8B8F1D3
:101FE000000F56D0A08D404553DDA4F82E80E06B45
:101FF000C069B0F5807F43D000BF00BF21680C31BD
:1020000051E8001F21F4807021680C3141E8000282
:10201000002AF3D100BF00BF00BF2168143151E88E
:10202000001F21F001002168143141E80002002A5C
:10203000F3D100BF00BF00BF2168143151E8001F79
:1020400021F040002168143141E80002002AF3D158
:1020500000BF202084F842000020206300BF00BFA2
:1020600021680C3151E8001F21F0100021680C316B
:1020700041E80002002AF3D100BFE06BFEF7B7FE93
:1020800002206063A08DE28D801A81B22046FFF7A6
:10209000E7FE01E742E0A08DE18D401A1FFA80F8CB
:1020A000E08DD0B3B8F1000F37D000BF00BF21687A
:1020B0000C3151E8001F21F4907021680C3141E887
:1020C0000002002AF3D100BF00BF00BF2168143115
:1020D00051E8001F21F001002168143141E800029D
:1020E000002AF3D100BF202084F8420000202063A2
:1020F00000BF00BF21680C3151E8001F21F0100023
:1021000021680C3141E80002002AF3D100BF02200F
:10211000606341462046FFF7A3FEBDE605F0800060
:1021200030B106F0800018B1204602F065FBB3E63E
:1021300005F0400030B106F0400018B1204602F032
:1021400096F9A9E600BFA7E6EF43000810B50446DC
:102150000CB9012010BDA06900B100E000BF94F8E7
:10216000410028B9002084F84000204600F02AF8F9
:10217000242084F841002068C06820F400502168C1
:10218000C860204602F002FA2068006920F49040FE
:10219000216808612068406920F02A0021684861B0
:1021A0002068C06840F400502168C8600020606466
:1021B000202084F8410084F842000020606300BFC2
:1021C000C8E7000010B586B00446142101A8FEF748
:1021D000A1F81B492068884230D100BF0020009040
:1021E0001848006840F0100016490860084600686A
:1021F00000F01000009000BF00BF00BF0020009062
:1022000010481438006840F001000E491439086085
:102210000846006800F00100009000BF00BF4FF4C6
:10222000C0600190022002900020039003200490DF
:102230000720059001A90448FEF79CFE06B010BDDA
:1022400000100140443802400000024070B50446CE
:102250000D46164694F8420020280BD105B10EB960
:10226000012070BD0020206332462946204602F03E
:10227000A3FAF6E70220F4E710B5044620492068E7
:1022800088423CD11F48008800F4004090BB1D48A4
:10229000008800F4804070B11B4800780A2803D001
:1022A00000201849088025E01648008840F40040C6
:1022B000144908801EE0144800780D2806D1114802
:1022C000008840F480400F49088013E00E480078F1
:1022D0000C490988C1F30D010C4A50540948008883
:1022E000401C0849088008460088B0F5FA7F01DBE9
:1022F00000200880012204490548FFF7A7FF10BD10
:102300000010014000000020020000201403002003
:10231000CC020020704700BFFEE7000000B585B08A
:1023200014216846FDF7F6FF4FF44070009000203E
:1023300001900120029069460648FEF71BFE01202D
:1023400000900220029069460348FEF713FE05B094
:1023500000BD0000000402400000024010B5044629
:1023600014B101201B4908701A48007808B31A48B4
:10237000006838B11848001F006818B11748006895
:10238000012816D10A2002F0B5FE0020114908707C
:102390001148006808B9012010BD0F48001F0068EF
:1023A00008B90220F8E70D480068012810D1042080
:1023B000F2E70948006801280AD10748001F0068B1
:1023C000012805D10548006810B9012001490870AD
:1023D0000020E1E77C0200202482404200024042CB
:1023E00030B5034600242648038026480088254946
:1023F000498800FB01F52A202349088000204FF07E
:10240000D841A1F88000A1F880001E480088401E35
:10241000C0F30F20A1F880001A480078401EC0B217
:102420001949891C08802B20891E08800020891CDE
:1024300008804FF0D841A1F8800012484088401E23
:10244000C0F30F20A1F880000E488078401EC0B273
:102450000D49891C0880002000F0BEFB002000F020
:10246000CBFB2C200849088000BF05E00448008809
:102470000549891C0880641CAC42F7D330BD0000BC
:1024800086000020800000207E00006C70B50546AC
:102490000E464DB900201E490871F02008804FF407
:1024A000A070488000242CE0012D09D1002018499B
:1024B0000871F02008804FF4A0704880032420E0C9
:1024C000022D09D10120124908714FF4A070088033
:1024D000F0204880052414E0032D09D101200C4987
:1024E00008714FF4A0700880F0204880062408E0AE
:1024F000002007490871F02008804FF4A070488040
:102500000024204600F0ECF93046FFF769FF70BD6B
:10251000800000202DE9FF4F84B081468A460020CC
:10252000029083460698A0EB09050798A0EB0A06DF
:10253000CDF80490CDF800A0002D01DD012705E0C5
:102540000DB9002702E04FF0FF376D42002E02DD8B
:102550004FF0010806E016B94FF0000802E04FF016
:10256000FF387642B54201DD2C4600E034460020BB
:1025700003901EE0009A91B2019A90B2119A00F075
:1025800097F8029828440290B3440298A04205DDCF
:102590000298001B0290019838440190A34504DD85
:1025A000ABEB040B0098404400900398401C80B2B1
:1025B0000390611C03988842DCDD08B0BDE8F08F11
:1025C0002A220E4B1A8002124FF0D843A3F8802023
:1025D000C2B20A4B9B1C1A802B229B1E1A800A1225
:1025E0009B1C1A80CAB21A802C224FF0D843A3F841
:1025F0007E20034A1288A3F8802070477E00006C7A
:102600008A0000202DE9F04706460F4690469A467C
:10261000002445460320A0EB480944E07A1B91B210
:10262000321990B2524600F043F83A1B91B2721937
:1026300090B2524600F03CF83A1991B2721990B239
:10264000524600F035F87A1991B2321990B25246DA
:1026500000F02EF87A1991B2321B90B2524600F077
:1026600027F83A1991B2721B90B2524600F020F846
:102670007A1B91B2321B90B2524600F019F83A1B05
:1026800091B2721B90B2524600F012F8641CB9F17C
:10269000000F03DAA000801D814404E0601B80006D
:1026A0000A3081446D1EAC42B8DDBDE8F087000001
:1026B00010B52A230D4C238003124FF0D844A4F800
:1026C0008030C3B2094CA41C23802B23A41E23807A
:1026D0000B12A41C2380CBB223802C234FF0D844B0
:1026E000A4F87E302346A3F8802010BD7E00006C45
:1026F00070B504460D4600F0B1FACF20714908804C
:1027000000204FF0D841A1F88000C1206D49891CFC
:10271000088030200880ED20891E08806420891CF4
:102720000880032008801220088081200880E8208B
:10273000891E08808520891C0880102008807A2046
:102740000880CB20891E08803920891C08802C2015
:102750000880002008803420088002200880F720AC
:10276000891E08802020891C0880EA20891E088094
:102770000020891C08800880C020891E08801B203A
:10278000891C0880C120891E08800120891C0880BE
:10279000C520891E08803020891C08800880C72039
:1027A000891E0880B720891C08803620891E088071
:1027B0004820891C08803A20891E08805520891CE1
:1027C0000880B120891E08800020891C08801A20FA
:1027D0000880B620891E08800A20891C0880A22053
:1027E0000880F220891E08800020891C088026208D
:1027F000891E08800120891C0880E020891E08802D
:102800000F20891C08802A200880282008800820A2
:1028100008800E2008800820088054200880A92005
:102820000880432008800A2008800F2008800020AC
:102830000880088008800880E120891E0880002028
:10284000891C088015200880172008800720088030
:1028500011200880062008802B2008805620088040
:102860003C20088005200880102008800F20088068
:102870003F20088008800F2008802B20891E0880B8
:102880000020891C08800880012008803F200880E3
:102890002A20891E08800020891C08800880088062
:1028A000EF20088011204FF0D841A1F87E00782059
:1028B00002F020FC292003490880E8B22146FFF7F6
:1028C000E5FD70BD7E00006C10B50246012000E001
:1028D00050430B1EA1F10104E1B2F9D110BD00007B
:1028E0000146002008291CD2DFE801F00406090C8B
:1028F0000F12151800BF14E040F0800011E040F006
:1029000040000EE040F0C0000BE040F0200008E086
:1029100040F0600005E040F0A00002E040F0E00080
:1029200000BF00BF3622044B1A8040F008024FF06F
:10293000D843A3F8802070477E00006C2DE9FC4F3F
:1029400006460F4690461C46BA462046E31704EB5F
:102950005373DB1021464FEAE47C04EB5C7C4FEAC6
:10296000EC0CA4EBCC0CBCF1000F02D04FF0010C2E
:1029700001E04FF0000C6344224604EBD27C4FEAA6
:102980006C0C03FB0CF3DBB20093A8F1200000F009
:10299000FF080C2C05D108EB48003E4901EB8009EB
:1029A0000FE0102C03D13C4800EB081909E0182C6B
:1029B00005D108EBC800394901EB800901E0BDE809
:1029C000FC8F002561E019F805B00020019056E069
:1029D0000BF0800028B1394630460B9AFFF768FEAD
:1029E00007E00C9828B92E48028839463046FFF790
:1029F0005FFE4FEA4B604FEA106B781C87B22948A4
:102A00004088B8422ADC5746701C86B2182C12D176
:102A1000032095FBF0F100FB115010B9A81CC5B2C2
:102A200016E0032095FBF0F100FB115001280FD1B7
:102A3000681CC5B20CE0102C01D00C2C08D1284623
:102A400005EBD0714910A5EB410109B9681CC5B26D
:102A500014480088B04200DCB1E713E0A7EB0A009D
:102A6000A04208D15746701C86B20E480088B0427A
:102A700000DCA4E706E00198401CC0B20190019878
:102A80000828A5DB00BF681CC5B2009885429ADB08
:102A900000BF94E760880008D48C0008C492000846
:102AA00086000020800000202DE9FE4F04460D46E0
:102AB000904699460CAE96E8C00CE0B2029008EB46
:102AC00004001FFA80F809EB05001FFA80F916E0F0
:102AD000444502DB029CA81985B24D4500DB14E099
:102AE000CDE900AB3A78334629462046FFF726FF6A
:102AF000304606EBD07104EB61018CB27F1C387854
:102B00007E2802DC38782028E2DA00BFBDE8FE8F9C
:102B10002DE9FF4F85B0064693461F46DDE9138930
:102B2000129C00200490002550E0781B401EC1B28A
:102B30000A20FFF7C9FEBBFBF0F00A21B0FBF1F25F
:102B400001FB120A049860BB781EA84229DDBAF185
:102B5000000F24D108F0800080B108F0010004EBE0
:102B6000D471491001FB0561CDE90090039488B24E
:102B7000234630220699FFF7E1FE0FE008F001003E
:102B800004EBD471491001FB0561CDE90090039479
:102B900088B2234620220699FFF7D0FE14E00120D8
:102BA000049008F0010004EBD471491001FB0561A9
:102BB000CDE90090039488B20AF13001CAB22346ED
:102BC0000699FFF7BBFE00BF681CC5B2BD42ACDB77
:102BD00009B0BDE8F08F00002A21064A11800112D9
:102BE0004FF0D842A2F88010C1B2024A921C118064
:102BF000704700007E00006C2B21064A11800112F4
:102C00004FF0D842A2F88010C1B2024A921C118043
:102C1000704700007E00006C00B585B01421684646
:102C2000FDF778FB4FF4C060009001200190002078
:102C300002900320039069460548FEF79BF90120A6
:102C4000044908600449C1F8A80205B000BD0000AD
:102C500000140240A48242420080424200B58FB07C
:102C60001C2108A8FDF756FB1C2101A8FDF752FB0B
:102C70004FF02040214908602148486006208860C4
:102C800000211E48C1600161102141610021816164
:102C9000C161016241624FF4805181620021C162D1
:102CA0004FF48041016300214163816341640F203F
:102CB000089009903C200A900F200B9010200C9057
:102CC00011200D9000200E90082001900F200290FE
:102CD0003C2003900F2004901020059011200690B6
:102CE00000200790FEF7EEF801AA08A90348FEF7B6
:102CF000D4FF08B100BFFEE70FB000BD08050020FB
:102D0000040100A010B51048104908604FF4E130EC
:102D1000486000210D488160C16001610C21416162
:102D200000218161C161FFF711FA002202212520F3
:102D3000FEF7A4FA2520FEF791FA01220449034880
:102D4000FFF784FA10BD000000100140CC02002003
:102D50000200002000BFFEE700BFFEE708B500BF8D
:102D6000002000903B48006840F0010039490860AD
:102D70000846006800F00100009000BF00BF00BFDF
:102D8000002000900846006840F0020008600846F5
:102D9000006800F00200009000BF00BF00BF0020EC
:102DA00000900846006840F004000860084600688B
:102DB00000F00400009000BF00BF00BF00200090A2
:102DC0000846006840F0080008600846006800F007
:102DD0000800009000BF00BF00BF00200090084620
:102DE000006840F0100008600846006800F010001D
:102DF000009000BF00BF00BF0020009008460068A0
:102E000040F0200008600846006800F020000090B4
:102E100000BF00BF00BF002000900846006840F0DF
:102E2000400008600846006800F04000009000BFC5
:102E300000BF00BF002000900846006840F08000FE
:102E400008600846006800F08000009000BF00BFE6
:102E500008BD00003038024000B587B000BF002038
:102E600000902D48006840F480502B4908600846C7
:102E7000006800F48050009000BF00BF142102A839
:102E8000FDF748FA38200290022003904FF44030BA
:102E90000590012004900520069002A91F48FEF726
:102EA00069F81D482038006840F480501A492039DC
:102EB00008600846006820F48050086018481949E6
:102EC00008600021174881604FF4827015494860FE
:102ED00000211448C16002210161012141614902C0
:102EE00081610821C161002101620721C162FEF7F1
:102EF000A5FD0C480068006840F0400009490968D9
:102F00000860142001903223012201A90548FEF730
:102F1000E5FD07B000BD0000443802400004024057
:102F200000300140EC300020014600BF09488068B5
:102F3000C0F340000028F9D00648C16000BF054832
:102F4000806800F001000028F9D00248C068C0B2D3
:102F500070470000003001407CB504460E4615461F
:102F60003346012202212046009500F039F828B1AD
:102F7000606D40F02000606503207CBD164800684D
:102F80001821B0FBF1F01549B0FBF1F04FF47A7164
:102F9000484301906068B0F5827F0DD1334600222E
:102FA00080212046009500F01BF898B1606D40F03C
:102FB000200060650320E0E700BF019800B908E049
:102FC0000198401E019020688068C0F3C01000285E
:102FD000F3D100BF0020D0E7A000002040420F0046
:102FE0002DE9F84F04460D4690461E46DDF8289020
:102FF000FEF7BAF8A0EB0900371AFEF7B5F88246DB
:103000002C480068C0F3CB307843009045E0701C3A
:10301000002842D0FEF7A8F8A0EB0A00B84200D280
:10302000A7BB2068406820F0E00021684860606825
:10303000B0F5827F0DD1A068B0F5004F03D0A06835
:10304000B0F5806F05D12068006820F0400021684D
:103050000860A06AB0F5005F0DD100BF206800686D
:1030600020F40050216808602068006840F4005097
:103070002168086000BF012084F8510000BF0020D3
:1030800084F8500000BF0320BDE8F88FFFE70098E8
:1030900000B900270098401E0090206880682840F2
:1030A000A84201D1012000E000204045AFD100201E
:1030B000EAE70000A000002010B5FEF75BF805F07D
:1030C000AFF8012801D004F0ABFD10BD00B593B0FE
:1030D000302107A8FDF71EF9142102A8FDF71AF9FF
:1030E00000BF002001902448006840F08050224931
:1030F00008600846006800F08050019000BF00BFE3
:1031000000BF002001901D48006840F480401B492A
:1031100008600846006800F48040019000BF00BFCE
:10312000012007900004089002200D9041050E91A7
:1031300004210F91A82110910221119104211291D3
:1031400007A8FEF72DFA08B1FDF7E0FA0F2002906C
:1031500002200390002004904FF4A05005904FF4FB
:1031600080500690052102A8FEF7DAF808B1FDF7B5
:10317000CDFA13B000BD000040380240007000409E
:103180000348006840F4700001490860704700007F
:1031900088ED00E010B50E480068C06800F001003E
:1031A00078B10C49086980470020094909684862DC
:1031B00000BF642006490968C86264210448C160F0
:1031C00000BF6FF0010002490968086110BD0000EE
:1031D000A43000208801002010B502682D4B9842D1
:1031E0000ED0B0F1804F0BD02B4B984208D02B4B18
:1031F000984205D02A4B984202D02A4B984203D1DC
:1032000022F070024B681A43224B984220D0B0F152
:10321000804F1DD0204B98421AD0204B984217D097
:103220001F4B984214D01F4B984211D01E4B98420E
:103230000ED01E4B98420BD01D4B984208D01D4B10
:10324000984205D01C4B984202D01C4B984203D1A7
:1032500022F44072CB681A4322F080034C6943EA9F
:10326000040202608B68C3620B688362094B984258
:1032700002D00C4B984201D10B69036301234361D7
:10328000036903F001031BB1036923F00103036128
:1032900010BD000000000140000400400008004094
:1032A000000C004000040140004001400044014087
:1032B0000048014000180040001C00400020004071
:1032C0002DE9FF5F04460D4617461E46DDE910ABAB
:1032D000DDE90E894FF47840834908800020098891
:1032E00082A21023CDE90032CDE902108048438844
:1032F0000288A0212820FFF7D7FB00207A490988FF
:103300007CA21023CDE90032CDE902107848438831
:103310000288A0217820FFF7C7FB002072490988A6
:1033200075A21023CDE90032CDE902107048438820
:103330000288B4212820FFF7B7FB00206A490988DA
:103340006EA21023CDE90032CDE90210684843880F
:103350000288B4217820FFF7A7FB00206249098882
:1033600067A21023CDE90032CDE9021060484388FE
:103370000288C8212820FFF797FB00205A490988B6
:1033800060A21023CDE90032CDE9021058484388ED
:103390000288C8217820FFF787FB0020524909885E
:1033A00059A21023CDE90032CDE9021050484388DC
:1033B0000288DC212820FFF777FB00204A49098892
:1033C00052A21023CDE90032CDE9021048484388CB
:1033D0000288DC217820FFF767FB0020424909883A
:1033E0004BA21023CDE90032CDE9021040484388BA
:1033F0000288F0212820FFF757FB3B480078002186
:1034000010220423CDE9002102902246A021402071
:10341000FFF77EFB34480078002110220423CDE919
:10342000002102902A46A0219020FFF771FB2E4830
:103430000078002110220423CDE9002102903A46B1
:10344000B4214020FFF764FB2748007800211022B8
:103450000423CDE9002102903246B4219020FFF7E9
:1034600057FB21480078002110220423CDE90021D8
:1034700002904246C8214020FFF74AFB1A480078D4
:10348000002110220423CDE9002102904A46C821E0
:103490009020FFF73DFB1448007800211022042300
:1034A000CDE9002102905246DC214020FFF730FB9D
:1034B0000D480078002110220423CDE9002102905C
:1034C0005A46DC219020FFF723FB074800780021B3
:1034D00010220323CDE900210290F0216020129AEE
:1034E000FFF716FBBDE8FF9F8A00002078313A0005
:1034F0008000002079313A0078323A0079323A007F
:1035000078333A0079333A0078343A0079343A0023
:103510006661632069733A0000B597B0002012908D
:103520000B901290FEF75CFF0020FE4909884FF6D1
:103530001F021023CDE90132CDE90310FAA0F022D9
:10354000C82100900820FDF79DFB0020F54909885F
:103550004FF61F021023CDE90132CDE90310F8A088
:10356000F022DC2100900820FDF78CFB4FF61F02B3
:103570001421084600F08EFC0021F74880F8201046
:103580009FEDF60A80ED090A5FE2F34840680A9071
:1035900001200A998847F04890F8200000F0C00008
:1035A000402870D100200B90EB4890F8200020F0CC
:1035B0004000E94981F820000846818913AA129841
:1035C00022F82010E448C18A129802EB8000418062
:1035D0001298401CC0B212901298012806D00228FE
:1035E00015D003282AD0042810D142E0CD48028803
:1035F0001421084600F04EFCD9480088143880B2E7
:103600004FF61F0214210A9000F044FCFDE3D44859
:103610000088143880B20A90C248028814210A989F
:1036200000F038FCCE484088143880B24FF61F02B4
:1036300001460A90142000F02DFCFAE3C8484088A7
:10364000143880B20A90B748028814200A9900F012
:1036500021FCC3484088143880B20A90C0480088D2
:10366000143880B24FF61F0209900A9900F012FC3C
:10367000DFE3BDF84C00BDF85010401A0A90002856
:1036800002DB0A9802E0D5E30A9840420F90BDF8A9
:103690004E1013A8C088081A0A90002801DB0A9867
:1036A00001E00A9840420E900F9840430F900E9808
:1036B00040430E90DDE90E1008440590FCF7AEFE85
:1036C000CDE906019DED060B01F074FA8DED080BB6
:1036D0009DED080B51EC100BFCF7ADFE80B2119084
:1036E000BDF85400BDF85810401A0A90002801DBBC
:1036F0000A9801E00A9840420F9013A84189C089B6
:10370000081A0A90002801DB0A9801E00A98404252
:103710000E900F9840430F900E9840430E90DDE9B5
:103720000E1008440590FCF779FECDE906019DEDE9
:10373000060B01F03FFA8DED080B9DED080B51ECE7
:10374000100BFCF778FE80B210909DED110AF8EE98
:10375000400A9DED100AB8EE401A80EE810A8DED08
:103760000A0A0A98FCF780FECDE90C019FED7D0B5B
:1037700053EC102B9DED0C0B51EC100BFCF788FE5D
:103780000ED39FED7A0B53EC102B9DED0C0B51ECEF
:10379000100BFCF795FE03D3119808B11098E0BB0D
:1037A000002012906E484088143880B20A906C480D
:1037B0000088143880B209905A480288DDE909016E
:1037C00000F068FB4FF61F021421084600F062FB70
:1037D0009FED680B53EC102B9DED0C0B51EC100B77
:1037E000FCF7AAFDCDE908019DED080B51EC100B8B
:1037F000FCF721FE80B213A90A90C989BDF85820B0
:1038000013AB5B89CDE90132CDE90310BDF854005B
:10381000009013A8C088099000E00DE0BDF85000AA
:103820000890BDF84E000790BDF84C00069007A91F
:103830000EC9FFF745FD0CE3BDF84C00BDF8541070
:10384000401A0A90002801DB0A9801E00A984042D9
:103850000F90BDF84E1013A84089081A0A9000284E
:1038600001DB0A9801E00A9840420E900F9840430D
:103870000F900E9840430E90DDE90E10084405901D
:10388000FCF7CCFDCDE906019DED060B01F092F9A8
:103890008DED080B9DED080B51EC100BFCF7CBFDEB
:1038A00080B21190BDF85010BDF85800081A0A9067
:1038B000002801DB0A9801E00A9840420F9013A803
:1038C000C188C089081A0A90002801DB0A9801E023
:1038D0000A9840420E900F9840430F900E98404334
:1038E0000E90DDE90E1008440590FCF797FDCDE938
:1038F00006019DED060B01F05DF98DED080B9DEDC8
:10390000080B51EC100BFCF796FD80B210909DED6A
:10391000110AF8EE400A9DED100AB8EE401A80EE4A
:10392000810A2BE086000020D0A3D7BCA3BAD2C066
:10393000B4CEB5E3CBC4BDC7B5C4B5E30000000049
:10394000202020202020BDF8D0D0B4A5C3FEC6C1C1
:10395000D0A3D7BC000000008002002000000000BF
:1039600080000020666666666666EE3FCDCCCCCCF5
:10397000CCCCF03F00000000000059408DED0A0A59
:103980000A98FCF771FDCDE90C011FED0A0B53EC11
:10399000102B9DED0C0B51EC100BFCF779FD0AD3AD
:1039A0001FED0E0B53EC102B9DED0C0B51EC100B7F
:1039B000FCF786FD4AD200201290FA48408814385D
:1039C00080B20A90F7480088143880B20990F6480F
:1039D0000288DDE9090100F05DFA4FF61F021421AB
:1039E000084600F057FA1FED1D0B53EC102B9DED10
:1039F0000C0B51EC100BFCF79FFCCDE908019DED81
:103A0000080B51EC100BFCF716FD80B201460A9032
:103A100013A8C089BDF8582013AB5B89CDE90132EA
:103A2000CDE90301BDF85400009013A8C0880990A7
:103A3000BDF850000890BDF84E000790BDF84C004E
:103A4000069007A90EC9FFF73BFC02E2BDF8500043
:103A5000BDF85410401A0A90002801DB0A9801E0D2
:103A60000A9840420F9013A8C1884089081A0A900A
:103A7000002801DB0A9801E00A9840420E900F9856
:103A800040430F900E9840430E90DDE90E1008441D
:103A90000590FCF7C3FCCDE906019DED060B01F096
:103AA00089F88DED080B9DED080B51EC100BFCF720
:103AB000C2FC80B21190BDF84C00BDF85810401AFD
:103AC0000A90002801DB0A9801E00A9840420F9012
:103AD000BDF84E1013A8C089081A0A90002801DB0F
:103AE0000A9801E00A9840420E900F9840430F90C8
:103AF0000E9840430E90DDE90E1008440590FCF747
:103B00008DFCCDE906019DED060B01F053F88DED1E
:103B1000080B9DED080B51EC100BFCF78CFC80B2F0
:103B200010909DED110AF8EE400A9DED100AB8EED6
:103B3000401A80EE810A8DED0A0A0A98FCF794FC7F
:103B4000CDE90C011FED790B53EC102B9DED0C0B07
:103B500051EC100BFCF79CFC0AD31FED7C0B53ECD3
:103B6000102B9DED0C0B51EC100BFCF7A9FC49D26E
:103B7000002012908B484088143880B20A908948FF
:103B80000088143880B2099087480288DDE909016D
:103B900000F080F94FF61F021421084600F07AF970
:103BA0001FED8C0B53EC102B9DED0C0B51EC100BFF
:103BB000FCF7C2FBCDE908019DED080B51EC100BA1
:103BC000FCF739FC80B213A90A90CA89BDF85810D5
:103BD00013AB5B89CDE90131CDE90320BDF8540079
:103BE000009013A8C0880990BDF850000890BDF857
:103BF0004E000790BDF84C00069007A90EC9FFF7CC
:103C00005FFB26E1BDF85000BDF84C10401A00EEF5
:103C1000100AF8EEC00A63480088283800EE100A3F
:103C2000B8EEC00A80EE201A604880ED091ABDF88F
:103C30005000BDF84C10084400EE100AF8EEC00A1F
:103C40005848008800EE100AB8EE400A574890ED38
:103C5000091A01EE600AF0EE000A80EE201A80EDEB
:103C60000B1A13A84089BDF84E10401A00EE100A36
:103C7000F8EEC00A4B484088283800EE100AB8EE2B
:103C8000C00A80EE201A494880ED0A1A13A840891C
:103C9000BDF84E10084400EE100AF8EEC00A414884
:103CA000408800EE100AB8EE400A404890ED0A1A2B
:103CB00001EE600AF0EE000A80EE201A80ED0C1A88
:103CC00090ED090ABDEEC00A8DED090A0998002899
:103CD00001DB099801E00998404202280FDC3348D3
:103CE00090ED0A0ABDEEC00A8DED0A0A0A98002876
:103CF00001DB0A9801E00A984042022847DD0020D3
:103D0000129028484088143880B20A9025480088CC
:103D1000143880B2099024480288DDE9090100F0D6
:103D2000B9F84FF61F021421084600F0B3F800213D
:103D30004FF61F001EA21023CDE90032CDE902018B
:103D4000184840880A9017480088099002461A21AE
:103D500028200A9BFEF7A8FE144890F8340008B902
:103D6000012100E00021114880F8341090F834005F
:103D700030B1902113480170D0201349087005E03C
:103D8000D0201049087090200F49087061E01F2072
:103D90000E49088004480088FEF722FB00204FF6F9
:103DA0001F0115E080000020860000208002002016
:103DB0005450204E65656420726561646A75737441
:103DC00021000000B8020020B90200208A00002073
:103DD00022A21023CDE90032CDE902102548408807
:103DE0000A9024480088099002466E2120200A9BF0
:103DF000FEF75AFE0020204909884FF61F021023C3
:103E0000CDE90132CDE9031000E012E01BA0F02261
:103E1000822100902020FCF735FF4FF47A7001F0EA
:103E200069F900F01DFA14480088FEF7D9FA17B0B6
:103E300000BD00BF0A2001F05DF90B98401C80B264
:103E40000B900B98B0F57A7F02DD00F05FF802E08E
:103E500000BFFFF79ABB00BF00BFE8E7546F756370
:103E6000682053637265656E2041646A75737420BF
:103E70004F4B21008000002086000020B4A5C3FE27
:103E8000C6C1D0A3D7BCCDEAB3C9A3AC4F4BA3A145
:103E9000A3A10000F8B504460D4616461A48068050
:103EA00004F10D018AB2193988B22B4629460096D1
:103EB000FEF730FB05F10D0083B2193881B22246BE
:103EC00020460096FEF726FB6A1C91B2621C90B257
:103ED000FEF776FB6A1C91B2621E90B2FEF770FB91
:103EE0006A1E91B2621C90B2FEF76AFB6A1E91B222
:103EF000621E90B2FEF764FB334606222946204636
:103F0000FEF780FBF8BD00008A00002030B587B0C6
:103F10001822002101A800F0FBFC9DF815509DF827
:103F200016400A2C01D1012000E00020022D01D111
:103F3000012100E000210840002853D02A480199BF
:103F40000160046800EE104AB8EEC00ADFED270AEF
:103F500080EE201A264880ED091A23480299016054
:103F6000046800EE104AB8EEC00ADFED200A80EEC9
:103F7000201A1F4880ED0A1A1B4803990160046843
:103F800000EE104AB8EEC00A194880ED0B0A164838
:103F900004990160046800EE104AB8EEC00A1448A3
:103FA00080ED0C0A0DB1012D04D10020104981F8DB
:103FB000340003E001200E4981F834000C4890F8E9
:103FC000340030B190200B490870D0200A490870A5
:103FD00005E0D020074908709020074908700120AB
:103FE00007B030BD0020FBE7BC02002020BCBE4C67
:103FF00080020020B8020020B902002010B50E494E
:10400000A1F10A0000F0C0F80B49A1F10A0000F08C
:10401000BBF8FFF77BFF08B1002010BD0748008800
:10402000FEF7DEF9FFF778FA04480088FEF7D8F9C2
:10403000FFF76CFF0120F0E79602002086000020C9
:104040002DE9F04105460026002400202B49086098
:104050002B49C1F8AC022B490860002717E005F096
:10406000800018B101202849086002E0002026499C
:1040700008606806050E002020490860052000F051
:10408000ADF901202149C1F88002781CC7B2082F80
:10409000E5DB052000F0A2F90020184908600520A2
:1040A00000F09CF901201949C1F88002052000F0B8
:1040B00095F9002011490860002615E04FF6FF70C1
:1040C00000EA440400200D490860052000F086F94C
:1040D00001200E49C1F8800208487838006808B10C
:1040E000601C84B2701CC6B2102EE7DB24110120C4
:1040F000044908602046BDE8F0810000808240420B
:1041000000804242B4024142AC82424200804042BE
:104110002DE9FE4380460027002406E04046FFF7D5
:104120008FFF2DF81400601C84B2052CF6DB0024F0
:1041300016E0601C85B20FE03DF814003DF8151044
:10414000884207DD3DF814603DF815002DF8140095
:104150002DF81560681C85B2052DEDDB601C84B25E
:10416000042CE6DB0027012405E03DF81400384468
:1041700087B2601C84B2042CF7DB032097FBF0F0BD
:1041800086B23046BDE8FE8370B504460D4606484B
:104190000078FFF7BDFF208004480078FFF7B8FFE4
:1041A0002880012070BD0000B8020020B902002064
:1041B0007FB504460D4602A903A8FFF7E5FF69464F
:1041C00001A8FFF7E1FFBDF80400BDF80C1088421C
:1041D00006DCBDF80C10BDF80400323081420CDB67
:1041E000BDF80C00BDF80410884237DCBDF804109F
:1041F000BDF80C003230814230DABDF80000BDF865
:104200000810884206DCBDF80810BDF80000323006
:1042100081420CDBBDF80800BDF8001088421DDCAF
:10422000BDF80010BDF808003230814216DABDF842
:104230000C10BDF80420881800EBD071C1F34F01B9
:104240002180BDF80810BDF80020881800EBD0715F
:10425000C1F34F012980012004B070BD0020FBE7AD
:1042600000B587B0214890ED090ADFED210A20EE64
:10427000200ABDEEC00A1F4880ED000A00680190C8
:104280001A4890ED0A0ADFED1A0A20EE200ABDEE68
:10429000C00A184880ED000A00680290134890EDAB
:1042A0000B0ABDEEC00A134880ED000A00680390B7
:1042B0000E4890ED0C0ABDEEC00A0E4880ED000AD3
:1042C000006804900220094981F83400084690F8FB
:1042D00034008DF815000A208DF8160018220021F0
:1042E00001A800F081FB07B000BD000080020020A3
:1042F00020BCBE4CBC02002010B504463548006806
:10430000002843D12CB13449A1F10A00FFF750FF36
:104310002AE03149A1F10A00FFF74AFF20B32E48F5
:10432000163890ED0B0A90ED091A808900EE900A7C
:10433000F8EE600A01EE200ABCEEC00A10EE100A88
:10434000254916398881084690ED0C0A90ED0A1A25
:10435000C08A00EE900AF8EE600A01EE200ABCEE78
:10436000C00A10EE100AC8821B48163890F82000C8
:1043700000F0800038BBC0201749163981F82000B2
:10438000084681898182C18AC1831CE0124816389F
:1043900090F8200000F0800050B10F48163890F8D7
:1043A000200020F080000C49163981F820000AE036
:1043B0000021094816388182C1834FF6FF700649F3
:1043C00016398881C8820448163890F8200000F019
:1043D000800010BD048240429602002001B502E038
:1043E0000098401E009000980028F9D108BD70B5D3
:1043F0000546AC6B0020E085E0842046FDF731FDEA
:1044000070BD00BF00BF02680C3252E8002F22F4DA
:10441000907102680C3242E80013002BF3D100BF08
:1044200000BF00BF0268143252E8002F22F00101E1
:104430000268143242E80013002BF3D100BF016B75
:1044400001290ED100BF00BF02680C3252E8002FD4
:1044500022F0100102680C3242E80013002BF3D165
:1044600000BF202180F8421000210163704710B581
:1044700004462068C06820F040002168C860202001
:1044800084F841002046FDF745FF002010BDF8B537
:10449000044694F84200222875D1A068B0F5805FE8
:1044A0000CD1206950B90025A66A20684068C0F385
:1044B00008003080A06A801CA06215E0A56A002672
:1044C000A068B0F5805F03D0A06828B9206918B94A
:1044D00020684068287004E02068406800F07F0091
:1044E0002870A06A401CA062E08D401E80B2E0856A
:1044F000002846D12068C06820F020002168C860EC
:104500002068C06820F480702168C8602068406915
:1045100020F0010021684861202084F8420000203A
:104520006063206B012826D10020206300BF00BFFC
:1045300021680C3151E8001F21F0100021680C3176
:1045400041E80002002AF3D100BF2068006800F0B3
:10455000100010280AD100BF0020009020680068D9
:10456000009020684068009000BF00BFA18D2046E9
:10457000FDF776FC02E02046FDF77EFE0020F8BD48
:1045800001E00020FBE70220F9E700002DE9F84FE9
:1045900004462068006920F44050E168084321681F
:1045A00008612169A068084361690843E16908431B
:1045B00000902068C06849F20C6188430099084364
:1045C0002168C8602068406920F44070A1690843F0
:1045D0002168486176492068884203D0754920687F
:1045E000884203D1FCF774FF814602E0FCF760FFCC
:1045F0008146E069B0F5004F6CD102206168A0FBF4
:10460000015003461920A9FB007001462A4638468E
:10461000FBF736FE6421B0FBF1F04FEA001A0220EE
:104620006168A0FB01510B461920A9FB00712A46C5
:104630003846FBF725FE834602206168A0FB015047
:1046400003461920A9FB00712A463846FBF718FEDD
:104650006421B0FBF1F000EBC00101EB0010ABEB0B
:104660008000322101EBC0006421B0FBF1F000F0CA
:10467000F8000AEB400A02206168A0FB01500346E3
:104680001920A9FB007001462A463846FBF7F8FDC1
:10469000834602206168A0FB015003461920A9FB54
:1046A00000712A463846FBF7EBFD6421B0FBF1F0C0
:1046B00000EBC00101EB0010ABEB8000322101EBFD
:1046C000C0006421B0FBF1F000F007005044216805
:1046D00088606AE004206168A0FB0150034619204D
:1046E000A9FB007001462A463846FBF7C9FD824601
:1046F00004206168A0FB015003461920A9FB00704B
:1047000001462A463846FBF7BBFD6421B0FBF1F0B9
:1047100000EBC00101EB0010AAEB8000322101EB9D
:1047200000106421B0FBF1F000F0F00A0420616891
:10473000A0FB017003461920A9FB00513A46284608
:10474000FBF79EFD6421B0FBF1F00AEB001A042098
:104750006168A0FB01510B461920A9FB00712A4694
:104760003846FBF78DFD834604206168A0FB0150AD
:1047700003461920A9FB007001462A463846FBF77C
:104780007FFD6421B0FBF1F000EBC00101EB0010F4
:10479000ABEB8000322101EB00106421B0FBF1F0A3
:1047A00000F00F00504421688860BDE8F88F0000D9
:1047B000001001400014014010B5034699629A852B
:1047C000DA8500205864222083F84200186928B155
:1047D0001868C06840F480701C68E0601868406920
:1047E00040F001001C6860611868C06840F020005B
:1047F0001C68E060002010BD014691F841002128AE
:1048000028D18868B0F5805F0BD1086948B90A6A79
:104810001088C0F308000B685860086A801C0862A2
:1048200005E00B6A581C086218780B685860C88C41
:10483000401E80B2C88458B90868C06820F0800063
:104840000B68D8600868C06840F040000B68D8600A
:10485000002070470220FCE710B50248FDF702FB7C
:1048600010BD0000CC02002000BFFEE710B50446DA
:10487000214610A000F072F9240300F011F900F0B5
:10488000A9F800200D4908602020FEF74DFBC4F375
:104890000740FEF749FBC4F30720FEF745FBE0B2F3
:1048A000FEF742FB01200649C1F8B80200F092F879
:1048B00010BD000066653A25780D0A00B8824042B6
:1048C0000080404200B585B014216846FBF722FD08
:1048D0004FF480400090012001904FF4403003904D
:1048E0000120029069460748FCF744FB0120064975
:1048F0000860FEF7B1FA00F033F80449088005B00B
:1049000000BD000000040240B8824042C002002006
:104910002DE9F04106460C46174600200F49086075
:104920000320FEF701FBC4F30740FEF7FDFAC4F3D2
:104930000720FEF7F9FAE0B2FEF7F6FA002505E0E7
:10494000FF20FEF7F1FA7055681C85B2BD42F7DB17
:10495000012002490860BDE8F0810000B8824042B1
:1049600010B5002400200E4908609020FEF7DCFA04
:104970000020FEF7D9FA0020FEF7D6FA0020FEF755
:10498000D3FAFF20FEF7D0FA44EA0024FF20FEF716
:10499000CBFA044301200349C1F8B802204610BDF8
:1049A000B88240420080404210B5002400200749F0
:1049B00008600520FEF7B8FAFF20FEF7B5FA0446B6
:1049C00001200349C1F8B802204610BDB882404218
:1049D0000080404210B500BFFFF7E6FF00F0010085
:1049E0000028F9D110BD00002DE9F05F81460F4687
:1049F0001646DFF8A8B04FEA1738C7F30B0ACAF516
:104A00008054A64200DC344644E04FEA08314FF4BB
:104A100080525846FFF77CFF002508E00AEB0500AE
:104A20001BF80000FF2800D003E0681C85B2A542F7
:104A3000F4DB00BFA54216DA4046FFF717FF00255A
:104A400007E019F8050005EB0A010BF80100681CE6
:104A500085B2A542F5DB4FEA08314FF48052584643
:104A600000F02EF804E022463946484600F028F8C7
:104A7000A64200D10FE008F101084FF0000AA1445E
:104A80002744301B86B2B6F5805F02DD4FF48054B8
:104A900000E03446B9E700BFBDE8F09F4431002094
:104AA00010B50020044908600620FEF73DFA0120F9
:104AB0000249C1F8B80210BDB882404200804042AD
:104AC0002DE9F04107460E461446F0B2C0F5807558
:104AD000AC4200DC254612E02A463146384600F05A
:104AE00013F8AC4200D10BE02F442E44601B84B27B
:104AF000B4F5807F02DD4FF4807500E02546EBE7DA
:104B000000BFBDE8F08100002DE9F04106460C46EB
:104B10001746FFF7C5FF00200F4908600220FEF787
:104B200003FAC4F30740FEF7FFF9C4F30720FEF7CA
:104B3000FBF9E0B2FEF7F8F9002504E0705DFEF73E
:104B4000F3F9681C85B2BD42F8DB01200249086018
:104B5000FFF740FFBDE8F081B88240420FB4054B3B
:104B600010B503A9044A029800F076F810BC5DF86D
:104B700014FB000055510008C402002002480068E0
:104B8000C0F30220704700000CED00E010B50028D3
:104B900004DB0A07130E054A135406E00A07140E35
:104BA000034A00F00F031B1FD45410BD00E400E0C3
:104BB00018ED00E000B52DED048BB0EE409AF0EE5C
:104BC000609A83B051EC190BFBF70EFD41EC180B0A
:104BD00018EE100A18EE901A8DED008B002818BF01
:104BE0000120084320F00040C0F17F6000F1E04068
:104BF000C00F14D019EE101A19EE900A8DED009B1B
:104C0000002918BF0121084320F00040C0F17F6057
:104C100000F1E040C00F04BF012000F017F8B0EE33
:104C2000480A03B0F0EE680ABDEC048B00BD02E058
:104C300008C8121F08C1002AFAD170477047002027
:104C400001E001C1121F002AFBD170470149086031
:104C500070470000C80200202DE9FF4F8DB00F46BD
:104C60000546002606E025280BD0DDE90F12904707
:104C70006D1C761C28780028F5D111B03046BDE8AF
:104C8000F08F0024A246A1460122EC4900E0044333
:104C900015F8013F203B02FA03F00842F7D12878CB
:104CA0002A2810D06FF02F022878A0F130010929AE
:104CB00014D80AEB8A0102EB410144F0020400EB34
:104CC000010A6D1CF0E701CF5FEA000A03D544F446
:104CD0000054CAF1000A44F002046D1C28782E2802
:104CE00017D115F8010F44F004042A280ED06FF0F4
:104CF0002F022878A0F1300109290AD809EB89018F
:104D000002EB410100EB01096D1CF2E757F8049B2F
:104D10006D1C28786C280FD006DC4C2817D068282A
:104D20000DD06A2814D104E0742810D07A280FD14D
:104D30000DE044F400140AE044F4801401E044F46B
:104D400040146978814202D104F580146D1C6D1CF9
:104D50002A786E2A1FD00CDC632A31D004DC002AAA
:104D60008BD0582A11D1A3E0642A68D0692A0CD1CB
:104D700065E0732A2ED004DC6F2A73D0702A04D128
:104D80009BE0752A6FD0782A6ED01046DDE90F12AD
:104D90009047761C50E1C4F30250022806D0032845
:104DA00009D0042801CF09D0066045E101CFF117F1
:104DB000C0E9006140E101CF06803DE106703BE1C2
:104DC00017F8040B8DF8000000208DF80100EB4669
:104DD000012003E057F804BB4FF0FF3061074FF0AC
:104DE000000102D40DE008F10101884649450FDABF
:104DF0008045F8DB1BF808100029F4D108E008F121
:104E0000010188468142FADB1BF808100029F6D11F
:104E1000DDE90F23AAEB08008146214600F036F9B0
:104E2000304400EB080604E0DDE90F121BF8010B2B
:104E30009047B8F10108F7D221464846F7E00A2129
:104E4000C4F302534FF0000B0891022B04D001CFA2
:104E5000C117032B09D00AE0FF1D27F00707F7E869
:104E6000020108E032E01FE020E000B2C117042B8D
:104E700001D140B2C117031E71F1000307DA4FF0F0
:104E8000000CD0EB0C006CEB01012D2302E023059C
:104E900004D52B238DF82430012303E0E30701D050
:104EA0002023F7E7984658E00A2110E010210EE091
:104EB00010204FF0000B08900CE010214FF0000B79
:104EC00044F004044FF00809089103E008214FF072
:104ED000000B0891C4F30253022B04D001CF002130
:104EE000032B06D006E0FF1D27F00707F7E80201B5
:104EF00003E080B2042B00D1C0B24FF000082307BA
:104F00002BD5702A07D0DDF820C08CF0100C5CEA9D
:104F10000B0C05D00EE040238DF82430012308E06F
:104F200050EA010306D030238DF824308DF8252077
:104F300002239846DDF820C08CF0080C5CEA0B0CCC
:104F40000BD150EA010301D1630706D530238DF858
:104F500024304FF00108A9F10109582A04D038A2E1
:104F60000B9208AA0A920BE03AA2F9E75B46089A6C
:104F7000FBF786F90B9B9B5C0A9A521E0A921370F0
:104F800050EA0102F2D10A98ADEB000000F1200BCB
:104F9000600702D524F4803401E04FF00109D945BF
:104FA00002DDA9EB0B0000E0002000EB0B01414407
:104FB0000890AAEB010AE00306D4DDE90F2321469D
:104FC000504600F063F806444FF0000908E009A9D4
:104FD00011F80900DDE90F12904709F10109761C6B
:104FE000C145F4DBE0030CD5DDE90F232146504633
:104FF00000F04CF8064404E0DDE90F123020904741
:10500000761C0899481E08900029F5DC08E00A98EB
:105010000A990078491C0A91DDE90F129047761C25
:10502000BBF10001ABF1010BF1DC21465046DDE99B
:105030000F2300F019F806446D1C1BE60928010037
:1050400030313233343536373839616263646566FE
:1050500000000000303132333435363738394142C0
:1050600043444546000000002DE9F0410446002578
:105070001E461746880404D405E039462020B04770
:105080006D1C641EF9D52846BDE8F0812DE9F0417C
:10509000044600251E469046C80301D5302700E08F
:1050A0002027880404D505E041463846B0476D1CEA
:1050B000641EF9D52846BDE8F081000070B50446AD
:1050C0000420FCF716FE0A48046025464FF47A7067
:1050D00045434FF0E020006940F002004FF0E0212E
:1050E000086108464561006940F00100086170BD33
:1050F0009000002030B50446002504E04FF47A709B
:1051000000F004F86D1CA542F8D330BD70B503461D
:1051100000224FF0E02675690D4E366803FB06F459
:105120004FF0E026B16910E04FF0E026B069884208
:105130000BD0884202D20E1A324402E02E1A0E44DC
:1051400032440146A24200D300E0EDE700BF70BD4B
:1051500090000020044A506000BF034A1268C2F366
:10516000C012002AF9D07047001001401CB500227F
:105170000121022002F06EFD144908600846006813
:1051800018B113A0FFF7EAFC02E018A0FFF7E6FC55
:1051900000220421012002F05DFD1B490860084641
:1051A000006818B119A0FFF7D9FC02E01FA0FFF7B3
:1051B000D5FC2648012100238022CDE9001024A13E
:1051C000264802F0FDFF02F0B5FB1CBD7800002070
:1051D0006B65795F7175657565B6D3C1D0B4B4BDC3
:1051E000A8B3C9B9A621210D0A0000006B65795F3B
:1051F0007175657565B6D3C1D0B4B4BDA8CAA7B082
:10520000DC21210D0A0000007C0000206269675F3C
:10521000646174615F7175657565B6D3C1D0B4B4EE
:10522000BDA8B3C9B9A621210D0A00006269675F54
:10523000646174615F7175657565B6D3C1D0B4B4CE
:10524000BDA8CAA7B0DC21210D0A0000680000201B
:1052500073746172745F7461736B0000915F000816
:1052600010B5FBF793FFFDF731FFFDF777FDFDF775
:10527000D3FCFDF753F8FDF745FDA820FFF71EFF0F
:10528000094841685420884702210020FDF730FA80
:10529000FBF7B6FBFFF716FB044908688047FFF7EA
:1052A00065FF002010BD0000880100208002002062
:1052B0002DE9F04105460E46294807680020294996
:1052C000096881F8510027480068001D02F052F873
:1052D00050B92448006890F82C10012088402249D9
:1052E0000968814320480160681CD8B9D6B11F49BC
:1052F00048681C49096888601A4982680968CA6058
:1053000018490968091D8268516016490968091D14
:105310008160164A134909684A6111460968491CA7
:1053200011601AE07C190F4800684460BC4207D243
:105330000C480168091D0E48006802F03FF80CE0B7
:1053400008480168091D0B48006802F037F80A4850
:105350000068844201D208480460BDE8F081000082
:10536000B8000020A4000020BC0000206808002035
:10537000AC000020A8000020D400002010B5044696
:1053800002F042F82F480068401C2E4908602E4861
:10539000006840B92C4804600846006801280DD117
:1053A00000F008FA0AE02948006838B92648006881
:1053B000C06AE16A884201D8234804602448006832
:1053C000401C2349086094F82C1001208840214992
:1053D000096808431F490860E16A01EB81011E4A20
:1053E00002EB81014868A0608268E260211D82684A
:1053F00051608160E16A01EB8101174A02EB810291
:105400006261E16A01EB8101134A52F82110491CE3
:10541000E26A02EB8202104B43F8221002F038F8E5
:105420000A48006868B108480068C06AE16A8842B2
:1054300007D24FF0805009490860BFF34F8FBFF388
:105440006F8F10BDB4000020A4000020C000002019
:10545000D0000020BC0000209805002004ED00E0F2
:1054600010B501F0D1FF10480068D0B90F4801F025
:1054700095FF0F4801F092FF0C480E4908600C4858
:105480000D49086000221021052002F0E3FB0649C7
:1054900008600846006820B108A10348006802F0CF
:1054A000A7F801F0F5FF10BDEC0000207C080020FB
:1054B00090080020E4000020E8000020546D7251A4
:1054C0000000000010B516E001F09EFF0C48C06817
:1054D000C468201D01F04EFF0A480068401E0949BB
:1054E000086009480068401E0749086001F0D0FFC5
:1054F000204600F05FF8044800680028E4D110BDA1
:1055000054080020B4000020B000002070B504460C
:105510000D46206C70B1216CE0680144E160D4E973
:105520000210884201D32168E1602846226CE168BC
:10553000FAF7D7FE70BD2DE9F04104460F46154637
:105540004FF00008A66B206C48B9206800282CD1C9
:10555000A06802F065FF80460020A06025E07DB9CC
:105560003946226C6068FAF7BCFE216C606808441A
:105570006060D4E90101884217D32068606014E0BC
:105580003946226CE068FAF7ACFE216CE068411AFB
:10559000E1602168E068884203D2216CA068411A6A
:1055A000E160022D01D106B1761E701CA063404659
:1055B000BDE8F08110B50446206B01F0A1FF204644
:1055C00001F09EFF10BD00000146084A12681268F3
:1055D0000AB9012200E000220A600A6822B9034ADF
:1055E0001268D268106800E000207047E4000020D4
:1055F00030B54FF42053174800F007042CB1C01DFC
:1056000020F00700134C041B1B1B0246124C2260A7
:105610000024114D6C60D018083820F007000F4CA2
:10562000206000240D4D2D686C600C4D2D682C60A1
:105630001146441A4C60094C24680C60084D4C68B3
:105640002C60084D4C682C604FF00044064D2C60D7
:1056500030BD0000A4080020F80000200001002058
:1056600008010020040100201401002000BFFFF702
:1056700029FF064800680128F9D94FF080500449F5
:105680000860BFF34F8FBFF36F8FF0E798050020DE
:1056900004ED00E02DE9F04106460D461746984618
:1056A000069C0DB9246000E02760E66325640121B3
:1056B000204602F00FFB0020A064BDE8F08100004E
:1056C0002DE9F05F82460F4690469B460A9E0C9C51
:1056D0004FEA8801A522206BFAF715FEA8F1010018
:1056E000216B01EB800929F0070909F0070008B9CF
:1056F000012000E0002028B940F25F3224A129A057
:10570000FFF72CFA87B1002507E0795D04F134003A
:105710004155785D00B902E06D1C102DF5D300BF36
:1057200000214320015502E0002084F83400202E9F
:1057300001D2012000E0002028B940F2963214A1E5
:1057400018A0FFF70BFA202E00D31F26E66266642E
:105750000020A064201D01F02EFE04F1180001F0CD
:105760002AFE2461C6F12000A06164620020E0648A
:1057700084F8500084F851005A465146484600F0DB
:10578000E1FB20600B9808B10B980460BDE8F09F26
:105790002E2E5C4672656552544F535C7461736B78
:1057A000732E63004572726F723A2025732C202588
:1057B000640D0A0010B5002407E004EB84010F4AD1
:1057C00002EB810001F0EAFD641C202CF5D30C48AB
:1057D00001F0E4FD0B4801F0E1FD0B4801F0DEFDB6
:1057E0000A4801F0DBFD0A4801F0D8FD04480949E8
:1057F000086004480849086010BD000098050020B2
:10580000180800202C080020400800205408002020
:1058100068080020A8000020AC00002010B5014658
:10582000164800E0006803688B42FBD302464368D9
:1058300013448B4204D143684C68234443600146BF
:105840000A464B6813440468A34211D10C4C036808
:105850002468A34208D04B680468646823444B6002
:1058600003681B680B6005E0054B1B680B6001E0DB
:1058700003680B60884200D0016010BDF800002072
:10588000000100202DE9F04104460D4616461F4652
:105890004FF0000865602461B5420CD8F01BA16987
:1058A000884202D34FF0010811E0211D0948006829
:1058B00001F084FD0BE0BE4204D2BD4202D34FF0A2
:1058C000010804E0211D0448006801F077FD40460E
:1058D000BDE8F081E8000020E400002070B5054636
:1058E00001F092FDA86B08B9012400E0002401F04A
:1058F000CFFD204670BD70B5054601F085FDA86B53
:10590000E96B884201D1012400E0002401F0C0FDD0
:10591000204670BDF1B50098846C00262CB940F685
:10592000D53220A124A0FFF719F9A06BE16B8842C2
:1059300001D2012000E0002028B940F6D63219A19A
:105940001DA0FFF70BF9A06BE16B884227D294F9F9
:105950004550002269462046FFF7EDFD0646681CCB
:1059600060B9606A08B9012000E00020B0B904F114
:10597000240002F0D5FD88B101260FE07F2D01D073
:10598000012000E0002028B940F6F63205A10AA067
:10599000FFF7E4F8681C40B284F8450000BF3046C9
:1059A000F8BD00002E2E5C4672656552544F535C64
:1059B00071756575652E63004572726F723A2025A8
:1059C000732C2025640D0A0070B505460E460E485E
:1059D0000068C068C468201D01F0CCFC94F8240065
:1059E00000F0040028B132462946204600F0F8F8BD
:1059F00005E094F8240000F0FE0084F8240020461E
:105A0000216A884770BD0000E400002070B586B0B0
:105A10008AE0029800280CDA03AE2EB940F2063272
:105A200047A14DA0FFF79AF8D6E90020B16890474A
:105A300000BF0298002877DB049C606908B9012048
:105A400000E0002010B9201D01F094FC01A800F036
:105A5000F3F8054602980A2864D2DFE800F06305EF
:105A6000072E365306082F3700BF00BF00BF94F83B
:105A7000240040F0010084F824000398A2698118F2
:105A800003462A462046FFF7FDFEA8B194F82400FD
:105A900000F0040038B10398A26981182A46204614
:105AA00000F09EF805E094F8240000F0FE0084F871
:105AB00024002046216A884735E000BF94F824007E
:105AC00000F0FE0084F824002DE000BF94F82400CC
:105AD00040F0010084F824000398A061A06908B197
