:020000040800F2
:1000000070E20224AD020008912A0008A9990008B4
:10001000692A000891040008D1540008000000007B
:10002000000000000000000000000000C1370008D0
:10003000D904000800000000B12A0008C13A0008F5
:10004000C7020008C7020008C7020008C70200086C
:10005000C7020008C7020008C7020008C70200085C
:10006000C7020008C7020008C7020008C70200084C
:10007000C7020008C7020008C7020008C70200083C
:10008000C7020008C7020008C7020008C70200082C
:10009000C7020008C7020008C7020008C70200081C
:1000A000C7020008C7020008C7020008C70200080C
:1000B000C7020008C93B0008D93B0008C702000876
:1000C000C7020008C7020008C7020008C7020008EC
:1000D000C7020008C1540008C7020008C702000890
:1000E000E1040008C702000800000000C702000881
:1000F000C7020008C7020008C7020008C7020008BC
:10010000C7020008C7020008C7020008C7020008AB
:10011000793D0008C7020008C7020008C7020008AE
:10012000C7020008C7020008C7020008C70200088B
:10013000C7020008C7020008C7020008C70200087B
:1001400000000000000000000000000000000000AF
:10015000C7020008C7020008C7020008C70200085B
:10016000C7020008C7020008C7020008C70200084B
:10017000C7020008C7020008C7020008C70200083B
:10018000C7020008C7020008C7020008C70200082B
:10019000C7020008C7020008C7020008C70200081B
:1001A000C7020008C7020008C7020008C70200080B
:1001B000C7020008C7020008C7020008C7020008FB
:1001C000C7020008C7020008C7020008C7020008EB
:1001D000C7020008C7020008C7020008C7020008DB
:1001E000C7020008C7020008C7020008C7020008CB
:1001F000C7020008C7020008C7020008C7020008BB
:10020000C7020008C7020008C7020008C7020008AA
:10021000C7020008C7020008C7020008C70200089A
:10022000C7020008C7020008C7020008000000005B
:10023000C7020008C702000800000000C70200084B
:10024000C7020008C7020008C7020008C70200086A
:10025000C7020008C7020008C7020008C70200085A
:10026000C7020008C7020008C7020008C70200084A
:10027000C7020008C7020008C7020008000000000B
:10028000C7020008C7020008C702000800000000FB
:1002900000000000C7020008DFF80CD000F0C8F82A
:1002A000004800475959000870E202240648804778
:1002B00006480047FEE7FEE7FEE7FEE7FEE7FEE74B
:1002C000FEE7FEE7FEE7FEE7093B000899020008AB
:1002D0004EF68850CEF200004FF470010160BFF37B
:1002E0004F8F7047DFF858B0DBF8000040F0010096
:1002F000CBF80000DFF84CB0DBF8000040F0010064
:10030000CBF80000BFF34F8FBFF36F8F7047DFF85C
:1003100030B0DBF8000040F0020040F00400CBF801
:100320000000DFF820B0DBF8000040F0020040F0F1
:100330000400CBF80000BFF34F8FBFF36F8F7047FF
:1003400090EF00E094EF00E02DE9F05F054600201B
:1003500092469B4688460646814640241BE0284636
:1003600041464746224600F053F853465A46C01AC3
:10037000914110D311461846224600F03AF82D1A42
:1003800067EB01084F4622460120002100F031F8BA
:1003900017EB00094E41201EA4F10104DFDC4846A2
:1003A00031462A464346BDE8F09F40EA01039B07D9
:1003B00003D009E008C9121F08C0042AFAD203E0DA
:1003C00011F8013B00F8013B521EF9D27047D2B23E
:1003D00001E000F8012B491EFBD270470022F6E72E
:1003E00010B513460A4604461946FFF7F0FF2046AB
:1003F00010BD202A04DB203A00FA02F100207047E9
:100400009140C2F1200320FA03F319439040704752
:10041000202A04DB203A21FA02F00021704721FA59
:1004200002F3D040C2F120029140084319467047C0
:10043000064C074D06E0E06840F0010394E8070031
:1004400098471034AC42F6D3FFF72AFF9CA9000866
:10045000BCA9000830B58C1810F8012B12F00F035E
:1004600001D110F8013B120906D110F8012B03E06D
:1004700010F8015B01F8015B5B1EF9D101E001F8A6
:10048000013B521EFBD1A142E6D3002030BD00004B
:1004900002F0B2FEFEE7000010B540F2602040F22C
:1004A000AF42C2F20240002104460923826040F2BA
:1004B00000420160C4F20002C160036144F8042FED
:1004C0004161204601F044FB2046BDE8104001F0A8
:1004D0008BBB00000000000070470000000000001F
:1004E000704700000000000010B54EF6347438A0CC
:1004F000CEF2000409F0BAFC2068C00704D14FA076
:1005000009F0B4FC07E000BF36A009F0AFFC616859
:1005100040A009F053FA4AF60F10C0F6000009F0A7
:100520004DFA20684AF2155180074AF20550C0F68C
:100530000001C0F6000058BF084609F097FC20688B
:100540004AF2735100074AF26150C0F60001C0F64A
:10055000000058BF084609F089FC20684AF2CA71B9
:10056000C0064AF2DE70C0F60001C0F6000058BFB7
:10057000084609F07BFC20684AF29A7180064AF22C
:100580005570C0F60001C0F6000058BF084609F0DB
:100590006DFC20684AF2B27140064AF26B70C0F6F8
:1005A0000001C0F6000058BF084609F05FFC206853
:1005B0004AF28171C0054AF23E70C0F60001C0F6F1
:1005C000000058BF0846BDE8104009F04FBC00BF0E
:1005D0000D0AD5B9CABE4650434352B5C4D0C5CFA3
:1005E000A23A0D00B8A1B5E3B6E8D0D4D1B9D5BBD5
:1005F000B4A6D3DABBEED4BED7B4CCAC2CB8A1B57C
:10060000E3D5BBD6A1D2D1BEADB1BBB7D6C5E40D43
:1006100000000000B8A1B5E3B6D1D5BBC9CFCEB4B8
:10062000CCEEB3E4B8A1B5E3BCC4B4E6C6F7B5C438
:10063000B5D8D6B72523780D0A000000B8A1B5E3D8
:10064000B6E8D0D4D1B9D5BBC3BBD3D0BDF8D0D0D8
:100650000D000000000000002DE9F041044600F00C
:10066000CBFC1CB3054694F83500022822D140F299
:100670000F462768C4F2020640F26F48B7426FF097
:100680000E00C4F202081DDC6F21C4F202018F4289
:100690002ADC3F21C4F202018F4241DC1021C4F266
:1006A00002018F4263D028215CE000BF0120BDE839
:1006B000F08100BF802060650120002184F83410A3
:1006C000BDE8F08147451BDC40F23F41C4F2020126
:1006D0008F422DDC40F21041C4F202018F4246D01D
:1006E00040F228413EE000BF9F21C4F202018F4248
:1006F00028DC7021C4F202018F4238D0882131E019
:1007000040F29F41C4F202018F4223DC40F270416B
:10071000C4F202018F422AD040F2884122E000BF99
:100720004021C4F202018F4221D058211AE000BFBB
:1007300040F24041C4F202018F4218D040F25841C9
:1007400010E000BFA021C4F202018F420FD0B821F7
:1007500008E000BF40F2B841C4F202018F4206D067
:1007600040F2A041C4F202018F42394607D1394616
:10077000386820F01E0041F8140B6FF080000A6802
:10078000474500EA020008601ADC9F20C4F202001C
:10079000874233DC5720C4F2020087425ADC102023
:1007A000C4F20200874200F097802820C4F20200C1
:1007B000874200F091804020C4F202008AE000BF2E
:1007C00045F22F40C5F6020087422DDC40F2B740CB
:1007D000C4F2020087424BDC40F27040C4F20200D7
:1007E000874279D040F28840C4F20200874273D039
:1007F00040F2A040C4F202006CE000BF40F227408B
:10080000C4F20200874243DCA020C4F20200874207
:1008100062D0B820C4F2020087425DD040F210409E
:10082000C4F2020056E000BF45F26B40C5F602007C
:1008300087423FDC45F23040C5F6020087424BD08C
:1008400045F24440C5F60200874245D045F2584083
:100850003EE000BF5820C4F2020087423CD0702026
:10086000C4F20200874237D08820C4F2020031E08F
:1008700040F2B840C4F2020087422DD045F2084051
:10088000C5F60200874227D045F21C4020E000BF99
:1008900040F22840C4F2020087421DD040F240409E
:1008A000C4F20200874217D040F25840C4F202005E
:1008B00010E000BF45F26C40C5F6020087420BD045
:1008C00045F29440C5F60200874205D045F28040CB
:1008D000C5F60200874204D1206E016821F48071C0
:1008E0000160386820F00100386000BF3868C00738
:1008F00010D000F081FB401B0628F7D32020606554
:10090000032084F835000120002184F83410BDE86C
:10091000F08100BF2068B04210DC6F21C4F20201F8
:1009200088421DDC3F21C4F20201884234DC1021E0
:10093000C4F20201884255D028214FE040451BDC1B
:1009400040F23F41C4F2020188422DDC40F21041E6
:10095000C4F20201884245D040F228413EE000BF87
:100960009F21C4F20201884228DC7021C4F20201F6
:10097000884237D0882131E040F29F41C4F2020121
:10098000884223DC40F27041C4F20201884229D03F
:1009900040F2884122E000BF4021C4F202018842B7
:1009A00020D058211AE000BF40F24041C4F20201B9
:1009B000884217D040F2584110E000BFA021C4F295
:1009C000020188420ED0B82108E000BF40F2B841D1
:1009D000C4F20201884205D040F2A041C4F20201F3
:1009E00088425BD1D4E9161202F01F023F2303FABA
:1009F00002F28A6040455BDC9F21C4F2020188421A
:100A000014DC5721C4F20201884227DC1021C4F211
:100A10000201884200F0A2802821C4F2020188422B
:100A200000F09C804021C4F2020195E040F2274191
:100A3000C4F2020188421FDCA021C4F202018842F4
:100A400000F08C80B821C4F20201884200F0868058
:100A500040F21041C4F202017EE000BF5821C4F20E
:100A6000020188427AD07021C4F20201884275D016
:100A70008821C4F202016FE040F22841C4F2020171
:100A800088426BD040F24041C4F20201884265D0F6
:100A900040F25841C4F202015EE000BFD4E91612F0
:100AA00002F01F02012303FA02F24A604045A3DD6F
:100AB00045F22F41C5F60201884217DC40F2B741EA
:100AC000C4F20201884227DC40F27041C4F2020104
:100AD000884243D040F28841C4F2020188423DD0AE
:100AE00040F2A041C4F2020136E000BF45F26B4182
:100AF000C5F6020188421FDC45F23041C5F602010D
:100B000088422BD045F24441C5F60201884225D0E7
:100B100045F258411EE000BF40F2B841C4F2020164
:100B200088421BD045F20841C5F60201884215D023
:100B300045F21C410EE000BF45F26C41C5F60201D2
:100B400088420BD045F29441C5F60201884205D097
:100B500045F28041C5F6020188420BD1616EA26E5A
:100B6000E06E4A6030B1016821F480710160D4E91F
:100B70001C014160012084F835000020002184F828
:100B80003410BDE8F081000080B5D8B190F8351080
:100B9000022919D140F20F420168C4F202029142C7
:100BA00016DC6F23C4F20203994227DC3F23C4F210
:100BB000020399423EDC1023C4F2020399425FD043
:100BC000282359E0012080BD80214165012080BD9E
:100BD00040F26F43C4F2020399421BDC40F23F43F0
:100BE000C4F2020399422DDC40F21043C4F2020326
:100BF000994245D040F228433EE000BF9F23C4F213
:100C00000203994228DC7023C4F20203994237D0D0
:100C1000882331E040F29F43C4F20203994223DC6F
:100C200040F27043C4F20203994229D040F2884353
:100C300022E000BF4023C4F20203994220D058238F
:100C40001AE000BF40F24043C4F20203994217D0B9
:100C500040F2584310E000BFA023C4F202039942BF
:100C60000ED0B82308E000BF40F2B843C4F202033C
:100C7000994205D040F2A043C4F20203994275D1D3
:100C800091424FF0040280F8352011DC6F20C4F24D
:100C90000200814222DC3F20C4F20200814239DCA2
:100CA0001020C4F20200814259D0282054E000BF35
:100CB00040F26F40C4F2020081421BDC40F23F4030
:100CC000C4F2020081422DDC40F21040C4F2020066
:100CD000814244D040F228403EE000BF9F20C4F251
:100CE0000200814228DC7020C4F20200814236D02A
:100CF000882031E040F29F40C4F20200814223DCB0
:100D000040F27040C4F20200814228D040F2884094
:100D100022E000BF4020C4F2020081421FD05820D0
:100D20001AE000BF40F24040C4F20200814216D0F7
:100D300040F2584010E000BFA020C4F202008142FF
:100D40000DD0B82008E000BF40F2B840C4F2020065
:100D5000814204D040F2A040C4F2020081420868FF
:100D600020F001000860002080BD00BF0A6822F06A
:100D70000E020A6045F25742C5F6020291420A6825
:100D800022F001020A600FDC45F22F42C5F6020292
:100D9000914219DC45F20842C5F60202914229D07F
:100DA00045F21C4222E000BF45F27F42C5F6020236
:100DB000914213DC45F25842C5F60202914219D025
:100DC00045F26C4212E000BF45F23042C5F6020225
:100DD00091420FD045F2444208E000BF45F29442F0
:100DE000C5F60202914205D045F28042C5F60202E4
:100DF00091421AD1D0E9181CD0E916E30A6822F40E
:100E000080720A6003F01F01012202FA01F1CEF89C
:100E10000410816ECCF80410C16E31B10A6822F45E
:100E200080720A60D0E91C124A60012180F83510F6
:100E3000026D002180F834100AB190470021084665
:100E400080BD0000000000002DE9F04F82B00D6869
:100E5000002D00F0CB8000F1264242F2004302F167
:100E6000FF72C5F602030A2698424FEAB22444F202
:100E7000F44E08BF0926092C40F2040C38BF4FEA93
:100E8000B226C5F6020EC5F6000C00960022002719
:100E9000002609E001360D6835FA06F307F104076C
:100EA00002F1020200F0A280012303FA06F415EA1F
:100EB0000408EFD0D1F804A003230AF0030B9340F9
:100EC000ABF101056FEA0309012D0FD88368CD68E6
:100ED00003EA090395402B438360CAF30015436876
:100EE000A34305FA06F42343436005E0BBF1030F77
:100EF00002D14FF0030B21E0C3688C6803EA0903B9
:100F00009440BBF1020F43EA0403C36016D16FF0B3
:100F1000030307F01C0503EA56030F24034404FAF5
:100F200005FBD3F820A00C692AEA0B0AAC4044EA7E
:100F30000A041C62D1F804A00AF0030B03680BFA40
:100F400002F403EA09031AF4403F43EA040303608E
:100F5000A0D0DEF8003040F2084A43F00203CEF899
:100F60000030DEF80030C5F6000A03F002030193FA
:100F700026F00303019C07F00C040F2553F80A9098
:100F8000A54029EA0509009D05FA04F444EA09048C
:100F900043F80A404FF0B04ADAF800904C6849EA4A
:100FA0000805E30258BF29EA0805A302CAF8005061
:100FB000DCF8009049EA080558BF29EA0805A303B0
:100FC000CCF80050DCF8809049EA080558BF29EABF
:100FD0000805E403CCF88050DCF87C3043EA0805CF
:100FE00058BF23EA0805CCF87C5053E702B0BDE8AF
:100FF000F08F00000000000043F22C20C2F20240FB
:1010000000687047000000002DE9F0411D461746BA
:1010100088460446FFF7F0FF94F84010012903D1F9
:101020000220BDE8F08100BF0646012084F84000A0
:1010300094F84100012847D100206064422084F8E0
:10104000410020688168890644D497E80E108162C7
:101050004262C36201683A6921F4400111434FF0D2
:10106000006241F48001016020464146C8F828C072
:1010700001F052FD2068816809071AD4002D45D07F
:10108000691C0DD18168090713D4816809075CBF09
:1010900081685FEA01710CD481680907F2D508E024
:1010A000FFF7AAFF801BA84232D820688168090791
:1010B000F6D50821C160012084F8410000200021FC
:1010C00084F84010BDE8F0810220002184F840102F
:1010D000BDE8F081D5B1691C0ED181688906B4D50F
:1010E0008168890644BF81685FEA8161ADD5816806
:1010F0008906F2D4A9E700BFFFF77EFF801BA84254
:1011000006D8206881688906F6D49EE7FFF774FF49
:10111000042084F84100606C40F00100606401200C
:10112000002184F84010BDE8F081000000000000BC
:10113000F0B581B015460F460446FFF75DFF94F801
:101140004010012902D1022001B0F0BD0646012065
:1011500084F8400094F8410001284FF0020034D197
:101160000021616484F8410020688168890631D4D7
:1011700000222046394601F0CFFC786A08BB20687F
:10118000816889071BD4002D40D0691C0ED181686D
:10119000890714D4816889075CBF81685FEA81711F
:1011A0000DD481688907F2D509E000BFFFF724FF5D
:1011B000801BA8422CD8206881688907F6D50221B7
:1011C000C160012084F841000020002184F8401013
:1011D00001B0F0BDD5B1691C12D181688906C7D5AF
:1011E0008168890644BF81685FEA8161C0D58168F2
:1011F0008906F2D4BCE700BF206880688006B7D5B6
:10120000FFF7FAFE801BA842F6D901E0FFF7F4FED3
:10121000042084F84100606C40F00100606401200B
:10122000002184F8401001B0F0BD00000000000073
:1012300070B110B504460068016821F00101016039
:10124000204600F0E9F80020606484F8410010BDF9
:10125000012070470000000070B50446FFF7CCFE87
:10126000002C66D0054694F8410028B9204600F0CD
:10127000D7F841F28830A06420686FF0FF03A168BE
:10128000A66C026822F4F85203EB012111430160BD
:101290008168890628D44FF62F720168C0F2FF02D8
:1012A00063681140E66831432669D4E9072541EABD
:1012B0000361636911434FF6FE02294301604168EF
:1012C000CFF6E0721140A269194341EA0641114389
:1012D0004160016841F0010101600020606401216A
:1012E00084F8411070BD00BFD6B1711C0ED1816869
:1012F0008906D0D58168890644BF81685FEA81612B
:10130000C9D581688906F2D4C5E700BFFFF774FE2E
:10131000401BB04206D8206881688906F6D4BAE737
:10132000FFF76AFE042084F84100606C40F0010081
:101330006064012070BD00002DE9F041164688462A
:101340000446FFF759FE94F84010012902D102200B
:10135000BDE8F0810746012084F8400094F8410080
:10136000012827D100206064822084F84100206891
:10137000A56C8168890623D40168726821F0080190
:10138000082A41EA0201016007D131680163102196
:10139000C160016841F4801101604FF04062204655
:1013A000414601F0B9FB0020002184F84010BDE85F
:1013B000F08100BF0220002184F84010BDE8F081D8
:1013C000D5B1691C0ED181688906D5D58168890699
:1013D00044BF81685FEA8161CED581688906F2D415
:1013E000CAE700BFFFF708FEC01BA84206D8206866
:1013F00081688906F6D4BFE7FFF7FEFD042084F874
:101400004100606C40F0010060640120002184F81C
:101410004010BDE8F08100007047000000000000AF
:101420002DE9F04184B045F200010068C5F20021C9
:10143000884203D004B0BDE8F08100BF44F27C4094
:1014400040F60048C5F60200C5F60208A8F500659A
:101450000222816D002341F480418165816D002667
:1014600001F4804103910399016841F480410160D6
:101470000168032721F48041016002212846CDE95B
:1014800000760924029404F0FFF90A200290062154
:101490000222002328460097019604F0F5F90B215B
:1014A000022200234046CDE90076029404F0ECF9D4
:1014B0000C21022200234046CDE90076029404F07C
:1014C000E3F908F58060022102220023CDE90076CD
:1014D000029404F0D9F90D21022200234046CDE9FF
:1014E0000076029404F0D0F904B0BDE8F081000069
:1014F0002DE9F04115460F460446FFF77DFD2668AD
:10150000B16994F84020012A02D10220BDE8F0819F
:101510008046012084F8400094F8410001286FD1F2
:10152000002F4FF00000606400F09080222084F8CB
:101530004100306901220130A063306901306063ED
:101540002763706962F39B607061B161A06BA8B1A1
:10155000681C35D0002D65D12068806810F0060F1A
:1015600000F07E8096F820003870206BA16B471C3D
:101570002763481EA063A06B0028EDD12068816816
:10158000890739D4002D6BD0691C2BD1816889075C
:1015900032D4816889075CBF81685FEA81712BD48E
:1015A00081688907F2D527E096F820003870206B13
:1015B000A16B471C2763481EA063A06B0028DDD0E9
:1015C0002068816811F0060FEED1816811F0060FD6
:1015D00004BF816811F0060FE6D1816811F0060F93
:1015E000EFD0E1E7FFF708FDA0EB0800A84239D8EB
:1015F000206881688907F5D50221C160002039E0A3
:101600000220002184F84010BDE8F08196F8200007
:101610003870206BA16B471C2763481EA063A06B2A
:101620000028ABD02068806810F0060FEED100BF14
:10163000FFF7E2FCA0EB0800A84213D820688068FE
:1016400010F0060FF4D0276BE0E700BF606C40F0AD
:10165000080060640120002184F84010BDE8F0819A
:10166000FFF7CAFC042084F84100606C40F00100E0
:1016700060640120012184F84110002184F84010A9
:10168000BDE8F0810000000080B500F041F944F2AF
:10169000204149F69C62C5F60201C0F600020968C5
:1016A000C1F30211515C01F01F01C84080BD000070
:1016B00080B544F2384EC5F6020E5EF8103C5EF876
:1016C000101C5EF80C2CC1F3053CDEF80410BCF1D4
:1016D000000F15D0C908D20601EAE2716FF35F313D
:1016E00000EE101A03F003010229B8EE400A0DD0F3
:1016F00081B95EF8381C890610D49FED361A1BE0BC
:1017000000218160C0E9001180BD00BF9FED301A4B
:1017100012E000BF9FED2D1A0EE000BF5EF8381CEE
:1017200049F20002C0F2D032C1F3C10122FA01F144
:1017300001EE101AB8EE411ADEF800109FED263ABD
:101740006FF35F2102EE101ADEF80010C1F346219C
:10175000B8EE422A00EE032A00EE10CAB7EE003AB5
:10176000B8EE400A81EE000A32EE031A02EE101AB9
:10177000B8EE422A20EE010A32EE031A80EE011A78
:10178000BCEEC11A80ED001ADEF80010C1F306416C
:1017900001EE101AB8EE411A31EE031A80EE011A6A
:1017A000BCEEC11A80ED011ADEF80010C1F306612B
:1017B00001EE101AB8EE411A31EE031A80EE010A5A
:1017C000BCEEC00A10EE101A816080BD0024744A7D
:1017D00020BCBE4B0024744C000000390000000007
:1017E00080B544F2404EC5F6020E5EF8183C5EF835
:1017F000181C5EF8142CC1F3055CDEF80410BCF173
:10180000000F15D0C908D20501EAE2716FF35F310C
:1018100000EE101A03F003010229B8EE400A0DD0C1
:1018200081B95EF8401C890610D49FED361A1BE082
:1018300000218160C0E9001180BD00BF9FED301A1A
:1018400012E000BF9FED2D1A0EE000BF5EF8401CB5
:1018500049F20002C0F2D032C1F3C10122FA01F113
:1018600001EE101AB8EE411ADEF800109FED263A8C
:101870006FF35F2102EE101ADEF80010C1F346216B
:10188000B8EE422A00EE032A00EE10CAB7EE003A84
:10189000B8EE400A81EE000A32EE031A02EE101A88
:1018A000B8EE422A20EE010A32EE031A80EE011A47
:1018B000BCEEC11A80ED001ADEF80010C1F306413B
:1018C00001EE101AB8EE411A31EE031A80EE011A39
:1018D000BCEEC11A80ED011ADEF80010C1F30661FA
:1018E00001EE101AB8EE411A31EE031A80EE010A29
:1018F000BCEEC00A10EE101A816080BD0024744A4C
:1019000020BCBE4B0024744C0000003900000000D5
:1019100080B500F085F844F2184149F69C63C5F69D
:101920000201C0F600030A68096801F00F01C2F362
:101930000322595C9A5C02F01F0220FA02F201F0C5
:101940001F0040F2080122FA00F0C2F202410860D2
:1019500040F20401C2F202410A6080BD00000000B2
:1019600080B500F05DF844F2184C49F69C61C5F66C
:10197000020CC0F60001DCF80020DCF8003003F0B7
:101980000F03C2F30322CB5C8A5C02F01F02D0403B
:1019900003F01F0240F2080320FA02F2C2F20243EF
:1019A0001A6040F20403C2F202431860DCF804003B
:1019B000C0F30210085C00F01F0022FA00F080BDA6
:1019C00080B500F02DF844F2184C49F69C61C5F63C
:1019D000020CC0F60001DCF80020DCF8003003F057
:1019E0000F03C2F30322CB5C8A5C02F01F02D040DB
:1019F00003F01F0240F2080320FA02F2C2F202438F
:101A00001A6040F20403C2F202431860DCF80400DA
:101A1000C0F30220085C00F01F0022FA00F080BD35
:101A200044F20041C5F602010869C0F3C200032870
:101A300010D002282ED098BB0868800649F200001A
:101A4000C0F2D03058BF70470968C1F3C101C84027
:101A5000704700BF8A6A886AC0F3051CC86ABCF177
:101A6000000F4B6B22D000F0010002F00302404255
:101A7000022A00EAD3006FF35F3000EE100AB8EEDE
:101A8000400A15D0C2B90868800619D49FED281AFB
:101A900023E000BF47F64000C0F27D10704700BF52
:101AA00040F60010C0F23D00704700BF00207047B4
:101AB0009FED1E1A11E000BF9FED1B1A0DE000BF45
:101AC000086849F20002C0F2D032C0F3C10022FA25
:101AD00000F001EE100AB8EE411A086B9FED153ABE
:101AE0006FF35F2002EE100A086BC0F34620B8EED9
:101AF000422A013000EE032A00EE10CAB7EE003A87
:101B0000B8EE400A81EE000A32EE031A20EE010A16
:101B100001EE100AB8EE411A80EE010ABCEEC00ACE
:101B200010EE100A704700BF0024744A20BCBE4B60
:101B30000024744C000000397047000000000000D1
:101B40007047000000000000704700000000000027
:101B500060B310B5044690F83D0028B9002084F821
:101B60003C00204600F024F8022084F83D00206864
:101B7000211D02F04DF8012084F8480084F83E0051
:101B800084F83F0084F8400084F8410084F8420063
:101B900084F8430084F8440084F8450084F8460043
:101BA00084F8470084F83D00002010BD01207047F4
:101BB00081B040F200410068C4F20001884201D0C7
:101BC00001B0704744F2E840C5F60200016841F0F8
:101BD00002010160006800F002000090009801B06E
:101BE000704700000000000090F83D1001291BD153
:101BF000022180F83D10016841F2FF70C4F200003C
:101C00008142C86840F00100C8600FDC40F2FF70FC
:101C1000C4F20000814217DCB1F1804F2CD040F2B9
:101C20000040C4F2000025E00120704740F2FF3080
:101C3000C4F20100814213DC41F60000C4F200004E
:101C4000814219D0002013E040F60000C4F20000E9
:101C5000814211D040F60040C4F200000AE000BF0B
:101C600044F20000C4F20100814205D040F200407D
:101C7000C4F2010081420BD107228868C0F2010240
:101C800002400020062A18BFB2F5803F00D17047FD
:101C9000086840F001000860002070470000000064
:101CA0007047000000000000F0B581B004460068F5
:101CB000C5680669B10717D515F0020114D06FF099
:101CC00002010161012121778069800704D020464B
:101CD000FFF7E6FF06E000BF204600F09DF8204633
:101CE00000F09EF800202077700719D515F0040049
:101CF00016D020686FF0040101610221217780690C
:101D000010F4407F04D02046FFF7CAFF06E000BF72
:101D1000204600F081F8204600F082F8002020776D
:101D2000300717D515F0080014D020686FF00801AF
:101D3000016104212177C069800703D02046FFF7A5
:101D4000AFFF05E0204600F067F8204600F068F895
:101D500000202077F00619D515F0100016D0206865
:101D60006FF01001016108212177C06910F4407FF4
:101D700004D02046FFF794FF06E000BF204600F0A5
:101D80004BF8204600F04CF800202077F00718BFF1
:101D900015F0010006D020686FF0010101612046B6
:101DA00000F042F805F0800716F4025F18BF002F1C
:101DB00002D1F00509D410E020686FF402510161EE
:101DC0002046FFF7BDFEF00507D537B120686FF458
:101DD000807101612046FFF7AFFE700609D515F04E
:101DE000400006D020686FF040010161204600F0FD
:101DF00027F8B0060CD515F0200009D020686FF048
:101E000020010161204601B0BDE8F040FFF79CBE13
:101E100001B0F0BD000000007047000000000000AD
:101E2000704700000000000040F26021C2F2024151
:101E30000A1D904218BF704708680130086070475B
:101E40007047000000000000704700000000000024
:101E50007047000000000000704700000000000014
:101E60007047000000000000704700000000000004
:101E700070B50446006840F62F01C2691140202960
:101E8000016886680ED101F0200306F080555B19C9
:101E90001AD0616F002900F07D802046BDE87040B7
:101EA000084700BF40F60F031A420DD0012340F24D
:101EB0002015C1F20003C0F2004506EA030C01EA56
:101EC000050313EB0C0367D1E36E012B05D112F070
:101ED000100318BF11F010034CD1D3020AD516F429
:101EE000800307D04FF4801101622046BDE87040A6
:101EF000FFF7B6BF100606D501F0800006F4000318
:101F0000C01840F0A18150066ED511F040006BD092
:101F1000206850E8000F216820F0400041E80002EE
:101F2000F2B1206850E8000F216820F0400041E83D
:101F30000002002A1FBF206850E8000F216820F02F
:101F400040001CBF41E80002002A09D0206850E888
:101F5000000F216820F0400041E80002002AD7D19C
:101F60002020C4F888000020A0672046BDE870400B
:101F700000F0EABC102101628068400616D4B4F873
:101F80005C00B4F85E10B4F85E20002A18BF8842E6
:101F900040F08A8170BD00BFD30718BF11F4807371
:101FA0002ED1930706F0010E36D440E0D4F880001D
:101FB00040F20F42C4F202020168914200F34A81EA
:101FC0006F22C4F20202914200F3F6813F22C4F272
:101FD0000202914200F30C821022C4F202029142EA
:101FE00000F02B82282225E2100240F14B8111F0F3
:101FF000804000F047812046BDE87040FFF72CBFCD
:1020000001230362D4F8903043F00103C4F8903008
:10201000930706F0010E0AD5BEF1000F07D0022388
:102020000362D4F8903043F00403C4F890305307AF
:102030000AD5BEF1000F07D004230362D4F8903014
:1020400043F00203C4F8903013070CD501F02003CD
:1020500053EA0C0307D008230362D4F8903043F00E
:102060000803C4F8903013050BD511F0806308D035
:102070004FF400630362D4F8903043F02003C4F8B7
:102080009030D4F89030002B3FF484AF12F020024F
:102090000AD001F0200106F08052891804D0616F47
:1020A00011B1204688472068D4F89010806800F06D
:1020B000400001F02801401806D12046FFF7D4FE69
:1020C0000020C4F8900070BD206850E8000F21681F
:1020D00020F4907041E80002F2B1206850E8000F4F
:1020E000216820F4907041E80002002A1FBF206898
:1020F00050E8000F216820F490701CBF41E80002F6
:10210000002A09D0206850E8000F216820F4907060
:1021100041E80002002AD7D14FF6FE70CEF6FF70DC
:10212000216851E8021F2268014042E80213DBB136
:10213000216851E8021F2268014042E80213002B87
:102140001FBF216851E8021F226801401CBF42E8FE
:102150000213002B08D0216851E8021F22680140B9
:1021600042E80213002BDBD1E06E012827D1206862
:1021700050E8000F216820F0100041E80002F2B1A1
:10218000206850E8000F216820F0100041E80002AC
:10219000002A1FBF206850E8000F216820F01000BF
:1021A0001CBF41E80002002A09D0206850E8000F57
:1021B000216820F0100041E80002002AD7D1202039
:1021C000C4F88C000020E0662168606788684006DB
:1021D00064D5206850E8020F216820F0400041E8F3
:1021E0000202F2B1206850E8020F216820F040009E
:1021F00041E80202002A1FBF206850E8020F216850
:1022000020F040001CBF41E80202002A09D02068EB
:1022100050E8020F216820F0400041E80202002A45
:10222000D7D1D4F88000C8B344F22901C0F6000128
:102230000165FEF7A9FC00283FF4ACAED4F880009D
:10224000016DBDE870400847A16F00297FF425AEFD
:10225000A0E600BF40F26F42C4F20202914200F3D6
:10226000B78040F23F42C4F20202914200F3C880BC
:1022700040F21042C4F20202914200F0DE8040F2CD
:102280002842D7E0D0017FF585AEB1F1FF3FC8BF4E
:1022900070BD2046BDE87040FFF7DABD2046BDE8BE
:1022A0007040FFF7E1BD00BF401A216851E8001FF0
:1022B000226821F4907142E80013F3B1216851E8DB
:1022C000001F226821F4907142E80013002B1FBF09
:1022D000216851E8001F226821F490711CBF42E878
:1022E0000013002B09D0216851E8001F226821F457
:1022F000907142E80013002BD7D14FF6FE71CEF655
:10230000FF71226852E8022F23680A4043E8022640
:10231000DEB1226852E8022F23680A4043E8022611
:10232000002E1FBF226852E8022F23680A401CBFFC
:1023300043E80226002E08D0226852E8022F2368C4
:102340000A4043E80226002EDBD12021C4F88C107D
:102350000021E1666167216851E8001F226821F0D1
:10236000100142E80013F3B1216851E8001F226810
:1023700021F0100142E80013002B1FBF216851E833
:10238000001F226821F010011CBF42E80013002B3F
:1023900009D0216851E8001F226821F0100142E8AD
:1023A0000013002BD7D181B2022020672046BDE860
:1023B0007040FFF749BD00BF9F22C4F20202914264
:1023C00028DC7022C4F20202914236D0882231E029
:1023D00040F29F42C4F20202914223DC40F270427A
:1023E000C4F20202914228D040F2884222E000BFAB
:1023F0004022C4F2020291421FD058221AE000BFCC
:1024000040F24042C4F20202914216D040F25842D9
:1024100010E000BFA022C4F2020291420DD0B82207
:1024200008E000BF40F2B842C4F20202914204D078
:1024300040F2A042C4F20202914249688AB2002AE4
:102440003FF4A8ADB4F85C309A42BFF4A3ADA4F851
:102450005E10C069B0F5807F00F0A980206850E868
:10246000000F216820F4807041E80002F2B120687A
:1024700050E8000F216820F4807041E80002002A33
:102480001FBF206850E8000F216820F480701CBF37
:1024900041E80002002A09D0206850E8000F2168B6
:1024A00020F4807041E80002002AD7D1206850E86B
:1024B000020F216820F0010041E80202F2B1206819
:1024C00050E8020F216820F0010041E80202002AD2
:1024D0001FBF206850E8020F216820F001001CBFD8
:1024E00041E80202002A09D0206850E8020F216862
:1024F00020F0010041E80202002AD7D1206850E80C
:10250000020F216820F0400041E80202F2B1206889
:1025100050E8020F216820F0400041E80202002A42
:102520001FBF206850E8020F216820F040001CBF48
:1025300041E80202002A09D0206850E8020F216811
:1025400020F0400041E80202002AD7D12020C4F840
:102550008C000020E066206850E8000F216820F021
:10256000100041E80002F2B1206850E8000F216835
:1025700020F0100041E80002002A1FBF206850E848
:10258000000F216820F010001CBF41E80002002A63
:1025900009D0206850E8000F216820F0100041E8C1
:1025A0000002002AD7D1D4F88000FEF755F80220A7
:1025B0002067B4F85C00B4F85E10401A81B220467F
:1025C000BDE87040FFF740BC10B5E0B10446D0F85C
:1025D000880028B9002084F88400204600F028F8FC
:1025E0002420C4F888002068A16A0268002922F02B
:1025F0000101016002D0204601F0EAFB204602F012
:102600001BFA012802D1012010BD00BF20684168DB
:1026100021F490414160816821F02A0181600168C4
:1026200041F0010101602046BDE8104001F040BCCE
:1026300080B586B041F200010068C4F20101884211
:1026400002D006B080BD00BF44F2F040C5F60200E3
:10265000016841F010010160006801A900F010005C
:10266000019001984FF4C060019002200290002078
:10267000039003200490072005900020C5F6020077
:10268000FEF7E2FB06B080BD80B5D0F88C30202B81
:1026900006D10123002918BF002A03D1184680BDA6
:1026A000022080BD0023C36640F60043D0F800C07E
:1026B000C5F600039C4503D0DCF804301B0205D4AA
:1026C00002F016FC0023184680BD00BF036853E8E3
:1026D00000CFD0F800E04CF080634EE8003CBCF145
:1026E000000FEDD0036853E800CFD0F800E04CF0C5
:1026F00080634EE8003CBCF1000F1FBF036853E845
:1027000000CFD0F800E04CF080631CBF4EE8003CE6
:10271000BCF1000FD4D0036853E800CFD0F800E03C
:102720004CF080634EE8003CBCF1000FCED1C7E70F
:1027300080B541F200010068C4F20101884218BF6F
:1027400080BD40F28C10C2F20240B0F902100029A4
:1027500021D489B203784A0404D40D2B0CD141F45E
:10276000804217E048F2000C0022CFF6FF7C0A2BD3
:1027700008BF41EA0C020DE08C4640F2F83E6FF3D0
:102780009F3CC2F2024E4A1CB1F5F97F0EF80C30A4
:1027900088BF0022428040F2846040F28C11C2F275
:1027A0000240C2F202410122BDE88040FFF76CBF47
:1027B0002DE9F0410446D0F88800202846D10D4686
:1027C00000294FF0010000F0BD801646002A08BF26
:1027D000BDE8F08198460020C4F890002120C4F89C
:1027E0008800FEF709FCA4F85460A4F85660064679
:1027F000A168B1F5805F02D12069002870D02F4612
:102800000025B4F85600002870D018F1010021D03E
:10281000B8F1000F42D121680CE000BF17F8010B9E
:102820008862B4F856000138A4F85600B4F856008F
:1028300000285CD0C869000640F17E80002FEDD1F1
:1028400035F8020B00276FF35F20E9E70220BDE8AF
:10285000F08100BF216802E0C869000609D4C86998
:10286000000606D4C86900065CBFC8695FEA00605C
:10287000F2D51FB117F8010B05E000BF35F8020BC8
:1028800000276FF35F208862B4F856000138A4F87F
:102890005600B4F856000028E1D128E0216800BFB6
:1028A000C869000608D4FEF7A7FB801B404545D841
:1028B00021680868F4E700BF17B117F8010B04E0BE
:1028C00035F8020B00276FF35F208862B4F85600DA
:1028D0000138A4F85600B4F856000028E0D106E00C
:1028E0000027B4F8560000287FF48FAF2168C8692C
:1028F00040061FD4B8F1000F1ED018F101000FD10F
:10290000C869400616D4C869400613D4C869400691
:1029100010D4C86940064FF00000F1D50FE000BFA9
:10292000FEF76AFB801B404508D820680168C06933
:102930004006F5D5002002E0FEF75EFB03202021D3
:10294000C4F88810BDE8F081704700000000000066
:1029500080B54EF62C52CEF200021168B1F1FF3F65
:102960002CDD40F26C3152F8083CC2F202410B629D
:1029700012F8043C81F8243012F8033C8B62D368CF
:10298000CB6232F8023C0B8613684B6353688B634F
:102990001269CA6300BE90E80C500A604B60C1F82F
:1029A00008C0C1F80CE002690A6142694A618269A3
:1029B0008A61C069C86100BE80BD00BF116841F076
:1029C0000041116081690231816180BD0000000019
:1029D00010B540F2846041F20001C2F202404EF6AE
:1029E0000C54C4F201010C2201604FF4E13141604A
:1029F0000021C0E902110161CEF20004C0E9052105
:102A0000C161FFF7E1FD2068202300F4E060B0F52C
:102A1000407F4FF020000ED0206800F4E060B0F559
:102A2000E06F01D1002006E02068072121EA102094
:102A3000202101FA00F04EF225414EF20414CEF2AC
:102A40000001CEF200040122087040F2846040F2DE
:102A50008C11C2F20240C2F202412360BDE8104074
:102A6000FFF712BE0000000000F0C6FB02A007F056
:102A7000FDF900BFFEE700BF4D656D204163636552
:102A80007373204572726F7221210D0000000000E7
:102A900001A007F0EBB900BFB4A5B7A2C1CB4E4D62
:102AA00049D6D0B6CF0D00000000000000000000A5
:102AB000EFF30980BFF36F8F154B1A681EF0100FEC
:102AC00008BF20ED108A20E9F04F10602DE90900C1
:102AD0004FF0500072B680F31188BFF34F8FBFF3F1
:102AE0006F8F62B605F0F0FF4FF0000080F31188A1
:102AF000BDE8090019680868B0E8F04F1EF0100F33
:102B000008BFB0EC108A80F30988BFF36F8F70475D
:102B100090010224000000002DE9F04FD1F824C0FC
:102B2000B2F1406F18BFBCF1000F35D18B69D1F8FD
:102B300020E0D3B3BEF1000F66D0D0F800908868D3
:102B4000D1E90487CD69C9F81C00D1E90BB0002D8B
:102B50004C6B4FEA87477BD0D1F800A0CE6846EA9D
:102B60000A06B2F1406F40EA060040EA0B0040EA74
:102B7000040040EA070040EA080040EA020040EA98
:102B80000C0040EA030040EA0E0040EA0500C9F8E4
:102B9000140034D1BDE8F08F03688F6A013F1F61D4
:102BA0008B69002BD1F820E0C4D1BEF1000F61D0B9
:102BB000D0F800908C68D1E90486CB69C9F81C4034
:102BC000D1E90B57002B4C6B4FEA864670D0C86892
:102BD000B2F1406F40EA070040EA050040EA040015
:102BE00040EA060040EA080040EA020040EA0C0021
:102BF00040EA0E0040EA0300C9F81400CAD0486851
:102C0000C9F81800BDE8F08F4F69CD694FEA8749D0
:102C1000D1E90BE6002D4C6B5AD0D1F80080CF687B
:102C200047EA080700683E43B2F1406F46EA0E07E4
:102C300047EA040747EA090747EA020747EA0C0799
:102C400043EA070343EA05024261A3D02BE000BF39
:102C50000968084340EA0B002043384340EA080073
:102C6000104340EA0C00184340EA0E00C9F8140073
:102C7000BDE8F08FCB69DBB3D1E90B654F692E431B
:102C80004C6B00682643CD6846EA8747B2F1406F37
:102C900047EA050747EA020747EA0C0747EA030243
:102CA00042613FF477AF49688161BDE8F08F00BFB2
:102CB00045EA07002043304340EA0800104340EA59
:102CC0000C0040EA0E00C9F81400BDE8F08F00BF08
:102CD00009680068314341EA0E01214341EA0901D4
:102CE000114341EA0C0119434161BDE8F08F00BF77
:102CF000BCF1000F08BFBDE8F08FD1E90B764B693E
:102D00003743496B0068394341EA8341114341EA43
:102D10000C014161BDE8F08FB0B590B040F2EC54C9
:102D20004821C2F20244201DFDF758FB45F2000580
:102D30002046C5F200252560FEF77AFA25600120BD
:102D400060600025C4E9055020462021A1601021C3
:102D5000E16016212161C4E90755FEF77DFA00F014
:102D60004FF84FF4807008904FF4005005904FF0EA
:102D700080700B9003200C909F20029002A941F2DA
:102D8000883220460F95CDE90D55CDE909550795B7
:102D9000FEF7CEF90DF1050141F288322046FEF72B
:102DA000A7FB002010B0B0BD80B590B04FF480708C
:102DB00008904FF40050059000200A90CDE90D00D6
:102DC0000F904FF4406109914FF040710B91062133
:102DD0000791EB210291CDE9000000F011F840F2DB
:102DE000EC5002A9C2F202406A46FEF7A5FA00289A
:102DF00018BF6FF0050010B080BD0000000000009B
:102E0000B0B5A2B06620009040F2EC506946C2F224
:102E1000024041F288324FF48075069500240D94EB
:102E2000CDE90744CDE90B4409940594FEF780F9F8
:102E300020B1FF2040B222B0B0BD00BF4FF0807083
:102E40001D9005201490102010904FF480001390D6
:102E5000012011900F9040F2EC50C2F2024014A9F0
:102E60000EAA41F28833CDE91A541C94CDE91F44CF
:102E7000219419940E941294FEF7C6F820B1FD2007
:102E800040B222B0B0BD00BF9920009040F2EC509B
:102E90006946C2F2024041F28832FEF749F918B1A0
:102EA000FF2040B222B0B0BD4FF480701A900020D5
:102EB0002190CDE91B00CDE91F0019904FF08071E2
:102EC0000E900EAA1290102010904FF480001390D4
:102ED0000120119041F288330F9040F2EC501D9187
:102EE00005211491C2F2024014A9FEF78DF80028C2
:102EF00018BF6FF0020040B222B0B0BD0000000069
:102F000081B044F2E040C5F60200016841F00101E1
:102F10000160016801F0010100910099016841F030
:102F200002010160016801F002010091009901684D
:102F300041F004010160016801F004010091009971
:102F4000016841F008010160016801F00801009189
:102F50000099016841F010010160006800F0100064
:102F6000009040F600000099C5F60200016821F0CB
:102F700040610160016841F0806101604168416029
:102F8000816821F040618160816841F00061816069
:102F9000C16821F04061C160C168C160416A41629D
:102FA00001B070470000000010B54EF60054CEF29C
:102FB00000042068010E1AA006F000FD206800F051
:102FC0007F40B0F1824F02D11BA006F04FFF206876
:102FD000C0F30B111BA006F0F1FC20684FF6F07156
:102FE00008404CF27021884202D11AA006F03EFF40
:102FF0002068C0F303511BA006F0E0FC206800F03D
:103000000F011BA006F0DAFC2068C0F30351206812
:1030100000F00F021AA0BDE8104006F0CFBC00BFC0
:103020000D0AB3A7C9CC28CAB5CFD6D5DF293A2512
:1030300023780D0A00000000B4FAB1ED41524D0DA5
:1030400000000000B4A6C0EDC6F7BAC53A25237843
:103050000D0A0000B4FAB1ED436F727465782D4D1E
:10306000370D0000B0E6B1BEBAC53A25640D0A00BE
:10307000B2B9B6A1BAC5203A25640D0A0000000015
:103080007225647025640D0A000000000000000035
:1030900080B582B04EF60450CEF200000068019078
:1030A0000198C00506D001992DA06FF35F2106F0AD
:1030B00085FC02E030A006F0D9FE019833A100059E
:1030C00037A058BF084606F0D1FE4FF20001019824
:1030D000C0F21F01084207D00198C0F3083136A0A2
:1030E00006F06CFC03E000BF39A006F0BFFE0198BB
:1030F0004AF2D33140024AF2D530C0F60001C0F6A0
:10310000000058BF084606F0B1FE01984AF22A7145
:1031100040014AF23A60C0F60001C0F6000058BF14
:10312000084606F0A3FE01984AF20971C0004AF26F
:103130002860C0F60001C0F6000058BF084606F03F
:1031400095FE4AF219720199C0F6000225A0B1F16C
:10315000FF3FC8BF104602B0BDE8804006F086BE03
:103160000D0AD5FDD6B4D0D0B5C4D2ECB3A3B1E02E
:10317000BAC53A25640D0A00CFD6D4DAC3BBD3D082
:10318000D6D0B6CFD6B4D0D00D000000B7A2C9FAC1
:10319000C1CBD6D0B6CFC7C0D5BCD0D0CEAA0D003B
:1031A000C3BBD3D0B7A2C9FAD6D0B6CFC7C0D5BC9F
:1031B000D0D0CEAA0D000000B4FDB4A6C0EDB5C4B9
:1031C000D2ECB3A3B1E0BAC53A25640D0A00000001
:1031D000C3BBD3D0B4FDB4A6C0EDB5C4D6D0B6CF72
:1031E0000D0000004E4D49D6D0B6CFB9D2C6F0C1C1
:1031F000CB0D00000000000070B54EF62856CEF250
:103200000006F5683469307850B3E5A006F02EFE6C
:103210004AF28F60C0F6000006F028FE3068C00752
:1032200040F0AC803068800700F1AF803068000764
:1032300000F1B2803068C00600F1B88030688006C6
:1032400000F1BE803068000606D54AF28C3029466F
:10325000C0F6000006F0B2FB0125707818B92EE028
:103260000025707858B3EAA006F000FE4AF28F609D
:10327000C0F6000006F0FAFD3068C00500F1AC8031
:103280003068800500F1BE803068400500F1C480E0
:103290003068000500F1CA803068C00400F1D080B9
:1032A0003068800400F1D6803068000406D54AF208
:1032B000B4302146C0F6000006F080FB012570887E
:1032C00048B34AF2FF70C0F6000006F0CFFD4AF2A4
:1032D0008F60C0F6000006F0C9FD3068C00300F141
:1032E000C5803068800300F1CB803068400300F176
:1032F000D7803068000300F1DD803068C00100F144
:10330000E3803068800105D54AF2F070C0F6000015
:1033100006F0ACFD0125706880070CD54AF6D50093
:10332000C0F6000006F0A2FD4AF68900C0F60000D3
:1033300006F09CFD0125706840000CD54AF6D500CA
:10334000C0F6000006F092FD4AF2E940C0F6000027
:1033500006F08CFD0125D6F880024AF27B64C0F3AA
:103360000120C0F60004DFE800F0C303BBC100BFCA
:103370004AF2A444C0F60004BAE000BF8FA006F0F1
:1033800075FD306880077FF551AF96A006F06EFDA1
:10339000306800077FF54EAF4AF24350C0F6000098
:1033A00006F064FD3068C0067FF548AF4AF225504C
:1033B000C0F6000006F05AFD306880067FF542AF87
:1033C0004AF6A900C0F6000006F050FD306800067D
:1033D0003FF53BAF40E700BF4AF62700C0F60000CC
:1033E00006F044FD4AF2CF40C0F6000006F03EFD74
:1033F0004AF20640C0F6000006F038FD306880054D
:103400007FF542AF4AF61300C0F6000006F02EFD2D
:10341000306840057FF53CAF4AF61100C0F6000069
:1034200006F024FD306800057FF536AF4AF65F00F0
:10343000C0F6000006F01AFD3068C0047FF530AF1A
:103440004AF63500C0F6000006F010FD3068800432
:103450007FF52AAF4AF2A760C0F6000006F006FD2D
:10346000306800043FF523AF28E700BF4AF2ED6063
:10347000C0F6000006F0FAFC306880037FF535AF37
:103480004AF2CB60C0F6000006F0F0FC4AF2A3500E
:10349000C0F6000006F0EAFC306840037FF529AF73
:1034A0004AF2B240C0F6000006F0E0FC30680003CB
:1034B0007FF523AF4AF6E700C0F6000006F0D6FC21
:1034C0003068C0017FF51DAF4AF28550C0F600009C
:1034D00006F0CCFC306880013FF516AF1AE700BF5C
:1034E0004AF6CB040125C0F6000401E001254DA4F5
:1034F0004AF2F330C0F6000006F0B8FC204606F0B1
:10350000B5FCD6F88002C00720D1D6F8800280072B
:1035100026D4D6F8800240072CD4D6F880020007C3
:1035200032D4D6F88002C00605D54AF22240C0F651
:10353000000006F09BFC002D18BF70BD4AF6FF008E
:10354000C0F60000BDE8704006F090BC4AF256405C
:10355000C0F6000006F08AFCD6F880028007D8D5B5
:103560004AF23C40C0F6000006F080FCD6F880022B
:103570004007D2D54AF28A40C0F6000006F076FC39
:10358000D6F880020007CCD54AF27040C0F60000A1
:1035900006F06CFCD6F88002C006CCD5C5E700BFAB
:1035A0000D0AB7A2C9FAC1CBC4DAB4E6B9DCC0EDE2
:1035B000B7BDC3E6B5C4B4EDCEF30D00B4A6C0EDFF
:1035C000C6F7B3A2CAD4B4D3B2BBD4CAD0EDD6B472
:1035D000D0D0B5C4CEBBD6C3BBF1C8A1D6B8C1EE5E
:1035E0000D000000B4A6C0EDC6F7B3A2CAD4D4DA69
:1035F000B2BBD4CAD0EDB2D9D7F7B5C4CEBBD6C30F
:10360000BDF8D0D0BCD3D4D8BBF2B4E6B4A20D0080
:103610000D0AB7A2C9FAC1CBD7DCCFDFB4EDCEF328
:103620000D000000BDE2C2EBB4EDCEF30D000000D2
:1036300010B54EF624543DA0CEF20004216806F0E9
:10364000BDF92068C0072DD12068800730D42068DC
:10365000000733D42068000636D42068C00539D46A
:10366000206840053FD42068000542D42068C0048B
:1036700048D4206880044ED42068400405D54AF21E
:103680000E60C0F6000006F0F1FB2068000458BF91
:1036900010BD4AF2C950C0F60000BDE8104006F067
:1036A000E5BB00BF27A006F0E1FB20688007CED570
:1036B0002CA006F0DBFB20680007CBD530A006F07D
:1036C000D5FB20680006C8D535A006F0CFFB2068E2
:1036D000C005C5D54AF26460C0F6000006F0C6FB1E
:1036E00020684005BFD532A006F0C0FB2068000569
:1036F000BCD54AF24C60C0F6000006F0B7FB20686B
:10370000C004B6D54AF2F250C0F6000006F0AEFB97
:1037100020688004B0D54AF2D750C0F6000006F009
:10372000A5FB20684004B0D5A9E700BF0D0A5343AC
:10373000425F5348435352D5FBCCE5D6B53A2523D7
:10374000780D0A004D656D4D616E61676520657885
:1037500063657074696F6ED5FDD4DAD6B4D0D00DC0
:10376000000000004275734661756C7420657863D3
:10377000657074696F6ED5FDD4DAD6B4D0D00D0003
:1037800055736167654661756C7420657863657013
:1037900074696F6ED5FDD4DAD6B4D0D00D000000B8
:1037A000535643616C6CD5FDD4DAD6B4D0D00D003D
:1037B00070656E645356D5FDD4DAD6B4D0D00D0002
:1037C000074B19680868B0E8F04F80F30988BFF329
:1037D0006F8F4FF0000080F31188704700BF00BF6B
:1037E0009001022400000000B0B544F2004C48F201
:1037F000081EC5F6020C01250024C5F2001ECCF8F7
:103800000050CCF81040CCF81840CCF81C40CCF854
:103810002040CCF82840CCF82C40CCF8604044F64E
:103820001804C5F60204CEF8005054F80C5C25F0DC
:10383000040544F80C5C256845F44045256025687E
:10384000AD0409D42568AD045CBF25685FEA8545F1
:1038500002D42568AD04F2D5DCF800504FF0000E1C
:1038600047F6FF7445F48035CCF80050DCF8005082
:10387000AD0313D4DCF80050AD0311D4DCF80050D4
:10388000AD0311D4DCF80050AD034EF003050DD4A8
:10389000A5420EF1040EE9D108E000BF754605E02F
:1038A0004EF0010502E000BF4EF0020547F6FF743E
:1038B000A54208BFB0BDDCF82850013845F002052C
:1038C000CCF82850DCF8285045EA0111CCF8281033
:1038D000DCF830100843CCF830004FF60060DCF81C
:1038E0003010CFF6FF7000EB42200843CCF83000D8
:1038F0000020DCF83010CFF6FF7000EB03400843E7
:10390000CCF83000DCF8300040F08070CCF83000AB
:10391000DCF82C0040F00800CCF82C00DCF82C007F
:10392000CCF82C00DCF82C0040F44030CCF82C0013
:10393000DCF8000040F08070CCF80000DCF80000FB
:1039400080010CD4DCF8000080015CBFDCF80000D2
:103950005FEA801003D4DCF800008001EED5DCF8CB
:10396000280040F2B71140F4C830CCF82800DCF849
:1039700038000843CCF83800DCF8380040F4007018
:10398000CCF83800DCF8380040F08070CCF8380013
:10399000DCF82C00CCF82C00DCF82C00CCF82C0047
:1039A000DCF82C0040F40020CCF82C00DCF82C00D3
:1039B00040F40010CCF82C00DCF84C0020F00300A0
:1039C000CCF84C00DCF84C0040F00200CCF84C0085
:1039D000DCF8000040F08060CCF80000DCF800006B
:1039E00000010CD4DCF8000000015CBFDCF8000032
:1039F0005FEA001003D4DCF800000001EED5DCF82B
:103A0000180040F00800CCF81800DCF81800CCF8DA
:103A10001800DCF8100040F00300CCF81000DCF8CF
:103A2000100000F03800182811D0DCF8100000F069
:103A3000380018281EBFDCF8100000F038001828E5
:103A400005D0DCF8100000F038001828E7D142F269
:103A50000000C5F20020016841F002010160016828
:103A600041F020010160DCF8180040F04000CCF883
:103A70001800DCF81C0040F04000CCF81C00DCF81A
:103A80001C0040F48060CCF81C00DCF8200040F002
:103A90004000CCF82000DCF8000040F08000CCF8BA
:103AA0000000DCF8F40040F00200CCF8F40040F232
:103AB0002040C5F60000016841F001010160B0BD81
:103AC00010B540F2EC24C2F2024460680138606034
:103AD00010D002F00DFF6078012802D1A0680130FB
:103AE000A06005F099FC012808BF10BDBDE810409A
:103AF00005F0FAB80120207002F0FAFE6078012883
:103B0000EFD1EBE70000000010B542F20004C5F26F
:103B10000024FCF7DDFBFCF7FAFB206800F00F0047
:103B2000062804D82068072161F30300206044F2CE
:103B300000404EF67F53C5F60200CEF6F62301682C
:103B400041F0010101600021016102681A40026038
:103B50002268120704D52268072363F30302226058
:103B600040F200228161C161C0F2022201628262E0
:103B70000022C0F2FF12C26240F28022C0F20112A3
:103B8000026341638263C16302644164026822F498
:103B900080220260016641F20000C5F60040006824
:103BA000B1EB507F05D148F208100121C5F2001099
:103BB000016044F2000043F2D201C5F2002001602E
:103BC00010BD00000000000040F26020C2F2024080
:103BD0000430FEF769B8000010B540F2AC34C2F210
:103BE00002442068C168C9070BD040F23800C2F215
:103BF0000240006980472068002141626421C1625F
:103C0000E1606FF00101016110BD000000000000E3
:103C100010B540F6FF32C4F20002904202680FDC99
:103C2000B0F1804F1DD040F20043C4F2000398422F
:103C300017D040F60003C4F20003984211D014E0FC
:103C400040F60043C4F2000398420AD040F2004319
:103C5000C4F20103984204D00023C4F20103984245
:103C600003D122F070024B681A434FF6FF7343F6FC
:103C7000FF7CC4F20003C4F2010C984214DD6045DD
:103C800022DD44F20003C4F20103984234D044F62A
:103C90000003C4F2010398422ED044F20043C4F260
:103CA0000103984228D02BE040F2FF73C4F20003D6
:103CB000984215DCB0F1804F1ED040F20043C4F2B0
:103CC0000003984218D01BE00023C4F2010398427D
:103CD00012D040F20043C4F2010398420CD00FE02E
:103CE00040F60003C4F20003984205D040F60043BA
:103CF000C4F20003984203D122F44072CB681A4305
:103D000022F080024C696045D1F800E08B6842EAFD
:103D100004020260C362C0F828E013DD44F200022E
:103D2000C4F20102904218D044F60002C4F201022B
:103D3000904212D044F20042C4F2010290420CD0F0
:103D40000DE000BF0022C4F20102904205D040F213
:103D50000042C4F20102904201D1096901630121CC
:103D600041610169C90708BF10BD016921F0010166
:103D7000016110BD0000000070B544F61846C4F2A1
:103D800000067068800658BF70BD40F21874C2F219
:103D900002442046616F884740F2C625C2F20245C0
:103DA00068782A7829180130687040F2D6600A7263
:103DB00001F0BEFD3068012240F00800306020466E
:103DC0002946BDE87040FEF75FBC0000000000001F
:103DD000816A0A070CD4CA0715D18A071ED44A077C
:103DE00027D4CA0630D48A0639D44A0655D541E0CC
:103DF0000268D0F838C0536823F4004343EA0C0348
:103E00005360CA07E9D00268D0F82CC0536823F485
:103E1000003343EA0C0353608A07E0D50268D0F808
:103E200030C0536823F4803343EA0C0353604A07DD
:103E3000D7D50268D0F834C0536823F4802343EA0E
:103E40000C035360CA06CED50268D0F83CC0936814
:103E500023F4805343EA0C0393608A06C5D50268B5
:103E6000D0F840C0936823F4005343EA0C039360F6
:103E70004A0612D50268D0F844C0BCF5801F5368CA
:103E800023F4801343EA0C03536006D1536823F4F0
:103E9000C00C836C43EA0C035360090658BF70479B
:103EA0000168C06C4A6822F40022104348607047E1
:103EB000B0B582B004460020C4F89000FDF79CF82D
:103EC000216805460A68120737D54FF40011002211
:103ED0006FF07E40009020462B4601F045F958B324
:103EE000206850E8000F216820F0800041E80002BF
:103EF000F2B1206850E8000F216820F0800041E80E
:103F00000002002A1FBF206850E8000F216820F03F
:103F100080001CBF41E80002002A09D0206850E858
:103F2000000F216820F0800041E80002002AD7D16C
:103F30002020C4F8880062E021680868400765D541
:103F40004FF4800100226FF07E40009020462B4607
:103F500001F00AF9002859D0206850E8000F2168C4
:103F600020F4907041E80002F2B1206850E8000FA0
:103F7000216820F4907041E80002002A1FBF2068E9
:103F800050E8000F216820F490701CBF41E8000247
:103F9000002A09D0206850E8000F216820F49070B2
:103FA00041E80002002AD7D1206850E8020F2168BA
:103FB00020F0010041E80202F2B1206850E8020F4F
:103FC000216820F0010041E80202002A1FBF20689A
:103FD00050E8020F216820F001001CBF41E80202F6
:103FE000002A09D0206850E8020F216820F0010063
:103FF00041E80202002AD7D12020C4F88C00032017
:10400000002184F8841002B0B0BD00BF2020C4F8A5
:104010008800C4F88C000020E0662067002184F846
:10402000841002B0B0BD0000806B0021A0F85E10CB
:10403000A0F85610FDF718BFB0F860200168D0F85E
:104040008C30222B40F0A880496A836D114023F800
:10405000021B8365B0F85E100139A0F85E10B0F85D
:104060005E10002918BF7047016851E8001F026800
:1040700021F4907142E80013F3B1016851E8001F88
:10408000026821F4907142E80013002B1FBF016801
:1040900051E8001F026821F490711CBF42E8001330
:1040A000002B09D0016851E8001F026821F49071CB
:1040B00042E80013002BD7D1016851E8021F0268C3
:1040C00021F0010142E80213F3B1016851E8021F37
:1040D000026821F0010142E80213002B1FBF0168B2
:1040E00051E8021F026821F001011CBF42E80213DF
:1040F000002B09D0016851E8021F026821F001017C
:1041000042E80213002BD7D12021C0F88C100021E7
:104110004167016740F600420168C5F6000291421E
:1041200002D0496809023DD4C16E012964D1002141
:10413000C166016851E8001F026821F0100142E8E1
:104140000013F3B1016851E8001F026821F010016B
:1041500042E80013002B1FBF016851E8001F0268EE
:1041600021F010011CBF42E80013002B09D00168A8
:1041700051E8001F026821F0100142E80013002BF3
:10418000D7D10168CA69D20601D510220A62B0F8F7
:104190005C10FDF759BE00BF886940F008008861D7
:1041A000704700BF016851E8001F026821F080617C
:1041B00042E80013002BB7D0016851E8001F0268E5
:1041C00021F0806142E80013002B1FBF016851E815
:1041D000001F026821F080611CBF42E80013002B21
:1041E000A2D0016851E8001F026821F0806142E816
:1041F0000013002BD6D197E7FEF79ABA0000000013
:104200002DE9F04F81B004460368B0F86050DA69D8
:1042100018689968D4F88C70222F65D1B4F868308A
:10422000002B18BF12F0200266D1B4F85E000028FF
:104230005ED0B4F8681088425AD2206850E8020F65
:10424000216820F0805041E80202F2B1206850E875
:10425000020F216820F0805041E80202002A1FBFAF
:10426000206850E8020F216820F080501CBF41E810
:104270000202002A09D0206850E8020F216820F0CD
:10428000805041E80202002AD7D144F23900C0F63A
:1042900000006067206850E8000F216840F02000AF
:1042A00041E8000222B3206850E8000F216840F086
:1042B000200041E80002002A1FBF206850E8000FDC
:1042C000216840F020001CBF41E80002002A0FD006
:1042D000206850E8000F216840F0200041E800020B
:1042E000002AD7D104E000BF986940F00800986127
:1042F00001B0BDE8F08F00BF4FF6FE7640F6004BF0
:10430000CEF6FF7600F4807801F001074FF0000A46
:10431000C5F6000B08E000BF2046FEF709FA00BF13
:104320005FEA89607FF581AF2068A16D426A2A400B
:1043300021F8022BA165B4F85E100139A4F85E10D3
:10434000D0F81C905FEA497131D05FEAC97218BF9A
:10435000B8F1000F04D15FEA89720CD414E000BFF9
:1043600001220262D4F8902042F00102C4F89020A9
:104370005FEA897208D53FB102220262D4F8902028
:1043800042F00402C4F89020002908D53FB104216E
:104390000162D4F8900040F00200C4F89000D4F814
:1043A000900020B12046FDF75FFDC4F890A0B4F85E
:1043B0005E000028B4D1206850E8000F216820F486
:1043C000807041E80002FAB1206850E8000F2168CF
:1043D00020F4807041E80002002A1FBF206850E8E6
:1043E000000F216820F480701CBF41E80002002A01
:1043F0000AD0206850E8000F216820F4807041E85E
:104400000002002AD7D100BF206850E8020F2168BF
:10441000304041E80202DAB1206850E8020F21681A
:10442000304041E80202002A1FBF206850E8020F16
:10443000216830401CBF41E80202002A08D02068F1
:1044400050E8020F2168304041E80202002ADBD127
:104450002020C4F88C00C4F874A0C4F870A02068B0
:10446000584502D0406800023AD4E06E01287FF43B
:1044700053AFC4F86CA0206850E8000F216820F00A
:10448000100041E80002F2B1206850E8000F2168F6
:1044900020F0100041E80002002A1FBF206850E809
:1044A000000F216820F010001CBF41E80002002A24
:1044B00009D0206850E8000F216820F0100041E882
:1044C0000002002AD7D12068C169C90601D5102190
:1044D0000162B4F85C102046FDF7B6FC20E700BF8F
:1044E000206850E8000F216820F0806041E8000259
:1044F000002ABAD0206850E8000F216820F08060C0
:1045000041E80002002A1FBF206850E8000F216820
:1045100020F080601CBF41E80002002AA5D020687E
:1045200050E8000F216820F0806041E80002002A76
:10453000D6D19AE700000000B0F860100268D0F809
:104540008C30222B40F0AA80526A836D1140197082
:10455000816D01318165B0F85E100139A0F85E10FF
:10456000B0F85E10002918BF7047016851E8001FBD
:10457000026821F4907142E80013FBB1016851E830
:10458000001F026821F4907142E80013002B1FBF46
:10459000016851E8001F026821F490711CBF42E8D5
:1045A0000013002B0AD0016851E8001F026821F4B3
:1045B000907142E80013002BD7D100BF016851E889
:1045C000021F026821F0010142E80213F3B1016801
:1045D00051E8021F026821F0010142E80213002B9A
:1045E0001FBF016851E8021F026821F001011CBFD2
:1045F00042E80213002B09D0016851E8021F02684B
:1046000021F0010142E80213002BD7D12021C0F88C
:104610008C1000214167016740F600420168C5F631
:104620000002914202D0496809023DD4C16E0129BD
:1046300064D10021C166016851E8001F026821F0C1
:10464000100142E80013F3B1016851E8001F02684D
:1046500021F0100142E80013002B1FBF016851E850
:10466000001F026821F010011CBF42E80013002B5C
:1046700009D0016851E8001F026821F0100142E8EA
:104680000013002BD7D10168CA69D20601D51022C8
:104690000A62B0F85C10FDF7D7BB00BF906940F02C
:1046A00008009061704700BF016851E8001F026870
:1046B00021F0806142E80013002BB7D0016851E877
:1046C000001F026821F0806142E80013002B1FBF29
:1046D000016851E8001F026821F080611CBF42E8B8
:1046E0000013002BA2D0016851E8001F026821F0DE
:1046F000806142E80013002BD6D197E7FEF718B887
:104700002DE9F04F81B004460368B0F86050DA69D3
:1047100018689968D4F88C70222F65D1B4F8683085
:10472000002B18BF12F0200266D1B4F85E000028FA
:104730005ED0B4F8681088425AD2206850E8020F60
:10474000216820F0805041E80202F2B1206850E870
:10475000020F216820F0805041E80202002A1FBFAA
:10476000206850E8020F216820F080501CBF41E80B
:104770000202002A09D0206850E8020F216820F0C8
:10478000805041E80202002AD7D144F23950C0F6E5
:1047900000006067206850E8000F216840F02000AA
:1047A00041E8000222B3206850E8000F216840F081
:1047B000200041E80002002A1FBF206850E8000FD7
:1047C000216840F020001CBF41E80002002A0FD001
:1047D000206850E8000F216840F0200041E8000206
:1047E000002AD7D104E000BF986940F00800986122
:1047F00001B0BDE8F08F00BF4FF6FE7640F6004BEB
:10480000CEF6FF7600F4807801F001074FF0000A41
:10481000C5F6000B08E000BF2046FDF789FF00BF8A
:104820005FEA89607FF581AF2068A16D406A28400A
:104830000870A06D0130A0652068B4F85E100139E1
:10484000A4F85E10D0F81C905FEA497131D05FEA9D
:10485000C97218BFB8F1000F04D15FEA89720CD495
:1048600014E000BF01220262D4F8902042F001025D
:10487000C4F890205FEA897208D53FB10222026233
:10488000D4F8902042F00402C4F89020002908D502
:104890003FB104210162D4F8900040F00200C4F856
:1048A0009000D4F8900020B12046FDF7DDFAC4F85E
:1048B00090A0B4F85E000028B2D1206850E8000F44
:1048C000216820F4807041E80002FAB1206850E8C5
:1048D000000F216820F4807041E80002002A1FBF09
:1048E000206850E8000F216820F480701CBF41E868
:1048F0000002002A0AD0206850E8000F216820F446
:10490000807041E80002002AD7D100BF206850E83B
:10491000020F2168304041E80202DAB1206850E815
:10492000020F2168304041E80202002A1FBF2068C0
:1049300050E8020F216830401CBF41E80202002A03
:1049400008D0206850E8020F2168304041E8020298
:10495000002ADBD12020C4F88C00C4F874A0C4F86D
:1049600070A02068584502D0406800023AD4E06E3A
:1049700001287FF451AFC4F86CA0206850E8000F04
:10498000216820F0100041E80002F2B1206850E8F0
:10499000000F216820F0100041E80002002A1FBF2C
:1049A000206850E8000F216820F010001CBF41E88B
:1049B0000002002A09D0206850E8000F216820F08A
:1049C000100041E80002002AD7D12068C169C90659
:1049D00001D510210162B4F85C102046FDF734FACD
:1049E0001EE700BF206850E8000F216820F08060BB
:1049F00041E80002002ABAD0206850E8000F216880
:104A000020F0806041E80002002A1FBF206850E8C3
:104A1000000F216820F080601CBF41E80002002ADE
:104A2000A5D0206850E8000F216820F0806041E8A0
:104A30000002002AD6D19AE7F0B583B00446006898
:104A400046F6F31640F6004E22696569D4E9021372
:104A50000A43E7690168CCF6FF762A4331401143E7
:104A6000C5F6000E394301604168704521F440519C
:104A700044F2544C41EA03014160A2694FF2FF4302
:104A80001CBF216A0A438168C1F2FF131940C5F6B1
:104A9000020C1143816047F2FF72C16AC4F2000246
:104AA00021F00F01656A90424FF0800341EA050151
:104AB000C16221DD40F6FF71C4F2010188422FDDA1
:104AC000704500F0FB8041F20041C4F201018842D0
:104AD00005D041F20001C4F20101884247D1DCF85F
:104AE0000010C1F3C202062A80F0F08049F69061FE
:104AF000C0F6000139E000BF44F6FF31C4F2000106
:104B000088421BDC44F20041C4F20001884221D0FB
:104B100044F60001C4F2000188421BD027E000BF28
:104B200047F60001C4F20001884213D047F6004165
:104B3000C4F2000188420DD019E000BF44F60041E4
:104B4000C4F20001884205D045F20001C4F2000120
:104B500088420CD1DCF8001001F00702062A80F030
:104B6000B58049F69661C0F600018B181B78704538
:104B700040F60010C0F23D0000F0B080B7F5004FE5
:104B800040F04E80402B4FF0010100F2A281DFE89F
:104B900013F041001D01A001A0012301A001A0010B
:104BA000A0012B01A001A001A001A001A001A00172
:104BB000A0013301A001A001A001A001A001A0015A
:104BC000A001A001A001A001A001A001A001A001DD
:104BD000A0014301A001A001A001A001A001A0012A
:104BE000A001A001A001A001A001A001A001A001BD
:104BF000A001A001A001A001A001A001A001A001AD
:104C0000A001A001A001A001A001A001A001A0019C
:104C1000A0014101FCF7A4FE002840F0DA80E9E0A1
:104C2000402B4FF0010100F25481DFE813F0410006
:104C30001301520152011901520152015201210185
:104C400052015201520152015201520152012901F5
:104C500052015201520152015201520152015201BC
:104C600052015201520152015201520152013901C5
:104C7000520152015201520152015201520152019C
:104C8000520152015201520152015201520152018C
:104C9000520152015201520152015201520152017C
:104CA0005201520152015201520152015201370187
:104CB000FCF756FE002840F0D080DFE0DCF804105E
:104CC00001F00702062A01D286A14EE78023704533
:104CD00040F60010C0F23D007FF450AF9A1E012153
:104CE0001E2A27D8DFE812F02000F5002C00F5007E
:104CF000F500F5003400F500F500F500F500F500CD
:104D0000F500F5003C00F500F500F500F500F500B4
:104D1000F500F500F500F500F500F500F500F500EB
:104D2000F500F500490000BFFCF7AEFCB0B1656AC4
:104D300023E000BF402B40F0CC804FF400401CE04B
:104D40006846FCF7B5FC01980028F0D106E000BFEA
:104D50006846FCF745FD01980028E8D10021B8E03D
:104D60005CF8540C800649F20000C0F2D03004D543
:104D70005CF8541CC1F3C101C84049F6AC616268DB
:104D8000C0F6000131F81510B0FBF1F002EB420162
:104D900088424FF00101C0F09C801303984200F25A
:104DA0009880010E0023000210EB520041F1000137
:104DB000FBF7CAFA4FF60052A0F54071C0F20F029D
:104DC0009142C0F08080012183E000BFFCF7F8FD34
:104DD00080B1656A20E000BF6846FCF769FC019875
:104DE0000028F6D106E000BF6846FCF7F9FC019800
:104DF0000028EED100216CE05CF8540C800649F2EA
:104E00000000C0F2D03007D55CF8541CC1F3C101DA
:104E1000C84001E04FF4004049F6AC61C0F6000123
:104E200031F81510B0FBF1F061684A0802EB400060
:104E30004FF6EF72B0FBF1F0A0F11001914207D8EC
:104E40004FF6F0710140C0F3420008443BE000BF60
:104E500001213EE0FCF7B4FD80B1656A20E000BFAF
:104E60006846FCF725FC01980028F6D106E000BF53
:104E70006846FCF7B5FC01980028EED1002128E037
:104E80005CF8540C800649F20000C0F2D03007D51F
:104E90005CF8541CC1F3C101C84001E04FF400406C
:104EA00049F6AC616268C0F6000131F81510B0FB3C
:104EB000F1F000EB5200B0FBF2F0A0F110014FF660
:104EC000EF72914204D82168C860002101E000BF60
:104ED00001214FF00110A0660020C4E91D00084622
:104EE00003B0F0BD020408102040000000000000E4
:104EF00081650023A0F85C20A0F85E2081684367EC
:104F000051B1B1F1805F0BD0B1F5805F0CD1016977
:104F100021B940F2FF110AE0016939B9FF2106E029
:104F2000016919B13F2102E0002100E07F21A0F8D2
:104F300060100021C0F890102221C0F88C10016888
:104F400051E8021FD0F800C041F001014CE8021303
:104F50000BB3016851E8021FD0F800C041F0010115
:104F60004CE80213002B1FBF016851E8021FD0F864
:104F700000C041F001011CBF4CE80213002B0AD015
:104F8000016851E8021FD0F800C041F001014CE86F
:104F90000213002BD3D1416EB1F1005F03D1B0F801
:104FA0006810914240D98168B1F5805F016907D1ED
:104FB000002947D044F23951C0F60001416706E0AC
:104FC00044F239520029C0F6000242673FD001681E
:104FD00051E8001F026841F4907142E80013002B71
:104FE00000F0BE80016851E8001F026841F4907132
:104FF00042E80013002B1FBF016851E8001F026840
:1050000041F490711CBF42E80013002B00F0A8800F
:10501000016851E8001F026841F4907142E80013F2
:10502000002BD4D19CE000BF8168B1F5805F01699D
:1050300038D1002966D044F20171C0F60001416701
:1050400036E000BF44F23901C0F600014167016853
:1050500051E8001F026841F0200142E80013002BD4
:105060007ED0016851E8001F026841F0200142E84B
:105070000013002B1FBF016851E8001F026841F0B8
:1050800020011CBF42E80013002B69D0016851E8E1
:10509000001F026841F0200142E80013002BD6D126
:1050A0005EE000BF44F20172C0F60002426779B3CD
:1050B000016851E8001F026841F4807142E8001362
:1050C00033B3016851E8001F026841F4807142E87F
:1050D0000013002B1FBF016851E8001F026841F454
:1050E00080711CBF42E80013002B11D0016851E809
:1050F000001F026841F4807142E80013002BD7D1F1
:1051000006E000BF44F20121C0F60001416700BF84
:10511000016851E8021F026841F0805142E8021321
:10512000F3B1016851E8021F026841F0805142E882
:105130000213002B1FBF016851E8021F026841F0F3
:1051400080511CBF42E80213002B09D0016851E8CE
:10515000021F026841F0805142E80213002BD7D1B0
:1051600000207047000000002DE9F04180460068F3
:105170000D46C7693940491BB1FA81F1490991428D
:1051800025D1069C34B31646611C29D1C16929403A
:10519000491BB1FA81F14909B14218D1C1692940CD
:1051A000491BB1FA81F14909B14201BFC1692940E6
:1051B000491BB1FA81F104BF4909B14207D1C16964
:1051C0002940491BB1FA81F14909B142DED00020E2
:1051D000BDE8F081FBF710FF0320BDE8F08100BFC0
:1051E0001F4607E0C0692840401BB0FA80F0400924
:1051F000B042ECD1FBF700FFC01BA04200F2B6802A
:10520000D8F8000001684907ECD5402D18BF802D63
:10521000E8D0C169090700F1AD80C1690905E1D590
:105220004FF400610162D8F8000050E8000FD8F890
:10523000001020F4907041E8000222B3D8F800007A
:1052400050E8000FD8F8001020F4907041E80002F8
:10525000002A1FBFD8F8000050E8000FD8F800104F
:1052600020F490701CBF41E80002002A0BD0D8F84F
:10527000000050E8000FD8F8001020F4907041E8CA
:105280000002002ACFD14FF6FE70CEF6FF70D8F89C
:10529000001051E8021FD8F80020014042E8021334
:1052A0000BB3D8F8001051E8021FD8F800200140D5
:1052B00042E80213002B1FBFD8F8001051E8021F6C
:1052C000D8F8002001401CBF42E80213002B0AD08E
:1052D000D8F8001051E8021FD8F80020014042E839
:1052E0000213002BD3D1D8F86C0001282FD1D8F8A5
:1052F000000050E8000FD8F8001020F0100041E83E
:10530000000222B3D8F8000050E8000FD8F80010CF
:1053100020F0100041E80002002A1FBFD8F800006A
:1053200050E8000FD8F8001020F010001CBF41E832
:105330000002002A0BD0D8F8000050E8000FD8F87F
:10534000001020F0100041E80002002ACFD12020F8
:10535000C8F88C000021C8F86C10C8F87410C8F8A0
:105360009000032088F88410BDE8F0810320BDE898
:10537000F08100BF08210162D8F8000050E8000F5A
:10538000D8F8001020F4907041E8000222B3D8F859
:10539000000050E8000FD8F8001020F4907041E8A9
:1053A0000002002A1FBFD8F8000050E8000FD8F80C
:1053B000001020F490701CBF41E80002002A0BD0BE
:1053C000D8F8000050E8000FD8F8001020F49070D2
:1053D00041E80002002ACFD14FF6FE70CEF6FF70F2
:1053E000D8F8001051E8021FD8F80020014042E828
:1053F00002130BB3D8F8001051E8021FD8F80020B0
:10540000014042E80213002B1FBFD8F8001051E8FA
:10541000021FD8F8002001401CBF42E80213002BF5
:105420000AD0D8F8001051E8021FD8F80020014037
:1054300042E80213002BD3D1D8F86C0001282FD1F9
:10544000D8F8000050E8000FD8F8001020F0100045
:1054500041E8000222B3D8F8000050E8000FD8F865
:10546000001020F0100041E80002002A1FBFD8F809
:10547000000050E8000FD8F8001020F010001CBF0A
:1054800041E80002002A0BD0D8F8000050E8000FD5
:10549000D8F8001020F0100041E80002002ACFD117
:1054A0002020C8F88C000020C8F86C00C8F87400F0
:1054B0000821C8F8901088F884000120BDE8F08128
:1054C00040F28460C2F20240FCF7D2BC000000004F
:1054D000FDF792FEFEE700002DE9F04740F20008DC
:1054E0000E46C2F2004807460821002240464FF00F
:1054F000000900F089FC8246C0F804900BE000BF70
:1055000008210022404600F07FFC0660C0F80490AD
:10551000786027466E6835463C4667686E6800BF0F
:10552000B7B3CEB17888B6F9021002B28A4245DC30
:105530005AD08A42F4DA3E68504600BF41680746B6
:10554000D1B148680F46B8B141680746A1B1486873
:105550000F460028F2D10FE03E68504641680746EA
:1055600051B148680F4638B14168074621B14868D3
:105570000F460028F2D100BF08210022404600F06B
:1055800043FC0660C0F8049078606468C5E700BF1B
:10559000002E4DD036685046416807460029AFD0EE
:1055A00048680F460028ABD0416807460029A7D0BD
:1055B00048680F460028EFD1A2E700BF3668504682
:1055C0004168074600293FF49BAF48680F46002812
:1055D0003FF496AF4168074600293FF491AF486811
:1055E0000F460028ECD18BE7B7F90010B6F9002080
:1055F00089183FF490AF89B2524600BF53681646EF
:105600004BB15A681E4632B1536816461BB15A68F0
:105610001E46002AF2D141EA0047082100224046F6
:1056200000F0F2FBC0E9007970606E68676872E7AD
:105630005046BDE8F087000010B54EF60C54CEF28F
:10564000000400F071F800F03BFB2068A16941F410
:105650008021A161A16941F40031A161A16941F4F6
:105660008031A161A16841F01001A160A16841F001
:105670000201A160D4F8281241F00041C4F82812B8
:10568000D4F8281241F08041C4F828124FF6FF01E7
:10569000084040F20031C0F2FA510843206020680F
:1056A00000F4E060B0F5407F11D0206800F4E060C5
:1056B000B0F5407F1EBF206800F4E060B0F5407F89
:1056C00005D0206800F4E060B0F5407FE7D1C0204D
:1056D000052102220423FEF787F8FDF711FCFDF7F0
:1056E0001BFBFDF761FBFDF773F901F05DF9F0209D
:1056F000BDE8104002F0BCBA40F2B021C2F2024153
:105700004A7A887A904201D100207047431C01EB0D
:10571000000CD8B2B0F10B029CF80B0018BF1A466F
:105720008A72704700000000F0B54EF660704FF6C8
:10573000B45CCEF20000CFF6FF7CBFF34F8FBFF317
:105740006F8F002140F8101CBFF34F8FBFF36F8F96
:1057500050F80C104FF6206E41F4003140F80C1058
:105760004FF62461CFF6FF7ECFF6FF71BFF34F8F68
:10577000BFF36F8F425822F001024250BFF34F8FA8
:1057800050F80E10C1F34E33012103E0002BA3F1BA
:10579000010337D050F80E5001EBD502C5F3C90410
:1057A00012F003064FEA431214D0ED08012E42EA2C
:1057B00085750560A4F101050DD042EA8575022EBC
:1057C0000560A4F1020506D042EA85750560E51E74
:1057D00001E000BF2546032CD8D36E1E85F00207DA
:1057E00042EA8574013542EA867642EA877742EAE0
:1057F000857200BF043D0460066007600260F9D155
:10580000C4E700BFBFF34F8F50F80C1041F4803154
:1058100040F80C10BFF34F8FBFF36F8FF0BD000047
:1058200041F21C01C4F20101C8600A68520609D4A1
:105830000A6852065CBF0A685FEA426202D40A68DC
:105840005206F2D57047000080B582B040F2801C4D
:105850000120009046F67940C2F2024CC0F60000EA
:1058600006A1802200230CF1080CCDF804C003F03F
:10587000EBFB02B0BDE8804003F0D2B873746172F4
:10588000745F7461736B0000B0B54FEA410E03247E
:1058900004FA0EF40568A543056002FA0EF20568E5
:1058A0002A43026003FA01F243681A4342608368A4
:1058B000049AA343836002FA0EF283681A4382605B
:1058C000C368059AA343C3606FF01F03242503EB4D
:1058D0008103082902FA0EF2DDF818C038BF20252E
:1058E000C46838BF8B0044EA0201C1600CFA03F1BE
:1058F000425911434151B0BD40F2EC21C2F2024184
:105900008878012812D12420C4F2000000680A69B6
:1059100090424FF0000038BF70474FF0804213684C
:1059200023F0010313608870012070470020704746
:1059300024210022C4F2000101230A6040F2EC217C
:10594000C2F202414FF080428B70136843F00103B2
:10595000136008617047000080B5002000F038FF38
:10596000FFF76AFE40F200004FF40031C2F200403F
:1059700000F0AAFA01F0DCF9FFF766FF002080BD15
:105980002DE9F04F83B0FFF7B7FF002800F08181C9
:1059900040F2C629C2F2024999F801E0BEF1000FB7
:1059A00000F07481AEF1010049F6E46449F6E47B4D
:1059B0000EF0030C09F108080328C0F60004C0F635
:1059C000000B09D2FF20002500234246FF21BCF135
:1059D000000F50D16CE000BF4246FF204FF0000A9C
:1059E0000EF0FC0512F8043B12F8031C4340E65C81
:1059F000704012F8026C48401BF80310235C1BF83F
:105A000000005940714012F8016C635C584086EA0E
:105A100000031BF801000AF104011FFA81FAE65C99
:105A20001BF80330AA451FD012F8047B70400431E4
:105A3000784012F8037C265C1BF8000073407B4022
:105A400012F8027CE65C1BF803307040784012F8D4
:105A5000017C265C1BF8000073408EB27B40AE4296
:105A6000E65C1BF80330DFD186EA000518462946BC
:105A7000BCF1000F1CD01378BCF1010F81EA0301C7
:105A8000655C1BF8013085EA000511D05078BCF147
:105A9000020F80EA0500215C81EA03051BF8003053
:105AA00006D090786840215C81EA03051BF800303D
:105AB00043EA0520002840F0E980BEF1040FC0F061
:105AC000E58099F80800012840F0E08072A004F019
:105AD000CDF999F8010060B1002675A509EB060023
