:020000040800F2
:1000000048070020290200081518000845110008BB
:10001000111800081F040008ED1800080000000077
:100020000000000000000000000000001B18000895
:100030002304000800000000191800081D1800081B
:10004000430200084302000843020008430200087C
:10005000430200084302000843020008430200086C
:10006000430200084302000843020008430200085C
:10007000430200084302000843020008430200084C
:10008000430200084302000843020008430200083C
:10009000430200084302000843020008430200082C
:1000A000430200084302000843020008430200081C
:1000B000430200084302000843020008430200080C
:1000C00043020008430200084302000843020008FC
:1000D00043020008430200084302000843020008EC
:1000E00043020008430200084302000843020008DC
:1000F00043020008430200084302000843020008CC
:1001000043020008430200084302000843020008BB
:1001100043020008430200084302000843020008AB
:10012000430200084302000843020008430200089B
:10013000430200084302000843020008430200088B
:10014000430200084302000843020008430200087B
:10015000430200084302000843020008430200086B
:10016000430200084302000843020008430200085B
:100170004302000843020008430200080000000098
:10018000430200084302000800F002F800F03CF8C7
:100190000AA090E8000C82448344AAF10107DA45E2
:1001A00001D100F031F8AFF2090EBAE80F0013F0F8
:1001B000010F18BFFB1A43F0010318473C18000059
:1001C0005C180000103A24BF78C878C1FAD85207EA
:1001D00024BF30C830C144BF04680C6070470000C1
:1001E0000023002400250026103A28BF78C1FBD840
:1001F000520728BF30C148BF0B6070471FB501F0E0
:10020000E9FB1FBD10B510BD00F0CFF81146FFF798
:10021000F5FF01F089FB00F0EDF803B4FFF7F2FF02
:1002200003BC00F0F5F80000094880470948004782
:10023000FEE7FEE7FEE7FEE7FEE7FEE7FEE7FEE796
:10024000FEE7FEE704480549054A064B70470000F3
:10025000D91800088901000848010020480700203B
:10026000480300204803002053EA020C00F0698094
:100270002DE9F04B4FF00006002B1FBFB3FA83F5BA
:1002800003FA05F424FA05F65E4012BF1643B2FAEB
:1002900082F502FA05F4C5F120051EBF22FA05FC1D
:1002A00044EA0C04203556EA044C4FEA144418BFC3
:1002B000641C4FF000084FF00009904271EB030CF2
:1002C00039D3002919BFB1FA81F701FA07F6B0FA5C
:1002D00080F700FA07F6C7F120071EBF20FA07FCD7
:1002E00046EA0C062037B6FBF4FCA7EB0507103FE7
:1002F00007F01F0BCBF120060CFA0BFB2CFA06F6CD
:1003000044BFB3460026202FA4BF5E464FF0000B2B
:100310005BEA060C08BF4FF0010B19EB0B09ABFBB6
:10032000027C48EB0608C01B06FB02CC0BFB03CC8F
:1003300071EB0C01C1E70B46024641464846BDE859
:10034000F08B13B54FF000004FF00001AFF30080C9
:10035000BDE81C4070474FF0000200B513469446BC
:100360009646203922BFA0E80C50A0E80C50B1F10D
:100370002001BFF4F7AF090728BFA0E80C5048BF21
:100380000CC05DF804EB890028BF40F8042B08BFBF
:10039000704748BF20F8022B11F0804F18BF00F8BB
:1003A000012B7047704770477047754600F02CF876
:1003B000AE4605006946534620F00700854618B052
:1003C00020B5FFF73FFFBDE820404FF000064FF09B
:1003D00000074FF000084FF0000B21F00701AC467A
:1003E000ACE8C009ACE8C009ACE8C009ACE8C00999
:1003F0008D46704710B50446AFF300802046BDE837
:100400001040FFF70ABF000000487047E8000020D6
:1004100001491820ABBEFEE726000200704700BF6E
:10042000FEE7704710B503461C4603E04FF47A70B0
:1004300000F005F8201EA4F10104F7D110BDA82199
:1004400041434FF0E022516100219161052111618A
:1004500000BF4FF0E021096901F480310029F8D094
:1004600004214FF0E0221161704772B600BFFEE731
:1004700070B50446B3F5804F13D1D1E9000540EAC9
:1004800005108D6840EA05208D6928438D8940EA72
:10049000054054F82250064E3540284344F82200C7
:1004A00003E06FF0704044F82200002070BD0000AF
:1004B0000000F0CF70B50246086852F8200020F026
:1004C00001000E6842F826008868082801D1402300
:1004D00000E00023486818438E683043CE683043FC
:1004E0000E6930434E693043CE6930430E6A304363
:1004F0004E6A30438E6A3043CE6A30430E6B40EA18
:10050000060488690443C86B0443074D45F48065BD
:1005100045F4E025086852F82000A84320430E68FF
:1005200042F82600002070BD7FFB080010B503468E
:10053000D1E9000440EA04108C6840EA04208C8968
:1005400040EA0444088A401E44EA0054087D801EA4
:1005500044EA00608C692043541C53F8244004F0A2
:1005600040442043541C43F82400002010BD0000E8
:1005700000B587B0142102A8FFF7EDFE2A480068F5
:1005800008B107B000BD01202749086000BF002066
:1005900001902648006840F00100244908600846A0
:1005A000006800F00100019000BF00BF88140290B5
:1005B0000220039001200490032005900C20069057
:1005C00002A91B4800F03CF84FF680700290022010
:1005D000039001200490032005900C20069002A9AE
:1005E000144800F02DF84CF2337002900220039072
:1005F00001200490032005900C20069002A90E48CB
:1006000000F01EF84FF48050029002200390012069
:100610000490032005900C20069002A9074800F0E2
:100620000FF800BFADE70000080000203838024096
:100630000014024000100240000C0240001802406A
:10064000F8B502460B460025002400200021D6E024
:10065000012606FA01F51E6806EA0504AC4274D1CB
:100660001E7906F00306012E04D01E7906F003065B
:10067000022E13D190684F000326BE40B0434F00B6
:10068000DE68BE4030439060506801268E40B04323
:100690001E79C6F300168E40304350601E7906F076
:1006A0000306032E09D0D0684F000326BE40B04396
:1006B0004F009E68BE403043D0601E7906F00306AE
:1006C000022E13D1CF0802F1200656F827004E075C
:1006D000F70E0F26BE40B0434F07FF0E1E69BE4007
:1006E0003043CF0802F1200646F8270010684F007B
:1006F0000326BE40B0431E7906F003064F00BE40FD
:10070000304310605E6806F44036002E76D000BF9D
:10071000002600963C4E366846F480463A4F3E60CE
:100720003E46366806F48046009600BF00BF374E4E
:100730008F0856F827008E07370F0F26BE40B043AC
:10074000334EB24202D1002624E057E0314EB2428D
:1007500001D101261EE0304EB24201D1022619E03D
:100760002E4EB24201D1032614E02D4EB24201D1E9
:1007700004260FE02B4EB24201D105260AE02A4E94
:10078000B24201D1062605E0284EB24201D1072629
:1007900000E008268F073F0FBE4030431B4E8F08F6
:1007A00046F82700224E3068A0435E6806F48016A3
:1007B00006B120431E4E3060361D3068A0435E688F
:1007C00006F4001606B12043194E361D3060184E4F
:1007D000361F3068A0435E6806F4003606B1204339
:1007E000134E361F3060361F3068A0435E6806F433
:1007F000803606B120430E4E083E3060491C102959
:10080000FFF426AFF8BD000044380240083801402C
:10081000000002400004024000080240000C0240B8
:10082000001002400014024000180240001C024068
:10083000083C01400AB1816101E00B04836170470B
:10084000014800687047000010000020034800685D
:1008500003490978084401490860704710000020E6
:100860001800002010B50D48006840F400700B49D6
:1008700008600846006840F4806008600846006828
:1008800040F480700860032000F092F80F2000F020
:1008900007F800F02BF8002010BD0000003C0240DB
:1008A00070B504460E4800784FF47A71B1FBF0F051
:1008B0000C490968B1FBF0F5284600F029FC08B1A5
:1008C000012070BD102C07D200222146501E00F0DE
:1008D00031F80548046001E00120F2E70020F0E76C
:1008E000180000201C0000201400002008B500BFE4
:1008F000002000900E48006840F480400C490860D9
:100900000846006800F48040009000BF00BF00BFB0
:1009100000200090081F006840F08050091F086008
:100920000846006800F08050009000BF00BF08BD7E
:10093000443802402DE9F05F80460D4616460027F8
:1009400000F0D6FF074639462A46334601F0070035
:10095000C0F1070ABAF1040F02D94FF0040A01E00E
:10096000C0F1070AD14600F1040ABAF1070F02D21A
:100970004FF0000A01E0A0F1030AD4464FF0010A4B
:100980000AFA09FAAAF1010A0AEA020A0AFA0CFAB0
:100990004FF0010B0BFA0CFBABF1010B0BEA030B55
:1009A0004AEA0B042146404600F0AAFFBDE8F09F4A
:1009B00000BF00F00702064B19684FF6FF0319400D
:1009C000044B0B4343EA0221014B196000BF7047FF
:1009D0000CED00E00000FA0570B504460D460CB9B8
:1009E000012070BD5848006800F00700A84209D2F5
:1009F00055490D700846006800F00700A84201D074
:100A00000120EEE7207800F0020002281DD12078B6
:100A100000F00400042805D14C48006840F4E05080
:100A20004A490860207800F00800082805D14748A6
:100A3000006840F46040454908604448006820F080
:100A4000F000A168084341490860207800F00100E7
:100A5000A8B36068012807D13C4808380068C0F393
:100A60004040B8B90120BCE76068022802D0606845
:100A7000032807D1354808380068C0F3406048B9FA
:100A80000120AEE7314808380068C0F3400008B9DB
:100A90000120A6E72D48006820F0030061680843A4
:100AA0002A490860FFF7CCFE064609E0FFF7C8FEBA
:100AB000801B41F28831884202D9032091E707E088
:100AC0002248006800F00C006168B0EB810FEDD1A6
:100AD0001D48006800F00700A84209D91A490D70A6
:100AE0000846006800F00700A84201D0012078E71E
:100AF000207800F00400042807D11448006820F48E
:100B0000E050E168084311490860207800F00800CF
:100B1000082808D10D48006820F46040216940EAA7
:100B2000C1000A49086000F019F808490968C1F3D2
:100B30000311074A515CC84006490860064800682E
:100B4000FFF7AEFE00204CE7003C024008380240B0
:100B5000DE1900081C000020140000202DE9F047D9
:100B6000002400250026A1462548006800F00C005E
:100B700020B1042805D008283AD105E0DFF8849098
:100B800039E0DFF8849036E01D48001F006800F06F
:100B90003F041B48001F006800F4800078B11A4829
:100BA0001749091F0968C1F38811A0FB01700146AC
:100BB000224600233846FFF757FB05460EE0114852
:100BC0000F49091F0968C1F38811A0FB0170014694
:100BD000224600233846FFF747FB05460848001F1A
:100BE0000068C0F30140401C4600B5FBF6F902E086
:100BF000DFF8109000BF00BF4846BDE8F087000056
:100C0000083802400024F40040787D01F8B504461D
:100C10000CB90120F8BD207800F00100002874D044
:100C2000F948006800F00C0004280DD0F648006870
:100C300000F00C00082813D1F348001F006800F4EE
:100C40008000B0F5800F0BD1EF4808380068C0F382
:100C50004040002859D06068002856D10120D9E7CB
:100C600000BF6068B0F5803F08D1E74808380068E9
:100C700040F48030E449083908601EE06068B0F54F
:100C8000A02F0DD1E0480838006840F48020DE49EC
:100C9000083908600846006840F4803008600CE0BD
:100CA000D9480838006820F48030D74908390860EE
:100CB0000846006820F48020086000BF606890B19A
:100CC000FFF7BEFD054606E0FFF7BAFD401B6428AE
:100CD00001D903209EE7CC4808380068C0F34040A3
:100CE0000028F1D011E0FFF7ABFD054606E0FFF765
:100CF000A7FD401B642801D903208BE7C2480838B0
:100D00000068C0F340400028F1D1207800F00200D4
:100D100002285FD1BC48006800F00C0058B1BA4806
:100D2000006800F00C0008281CD1B748001F0068BC
:100D300000F48000B0B9B44808380068C0F340003F
:100D400020B1E068012801D0012063E7AE480838EF
:100D5000006820F0F800216940EAC100AA4908397A
:100D6000086037E0E06800B30120A8490860FFF799
:100D700067FD054606E0FFF763FD401B022801D929
:100D8000032047E7A04808380068C0F34000002867
:100D9000F1D09D480838006820F0F800216940EA49
:100DA000C10099490839086014E00020974908609B
:100DB000FFF746FD054606E0FFF742FD401B02280F
:100DC00001D9032026E7904808380068C0F34000A6
:100DD0000028F1D1207800F0080008282CD16069A3
:100DE000A8B101208A490860FFF72AFD054606E000
:100DF000FFF726FD401B022801D903200AE782489D
:100E00006C300068C0F340000028F1D014E00020EE
:100E10007F490860FFF714FD054606E0FFF710FD67
:100E2000401B022801D90320F4E677486C300068A3
:100E3000C0F340000028F1D1207800F0040004281D
:100E400070D1002770483830006800F0805090B9A9
:100E500000BF002000906C483830006840F080509F
:100E60006949383108600846006800F080500090F9
:100E700000BF00BF01276748006800F48070B0B968
:100E80006448006840F4807062490860FFF7D8FC4D
:100E9000054606E0FFF7D4FC401B022801D90320D9
:100EA000B8E65C48006800F480700028F2D000BF0B
:100EB000A068012808D154486830006840F001005B
:100EC0005149683108601DE0A06805280DD14E48E1
:100ED0006830006840F004004B49683108600846FB
:100EE000006840F0010008600CE047486830006886
:100EF00020F001004449683108600846006820F08D
:100F00000400086000BFA068A8B1FFF799FC05467F
:100F100009E0FFF795FC401B41F28831884202D975
:100F2000032077E626E0384868300068C0F34000C8
:100F30000028EED013E0FFF783FC054608E0FFF73A
:100F40007FFC401B41F28831884201D9032061E6D1
:100F50002D4868300068C0F340000028EFD1012F11
:100F600007D129483830006820F0805026493831B0
:100F7000086000BFA069002845D02348006800F041
:100F80000C0008285DD0A069022845D100201F4927
:100F90000866FFF755FC054606E0FFF751FC401BCD
:100FA000022801D9032035E6174808380068C0F345
:100FB00040600028F1D1D4E907010843616A40EAA2
:100FC00081110122A06AC2EB500041EA00412C20AD
:100FD000005D41EA00600C49091F086001200B49CF
:100FE0000866FFF72DFC054606E0FFF729FC401BCD
:100FF000022801D903200DE6034808380068C0F331
:1010000040600028F1D049E0083802400000474223
:10101000800E474200700040002021490866FFF71B
:101020000FFC054606E0FFF70BFC401B022801D928
:101030000320EFE51B480068C0F340600028F2D1B0
:101040002CE0A069012800D1E4E51648001D0668DF
:10105000A069012820D006F48001E06981421BD1FB
:1010600006F03F01206A814216D147F6C070304039
:10107000616AB0EB811F0FD106F440310122A06AF2
:10108000C2EB5000B1EB004F06D106F070612C208E
:10109000005DB1EB006F01D00120BBE50020B9E598
:1010A000000047420038024070B504460E4615461F
:1010B0000CB9012070BD94F8490028B9002084F8CB
:1010C0004800204600F01FF804F108012068FFF7EF
:1010D000F1F93146A2682068FFF728FA2946236B08
:1010E000D4E90102FFF7C4F9A168206850F8210093
:1010F00040F00100A268216841F82200012084F834
:1011000049000020D6E710B50446FFF731FA10BDBC
:1011100070B504462546681EB0F1807F01D30120DA
:101120000FE0681E4FF0E02148610F214FF0FF30C3
:1011300000F0E6FB00204FF0E02188610720086105
:10114000002070BD00BFFEE770B5044600252248B0
:1011500000882149498800FB01F62A2000F07EFA28
:10116000002000F083FA002000F080FA1A49098874
:10117000491EC1F30F2000F079FA17490978491E7A
:10118000C8B200F073FA2B2000F068FA002000F0DB
:101190006DFA002000F06AFA0F494988491EC1F330
:1011A0000F2000F063FA0C498978491EC8B200F09C
:1011B0005DFA002000F039FA002000F042FA2C20FD
:1011C0000649088000BF03E00448801C04806D1CB1
:1011D000B542F9D370BD0000000000207E00006C15
:1011E00070B505460E464DB900201E490871F02025
:1011F00008804FF4A070488000242CE0012D09D114
:10120000002018490871F02008804FF4A070488031
:10121000032420E0022D09D10120124908714FF466
:10122000A0700880F0204880052414E0032D09D127
:1012300001200C4908714FF4A0700880F02048800C
:10124000062408E0002007490871F02008804FF4C8
:10125000A07048800024204600F0BCF93046FFF71B
:1012600073FF70BD000000202DE9F04F06460F46C9
:1012700092469846002455460320A0EB4A0B69E0AD
:101280004B4609F1010938F813207B1B99B2331939
:1012900098B200F063F84B4609F1010938F81320C1
:1012A0003B1B99B2731998B200F058F84B4609F1FC
:1012B000010938F813203B1999B2731998B200F05C
:1012C0004DF84B4609F1010938F813207B1999B202
:1012D000331998B200F042F84B4609F1010938F889
:1012E00013207B1999B2331B98B200F037F84B46A4
:1012F00009F1010938F813203B1999B2731B98B210
:1013000000F02CF84B4609F1010938F813207B1B3B
:1013100099B2331B98B200F021F84B4609F101094C
:1013200038F813203B1B99B2731B98B200F016F8E3
:10133000641C0998814501D14FF00009BBF1000FF1
:1013400003DAA000801D834404E0601B80000A30A3
:1013500083446D1EAC4293DDBDE8F08F10B52A23A7
:101360000D4C238003124FF0D844A4F88030C3B250
:10137000094CA41C23802B23A41E23800B12A41C25
:101380002380CBB223802C234FF0D844A4F87E30A6
:101390002346A3F8802010BD7E00006C70B5044683
:1013A0000D46CF2000F05AF9002000F05FF9C1206F
:1013B00000F05CF9302000F059F9ED2000F04EF912
:1013C000642000F053F9032000F050F9122000F0DF
:1013D0004DF9812000F04AF9E82000F03FF985201E
:1013E00000F044F9102000F041F97A2000F03EF9B5
:1013F000CB2000F033F9392000F038F92C2000F030
:1014000035F9002000F032F9342000F02FF90220E5
:1014100000F02CF9F72000F021F9202000F026F947
:10142000EA2000F01BF9002000F020F9002000F075
:101430001DF9C02000F012F91B2000F017F9C1209F
:1014400000F00CF9012000F011F9C52000F006F9B8
:10145000302000F00BF9302000F008F9C72000F030
:10146000FDF8B72000F002F9362000F0F7F8482028
:1014700000F0FCF83A2000F0F1F8552000F0F6F802
:10148000B12000F0EBF8002000F0F0F81A2000F096
:10149000EDF8B62000F0E2F80A2000F0E7F8A2200C
:1014A00000F0E4F8F22000F0D9F8002000F0DEF8B7
:1014B000262000F0D3F8012000F0D8F8E02000F05A
:1014C000CDF80F2000F0D2F82A2000F0CFF8282025
:1014D00000F0CCF8082000F0C9F80E2000F0C6F8A3
:1014E000082000F0C3F8542000F0C0F8A92000F054
:1014F000BDF8432000F0BAF80A2000F0B7F80F203A
:1015000000F0B4F8002000F0B1F8002000F0AEF8D0
:10151000002000F0ABF8002000F0A8F8E12000F077
:101520009DF8002000F0A2F8152000F09FF8172089
:1015300000F09CF8072000F099F8112000F096F8D0
:10154000062000F093F82B2000F090F8562000F0D1
:101550008DF83C2000F08AF8052000F087F8102074
:1015600000F084F80F2000F081F83F2000F07EF8B2
:101570003F2000F07BF80F2000F078F82B2000F0DF
:101580006DF8002000F072F8002000F06FF80120E4
:1015900000F06CF83F2000F069F82A2000F05EF8B7
:1015A000002000F063F8002000F060F8002000F058
:1015B0005DF8EF2000F05AF8112000F04FF8782085
:1015C000FEF730FF292000F049F8E8B22146FFF786
:1015D00007FE70BD10B504460022082C1CD2DFE8BF
:1015E00004F00406090C0F12151800BF14E042F0B5
:1015F000800211E042F040020EE042F0C0020BE037
:1016000042F0200208E042F0600205E042F0A00251
:1016100002E042F0E00200BF00BF362000F01EF8FA
:1016200042F0080000F022F810BD00B502462A2062
:1016300000F014F8101200F019F8D0B200F016F80B
:1016400000BD00B502462B2000F008F8101200F093
:101650000DF8D0B200F00AF800BD000001B5BDF8E9
:1016600000000149088008BD7E00006C01B5BDF88E
:1016700000000149088008BD8000006C00B58FB0F3
:101680001C2108A8FEF767FE1C2101A8FEF763FED7
:101690004FF02040204908602048486006208860BC
:1016A00000211D48C160016110214161002181615B
:1016B000C161016241624FF4805181620021C162C7
:1016C0004FF48041016300214163816341640F2035
:1016D000089009903C200A900F200B9010200C904D
:1016E00011200D9000200E90082001900F200290F4
:1016F0003C2003900F2004901020059011200690AC
:101700000020079001AA08A90348FFF7CDFC08B103
:10171000FEF7ABFE0FB000BD98000020040100A052
:1017200000B587B0142102A8FEF715FE00BF002007
:1017300001903548006840F0800033490860084651
:10174000006800F08000019000BF00BF00BF0020D3
:1017500001900846006840F02000086008460068D4
:1017600000F02000019000BF00BF00BF00200190EA
:101770000846006840F0100008600846006800F065
:101780001000019000BF00BF00BF0020019008467C
:10179000006840F0020008600846006800F002009F
:1017A000019000BF00BF00BF002001900846006804
:1017B00040F0080008600846006800F0080001904A
:1017C00000BF00BF00BF002001900846006840F045
:1017D000400008600846006800F04000019000BF2B
:1017E00000BF0122D1030948FFF724F84FF400405D
:1017F00002900120039000200490059002A9034864
:10180000FEF71EFF07B000BD303802400004024062
:1018100000BFFEE700BFFEE77047704710B5FFF757
:1018200015F810BD00B593B0302107A8FEF793FD61
:10183000142102A8FEF78FFD00BF0020019024486C
:10184000006840F08050224908600846006800F0B7
:101850008050019000BF00BF00BF002001901D48D4
:10186000006840F480401B4908600846006800F4A6
:101870008040019000BF00BF012007900004089045
:1018800002200D9041050E9119210F914FF4A8717E
:101890001091022111910421129107A8FFF7B6F9C6
:1018A00008B1FEF7E2FD0F20029002200390002015
:1018B00004904FF4A05005904FF4805006900521FD
:1018C00002A8FFF789F808B1FEF7CFFD13B000BDFD
:1018D00040380240007000400348006840F4700047
:1018E000014908607047000088ED00E000BFFEE796
:1018F00002480068C0F30220704700000CED00E0D1
:1019000010B5002804DB0A07130E054A135406E03D
:101910000A07140E034A00F00F031B1FD45410BD16
:1019200000E400E018ED00E008B5FEF79BFFFFF7CC
:1019300079FFFFF7F5FEFFF7A1FE002005E040F27A
:10194000CF11234A22F81010401C0A28F7D30A208E
:1019500004E000211E4A22F81010401C1428F8D37D
:10196000142005E04FF47841194A22F81010401C69
:101970001E28F7D31E2005E045F25841144A22F8EC
:101980001010401C2828F7D3282005E04FF6074107
:101990000F4A22F81010401C3228F7D3322005E0FD
:1019A0004FF61F010A4A22F81010401C3C28F7D3BA
:1019B00002214FF6FF70FFF7F1FC3C20044B5A2246
:1019C000642100900846FFF74FFC00BFFEE70000CF
:1019D000200000204FF04070E1EE100A7047000038
:1019E00000000000000001020304060708090000CF
:1019F0000000010203040000181A00080000002083
:101A000020000000C4010008381A0008200000204F
:101A100028070000E00100080000000000000000AE
:101A200000000000000000000000000010000000A6
:081A3000010000000024F40095
:040000050800018965
:00000001FF
