:020000040800F2
:10000000C809002029020008FF1200084712000852
:10001000FD1200081F040008311500080000000050
:10002000000000000000000000000000851400082F
:1000300021040008000000000113000887140008D4
:10004000430200084302000843020008430200087C
:10005000430200084302000843020008430200086C
:10006000430200084302000843020008430200085C
:10007000430200084302000843020008430200084C
:10008000430200084302000843020008430200083C
:10009000430200084302000843020008430200082C
:1000A000430200084302000843020008430200081C
:1000B000430200084302000843020008430200080C
:1000C00043020008430200084302000843020008FC
:1000D00043020008430200084302000843020008EC
:1000E00043020008430200084302000843020008DC
:1000F00043020008430200084302000843020008CC
:1001000043020008430200084302000843020008BB
:1001100043020008430200084302000843020008AB
:10012000430200084302000843020008430200089B
:10013000430200084302000843020008430200088B
:10014000430200084302000843020008430200087B
:10015000430200084302000843020008430200086B
:10016000430200084302000843020008430200085B
:100170004302000843020008430200080000000098
:10018000430200084302000800F002F800F03CF8C7
:100190000AA090E8000C82448344AAF10107DA45E2
:1001A00001D100F031F8AFF2090EBAE80F0013F0F8
:1001B000010F18BFFB1A43F0010318470016000097
:1001C00020160000103A24BF78C878C1FAD8520728
:1001D00024BF30C830C144BF04680C6070470000C1
:1001E0000023002400250026103A28BF78C1FBD840
:1001F000520728BF30C148BF0B6070471FB501F0E0
:10020000CFFA1FBD10B510BD00F0CFF81146FFF7B3
:10021000F5FF01F093FA00F0EDF803B4FFF7F2FFF9
:1002200003BC00F0F5F80000094880470948004782
:10023000FEE7FEE7FEE7FEE7FEE7FEE7FEE7FEE796
:10024000FEE7FEE704480549054A064B70470000F3
:100250002115000889010008C8030020C8090020F2
:10026000C8050020C805002053EA020C00F0698090
:100270002DE9F04B4FF00006002B1FBFB3FA83F5BA
:1002800003FA05F424FA05F65E4012BF1643B2FAEB
:1002900082F502FA05F4C5F120051EBF22FA05FC1D
:1002A00044EA0C04203556EA044C4FEA144418BFC3
:1002B000641C4FF000084FF00009904271EB030CF2
:1002C00039D3002919BFB1FA81F701FA07F6B0FA5C
:1002D00080F700FA07F6C7F120071EBF20FA07FCD7
:1002E00046EA0C062037B6FBF4FCA7EB0507103FE7
:1002F00007F01F0BCBF120060CFA0BFB2CFA06F6CD
:1003000044BFB3460026202FA4BF5E464FF0000B2B
:100310005BEA060C08BF4FF0010B19EB0B09ABFBB6
:10032000027C48EB0608C01B06FB02CC0BFB03CC8F
:1003300071EB0C01C1E70B46024641464846BDE859
:10034000F08B13B54FF000004FF00001AFF30080C9
:10035000BDE81C4070474FF0000200B513469446BC
:100360009646203922BFA0E80C50A0E80C50B1F10D
:100370002001BFF4F7AF090728BFA0E80C5048BF21
:100380000CC05DF804EB890028BF40F8042B08BFBF
:10039000704748BF20F8022B11F0804F18BF00F8BB
:1003A000012B7047704770477047754600F02CF876
:1003B000AE4605006946534620F00700854618B052
:1003C00020B5FFF73FFFBDE820404FF000064FF09B
:1003D00000074FF000084FF0000B21F00701AC467A
:1003E000ACE8C009ACE8C009ACE8C009ACE8C00999
:1003F0008D46704710B50446AFF300802046BDE837
:100400001040FFF70ABF0000004870476803002053
:1004100001491820ABBEFEE7260002007047FEE748
:10042000704772B6FEE700002DE9F84FDFF8BCA177
:100430000022012503264FF00F090AF1040BAAF14F
:10044000040E00BF0B6805FA02F42340A34270D1EA
:100450000F7907F00307012F01D0022F16D187680B
:100460004FEA420806FA08FC27EA0C07D1F80CC04C
:100470000CFA08FC4CEA070CC0F808C04768A74310
:100480000C79C4F3001494403C4344600C79E44379
:10049000A4070AD0C4684FEA420C06FA0CF7BC4322
:1004A0008F6807FA0CF72743C7600C7904F0030440
:1004B000022C12D1D40800EB840CDCF82040570742
:1004C000FF0E09FA07F824EA0804D1F8108008FAA8
:1004D00007F848EA0408CCF8208004684FEA420C88
:1004E00006FA0CF7BC430F7907F0030707FA0CF77D
:1004F000274307604C6814F4403F70D03C4C276899
:1005000047F480472760246822F0030704F48044FE
:100510000094384C07EB040CDCF8084897074FEAC6
:10052000177809FA08F7BC43334FB84202D10027C5
:1005300024E054E0314FB84201D101271EE0304F92
:10054000B84201D1022719E02E4FB84201D103274A
:1005500014E02D4FB84201D104270FE02B4FB842D1
:1005600001D105270AE02A4FB84201D1062705E04C
:10057000284FB84201D1072700E0082707FA08F7FB
:100580002743CCF80878DAF800405746D1F804C081
:100590009C435FEACC2C00D51C433C60DBF8004058
:1005A0005F46D1F804C09C435FEA8C2C00D51C4305
:1005B0003C60DEF800407746D1F804C09C435FEA17
:1005C0008C3C00D51C433C60084F083F3C68D1F888
:1005D00004C09C435FEACC3C00D51C433C60521CE9
:1005E000102AFFF42FAFBDE8F88F0000083C01404F
:1005F0004438024000300140000002400004024044
:1006000000080240000C02400010024000140240AA
:1006100000180240001C02400AB1816170470904C1
:10062000FBE70000014880687047000000000020E0
:100630000248816802781144816070470000002000
:100640000B4810B5016841F400710160016841F484
:1006500080610160016841F480710160032000F055
:1006600061F80F2000F006F800F024F8002010BD1B
:10067000003C024070B50D4D04464FF47A71287865
:10068000B1FBF0F00A490968B1FBF0F000F0C7FDDA
:1006900048B9102C07D200222146501E00F022F843
:1006A00000206C6070BD012070BD000000000020C3
:1006B0000C0000200A4808B5016841F4804101603F
:1006C000006800F4804000900548001F016841F078
:1006D00080510160006800F08050009008BD00006B
:1006E00044380240F0B40E4B1B680C46C3F302239F
:1006F000C3F10705042D00D90425191D072901D2CE
:10070000002300E0DB1E012606FA05F1491E214008
:1007100099409E40761E16403143F0BC00F0FEBF6B
:100720000CED00E0064900F0070208684FF6FF03F1
:10073000184040EA0220034A104308607047000056
:100740000CED00E00000FA052DE9F0470E4605002B
:1007500065D0DFF81481D8F80000F7B200F0070088
:10076000B04207D288F80070D8F8000000F0070007
:10077000B04254D128683D4C810712D5400703D5BB
:10078000206840F4E05020602878000703D52068F6
:1007900040F4604020602068A96820F0F000084321
:1007A00020602878C0072DD03049686808390128B2
:1007B00012D0022813D0032811D009688907002914
:1007C0002DDA216821F0030101432160FFF72AFFA0
:1007D000814641F2883A0EE009688903EFE709682B
:1007E0008901ECE7FFF71EFFA0EB0901514502D993
:1007F0000320BDE8F0872068696800F00C00B0EBCA
:10080000810FEFD1D8F80010404601F00701B14246
:1008100007D90770006800F00700B04201D001203E
:10082000E7E72878400705D52068E96820F4E0501C
:10083000084320602878000706D52068296920F43D
:10084000604040EAC100206000F018F82168084AC2
:10085000C1F30311515CC8400649086006480068AE
:10086000FFF708FF0020C4E7003C024008380240C0
:10087000AA1700080C00002004000020154810B53D
:10088000006810F00C02144813D04110042A0FD055
:10089000082A0ED10F4C241F2268236802F03F0261
:1008A0005B0207D52068C0F38810A0FB010106E0B9
:1008B000084610BD2168C1F38811A1FB0001002387
:1008C000FFF7D2FC2168C1F30141491C4900B0FB8C
:1008D000F1F010BD083802400024F4002DE9F84F73
:1008E00004006ED02078DFF84C93C007A9F104050E
:1008F0004AD009F104000168C1F38101012908D03F
:100900000068C0F3810002280AD1D9F80000400233
:1009100006D52868800337D560680028E1D033E029
:100920006068B0F5803F10D0B0F5A02F286810D0D7
:1009300020F480302860286820F4802028606068D7
:10094000A8B1FFF76FFE06460DE0286840F480303E
:10095000F4E740F480202860F7E700BFFFF762FE6D
:10096000801B642873D828688003F7D50CE0FFF754
:1009700059FE064605E000BFFFF754FE801B6428C1
:10098000F0D828688003F7D42078DFF8AC8280079D
:100990004FF0000A3ED5A748001D016811F00C0F6A
:1009A00008D00068C0F3810002280BD1D9F80000FC
:1009B000400207D42868800716D5E068012800D1D6
:1009C00012E033E1E068B8B10120C8F80000FFF799
:1009D00029FE064605E000BFFFF724FE801B022823
:1009E000C0D828688007F7D52868216920F0F8006A
:1009F00040EAC10028600DE0C8F800A0FFF712FE31
:100A0000064604E0FFF70EFE801B02281FD8286868
:100A10008007F7D42078000722D5864F8748616980
:100A2000703771B101210160FFF7FCFD064604E05B
:100A3000FFF7F8FD801B022809D838688007F7D532
:100A40000EE0C0F800A0FFF7EDFD064605E082E0ED
:100A5000FFF7E8FD801B02287DD838688007F7D4AF
:100A60002078400768D5DFF8CCB100270BF13C0BAC
:100A7000DBF80000C0000BD4DBF8001041F080511F
:100A8000CBF80010DBF80000012700F08050009048
:100A90006B4E3068C00510D4306840F48070306010
:100AA000FFF7C0FD009005E0FFF7BCFD0099401A7C
:100AB000022850D83068C005F6D55E4EA0686C3666
:100AC00001280FD00528306810D020F001003060D8
:100AD000306820F004003060A068B8B1FFF7A2FDD4
:100AE00000900FE0306840F00100F4E740F00400AF
:100AF0003060F7E7FFF796FD0099411A41F2883020
:100B0000814266D830688007F4D50EE0FFF78AFD91
:100B1000009007E0FFF786FD0099411A41F2883006
:100B2000814256D830688007F4D42FB1DBF800102A
:100B300021F08051CBF80010A069C8B33D49091DD0
:100B40000968C1F3810102294AD00228504607D022
:100B5000C8F8600000E03CE0FFF764FD04463BE0BD
:100B60004746C8F86000FFF75DFD064605E000BF98
:100B7000FFF758FD801B02282BD828688001F7D486
:100B8000D4E907010843A16A2E4A490802EB014152
:100B9000626A41EA8211084394F82C1040EA01612C
:100BA000C9F8001001203866FFF73CFD044606E056
:100BB0003EE000BFFFF736FD001B022809D8286879
:100BC0008001F7D534E000BFFFF72CFD001B0228A1
:100BD00002D90320BDE8F88F28688001F4D427E00B
:100BE0000128F7D0D9F80000E26900F480019142B1
:100BF0001CD1226A00F03F01914217D147F6C07123
:100C0000626A0140B1EB821F10D1A26A4FF0FF333C
:100C100000F4403103EB5202B1EB024F06D194F8DD
:100C20002C1000F07060B0EB016F01D00120D1E713
:100C30000020CFE70438024000004742800E4742C0
:100C4000007000400000FFFF70B5040009D0606A2A
:100C5000002540B125616561A56294F8510040B15D
:100C60000CE0012070BD6068B0F5827FF4D0E561D2
:100C7000F2E784F85050204600F044F8022084F84F
:100C800051002068016821F040010160A08821899D
:100C900000F4827001F404410843A18901F4006169
:100CA0000843217C01F002010843217D01F001018C
:100CB0000843218B01F400710843217F01F03801C2
:100CC000084394F8201001F080010843218D01F4BD
:100CD0000051084321680860A069042101EA10401E
:100CE00094F8241001F0100108432168486020683E
:100CF000C16921F40061C1616565012084F851007A
:100D0000002070BD10B586B0044614216846FFF778
:100D100022FB13492068884220D112480021026832
:100D200042F480520260006800F4805005900D4843
:100D30001438026842F002020260006800F002000B
:100D40000590382000900220CDE901010320039096
:100D50000520049069460448FFF766FB06B010BD05
:100D60000030014044380240000402402DE9F84FB1
:100D7000044690F85100984616460F460025012873
:100D800001D0022598E060684FF0040BB0F5827F37
:100D900001D1A068F8B194F85000012826D04FF096
:100DA000010984F85090FFF73DFC8246002F7FD068
:100DB000002E7DD084F851B000206065A763A6871F
:100DC000E6872063A086E08620646064A068B0F5B2
:100DD000004F0DD016E084F851B013460A46204665
:100DE000CDF8008000F024F9BDE8F88F0220FBE781
:100DF0002068016821F0400101602068016821F449
:100E00008041016020680168490603D4016841F00F
:100E100040010160E068D8B13BE020688168C90703
:100E200009D0007BA16B0870A06B401CA063E08F11
:100E3000401EE0870CE0FFF7F5FBA0EB0A014145FF
:100E400003D3B8F1FF3F03D006E0B8F1000F03D0A1
:100E5000E08F0028E1D11FE003252BE020688168A6
:100E6000C90709D0C068A16B0880A06B801CA06373
:100E7000E08F401EE0870CE0FFF7D4FBA0EB0A01F7
:100E8000414503D3B8F1FF3F03D0E5E7B8F1000FC8
:100E9000E2D0E08F0028E1D152464146204600F0E2
:100EA00030FA08B120206065606D00E000E008B114
:100EB000012501E084F85190002084F85000284674
:100EC00092E72DE9F84F044690F850000026984626
:100ED00015468A4601280CD0012784F85070FFF788
:100EE000A1FB814694F85100B346012804D00226A4
:100EF0009AE00220BDE8F88FBAF1000F6FD0002D04
:100F00006DD0032084F85100C4F854B0C4F830A068
:100F1000A586E586C4F838B0A4F83CB0A4F83EB085
:100F2000C4F844B0C4F840B0A068B0F5004F09D18F
:100F30002068016821F0400101602068016841F4E7
:100F40008041016020680168490603D4016841F0CE
:100F500040010160E068B0F5006F606803D058B3ED
:100F6000012D29D049E008B1012D1FD1206B216846
:100F70000088C86006E020688168890709D5216B70
:100F80000988C160206B801C2063E08E401EE086D3
:100F90000CE0FFF747FBA0EB0901414503D3B8F193
:100FA000FF3F03D006E0B8F1000F03D0E08E002829
:100FB000E1D125E0032635E0206B21680078087335
:100FC00006E02068816889070AD5216B09780173DA
:100FD000206B401C2063E08E401EE0860DE01FE089
:100FE000FFF720FBA0EB0901414503D3B8F1FF3F18
:100FF00003D0DFE7B8F1000FDCD0E08E0028E0D1AD
:101000004A464146204600F0ABF908B12020606511
:10101000A06818B92068C16880680090606D08B148
:10102000012601E084F8517084F850B0304661E741
:101030002DE9FF4F81B0044690F8500000260E9F26
:101040001D4693464FF0010901280FD04FF0010AC9
:1010500084F850A0FFF7E6FA804694F851006168E2
:1010600001280DD0B1F5827F08D103E0022005B040
:10107000BDE8F08FA16809B9042801D00226C9E0B3
:101080000298002865D0BBF1000FFBD0002DF9D0ED
:1010900094F85100042802D0052084F85100002063
:1010A0006065C4F838B0E587A58702992163E586B5
:1010B000A5862064606420680168490603D401683D
:1010C00041F040010160E068B0F5006F606803D056
:1010D000F0B3012D47D081E008B1012D3CD1206B48
:1010E00021680088C860206B801C2063E08E401E51
:1010F000E08631E02068816889070FD5E18E69B10B
:10110000B9F1010F0AD1216B0988C160206B801CE5
:101110002063E08E401EE0864FF000092068816861
:10112000C9070CD0E18F51B1C068A16B0880A06BDA
:10113000801CA063E08F401EE0874FF00109FFF79D
:1011400071FAA0EB0800B84206D3781C04D001E085
:1011500009E05BE003265BE0E08E0028CAD1E08F67
:101160000028C7D140E0206B216800780873206B0D
:10117000401C2063E08E401EE0862FE020688168DE
:1011800089070FD5E18E69B1B9F1010F0AD1216B41
:1011900009780173206B401C2063E08E401EE086BE
:1011A0004FF0000920688168C9070CD0E18F51B168
:1011B000C068A16B0870A06B401CA063E08F401E4C
:1011C000E0874FF00109FFF72DFAA0EB0800B842C5
:1011D00002D3781C02D0BAE7002FB8D0E08E0028E6
:1011E000CCD1E08F0028C9D142463946204600F0D4
:1011F000B7F818B10126202060650BE0A06818B987
:101200002068C16880680090606D08B1012601E027
:1012100084F851A0002084F85000304627E710B52C
:10122000401EB0F1807F01D3012010BD4FF0E024BB
:1012300060610F21601700F071FA0020A0610720A3
:101240002061002010BDFEE770B586B0142168460D
:10125000FFF781F816480025016841F08001016020
:10126000016801F080010591016841F00101016010
:10127000016801F001010591016841F0020101607E
:1012800000680C4E00F002004FF40044059000226C
:1012900021463046FFF7C0F90120CDE90040022089
:1012A000CDE9025069463046FFF7BEF806B070BD82
:1012B00030380240000002400F4810B50D4901606F
:1012C0004FF48271416000218160C1604FF400726F
:1012D0000161C0E90512C1610162416281620A21B6
:1012E000C162FFF7B1FC002803D0BDE81040FFF752
:1012F00098B810BD0030014010030020FEE7FEE763
:101300007047F8B5044640684FF48273984221D183
:10131000A0684FF48065B0F5004F01D0A8420AD113
:101320002068066826F0400606606068984211D181
:10133000A068A8420ED000920B46002280212046D1
:1013400000F044F8002804D0606D40F02000606593
:101350000320F8BD00920B4600220121EFE70000B8
:10136000F8B515460E460B460092044601220221AE
:1013700000F02CF8A0B9134813490068B0FBF1F055
:101380004FF47A71484300906068B0F5827F0DD1C8
:101390003346002280212046009500F017F870B1F6
:1013A000606D40F0200060650320F8BD009830B10A
:1013B000401E009020688068C0430006F6D50020DB
:1013C000F8BD00000C00002000366E012DE9F84346
:1013D0001E46914688460446089DFFF723F9401BA8
:1013E000351AFFF71FF9074625480068C0F3CB30D0
:1013F000684338E0701C37D0FFF714F9C01BA842CF
:1014000003D215B1009860B32CE02068416821F048
:10141000E00141606068B0F5827F0BD1A068B0F553
:10142000004F02D0B0F5806F04D12068016821F030
:1014300040010160A06AB0F5005F09D12068016831
:1014400021F4005101602068016841F400510160FD
:10145000012084F85100002084F850000320BDE8EA
:10146000F8830025401E00902068816838EA01005A
:1014700004D000214945BDD10020F0E70121F9E762
:101480000C0000207047FFF7D3B8000030B593B0D0
:1014900030216846FEF75FFF14210CA8FEF75BFFC2
:1014A0001D480025016841F080510160006800F08E
:1014B000805011901948016841F480410160006832
:1014C000022400F48040119001200090000401905B
:1014D0008001CDE9064008AA0420A82182E8130073
:1014E0000B906846FFF7FAF908B172B6FEE70CA94F
:1014F0000F2081E831004FF4A0500F904FF480503E
:10150000109005210CA8FFF71FF9002801D072B632
:10151000FEE713B030BD00004038024000700040CC
:101520000248016841F470010160704788ED00E0F5
:10153000FEE700001CB50E4C606920F400406061BD
:1015400005208DF800003223012269460948FFF783
:10155000B8FC3223012201A90648FFF707FC9DF8D9
:101560000400C007F5D1606940F4004060611CBD13
:1015700000000240100300202DE9F04114460F4600
:10158000054600F05BF8E8B2C0F58076B44200D8BA
:10159000264632463946284600F078F8A01B25F04A
:1015A000FF053E4484B24FF4807705F58075BC4258
:1015B00005D93A463146284600F068F806E022464A
:1015C0003146284600F062F8BC4207D1A4F5807489
:1015D000A4B205F5807506F58076E8E7BDE8F081F0
:1015E000F8B50E460446FFF7A5FF104D686920F4D4
:1015F000004068610EA0322300680090200C8DF836
:101600000100200A8DF802008DF80340042269468B
:101610000848FFF756FC3223324607490548FFF7D2
:10162000A5FB686940F400406861F8BD0000024015
:1016300003000000100300201000002038B504460D
:10164000FFF778FF00F052F80D4D686920F4004074
:1016500068610CA0322300680090200C8DF8010016
:10166000200A8DF802008DF80340042269460648DE
:10167000FFF727FC686940F40040686138BD00004E
:10168000000002402000000010030020F8B51646BC
:101690000F460446FFF74EFF00F028F8104D68692A
:1016A00020F4004068610FA0322300680090200CF5
:1016B0008DF80100200A8DF802008DF80340042205
:1016C00069460948FFF7FDFB322332463946064892
:1016D000FFF7F7FB686940F400406861F8BD00005F
:1016E00000000240020000001003002038B5094C41
:1016F000606920F40040606106208DF8000032230C
:10170000012269460448FFF7DCFB606940F40040B1
:10171000606138BD00000240100300200907090E77
:10172000002804DB00F1E02080F80014704700F08E
:101730000F0000F1E02080F8141D7047ADF5407DEA
:10174000FEF77EFFFFF7A2FEFFF77EFDFFF7B4FD79
:10175000002069460854401C80B2FF28FAD90020B6
:101760000A1882F80001401C80B2FF28F8D9002036
:101770005FF00303B0FBF3F203FB12020C18401CF2
:1017800080B284F80022FF28F4D94FF44074224636
:10179000B420FFF7F1FE2146B420FFF721FFFEE75A
:1017A0004FF04070E1EE100A7047000000000000AA
:1017B000000001020304060708090000DC17000806
:1017C0000000002010000000C4010008EC17000811
:1017D00010000020B8090000E0010008010000002E
:0C17E00010000000000000000024F400D5
:040000050800018965
:00000001FF
