:020000040800F2
:10000000283B0124FD0300086D2500080D060008AB
:100010001D250008470600088D3900080000000073
:10002000000000000000000000000000BD02000809
:10003000D10600080000000011030008E5290008AF
:1000400027040008270400082704000827040008E4
:1000500027040008270400082704000827040008D4
:1000600027040008270400082704000827040008C4
:1000700027040008270400082704000827040008B4
:1000800027040008270400082704000827040008A4
:100090002704000827040008270400082704000894
:1000A0002704000827040008270400082704000884
:1000B00027040008752C0008812C0008270400087C
:1000C0002704000827040008270400082704000864
:1000D00027040008813900082704000827040008C5
:1000E000D3060008270400080000000027040008C9
:1000F0002704000827040008270400082704000834
:100100002704000827040008270400082704000823
:100110002704000827040008270400082704000813
:100120002704000827040008270400082704000803
:1001300027040008270400082704000827040008F3
:1001400000000000000000000000000000000000AF
:1001500027040008270400082704000827040008D3
:1001600027040008270400082704000827040008C3
:1001700027040008270400082704000827040008B3
:1001800027040008270400082704000827040008A3
:100190002704000827040008270400082704000893
:1001A0002704000827040008270400082704000883
:1001B0002704000827040008270400082704000873
:1001C0002704000827040008270400082704000863
:1001D0002704000827040008270400082704000853
:1001E0002704000827040008270400082704000843
:1001F0002704000827040008270400082704000833
:100200002704000827040008270400082704000822
:100210002704000827040008270400082704000812
:100220002704000827040008270400080000000035
:100230002704000827040008000000002704000825
:1002400027040008270400082704000827040008E2
:1002500027040008270400082704000827040008D2
:1002600027040008270400082704000827040008C2
:1002700027040008270400082704000800000000E5
:1002800027040008270400082704000800000000D5
:100290000000000027040008DFF80CD000F078F917
:1002A00000480047F13E0008283B012430BF72B6E9
:1002B000704762B6704780F3088870472B4B196807
:1002C0000868B0E8F04F80F30988BFF36F8F4FF0F4
:1002D000000080F3118870470000000006480068A5
:1002E000006880F3088862B661B6BFF34F8FBFF332
:1002F0006F8F00DF00BF00BF08ED00E0DFF80C00EB
:10030000016841F470010160704700BF88ED00E0B2
:10031000EFF30980BFF36F8F144B1A681EF0100FB4
:1003200008BF20ED108A20E9F04F106008B44FF0AC
:10033000500072B680F31188BFF34F8FBFF36F8FF9
:1003400062B604F0DBFE4FF0000080F3118808BCB9
:1003500019680868B0E8F04F1EF0100F08BFB0EC45
:10036000108A80F30988BFF36F8F7047440200241E
:10037000EFF30580704700000246D2E84F0F411CA2
:10038000C2E8431F03B1F8E77047024652E8000F86
:10039000411C42E8001303B1F8E770470246D2E877
:1003A0004F0FC2E8431F03B1F9E77047024652E816
:1003B000000F42E8001303B1F9E77047024652E824
:1003C000000F830103D3BFF32F8F0020704700F08D
:1003D0000040084342E8000303B1F0E770470246DB
:1003E00052E8000F800103D2BFF32F8F0020704727
:1003F00042E8001303B1F3E7012070470A48804741
:100400000A484FF470010160BFF34F8FBFF36F8F45
:1004100007480047FEE7FEE7FEE7FEE7FEE7FEE7E8
:10042000FEE7FEE7FEE7FEE7A52B000888ED00E00B
:10043000990200082DE9F05F0546002092469B4690
:1004400088460646814640241BE0284641464746EA
:10045000224600F08DF853465A46C01A914110D3F7
:1004600011461846224600F074F82D1A67EB010871
:100470004F4622460120002100F06BF817EB0009DF
:100480004E41201EA4F10104DFDC484631462A46D5
:100490004346BDE8F09F40EA01039B0703D009E013
:1004A00008C9121F08C0042AFAD203E011F8013B60
:1004B00000F8013B521EF9D27047D2B201E000F8B9
:1004C000012B491EFBD270470022F6E710B51346F8
:1004D0000A4604461946FFF7F0FF204610BD421EAB
:1004E00012F8013F002BFBD111F8013B02F8013B50
:1004F000002BF9D17047CAB2401E10F8011F8A4282
:1005000002D00029F9D10020704710B5002200E088
:10051000521C835C8C5CA34201D1002BF8D1D8B271
:10052000E1B2401A10BD30B504460020034600E099
:100530005B1C934203D2E05CCD5C401BF8D030BD25
:10054000034611F8012B00F8012B002AF9D11846B7
:100550007047202A04DB203A00FA02F1002070479D
:100560009140C2F1200320FA03F3194390407047F1
:10057000202A04DB203A21FA02F00021704721FAF8
:1005800002F3D040C2F1200291400843194670475F
:10059000064C074D06E0E06840F0010394E80700D0
:1005A00098471034AC42F6D3FFF77AFE8057000824
:1005B000A057000870B58C1810F8015B15F0070300
:1005C00001D110F8013B2A1106D110F8012B03E0EC
:1005D00010F8016B01F8016B5B1EF9D12B0705D4F4
:1005E0000023521E0DD401F8013BFAE710F8013B3D
:1005F000CB1A921C03E013F8015B01F8015B521E59
:10060000F9D5A142D8D3002070BD00001EF0040F20
:100610000CBFEFF30880EFF3098001F04FBE40F20A
:10062000D56CC9F2000C604742F2C11CC9F2000C43
:10063000604742F6654CC9F2000C604745F6613CE4
:10064000C9F2000C6047FEE7F0B5BFF34F8FBFF370
:100650006F8F1D4900200860BFF34F8FBFF36F8F6E
:100660001A4B196841F400311960BFF34F8FBFF383
:100670006F8F164970310860BFF34F8F081F43F624
:10068000FF740068104D1035C0F34E31C0F3C9023D
:1006900004EA4116104600BF46EA80772F60401EEC
:1006A000FAD2491EF4D2BFF34F8F186840F480305D
:1006B0001860BFF34F8FBFF36F8F03484C30016852
:1006C00041F004010160F0BD50EF00E014ED00E0E6
:1006D000704770472DE9F0410E4C04F11807A669E8
:1006E00000F03EF9B04205460BD20B480121FFF75E
:1006F00055FE30B920690021401C20610648FFF7F3
:100700004DFE29463846FFF751FE8642E7D128467E
:10071000BDE8F08100370124E80200242DE9FF5FE5
:1007200093468A464FF08052994602EADA08510011
:1007300001EA9B074800072500EA59061F48FFF712
:1007400024FE830900F03F021D484FF4700100EBC6
:100750000214009801EA0351084340EA08003843B4
:10076000304340F0406104F10C00FFF727FE4101E7
:100770001CD580F0044101F0004029F00042024302
:100780002AF000452BF00043054325600343C4E9EC
:10079000013204F10C00FFF722FE48B10748001DAA
:1007A000FFF7F3FD012004B0BDE8F09F6D1EC5D139
:1007B00002480830FFF7E9FD0020F4E70437012480
:1007C000803201242DE9F047FF29814601D2FF2A1A
:1007D00002D30020BDE8F087104D002420464FF0E2
:1007E000010A56460AFA00F313EA090F0FD00B4626
:1007F000B2460AE004EBD30603F00708AF5D0AFA3D
:1008000008FC47EA0C075B1CAF559342F2D9401C29
:1008100020340428E5D30120DCE7000080360124E1
:100820002DE9F0473D4C0025884681468021A4F102
:1008300080002570FFF748FE394B4FF6FF701822F5
:1008400041F221074FEA0006082113F801CB80EAA4
:100850000C2000BF5FEA004C06EA400000D578405B
:10086000491EF7D1521EEFD12E4A0121236A93422D
:1008700001D0226202E06288824202D06080E1619F
:1008800037E0E069401CE061012832D0264B0020AF
:1008900003EB0011CA68560102D522F04062CA601B
:1008A000401C4028F4D3E06901282BD000F064F804
:1008B0000646DEB1FE2248460021FFF783FFEF2205
:1008C0000F201146FFF77EFFFE2204201146FFF79E
:1008D00079FFFFF7FFFE636901461448E269FFF7FD
:1008E0001DFFB8F1000F01D000F024F83046BDE83C
:1008F000F08765704FF480616560A5600A48E56027
:10090000FFF7E2FD00F038F8061E01D000F02EF8E7
:10091000C4E90505064825610570CAE700370124CA
:10092000AC5300086B27A5E18032012400FF0003CF
:10093000E8020024084810B5017809B1012010BD73
:1009400001210170FFF7C6FE0023014603481A4645
:10095000FFF7E4FEF2E700000037012401FF000387
:100960000148406870470000001000E0014800683E
:10097000704700000000002405490A68054842F05D
:1009800080720A60016841F0010101600120704736
:10099000FCED00E0001000E02DE9F84F044600F007
:1009A00003FC00903CB194F83500022806D0802169
:1009B00061650020E4E00120BDE8F88FC74DC74E17
:1009C000C649183520683036DFF81483DFF81493F1
:1009D0008842DFF814A3DFF814B32ED0A8422CD03D
:1009E000B0422AD0404528D0484526D0504524D092
:1009F000584522D0BD4A183290421ED0BC4A90427F
:100A00001BD0BB4A1832904217D0B94A30329042BC
:100A100013D0B74A483290420FD0B54A6032904264
:100A20000BD0B34A7832904207D0B14A903290420C
:100A300003D0AF4AA832904209D1026822F01E02C8
:100A400002602068426922F08002426103E002688D
:100A500022F00E02026027688F4238464DD0A8422D
:100A60004BD0B04249D0404547D0484545D050458D
:100A700043D0584541D09D4A183290423DD09C4ABF
:100A800090423AD09A4A1832904236D0984A303240
:100A9000904232D0964A483290422ED0944A6032E8
:100AA00090422AD0924A7832904226D0904A903290
:100AB000904222D08E4AA83290421ED08D4A904257
:100AC0001BD08C4A1432904217D08A4A2832904266
:100AD00013D0884A3C3290420FD0864A503290421E
:100AE0000BD0844A6432904207D0824A78329042D6
:100AF00003D0804A8C32974204D1206E026822F4DF
:100B00008072026075492068884228D0A84226D0A9
:100B1000B04224D0404522D0484520D050451ED078
:100B200058451CD071491831884218D07049884204
:100B300015D06F491831884211D06D493031884243
:100B40000DD06B494831884209D0694960318842EB
:100B500005D067497831884201D0654990310168F4
:100B600021F0010101600EE000F01EFB0099401A27
:100B7000052808D9202262650321002084F8351059
:100B800084F8340017E73868C007EDD1534A0121D3
:100B9000206890422ED0A8422CD0B0422AD04045A6
:100BA00028D0484526D0504524D0584522D04F4B18
:100BB000183398421ED04E4B98421BD04C4B1833E2
:100BC000984217D04A4B3033984213D0484B4833A1
:100BD00098420FD0464B603398420BD0444B783349
:100BE000984207D0424B9033984203D0404BA833F1
:100BF000984208D194F85C703F23A06D07F01F075E
:100C0000BB40836007E094F85C30A06D03F01F03E5
:100C100001FA03F34360206890424DD0A8424BD0C4
:100C2000B04249D0404547D0484545D0504543D0D3
:100C3000584541D02D4A183290423DD02C4A90421E
:100C40003AD02B4A1832904236D0294A303290425C
:100C500032D0274A483290422ED0254A6032904204
:100C60002AD0234A7832904226D0214A90329042AC
:100C700022D01F4AA83290421ED01E4A90421BD05A
:100C80001C4A1432904217D01A4A2832904213D08C
:100C9000184A3C3290420FD0164A503290420BD044
:100CA000144A6432904207D0124A7832904203D0FC
:100CB000104A8C3290420BD1D4E919024260E06EA6
:100CC00030B1026822F480720260D4E91C024260F2
:100CD000002084F8351084F834006DE610000240DE
:100CE000580002407000024088000240A00002400C
:100CF00010040240085402582DE9F05F28B190F822
:100D00003510022904D0802141650120BDE8F09F03
:100D1000904C904B0168183C18338E4ADFF83C9297
:100D2000A1428D4CDFF838E28E4FDFF83CB2DFF89D
:100D30003CA28F4D8F4E31D091422FD099422DD071
:100D4000A1422BD0494529D0714527D0B94225D0A1
:100D5000DFF810C20CF1180C61451FD0DFF808C293
:100D6000ACF1600C614519D0DFF8FCC1ACF1480C66
:100D7000614513D0DFF8F0C1ACF1300C61450DD006
:100D8000DFF8E4C1ACF1180C614507D0594505D036
:100D9000514503D0A94201D0B1422CD1DFF8B4C1F2
:100DA0004FF0040880F83580ACF1180C61451DD077
:100DB00091421BD0994219D0A14217D0494515D074
:100DC000714513D0B94211D06648183081420DD018
:100DD00065486038814209D063484838814205D06F
:100DE00061483038814201D05F481838086820F0E7
:100DF00001000860ABE0D1F800C02CF00E08DFF86D
:100E000054C1C1F80080ACF1180C0168614527D0CD
:100E1000914225D0994223D0A14221D049451FD0EB
:100E200071451DD0B9421BD0DFF838C10CF1180C48
:100E3000614515D0DFF830C1ACF1600C61450FD0D1
:100E4000DFF824C1ACF1480C614509D0DFF818C1C6
:100E5000ACF1300C614503D0DFF80CC1ACF1180CDB
:100E6000D1F800C02CF0010CC1F800C0DFF8E4801C
:100E70004FF0010C0168A8F11808414546D0914295
:100E800044D0994242D0A14240D049453ED071451C
:100E90003CD0B9423AD0334A1832914236D0324A25
:100EA000603A914232D0304A483A91422ED02E4A8E
:100EB000303A91422AD02C4A183A914226D05945CC
:100EC00024D0514522D0A94220D0B1421ED02A4A76
:100ED00091421BD0284A1432914217D0264A283218
:100EE000914213D0244A3C3291420FD0224A5032D0
:100EF00091420BD0204A6432914207D01E4A783288
:100F0000914203D01C4A8C32914218D1016E0A687A
:100F100022F480720A6090F85C20816D02F01F025A
:100F20000CFA02F24A60D0E919124A60C16E31B17E
:100F30000A6822F480720A60D0E91C124A6000221A
:100F4000016D80F835C080F8342001B18847002059
:100F5000DCE6000028000240580002407000024019
:100F600088000240A0000240700402408804024051
:100F7000A0040240B8040240085402582DE9F84F7A
:100F800003247D4D00234FF001094FF0B04B4FF08B
:100F90000F0AE9E009FA03F73A4076D00E7906F035
:100FA0000306012E01D0022E18D1D0F808C04FEA56
:100FB000430ECE6804FA0EF82CEA080C06FA0EF678
:100FC00046EA0C068660D0F804C00E792CEA070CBD
:100FD000C6F300169E4046EA0C0646600E79F643BC
:100FE000B6070BD0C6684FEA43088F6804FA08FCBE
:100FF00026EA0C0607FA08F73743C7600E7906F0B1
:101000000306022E12D1DE080F694FEA437C00EB83
:101010008606B646366A4FEADC6C0AFA0CF807FA1E
:101020000CF726EA08063743CEF820700F790668D9
:101030004FEA430807F0030704FA08FC07FA08F729
:1010400026EA0C06374307604E6816F4403F1CD072
:101050004A4E376847F00207376036689F0706F048
:101060000206009623F0030606F1B046B6463F0F8F
:10107000D6F80864DFF808810AFA07FC404526EA3A
:101080000C0603D14FF0000C41E06CE0DFF8F4C037
:10109000604502D14FF0010C39E0DFF8ECC060454B
:1010A00002D14FF0020C32E0DFF8E0C0604502D11F
:1010B0004FF0030C2BE0DFF8D8C0604502D14FF0B1
:1010C000040C24E0DFF8CCC0604502D14FF0050CE1
:1010D0001DE0DFF8C4C0604502D14FF0060C16E0F9
:1010E000DFF8B8C0604502D14FF0070C0FE0DFF821
:1010F000B0C0604502D14FF0080C08E0DFF8A4C092
:10110000604502D14FF0090C01E04FF00A0C0CFAD7
:1011100007FC4CEA060CCEF808C44F68DBF8006008
:10112000FF0226EA020600D516435F46CBF80060B0
:10113000D1F804C0DBF804605FEA8C2C26EA0206D2
:1011400000D516437E606E684F6826EA0206BF032C
:1011500000D516436E602E684F6826EA0206FF032C
:1011600000D516432E605B1C0A6832FA03F67FF442
:1011700011AFBDE8F88F000080000058F444025819
:10118000000002580004025800080258000C0258DF
:10119000001002580014025800180258001C02588F
:1011A000002002580024025801488068704700005F
:1011B0000C000024002809DB410900F01F0289000F
:1011C000012001F1E0219040C1F8000170470000CA
:1011D0000E4BF0B41B680D46C3F30223C3F10706A0
:1011E000042E00D90426191D072901D2002300E08E
:1011F000DB1E012404FA06F19C40491E2940641EAE
:10120000994014402143F0BC02F0D2BB0CED00E049
:101210002DE9F84F1E4615468A460446FFF7C4FFDF
:10122000814694F8400001280ED001274FF00008B5
:1012300084F8407094F84100012807D05FF0020064
:1012400084F84080BDE8F88F0220FBE74221C4F813
:10125000448084F84110002220214B46204600960D
:1012600001F03AFB0028EBD12168286888622168E8
:10127000686848622168A868C862206829690268AD
:1012800022F4400242F4800211430160E9684FF009
:1012900000622046CAF82810514601F068F9012280
:1012A0004B4608212046009601F016FB0028C7D1C6
:1012B00022680821D16084F84170C1E72DE9F84F18
:1012C00017468B460446FFF76FFF824694F84000AE
:1012D00001280ED001264FF0000884F8406094F8F1
:1012E0004100012807D0022584F840802846BDE847
:1012F000F88F0220FBE74FF00209C4F8448084F81D
:1013000041900022202153462046009701F0E4FA44
:101310000500E9D100225946204601F028F9DBF802
:10132000240058B90122534602212046009701F0BB
:10133000D3FA0500D8D12168C1F80C9084F8416037
:10134000D2E710B504000CD02068016821F001013B
:101350000160204600F0A4F80020606484F8410099
:1013600010BD012010BD0000F8B50446FFF71CFFBA
:1013700005461CB194F8410010B107E00120F8BD0A
:10138000204600F08FF841F28830A06420686FF0AA
:10139000FF02A168036802EB012223F4F851114314
:1013A0000160A06C002220212B460090204601F015
:1013B00093FA0028E3D12268D4E907352679E16859
:1013C000176845EA0665DFF844C01943104B294306
:1013D0000025012607EA0C07394311602268D4E989
:1013E0000517B4F810C0D2F804E039430EEA030E32
:1013F0004EEA0C431943516021680A6842F0010229
:101400000A60656484F84160F8BD00002FFFFF00AA
:10141000FEF8E0FF2DE9F843164688460446FFF73C
:10142000C3FE034694F8400001280ED0012084F842
:101430004000002794F84100012808D05FF0020521
:1014400084F840702846BDE8F8830220FBE7A06CD2
:101450008221676484F841100022202100902046F8
:1014600001F03AFA0500EBD120687268016821F0BA
:10147000080111430160706808280AD12268102110
:10148000306810632068C1602068016841F48011F1
:1014900001604FF040624146204601F068F8CFE716
:1014A0007047000070B586B0044614216846FFF707
:1014B0000BF83F492068884277D13E48016841F4E3
:1014C00080410160006800F4804005903948583838
:1014D000016841F480410160016821F480410160AC
:1014E00034480C30016841F002010160016801F0EC
:1014F00002010591016841F002010160016801F0FB
:1015000002010591016841F008010160016801F0E4
:1015100008010591016841F008010160016801F0CE
:1015200008010591016841F010010160016801F0B6
:1015300010010591016841F008010160006802ABEB
:1015400003211D4E00F0080005900020092402220E
:1015500083E8130004256946CDE900523046FFF7C1
:101560000DFD402000900A21304604916946FFF7A6
:1015700005FD124E68026946049400903046FFF75C
:10158000FDFCA8026946049400903046FFF7F6FC83
:101590000B48694600950494FFF7F0FCE8026946A1
:1015A000049400903046FFF7E9FC06B070BD0000DF
:1015B00000500052D444025800040258000C025853
:1015C000001002582DE9F84F15460E460446FFF765
:1015D000EBFD82462068816994F8403000F12009D3
:1015E000012B0DD001274FF0000884F8407094F8CB
:1015F0004120012A06D0022084F84080BDE8F88FFF
:101600000220FBE7C4F84480A6B3222284F84120DC
:101610000269521CA2630269521C6263266342691A
:1016200022F0406242F080624261206881610EE0F7
:101630000621204601F050F9C8B999F80000216B45
:101640000870206B401C2063A06B401EA063A06B41
:1016500053464FF0010200950028E9D14FF00201F6
:10166000204601F039F910B922680221D16084F8CE
:101670004170C1E7FFE7616C012041F0080161643E
:10168000BAE7000010B500F053F905490968054AAA
:10169000C1F30211515C01F01F01C84010BD0000F0
:1016A000204402583C530008494930B5484C0B1DB2
:1016B0000A68143409681D68246802F00303C5F33E
:1016C0000012C1F30531C4F3CC04002914FB02F26B
:1016D00000EE102AF8EE400A75D03F4A9FED3D1A01
:1016E000B7EE000A6BB1DFED3D1A012B01D0022BE2
:1016F00064D002EE101A1168F8EE422A81EEA22A96
:1017000021E0334C283C23689B0612D5344B2468D7
:1017100001EE901A1168C4F3C104F8EE612AE340A7
:1017200001EE903AC1F30801F8EE611A81EEA22AA7
:101730000BE001EE901ADFED2B2A00BFF8EE611AE4
:10174000116882EEA12AC1F3080101EE901A116816
:10175000F8EE611A40EE811A71EE800A62EE200AFC
:10176000C1F3462101EE101AB8EE411A31EE001A0B
:10177000C0EE811ABCEEE11A80ED001A1168C1F3C7
:10178000064101EE101AB8EE411A31EE001AC0EE11
:10179000811ABCEEE11A80ED011A1168C1F30661ED
:1017A00001EE101AB8EE411A31EE000A80EE801AEE
:1017B000BCEEC10A80ED020A30BD04E001EE901AD1
:1017C000DFED092ABAE70021016041608160F3E79B
:1017D0002844025800000039384402580024744A52
:1017E0000090D0030024744C20BCBE4B494930B556
:1017F000484C0B1D0A681C3409681D68246802F0F7
:101800000303C5F30022C1F30551C4F3CC0400293E
:1018100014FB02F200EE102AF8EE400A75D03F4A9F
:101820009FED3D1AB7EE000A6BB1DFED3D1A012BBB
:1018300001D0022B64D002EE101A1168F8EE422A91
:1018400081EEA22A21E0334C283C23689B0612D566
:10185000344B246801EE901A1168C4F3C104F8EE09
:10186000612AE34001EE903AC1F30801F8EE611AF3
:1018700081EEA22A0BE001EE901ADFED2B2A00BFC9
:10188000F8EE611A116882EEA12AC1F3080101EE97
:10189000901A1168F8EE611A40EE811A71EE800A12
:1018A00062EE200AC1F3462101EE101AB8EE411A89
:1018B00031EE001AC0EE811ABCEEE11A80ED001A7A
:1018C0001168C1F3064101EE101AB8EE411A31EE6B
:1018D000001AC0EE811ABCEEE11A80ED011A1168FF
:1018E000C1F3066101EE101AB8EE411A31EE000A9A
:1018F00080EE801ABCEEC10A80ED020A30BD04E021
:1019000001EE901ADFED092ABAE70021016041607B
:101910008160F3E72844025800000039404402582F
:101920000024744A0090D0030024744C20BCBE4BA9
:1019300030B500F043F80B4A0B490C4B156814689E
:10194000C5F3032204F00F048A5C095D02F01F0254
:1019500001F01F01D040064A20FA01F11960106021
:10196000084630BD184402583C53000804000024C7
:101970000000002400B5FFF7DBFF05490968054AB0
:10198000C1F30211515C01F01F01C84000BD00000D
:101990001C4402583C53000800B5FFF7C9FF054935
:1019A0000968054AC1F30221515C01F01F01C840DA
:1019B00000BD00001C4402583C530008454970B566
:1019C00045480968434B103B11F0380208D001111B
:1019D000082A03D0102A0BD0182A0BD0084670BD55
:1019E00019688906FBD51968C1F3C101C84070BDEB
:1019F0003A4870BD3749374D18310C1D24350A68F7
:101A0000096826682D6802F0030406F00102C1F39C
:101A10000511C5F3CC0515FB02F200EE102AB8EE55
:101A2000400AE9B32F4ADFED2E0AB7EE001A6CB177
:101A3000DFED2D1A012C01D0022C43D002EE101A3A
:101A40001068F8EE422A81EEA22A1EE01C68A40665
:101A500011D51B6801EE901A1168C3F3C103F8EEAB
:101A6000612AD84001EE900AC1F30800F8EE611A2D
:101A700081EEA22A0BE001EE901ADFED1C2A00BFD6
:101A8000F8EE611A106882EEA12AC0F3080001EE98
:101A9000900AF8EE611A40EE201A31EE810A00E059
:101AA00015E022EE000A1068C0F34620401C00EE4C
:101AB000900AF8EE600A80EE201ABCEEC10A10EE21
:101AC000100A70BD01EE901ADFED092AD8E7002058
:101AD00070BD0000104402580090D00340787D0192
:101AE00000000039304402580024744A0024744C29
:101AF00020BCBE4B04284FF0E020016903D021F048
:101B000004010161704741F00401FAE77047704732
:101B1000704710B5040003D094F83D0010B107E001
:101B2000012010BD002084F83C00204600F022F87F
:101B3000022084F83D002068211D01F0BBF801203F
:101B400084F8480084F83E0084F83F0084F84000A0
:101B500084F8410084F8420084F8430084F844008B
:101B600084F8450084F8460084F8470084F83D0076
:101B7000002010BD08B500680B49884212D10B48FF
:101B8000016841F00201016000680022042100F0B8
:101B9000020000901D20FFF71BFBBDE808401D2040
:101BA000FFF708BB08BD000000040040E8440258ED
:101BB00090F83D10012901D001207047174A0221F9
:101BC00080F83D100168CB6843F00103CB600068EA
:101BD000904214D0B0F1804F11D0114988420ED0FC
:101BE000104988420BD01049884208D00F498842DA
:101BF00005D00F49884202D00E49884207D181683A
:101C00000D4A1140062906D0B1F5803F03D0016886
:101C100041F0010101600020704700000000014018
:101C20000004004000080040000C00400004014097
:101C300000180040004001400700010070472DE9F6
:101C4000F041044600680027C6680569A90713D556
:101C5000B10711D5FA1E0261012121772068806940
:101C60008007204602D0FFF7E9FF04E000F08BF880
:101C7000204600F089F82777680716D5700714D535
:101C8000226802206FF004011161207720688069CA
:101C900010F4407F204602D0FFF7D0FF04E000F0B0
:101CA00072F8204600F070F82777280715D530071E
:101CB00013D5226804206FF0080111612077206895
:101CC000C0698007204602D0FFF7B8FF04E000F0AB
:101CD0005AF8204600F058F82777E80616D5F0069F
:101CE00014D5226808206FF0100111612077206858
:101CF000C06910F4407F204602D0FFF79FFF04E048
:101D000000F041F8204600F03FF82777E80708D0B8
:101D1000F00706D021686FF001000861204600F04E
:101D200035F8280601D4A80408D5300606D5216860
:101D30006FF4025008612046FFF7E9FEE80508D578
:101D4000300606D521686FF4807008612046FFF7E1
:101D5000DDFE680608D5700606D521686FF04000E4
:101D60000861204600F01EF8A8060AD5B00608D57E
:101D700021686FF0200008612046BDE8F041FFF7C0
:101D8000C7BEBDE8F0817047704700000349884234
:101D900003D103480168491C0160704720050024F5
:101DA00008000024704770477047704770477047BD
:101DB0002DE9F04107680025044640F60F0302268E
:101DC000F8693968BA6818420AD183067ED501F0ED
:101DD000200302F0805C53EA0C0377D0616F74E15A
:101DE000CF4BDFF840C3134001EA0C0C53EA0C0C54
:101DF0006CD05FEAC07C0CD05FEAC15C09D54FF0C3
:101E0000010CC7F820C0D4F8907047F00107C4F85F
:101E10009070870709D5D70707D027683E62D4F8A6
:101E2000906046F00406C4F8906046070AD5D607CD
:101E300008D0276804263E62D4F8906046F0020677
:101E4000C4F8906006070CD501F020061E4308D0A8
:101E5000266808233362D4F8903043F00803C4F8AE
:101E6000903003050BD54B0109D526684FF400636C
:101E70003362D4F8903043F02003C4F89030D4F8A3
:101E80009030002B3DD0800609D501F0200002F0F3
:101E90008051084303D0616F09B12046884721680B
:101EA000D4F890008968490602D410F0280F2AD08F
:101EB000204601F02BF82068806840061ED5206877
:101EC000083050E8001F21F0400100E021E040E828
:101ED0000012002AF3D1D4F8800078B1924901654C
:101EE000D4F88000FEF708FF00280AD0D4F880005C
:101EF000016D00E02046BDE8F04108472046FFF7AD
:101F000056FFBDE8F0812046FFF751FFC4F890501E
:101F1000F7E7D4F86CC02023BCF1010F7ED15FEA53
:101F2000C06C7BD55FEAC16C78D510203862206820
:101F30008068400673D5D4F880107C4A08689042C7
:101F400034D07A4A1832904230D0784A30329042B7
:101F50002CD0764A4832904228D0744A603290425F
:101F600024D0724A7832904220D0704A9032904207
:101F70001CD06E4AA832904218D06D4A904215D0BB
:101F80006B4A1832904211D0694A303290420DD0DB
:101F9000674A4832904209D0654A6032904205D083
:101FA000634A7832904201D0614A9032406800041E
:101FB000000CA6D0B4F85C208242A2D9A4F85E003E
:101FC000C869B0F5807F2FD0216851E8000F20F458
:101FD000807041E80002002AF6D12068083050E8FD
:101FE000001F21F0010140E80012002AF5D120680D
:101FF000083050E8001F21F0400140E80012002A9C
:10200000F5D1C4F88C30E566216851E8000F20F066
:10201000100041E80002002AF6D101E040E00BE0A8
:10202000D4F88000FEF7B8FC2667B4F85C00B4F87A
:102030005E10401A81B22FE0B4F85C00B4F85E1074
:10204000B4F85E20401A81B2002AB2D00029B0D084
:10205000226852E8000F20F4907042E80007002F39
:10206000F6D1344F206800F1080050E8002F02EA52
:10207000070240E8002CBCF1000FF3D1C4F88C300B
:10208000E5666567206850E8002F22F0100240E8FE
:102090000023002BF6D126672046FFF784FE30E7A9
:1020A000C60209D5560207D54FF480103862204683
:1020B000BDE8F041FFF77ABE06060AD501F08006BA
:1020C00002F40002164304D0A16F00297FF412AF7E
:1020D00017E7420611D54A060FD52046026852E896
:1020E000001F21F0400142E80014002CF6D1C0F896
:1020F0008830856700F0E0F803E7020206D54A0061
:1021000004D52046BDE8F041FFF74FBEC001C6D55B
:102110000029C4DA2046BDE8F041FFF745BE0000C3
:102120000100001020010004F72E000810000240FA
:1021300010040240FEFFFFEF10B5040003D0D4F8F6
:10214000880010B107E0012010BD002084F8840051
:10215000204600F027F82420C4F888002068016891
:1021600021F001010160A06A10B1204600F00AFED2
:10217000204601F05DF90128E6D02068416821F48D
:10218000904141602068816821F02A0181602068C7
:10219000016841F0010101602046BDE8104000F0F7
:1021A00055BE000010B586B0044614216846FEF7FF
:1021B0008BF91249206888421ED11148016841F00C
:1021C00010010160006800F0100005900C48103804
:1021D000016841F00101016000680221002200F065
:1021E00001000590032307244FF4C0608DE81F0011
:1021F00004486946FEF7C2FE06B010BD001001405B
:10220000F04402580000025830B4D0F88C30202B33
:1022100002D0022030BC7047A9B1A2B10B4D0024FE
:102220000368C466AB420BD05B681B0208D5046828
:1022300054E8003F43F0806344E80035002DF6D1B8
:1022400030BC01F0CBBA0120E4E70000000C0058DC
:1022500030B400681549884226D1154841880A04DF
:1022600017D402464FF000034C04127804D50A2A12
:102270000ED141F4004115E00D2A11D00D4DC1F3EE
:102280000D04491C89B2B1F5FA7F2A55418000D36B
:1022900043800122074830BC05499438FFF7B4BF9A
:1022A00041F480414180F4E730BC704700100140A8
:1022B0001C0000244C06002470470000254B2DE92B
:1022C000F0431968002908DA196841F000411960E3
:1022D0008169891C8161BDE8F0831E4A1E49083A64
:1022E000141D1268651C1B4E0A620C36A71C24784C
:1022F0001A4A05F1070C06F104084FF0000981F8AD
:1023000024402D788D623568CD623D880D861B682E
:102310004B63DCF800308B63D8F80030CB63C2F835
:1023200000901368002BFCD004680C6044684C607B
:1023300084688C60C468CC6004690C6144694C6139
:1023400084698C61C069C861C2F800901068002877
:10235000FCD0C0E72CED00E0C0DC002460000024CD
:102360000549054870300A6822F480320A60016825
:1023700021F001010160704724ED00E0044A0721CB
:10238000034870321160016841F480310160704788
:1023900024ED00E0FFB5012500242A46032600961F
:1023A00029042346CDE901454803039500F036F89A
:1023B00002220096CDE901451748002351040395F8
:1023C00000F02CF800960023CDE9014503221846C1
:1023D000A903039500F022F8042202940023039439
:1023E000170670073946CDE9006400F017F800962B
:1023F0000023CDE9014505223946B007039500F0D9
:102400000DF801230294062203941907CDE9006414
:10241000C80000F003F8FFBD000001202DE9F04FD7
:1024200017460546C8064FF00006DDE90AA8DDF8A4
:1024300030B0DDF8249002D109B1002405E001207C
:10244000BDE8F08F4908641CE4B20129FAD1641E8A
:10245000E4B2FFF785FF46EA03700B4B40EA0960E0
:102460003D4340EA8A4045F010021A6040EA484085
:10247000191D40EA0B4040EA440040F001000860AA
:10248000FFF77CFF0020DBE79CED00E070B50E4914
:1024900000252846401C4C2801F8015BFAD30A4C61
:1024A0000A4E20462660FEF74CFF40C40120202142
:1024B0001022162384E82F00C4E90505201FE561DA
:1024C000BDE87040FEF750BF6C050024005000527C
:1024D000104800210E4A4FF4E13310B50C2402607D
:1024E000C0E90131C160C0E904148161C161FFF735
:1024F00023FE002202212520FEF76AFE2520FEF79A
:1025000059FEBDE81040044901220248FFF77CBE95
:1025100000100140B80500241C00002408A010B5DC
:1025200001F036FA4FF47A74204601F0B1FC0AA0AB
:1025300001F02EFA2046BDE8104001F0A9BC0000D1
:102540004D656D20416363657373204572726F72D0
:1025500021210D0A00000000536F6674205265733C
:102560006574696E672E2E2E0D0A000070472DE9E6
:10257000F0434B6A4FF040652BB1AA4203D0046888
:102580008B6A5B1E23618B69002B68D00C6AB4B325
:1025900003688C68DC61CC69FCB1D1E90B38D1F8F7
:1025A00024C04E6B8F8A43EA080346EA0C06334385
:1025B0000E6A43EA8743D1E9037C43EA0C033343C1
:1025C0008E693B430F682343046833433B4365E014
:1025D000006849688161BDE8F083D1E90B364F6A34
:1025E0004C6B8D8A33433C430E6923430C6A43EAA8
:1025F00085438D693343096823432B4362E0FFE73A
:10260000CC69B4F1000918D0D1E90B484F6A4E6B80
:10261000B1F814C044EA08043E430F683443CE685E
:1026200044EA8C44344344EA09041C4303683C43B1
:102630001443AA425C61CBD1CDE7D1E90B464F6A86
:102640004D6BB1F814C034433D4300682C43096816
:1026500044EA8C441C430C4314434461BBE70B6ABB
:10266000ABB303688C68DC61CC69E4B1D1E90B38A9
:10267000D1F824C04E6B8F8A43EA080346EA0C0661
:1026800033430E6A43EA8743D1E9037C43EA0C03F0
:1026900033438E693B432343046833431343AA42C5
:1026A000636195D197E7D1E90B364F6A4C6B8D8A00
:1026B00033433C430E6923430C6A43EA85438969EB
:1026C0003343234300680B431343436183E7FFE72E
:1026D000CC6984B1D1E90B384F6A4E6BB1F814C0A4
:1026E00043EA08033E433343CE6843EA8C43334313
:1026F00023430468D2E74C6A002C9DD0D1E90B3605
:102700008F8A4D6B0168334325432B4343EA87404F
:10271000104348615FE7000030B595B0002001210B
:1027200010240C900B020D9305230E900A061092B4
:102730008D050190CDE906530F9001AA129041F248
:10274000883313901490CDE90410CDE902140548A4
:1027500007A9FEF75DFD002801D06FF0020015B05B
:1027600030BD00006C05002410B5FFF78FFE00F0AF
:1027700081F800F051F801460648814204D106A0D4
:1027800001F006F9002010BD09A001F001F94FF099
:10279000FF3010BD1740EF00573235513634204F0F
:1027A0004B2C666C6173682049443A25580D0A0029
:1027B000573235513634204552524F522121212172
:1027C00021202049443A25580D0A000030B591B027
:1027D00000204FF480744FF44061099465010B9020
:1027E000EB2406958A030F90062308930C92109011
:1027F000CDE902040E900A91019000F03BF80548E3
:1028000001AA03A9FEF706FE002801D06FF005001B
:1028100011B030BD6C05002410B590B04FF480733A
:1028200000205C01069319040394032208909F235F
:102830000C90009341F288340B900D900790059016
:10284000CDE909120A4822466946FEF737FD0848D5
:102850000EA92246FEF7B6FE9DF838209DF83900F5
:102860009DF83A1010B0120442EA0020084310BD4F
:102870006C05002470B58EB041F2883400204FF40E
:10288000807166220890CDE90610009222460B90D6
:1028900069460C900D90099005900E48FEF70EFDCC
:1028A0004FF0FF3560B9FFF737FF6FF0020670B9E0
:1028B00099200090074822466946FEF7FFFC10B1B8
:1028C00028460EB070BDFFF727FF0028F9D030462C
:1028D000F7E700006C0500242DE9F0419846164604
:1028E0000F460446069D08E0681C06D0FEF75CFC17
:1028F000A0EB0800A8420AD84DB120688068384093
:1029000000D00120B042EFD10020BDE8F0810420CA
:1029100084F84100606C40F0010060640120F4E73D
:102920001D4800B587B0016841F0010101600168F0
:1029300001F001010591016841F0020101600168A7
:1029400001F002010591016841F004010160016894
:1029500001F004010591016841F00801016001687E
:1029600001F008010591016841F010010160006863
:10297000142100F0100005906846FDF7A5FD002029
:1029800001214A030092CDE90110039069460348F2
:10299000FEF7F4FA07B000BDE04402580008025800
:1029A000F0B40E4E01250D4F0024103735600B4E4C
:1029B0003C601836371D34603E1D3C60074F346064
:1029C00028373E1D3C60054FDFF814C06037346087
:1029D0003C60CCF80851F0BC00F010B8004402583C
:1029E0000080005110B501F0A1FB02F0F1FB0128BD
:1029F00003D0BDE8104002F0D3BB10BD844664484C
:102A0000F0B5634C05680C3425F00406066000251B
:102A10002668284646F4404626602668B604FCD55B
:102A20005C4C47F6FF76276847F48037276001E063
:102A30006D1CADB22768BF0301D4B542F8D3B542CF
:102A400001D10120F0BD534E524D28363035376844
:102A500047F002073760376847EA01174E49376089
:102A6000D5F800E001EB4227ACF1010CC9014EEAB8
:102A70000C0EC5F800E02A6801EB0343291F3A4316
:102A80002A602A681A432A602A6842F080722A6003
:102A90000A6842F008020A600A680A600A6842F49A
:102AA00040320A60226842F08072226022689201FD
:102AB000FCD5384A3368383240F2B71743F4C8338C
:102AC00033601568334B4C333D431560156845F44E
:102AD00000751560156845F0807515600A680A6014
:102AE0000A680A600A6842F400220A600A6842F42E
:102AF00000120A60196821F003011960196841F099
:102B000002011960216841F080612160216809019A
:102B1000FCD5204B1F49183310311A6842F00802C7
:102B20001A601A681A600A6842F003020A600A68AA
:102B3000C2F3C202032AFAD1184D2A68154942F09D
:102B400002022A601C312E680A1D46F020062E6003
:102B50001E68104D46F040061E60F4350B6843F0C9
:102B600040030B600E680E4B46F480660E601168E1
:102B700041F040011160216841F080012160296825
:102B800041F002012960196841F001011960F0BDAE
:102B90000C4802580044025800FEFFFF002000527B
:102BA000200400582A4AF0B5106800F00F000728EA
:102BB00004D2106820F00F00C01D106025490020CD
:102BC000244C10340B68244D43F001030B6020604B
:102BD0000B682B400B60136803F00F03072B04D91D
:102BE000136823F00F03DB1D13601A4C1B4A1834C3
:102BF0001B4B261D371D2060164C1A4D28343060A3
:102C0000261D3860371D23603B1D35601C1D3A6052
:102C1000251D2E1D1860331D22602860326018604B
:102C20000A680C4B104C22F4802260330A60186052
:102C300020686FF30F00B0F1005F03D20B49012051
:102C4000C1F8080143F2D20009490860F0BD000054
:102C500000200052004402587FEDF6EA8002010194
:102C6000000202020000FF010010005C0080005121
:102C7000004000520148FEF7E2BF0000200500249A
:102C800010B50A4C2068C068C043C00709D1084885
:102C90000069804722680021642051622168C8626F
:102CA000E0606FF001002168086110BD00DD0024C4
:102CB000500100242DE9F0472A4B4FF0804A2A4D5D
:102CC00002689842294E2A4F2A4C09D0504507D015
:102CD000A84205D0B04203D0B84201D0A04205D1ED
:102CE000D1F804C022F070024CEA0202DFF888C07A
:102CF000DFF888809842DFF888900FD050450DD0DB
:102D0000A8420BD0B04209D0B84207D0A04205D0AB
:102D1000604503D0404501D0484503D1CD6822F439
:102D200040722A434D6922F080022A430260984291
:102D30008A68C2620A68826207D0A04205D06045F4
:102D400003D0404501D0484501D109690163012103
:102D500041610169C90703D0016921F001010161E5
:102D6000BDE8F0870000014000040040000800407A
:102D7000000C0040000401400040014000440140BC
:102D80000048014090F82810090706D50168836BB8
:102D90004A6822F400421A434A6090F82810C90792
:102DA00006D00168C36A4A6822F400321A434A60B6
:102DB00090F82810890706D50168036B4A6822F449
:102DC00080321A434A6090F82810490706D50168F6
:102DD000436B4A6822F480221A434A6090F8281014
:102DE000C90606D50168C36B8A6822F480521A436B
:102DF0008A6090F82810890606D50168036C8A68F5
:102E000022F400521A438A6090F82810490611D51E
:102E10000168436C4A6822F480121A434A60416C8C
:102E2000B1F5801F06D10168836C4A6822F4C002A4
:102E30001A434A6090F82810090606D50168C26C4A
:102E4000486820F400201043486070472DE9F8439B
:102E500000250446C0F89050FEF7A6F98046206889
:102E600020266FF07E470068000713D500224346F6
:102E700031042046009700F039FD58B1216851E82F
:102E8000000F20F0800041E80002002AF6D1C4F8CB
:102E9000886021E020680068400722D50022434670
:102EA0004FF480012046009700F020FDC8B1206853
:102EB00050E8001F21F4907140E80012002AF6D17A
:102EC0002068083050E8001F21F0010140E800129E
:102ED000002AF5D1C4F88C60032084F88450BDE842
:102EE000F883C4F88860C4F88C60E5662567002024
:102EF00084F88450F3E710B5806B0021A0F85E10D1
:102F0000A0F85610FEF753FF10BD000010B5026880
:102F100052E8001F21F4907142E80013002BF6D113
:102F20000E4B0268083252E8001F194042E80014B4
:102F3000002CF6D1C16E012908D1026852E8001FA9
:102F400021F0100142E80013002BF6D100212022CD
:102F5000C0F88C20C166416710BD0000FEFFFFEF86
:102F600010B5D0F88C10B0F860202229016804D088
:102F7000886940F00800886110BD496A836D11407E
:102F80001980816D891C8165B0F85E10491EA0F81A
:102F90005E10B0F85E100029EED1016851E8002FF4
:102FA00022F4907241E80023002BF6D10168083129
:102FB00051E8002F22F0010241E80023002BF5D157
:102FC000184B002102682024C0F88C40416701673B
:102FD0009A420BD05268120208D5036853E8002FBA
:102FE00022F0806243E80024002CF6D1C26E012A50
:102FF00002D0FFF72DF910BDC166026852E8001F2C
:1030000021F0100142E80013002BF6D10168CA69D3
:10301000D243D20601D410220A62B0F85C10FEF747
:10302000C2FE10BD000C00582DE9F04704460068B0
:10303000C569D0F800A0D0F80880D4F88C10B4F896
:103040006060222905D0816941F008018161BDE8F5
:10305000F087B4F868704FF0000975E02068A16D42
:10306000406A30400880A06D801CA065B4F85E0006
:10307000401EA4F85E002068C569690730D0E907E2
:103080000AD05FEACA5107D501210162D4F8900045
:1030900040F00100C4F89000A8070BD55FEAC870A3
:1030A00008D0216802200862D4F8900040F00400A3
:1030B000C4F8900068070BD55FEAC87008D0216893
:1030C00004200862D4F8900040F00200C4F8900098
:1030D000D4F8900020B12046FEF769FEC4F8909025
:1030E000B4F85E0080BB216851E8000F20F48070C6
:1030F00041E80002002AF6D1304A2068083050E842
:10310000001F114040E80013002BF6D12C4B20216A
:1031100020684A46C4F88C10C4F87490C4F87090C3
:1031200098420BD04068000208D5216851E8000F92
:1031300020F0806041E80003002BF6D1E06E01280A
:1031400025D02046FFF784F80FB1A80686D4B4F83E
:103150005E0000283FF47BAFB4F8681081427FF630
:1031600076AF2068083050E8001F21F0805140E819
:103170000012002AF5D113486067206850E8001F4C
:1031800041F0200140E80012002AF6D15FE7E26634
:10319000206850E8001F21F0100140E80012002ACA
:1031A000F6D12068C169C943C90601D41021016262
:1031B000B4F85C102046FEF7F6FDC5E7FEFFFFEF12
:1031C000000C0058612F000810B5D0F88C10B0F832
:1031D00060202229016804D0886940F008008861D5
:1031E00010BD496A836D11401970816D491C81655C
:1031F000B0F85E10491EA0F85E10B0F85E1000290D
:10320000EED1026852E8001F21F4907142E80013E9
:10321000002BF6D10168083151E8002F22F001029D
:1032200041E80023002BF5D1184B0021026820242F
:10323000C0F88C40416701679A420BD05268120275
:1032400008D5026852E8003F23F0806342E800346A
:10325000002CF6D1C26E012A02D0FEF7F9FF10BD94
:10326000C166026852E8001F21F0100142E8001315
:10327000002BF6D10168CA69D243D20601D41022CC
:103280000A62B0F85C10FEF78EFD10BD000C00580D
:103290002DE9F04704460068C569D0F800A0D0F8D1
:1032A0000880D4F88C10B4F86060222905D08169B8
:1032B00041F008018161BDE8F087B4F868704FF013
:1032C000000975E02068A16D406A30400870A06D6B
:1032D000401CA065B4F85E00401EA4F85E002068A3
:1032E000C569690730D0E9070AD05FEACA5107D536
:1032F00001210162D4F8900040F00100C4F8900070
:10330000A8070BD55FEAC87008D0216802200862C0
:10331000D4F8900040F00400C4F8900068070BD582
:103320005FEAC87008D0216804200862D4F89000D1
:1033300040F00200C4F89000D4F8900020B120467C
:10334000FEF735FDC4F89090B4F85E0080BB2168AC
:1033500051E8000F20F4807041E80002002AF6D105
:10336000304A2068083050E8001F114040E8001340
:10337000002BF6D12C49202320684A46C4F88C3013
:10338000C4F87490C4F8709088420BD04068000272
:1033900008D5216851E8000F20F0806041E8000363
:1033A000002BF6D1E06E012825D02046FEF750FF15
:1033B0000FB1A80686D4B4F85E0000283FF47BAFB6
:1033C000B4F8681081427FF676AF2068083050E884
:1033D000001F21F0805140E80012002AF5D1134867
:1033E0006067206850E8001F41F0200140E80012AB
:1033F000002AF6D15FE7E266206850E8001F21F05E
:10340000100140E80012002AF6D12068C169C943C2
:10341000C90601D410210162B4F85C102046FEF701
:10342000C2FCC5E7FEFFFFEF000C0058C9310008E1
:103430002DE9F04304468068D84E87B0D84B216808
:10344000D4E90427D4F81CC010430A68002547EAD1
:103450000C073843324002430A602068E268416842
:1034600021F44051114341602268A1699A4201D080
:10347000206A01439768DFF82CC3CB4ECB4807EA9C
:103480000C070F4397602168676ACA6A22F00F022F
:103490003A43CA622268B2420ED1006800F0380096
:1034A000182873D047DCB8B3082879D010286FD11A
:1034B00078E028287ED17BE0BD498A4209D10068A6
:1034C00000F00700062875D2DFE800F0546A6C6E41
:1034D0007072B8498A4209D1006800F007000628D6
:1034E00068D2DFE800F0475D5F616365B2498A42F8
:1034F00009D1006800F0070006285BD2DFE800F081
:103500003A5052545658AD498A420BD1006800F0E7
:10351000070006284ED200E010E0DFE800F02B4163
:1035200043454749A6498A420AD1006800F038005D
:10353000182839D0B7DD2028BBD13CE001203AE083
:10354000A0498A4209D1006800F00700062831D25C
:10355000DFE800F01026282A2C2E9B498A420BD146
:10356000006800F00700062824D2DFE800F0031905
:103570001B1D1F2100201EE09A421BD18B48001DFD
:10358000006800F00700062814D202E00CE007E013
:1035900010E0DFE800F0030507090B0D02200AE048
:1035A000042008E0082006E0102004E0202002E0CB
:1035B000402000E080208549DFF814829A42854A45
:1035C0004FF400434FEA21174FF000064ED1102868
:1035D0001AD006DC022809D004280BD008287CD198
:1035E0000DE020283ED0402877D13DE0FEF74AF894
:1035F000014610E06846FEF757F801990BE003A872
:10360000FEF7F4F8049906E01068800605D5106806
:10361000C0F3C100C140002970D0606A676838F803
:10362000102007EB4703B1FBF2F0834255D8B0EB13
:10363000073F52D8002308461946FCF7FBFE024616
:103640007808130E120243EA012110183A4671411C
:103650000023FCF7EFFE604AA0F5407191423CD890
:1036600021688FE03946D8E71946D6E7D4F81CC060
:103670004FF6EF799C4546D1082819D005DC58B1A2
:1036800001280CD0042875D10DE0102815D0202871
:1036900035D040286ED134E0FEF76CF901E0FEF73A
:1036A0007BF9014610E06846FDF7FEFF01990BE04B
:1036B00003A8FEF79BF8049906E01068800604D57D
:1036C0001068C0F3C100C140C1B1636A606838F8D6
:1036D0001330B1FBF3F1490000E04BE001EB500186
:1036E000B1FBF0F0A0F11001494543D84FF6F0735B
:1036F0002168C0F342021840104343E043E03946DA
:10370000E3E71946E1E7082819D005DC58B101289C
:103710000CD004282ED10DE0102815D020282BD055
:10372000402827D12AE0FEF725F901E0FEF734F919
:10373000014610E06846FDF7B7FF01990BE003A8CA
:10374000FEF754F8049906E01068800604D5106866
:10375000C0F3C100C140B1B1636A606838F813308A
:10376000B1FBF3F101EB5001B1FBF0F0A0F110015E
:10377000494505D9012506E03946EDE71946EBE74D
:10378000216880B2C8600120A4F86A00A4F868002B
:1037900028466667A66707B0BDE8F083F369FFCFE8
:1037A000000C0058FFF4FF1100100140544402586F
:1037B0000044004000480040004C004000500040E1
:1037C0000014014000780040007C00400090D003CD
:1037D0004C53000800440258FFFC0F0070B583688A
:1037E000002481654FF48056A0F85C20B342A0F815
:1037F0005E204FF0FF01446704D1036903BB40F230
:10380000FF111DE04FF07F05C3B1B3F1805F1AD007
:10381000A0F860402221C0F89040C0F88C100168E8
:10382000083151E8003F43F0010341E80034002C27
:10383000F5D1416EB1F1005F0CD02FE0036933B9CF
:10384000A0F86010E6E7016909B13F21F8E7A0F8A8
:103850006050DFE7B0F8681091421FD88168B1422C
:1038600001D10169B9B11D490269416742B10268DC
:1038700052E8001F41F4807142E80013002BF6D19A
:103880000168083151E8002F42F0805241E80023DE
:10389000002BF5D120E012494167F1E78168B14280
:1038A00001D1016969B10F49026941675AB10168E3
:1038B00051E8002F42F4907241E80023002BF6D12A
:1038C0000AE009494167026852E8001F41F02001FF
:1038D00042E80013002BF6D1002070BD91320008A1
:1038E00029300008C9310008612F00082DE9F04790
:1038F000994617460D460446089E4FF0000833E0EF
:10390000701C31D0FDF750FCA0EB0900B04218D874
:10391000BEB120680168490726D5802D24D0402DEE
:1039200022D0C169C94309070DD408250562204684
:10393000FFF7ECFAC4F89050012084F88480BDE8C9
:10394000F0870320FBE7C069C04300050CD4216861
:103950004FF4006008622046FFF7D8FA2021C4F82F
:10396000901084F88480ECE72068C06935EA000094
:1039700004D00020B842C3D00020E0E70120F9E7DE
:103980000148FEF715BA0000B8050024FEE7000064
:103990000FB4054B10B503A9044A029800F028F8AB
:1039A00010BC5DF814FB0000E13E0008EC020024AE
:1039B000090700284FEA116104DB00F1E02080F8DC
:1039C0000014704700F00F0000F1E02080F8141D93
:1039D000704702E008C8121F08C1002AFAD17047D8
:1039E0007047002001E001C1121F002AFBD170477F
:1039F0002DE9FF4F8DB00F460546002606E025282D
:103A00000BD0DDE90F1290476D1C761C287800283A
:103A1000F5D111B03046BDE8F08F0024A246A14692
:103A20000122EC4900E0044315F8013F203B02FA73
:103A300003F00842F7D128782A2810D06FF02F021F
:103A40002878A0F13001092914D80AEB8A0102EB89
:103A5000410144F0020400EB010A6D1CF0E701CFC4
:103A60005FEA000A03D544F40054CAF1000A44F0A6
:103A700002046D1C28782E2817D115F8010F44F088
:103A800004042A280ED06FF02F022878A0F130010C
:103A900009290AD809EB890102EB410100EB010970
:103AA0006D1CF2E757F8049B6D1C28786C280FD02A
:103AB00006DC4C2817D068280DD06A2814D104E001
:103AC000742810D07A280FD10DE044F400140AE0D5
:103AD00044F4801401E044F440146978814202D136
:103AE00004F580146D1C6D1C2A786E2A1FD00CDC26
:103AF000632A31D004DC002A8BD0582A11D1A3E0EC
:103B0000642A68D0692A0CD165E0732A2ED004DCBF
:103B10006F2A73D0702A04D19BE0752A6FD0782A5F
:103B20006ED01046DDE90F129047761C50E1C4F3C9
:103B30000250022806D0032809D0042801CF09D05A
:103B4000066045E101CFF117C0E9006140E101CF16
:103B500006803DE106703BE117F8040B8DF800008C
:103B600000208DF80100EB46012003E057F804BB6C
:103B70004FF0FF3061074FF0000102D40DE008F173
:103B80000101884649450FDA8045F8DB1BF808102B
:103B90000029F4D108E008F1010188468142FADBEE
:103BA0001BF808100029F6D1DDE90F23AAEB080065
:103BB0008146214600F036F9304400EB080604E067
:103BC000DDE90F121BF8010B9047B8F10108F7D29D
:103BD00021464846F7E00A21C4F302534FF0000B98
:103BE0000891022B04D001CFC117032B09D00AE0A2
:103BF000FF1D27F00707F7E8020108E032E01FE0A9
:103C000020E000B2C117042B01D140B2C117031E3E
:103C100071F1000307DA4FF0000CD0EB0C006CEBF5
:103C200001012D2302E0230504D52B238DF8243038
:103C3000012303E0E30701D02023F7E7984658E08B
:103C40000A2110E010210EE010204FF0000B089028
:103C50000CE010214FF0000B44F004044FF0080971
:103C6000089103E008214FF0000B0891C4F30253C0
:103C7000022B04D001CF0021032B06D006E0FF1D4C
:103C800027F00707F7E8020103E080B2042B00D118
:103C9000C0B24FF0000823072BD5702A07D0DDF8FB
:103CA00020C08CF0100C5CEA0B0C05D00EE0402319
:103CB0008DF82430012308E050EA010306D03023B8
:103CC0008DF824308DF8252002239846DDF820C099
:103CD0008CF0080C5CEA0B0C0BD150EA010301D10B
:103CE000630706D530238DF824304FF00108A9F181
:103CF0000109582A04D038A20B9208AA0A920BE0B4
:103D00003AA2F9E75B46089AFCF794FB0B9B9B5C95
:103D10000A9A521E0A92137050EA0102F2D10A98CE
:103D2000ADEB000000F1200B600702D524F48034D5
:103D300001E04FF00109D94502DDA9EB0B0000E0DD
:103D4000002000EB0B0141440890AAEB010AE003BC
:103D500006D4DDE90F232146504600F063F80644FF
:103D60004FF0000908E009A911F80900DDE90F1278
:103D7000904709F10109761CC145F4DBE0030CD53D
:103D8000DDE90F232146504600F04CF8064404E0DC
:103D9000DDE90F1230209047761C0899481E0890E4
:103DA0000029F5DC08E00A980A990078491C0A9174
:103DB000DDE90F129047761CBBF10001ABF1010B5E
:103DC000F1DC21465046DDE90F2300F019F80644E6
:103DD0006D1C1BE60928010030313233343536378B
:103DE0003839616263646566000000003031323347
:103DF00034353637383941424344454600000000E7
:103E00002DE9F041044600251E461746880404D4D7
:103E100005E039462020B0476D1C641EF9D52846C0
:103E2000BDE8F0812DE9F041044600251E4690468C
:103E3000C80301D5302700E02027880404D505E019
:103E400041463846B0476D1C641EF9D52846BDE88A
:103E5000F081000010B504460420FDF74BFE0B482E
:103E60004FF0E021084A04604FF47A7054430A6925
:103E700094FBF0F042F002020A61401E48610869BA
:103E800040F00100086110BD40420F0018000024FE
:103E900070B5002405464FF47A7603E0304600F012
:103EA00005F8641CAC42F9D370BD00000B49002238
:103EB00070B54FF0E024096865694843A369A169BA
:103EC0009942FCD002D2A3EB010302E0A5EB01066C
:103ED00033441A440B468242F1D370BD18000024CB
:103EE00002498862CA695206FCD570470010014039
:103EF00008B5FEF74FFAFCF7A7FB1C494FF6FF0386
:103F00001B4A0868184040F44070104308600423BE
:103F100002220521C020FEF743FDFEF7D9FAFEF785
:103F200023FCFEF753FCFEF7FBFC4FF4F070FFF7A9
:103F300091FFF02000F054FCFCF771FB01210F20F1
:103F4000FCF76EFCFCF7F6FCFCF76EFB0A4801225E
:103F500008A1FCF76EFBF02300211A464FF4FA602B
:103F600000900846FCF76AFB002008BD0CED00E05D
:103F70000000FA05303A0000F0020024134A70B540
:103F8000131893F8383093B1114B53F820308B420B
:103F90001AD90F4B002402EB8002183B53F8203053
:103FA0002046B1FBF3F1136A53F8213008E01168A1
:103FB0008847012070BD156A0E18401C45F8264040
:103FC0009842F8DB002070BD022070BD2000002464
:103FD0009453000830B504460848074D50F82410A3
:103FE00005EB84008A00006A002100F087F8291997
:103FF000012081F8380030BD2000002464530008FF
:104000002DE9F0411E4E04460F463019002590F868
:10401000380010B93168204688474FF0FF326FB33F
:10402000184B53F82410B7FBF1FCB7FBF1F001FB80
:104030001C7101B1401C1349183951F82410491E54
:104040001CD406EB8406376A57F821C0BCF1000F78
:1040500004D0002585420FD1002206E06D1CF9E74F
:10406000356A8F18521C45F827008242F8D353F85E
:1040700024004843BDE8F081491EE5D51046F9E724
:10408000200000247C53000810B50C4C00220C4B7F
:10409000114603EB800354F8200005E01C6A54F835
:1040A000214004B1521C491C8842F7D84FF47A7160
:1040B0004A43B2FBF0F080B210BD00006453000828
:1040C00020000024002906D0034A02EB80029268F7
:1040D000891AFFF753BF70472000002410B504462B
:1040E000FFF78EFF411C05D0034901EB840189686D
:1040F000084410BD002010BD2000002402E000BFD5
:1041000000F8011B521EFBD2704700000548016CED
:10411000096821B1016CC9680968816270474FF074
:10412000FF31FAE74402002400687047104A5FF04C
:10413000000110B501EB410302EB8300047AE407B0
:1041400010D0446874B14468641E446044684CB93B
:10415000047A44F002040472047A640702D552F827
:1041600023304360491CC9B20329E3D310BD0000CA
:104170003832012470B596B0054614AB01AA03A9E4
:1041800000F0DEF9002823D11E4C042613E000BF06
:10419000216806EBC00014AB6A4608580BA900F072
:1041A000CFF9002814D103A90BA800F0F1FB88B1C6
:1041B0009DF84C00401C8DF84C00217DC0B281421E
:1041C000E6D800BF9DF84C00217D81420ED104202D
:1041D00016B070BD9DF800009DF80410884201D90A
:1041E0000220F5E79DF84C00A075EBE713A92846DF
:1041F00000F060FA0028EBD19DF84C0060750020BB
:10420000E6E70000500100242DE9F0417F4C9AB010
:10421000A57D207DA8427DD92168042000EBC50042
:1042200019AB10AA085811A900F08AF911A978A0B1
:10423000FFF7AEFB00270DF1180833E00121208BBA
:10424000B940084217D0222173A0FFF7A1FB3846DE
:1042500000F0B4FA0119243170A0FFF799FB222174
:104260006DA0FFF795FB384600F0A8FA20442430F3
:1042700048F827000CE0384600F0A0FA0119496A16
:1042800048F82710E07D08B365A000BFFFF780FB6A
:104290009DF84000401E874202D063A0FFF778FBE4
:1042A0007F1CFFB29DF840008742C7D35FA0FFF795
:1042B0006FFB00F00DFF607D0B2814D2DFE800F0EB
:1042C000080D31384048525E6B78880058A0DDE711
:1042D000206850F83500804704E0206850F8351019
:1042E00006988847064600F0B1FE9DF86400012854
:1042F0007DD050A0FFF74CFB94F8EC0000280DD0C7
:10430000D4F8F0000A22B0FBF2F3B0FBF2F102FBAA
:10431000130200E002E048A0FFF73AFB1AB0BDE844
:10432000F081226852F83520DDE906019047D9E78F
:10433000236806AE96E8070053F835309847D1E772
:10434000266856F8355006AE96E80F00A847C9E72C
:104350000A9806AE0090206850F8355096E80F0095
:10436000A847BFE7DDE90A0106AECDE900012068F4
:1043700050F8355096E80F00A847B3E70AAB06AEF1
:1043800093E807008DE80700206850F8355096E85C
:104390000F00A847A6E70AAE96E80F008DE80F00C9
:1043A000266856F8355006AE96E80F00A84799E7FC
:1043B0000BAE96E80F0001AE86E80F000A9806AE35
:1043C0000090206850F8355096E80F00A84789E71C
:1043D0000CAE96E80F0002AE86E80F00DDE90A0198
:1043E000CDE90001266856F8355006AE00E003E03E
:1043F00096E80F00A84775E7E07D314618B116A092
:10440000FFF7C6FA78E717A0FAE70000500100248A
:104410000D0A2573280000002563000025730000A5
:1044200030582558000000002C0000002900000032
:10443000256C64003B0D0A0046756E6374696F6EEF
:104440002052756E2054696D653A25642E253164BD
:104450006D730D0A000000003D305825583B0D0AD1
:10446000000000003D256C753B0D0A00F0B50446C8
:10447000002007460646054623782C2B03D0292B1F
:1044800004D01BB103E015B9012700E015B31EB13C
:10449000222B2BD0F7B92FE0A3F1300CBCF1090F80
:1044A00019D92D2B17D02B2B15D0A3F1610CBCF1F2
:1044B000050F10D9A3F1410CBCF1050F0BD9582BF6
:1044C00009D0782B07D0222B0CD0202B1DD02C2BE1
:1044D0001BD0FF260CE05FB9612B00D3203B01F815
:1044E000013B12E027B9012635460EE0002567B1F1
:1044F00000230B701670F0BD3DB15C2B02D1401C47
:10450000641CC0B2237801F8013B401C641CC0B29B
:10451000B2E730B5002515700AE001F8014B1478B8
:10452000401C641CE4B214709C4201D3012030BDD5
:104530000478202C01D0002CEFD100200D7030BD6C
:104540002DE9FF4F4FF00009984682B004464D46D2
:104550004F464E464FF0010BCA464A4615E0202909
:1045600010D002F07F03052B0CD202B9802202F09A
:104570007F03042B01D12A290AD1521C0DF8031004
:10458000D2B201E0852A04D0401C01780029E6D18E
:1045900062B102F07F02684644A10DF8029000F07B
:1045A000F7F938B1012188F8001000224FF0000817
:1045B000234615E088F80090F7E700BF13F8010FD5
:1045C00008F10101202801F0FF0801D02A2807D1B5
:1045D000184600F069F9282802D02A2800D047465A
:1045E0001878282801D00028E8D10FB13C44641C79
:1045F00000273946207888B1282804D0292806D0F9
:1046000022280FD010E079B96D1CEDB20CE059B939
:1046100025B16D1E15F0FF0501D00CE00127012E1C
:1046200032D039E049B100214DB12C280FD02028DB
:104630001FD028281DD07AB117E00121F4E72028E7
:1046400020D0039B18700398401C03901AE0521C62
:104650004FF0010BD2B20CE0BAF1050F05D20AF10E
:1046600001030DF80A0003F0FF0A0BF1010000F04E
:10467000FF0B012D06D1BBF1020F03D1761C4FF0C9
:10468000030BF6B2641CB5E708A168460DF80A9062
:1046900000F07EF900B90026049938460E7003999F
:1046A00081F8009006B0BDE8F08F0000766F696475
:1046B000000000002DE9F043364D0023B5B08946D7
:1046C0001C4619466A184E1CF1B20A299376F9D392
:1046D00003E000BF10F8011F91B101782829F9D13A
:1046E000461C0127694633AA3046FFF7BFFE9DF8F6
:1046F000CC10064441B1012926D0FF2940D10BE05E
:10470000012035B0BDE8F0839DF80000B8B334A9AE
:10471000684600F0D1F808B10220F2E7204600F028
:104720004DF80146349B2944601C07FA04F24B62A1
:1047300005EB040C298B0423C4B2914329830A2C72
:104740008CF81A3019D81BE0684600F036F900F1F1
:104750000108204600F032F841196846243100F083
:1047600023F9611C288B07FA04F32A1918432883BC
:10477000CCB20A2C82F81A8002D90320C1E7FFE7E5
:104780003078292801D00028ACD1002089F80040D9
:10479000B7E7000050010024064B002010B519882F
:1047A0000A0405D50448C9B20022044662541A809E
:1047B00010BD00001E0000244C0600240246074BDA
:1047C0000020014610B505E05C18491CC9B2A47E62
:1047D0002044C0B29142F7D310BD00005001002424
:1047E00000EBC0024FF0FF3102EB001010B501EBFF
:1047F000800081B24FF47A7000F042FC0149012040
:10480000C87510BD500100240246012000E050434D
:104810004B1ED9B2FBD2704770B5FFF7BDFF050044
:1048200022D0124EB1688847040013D0284600F009
:10483000CDF8012801D0040016D0012C0ED0022C96
:104840000ED0032C0ED0042C0ED109A0BDE8704070
:10485000FFF79EB8F068BDE87040004709A0F5E793
:104860000BA0F3E70DA0F1E770BD0000500100249C
:10487000CEB4D5D2B5BDC6A5C5E4B5C4BAAFCAFDE0
:10488000210D0A00BAAFCAFDB4EDCEF3210D0A0026
:10489000B2CECAFDB4EDCEF3210D0A00B2CECAFDF0
:1048A000CCABB6E0210D0A0010F8011F202901D180
:1048B0000028F9D1C8B270472DE9F0430D460146F2
:1048C00000234FF00A091C461E462B600A78A2F10D
:1048D0003003092B14D903782D2B01D02B2B00D1B9
:1048E00074B1A2F14103052B0AD9582A05D012F060
:1048F000FF0F17D00120BDE8F083012C02D0F9E7AB
:10490000412A01D34FF0100902782D2A04D02B2A16
:1049100004D0641CE4B203E0022600E00126401C3F
:10492000491CD3E7B9F1100F074601D084B112E05A
:10493000032C01D20220DEE73878302802D17878C3
:10494000582801D00320D6E7A41EBF1CE4B201E022
:104950000420D0E70CB1641EE4B23878A0F1300135
:10496000092901D8884601E0A0F1370821464846C8
:10497000FFF74AFF2A6808FB0020286017F8011F8C
:104980000029E7D1022E01D1404228600020B2E781
:1049900002780B789A4201D00120704712B1401C76
:1049A000491CF5E70020704702780A700278002A57
:1049B00002D0401C491CF7E77047002102781AB169
:1049C000491C401CC9B2F9E708467047F0B58DB0E4
:1049D00004461E23694609AAFFF79BFD002808909C
:1049E00072D19DF8240000263E4D27188DF82460D2
:1049F0009DF8240055F820106846FFF7C9FF38B12C
:104A00009DF82400401CC0B28DF824000728EFD385
:104A10009DF824000425344C072855D2DFE800F027
:104A20000404395A605F5E0030A0FEF7B1FF30A089
:104A3000FEF7AEFF3EA0FEF7ABFF4DA0FEF7A8FFCE
:104A40005BA0FEF7A5FF6AA0FEF7A2FF78A0FEF725
:104A50009FFF86A0FEF79CFF8BA0FEF799FF93A017
:104A6000FEF796FF97A0FEF793FF9CA0FEF790FF3E
:104A7000A1A0FEF78DFFA7A0FEF78AFFB3A0FEF767
:104A800087FFC0A0FEF784FFCBA0FEF781FFD7A071
:104A90001BE016A0FEF77CFFE4A0FEF779FF8DF87F
:104AA00024600BE0216805EBC0000958EFA0FEF779
:104AB0006FFF9DF82400401C8DF824009DF8240011
:104AC000217D8142EED856E257E2FEF761FF0020D9
:104AD0000DB0F0BD05A0FEF75BFFCBE12CE20CE2D0
:104AE000EBE1000064000024500100240D0A0000E6
:104AF0002D2D2D2D2D2D2D2D2D2D2D2D2D2D2D2DE6
:104B00002D2D2D2D2D2D2D2D55534D4152542056EB
:104B1000332E352D2D2D2D2D2D2D2D2D2D2D2D2DB6
:104B20002D2D2D2D2D2D2D2D2D2D2D200D0A00005F
:104B30002020202055534D415254CAC7D3C9414C5F
:104B400049454E54454BBFAAB7A2B5C4D2BBB8F62F
:104B5000C1E9C7C9B5C4B4AEBFDAB5F7CAD4BBA5FD
:104B6000BDBBD7E9BCFE2CCDA8B9FD200D0A0000C5
:104B7000CBFC2CC4E3BFC9D2D4CDA8B9FDB4AEBF21
:104B8000DAD6FACAD6B5F7D3C3B3CCD0F2C0EFC3E6
:104B9000E6B5C4C8CEBACEBAAFCAFD2CB2A2D6B45E
:104BA000D0D02ED2F2B4CB2CC4E3BFC90D0A000082
:104BB000D2D4CBE6D2E2B8FCB8C4BAAFCAFDB5C411
:104BC000CAE4C8EBB2CECAFD28D6A7B3D6CAFDD771
:104BD000D62831302F3136BDF8D6C62CD6A7B3D65D
:104BE000B8BACAFD29A1A2D7D6B7FBB4AE0D0A0048
:104BF000A1A2BAAFCAFDC8EBBFDAB5D8D6B7B5C85F
:104C0000D7F7CEAAB2CECAFD292CB5A5B8F6BAAF51
:104C1000CAFDD7EEB6E0D6A7B3D63130B8F6CAE4AF
:104C2000C8EBB2CECAFD2CB2A2D6A7B3D60D0A00ED
:104C3000BAAFCAFDB7B5BBD8D6B5CFD4CABE2ED68B
:104C4000A7B3D6B2CECAFDCFD4CABEBDF8D6C6C9A8
:104C5000E8D6C3B9A6C4DC2CD6A7B3D6BDF8D6C651
:104C6000D7AABBBBB9A6C4DC2E0D0A00BCBCCAF5D2
:104C7000D6A7B3D63A7777772E6F70656E65647670
:104C80002E636F6D0D0A000055534D415254D3D021
:104C900037B8F6CFB5CDB3C3FCC1EE28B1D8D0EB51
:104CA000D0A1D0B4293A0D0A000000003F3A2020DC
:104CB00020202020BBF1C8A1B0EFD6FAD0C5CFA2EA
:104CC0000D0A000068656C703A202020BBF1C8A175
:104CD000B0EFD6FAD0C5CFA20D0A00006C6973748C
:104CE0003A202020BFC9D3C3B5C4BAAFCAFDC1D0D2
:104CF000B1ED0D0A0A00000069643A20202020204E
:104D0000BFC9D3C3BAAFCAFDB5C44944C1D0B1ED20
:104D10000D0A0A006865783A20202020B2CECAFD2C
:104D20003136BDF8D6C6CFD4CABE2CBAF3B8FABF56
:104D3000D5B8F12BCAFDD7D6BCB4D6B4D0D0BDF807
:104D4000D6C6D7AABBBB0D0A0A0000006465633A49
:104D500020202020B2CECAFD3130BDF8D6C6CFD437
:104D6000CABE2CBAF3B8FABFD5B8F12BCAFDD7D654
:104D7000BCB4D6B4D0D0BDF8D6C6D7AABBBB0D0A3A
:104D80000A00000072756E74696D653A312CBFAA15
:104D9000C6F4BAAFCAFDD4CBD0D0BCC6CAB13B3082
:104DA0002CB9D8B1D5BAAFCAFDD4CBD0D0BCC6CA05
:104DB000B13B0D0A0A000000C7EBB0B4D5D5B3CCA7
:104DC000D0F2B1E0D0B4B8F1CABDCAE4C8EBBAAF12
:104DD000CAFDC3FBBCB0B2CECAFDB2A2D2D4BBD80E
:104DE000B3B5BCFCBDE1CAF82E0D0A002D2D2D2D4A
:104DF0002D2D2D2D2D2D2D2D2D2D2D2D2D2D2D2DE3
:104E00002D2D2D2D2D2DD5FDB5E3D4ADD7D32D2DA5
:104E10002D2D2D2D2D2D2D2D2D2D2D2D2D2D2D2DC2
:104E20002D2D2D2D2D2D2D200D0A00002D2D2D2D5C
:104E30002D2D2D2D2D2D2D2D2D2D2D2D2D2D2D2DA2
:104E40002D2D2D2D2DBAAFCAFDC7E5B5A52D2D2DC4
:104E50002D2D2D2D2D2D2D2D2D2D2D2D2D2D2D2D82
:104E60002D2D2D2D2D2D2D2D200D0A0025730D0AF4
:104E70000000000042A0FEF78BFD8DF8246016E0D4
:104E8000216805EBC0000BAB0AAA08586946FFF77A
:104E900057FB9DF82400216851F8302048A069464E
:104EA000FEF776FD9DF82400401C8DF824009DF847
:104EB0002400217D8142E3D85DE0AFF2D030FEF7DF
:104EC00067FD09AA69463846FFF7D0FA9DF8240025
:104ED000002843D108A96846FFF7EEFC8DF82400AE
:104EE00010B104283AD102E008993AA01CE03CA095
:104EF000FEF74EFD0120E0753DE038A0FEF748FDCD
:104F000009AA69463846FFF7B1FA9DF8240028BB84
:104F100008A96846FFF7D0FC8DF8240010B10428DA
:104F20001CD104E0089933A0FEF732FD23E034A041
:104F3000FEF72EFDE6751EE028A0FEF729FD09AA62
:104F400069463846FFF792FA9DF8240030B908A95F
:104F50006846FFF7B1FC8DF8240008B10220B7E5E0
:104F6000089810F0FF0084F8EC0001D029A000E0C0
:104F70002FA0FEF70DFD19A0A7E50120A8E5000070
:104F80002D2D2D2D2D2D2D2D2D2D2D2D2D2D2D2D51
:104F90002D2D2D2D2D2D2D2D2DBAAFCAFD2049449F
:104FA000202D2D2D2D2D2D2D2D2D2D2D2D2D2D2D3E
:104FB0002D2D2D2D2D2D2D2D2D2D2D2D200D0A009E
:104FC00025732069642069733A0D0A3058253038FA
:104FD000580D0A004845583A305825580D0A000027
:104FE0003136BDF8D6C6B2CECAFDCFD4CABE210D69
:104FF0000A0000004445433A256C750D0A00000084
:105000003130BDF8D6C6B2CECAFDCFD4CABE210D4E
:105010000A00000052756E2054696D652043616C72
:1050200063756C6174696F6E204F4E0D0A0000004D
:1050300052756E2054696D652043616C63756C61B7
:1050400074696F6E204F46460D0A00000A480B49EE
:1050500000680269D243D20706D1D1F8F0304FF68A
:10506000FF721A44C1F8F020406AD1F8F0201044D1
:10507000C1F8F0007047000000DD0024500100245A
:10508000104A38B5136843F0040313601268002314
:105090000D4C02F0040200920C4AC2E90230136186
:1050A0001046C2E90041FCF734FD0848FCF780FDDA
:1050B000002203211E20FCF78BF8BDE838401E209B
:1050C000FCF778B8E84402580008004000DD0024EE
:1050D00008486FF0010310B5190C00220468236121
:1050E0000368D962C160006842620348C0F8F020DA
:1050F00010BD000000DD00245001002470B51B4CE1
:10510000606B10B10120E06170BD0020E0611848C3
:105110000068E063E06BA16B884205D92068E26B10
:10512000511A436D19444165E06BA063114D20692C
:10513000B0FA80F0C0F11F0000EB800655F82600A1
:1051400028B90DA140F6014210A0FEF721FC05EBA5
:10515000860000F10802416849684160914201D12E
:1051600049684160C868206070BD000044020024A6
:10517000080000244CDD00242E2E5C46726565522A
:10518000544F535C7461736B732E63004572726F7E
:10519000723A2025732C2025640D0A0001607047A7
:1051A000502010B572B680F31188BFF34F8FBFF354
:1051B0006F8F62B600F01AF818B104494FF08050B2
:1051C0000860002080F3118810BD000004ED00E0AD
:1051D0000548416919B1406B18B1002070470120A2
:1051E0007047022070470000440200242DE9F04778
:1051F000474C606B002628B1A069401CA061304676
:10520000BDE8F087E5686D1CE56011D1206C006891
:1052100028B140A140F6C62243A0FEF7B9FB206C9E
:10522000616C21646064206A401C2062FEF76EFF9E
:105230004148A16A8D420FD34FF00009216C0968E3
:1052400039B1216CC968C9684A68954212D2A26214
:1052500002E04FF0FF31A1622168C96A01EB8101D0
:1052600050F82100012800D90126E0690028C6D0A5
:105270000126C4E7D1E902734A6901F10408BB6061
:10528000D1E902377B605368434501D1CB68536055
:10529000C1F8149013685B1E13608A6A9AB1D1E951
:1052A000077C01F11803C7F808C0D1E9077CCCF8E6
:1052B000047057689F4201D10B6A5360C1F828906F
:1052C00013685B1E1360CA6A0123276993403B433E
:1052D000236102EB820200EB820252688A609368CB
:1052E000CB609368C3F80480C2F80880CA6A02EBF6
:1052F000820200EB82034B6150F822305B1C40F8C5
:1053000022302268C96AD26A914297D3012695E772
:10531000440200242E2E5C4672656552544F535C45
:105320007461736B732E63004572726F723A20253D
:10533000732C2025640D0A004CDD002400000000C1
:105340000102030401020304060708090100020028
:105350000400060008000A000C00100020004000B5
:1053600080000001200300004006000080070000CC
:10537000E0010000C0030000E00100004000000068
:10538000400000004000000040000000400000001D
:105390004000000000C800000090010000E0010093
:1053A0000078000000F0000000780000010001011A
:1053B000400000008032012480360124003701249F
:1053C000000000003F0000006465630069640000A5
:1053D00072756E74696D650068656C700000000020
:1053E0006C697374000000006865780075696E74FC
:1053F000385F74206D665F707574632875696E74AC
:10540000385F74206329000075696E74385F7420FA
:105410006D665F636C6F736528766F696429000041
:1054200075696E7433325F74206D665F73697A6577
:1054300028766F696429000075696E7433325F7471
:10544000206D665F74656C6C28766F696429000056
:1054500075696E74385F74206D665F72656164642F
:10546000697228766F6964290000000075696E749E
:10547000385F74206D665F636C6F73656469722852
:10548000766F69642900000075696E74385F742056
:105490006D665F6F70656E2875696E74385F742A0B
:1054A000706174682C75696E74385F74206D6F64F8
:1054B0006529000075696E74385F74206D665F72CF
:1054C000656E616D652875696E74385F74202A6F2A
:1054D0006C646E616D652C2075696E74385F742A1A
:1054E000206E65776E616D6529000000766F6964D6
:1054F000206D665F676574732875696E7431365FF9
:10550000742073697A65290075696E74385F742038
:105510006D665F7363616E5F66696C65732875693C
:105520006E74385F74202A2070617468290000004E
:1055300075696E74385F74206D665F6F70656E6438
:1055400069722875696E74385F742A207061746896
:105550002900000075696E7433325F74206D665FD8
:1055600073686F77667265652875696E74385F74E5
:10557000202A70617468290075696E74385F742020
:105580006D665F756E6C696E6B2875696E74385FD9
:1055900074202A706174682900000000766F6964C5
:1055A000206D665F6765746C6162656C2875696EF5
:1055B00074385F74202A706174682900766F69649A
:1055C000206D665F7365746C6162656C2875696EC9
:1055D00074385F74202A70617468290075696E746C
:1055E000385F74206D665F6D6B6469722875696ED3
:1055F00074385F742A70617468290000766F69647A
:105600002077726974655F616464722875696E746D
:1056100033325F7420616464722C2075696E743358
:10562000325F742076616C290000000075696E7429
:10563000385F74206D665F726561642875696E7489
:1056400031365F74206C656E2900000075696E74D8
:10565000385F74206D665F77726974652875696E4E
:1056600074385F742A6461742C75696E7431365FA6
:1056700074206C656E29000075696E7433325F7436
:1056800020726561645F616464722875696E743349
:10569000325F7420616464722900000075696E7461
:1056A000385F74206D665F707574732875696E74E9
:1056B000385F74202A73747229000000766F696461
:1056C0002064656C61795F6D732875696E7431361D
:1056D0005F74206E6D732900766F69642064656C59
:1056E00061795F75732875696E7433325F74206EEB
:1056F0007573290075696E74385F74206D665F6C10
:105700007365656B2875696E7433325F74206F66DC
:10571000667365742900000075696E74385F7420C3
:105720006D665F6D6F756E742875696E74385F7421
:105730002A20706174682C75696E74385F74206DEE
:105740007429000075696E74385F74206D665F6639
:105750006D6B66732875696E74385F742A2070618A
:1057600074682C75696E74385F74206F70742C20A7
:1057700075696E7431365F74206175290000000010
:10578000A057000800000024F0020000B405000843
:10579000CC580008F002002438380100E239000833
:1057A000113C90D00304313201F21013D53F14089C
:1057B000894014084008122434401FC03230323867
:1057C00042201B40D01814D020C014E001301A78B9
:1057D000181AF018E27813C4531B08D8041AE0040E
:1057E0001ACC041AE8041AC8041AD0041329411464
:1057F00008785614089D511408FC551408E15014FB
:105800009018571B08F5081388541408754F1B90FF
:105810000808133D511B902C281375551B904C08FC
:105820001A09101A30301A89201A6C201381521B61
:105830009050081B15543019181AC9081A54081A20
:10584000CD481AF4301A65381A38201A59081A2027
:10585000081ADD181ADC201A95401A44701A7118BB
:105860001A78101A11381AB4201AD5181A9C101A5E
:1058700075101ABC081A55302AEC6019782AECB851
:1058800019081A9C5813913E1B08BC081AAD081A37
:10589000D80822801C24E1473819D813094214087B
:1058A000194823081A02FF01D102281F14100258B8
:1058B0005A100832401A0C085A801069082208133E
:0C58C000386313900A1214022328000021
:0200000490006A
:1000000043F6916CC0F6000C604740F67D7CC0F66C
:10001000000C604741F2D11CC0F6000C604741F271
:10002000B51CC0F6000C604743F6911CC0F6000CEE
:10003000604740F2AF2CC0F6000C604740F2B32C92
:10004000C0F6000C604740F2974CC0F6000C6047C9
:1000500040F2275CC0F6000C604740F2BB4CC0F693
:10006000000C604740F2F74CC0F6000C604740F2CD
:10007000C94CC0F6000C604740F2C94CC0F6000CF9
:10008000604740F2415CC0F6000C604740F20B5CF8
:10009000C0F6000C604744F2DD0CC0F6000C60476F
:1000A00040F2974CC0F6000C604744F2FD0CC0F6DD
:1000B000000C604743F6AD6CC0F6000C604744F29C
:1000C000C50CC0F6000C604740F2DF4CC0F6000CD7
:1000D00060470000084A00204FF4803102E0536B73
:1000E0001B0602D4491EFAD200E011B10349916304
:1000F000704703207047000000700052FF0FE01FA0
:100100000E4910B54A6B12F0450FFBD00C4B54074B
:1001100004D5042088638B63032010BDD20702D06E
:100120000120886310BD0A69824201D0102010BDF1
:100130008B63486900F0080010BD00000070005299
:10014000FF0FE01F0F4900204FF4803210B50BE085
:100150004B6B13F0450F07D00AB15A0707D58A6BCE
:10016000032042F004020AE0521EF1D2F5E7DA075A
:1001700004D08A6B012042F001028A63024A8A633A
:1001800010BD000000700052FF0FE01F0849486BCF
:1001900010F0450FFBD0400705D5886B40F00400F8
:1001A000886303207047034888630020704700007D
:1001B00000700052FF0FE01F30B5174A04460020C0
:1001C000536B13F0450FFBD05D0705D5906B40F0E6
:1001D00004009063032030BDDB0705D0906B40F036
:1001E00001009063012030BD1369A3420ED10B4B77
:1001F0009363526912F4604F03D0910404D5132025
:1002000030BD120C0A8030BD510401D5102030BD24
