:020000040800F2
:10000000D843002099010008F9130008F90D0008F1
:10001000F7130008FD0C0008091C00080000000090
:1000200000000000000000000000000001010008C6
:10003000FF0C00080000000045010008B519000889
:10004000B3010008B3010008B3010008B3010008C0
:10005000B3010008B3010008B3010008B3010008B0
:10006000B3010008B3010008B3010008B3010008A0
:10007000B3010008B3010008B3010008B301000890
:10008000B3010008B3010008B3010008B301000880
:10009000B3010008B3010008B3010008010D000816
:1000A000B3010008B3010008B3010008B301000860
:1000B000B3010008B3010008B3010008B301000850
:1000C000B3010008B3010008B3010008B301000840
:1000D000B3010008B3010008B3010008B301000830
:1000E000B3010008B3010008B3010008DFF80CD029
:1000F00000F076FD00480047993C0008D8430020F6
:10010000224B19680868B0E8F00F80F30988BFF344
:100110006F8F4FF0000080F311884EF00D0E704786
:100120000000000006480068006880F3088862B696
:1001300061B6BFF34F8FBFF36F8F00DF00BF00BF0B
:1001400008ED00E0EFF30980BFF36F8F0F4B1A68E3
:1001500020E9F00F106008B54FF0500080F31188CF
:10016000BFF34F8FBFF36F8F06F0FAFB4FF0000025
:1001700080F31188BDE8084019680868B0E8F00FFE
:1001800080F30988BFF36F8F704700BFC400002061
:10019000EFF3058070470000064880470648004797
:1001A000FEE7FEE7FEE7FEE7FEE7FEE7FEE7FEE727
:1001B000FEE7FEE7C9190008ED0000082DE9F0414F
:1001C0000024061B254671F1000605DA01240027EC
:1001D000D0EB070067EB0101161E73F1000605DA8C
:1001E0000027D2EB0702012567EB030300F08EFB2B
:1001F00086460E4617469C46AC4204D00025D0EBFE
:10020000050E65EB010624B10020D2EB000760EB80
:10021000030C704631463A466346BDE8F08140EA39
:1002200001039B0703D009E008C9121F08C0042A74
:10023000FAD203E011F8013B00F8013B521EF9D25B
:100240007047D2B201E000F8012B491EFBD2704783
:100250000022F6E710B513460A4604461946FFF792
:10026000F0FF204610BD30B504460020034600E0F4
:100270005B1C934203D2E05CCD5C401BF8D030BDE8
:10028000F0B480EA0102D40F4200B2EB410F02D277
:100290000246084611464A0042D0C30DDDB2C1F302
:1002A000C752AD1A202D35DAC1F3160141F4000210
:1002B00004B15242C5F1200602FA06F12A41104467
:1002C000B3EBD05F23D0C4B1012DA0EBC35009DC48
:1002D000F0BC4FF0004202EAC352DBB200F500006E
:1002E00000F07FBB400000F1807000EBC350A0F134
:1002F000807040EAD170490009E0490841EAC071C4
:10030000A0EBC35000F50000400800EBC350F0BC68
:1003100000F05EBB6142012202EB4101001BF6E7E7
:10032000F0BC704781F00041AAE780F00040A7E7E9
:1003300080EA010210B502F00043400022D04A00DA
:100340001FD0010E01EB1261C0F35600C2F356023A
:1003500040F4000042F40002A0FB022000047F39B8
:10036000140400D0401C50EA124001D44000491E41
:10037000C2B20C0604EBD010401C4008802A02D008
:1003800003E0002010BD20F00100002900DA002069
:10039000184310BD30B480EA010202F0004530F08D
:1003A000004221F0004013D090B1C30DD40DC2F330
:1003B0001601C0F31600E41A41F4000140F40002F3
:1003C0007D34914201D3641C00E04900002C02DA24
:1003D00030BC002070474FF400000023914201D34D
:1003E000891A034340084FEA4101F7D151B19142C4
:1003F00002D14FF0004105E002D24FF0010101E0CF
:100400006FF0010103EBC450284430BC00F0E0BAA7
:10041000420005D0C0F3C7525242914201DC002095
:10042000704700EBC15070472DE9FE4F804681EACE
:100430000300C00F0C46009021F0004123F000455E
:10044000B8EB0200A94105D24046214690461C4621
:100450000B46024623F00040104347D0270DC7F358
:100460000A00C3F30A510290401A019040286BDA47
:10047000C3F3130040F4801B0098924620B1002380
:10048000D2EB030A63EB0B0B01985946C0F1400213
:10049000504600F06CFA06460D4650465946019A01
:1004A00000F084FA10EB08006141002487EA115241
:1004B00084EAE7731A4340D0009A62B3019A012A92
:1004C0004FEA075215DC001B61EB02014FF00042BE
:1004D00002EA0752CDE90042001C41F58011324684
:1004E0002B4600F0BBFA03B0BDE8F08F4046214632
:1004F000F9E7001B61EB0201001C41F580130018B5
:100500005B412018A2F5001747EB030140EAD570C4
:10051000B6196D4111E06D084FEA360645EAC0751F
:100520004FEA0752001B61EB0201001C41F58011EC
:1005300049084FEA30000019514132462B4603B0BA
:10054000BDE8F04F00F07BBA009801224000002384
:10055000D0EB020263EBE073009821464FEAE074AF
:10056000B8EB000061EB0401E9E783F000435BE7CF
:1005700081F0004158E72DE9FE4F81EA030404F0C1
:10058000004421F0004100944FF0000B23F00043A1
:1005900050EA01045ED052EA03045BD0C3F30A546C
:1005A000C1F30A552C44A4F2F3340194A0FB025485
:1005B000C1F3130141F48011C3F3130343F4801317
:1005C00001FB024400FB034E840A970A44EA81546B
:1005D00047EA8357A4FB076802958D0A05FB078548
:1005E0004FEA932C04FB0C542705029D4FEA065852
:1005F00047EA1637B5EB08056EEB070C870E920E2F
:1006000047EA811742EA8312A7FB0201B6EB0B010E
:1006100064EB00042B0D43EA0C335E1844EB1C50D2
:10062000DA465146E7FB0201C5F313044FEA0B33E8
:1006300043EA14534FEA0432019C43EA0603A4F14F
:100640000C040294009CCDE900B400F007FA03B05A
:10065000BDE8F08F00200146F9E72DE9F04D81EA71
:10066000030404F0004B21F0004514464FF0000A4B
:1006700023F0004150EA050220D054EA01021DD0C7
:10068000C5F30A570246C5F31303C1F31300C1F3C0
:100690000A5640F4801543F48013A7EB0608101B9C
:1006A000D64608F2FD3873EB050002D308F10108C5
:1006B00001E092185B41B8F1000F03DA0020014617
:1006C000BDE8F08D00204FF48011064684460EE010
:1006D000171B73EB050705D3121B63EB05030643DA
:1006E0004CEA010C49084FEA300092185B4150EA8D
:1006F0000107EDD152EA030012D082EA040083EA36
:100700000501084305D0101BAB4106D2012200238E
:1007100006E000224FF0004302E06FF001025310A8
:100720001AEB06004CEB085110EB0A0041EB0B01F1
:10073000BDE8F04D00F083B9C10F80EAE0700844D5
:10074000CA079623002100F04CB9962300221146D7
:1007500000F047B90EB540F2334102910021CDE9D6
:1007600000110A460B4600F079F903B000BD00F015
:10077000004220F00040C10DC0F3160040F400001C
:100780007F2901DA00207047962903DCC1F1960128
:10079000C84001E096398840002AF4D040427047B2
:1007A00020F00040C10DC0F3160040F400007F2986
:1007B00001DA00207047962903DCC1F19601C84098
:1007C0007047963988407047C1F30A5210B5C1F39B
:1007D000130140F2FF3341F480119A4201DA002004
:1007E00010BD40F233439A42A2F2334203DC52423C
:1007F00000F0CCF810BD904010BD00F0004230F089
:1008000000400AD0C10D01F56071C0F3160042EA44
:100810000151C2084007114370470020014670474C
:1008200030B5041E71F1000404DB4FF00044404277
:1008300064EB0101141E73F1000405DB1C464FF04C
:100840000043524263EB04038B4208BF824230BD37
:1008500030B5041E71F1000404DB4FF00044404247
:1008600064EB0101141E73F1000405DB1C464FF01C
:100870000043524263EB0403994208BF904230BDEB
:1008800001F0004330B421F0004150EA010206D0EB
:100890000A0DA2F56072C1F31301002A02DC30BC1C
:1008A00000207047440F44EAC104C100E01830BC86
:1008B00000EBC25000F08CB8002801DBC0F1004012
:1008C000002901DBC1F1004181427047002801DBB2
:1008D000C0F10040002901DBC1F1004188427047AE
:1008E00030B50B46014600202022012409E021FA00
:1008F00002F59D4205D303FA02F5491B04FA02F5FD
:100900002844151EA2F10102F1DC30BD2DE9F05F93
:100910000546002092469B4688460646814640246E
:100920001BE0284641464746224600F02FF8534632
:100930005A46C01A914110D311461846224600F07B
:1009400016F82D1A67EB01084F46224601200021B8
:1009500000F00DF817EB00094E41201EA4F1010430
:10096000DFDC484631462A464346BDE8F09F202A50
:1009700004DB203A00FA02F1002070479140C2F1F6
:10098000200320FA03F3194390407047202A04DB28
:10099000203A21FA02F00021704721FA02F3D040F8
:1009A000C2F120029140084319467047202A06DB15
:1009B000CB17203A41FA02F043EAE07306E041FA2D
:1009C00002F3D040C2F1200291400843194670471B
:1009D0000029A8BF7047401C490008BF20F0010053
:1009E000704710B4B0FA80FC00FA0CF050EA010431
:1009F00004BF10BC704749B1CCF1200421FA04F4C3
:100A000011FA0CF118BF012121430843A3EB0C019B
:100A1000CB1D4FEA00614FEA102042BF002010BCFE
:100A2000704700EBC35010440029A4BF10BC7047AE
:100A3000401C490008BF20F0010010BC704710B5F1
:100A4000141E73F1000408DA401C41F100019218F1
:100A50005B411A4301D120F0010010BD2DE9F04D9A
:100A600092469B4611B1B1FA81F202E0B0FA80F2EF
:100A700020329046FFF77BFF04460F4640EA0A000B
:100A800041EA0B0153465A46084313D0114653EA34
:100A9000010019D0C8F140025046FFF777FF054624
:100AA0000E46504659464246FFF761FF084305D0BF
:100AB000012004E020463946BDE8F08D00200543C2
:100AC00046EAE0762C4337430A986305E40AA0EB34
:100AD00008000022FD0A44EA47540A3002D50020EB
:100AE0000146E9E7010510196941DDE908450019EA
:100AF0006941BDE8F04DA2E770B521F00043034322
:100B00000CD0C1F30A550024D5EB040564EB0403B3
:100B1000D617AD1AB34102DB0020014670BD201884
:100B200041EB025170BD00002DE9F041054621F076
:100B300000400C46284309D0C4F30A5040F2334128
:100B4000884205DD28462146BDE8F0812846FBE7BE
:100B500040F2FE31884210DC0CDB4FEA043040EA00
:100B6000155050EA053105D0104804F0004101430A
:100B70000020E9E700200146E6E7A0F233404642C4
:100B8000C6F1400228462146FFF7F1FE0746884697
:100B9000284621463246FFF7F9FE43463A46FFF71C
:100BA0004EFF3246BDE8F041FFF7E1BE0000F03FE6
:100BB000C1F30A52C1F3130140F2FF3341F4801133
:100BC0009A4202DA00200146704740F233439A42CB
:100BD000A2F2334202DC5242FFF7D8BEFFF7C7BE93
:100BE000064C074D06E0E06840F0010394E807007A
:100BF00098471034AC42F6D3FFF77CFA888A000895
:100C0000A88A00082DE9F04D00231A461B1A8A41D4
:100C100003DB00200146BDE8F08DC1F30A52C1F3A9
:100C2000130141F480154FF0000BD10702D10018D9
:100C30006D41521E0027044640F2FF11384601EB79
:100C4000620A3E468046024600204FF48011FFF7BC
:100C50009DFEC2197141BB1846EB0100B4EB030CB9
:100C600075EB000C04D3E41A65EB000517460E463D
:100C7000241908F101006D4180463428E3DDF9199B
:100C800046EB0600091BA84103D24FF0FF32134682
:100C900001E0002213461BEB070046EB0A51BDE8BA
:100CA000F04DFFF7CCBE70B58C1810F8015B15F055
:100CB000070301D110F8013B2A1106D110F8012BCE
:100CC00003E010F8016B01F8016B5B1EF9D12B07F3
:100CD00005D40023521E0DD401F8013BFAE710F8A9
:100CE000013BCB1A921C03E013F8015B01F8015B96
:100CF000521EF9D5A142D8D3002070BDFEE770473F
:100D00000E4808B50168890616D5016841F0200132
:100D1000016000200146009009486A46006A05F01B
:100D200025FD0098002807D006494FF08050086044
:100D3000BFF34F8FBFF36F8F08BD00001404014055
:100D40000000002004ED00E0F0B5CA78002502F0B4
:100D50000F03D20601D58A7813430A784FF00F0E9D
:100D600012F0FF0F4FF001021CD004680F8802FA46
:100D700005F63740B74211D14FEA850C0EFA0CF751
:100D800024EA070703FA0CF43C43CF78282F02D05B
:100D9000482F02D002E0466100E006616D1C082D7C
:100DA000E4D304600C88FF2C1ED944685FF0000671
:100DB00006F1080702FA07F50F882F40AF420FD15E
:100DC0004FEA860C0EFA0CF7BC4303FA0CF73C43CF
:100DD000CF78282F00D14561CF78482F00D1056109
:100DE000761C082EE4D34460F0BD016170470AB15F
:100DF0000161704741617047FEE7000070B5094C22
:100E00000025C4F8A05104F5CE7400F081F82560E7
:100E1000022001F059FF01206060022001F054FF20
:100E2000656070BD0080214208B50121082000F0F6
:100E300061FD4FF4C070ADF8000010208DF8030084
:100E400003208DF8020069460448FFF77DFF04483F
:100E50000121C0F8A011C0F89C1108BD000C014090
:100E60000080214270B5094C0025C4F8A05104F55A
:100E7000CE7400F04DF801262660022001F024FF18
:100E80006660022001F020FF656070BD0080214295
:100E90002DE9F0478146002400F028F80025124E85
:100EA0002F464FF0010800BFC6F8A071022001F0E4
:100EB0000BFFC6F8A0816006040ED6F81C0108B12D
:100EC000641CE4B2012001F0FFFE6D1CEDB2082DA0
:100ED000EAD3B9F1000F04D0FFF790FF2046BDE838
:100EE000F087FFF7BFFFF9E70080214208B58020B7
:100EF000ADF8000003208DF8020048208DF80300B3
:100F000069460248FFF720FF08BD0000000C0140C1
:100F100008B58020ADF8000003208DF802001020F5
:100F20008DF8030069460248FFF70EFF08BD000078
:100F3000000C01402DE9F0410646FFF7E9FF0F4C98
:100F40000027C4F8A0713D464FF00108F009C4F82D
:100F50009C017006060E022001F0B6FEC4F8A081C6
:100F6000022001F0B1FEC4F8A071022001F0ACFE35
:100F70006D1CEDB2082DE9D3BDE8F081008021425F
:100F800070B5FFF7C5FF094C0120C4F89C01C4F8F7
:100F9000A001042004F5CE7401F096FE0025256022
:100FA000042001F091FE656070BD000000802142C8
:100FB00010B5FFF7ADFF094C0020C4F8A001C4F83C
:100FC0009C01042004F5CE7401F07EFE01206060D7
:100FD0002060BDE81040042001F076BE0080214270
:100FE00070B50024FFF782FF0D4D0126C5F89C6106
:100FF000304601F069FEC5F8A061012001F064FEF1
:1010000007E0641CE4B2FA2C03D9FFF7D1FF0120FA
:1010100070BDD5F81C010028F3D1C5F8A00170BD42
:101020000080214208B52020ADF8000048208DF84E
:10103000030069462448FFF787FE2448016841F011
:101040002001016021480C38016841F02001016055
:101050001F49602081F800044FF0E0214FF40000A8
:10106000C1F80001FFF7E0FE00F034F8C0210220D3
:1010700002F082FE0021032002F07EFE0021042007
:1010800002F07AFE0021052002F076FE0021062003
:1010900002F072FE0F21082002F06EFE03210920EB
:1010A00002F06AFE27210A2002F066FE24210C20AD
:1010B00002F062FE24210D2002F05EFE7F2110204E
:1010C00002F05AFE08BD0000000801400C04014077
:1010D00017E000E010B54021092002F04DFE40214C
:1010E000BDE81040092002F047BE000070B50D4C6D
:1010F0000025C4F898510C48016821F47001016082
:10110000016841F440110160C4F89451022004F5D3
:10111000CA7401F0D9FD01206060022001F0D4FD05
:10112000656070BD00802142000C014038B5602030
:10113000ADF8000010208DF803000320054C8DF859
:10114000020069462046FFF7FFFD60212046FFF7B9
:101150004CFE38BD000C014070B50D4C0025C4F8A4
:1011600098510C48016821F470010160016841F454
:10117000401101600126C4F89461022004F5CA748C
:1011800001F0A2FD6660022001F09EFD656070BD69
:1011900000802142000C01402DE9F04781461748AC
:1011A0000024016821F470010160016841F400012C
:1011B0000160134E254627464FF00108C6F8987186
:1011C000022001F081FDC6F898816006040ED6F871
:1011D000140108B1641CE4B2022001F075FD6D1C1D
:1011E000EDB2082DEAD3B9F1000F04D0FFF77EFF6E
:1011F0002046BDE8F087FFF7AFFFF9E7000C01409C
:10120000008021422DE9F04106461248016821F490
:1012100070010160016841F4401101600E4C00272B
:10122000C4F898713D464FF00108F009C4F89401E4
:101230007006060EC4F89881022001F045FDC4F83E
:101240009871022001F040FD6D1CEDB2082DECD329
:10125000BDE8F081000C01400080214270B50D48CE
:10126000016821F470010160016841F440110160DE
:10127000094C0120C4F89401C4F89801022004F537
:10128000CA7401F021FD00252560022001F01CFD3B
:10129000656070BD000C0140008021420E4810B511
:1012A000016821F470010160016841F4401101609E
:1012B0000A4C0020C4F89801C4F89401022004F5F7
:1012C000CA7401F001FD012060602060BDE810409B
:1012D000022001F0F9BC0000000C01400080214216
:1012E00070B513480024016821F4700101600168A1
:1012F00041F4000101600F4D0126C5F89461022000
:1013000001F0E2FCC5F89861022001F0DDFC07E085
:10131000641CE4B2FA2C03D9FFF7C0FF012070BDB2
:10132000D5F814010028F3D1C5F8980170BD00006C
:10133000000C0140008021422DE9F0411D46144679
:101340000F460646FFF78AFF7006000EFFF75AFFAA
:10135000FFF7C6FF20B1FFF7A1FF0120BDE8F08134
:101360003846FFF74FFFFFF7BBFFFFF777FF01207E
:1013700000EB4600C0B2FFF745FFFFF7B1FF09E001
:10138000012C0DD05FF00100FFF706FF641E05F889
:10139000010BE4B2002CF3D1FFF780FF0020DDE762
:1013A0000020F1E72DE9F0411E4615460F460446A0
:1013B000FFF754FF6006000EFFF724FFFFF790FFD2
:1013C00060B93846FFF71EFFFFF78AFF00240CE0E4
:1013D000305DFFF717FFFFF783FF20B1FFF75EFFD8
:1013E0000120BDE8F081641CE4B2AC42F0D3FFF709
:1013F00055FF0020F5E7FEE770470000024908436B
:1014000002490860704700000000FA050CED00E09A
:1014100010B50021074C0A46002004EBC1131A54F2
:10142000401CC0B28028FAD3491CC9B20829F3D3A2
:1014300010BD000018090020F0B50B4424E004465C
:1014400085181DE07F2C19D8002917DB3F2915DCF2
:10145000CE1701EB56764FEAE60C0D4F26F0070645
:1014600007EBCC172744A1EB060E97F800C0012626
:1014700006FA0EF62CEA060C87F800C0641C24B2AB
:10148000A542DFDC491C09B28B42D8DCF0BD00006C
:101490001809002008B500204FF47A720021491C79
:1014A0009142FCD3401C9042F8D314208DF80300E5
:1014B00003208DF802000003ADF8000069460548DE
:1014C000FFF742FC012000F0CFF9012000F0D4F931
:1014D00008BD0000000C014070B5002406468025C0
:1014E00025FA04F0304000D0012000F0C5F90120B9
:1014F00000F0BAF9002000F0B7F9641CE4B2082C3F
:10150000EED3012000F0B0F9BDE87040002000F0FB
:10151000ABB910B5012000F0AFF9012000F0A4F93B
:10152000002000F0A9F9BDE81040002000F09CB9AF
:1015300010B5002000F0A0F9012000F095F9BDE8F9
:101540001040012000F098B910B5FFF7A3FFAE20BE
:1015500000F09AF9D52000F097F9802000F094F976
:10156000A82000F091F93F2000F08EF9D32000F080
:101570008BF9002000F088F9402000F085F9A120C7
:1015800000F082F9C82000F07FF9DA2000F07CF941
:10159000122000F079F9812000F076F9CF2000F0D8
:1015A00073F9D92000F070F9F12000F06DF9DB201B
:1015B00000F06AF9302000F067F9A42000F064F927
:1015C000A62000F061F98D2000F05EF9142000F0F3
:1015D0005BF9AF2000F058F9FFF71AFFBDE81040A3
:1015E00000F02EB90246012000E05043491EFCD213
:1015F000704710B50C4640F0B00000F045F91020DF
:1016000040EA141000F040F904F00F00BDE810406B
:1016100000F03AB908B5082B0DD0062B0AD10A4BB9
:1016200002EB420203EB4202C03A00920823062278
:1016300000F06EF808BD054B03EB0212A2F5007234
:10164000102300920822F3E7D0790008E073000825
:101650002DE9FF5F82B014461D46DDE911B607464D
:101660000022134620462946DDF84080FFF7F0F8B7
:10167000334605D82B2238460399FFF7CBFF06E007
:101680002D2238460399FFF7C5FF85F00045204617
:101690002946FFF799F88246FFF75CF822462B4669
:1016A000FEF766FF05460C4659460A20FFF79AFFEB
:1016B0008146FFF74FF82A462346FEF75CFF04F009
:1016C00099FAFFF781F8B0FBF9F1044601EB0A0241
:1016D000B81900B243460096039900F077F808F174
:1016E000010000FB067000B233462E220399FFF77B
:1016F00091FF08F1020000FB067000B25B46224633
:101700000096039900F062F806B0BDE8F09F000073
:101710002DE9F04F1F4616460D4682460024FFF77E
:101720008BFE7F1EF81707EB50700121DFF898B091
:1017300001EBE00743E000203DE000BF0AEB0003BF
:101740007F2B36D8E91705EB5171CA1021F007013C
:10175000691A002D03DA521E083112B209B202EBE7
:101760000409B9F1070F0ED8099A04FB06F80244E0
:101770000BEBC91E18F802201EF803C08A404CEA81
:10178000020C0EF803C009F10102072A11D80BEB75
:10179000C91202EB0308099A04FB06FC024498F8FC
:1017A00080301CF80220C1F10801CA40134388F8B8
:1017B0008030401CC0B2B042C0D3641CE4B2A74227
:1017C000B9DCBDE8F08F0000180900202DE9F047D2
:1017D00000241D4690468A4681460A27089E14E04A
:1017E000291B0A20491EFFF7FDFEB8FBF0F0B0FBF5
:1017F000F7F107FB110204FB069000B23346514695
:101800003032FFF707FF641CE4B2AC42E8D3BDE816
:10181000F0872DE9F0411E4615468846074600240C
:1018200008E004FB067000B233464146FFF7F2FEC3
:10183000641CE4B22A5D002AF3D1BDE8F081000007
:1018400070B5084D002400212046FFF7D2FE05EBBD
:10185000C410802100F029F8641CE4B2082CF2D3F3
:1018600070BD00001809002002464FF48051014865
:10187000FFF7BDBA000C014002464FF40051014889
:10188000FFF7B5BA000C014010B50446FFF741FE62
:101890007820FFF721FE0020FFF71EFE2046FFF70D
:1018A0001BFEBDE81040FFF743BE70B50D4606466F
:1018B000FFF72FFE7820FFF70FFE4020FFF70CFE0A
:1018C000002404E0305DFFF707FE641CE4B2AC4284
:1018D000F8D3BDE87040FFF72BBE0000044A002992
:1018E000D16901D0014300E08143D161704700001C
:1018F00000100240044A0029916901D0014300E030
:101900008143916170470000001002400CB5002136
:10191000264801910091026842F4803202604FF43F
:10192000A063026802F400320092019A521C0192F4
:10193000009A12B9019A9A42F3D10268920333D500
:10194000012100911A490A6842F010020A600A68EF
:1019500022F003020A600A6842F002020A6041684B
:10196000416041684160416841F480614160416883
:1019700021F47C114160416841F4E8114160016843
:1019800041F08071016001688901FCD5416821F056
:1019900003014160416841F0020141604168C1F3C7
:1019A00081010229FAD10CBD00910CBD001002404A
:1019B0000020024010B505F0AFFA012803D0BDE8C1
:1019C000104005F039B810BD0F4810B5016841F05E
:1019D0000101016041680D4A1140416001680C4AF3
:1019E00011400160016821F480210160416821F407
:1019F000FE0141604FF41F018160FFF787FF054939
:101A00004FF00060086010BD001002400000FFF8B9
:101A1000FFFFF6FE08ED00E00029018802D041F04A
:101A2000800101E021F080010180704700290188D8
:101A300002D041F0010101E021F001010180704775
:101A4000002930F8441F02D041F4004101E0C1F305
:101A50000E0101807047018921F007010181704763
:101A600030B5028C22F001020284028C8388048B40
:101A700022F0020224F073050C882C430D891543D3
:101A80004A882A43114DA8420BD0114DA84208D0D4
:101A9000104DA84205D0104DA84202D00F4DA842CB
:101AA0000DD122F008054A8923F440732A4322F01D
:101AB00004058A882A438D891D43CB892B43838063
:101AC0000483C9888186028430BD0000002C014057
:101AD0000034014000400140004401400048014002
:101AE00070B5028C22F480520284048C8288838B2D
:101AF0000D8823F4E6464FF6FF7303EA05253543C8
:101B000024F400560C8903EA043434434E8803EA73
:101B100006362643094CA04202D0094CA04205D10A
:101B200022F480448A8903EA8212224382808583D8
:101B3000C988A0F84010068470BD0000002C014048
:101B400000340140828B4FF6FF7322F4006203EAF7
:101B500001211143818370470021018041808180F0
:101B6000C180018141818181C181704730B5028886
:101B70001B4B1C4C98420DD0A0420BD0B0F1804FB3
:101B800008D0194DA84205D0184DA84202D0184DD2
:101B9000A84203D122F070054A882A43154DA84275
:101BA00006D0154DA84203D022F44075CA882A43B6
:101BB00002808A8882850A88028598420AD0A042DB
:101BC00008D00E4A904205D00D4A904202D00D4AEC
:101BD000904201D1097A01860121818230BD000045
:101BE000002C014000340140000400400008004087
:101BF000000C004000100040001400400040014074
:101C00000044014000480140FEE700000FB4054BCE
:101C100010B503A9044A029800F05CF910BC5DF805
:101C200014FB00008536000840010020490050EAFE
:101C3000C12018BF04204A0D18BF40F0010040F237
:101C4000FF72B2EB515F08BF40F00200012808BFED
:101C5000052070472DE9F0414F1E00EBC7010446F7
:101C6000D1E9000115461E4637F006020DD02A467E
:101C70003346FEF780FC7F1E04EBC703D3E9002345
:101C8000FEF7D2FB37F00602F1D1022F25D0042F48
:101C900013D0062F18BFBDE8F0812A463346FEF761
:101CA0006AFCD4E90A23FEF7BFFB2A463346FEF757
:101CB00062FCD4E90823FEF7B7FB2A463346FEF759
:101CC0005AFCD4E90623FEF7AFFB2A463346FEF75B
:101CD00052FCD4E90423FEF7A7FB2A463346FEF75D
:101CE0004AFCD4E90223FEF79FFB2A463346FEF75F
:101CF00042FCD4E90023BDE8F041FEF795BB012288
:101D0000FEF7FABEFEF790BB0022134610461146BE
:101D1000FEF7A3BC024A00201107FEF7EDBE00004B
:101D200001FDFFFF02E008C8121F08C1002AFAD116
:101D300070477047002001E001C1121F002AFBD14B
:101D4000704700000149086070470000440100200E
:101D50002DE9FF5F82B00021DDE90430020DDDF8DE
:101D600040B0034318D044F61050A2F2FF32424371
:101D70001514119801281FD0A5EB0B00401C5FEA39
:101D8000000A4FF000064E4FDFF83891B04650463B
:101D900015D5CAF1000413E0119801244AA30128C3
:101DA00001D16FEA0B010298119AC0E90031C0E934
:101DB000024206B0BDE8F09FCBF10000DFE7044629
:101DC0000021404A491842EB0450CDE9001012E0CE
:101DD000E00707D032463B4640464946FEF7CBFB7C
:101DE0008046894632463B4610461946FEF7C3FBFD
:101DF00006460F466410002CEAD1DDE90401DDE956
:101E00000023BAF1000F06DAFEF7B5FB42464B4657
:101E1000FEF7B1FB05E0FEF720FC42464B46FEF71D
:101E20001CFC04460E460022284BFEF711FD03D889
:101E30004FF0FF30014607E00022254B2046314697
:101E4000FEF7F2FAFEF7B4FE102409E0002C0ADBDC
:101E50000A220023FEF75AFD039B30321A55641EF6
:101E600050EA0102F2D1641C039AC4F11103144434
:101E7000119A012A03D0012208430DD10AE0084338
:101E800004D000204FF0110B119072E7A3EB0B056B
:101E90006D1E0DE05B4504DD4FF0000205F101050C
:101EA00004E003DA4FF00002A5F10105002AECD0AE
:101EB00002981199C0E90231C0E9004579E70000B4
:101EC000000014400000F03F300000000000F0432C
:101ED0000000E03F2DE9FF4F95B09B46894606463E
:101EE00000250FE2252877D100242746F84A012152
:101EF000059400E0044316F8013F203B01FA03F08B
:101F00001042F7D130782A2811D06FF02F033078A3
:101F1000A0F13002092A16D8059A44F0020402EB17
:101F2000820203EB42021044761C0590EFE759F859
:101F3000042B0592002A03DA504244F40054059021
:101F400044F00204761C30782E2816D116F8010FC2
:101F500044F004042A280DD06FF02F023078A0F14D
:101F60003003092B09D807EB870302EB4303C7189B
:101F7000761CF3E759F8047B761C30786C280FD078
:101F800006DC4C2817D068280DD06A2814D104E04C
:101F9000742810D07A280FD10DE044F400140AE020
:101FA00044F4801401E044F440147278824202D177
:101FB00004F58014761C761C307866280BD013DC70
:101FC000582877D009DC002875D04528F6D0462857
:101FD000F4D047281AD19DE118E0632835D0642851
:101FE00079D0652812D195E1702873D008DC672874
:101FF000F1D069286FD06E280DD06F2806D1B5E0DA
:1020000073282CD0752875D0782874D05A46179923
:1020100090476D1C75E1C4F30250022809D00328D3
:102020000DD0D9F8001004280DD00D6009F1040975
:1020300067E1D9F80010EA17C1E90052F6E7D9F8CC
:1020400000100D80F2E70D70F0E719F8041B8DF811
:10205000001000208DF80100EA46012003E059F845
:1020600004AB4FF0FF3061074FF0000102D40DE0E8
:1020700008F101018846B9420FDA8045F8DB1AF809
:1020800008100029F4D108E008F1010188468142D6
:10209000FADB1AF808100029F6D105985B46A0EB88
:1020A000080721463846179A00F094FA284400EBB6
:1020B000080507E04DE029E10DE01AF8010B5A464A
:1020C00017999047B8F10108F7D25B462146384688
:1020D000179A13E142E00A220092C4F302524FF031
:1020E000000A022A08D059F804CB032A4FEAEC71FF
:1020F0000AD00DE029E02AE009F1070121F00702EA
:10210000F2E802C1914609E00FFA8CFC4FEAEC714B
:10211000042A03D14FFA8CFC4FEAEC71002907DA4C
:102120000A460021DCF1000C61EB02012D2202E0E5
:10213000220504D52B228DF80420012203E0E207BA
:1021400001D02022F7E7904659E00A2102E0102250
:102150000DE010214FF0000A00910BE010224FF02B
:10216000000A44F004040827009203E008224FF01C
:10217000000A0092C4F30252022A05D059F804CB97
:102180000021032A08D009E009F1070121F0070224
:10219000F2E802C1914605E01FFA8CFC042A01D145
:1021A0000CF0FF0C4FF00008220728D5702806D04D
:1021B000009B83F0100353EA0A0305D00EE040228F
:1021C0008DF80420012208E05CEA010206D03022EA
:1021D0008DF804208DF8050002229046009B83F0C4
:1021E000080353EA0A030AD15CEA010201D162073B
:1021F00005D530228DF804204FF001087F1E5828A5
:1022000004D034A003900EA802900DE036A0F9E7A8
:1022100053466046009AFEF779FB84460398825C39
:102220000298401E029002705CEA0100F0D1029810
:1022300006A9081A00F1200A600702D524F48034A8
:1022400000E00127574502DDA7EB0A0000E000206F
:1022500000EB0A01009005984144401A0590E00304
:1022600006D45B462146179A059800F0B3F9054459
:10227000002706E001A85A46C05D179990476D1CDB
:102280007F1C4745F6DBE0030CD55B462146179AD9
:10229000059800F09FF9054404E030205A4617994C
:1022A00090476D1C0099481E00900029F5DC08E05D
:1022B000029802995A460078491C02911799904752
:1022C0006D1CBAF10001AAF1010AF1DC65E1000020
:1022D00009280100303132333435363738396162FC
:1022E00063646566000000003031323334353637C0
:1022F00038394142434445460000000000F058F997
:102300000544761C307800287FF4ECAD19B02846DF
:10231000BDE8F08F620700D4062709F1070222F01A
:10232000070CFCE80223E14603F000485FEA080CD2
:1023300002D00FF2702C0DE05FEA045C02D50FF2C0
:10234000682C07E05FEAC47C02D00FF2602C01E049
:10235000AFF2700C4FF0FF3823F00043CDF850C0BF
:1023600065280CD006DC452809D046281DD0472812
:102370003DD13DE0662818D067287ED138E00021A5
:10238000112F01DB112000E0781CCDE9000106A926
:102390000EA8FFF7DDFCDDE90F010E9A0391002185
:1023A000009207F1010A04914DE04FF000400097C0
:1023B000CDE9011006A90EA8FFF7CAFCDDE90F025E
:1023C00003920E9B11990022DDF80CA00093049259
:1023D00011B9791C00EB010AB7EB0A0004D4C0F173
:1023E000FF3007F1010A0490AAEB0700019044E0D6
:1023F000012F00DA01270021112F01DD112000E05B
:102400003846CDE9000106A90EA8FFF7A1FCDDE9D9
:102410000F010E9A0391002104910092BA46210700
:102420000CD40399514500DA8A46BAF1010F05DD53
:10243000009AAAF10101515C302908D0B84202DAB1
:1024400010F1040F06DA0121CDE9011015E0AAF11F
:102450000101E9E7002805DC049901440491AAEB95
:10246000000102E0411C514500DD8A460499401AF2
:10247000401C01904FF000400290200704D40198C6
:10248000504501DBCDF8048000208DF84F00029804
:102490000DF14F07B0F1004F25D02B200E90029880
:1024A0004FF0020800280CDA404202902D200E90D6
:1024B00007E00A210298FEF713FA3031029007F87C
:1024C000011DB8F10001A8F10108F2DC0298002812
:1024D000EFD1791E0E980870307800F0200040F09F
:1024E000450007F8020D12A8C01B00F10708149858
:1024F000007800B1012000EB0A01019801EBE071C6
:1025000005984144401A401E0590E00306D45B46FE
:102510002146179A059800F05DF805441498007854
:1025200018B15A46179990476D1CE00324D55B46B5
:102530002146179A059800F04DF805441CE00498D0
:10254000002807DBDDE90301884203DD0098405CD9
:10255000179901E0179930205A469047049805F1E1
:102560000105401C04900198401E019004D12E20CA
:102570005A46179990476D1CBAF10001AAF1010A59
:10258000DDDC05E017F8010B5A46179990476D1CE2
:10259000B8F10001A8F10108F4DC5B462146179A66
:1025A0000598ABE62D0000002B0000002000000085
:1025B0002DE9F041044600251E461746880404D440
:1025C00005E039462020B0476D1C641EF9D5284629
:1025D000BDE8F0812DE9F041044600251E469046F5
:1025E000C80301D5302700E02027880404D505E082
:1025F00041463846B0476D1C641EF9D52846BDE8F3
:10260000F08100002DE9FE4F07460E460025684682
:1026100001F05CF800246FF00F0AE8464FF0010962
:1026200057F8240056F82410401A00D54042FEF70F
:1026300083F85146FDF7ECFE58F8241011F0FF4FD7
:102640000BD0FDF7A7FE4FF07E51FDF76BFE0A4958
:1026500020F00040884205DC07E0084908440849AA
:10266000884202D309FA04F00543641C032CD7DB2B
:102670002846BDE8FE8F0000295C0F3E666666C1F5
:102680009A99D9002DE9F04D8D4F21F0004A86B07E
:1026900005460C46BA452ADBAAEB070028430AD0B8
:1026A0008848824501DC1AD1CDB106B02846BDE884
:1026B000F04DFFF724BB844A844B2846FDF75BFFAF
:1026C00007460E46824A834B28462146FDF753FFB4
:1026D00006B03A463346BDE8F04DFDF7A5BE0120F1
:1026E000FFF730FB06B0BDE8F04DFFF70DBB7A48B1
:1026F000824542DABAF1795F0BDA2846FFF796FA9B
:10270000042808BFFFF706FB284606B02146BDE8AF
:10271000F08D2A460B461046FDF72DFF83460246F4
:102720006E480E460B4606217844FFF793FA5A4648
:102730003346FDF720FF804669488A465A463346AD
:1027400004217844FFF786FA5A463346FDF713FF13
:1027500000223B46FDF768FE02460B4640465146C6
:10276000FDF77BFF2A462346FDF705FF06B02A4604
:102770002346BDE8F04DFDF757BE284624F0004142
:1027800000223D463B46FDF7F3FE4FF0FF32FEF7D9
:10279000B3F90646024653480F460B4606217844D5
:1027A000FFF758FA32463B46FDF7E5FECDE900015A
:1027B0004D4832463B4604217844FFF74BFA3246F7
:1027C0003B46FDF7D8FE00222B46FDF72DFE834643
:1027D00002913046394603F015FB804643480D46CA
:1027E000504517DCDDE900015A46029BFDF735FF35
:1027F00042462B46FDF7BFFE42462B46FDF714FE30
:102800000122FEF779F9304A304BFDF7AEFE304A2F
:10281000304B4CE04FF0000A52460B464046FDF765
:1028200003FECDE9031052462B4610461946FDF72C
:10283000A2FE32463B46FDF79BFEDDE90332FDF783
:102840000CFF06460F46DDE900015A46029BFDF7E4
:1028500004FF83460091012230463946FEF74CF9C9
:10286000194A1A4BFDF784FE06460F4601224046E0
:102870002946FEF741F95A46009BFDF77CFE324699
:102880003B46FDF772FE06460F460122504629469A
:10289000FEF732F90E4DDFF858802A464346FDF721
:1028A00067FE32463B46FDF763FE2A464346FDF788
:1028B0005FFE002CD8BF81F0004106B0BDE8F08D6E
:1028C0000000F03F0000F07F075C143326A6913C27
:1028D000182D4454FB21F93F0000E03F1C6200002A
:1028E00032620000A6610000BC6100003333EF3F9C
:1028F000FB21E93F2DE9F84F04460D4621F0004049
:1029000000917349814211DC7249884201DC06D191
:102910002CB120462946BDE8F84FFFF7F0B96E48C4
:10292000002DCCBF6D496E49BDE8F88F6D498142DD
:1029300011DD6D498142D8BF4FF0FF366DDD204675
:102940002946FFF773F9042808BFFFF7E3F920468B
:102950002946BDE8F88F6549654F25F0004581425D
:1029600033DD6449814219DD002632464FF0804351
:1029700020462946FDF758FD80468A46012220461A
:102980002946FEF7B9F800223B46FDF7EEFD424628
:102990005346FDF762FE04460D463EE00126002246
:1029A000BA463B4620462946FDF73EFD80460F4687
:1029B0000022534620462946FDF7D7FD42463B46B6
:1029C000FDF74BFE04460D4627E04B4981421BDDD7
:1029D000DFF828A102260022534620462946FDF7AB
:1029E000CAFD00223B46FDF71FFD80460F46002230
:1029F000534620462946FDF7B8FD42463B46FDF7C3
:102A00002CFE04460D4608E0032622462B460020F5
:102A10003B49FDF722FE04460D4622462B46104652
:102A20001946FDF7A8FD8B46824602460B46FDF788
:102A3000A2FD07460246334888460B4606217844E5
:102A4000FFF708F952465B46FDF795FD82462E4892
:102A50008B463A46434605217844FFF7FBF83A4651
:102A60004346FDF788FD02460B46002E5046594668
:102A70000CDAFDF7D9FC22462B46FDF77CFD01B0B0
:102A800022462B46BDE8F04FFDF772BDFDF7CCFCAA
:102A900022462B46FDF76FFD1C4A7A4402EBC60323
:102AA000D3E90023FDF761FD22462B46FDF75DFDCE
:102AB000174A7A4402EBC603D3E90023FDF758FD19
:102AC000009A002AB8BF81F00041BDE8F88F0000ED
:102AD000000010440000F07F182D4454FB21F93F02
:102AE000FB21F9BF0000DC3F0000203E0000F33F67
:102AF0000000F03F0000E63F008003400000F83F88
:102B00000000F0BFBE5F00007C5F00001A5F0000A5
:102B1000E25E00002DE9F04D9446CCF1000423F074
:102B200000464CEA0404524F46EAD4749A4688465A
:102B300021F00042BC4206D8454240EA050442EA80
:102B4000D474BC4204D9BDE8F04D6246FFF7DAB850
:102B5000AAF14055A5F17F6555EA0C040BD002247B
:102B600004EAAA74434DDFF810E144EAD87452EA4B
:102B7000000B04D00CE0BDE8F04DFFF7BBBE002C0D
:102B800014BF012CBDE8F08D022C30D0032C32D0C4
:102B900056EA0C0B0AD0BE4220D1BA4209D126F027
:102BA000804622F080423346114617E000291ADBA6
:102BB00025E0DFF8C8B0FB44002C04BFDBE90001CE
:102BC000BDE8F08D012C02BFDBE9000181F000417E
:102BD000BDE8F08D022C0AD0032C0CD0BA4212D1E1
:102BE000B8F1000F0BDA23482549BDE8F08D2846DF
:102BF0002449BDE8F08D28467146BDE8F08D1D489A
:102C00002149BDE8F08D921B12153C2AC4BF19481A
:102C10001D490EDCBAF1000FBEBF12F13C0F0020BF
:102C2000014606DB6246FDF718FD21F00041FFF783
:102C300061FE002C08BFBDE8F08D012C04BF81F0BF
:102C40000041BDE8F08D114A114B022C07D0FDF771
:102C50008CFC2A46BDE8F04D0A4BFDF786BCFDF71B
:102C600084FC2A46BDE8F04D064BFDF781BC000010
:102C70000000F07F182D4454FB2109C0765E00004F
:102C8000FB21F9BFFB210940FB21F93F075C14330D
:102C900026A6A13C38B510208DF803000824ADF815
:102CA000004002208DF8020069460348FEF74CF808
:102CB00001481030046038BD000C01404FF47A71B7
:102CC000484300F001B8000070B54FF0E024002246
:102CD00065690949A36909684843A1699942FCD01B
:102CE00002D2A3EB010302E0A5EB010633441A4430
:102CF0000B468242F1D370BD4400002008B560B19C
:102D000020208DF8000028208DF8010030208DF85B
:102D1000020038208DF8030004E0A3220421684655
:102D2000FDF78FFA6A46042140F69E2002F088FAE9
:102D300001F03EFF08BD00003EB5044602208DF8BC
:102D40000000CA208DF80100E3208DF80200092060
:102D50008DF803006A460421682002F071FAA3206E
:102D60008DF80000610609D5C0218DF80110C82139
:102D70008DF80210C2218DF8031005E08DF80100D6
:102D80008DF802008DF8030014F4C07F09D0C4212F
:102D90008DF80410CC218DF80510C6218DF8061091
:102DA00005E08DF804008DF805008DF806008DF81B
:102DB00008008DF807008DF809006A460A2140F6E0
:102DC000A72002F03DFAA0074FF0D80503D020203D
:102DD0008DF8000001E08DF800506A46012140F6B0
:102DE000B62002F02DFAA00601D5012000E0002057
:102DF00000F08EF814F4C07F1ED0E0050AD5B22092
:102E00008DF800008B208DF80100B6208DF80200AF
:102E10009B2009E0B0208DF8000080208DF8010093
:102E2000B4208DF8020090208DF803006A4604213A
:102E300040F6A22002F004FAE1074FF40B6022D022
:102E4000F8218DF800106A46012102F0F9F9FA2103
:102E5000072000F039FB072000F004FB012000F000
:102E600021FB642000F0C4FB4FF4FA7000F0D0FBAB
:102E7000C821254800F0BEFA282000F0D3FA0A2025
:102E800000F0E0FA05E08DF800506A46012102F0FA
:102E9000D7F9A00703D5D9208DF8000001E08DF8FF
:102EA00000506A46012140F23D7002F0C9F9600706
:102EB00001D5012000E0002000F048F8E00601D52F
:102EC000012000E00020FFF719FF104D44F008003A
:102ED000688101F06DFE0020A873600601D5062010
:102EE000A87314F4C07F02D0A87B801DA87314F0CF
:102EF000140F02D0A87B1030A873A00702D0A87BC3
:102F0000001DA87300203EBD09E3CA02180D002071
:102F10000EB54FF4976310B106A107C901E008A2EE
:102F200007CA8DE807006A460921184602F088F9A9
:102F30000EBD0000B8AAB38DB4980D355D00000039
:102F4000B8AAAAAAB088C3C5C700000008B560B176
:102F5000C0208DF80000C2208DF80100C4208DF83B
:102F60000200C6208DF8030004E08B22042168468D
:102F7000FDF767F96A46042140F6982002F060F9EF
:102F800001F016FE08BD0000C8234FF4806202491C
:102F900040F6F63001F0EEBC5C7C00082DE9FF4FF6
:102FA00089B01746DDE9165200244C4E884681460A
:102FB0002C80A246B07B694601F088FD4FF0FF3BB4
:102FC00018B158460DB0BDE8F08F708910F0140F9D
:102FD0003CD0009909BA21F0FF039DF803100B4380
:102FE0003B6001991B1409BA21F0FF029DF80710FC
:102FF0005B430A437A6002999DF80B4009BA21F0BD
:10300000FF012143B960039C091424BA24F0FF0C8A
:103010009DF80F4012144CEA040CC7F80CC04FEA9C
:103020002C47494302FB023207FB071111441024CD
:10303000A1F17061B1F1007F04D901F0B9FDA5F8EB
:1030400000A0BEE7298841F48071298042066946C4
:1030500011D50A19A41D13885BBAA8F8003053884B
:103060005BBAA8F80230928852BAA8F804202A88DD
:1030700042F008022A8010F4C07F11D00A19A41D62
:1030800013885BBAA9F8003053885BBAA9F80230FC
:10309000928852BAA9F804202A8842F070022A8045
:1030A000800716D00C44E07800F0C00500F03F0126
:1030B0006078C00706D0C80801F007013268491CD3
:1030C00002B190476078000703D5716809B1A8097B
:1030D00088470C9801F047F9002073E7180D00208D
:1030E0002DE9FF41044603A801F0FAFABDF80C00EF
:1030F000410CC3032F48028902F00300550754F81E
:10310000200000D54042C2F3C105960654F8255070
:1031100000D56D42C2F38116D20554F8264000D581
:103120006442A0FB0367C21702FB037200FB01208D
:10313000820042EA9670A5FB0367EA1702FB03725E
:1031400005FB0122950045EA9672A4FB0367E5178B
:1031500005FB037304FB01318B0043EA9671030EF8
:103160008DF80030030C8DF80130030A8DF8023021
:103170008DF80300100E8DF80400100C8DF805007A
:10318000100A8DF80600080E8DF80800080C8DF85E
:103190000900080A8DF80A008DF807208DF80B1039
:1031A0006A460C214FF4257002F04AF804B0BDE8DD
:1031B000F0810000180D002030B5044613A285B040
:1031C00007CA8DE807004FF0FF35C82C16D8C82075
:1031D000B0FBF4F1491E080A8DF80C008DF80D10B3
:1031E00003AA022140F2162002F02AF830B96A46FA
:1031F0000C2140F6C12002F023F810B1284605B09A
:1032000030BD054884810020F9E70000FEF2ABC420
:10321000AAF1DFDFBBAFDFDF180D0020F8B53049C2
:10322000098901F0030250F822404A0700D56442A0
:10323000C1F3C1028B0650F8222000D55242C1F3DF
:10324000811350F82330C80500D55B42254984FB23
:103250000140850045EA947082FB0142A40F44EAD4
:10326000820483FB0121950F45EA8105010E8DF84B
:103270000010010C8DF80110010A8DF802108DF874
:1032800003006A4604214FF4747001F0D9FF4FF037
:10329000FF3688B9200E8DF80000200C8DF8010053
:1032A000200A8DF802008DF803406A4604214FF48D
:1032B000757001F0C5FF08B13046F8BD280E8DF8D5
:1032C0000000280C8DF80100280A8DF802008DF806
:1032D00003506A4604214FF4767001F0B1FFF8BD47
:1032E000180D002009E3CA022DE9FF4104463CA065
:1032F00004F00303006802903AA0006803903AA02B
:1033000006683AA0056802A8C15C8DF80010C4F3F5
:10331000C101425C8DF80120C4F38112805C8DF8FC
:10332000020003A8C35C8DF80430415C8DF80510E1
:10333000805C8DF806006A46032140F2264001F0C9
:103340007FFF4FF0FF37E0BB01AA032140F22A4084
:1033500001F076FFA8BBCDE9006560070BD59DF8AD
:10336000000040F001008DF800009DF8040040F0DE
:1033700001008DF80400A0060BD59DF8010040F077
:1033800001008DF801009DF8050040F001008DF866
:103390000500E0050BD59DF8020040F001008DF816
:1033A00002009DF8060040F001008DF806006A4614
:1033B00003214FF4886001F043FF10B901AA0321F3
:1033C00000E004E040F2314001F03AFF18B1384625
:1033D00004B0BDE8F081064804810020F8E7000051
:1033E0004CCD6C000CC92C00365676002646660083
:1033F000180D00204FF47A7290FBF2F008B54843A4
:10340000010E8DF80010010C8DF80110010A8DF8E5
:1034100002108DF803006A4604214FF4AE7001F0EB
:103420000FFF08BD0521B0FBF1F008B5010A8DF8CA
:1034300000108DF801006A4602214FF4AD7001F0D2
:10344000FFFE08BD0521B0FBF1F008B5010A8DF8BB
:1034500000108DF801006A4602214FF4AC7001F0B3
:10346000EFFE08BD08B500218DF80010C10702D09D
:1034700030218DF80010810705D59DF8001041F02E
:103480000C018DF80010400705D59DF8000040F0B4
:1034900003008DF800006A4601214FF4A47001F08A
:1034A000CFFE08BD08B560B1042800D90420401E35
:1034B0008DF800006A46012140F24F1001F0C0FE75
:1034C00008BD0120F3E700002DE9FC410546400757
:1034D0004FF0FF367CD0B1F5C86F79D80846FDF7BC
:1034E00034F93E49FCF756FF074601A801F0DAF827
:1034F0009DF80400022806D004280DD008282ED0FC
:10350000102865D134E00E213846FCF781FFFDF725
:1035100047F984B2324907E00D213846FCF778FFBD
:10352000FDF73EF92F4984B23846FCF701FFFDF75D
:1035300037F9210A8DF8001080B28DF80140010A98
:103540008DF802108DF80300E8076C4620D0224663
:1035500002214FF4EA7001F073FEC8BB11E00C21A8
:103560003846FCF755FFFDF71BF984B21E49DBE72F
:103570000B213846FCF74CFFFDF712F984B21B49CA
:10358000D2E7A21C02214FF4927001F059FEF8B963
:10359000A8070DD56A4602214FF4EC7001F050FEE9
:1035A000B0B9A21C02214FF4947001F049FE78B921
:1035B000680710D56A4602214FF4EE7001F040FE14
:1035C00030B9A21C02214FF4967001F039FE10B1FF
:1035D0003046BDE8FC810020FBE7000000004843C6
:1035E000000040460000C045000040450000C044C7
:1035F0000521B0FBF1F008B5010A8DF800108DF837
:1036000001006A4602214FF4EF7001F019FE08BD77
:103610000521B0FBF1F008B5010A8DF800108DF816
:1036200001006A4602214FF4ED7001F009FE08BD69
:1036300008B501210220FEF751F904208DF803009E
:103640004020ADF8000069460C48FDF77DFB0C49B1
:103650004FF6FF7008800A481438018841F0F101E4
:10366000018007482438018841F05701018004484F
:103670002C38018841F00101018008BD000801409B
:103680002C04004038B504468DF80000694603203C
:10369000ABBE204638BD00001CB507490120CDE96E
:1036A00000010023802205A1074803F007FCBDE8C4
:1036B0001C4003F01DB900001400002073746172F7
:1036C000745F7461736B0000515E00082DE9FE4366
:1036D0000646264801AB042240680D210078FDF71C
:1036E0002BFE10B10720BDE8FE839DF804101C20BE
:1036F00000EAD1029DF80710DFF87490C1F30113BE
:103700001A438DF800209DF80520C1F3810300EADB
:10371000D2021A438DF801209DF8062001F0030122
:1037200000EAD20008430024124F8DF80200A046A0
:103730006D46285D10B146F824900AE046F82480D2
:103740000DE000BF56F824003946FCF7F1FD46F8BD
:103750002400285D401E10F0FF002855F2D1641CA3
:10376000E4B2032CE5D30020BDE700008C0000206C
:103770007B14AE3E1D5A843F08B500208DF8000032
:1037800011480168490401D4012013E000680004D5
:1037900001D402200EE00D480168C90501D40320C0
:1037A00008E00168890501D4042003E000684005B1
:1037B00002D405208DF80000054800231A4669460A
:1037C000C06A03F0BFF908BD080C014008080140B9
:1037D0000000002004480188044A01EB8101518166
:1037E00000210180704700002404004000000020F8
:1037F0002DE9FE4F05460120C14E8DF800004FF027
:1038000000088DF8018030680C461746817C70688E
:103810006B4602220078FDF7C5FD4FF0FF3A002805
:103820007AD1C820FFF74AFA8DF8008030686B46DD
:103830000122C17B70680078FDF7B4FD0028EFD14C
:1038400030686B460122417970680078FDF7AAFD67
:103850000028E5D130686B460122817C70680078D1
:10386000FDF7A0FD0028DBD130686B460122C17D49
:1038700070680078FDF796FD0028D1D130686B465E
:103880000122017970680078FDF78CFD0028C7D10E
:103890004FF00C098DF8009030686B4601220179D9
:1038A00070680078FDF77EFD002835D10F20FFF706
:1038B00005FAB06A6B460122407A8DF80000306844
:1038C000817870680078FDF76DFD002824D1B06A1A
:1038D0006B460122007A8DF80000306841787068EC
:1038E0000078FDF75FFD002873D1B06A807A0FB1D0
:1038F00040F0E0008DF8000030686B4601228179CD
:1039000070680078FDF74EFD002862D12FB1B06AD3
:10391000C07A40F0E00001E04AE018208DF8000095
:1039200030686B460122C17970680078FDF73AFD76
:10393000F0BB17B1C820FFF7C1F940208DF8000097
:1039400030686B460122017970680078FDF72AFD26
:1039500070BB78208DF8000030686B4601224179F9
:1039600070680078FDF71EFD10BB3220FFF7A6F946
:103970008DF80080306847466B46417970680122B7
:103980000078FDF70FFD98B931687068B046897A04
:1039900000786B460222FDF7CFFC48B9BDF8000065
:1039A000AF6040BAB0FBF9F06F60C6B22F6000E0C4
:1039B0000FE0A76067602760002739E0D8F80010A3
:1039C000D8F804006B46C97A00780C22FDF7B4FCE5
:1039D00010B15046BDE8FE8FBDF80000236840BA24
:1039E00002B2BDF80200BDF804101A44226040BAC9
:1039F000626800B21044606049BAA06809B2084425
:103A0000A060BDF806002B6840BA02B2BDF80800FD
:103A10001A4440BA01B2BDF80A002A606A6840BA86
:103A200011446960A96800B208447F1CFFB2A86015
:103A3000B742C3D328688322C117090441EA104161
:103A400000040023FCF7BAFB32460023FCF7B6FB68
:103A5000286068688322C117090441EA1041000404
:103A60000023FCF7ABFB32460023FCF7A7FB6860A2
:103A7000A8688322C117090441EA10410004002309
:103A8000FCF79CFB32460023FCF798FBA8602068FB
:103A90004FF40065C117090441EA104100042A46A9
:103AA0000023FCF78BFB32460023FCF787FB2060EA
:103AB00060682A46C117090441EA10410004002346
:103AC000FCF77CFB32460023FCF778FB6060A068C3
:103AD0002A46C117090441EA104100040023FCF7FB
:103AE0006DFB32460023FCF769FBA060002802DD75
:103AF000A0F5803001E000F58030A060002069E78B
:103B00008C0000202DE9F84F81462E48884600257C
:103B100040686B46032200780D21FDF70DFC10B1C3
:103B20000720BDE8F88F9DF80000002400F01F007A
:103B30008DF800009DF801006FF00F0B00F01F00E2
:103B40008DF801009DF802006E4600F01F008DF810
:103B500002004FF0010A00BF59F8241058F8240061
:103B6000081A00D54042FCF7E7FD5946FCF750FC27
:103B70000746305DC0B1144802E01449FCF7D8FB99
:103B8000315D491E11F0FF013155F6D1014638462D
:103B9000FCF700FC4FF07E51FCF7C4FB0C4920F011
:103BA0000040884205DC07E00A483844B0F1D97F7C
:103BB00002D90AFA04F00543641C032CCCDB284626
:103BC000AFE700008C0000200000C84154E3853FAF
:103BD000295C0F3E0000E0BE00B5024600F00DF883
:103BE0000346D01C00F009F843EAC003901D00F022
:103BF00004F843EA801080B200BD90F9001000295B
:103C000002DD4FF00000704702DA4FF00400704709
:103C100090F90110002902DD4FF00100704702DA2F
:103C20004FF00500704790F90200002802DD4FF0C8
:103C30000200704702DA4FF0060070474FF00700AD
:103C40007047000038B548208DF803004FF440401D
:103C5000ADF8000069460D48FDF776F84FF4E060D6
:103C6000ADF8000069460A48FDF76EF810208DF89F
:103C7000030002208DF802000503064CADF8005049
:103C800069462046FDF760F8256138BD000C01400B
:103C9000000801400010014010B501210420FDF78B
:103CA00029FE01210820FDF725FE01211020FDF746
:103CB00021FE4FF44070FDF7A1FB1848816941F0E7
:103CC000010181611648416841F0007141604FF087
:103CD000E02014494161144AF02182F8141D0021AA
:103CE000816107210161FFF7ADFFFDF72DFC02F0B7
:103CF00037F8FEF7CFFF00F037FBFFF799FCFDF731
:103D000015FA00F07FFC012001F0C0F9012001F05C
:103D10008BF9FFF7C1FC002010BD0000001002402D
:103D2000000001403F1901000FE000E010B504461B
:103D3000FDF726F9AE20FDF7FDF8FDF751F968B95A
:103D40002046FDF7F7F8FDF74BF938B9FDF718F9FC
:103D5000AF20FDF7EFF8FDF743F918B1FDF728F9AB
:103D6000002010BD0020FDF793F80446FDF77AF817
:103D7000FDF71EF9204610BD70B50C460546FDF74F
:103D8000FFF8AE20FDF7D6F8FDF72AF958B9284616
:103D9000FDF7D0F8FDF724F928B92046FDF7CAF859
:103DA000FDF71EF918B1FDF703F9002070BDFDF70E
:103DB000FFF8012070BD70B505460C460020FFF7E6
:103DC000B5FF0120FFF7B2FFFDF7DAF8AE20FDF7EF
:103DD000B1F8FDF705F938BB2846FDF7ABF8FDF75C
:103DE000FFF808BBFDF7CCF8AF20FDF7A3F8FDF70F
:103DF000F7F8C8B90120FDF74BF820700120FDF756
:103E000047F860700120FDF743F8A0700120FDF72E
:103E10003FF8E0700120FDF73BF820710020FDF72E
:103E200037F86071FDF7C4F8BDE87040FDF7C0B821
:103E30002DE9F8418046DDE90706009017460C465B
:103E4000099D404600F0ECF933463A46214640468B
:103E500000F01CFA2068A84200DB28462060BDE87C
:103E6000F88100002DE9FF4FBFB00E4600211C462F
:103E700008464C9D04E03F9A52F82020401C114413
:103E8000B042F8DBB1FBF6F20020E04906E03F9BD0
:103E900053F820309B1A41F82030401CB042F6DB2A
:103EA00000204FF4F87C00BF01EB800251F8203075
:103EB0005768E3463B44D2E902723A441A44D317A6
:103EC00002EB9372921041F82020401C5845EBDB26
:103ED000CF4A00204FF4F77301EB800751F820C060
:103EE0007F688946A7EB0C0742F82070401C984277
:103EF000F2DD002002EB800752F820107F689A461E
:103F0000394401EBD171491042F82010401C504552
:103F1000F0DBC04F0020964600230146421D08E01A
:103F2000A1EB00085EF821C037F81880491C0CFB93
:103F300018339142F4DB40F27A4193FBF1F14EF8F1
:103F40002010401C7346B0F5F47FE5DD00221046DA
:103F50004FEA0A0753F82010002900DC4942401CB0
:103F60000A445045F6DD40F2EF1392FBF3F00522D0
:103F700008218DE80700A64A3DA912A8FFF758FFBF
:103F800000223D9B12A89646022B1ADB012109E074
:103F900000EB810C50F821705CF804CC491CA7EBB5
:103FA0000C073A449942F3DB5B1E92FBF3F141F2BA
:103FB000707292FBF1F24D990A604E9A01211170D4
:103FC00005E04D9A944911604E9A82F800E0002174
:103FD0003D9F06E050F8213024AA9B1C42F8213076
:103FE000491CB942F6DB0020C8460BE03F9951F866
:103FF000201048F82010419951F82020874941F8B5
:104000002020401CB042F1DB0022134628E000BF14
:1040100024A84FF0010950F823004FF08076411D8D
:1040200051451CDCA0F1050CBCF1000F17DD401F51
:104030000FE000BF58F820C0B44509DAB9F1000F0D
:1040400001D04FF0000966460DF10C0C4CF823002E
:10405000401C8842EEDBB9F1000F00D1521C5B1C02
:10406000BB42D5DB022A06DA6B48206085F800E007
:1040700043B0BDE8F08FDFF8A4C1002008EB800159
:1040800058F820304E68E1463344D1E902613144AA
:104090001944CB1701EB9371891048F820100CEBF1
:1040A00080035CF820605F683E44D3E902733B44C0
:1040B0003344DE1703EB96739B104CF82030401C02
:1040C0005845DBDB00200DF1D40B3E9000234BF86C
:1040D0002030401C0528F9DB00204FF4FA7309E07A
:1040E00003A951F82010994203DD4B4820600020BD
:1040F0008AE0401C9042F3DB0023A2F1010A61E058
:1041000003A800EB830650F823E076684FF07F4267
:10411000A6EB0E0011463B900A2852DD7046CC46B5
:104120000DE000BF58F820708F4201DD39463C9009
:104130005CF82070974201DD3A463390401C86427D
:10414000F0DC59F826C059F82E000290ACEB0000C4
:10415000DDF8CCC0ACEB0E0778433B9F90FBF7F744
:10416000029807EB000C339F59F82770A7EB0C0758
:10417000219758F8260058F82E60DDF8F0C0801B13
:10418000ACEB0E0778433B9F90FBF7F03044339E37
:10419000219F58F826604F43301A5043F911C0113F
:1041A00000280EDD3E9A052A0BDA51B101EB8101A0
:1041B000890091FBF0F23E984BF820203E98401C7D
:1041C0003E905B1C53459BDB58463E9900F094F8AB
:1041D0003E9800EBD070401001280ADD0BEB800206
:1041E0005BF8200052F8042C104400EBD070401013
:1041F00001E05BF82000C11EB529BFF476AF054988
:104200003E31085C20600120287031E7E81400206E
:10421000280D00205288000819FCFFFFB81C002060
:104220002DE9F043814600240120DDF81C805E1E4C
:104230000C6026E052F82070474521DD02EB800437
:1042400054F8044CA7421BDD012500E06D1C441905
:104250009C4203DA52F824C06745F7D0054452F86F
:104260002550AF420ADD0D680F2D07DA4FEA850CA5
:104270006D1C0D6049F80C00601C02E0204600E057
:10428000401CB042D6DBBDE8F08300002DE9F043CE
:104290001E4613460C460A6805460146184600F0BD
:1042A00045F84FF0FF3840461CE00A46411CC6F175
:1042B0000009216013E000BF55F82170431C19D09C
:1042C00055F82030FB1AB34201DC4B4506DA23686F
:1042D0004FEA830C5B1C236045F80C70491C91422B
:1042E000EADB401C21688142DFDC2846BDE8F04360
:1042F00000F002B84346E5E730B5012312E000BF05
:1043000050F823401A4602E040F82250521E002A7C
:1043100005DD00EB820555F8045CA542F4DC40F8AD
:1043200022405B1C8B42EBDB30BD0000F0B501246A
:1043300016E000BF51F82450234602E041F8236004
:104340005B1E002B09DD01EB830650F8257056F843
:10435000046C50F826C06745F0DC41F82350641C1B
:104360009442E7DBF0BD704770B5012188B0084684
:10437000FDF7B4FA10208DF813004FF41040ADF89B
:1043800010000320224C8DF8120004A92046FCF7EF
:10439000DBFC18208DF813000125ADF8105004A99E
:1043A0002046FCF7D1FC1A480C30016841F48051DA
:1043B0000160016821F400410160E6043046FDF728
:1043C0004AFB0024ADF81A406320ADF81800ADF8A0
:1043D00016402320ADF814008DF81C4005A9304686
:1043E000FDF7C4FB6846FDF7B7FB6020ADF80000A1
:1043F000ADF80840ADF80250ADF8064069463046C9
:10440000FDF72EFB01213046FDF710FB08B070BD13
:10441000000801402DE9F041124C20F00101002577
:1044200094F8240010B10020BDE8F081A07A4FF08C
:10443000FF3668B10840277C2074884200D035469A
:1044400041B1012001F060FC00F0B2FB38B12774EB
:104450003046E9E7207D00B1012001F055FC2846F7
:10446000E2E700008C0000202DE9F74F8EB00CA988
:1044700002A8CDE900010BAB03AA09A907A8FEF722
:104480008DFD18B1012011B0BDE8F08FBDF8080016
:10449000C0057DD50398FCF74FF96FF01D04214648
:1044A000FBF7B6FF82460498FCF746F92146FBF776
:1044B000AFFF81460598FCF73FF92146FBF7A8FFBF
:1044C00080460698FCF738F92146FBF7A1FF054620
:1044D00001215046FBF79CFF06464146FBF728FFAB
:1044E00004464FF040414846FBF722FF0746294665
:1044F000FBF71EFF2146FBF7C3FEFCF77EF9FEF734
:10450000C1F84FF0663B5A463D4BFCF734F8FCF7D8
:10451000B7F90E99086001214046FBF779FF414643
:104520000090FBF705FF044638464946FBF700FFBD
:104530002146FBF7F7FE4FF07E51FBF7A1FEFCF79B
:104540005CF907460C4630464946FBF7F1FE064645
:1045500029460098FBF7ECFE3146FBF791FEFCF78D
:104560004CF93A462346FEF7D5FA5A46244BFCF757
:1045700002F8FCF785F90F99086029460846FBF711
:10458000D7FE074641460846FBF7D2FE064600E046
:1045900034E049460846FBF7CBFE04465146084640
:1045A000FBF7C6FE2146FBF76BFE3146FBF7BAFE72
:1045B0003946FBF7B7FEFCF720F906460C462946BC
:1045C0005046FBF7B5FE054641464846FBF7B0FEB0
:1045D0002946FBF755FE0121FBF71AFFFCF70DF901
:1045E00032462346FEF796FA5A46054BFBF7C3FFC1
:1045F000FCF746F910990860002044E7022042E7E2
:1046000066A64C4010B500F0F1F808B10A2010BDC4
:10461000782000F0B9FD10F0FF0F01D0012010BD8F
:104620007820FFF7F7FE10F0FF0F01D0022010BD39
:10463000642000F069FD10F0FF0F01D0032010BDD1
:10464000FEF7A2FC10F0FF0F01D0042010BD1448AB
:10465000FFF7C2FAFEF748FE10F0FF0F01D0052069
:1046600010BD40F27310FEF767FB10F0FF0F01D092
:10467000062010BD6420FEF79FFD10F0FF0F01D053
:10468000072010BD01F000FB08B1082010BD01207B
:1046900000F058FC10F0FF00F8D0092010BD000019
:1046A000B80000200D494A7A42B1012A08D0022AF6
:1046B0000FD0032A0FD04FF0FF307047022200E0E6
:1046C00004220270C97C11B11106C90D01700020CD
:1046D00070470822F5E71022F3E700008C00002065
:1046E0000F494A7A42B1012A09D0022A11D0032A7D
:1046F00012D04FF0FF3070474FF4804201E041F696
:104700009C720280C97C11B1C2F34E01018000206D
:1047100070474FF48052F4E74FF40062F1E7000075
:104720008C0000200B49097A39B1012907D00229F0
:104730000AD003290BD0002103E0FA2101E04FF455
:10474000FA710180002070474FF47A71F9E74FF455
:10475000FA61F6E78C0000200A49097A41B1012983
:1047600008D002290AD003290AD04FF0FF30704741
:10477000054900E005490160002070470449FAE757
:104780000449F8E78C000020000003430000834246
:1047900033330342333383410C49C97A072913D297
:1047A000DFE801F01204060A0C0E1000BC2100E044
:1047B00062210180002070472A21FAE71421F8E7DE
:1047C0000A21F6E70521F4E70021F2E78C0000203A
:1047D000054991F8242012B14FF0FF307047C98984
:1047E00001800020704700008C0000202DE9FC4172
:1047F0004C4C80208DF8000020686B460122817CA3
:1048000060680078FCF7CEFD4FF0FF37002832D10A
:104810006420FEF753FA00258DF8005020686B469F
:104820000122817C60680078FCF7BCFD002870D113
:1048300020686B460622817D60680078FCF77CFD6D
:10484000002866D19DF805009DF80310C007400FB1
:1048500001F0010140EA41019DF801004FF001061D
:1048600000F00100014309D0012905D0022915D02B
:104870002DA0FDF7CBF94CE0E67410E020686B4604
:104880000122C17860680078FCF756FD40BB9DF8B6
:10489000000010F00F0020D0042822D0E574FF2083
:1048A00004F80A0F4FF6FF7104F8020C04F8010C2B
:1048B0006070A180A0712072A67026766576E57280
:1048C000A572E56025616561A576E576A5834FF45F
:1048D000FA6000F073FB18B907E01D48FDF796F980
:1048E00017E01CA0FDF792F9C6E7022000F088FA55
:1048F00078B92A2000F0D2FB58B9322000F004FC2D
:1049000038B90020FFF786FD18B9002000F0ACFA96
:1049100010B13846BDE8FC81002000F035FC0020D5
:10492000F8E700008C000020556E737570706F7290
:1049300074656420736F6674776172652070726F3E
:1049400064756374207265762025642E0A00000069
:10495000388A000848616C662073656E73697469F3
:1049600076697479207061727420666F756E642E3A
:104970000A0000002DE9FF4FDFF89480064685B05D
:1049800098F8250015460F464FF0FF39B0BBAFB37E
:10499000002420E0301B102800DD102080B2834668
:1049A0003A1901469246204600F04AFC30BB6A465E
:1049B0005946204600F0D2F800BB50465A46694698
:1049C000FBF751FC20B16FF0010009B0BDE8F08F9A
:1049D00004EB0B0084B2B442DCD3280A8DF810003B
:1049E0008DF81150D8F80000444604AB817ED8F809
:1049F000040002220078FCF7D5FC08B14846E4E741
:104A0000012084F825000898E0840020DDE70000FC
:104A10008C0000202DE9F84305464FF0FF39282887
:104A200044D80727284C00267DB1012000F0FCFA6D
:104A300020208DF800004FF00108012D17D0052D22
:104A400018D88DF8018005201FE0002000F0ECFA56
:104A50008DF800608DF8017020686B460222817C21
:104A600060680078FCF79EFC00BB267529E08DF895
:104A70000160E8E7142D04D802208DF801000A2017
:104A800003E003208DF80100142000F007FB9DF8DF
:104A900001006B4607EB80108DF8010020680222B0
:104AA000817C60680078FCF77DFC10B14846BDE869
:104AB000F8830820A072267384F814800020FFF782
:104AC000A9FC0020F3E700008C0000202DE9F8434A
:104AD000214C0646174694F8240089464FF0FF38CB
:104AE00090B3A07A80B320686B460222817A606816
:104AF0000078FCF721FC38BBBDF8000045BAB54290
:104B000002D2002038701FE060684188B5EB510F79
:104B100011D9216800786B46497C0122FCF70CFC16
:104B200090B99DF80000C00605D500F041F86FF07F
:104B30000100BDE8F8832068F2B24B46C17A606894
:104B40000078FCF7F9FB08B14046F2E7B5FBF6F058
:104B5000401E38700020ECE78C000020F8B51600ED
:104B60000D464FF0FF371FD0104CA17AE1B1010A7A
:104B70008DF80010C0B28DF80100411960684289BB
:104B8000914211D8216800786B46097E0222FCF719
:104B900009FC48B92068EAB23346417D6068007874
:104BA000FCF7CAFB002800D03846F8BD8C00002076
:104BB000F8B5564C4FF0FF36A07A00287DD000257E
:104BC0008DF8005020686B460122C17B6068007838
:104BD000FCF7E8FB002870D120686B460122417980
:104BE00060680078FCF7DEFB002866D120686B4621
:104BF0000122017960680078FCF7D4FB00285CD1C1
:104C000094F82400E0B30C208DF8000020686B4677
:104C10000122017960680078FCF7C4FB002872D19A
:104C20003220FEF74BF8C0208DF80000A07AC007B4
:104C300002D0E0208DF8000020686B460122017947
:104C400060680078FCF7AEFB00285CD1607C18B18E
:104C500002208DF8000001E08DF8005020686B46BE
:104C60000122C17B60680078FCF79CFB28BB8DF8B3
:104C7000005020686B4601224179606800783EE070
:104C8000FFE704208DF8000020686B4601220179BF
:104C900060680078FCF786FB78B9A07C90B9A07AB0
:104CA000C0070FD05FF060008DF8000020686B46F1
:104CB000012201796068007800E024E0FCF772FBD3
:104CC00008BB01E04020EFE73220FDF7F7FF607CF2
:104CD00018B101208DF8000001E08DF80050206827
:104CE0006B460122C17B60680078FCF75BFB50B922
:104CF0002068064B01224179606810330078FCF788
:104D000051FB002800D03046F8BD00008C00002088
:104D10002DE9F047394C82468AB094F824000F46BA
:104D200020B1002000F00EF9012600E0002607A8BF
:104D3000FFF7F8FC06A8FFF7B5FC09A8FFF72CFD64
:104D400008A8FFF745FD94F80A9094F81080002514
:104D5000002239465046FEF74BFD10B16D1C022D66
:104D6000F6DB022D1AD00025012203A96846FEF7C2
:104D70003FFD10B16D1C022DF6DB022D0ED003A9F4
:104D80003846FDF73FFCC7B269465046FEF7BAFE0B
:104D900010F0FF0F4FF0000502D002E0002503E005
:104DA00001250FB945F00205FF2020726072E07204
:104DB0004FF6FF71E181A072207401202073BDF8CD
:104DC0001C0000F0FBF89DF8180000F019F8BDF881
:104DD000240000F063F9BDF8200000F095F9484682
:104DE00000F0D2F94046FFF715FB16B1012000F0A4
:104DF000A9F80AB02846BDE8F08700008C00002022
:104E000038B5184C4FF0FF35A17A19B3022806D0F7
:104E1000042806D008280ED010281BD10DE0002051
:104E200000E008208DF80000607A9DF80010B0EBDB
:104E3000D10F04D005E01020F4E71820F2E700209D
:104E400038BD20686B460122C17960680078FCF7A4
:104E5000A9FA08B1284638BD9DF80000C008607264
:104E6000EDE700008C000020F8B5354C0546A07C2D
:104E7000A84201D10020F8BD31484FF0FF366B4603
:104E8000D0E900104FF001020979007835B3FCF742
:104E900053FA70BB9DF800006B4620F020008DF89F
:104EA000000020680122017960680078FCF77AFA36
:104EB000F8B90320FDF702FF02208DF8000094F8F6
:104EC000220078B382202BE020686B460122017D0E
:104ED00060680078FCF766FA58B92EE0FCF72CFA07
:104EE00038B9A07AC0079DF8000003D040F0200038
:104EF00002E00CE020F020008DF8000020686B46F6
:104F00000122017960680078FCF74CFA08B130465C
:104F1000F8BD0320FDF7D2FE94F8220000B18020F6
:104F20008DF8000094F823000028CDD09DF80000F3
:104F300040F030008DF80000C6E7A5749AE7000045
:104F40008C00002038B51C4C94F8241081421DD0F0
:104F5000002500B394F82500D0B1002000F0D4FE65
:104F60000020FFF781FFE08C00F0CEF88DF80050B4
:104F700060686B46012200782321FCF713FA0120B8
:104F800084F8240000F0C0FEFFF712FE002038BDB8
:104F90004FF0FF3038BD002000F0B6FE207C8DF8C9
:104FA000000060686B46012200782321FCF7FAF9C3
:104FB00084F82450E8E700008C00002038B5194C34
:104FC0004FF0FF35A17A31B3FA2809D0B0F5FA7F56
:104FD00008D0B0F57A7F0FD0B0F5FA6F1BD10DE095
:104FE000002000E008208DF80000207A9DF80010D5
:104FF000B0EBD10F04D005E01020F4E71820F2E761
:10500000002038BD20686B460122817960680078F5
:10501000FCF7C8F908B1284638BD9DF80000C00863
:105020002072EDE78C00002038B5174C054694F847
:105030002300A84201D1002038BD0DB1302000E08E
:1050400000208DF80000A07C28B19DF8000040F001
:1050500002008DF8000094F8220028B19DF80000AD
:1050600040F080008DF8000020686B460122017D31
:1050700060680078FCF796F910B14FF0FF3038BD4A
:1050800084F82350D7E700008C000020024981F803
:1050900022000020704700008C00002038B5194C19
:1050A0004FF0FF35A17A31B3BC2801D3012010E0C5
:1050B000622801D302200CE02A2801D3032008E053
:1050C000142801D3042004E00A2801D3052000E0BD
:1050D00006208DF80000E07A9DF80010884201D18A
:1050E000002038BD20686B46012281786068007816
:1050F000FCF758F908B1284638BD9DF80000E07269
:10510000EEE700008C000020F8B51E4D04464FF07D
:10511000FF37A87A48B395F8240030BB287D4FF4B8
:105120007A7648B164B1282C03D8E0B2FFF772FC5C
:1051300026E00020FFF76EFC042C05D2042406E0D4
:105140000020FFF767FCF9E7B44200D93446B6FB0C
:10515000F4F0401E8DF8000028686B46012241786B
:1051600068680078FCF71EF908B13846F8BD9DF86C
:105170000000401CB6FBF0F0E8814008FFF78EFF0E
:105180000020F8BD8C000020F8B5054610F0700F27
:105190004FF0000601D0012004E015B18DF8006049
:1051A00002E040208DF80000244C6B46012220686C
:1051B000817C60680078FCF7F5F84FF0FF3760BB42
:1051C0009DF8000020F0400020738DF80060680614
:1051D00002D404208DF80000A80605D49DF8000034
:1051E00040F002008DF80000E80605D49DF80000AC
:1051F00040F001008DF80000280705D49DF800005C
:1052000040F038008DF8000020686B460122C17C18
:1052100060680078FCF7C6F810B1A6723846F8BD91
:1052200025B1082D02D00020FFF7FEFEA5722675DD
:105230003220FDF743FD0020F8BD00008C00002067
:10524000F8B516000D464FF0FF371FD0104CA17A6D
:10525000E1B1010A8DF80010C0B28DF801004119CA
:1052600060684289914211D8216800786B46097EB6
:105270000222FCF797F848B92068EAB23346417D2C
:1052800060680078FCF78EF8002800D03846F8BD3A
:105290008C0000202DE9F04104460E460025C06830
:1052A000FBF740F82063A16B20F00040C4E90E61D9
:1052B000E16AFBF701FB74D3A16911F0FF4F0CD039
:1052C000206B20F00040FBF7F7FA04D8D4E90C106B
:1052D000FAF7D6FF00E000206063216911F0FF4F6C
:1052E00005D0606BFBF7F2FA01D220696063616957
:1052F00011F0FF4F05D0606BFBF7DEFA01D2606959
:105300006063656A216C2846FBF712F88046D4E991
:105310000E01FBF707F80646A068294680F0004713
:105320004FF07E50FAF7FEFF3946FBF701F83146A1
:10533000FAF7FEFF4146FAF7A3FF20640546616BCA
:105340006068FAF7F5FF0646216B2068FAF7F0FF70
:105350003146FAF795FF2946FAF792FFE1690546CB
:1053600011F0FF4F04D02846FBF7B0FA00D2E569F0
:10537000216A11F0FF4F04D02846FBF79DFA00D2B6
:10538000256AB5F5000F04DB2846A16AFAF778FF15
:1053900006E015F1FF4F04D32846A16AFAF7C2FFD1
:1053A00005462846BDE8F0812DE9F041204C0F4626
:1053B0000546E6682168002081F851002068001D3C
:1053C00001F066F838B9206890F82C100120884068
:1053D000216981432161681C15D1A7B11549226853
:1053E0004868906023688268DA6022688368121DCA
:1053F0005A602268121D8260206841610868401C62
:105400000860BDE8F08120683544B54245602168F8
:1054100005D2E06BBDE8F041091D01F061B8A06B59
:10542000091D01F05DF8A06A8542EAD2A562E8E7AD
:10543000C4000020982700202DE9F041054601F026
:1054400073F8354CA068401CA0602068334F10B141
:10545000606930B32BE02560A068012827D10026C1
:1054600006EB860007EB800001F02CF8761C202E5E
:10547000F6D32B4801F026F82948143001F022F821
:105480002748283001F01EF825483C3001F01AF872
:105490002348503001F016F82148A0631430E0632F
:1054A00005E02068E96AC06A884200D82560606A21
:1054B0000121401C6062E86A226981401143216138
:1054C00000EB800007EB80004068A8608168E9601D
:1054D0008268291D51608160E86A00EB800007EB5B
:1054E0008001696157F82010491C47F8201001F02D
:1054F00033F8606900280CD02068E96AC06A8842E5
:1055000007D208494FF080500860BFF34F8FBFF3B8
:105510006F8FBDE8F0810000C4000020C824002087
:105520004827002004ED00E010B500F0FDFF0E4C10
:105530002068A0B90D4800F0C5FF0C48143000F0F9
:10554000C1FF0A48E06014302061002210210520CC
:1055500001F088FA206010B105A101F055F8BDE80E
:10556000104000F0F9BF000004010020AC2700202B
:10557000546D72510000000030B4026C0B46002ADA
:105580000BD0C1681144C1608468A14201D3016895
:10559000C16030BC1846FAF742BE30BC70472DE9F6
:1055A000F041856B174604460026026C82B1C7B1F4
:1055B000E068FAF734FEE168206C091AE1602268BD
:1055C000914202D2A168081AE060022F16D017E0BB
:1055D0002068A8B9A06801F049FD06460020A06037
:1055E0000EE06068FAF71BFE216C6068084460609A
:1055F000A168884204D32068606001E005B16D1E97
:105600006D1CA5633046BDE8F08110B50446006B03
:1056100000F0AEFF2046BDE8104000F0A9BF00003A
:105620000E484FF4C051420706D0C01D0B4920F070
:105630000700411AC1F5C051094A00230144C2E9DB
:1056400000030839143A21F0070111604B600B6028
:105650000B1AC0E90013936053607047D4270020F1
:105660002C010020144E154CA6F52F774FF08058D2
:10567000DFF84C9012E000BF00F056FFF068C568FC
:10568000281D00F005FFA068401EA0606068401E55
:10569000606000F061FF2846FFF7B7FF60680028F0
:1056A000EAD138680128F9D9C9F80080BFF34F8FD3
:1056B000BFF36F8FF2E7000084270020C4000020B2
:1056C00004ED00E02DE9F0470D46DDE909841746B9
:1056D000824691009946089EA522206BFAF7B1FDFB
:1056E0006FF00301206B01EB8701084420F00707EE
:1056F000780700D0FEE765B100202218295C82F807
:105700003410295C11B1401C1028F6D3002084F815
:105710004300202E00D3FEE7E662201D666400F001
:10572000DCFE04F1180000F0D8FE2461C6F1200070
:105730006462A0614A465146384600F049FA20604A
:10574000B8F1000F01D0C8F80040BDE8F0870000B4
:1057500030B5114900E011460A688242FBD34B681C
:105760005C18844203D14068184448600846436886
:105770001C18944209D1084C143C2468A24209D058
:1057800052681A4442600A6812680260814200D07E
:10579000086030BD0460F9E72C01002070B50024DA
:1057A00041600B4D0061914206D8D11A8269914245
:1057B00006D2011D286907E09A4203D2994201D31B
:1057C000012403E0011DE86800F08AFE204670BD58
:1057D0000401002010B5044600F0A6FEA06B28B11D
:1057E0005FF0000400F0B8FE204610BD0124F9E788
:1057F000F1B500260098846C24B1A16BE06B814266
:1058000001D3FEE7FEE7A16B814212D294F9455025
:10581000002269462046FFF7C2FE0646681C0AD0F1
:1058200000F04AFE854204D27F2D0FD06D1C84F813
:1058300045503046F8BD606A0028FAD004F12400D3
:1058400001F062FC0028F4D00126F2E7FEE7000038
:1058500070B506460D480D46C068C068C468201D76
:1058600000F016FE94F82400410705D52A4631467B
:10587000204600F0B7F803E000F0FE0084F82400B2
:105880002046216ABDE8704008470000040100205E
:1058900070B586B0374E63E00098002806DADDE97F
:1058A0000201019A90470098002859DB029C606928
:1058B00010B1201D00F0ECFD04A800F0B5F805467D
:1058C00000980A284CD2DFE800F04B0505282E3F4F
:1058D0000505282E94F824002A4640F0010084F89B
:1058E00024000198A169034601442046FFF756FFB2
:1058F00040B394F82400410707D50198A1692A46CE
:105900000144204600F06EF803E000F0FE0084F849
:105910002400216A2046884722E014F8240F00F072
:10592000FE0020701CE094F8240040F0010084F890
:1059300024000198A06130B141192B461A46204637
:10594000FFF72CFF0CE0FEE794F82400810703D456
:10595000204600F00DFE03E000F0FE0084F8240075
:1059600000226946306801F0E9F9002894D106B0B8
:1059700070BD000004010020F8B50D46064600F099
:10598000E7FF684600F050F80446009810B101F0B7
:1059900023FCF8BD1148ADB101690968D9B10025F2
:1059A000311B2A46006800F04FFE01F015FC00286C
:1059B000EFD10B494FF080500860BFF34F8FBFF31A
:1059C0006F8FF8BDA642EBD801F006FC21463046A9
:1059D000FFF73EFFF8BD0125E2E7000004010020CB
:1059E00004ED00E070B516460C46054604E0A869D3
:1059F000296A044428468847A86923460119324683
:105A00002846FFF7CBFE0028F1D170BD0548816B19
:105A1000096821B1816BC9680968816270474FF0DC
:105A2000FF31FAE7C40000202DE9F041064601F0FD
:105A300081FA0E4C0546A068854214D24FF0FF371C
:105A400004E0C06839460068FFF702FFE0680168BB
:105A50000029F6D12169C4E90310012030602846ED
:105A6000A560BDE8F0810020F8E7000004010020F7
:105A700006484068401C00D0FEE7502080F31188A3
:105A8000BFF34F8FBFF36F8FFEE70000340100209C
:105A9000074CE068016841B1C0680021D0F80000FF
:105AA000FFF76AFFFFF7F4FEF3E701210020F7E7B5
:105AB000040100202DE9F041044600F035FD94F981
:105AC000455004F124060FE0A06C18B12046FFF702
:105AD0008FFE04E0606A48B1304601F015FB08B162
