:020000040800F2
:10000000280700204D0200086B1200084911000863
:100010006912000843040008C91400080000000029
:1000200000000000000000000000000009130008AC
:1000300045040008000000006D1200080B130008C2
:1000400067020008670200086702000867020008EC
:1000500067020008670200086702000867020008DC
:1000600067020008670200086702000867020008CC
:1000700067020008670200086702000867020008BC
:1000800067020008670200086702000867020008AC
:10009000670200086702000867020008670200089C
:1000A000670200086702000867020008670200088C
:1000B000670200086702000867020008670200087C
:1000C000670200086702000867020008670200086C
:1000D000670200086702000867020008670200085C
:1000E000670200086702000867020008670200084C
:1000F000670200086702000867020008670200083C
:10010000670200086702000867020008670200082B
:10011000670200086702000867020008670200081B
:10012000670200086702000867020008670200080B
:1001300067020008670200086702000867020008FB
:1001400067020008670200086702000867020008EB
:1001500067020008670200086702000867020008DB
:1001600067020008670200086702000867020008CB
:10017000670200086702000867020008000000002C
:1001800067020008670200086702000867020008AB
:10019000670200086702000867020008670200089B
:1001A00067020008670200086702000800F002F812
:1001B00000F03CF80AA090E8000C82448344AAF1C5
:1001C0000107DA4501D100F031F8AFF2090EBAE8C3
:1001D0000F0013F0010F18BFFB1A43F0010318477B
:1001E0007813000098130000103A24BF78C878C133
:1001F000FAD8520724BF30C830C144BF04680C602D
:10020000704700000023002400250026103A28BF74
:1002100078C1FBD8520728BF30C148BF0B60704778
:100220001FB501F087F91FBD10B510BD00F0CFF864
:100230001146FFF7F5FF01F059F900F0EDF803B4AE
:10024000FFF7F2FF03BC00F0F5F800000948804713
:1002500009480047FEE7FEE7FEE7FEE7FEE7FEE7A8
:10026000FEE7FEE7FEE7FEE704480549054A064BC0
:1002700070470000AD130008AD0100082801002000
:1002800028070020280300202803002053EA020C3E
:1002900000F069802DE9F04B4FF00006002B1FBFE6
:1002A000B3FA83F503FA05F424FA05F65E4012BFAB
:1002B0001643B2FA82F502FA05F4C5F120051EBF15
:1002C00022FA05FC44EA0C04203556EA044C4FEAB5
:1002D000144418BF641C4FF000084FF0000990420E
:1002E00071EB030C39D3002919BFB1FA81F701FA78
:1002F00007F6B0FA80F700FA07F6C7F120071EBF2D
:1003000020FA07FC46EA0C062037B6FBF4FCA7EB04
:100310000507103F07F01F0BCBF120060CFA0BFB73
:100320002CFA06F644BFB3460026202FA4BF5E4633
:100330004FF0000B5BEA060C08BF4FF0010B19EB06
:100340000B09ABFB027C48EB0608C01B06FB02CC8A
:100350000BFB03CC71EB0C01C1E70B460246414697
:100360004846BDE8F08B13B54FF000004FF0000198
:10037000AFF30080BDE81C4070474FF0000200B5AD
:10038000134694469646203922BFA0E80C50A0E8B8
:100390000C50B1F12001BFF4F7AF090728BFA0E866
:1003A0000C5048BF0CC05DF804EB890028BF40F832
:1003B000042B08BF704748BF20F8022B11F0804F74
:1003C00018BF00F8012B704770477047704775469B
:1003D00000F02CF8AE4605006946534620F00700B1
:1003E000854618B020B5FFF73FFFBDE820404FF02D
:1003F00000064FF000074FF000084FF0000B21F00F
:100400000701AC46ACE8C009ACE8C009ACE8C009DB
:10041000ACE8C0098D46704710B50446AFF30080C4
:100420002046BDE81040FFF70ABF000000487047B3
:10043000C800002001491820ABBEFEE726000200DC
:100440007047FEE77047B42148434FF0E021486110
:1004500000208861052008610869C003FCD50420DC
:100460000861704772B6FEE7F0B5D1E907354C6A0E
:100470000A68C2B102682B4322F4F84214432343B2
:100480000360D1E901231A43D1E9033423431A431A
:100490004B6989691A430A4341686FF30E010A43A5
:1004A00042600020F0BDD1E901263243D1E9036763
:1004B0003E4332434E69896932430A431A432A4311
:1004C000016822436FF30E010A430260E9E74269C3
:1004D00043F6FE739A4342EA4101416100207047AE
:1004E00070B514460546D1E9000210438A686FF0E2
:1004F0001F03C96803EB421242EA412108432969FC
:100500006FF315010843286100F0DEF9064609E0A3
:10051000601C07D024B100F0D7F9801BA04201D99C
:10052000032070BDA8698006F2D4002070BD0000D1
:10053000F0B56FF00F058C8A2E014FEA054ECB689F
:100540002F034FF07F4C0EEB04540AB31A03A2F5AD
:100550008052836822431D4C23401A438260D1E9B4
:10056000002305EB0313521E1A438B6806EB03238B
:100570001A430B8A097E07EB03431A430CEB016114
:100580000A43C16801F070410A43C2600020F0BD17
:10059000D1E9002E05EB0E15521E2A438D6806EB9D
:1005A00005252A430A4D05EB03331A430B8A097EBE
:1005B00007EB03431A4322430CEB01610A438168B2
:1005C00001F070410A438260E0E70000FF0F0FFF77
:1005D00000F0FFFFF0B587B014216846FFF7CDFEAD
:1005E00025480168002944D10121016023480024E5
:1005F000016841F0010101600068022500F001007E
:1006000005904FF63F00CDE9000502AA03260C270E
:1006100082E8D00069461A4800F03CF80D20CDE988
:10062000000502AA694682E8D000164800F032F8B8
:1006300048F23710CDE9000502AA694682E8D000E9
:10064000114800F027F84FF68370CDE9000502AAA3
:10065000694682E8D0000D4800F01CF84CF20370A7
:10066000CDE9000502AA694682E8D000084800F0FA
:1006700011F807B0F0BD000000000020383802403B
:10068000001402400008024000180240001002401E
:10069000000C02402DE9F84FDFF8F8A100220124F8
:1006A00003254FF00F090AF1040BAAF1040E00BF55
:1006B0000B6804FA02F63340B34270D10F7907F0A9
:1006C0000307012F01D0022F16D187684FEA420895
:1006D00005FA08FC27EA0C07D1F80CC00CFA08FC54
:1006E0004CEA070CC0F808C04768B7430E79C6F358
:1006F000001696403E4346600E79F643B6070AD090
:10070000C7684FEA420C05FA0CF6B7438E6806FA42
:100710000CF63E43C6600E7906F00306022E10D199
:10072000D60800EB8608D8F8206057074FEAD76C48
:1007300009FA0CF7BE430F6907FA0CF73743C8F8FC
:10074000207006684FEA420C05FA0CF7BE430F7999
:1007500007F0030707FA0CF7374307604E6816F4F3
:10076000403F1CD04C4E376847F4804737603668AE
:1007700022F0030706F480460096484E07EB060C6D
:10078000DCF8086897073F0F09FA07F826EA080619
:10079000DFF80C81404503D14FF0000841E072E0E2
:1007A000DFF80081404502D14FF0010839E0DFF861
:1007B000F880404502D14FF0020832E0DFF8EC80CB
:1007C000404502D14FF003082BE0DFF8E4804045BC
:1007D00002D14FF0040824E0DFF8D880404502D170
:1007E0004FF005081DE0DFF8D080404502D14FF002
:1007F000060816E0DFF8C480404502D14FF0070834
:100800000FE0DFF8BC80404502D14FF0080808E057
:10081000DFF8B080404502D14FF0090801E04FF009
:100820000A0808FA07F848EA0608CCF80888DAF84F
:1008300000605746D1F804C09E435FEACC2C00D537
:100840001E433E60DBF800605F46D1F804C09E4363
:100850005FEA8C2C00D51E433E60DEF800607746D0
:10086000D1F804C09E435FEA8C3C00D51E433E6035
:10087000084F083F3E68D1F804C09E435FEACC3C75
:1008800000D51E433E60521C102AFFF411AFBDE894
:10089000F88F0000083C014044380240003001401D
:1008A000000002400004024000080240000C024028
:1008B000001002400014024000180240001C0240D8
:1008C0000020024000240240014880687047000078
:1008D0000800002002488168027811448160704756
:1008E000080000200B4810B5016841F40071016058
:1008F000016841F480610160016841F48071016028
:10090000032000F061F80F2000F006F800F024F852
:10091000002010BD003C024070B50D4D04464FF460
:100920007A712878B1FBF0F00A490968B1FBF0F060
:1009300000F08EFB48B9102C07D200222146501E31
:1009400000F022F800206C6070BD012070BD000036
:1009500008000020140000200A4808B5016841F48E
:1009600080410160006800F4804000900548001F4D
:10097000016841F080510160006800F080500090F3
:1009800008BD000044380240F0B40E4B1B680C4612
:10099000C3F30223C3F10705042D00D90425191D53
:1009A000072901D2002300E0DB1E012606FA05F12B
:1009B000491E214099409E40761E16403143F0BCAE
:1009C00000F083BD0CED00E0064900F00702086866
:1009D0004FF6FF03184040EA0220034A1043086024
:1009E000704700000CED00E00000FA052DE9F84327
:1009F0001748016841F0805101600068154F00F010
:100A00008050012600903E64FFF75EFF05464FF4DC
:100A10007A78114C05E000BFFFF756FF401B4045B8
:100A20000DD86068C003F7D57E64FFF74DFF05461B
:100A3000464607E0FFF748FF401BB04202D90320BB
:100A4000BDE8F88360688003F4D50020F8E7000073
:100A50004038024000000E42007000402DE9F0478F
:100A60000E46050065D0DFF81481D8F80000F7B213
:100A700000F00F00B04207D288F80070D8F80000EC
:100A800000F00F00B04254D128683D4C810712D5C8
:100A9000400703D5206840F4E05020602878000724
:100AA00003D5206840F4604020602068A96820F0E9
:100AB000F000084320602878C0072DD030496868CE
:100AC0000839012812D0022813D0032811D0096850
:100AD000890700292DDA216821F0030101432160F3
:100AE000FFF7F2FE814641F2883A0EE00968890379
:100AF000EFE709688901ECE7FFF7E6FEA0EB0901E3
:100B0000514502D90320BDE8F0872068696800F0EC
:100B10000C00B0EB810FEFD1D8F80010404601F087
:100B20000F01B14207D90770006800F00F00B04212
:100B300001D00120E7E72878400705D52068E9685B
:100B400020F4E050084320602878000706D520688C
:100B5000296920F4604040EAC100206000F038F8C4
:100B60002168084AC1F30311515CC8400649086076
:100B700006480068FFF7D0FE0020C4E7003C0240B2
:100B8000083802403E150008140000200C00002028
:100B90000448054900680968044AC1F38221515C90
:100BA000C840704714000020083802404E15000865
:100BB0000448054900680968044AC1F34231515CA0
:100BC000C840704714000020083802404E15000845
:100BD000154810B5006810F00C02144813D01449E1
:100BE000042A0FD0082A0ED10F4C241F2268236834
:100BF00002F03F025B0207D52068C0F38810A0FB1B
:100C0000010106E0084610BD2168C1F38811A1FB6F
:100C100000010023FFF73AFB2168C1F30141491CA1
:100C20004900B0FBF1F010BD083802400024F40088
:100C300040787D012DE9F84F04006ED02078DFF870
:100C40004C93C007A9F104054AD009F104000168DA
:100C5000C1F38101012908D00068C0F38100022896
:100C60000AD1D9F80000400206D52868800337D59C
:100C700060680028E1D033E06068B0F5803F10D0B4
:100C8000B0F5A02F286810D020F4803028602868A4
:100C900020F4802028606068A8B1FFF715FE0646A2
:100CA0000DE0286840F48030F4E740F480202860AC
:100CB000F7E700BFFFF708FE801B642873D8286899
:100CC0008003F7D50CE0FFF7FFFD064605E000BF07
:100CD000FFF7FAFD801B6428F0D828688003F7D45A
:100CE0002078DFF8AC8280074FF0000A3ED5A74895
:100CF000001D016811F00C0F08D00068C0F38100DE
:100D000002280BD1D9F80000400207D428688007D8
:100D100016D5E068012800D112E033E1E068B8B1EF
:100D20000120C8F80000FFF7CFFD064605E000BF30
:100D3000FFF7CAFD801B0228C0D828688007F7D5B6
:100D40002868216920F0F80040EAC10028600DE021
:100D5000C8F800A0FFF7B8FD064604E0FFF7B4FDB1
:100D6000801B02281FD828688007F7D42078000746
:100D700022D5864F87486169703771B101210160C2
:100D8000FFF7A2FD064604E0FFF79EFD801B022848
:100D900009D838688007F7D50EE0C0F800A0FFF743
:100DA00093FD064605E082E0FFF78EFD801B0228DA
:100DB0007DD838688007F7D42078400768D5DFF8F9
:100DC000CCB100270BF13C0BDBF80000C0000BD4CA
:100DD000DBF8001041F08051CBF80010DBF8000088
:100DE000012700F0805000906B4E3068C00510D491
:100DF000306840F480703060FFF766FD009005E0D9
:100E0000FFF762FD0099401A022850D83068C005EB
:100E1000F6D55E4EA0686C3601280FD005283068E4
:100E200010D020F001003060306820F00400306005
:100E3000A068B8B1FFF748FD00900FE0306840F0BF
:100E40000100F4E740F004003060F7E7FFF73CFDF5
:100E50000099411A41F28830814266D83068800793
:100E6000F4D50EE0FFF730FD009007E0FFF72CFD12
:100E70000099411A41F28830814256D83068800783
:100E8000F4D42FB1DBF8001021F08051CBF8001022
:100E9000A069C8B33D49091D0968C1F38101022950
:100EA0004AD00228504607D0C8F8600000E03CE075
:100EB000FFF70AFD04463BE04746C8F86000FFF72D
:100EC00003FD064605E000BFFFF7FEFC801B02287D
:100ED0002BD828688001F7D4D4E907010843A16A18
:100EE0002E4A490802EB0141626A41EA8211084335
:100EF00094F82C1040EA0161C9F80010012038660E
:100F0000FFF7E2FC044606E03EE000BFFFF7DCFC32
:100F1000001B022809D828688001F7D534E000BFFB
:100F2000FFF7D2FC001B022802D90320BDE8F88F8E
:100F300028688001F4D427E00128F7D0D9F8000010
:100F4000E26900F4800191421CD1226A00F03F0165
:100F5000914217D147F6C071626A0140B1EB821F1E
:100F600010D1A26A4FF0FF3300F4403103EB52027C
:100F7000B1EB024F06D194F82C1000F07060B0EB8A
:100F8000016F01D00120D1E70020CFE704380240F3
:100F900000004742800E4742007000400000FFFF03
:100FA00070B50D46040003D094F82C0010B107E092
:100FB000012070BD002084F82D00204600F011F8BB
:100FC000022084F82C00211D2068FFF74DFAD4E997
:100FD00000022946FFF7ACFA012084F82C0000201B
:100FE00070BDFFF7F7BA10B5044690F82C00022840
:100FF00004D094F82C00012801D0012010BD02205B
:1010000084F82C002068FFF762FA012084F82C0095
:10101000002010BD70B5044690F82C000D46022843
:1010200004D0012803D0052801D0012070BD022082
:1010300084F82C002068FFF753FA2868022805D0AE
:101040005FF0010084F82C00002070BD0520F9E756
:1010500010B5401EB0F1807F01D3012010BD4FF0CC
:10106000E02460610F21601700F02FFA0020A061DA
:1010700007202061002010BD70B5040004D094F852
:101080004100002510B106E0012070BD84F84050F9
:10109000204600F023F8242084F841002068C1682D
:1010A00021F40051C160204600F088F920680169F0
:1010B00021F4904101612068416921F02A014161D8
:1010C0002068C16841F40051C1606564202084F843
:1010D000410084F842006563002070BD10B586B001
:1010E000044614216846FFF748F9144920688842ED
:1010F00021D113480021026842F01002026000680A
:1011000000F0100005900E481438026842F0010209
:101110000260006800F0010005904FF4C06000908C
:101120000220CDE9010103200390072004906946C5
:101130000448FFF7AFFA06B010BD000000100140F0
:101140004438024000000240FEE7000000B587B0CE
:101150001C216846FFF711F9154814490122016066
:101160000021C0E9011208221023C0E90323402313
:1011700043614FF4C073C0E90631130203625302A6
:10118000C0E90931022006210090CDE90121039137
:101190000421CDE90410069069460548FFF700FFD9
:1011A000002801D0FFF75EF907B000BD400100A0A4
:1011B0004C0000201D4808B5016841F02001016085
:1011C000016801F020010091016841F08001016097
:1011D000016801F080010091016841F004010160A3
:1011E000016801F004010091016841F040010160D3
:1011F000016801F040010091016841F010010160B7
:10120000016801F010010091016841F008010160DE
:10121000016801F008010091016841F001010160DD
:10122000006800F00100009008BD00003038024066
:101230000C4810B50A4901604FF4E13141600021CA
:1012400081600C22C160C0E904128161C161FFF7B5
:1012500013FF002803D0BDE81040FFF703B910BD0D
:101260000010014080000020FEE7FEE7704770B5E7
:101270000C460546002301221146184600F01EF8D0
:101280004FF4FA70FFF7DFF800230122022118461D
:1012900000F014F8002308220321184600F00EF88D
:1012A0004FF40C7301220421002000F007F82146BE
:1012B0002846BDE87040FFF796BE00001FB5002429
:1012C00010B1012802D002E0102400E00824CDE98A
:1012D0000014CDE902234FF4805269460348FFF71A
:1012E00099FE002800D0012004B010BD4C00002061
:1012F00010B5002305E0CC1844F040442478C454D1
:101300005B1C9342F7D310BD7047FFF7E3BA0000B0
:1013100070B592B030216846FFF72FF814210CA861
:10132000FFF72BF81F480025016841F0805101604C
:10133000006800F0805011901B48016841F4404162
:1013400001600068022400F44040119001200090E8
:10135000000401908001CDE906400F260896D820B0
:10136000CDE9090404200B906846FFF763FC08B13F
:1013700072B6FEE7FFF73AFB08B172B6FEE74FF42C
:10138000A050CDE90E504FF48050CDE90C64109080
:1013900005210CA8FFF762FB002801D072B6FEE71A
:1013A00012B070BD40380240007000400248016831
:1013B00041F470010160704788ED00E070B50446AB
:1013C00000680169E26821F440511143016121691B
:1013D000A068E26908436169114308432168CA684B
:1013E00049F20C639A430243CA6020684169A269CA
:1013F00021F440711143416131492068884202D093
:101400003049884202D1FFF7D3FB01E0FFF7C0FB70
:10141000E2690023192164253226B2F5004F626883
:1014200028D0A0FB0101930F9200FEF72FFF014689
:10143000B0FBF5F06FF01802504301EB800006EBB3
:101440000010B0FBF5F000F0F002B1FBF5F002EB9C
:101450000012B1FBF5F06FF01803584301EB800068
:1014600006EB0010B0FBF5F000F00F00216810440F
:10147000886070BDA0FB010192185B41FEF706FF7A
:101480000146B0FBF5F00201B1FBF5F06FF0180377
:10149000584301EB800006EBC000B0FBF5F000F014
:1014A000F80002EB4002B1FBF5F0584301EB80007D
:1014B00006EBC000B0FBF5F000F00700D6E7000037
:1014C0000010014000140140FEE70907090E002842
:1014D00004DB00F1E02080F80014704700F00F00FA
:1014E00000F1E02080F8141D70470000FFF7FAF9C2
:1014F000FFF70EFFFFF75EFEFFF728FEFFF798FEEF
:1015000040F2AB210848FFF7B2FE084A0020410034
:101510001154401CC0B23228F9D3322200210448B1
:10152000FFF7E6FEFEE700004C000020000000C0D0
:10153000180000204FF04070E1EE100A70470000E4
:101540000000000000000102030406070809000073
:1015500000000102030400007815000800000020CC
:1015600018000000E801000890150008180000208D
:101570001007000004020008000000000000000046
:101580000100000010000000000000000024F40032
:04000005080001AD41
:00000001FF
