:020000040800F2
:10000000100C002081020008A93000082B290008EC
:10001000A5300008070400085D3800080000000053
:10002000000000000000000000000000C101000806
:10003000D5040008000000001D020008D5310008AA
:100040009B0200089B0200089B0200082D3100085B
:100050009B0200089B0200089B0200089B0200080C
:100060009B0200089B0200089B0200089B020008FC
:100070009B0200089B0200089B0200089B020008EC
:100080009B0200089B0200089B0200089B020008DC
:100090009B0200089B0200089B0200089B020008CC
:1000A0009B0200089B0200089B0200089B020008BC
:1000B0009B0200089B020008B93200089B0200085E
:1000C0009B0200089B0200089B0200089B0200089C
:1000D0009B0200084D3800089B0200089B020008A4
:1000E0009B020008AD3000089B0200089B0200083C
:1000F0009B0200089B0200089B0200089B0200086C
:100100009B0200089B0200089B0200089B0200085B
:100110009B0200089B0200089B0200089B0200084B
:100120009B0200089B0200089B0200089B0200083B
:100130009B0200089B0200089B0200089B0200082B
:100140009B0200089B0200089B0200089B0200081B
:100150009B0200089B0200089B0200089B0200080B
:100160009B0200089B0200089B0200089B020008FB
:100170009B0200089B0200089B0200080000000090
:100180009B0200089B0200089B0200089B020008DB
:100190009B0200089B0200089B0200089B020008CB
:1001A0009B0200089B0200089B020008DFF80CD0AD
:1001B00000F0ECF8004800471D3E0008100C00203D
:1001C0002C4B19680868B0E8F04F80F30988BFF33A
:1001D0006F8F4FF0000080F311887047000000001F
:1001E00008480068006880F308884FF0000080F33A
:1001F000148862B661B6BFF34F8FBFF36F8F00DF15
:1002000000BF00BF08ED00E0DFF80C00016841F41A
:1002100070010160704700BF88ED00E0EFF30980D6
:10022000BFF36F8F134B1A681EF0100F08BF20ED3D
:10023000108A20E9F04F106009B44FF0500080F3AD
:100240001188BFF34F8FBFF36F8F05F0FDF84FF0AC
:10025000000080F3118809BC19680868B0E8F04F05
:100260001EF0100F08BFB0EC108A80F30988BFF3AE
:100270006F8F704728000020EFF305807047000063
:100280000648804706480047FEE7FEE7FEE7FEE730
:10029000FEE7FEE7FEE7FEE7FEE7FEE7A532000821
:1002A000AD0100082DE9F05F0546002092469B460F
:1002B00088460646814640241BE02846414647467C
:1002C000224600F053F853465A46C01A914110D3C3
:1002D00011461846224600F03AF82D1A67EB01083D
:1002E0004F4622460120002100F031F817EB0009AB
:1002F0004E41201EA4F10104DFDC484631462A4667
:100300004346BDE8F09F40EA01039B0703D009E0A4
:1003100008C9121F08C0042AFAD203E011F8013BF1
:1003200000F8013B521EF9D27047D2B201E000F84A
:10033000012B491EFBD270470022F6E710B5134689
:100340000A4604461946FFF7F0FF204610BD202A52
:1003500004DB203A00FA02F1002070479140C2F11C
:10036000200320FA03F3194390407047202A04DB4E
:10037000203A21FA02F00021704721FA02F3D0401E
:10038000C2F120029140084319467047064C074DC0
:1003900006E0E06840F0010394E807009847103455
:1003A000AC42F6D3FFF706FF0C7B00082C7B00085D
:1003B00070B58C1810F8015B15F0070301D110F827
:1003C000013B2A1106D110F8012B03E010F8016B54
:1003D00001F8016B5B1EF9D12B0705D40023521ED7
:1003E0000DD401F8013BFAE710F8013BCB1A921C3F
:1003F00003E013F8015B01F8015B521EF9D5A1423D
:10040000D8D3002070BD00BFFEE700002DE9F04703
:10041000089F044616460D469C46DFF8B080D8F883
:10042000008028F00108DFF8A490C9F80080C846D1
:10043000D8F8008048F44038C9F800804FF002082E
:10044000C9F834804FF4806808FB0548DFF88090D5
:100450004FF0020A0AFB0898DFF87090C9F83C8058
:10046000A6EB040808F10108C8F58068C9F84080C7
:10047000ACEB050808F10108A6EB040909F1010934
:1004800048EA0948DFF84490C9F84480C846C8F8EB
:100490003870D8F8008048F00108C9F8008000BF23
:1004A000DFF82880D8F8048008F00208B8F1000FBF
:1004B000F6D0DFF81880D8F8088048F00208DFF896
:1004C0000C90C9F80880BDE8F087000000B0024039
:1004D000000000C0704772B600BFFEE70246086821
:1004E000B0B9D1E901031843CB6818430B6918432D
:1004F0004B6918438B691843CB6918430B6A18433F
:100500004B6A184313686FF30E031843106019E029
:10051000D1E9070318434B6A1843136823F4F843DF
:1005200018431060D1E901031843CB6818430B69E5
:1005300018434B6918438B69184353686FF30E03D4
:1005400018435060002070470246506943F6FE731E
:10055000984340EA41005061002070472DE9F04186
:1005600005460C4616460027D4E900010843A16859
:10057000491E40EA4110E16840EA412029696FF3D1
:1005800015010843286100F04FFA07460AE0701C85
:1005900040B126B100F048FAC01BB04202D9032096
:1005A000BDE8F081A86900F020002028EFD00020ED
:1005B000F6E7000030B50346FAB90868401E4C68FB
:1005C000641E40EA04148868401E44EA0024C86897
:1005D000401E44EA0034088A401E44EA0044888AE7
:1005E000401E44EA0054087E401E44EA00609C68B5
:1005F00004F070442043986022E0C868401E040361
:10060000888A401E44EA00509C680E4D2C402043CE
:1006100098600868401E4C68641E40EA04148868AC
:10062000401E44EA0024088A401E44EA0044087E32
:10063000401E44EA0060DC6804F070442043D86047
:10064000002030BDFF0F0FFF70B50446A56D00F010
:10065000EBF9064694F83500022808D08020606542
:1006600000BF002084F8340000BF012070BD206866
:10067000006820F01600216808602068406920F0BA
:10068000800021684861206C08B9A06C28B12068FE
:10069000006820F00800216808602068006820F0E9
:1006A00001002168086010E000F0BEF9801B0528F9
:1006B0000BD920206065032084F8350000BF00209E
:1006C00084F8340000BF0320D0E72068006800F001
:1006D00001000028E8D194F85C103F208840A86011
:1006E000012084F8350000BF002084F8340000BFEA
:1006F00000BFBBE7014691F83500022803D08020F7
:10070000486501207047052081F8350008680068B9
:1007100020F001000A6810600020F3E700B587B000
:10072000142102A8FFF708FE3148006808B107B09D
:1007300000BD01202E49086000BF002001902D4817
:10074000006840F001002B4908600846006800F08E
:100750000100019000BF00BF4FF63F000290022051
:10076000039000200490032005900C20069002A91D
:10077000214800F04BF80D20029002200390002049
:100780000490032005900C20069002A91B4800F05D
:100790003DF848F2371002900220039000200490A8
:1007A000032005900C20069002A9154800F02EF8B1
:1007B0004FF68370029002200390002004900320E3
:1007C00005900C20069002A90E4800F01FF84CF28C
:1007D00003700290022003900020049003200590F3
:1007E0000C20069002A9084800F010F800BF9EE710
:1007F0001400002038380240001402400008024073
:100800000018024000100240000C0240F8B50246F9
:100810000B460025002400200021E0E0012606FA16
:1008200001F51E6806EA0504AC4274D11E7906F093
:100830000306012E04D01E7906F00306022E13D102
:1008400090684F000326BE40B0434F00DE68BE40B4
:1008500030439060506801268E40B0431E79C6F345
:1008600000168E40304350601E7906F00306032EBA
:1008700009D0D0684F000326BE40B0434F009E68A9
:10088000BE403043D0601E7906F00306022E13D11D
:10089000CF0802F1200656F827004E07F70E0F2664
:1008A000BE40B0434F07FF0E1E69BE403043CF0825
:1008B00002F1200646F8270010684F000326BE40CC
:1008C000B0431E7906F003064F00BE40304310606F
:1008D0005E6806F44036002E1DD000BF002600964C
:1008E000414E366846F480463F4F3E603E4636688D
:1008F00006F48046009600BF00BF3C4E8F0856F8B5
:1009000027008E07370F0F26BE40B043384EB24245
:1009100002D100262EE061E0364EB24201D101261E
:1009200028E0354EB24201D1022623E0334EB242D6
:1009300001D103261EE0324EB24201D1042619E055
:10094000304EB24201D1052614E02F4EB24201D101
:1009500006260FE02D4EB24201D107260AE02C4EAA
:10096000B24201D1082605E02A4EB24201D1092641
:1009700000E00A268F073F0FBE4030431B4E8F0812
:1009800046F82700244E3068A0435E6806F48016BF
:1009900006B12043204E3060361D3068A0435E68AB
:1009A00006F4001606B120431B4E361D30601A4E69
:1009B000361F3068A0435E6806F4003606B1204357
:1009C000154E361F3060361F3068A0435E6806F44F
:1009D000803606B12043104E083E3060491C102975
:1009E000FFF41CAFF8BD0000443802400838014055
:1009F000000002400004024000080240000C0240D7
:100A0000001002400014024000180240001C024086
:100A10000020024000240240083C01400AB18161EC
:100A200001E00B04836170470148006870470000D3
:100A30001800002003480068034909780844014968
:100A400008607047180000202000002010B50D48F5
:100A5000006840F400700B4908600846006840F4E4
:100A6000806008600846006840F4807008600320D9
:100A700000F0EEF90F2000F007F800F077F9002001
:100A800010BD0000003C024070B504460E480078DE
:100A90004FF47A71B1FBF0F00C490968B1FBF0F545
:100AA000284601F044FC08B1012070BD102C07D28B
:100AB00000222146501E00F08DF90548046001E037
:100AC0000120F2E70020F0E72000002024000020B1
:100AD0001C00002070B504460E46154600BF94F871
:100AE000A000012801D1022070BD012084F8A000DF
:100AF00000BF022084F8A10005EB850101EBC502CF
:100B000004F1380101EB820034223146FFF7FBFB90
:100B10002A463146204601F01BFF01202168486229
:100B200084F8A10000BF002084F8A00000BF00BF2F
:100B3000DAE7000070B50446204600F075F820683A
:100B4000806920F0704021688861D4E90101084380
:100B5000E1680843216908432168896908432168DD
:100B60008861206880682F49084021688860A08AD1
:100B7000050420688068A1692943084321688860CA
:100B80002068C068274908402168C860A08B050418
:100B90002068C068216A294308432168C86020682A
:100BA00000692049084021680861A08C050420687C
:100BB0000069A16A294308432168086120684069E7
:100BC0001849084021684861A08D050420684069E3
:100BD000216B294308432168486194F835000502D8
:100BE00094F8360006042068C06A00F07F4021684F
:100BF000C86246EA050094F8341008432168C96ABF
:100C000008432168C8622068406B40F006002168F4
:100C100048632068806940F00100216888610020F5
:100C200070BD000000F800F010B592B0044630210D
:100C300006A8FFF781FB0820069078200A90022181
:100C40000C9100200F9006A800F06AF908B100BFCF
:100C5000FEE700BF002000903F48006840F0806041
:100C60003D4908600846006800F08060009000BFC1
:100C700000BF00BF0020009037481438006840F4DF
:100C800080703549143908600846006800F48070A7
:100C9000009000BF00BF00BF002000900846006821
:100CA00040F0200008600846006800F02000009036
:100CB00000BF00BF00BF002000900846006840F061
:100CC000800008600846006800F08000009000BFC7
:100CD00000BF00BF002000900846006840F04000C0
:100CE00008600846006800F04000009000BF00BFA8
:100CF000142101A8FFF720FB40F2E76001900220D9
:100D0000029001200390032004900E20059001A979
:100D10001248FFF77BFD4FF48060019001A9104855
:100D2000FFF774FD4FF47E40019001A90D48FFF7D5
:100D30006DFD4FF40C60019001A90B48FFF766FDB3
:100D40004FF4805001900920059001A90648FFF753
:100D50005DFD12B010BD000044380240002002408A
:100D600000140240001C02400018024008B500BFF9
:100D7000002000900E48006840F480400C49086054
:100D80000846006800F48040009000BF00BF00BF2C
:100D900000200090081F006840F08050091F086084
:100DA0000846006800F08050009000BF00BF08BDFA
:100DB0004438024001460846002809DB00F01F03C2
:100DC00001229A4043099B0003F1E023C3F800216C
:100DD00000BF70472DE9F05F80460D46164600279C
:100DE00002F062FD074639462A46334601F0070005
:100DF000C0F1070ABAF1040F02D94FF0040A01E06A
:100E0000C0F1070AD14600F1040ABAF1070F02D275
:100E10004FF0000A01E0A0F1030AD4464FF0010AA6
:100E20000AFA09FAAAF1010A0AEA020A0AFA0CFA0B
:100E30004FF0010B0BFA0CFBABF1010B0BEA030BB0
:100E40004AEA0B042146404602F036FDBDE8F09F19
:100E500000BF00F00702064B19684FF6FF03194068
:100E6000044B0B4343EA0221014B196000BF70475A
:100E70000CED00E00000FA0538B5002400BF0020AA
:100E800000901D48006840F080501B4908600846EB
:100E9000006800F08050009000BF00BF012017499B
:100EA0000864FFF7C1FD044607E0FFF7BDFD001B26
:100EB000B0F57A7F01D9032038BD1148406800F4AD
:100EC0008030B0F5803FF0D101200C494864FFF735
:100ED000ABFD044607E0FFF7A7FD001BB0F57A7FE6
:100EE00001D90320E8E70648406800F40030B0F577
:100EF000003FF0D10020DFE74038024000000E4202
:100F00000070004008B501200349086203480068EA
:100F1000009000BF08BD000000000E4200700040BD
:100F2000F8B5044600250026207800F0010048B9F5
:100F3000207800F00200022804D0207800F0400061
:100F4000402862D10020B1498866FFF76DFD054653
:100F500006E0FFF769FD401B022801D90320F8BD18
:100F6000AB480068C0F3C0600028F2D1207800F0E0
:100F7000010038B160688101207A41EA0070A4491B
:100F800084310860207800F00200022819D1A048BE
:100F900084300068C0F3027660688101207B41EAFA
:100FA000006040EA06709A498431086098488C30A5
:100FB000006820F01F00E169491E084394498C3104
:100FC0000860207800F0400040280AD16068810164
:100FD000207B41EA0061207A41EA00708C4984312B
:100FE0000860012089498866FFF71EFD054606E076
:100FF000FFF71AFD401B022801D90320AFE7844800
:101000000068C0F3C0600028F2D0207800F004002F
:10101000042804D0207800F00800082863D10020BC
:101020007A490867FFF700FD054606E0FFF7FCFC7C
:10103000401B022801D9032091E775480068C0F3DE
:1010400040700028F2D1207800F00400042819D163
:101050006F4888300068C0F3027620698101207DE6
:1010600041EA006040EA0670694988310860081D5D
:10107000006820F4F851206A401E41EA00206449CB
:101080008C310860207800F00800082817D16048EB
:1010900088300068C0F303662069800140EA066179
:1010A000207E41EA00705A4988310860081D0068B6
:1010B00020F44030616A084355498C3108600120B2
:1010C00052490867FFF7B0FC054606E0FFF7ACFCA5
:1010D000401B022801D9032041E74D480068C0F3B6
:1010E00040700028F2D0207800F0200020287DD128
:1010F00000BF0020009046484030006840F080501B
:101100004349403108600846006800F08050009074
:1011100000BF00BF3F48006840F480703D49086050
:10112000FFF782FC054606E0FFF77EFC401B022825
:1011300001D9032013E73748006800F480700028C5
:10114000F2D033487030006800F440764EB3208D02
:1011500000F44070B04224D02D487030006820F474
:10116000407601202C490860002008602848703033
:101170000660006800F0010098B1FFF755FC0546D5
:1011800008E0FFF751FC401B41F28831884201D949
:101190000320E4E61E4870300068C0F340000028D9
:1011A000EFD000BF208D00F44070B0F5407F0CD12F
:1011B00017480830006820F4F810184AA16A114056
:1011C000084313490831086007E0114808300068F7
:1011D00020F4F8100E49083108600D48703000689E
:1011E000218DC1F30B010843094900E002E0703191
:1011F000086000BF207800F01000102803D194F898
:101200002C00074908600020A9E6000000004742C2
:101210000038024000700040400E4742FFFCFF0FC4
:10122000E011474270B504460D460CB9012070BD6F
:101230005848006800F00F00A84209D255490D70C7
:101240000846006800F00F00A84201D00120EEE738
:10125000207800F0020002281DD1207800F0040060
:10126000042805D14C48006840F4E0504A49086021
:10127000207800F00800082805D14748006840F4AD
:101280006040454908604448006820F0F000A168CB
:10129000084341490860207800F00100A8B3606865
:1012A000012807D13C4808380068C0F34040B8B96D
:1012B0000120BCE76068022802D06068032807D1DB
:1012C000354808380068C0F3406048B90120AEE7EF
:1012D000314808380068C0F3400008B90120A6E78B
:1012E0002D48006820F00300616808432A4908601F
:1012F000FFF79AFB064609E0FFF796FB801B41F2D9
:101300008831884202D9032091E707E0224800682B
:1013100000F00C006168B0EB810FEDD11D48006852
:1013200000F00F00A84209D91A490D70084600685C
:1013300000F00F00A84201D0012078E7207800F0EB
:101340000400042807D11448006820F4E050E16844
:10135000084311490860207800F00800082808D1E7
:101360000D48006820F46040216940EAC1000A4944
:10137000086000F03FF808490968C1F30311074A03
:10138000515CC8400649086006480068FFF77CFBCE
:1013900000204CE7003C02400838024096790008E3
:1013A000240000201C000020014800687047000055
:1013B0002400002000B5FFF7F7FF04490968C1F3D6
:1013C0008221034A515CC84000BD00000838024039
:1013D000A679000800B5FFF7E7FF04490968C1F3E3
:1013E0004231034A515CC84000BD00000838024049
:1013F000A67900082DE9F047002400250026A14623
:101400002548006800F00C0020B1042805D0082809
:101410003AD105E0DFF8849039E0DFF8849036E0D7
:101420001D48001F006800F03F041B48001F0068B3
:1014300000F4800078B11A481749091F0968C1F300
:101440008811A0FB01700146224600233846FEF7B2
:1014500029FF05460EE011480F49091F0968C1F32D
:101460008811A0FB01700146224600233846FEF792
:1014700019FF05460848001F0068C0F30140401CE2
:101480004600B5FBF6F902E0DFF8109000BF00BFA0
:101490004846BDE8F0870000083802400024F40008
:1014A00040787D01F8B504460CB90120F8BD2078DC
:1014B00000F00100002874D0F948006800F00C002A
:1014C00004280DD0F648006800F00C00082813D15D
:1014D000F348001F006800F48000B0F5800F0BD1C6
:1014E000EF4808380068C0F34040002859D06068D1
:1014F000002856D10120D9E700BF6068B0F5803FD1
:1015000008D1E7480838006840F48030E4490839D9
:1015100008601EE06068B0F5A02F0DD1E0480838E3
:10152000006840F48020DE490839086008460068F9
:1015300040F4803008600CE0D9480838006820F496
:101540008030D749083908600846006820F48020B8
:10155000086000BF606890B1FFF766FA054606E0D4
:10156000FFF762FA401B642801D903209EE7CC48AC
:1015700008380068C0F340400028F1D011E0FFF7C0
:1015800053FA054606E0FFF74FFA401B642801D9DD
:1015900003208BE7C24808380068C0F340400028A9
:1015A000F1D1207800F0020002285FD1BC48006829
:1015B00000F00C0058B1BA48006800F00C00082890
:1015C0001CD1B748001F006800F48000B0B9B448CF
:1015D00008380068C0F3400020B1E068012801D05D
:1015E000012063E7AE480838006820F0F800216960
:1015F00040EAC100AA490839086037E0E06800B352
:101600000120A8490860FFF70FFA054606E0FFF73A
:101610000BFA401B022801D9032047E7A0480838ED
:101620000068C0F340000028F1D09D4808380068E9
:1016300020F0F800216940EAC100994908390860A2
:1016400014E0002097490860FFF7EEF9054606E030
:10165000FFF7EAF9401B022801D9032026E790484A
:1016600008380068C0F340000028F1D1207800F06D
:10167000080008282CD16069A8B101208A490860B7
:10168000FFF7D2F9054606E0FFF7CEF9401B022826
:1016900001D903200AE782486C300068C0F340009B
:1016A0000028F1D014E000207F490860FFF7BCF962
:1016B000054606E0FFF7B8F9401B022801D90320D0
:1016C000F4E677486C300068C0F340000028F1D1A0
:1016D000207800F00400042870D1002770483830CA
:1016E000006800F0805090B900BF002000906C4866
:1016F0003830006840F08050694938310860084649
:10170000006800F08050009000BF00BF01276748CC
:10171000006800F48070B0B96448006840F48070DC
:1017200062490860FFF780F9054606E0FFF77CF99B
:10173000401B022801D90320B8E65C48006800F489
:1017400080700028F2D000BFA068012808D154485A
:101750006830006840F001005149683108601DE0C0
:10176000A06805280DD14E486830006840F004009C
:101770004B49683108600846006840F00100086085
:101780000CE047486830006820F0010044496831A7
:1017900008600846006820F00400086000BFA068E8
:1017A000A8B1FFF741F9054609E0FFF73DF9401BF5
:1017B00041F28831884202D9032077E626E0384892
:1017C00068300068C0F340000028EED013E0FFF757
:1017D0002BF9054608E0FFF727F9401B41F2883155
:1017E000884201D9032061E62D4868300068C0F3C3
:1017F00040000028EFD1012F07D129483830006878
:1018000020F0805026493831086000BFA0690028C8
:1018100045D02348006800F00C0008285DD0A0697E
:10182000022845D100201F490866FFF7FDF805464C
:1018300006E0FFF7F9F8401B022801D9032035E63E
:10184000174808380068C0F340600028F1D1D4E997
:1018500007010843616A40EA81110122A06AC2EBD4
:10186000500041EA00412C20005D41EA00600C4933
:10187000091F086001200B490866FFF7D5F80546E7
:1018800006E0FFF7D1F8401B022801D903200DE63E
:10189000034808380068C0F340600028F1D049E0F0
:1018A0000838024000004742800E47420070004066
:1018B000002021490866FFF7B7F8054606E0FFF764
:1018C000B3F8401B022801D90320EFE51B4800684C
:1018D000C0F340600028F2D12CE0A069012800D1BB
:1018E000E4E51648001D0668A069012820D006F42A
:1018F0008001E06981421BD106F03F01206A8142EC
:1019000016D147F6C0703040616AB0EB811F0FD12D
:1019100006F440310122A06AC2EB5000B1EB004F47
:1019200006D106F070612C20005DB1EB006F01D094
:101930000120BBE50020B9E5000047420038024025
:10194000704702460023106800F1500303EB810347
:101950001868704710B50023046804F1500303EBC6
:1019600081031A6010BD000018B5034600BF187F40
:10197000012801D1022018BD0120187700BF0220E4
:10198000587700BFCA201C68606253201C686062E0
:1019900000BF1868806800F4806000B341480068A8
:1019A00040094FF47A74B0FBF4F06043009000BF3C
:1019B0000098441E009460B900BFFF201C6860625C
:1019C00000BF0320587700BF0020187700BF032016
:1019D000D1E71868C068C0F380000028E8D1186813
:1019E000806820F480601C68A0602E480068400970
:1019F0004FF47A74B0FBF4F06043009000BF00989D
:101A0000441E009460B900BFFF201C68606200BFE4
:101A10000320587700BF0020187700BF0320AAE7F3
:101A20001868C068C0F380000028E8D018684161D9
:101A30001868806820F007001C68A060186880683B
:101A400010431C68A0601848006840F48000164CE1
:101A5000206015480830006840F48000124C0834BB
:101A600020601868C06800F0800060F490601C6816
:101A7000E0601868806840F480401C68A0601868C6
:101A8000806840F480601C68A06000BFFF201C6874
:101A9000606200BF0120587700BF0020187700BFA8
:101AA00000BF68E724000020003C01401CB504464C
:101AB0001F204FF6E07140F257238A11CDE9001044
:101AC00040F24A2140F2ED3001F074F91CBD0000F3
:101AD00010B504462068C068C0F3802050B120468D
:101AE000FFF7E4FF2068C06800F0800060F49060B9
:101AF0002168C8604FF480000249086001206077C7
:101B000010BD0000143C014038B504464FF4FC60A1
:101B10004FF4FA731A464FF4E17100900846FEF74D
:101B200075FC38BD10B5044620688068C0F30030ED
:101B300078B12068C068C0F3002050B12046FFF79C
:101B4000E3FF2068C06800F0800060F4C070216886
:101B5000C86020688068C0F3403078B12068C068F1
:101B6000C0F3402050B12046FFF7EAFE2068C0686D
:101B700000F0800060F420702168C8604FF40030ED
:101B8000024908600120607710BD0000143C01404C
:101B900070B505460B4616460024286840680E4975
:101BA00000EA0104200CD870C4F30420587004F03B
:101BB0003F009870C4F3423018705EB9D87801F0D5
:101BC0007DFAD870587801F079FA5870987801F059
:101BD00075FA9870002070BD3FFFFF0070B5044695
:101BE0000B46164600252068806A58602068006908
:101BF000C0F30E009860206800680F4900EA0105F4
:101C0000C5F305401870C5F30620587005F07F0035
:101C1000987005F48000000CD8705EB9187801F057
:101C20004DFA1870587801F049FA5870987801F018
:101C300045FA9870002070BD7F7F7F0010B5044684
:101C4000204600F05FF800BFCA2021684862532098
:101C50002168486200BF204601F048FA40B100BF49
:101C6000FF202168486200BF04206077012010BD7A
:101C7000206880682249084021688860216960687E
:101C800008436169084321688968084321688860BE
:101C90002168E068086120680169208941EA004004
:101CA000216808612068C06820F080002168C86051
:101CB0002068806800F0200060B9204600F0A2FA99
:101CC00040B100BFFF202168486200BF0420607758
:101CD0000120CCE72068006C20F480202168086493
:101CE0002068006CA16908432168086400BFFF20D8
:101CF0002168486200BF012060770020B7E700003C
:101D0000BFFF8FFF30B599B00546C82401202D498B
:101D10000860FFF7F7F800BF002000902A4800682D
:101D200040F08050284908600846006800F0805064
:101D3000009000BF00BF01202249086022483030D7
:101D4000006840F0010020493031086004E0601E66
:101D500084B2052002F026F834B11B483030006808
:101D600000F002000028F2D0ACB908200D9001204C
:101D70001290002013900DA8FFF794FB20200190F3
:101D800000010B9001A8FFF7CBF845F256010020A7
:101D900002F068FA14E004200D9000201390012056
:101DA0000F900DA8FFF77EFB20200190C0000B9044
:101DB00001A8FFF7B5F845F25501002002F052FAEC
:101DC00019B030BD3C0E4742403802402DE9F84181
:101DD00003460C461546002600277C48006840094B
:101DE0004FF47A71B0FBF1F04843009000BF187FC8
:101DF000012802D10220BDE8F8810120187700BF38
:101E00000220587755BB1868806800F0400000B188
:101E100002E00020E07000BFE06900B900E000BF10
:101E2000207801F056F94FEA0048607801F051F946
:101E300048EA0028A07801F04CF948EA0008E07868
:101E400048EA004894F8200001F043F948EA0060AD
:101E5000E1690843616940EA01061FE0186880688B
:101E600000F0400000B102E00020E07000BFE06937
:101E700000B900E000BF20780004617840EA01204A
:101E8000A1780843E17840EA014094F8201040EA44
:101E90000160E1690843616940EA0106A16960687F
:101EA00040EA010700BFCA20196848625320196838
:101EB000486200BF606AB0F5807F36D118688068DC
:101EC00020F48070196888601868C06800F080008D
:101ED00060F4C0701968C86000BF0098411E00918E
:101EE00060B900BFFF201968486200BF032058771F
:101EF00000BF0020187700BF03207CE71868C06887
:101F000000F001000028E8D01868C661186847642E
:101F10001868806840F48070196888601868806864
:101F200040F480501968886035E01868806820F4B3
:101F30000070196888601868C06800F0800060F45C
:101F400020701968C86000BF0098411E009160B9F8
:101F500000BFFF201968486200BF0320587700BF08
:101F60000020187700BF032045E71868C068C0F359
:101F700040000028E8D0186806621868876418686E
:101F8000806840F40070196888601868806840F4C0
:101F90000050196888600E48006840F400300C4911
:101FA00008600B480830006840F4003008490831E8
:101FB000086000BFFF201968486200BF0120587701
:101FC00000BF0020187700BF00BF14E724000020E6
:101FD000003C01402DE9F04104460D46164600271D
:101FE00000BF207F012802D10220BDE8F08101203E
:101FF000207700BF022060774EB9687800F01000AB
:10200000102804D1687800F0EF000A30687086B9B3
:10201000E87801F05EF80304687801F05AF843EAC2
:102020000023A87801F055F80343287843EA4037A5
:1020300009E0E8780004697840EA0120A9780843BB
:10204000297840EA413700BFCA20216848625320FE
:102050002168486200BF204601F048F860B100BF27
:10206000FF202168486200BF0420607700BF002085
:10207000207700BF0120B8E7164838402168486043
:102080002068C06820F080002168C86020688068EF
:1020900000F0200080B9204600F0B4F860B100BF25
:1020A000FF202168486200BF0420607700BF002045
:1020B000207700BF012098E700BFFF202168486219
:1020C00000BF0120607700BF0020207700BF00BF65
:1020D0008BE700003FFFFF002DE9F04104460D466D
:1020E0001646002700BF207F012802D10220BDE84C
:1020F000F0810120207700BF02206077CEB92068F0
:10210000806800F0400000B102E00020E87000BFED
:10211000287800F0DEFF0304687800F0DAFF43EA75
:102120000023A87800F0D5FF0343E87843EA00478E
:1021300012E02068806800F0400000B102E000205A
:10214000E87000BF28780004697840EA0120A97887
:102150000843E97840EA014700BFCA202168486285
:1021600053202168486200BF204600F0BFFF60B1E5
:1021700000BFFF202168486200BF0420607700BFD5
:102180000020207700BF0120B1E71D4838402168BA
:1021900008602068806820F4802021688860D5E984
:1021A0000301084321688968084321688860206822
:1021B000C06820F080002168C8602068806800F056
:1021C000200080B9204600F01DF860B100BFFF205C
:1021D0002168486200BF0420607700BF002020779C
:1021E00000BF012083E700BFFF202168486200BFD5
:1021F0000120607700BF0020207700BF00BF76E796
:102200007F7F7F0070B5044600252068C06820F0FD
:10221000A0002168C860FEF707FC054607E0FEF74E
:1022200003FC401BB0F57A7F01D9032070BD206804
:10223000C06800F020000028F1D00020F6E770B55B
:1022400004460D4694F82C0028B9002084F82D008F
:10225000204600F011F8022084F82C00211D20688F
:10226000FEF73CF92946D4E90002FEF7A3F9012064
:1022700084F82C00002070BD10B50446FEF74EFA1D
:1022800010BD70B504460D4694F82C00022800D10C
:1022900070BD94F82C0001280AD1022084F82C008B
:1022A00029462068FEF750F9012084F82C0001E04F
:1022B0000120EDE70020EBE72DE9F04104460E4652
:1022C000174694F82C50022D02D10220BDE8F0816F
:1022D000012D01D0052D12D1022084F82C003A46A0
:1022E00031462068FEF73AF93068022803D105200C
:1022F00084F82C0005E0012084F82C0001E0012086
:10230000E4E70020E2E7042808D14FF0E021096962
:1023100041F004014FF0E022116107E04FF0E021AD
:10232000096921F004014FF0E0221161704770B596
:1023300004462546681EB0F1807F01D301200FE0DE
:10234000681E4FF0E02148610F214FF0FF3001F08F
:10235000B3FA00204FF0E0218861072008610020D7
:1023600070BD10B504460CB9012010BD94F83D00B5
:1023700028B9002084F83C00204600F025F802200F
:1023800084F83D00211D206800F0B8FF012084F88A
:10239000460000BF84F83E0001213F200155402047
:1023A00001554120015500BF00BF012084F84200C3
:1023B00043200155442001554520015500BF01200F
:1023C00084F83D000020D0E770470000014691F8F6
:1023D0003D00012801D001207047022081F83D0016
:1023E0000868C06840F001000B68D8601A4B0868A4
:1023F00098421BD00868B0F1804F17D0174B08687F
:10240000984213D0164B086898420FD0154B0868B5
:1024100098420BD0144B0868984207D0134B0868B9
:10242000984203D0124B086898420CD10868806823
:1024300000F00702062A0CD00868006840F001008E
:102440000B68186005E00868006840F001000B6840
:1024500018600020C0E700000000014000040040B8
:1024600000080040000C0040000401400040014012
:1024700000180040704770472DE9F84F0446206867
:1024800005682068C668206847694FF00009CA4699
:1024900005F00F09B9F1000F0AD105F0200038B19D
:1024A00006F0200020B1204600F0ECFFBDE8F88FD8
:1024B000B9F1000F7CD007F0010018B906F4907054
:1024C000002875D005F0010030B106F4807018B115
:1024D000606C40F00100606405F0040030B107F06A
:1024E000010018B1606C40F00200606405F0020069
:1024F00030B107F0010018B1606C40F00400606476
:1025000005F0080048B106F0200010B907F00100FE
:1025100018B1606C40F008006064606C002846D020
:1025200005F0200028B106F0200010B1204600F090
:10253000A9FF20684069C0F3801A606C00F00800B1
:1025400010B9BAF1000F2DD0204600F055FF2068D9
:10255000406900F04000402820D100BF00BF216842
:10256000143151E8001F21F040002168143141E886
:102570000002002AF3D100BFE06B50B17748E16B55
:102580000865E06BFEF7B6F888B1E06B016D88472F
:102590000DE02046FFF76FFF09E009E02046FFF756
:1025A0006AFF04E02046FFF766FF002060647DE7D5
:1025B000206B012878D105F01000002874D006F0B7
:1025C00010000028FAD000BF0020009020680068AA
:1025D000009020684068009000BF00BF20684069FC
:1025E00000F04000402860D1E06B006840681FFAAE
:1025F00080F8B8F1000F56D0A08D404553DDA4F807
:102600002E80E06BC069B0F5807F43D000BF00BF73
:1026100021680C3151E8001F21F4807021680C31D1
:1026200041E80002002AF3D100BF00BF00BF2168CB
:10263000143151E8001F21F001002168143141E8F4
:102640000002002AF3D100BF00BF00BF216814318F
:1026500051E8001F21F040002168143141E80002D8
:10266000002AF3D100BF202084F84200002020631C
:1026700000BF00BF21680C3151E8001F21F010009D
:1026800021680C3141E80002002AF3D100BFE06B61
:10269000FDF7DAFF02206063A08DE28D801A81B21F
:1026A0002046FFF7E7FE01E742E0A08DE18D401AEA
:1026B0001FFA80F8E08DD0B3B8F1000F37D000BF1B
:1026C00000BF21680C3151E8001F21F4907021688F
:1026D0000C3141E80002002AF3D100BF00BF00BF67
:1026E0002168143151E8001F21F0010021681431E4
:1026F00041E80002002AF3D100BF202084F8420004
:102700000020206300BF00BF21680C3151E8001F8A
:1027100021F0100021680C3141E80002002AF3D1B9
:1027200000BF0220606341462046FFF7A3FEBDE6DE
:1027300005F0800030B106F0800018B1204601F0AD
:1027400055F8B3E605F0400030B106F0400018B18E
:10275000204600F087FEA9E600BFA7E6E5330008A3
:1027600010B504460CB9012010BDA06900B100E00D
:1027700000BF94F8410028B9002084F840002046AA
:1027800000F02AF8242084F841002068C06820F472
:1027900000502168C860204600F0F2FE2068006901
:1027A00020F49040216808612068406920F02A00E8
:1027B000216848612068C06840F400502168C86002
:1027C00000206064202084F8410084F8420000204A
:1027D000606300BFC8E7000010B586B0044614214E
:1027E00001A8FDF7A9FD1B492068884230D100BF30
:1027F000002000901848006840F01000164908605A
:102800000846006800F01000009000BF00BF00BF45
:102810000020009010481438006840F001000E4974
:10282000143908600846006800F00100009000BFFD
:1028300000BF4FF4C060019002200290002003907E
:10284000032004900720059001A90448FDF7DEFF4E
:1028500006B010BD001001404438024000000240A4
:1028600070B504460D46164694F8420020280BD158
:1028700005B10EB9012070BD002020633246294603
:10288000204600F093FFF6E70220F4E710B5044677
:102890002049206888423CD11F48008800F400404D
:1028A00090BB1D48008800F4804070B11B48007840
:1028B0000A2803D000201849088025E0164800881F
:1028C00040F40040144908801EE0144800780D28A8
:1028D00006D11148008840F480400F49088013E079
:1028E0000E4800780C490988C1F30D010C4A505478
:1028F00009480088401C0849088008460088B0F54F
:10290000FA7F01DB00200880012204490548FFF717
:10291000A7FF10BD001001400C0000200E00002099
:10292000F4010020AC010020704700BFFEE700006A
:1029300018B5044640F2572340F2FF320021084602
:102940000094FDF763FD0148048018BD10000020CD
:10295000F0B58E880768FF68C7F30B473E44330421
:1029600006688436802707FB0266766806F470479F
:10297000066884364FF0800C0CFB026677600E68A8
:102980000768FF68C7F30B473E44761C1E43076881
:1029900084370CFB02777E608E890768FF68C7F377
:1029A0000A073E44330406688436802707FB026624
:1029B000B66806F47047066884360CFB0266B7609A
:1029C0008E680768FF68C7F30A073E44761C46EA2C
:1029D0000307066884360CFB0266B7600668843617
:1029E000802707FB0266366926F0070706688436EB
:1029F0000CFB026637610F69066884360CFB0266C1
:102A000037613126765C33023226765C34040E7EE2
:102A1000350606688436802707FB0266B6690027FC
:102A2000066884360CFB0266B76191F830601E437D
:102A3000264346EA0507066884360CFB0266B76142
:102A400006688436802707FB0266766926F0FF0752
:102A5000066884360CFB026677614F690668843627
:102A60000CFB0266776106688436802707FB0266E6
:102A7000F66940F20777BE43076884370CFB02779C
:102A8000FE61D1E907763743066884360CFB02669F
:102A9000F76106688436802707FB0266B66A00275E
:102AA000066884360CFB0266B7624F6A0668843695
:102AB0000CFB0266B7620E690EB9042313E00E69BF
:102AC000012E01D103230EE00E69042E08D00E69F9
:102AD000022E05D00E69032E02D00E69072E01D1F9
:102AE000022300E0012306688436802707FB026684
:102AF000F66A06F0E027066884364FF0800C0CFB7F
:102B00000266F762D1E90076F61B5E43F61C0F8D74
:102B10005F4346EA0747066884360CFB0266F762A5
:102B200006688436802707FB0266366BF70AFF02C9
:102B3000066884360CFB02663763CF6A0668843603
:102B40000CFB0266376306688436D701F65946F0F7
:102B50000107066884364FEAC21C46F80C70F0BDC7
:102B60002DE9F84F044615460F461A464FEAE37B17
:102B700003EB5B7B4FEAEB0B9C464FEAE37E03EBF8
:102B80005E7E4FEAEE0EA3EBCE0EBEF1000F02D03A
:102B90004FF0010E01E04FF0000EF3449A4603EBB4
:102BA000D37E4FEA6E0E0BFB0EFB0BF0FF0BCDF846
:102BB00000B0A5F12002D5B20C2B06D105EB4502E1
:102BC000DFF808C10CEB820610E0102B03D1404A5D
:102BD00002EB05160AE0182B06D105EBC502DFF85B
:102BE000F4C00CEB820601E0BDE8F88F002068E03D
:102BF00016F800804FF000095DE008F080024AB14D
:102C00004FF4806C0CFB014CDFF8CCA00A9A2AF838
:102C10001C200BE00B9A4AB9304A12884FF4806CA2
:102C20000CFB014CDFF8B0A02AF81C204FEA4862E8
:102C30004FEA12684A1C91B2B1F5167F2CDB394677
:102C4000621C94B2182B12D1032290FBF2FC02FBFF
:102C50001C0212B9821CD0B219E0032290FBF2FCD4
:102C600002FB1C02012A12D1421CD0B20FE0102B31
:102C700001D00C2B0BD1024600EBD27C4FEA6C0C3E
:102C8000A0EB4C0CBCF1000F01D1421CD0B2B4F54A
:102C9000806F00DBA8E711E0CA1B9A4207D13946D2
:102CA000621C94B2B4F5806F00DB9DE706E009F189
:102CB000010202F0FF09B9F1080F9EDB00BF421CC0
:102CC000D0B2009A904293DB00BF8DE71C570008FA
:102CD000905B000880610008000000C01000002028
:102CE0002DE9FE4F04460D46904699460CAE96E8F7
:102CF000C00CE0B2029008EB04001FFA80F809EB68
:102D000005001FFA80F916E0444502DB029CA81971
:102D100085B24D4500DB14E0CDE900AB3A7833468F
:102D200029462046FFF71CFF304606EBD07104EB26
:102D300061018CB27F1C38787E2802DC387820282C
:102D4000E2DA00BFBDE8FE8F10B58EB00446342134
:102D500001A8FDF7F1FA002001904FF48060029085
:102D6000002003904FF41670049002200590FF207D
:102D700006904FF480600890052009900C480A9056
:102D80004FF480600B904FF416700C900020079069
:102D90008DF83400FF218DF8351000218DF83610A4
:102DA000002201A92046FDF795FE0EB010BD0000DF
:102DB000000000C02DE9F84304460D4616461F46A4
:102DC000DDE908890E4801780078401C0C4A107033
:102DD00041B93B46324629462046CDF80080FDF7F2
:102DE00015FB0AE03B46324629462046CDF80090C6
:102DF000FDF70CFB002002490870BDE8F8830000D5
:102E00001200002000B587B01C216846FDF794FA37
:102E1000144815490860002048600121124881606B
:102E20000821C16010210161402141618900816157
:102E30000021C1614FF4006101624900416200213B
:102E400081620220009008200190062002900390E9
:102E5000022004900590069069460348FFF7EFF9B9
:102E600007B000BD400100A09004002000B587B06D
:102E7000142102A8FDF760FA00BF002001904B4822
:102E8000006840F48070494908600846006800F412
:102E90008070019000BF00BF00BF00200190084675
:102EA000006840F0200008600846006800F020003C
:102EB000019000BF00BF00BF0020019008460068DD
:102EC00040F0800008600846006800F08000019033
:102ED00000BF00BF00BF002001900846006840F01E
:102EE000040008600846006800F00400019000BF7C
:102EF00000BF00BF002001900846006840F040007D
:102F000008600846006800F04000019000BF00BF64
:102F100000BF002001900846006840F010000860E3
:102F20000846006800F01000019000BF00BF00BF1D
:102F3000002001900846006840F00800086008463C
:102F4000006800F00800019000BF00BF00BF002033
:102F500001900846006840F00100086008460068DB
:102F600000F00100019000BF00BF00BF00200190F1
:102F70000846006840F0020008600846006800F05B
:102F80000200019000BF00BF002220210848FDF789
:102F900045FD202002900120039000200490059020
:102FA00002A90348FDF732FC07B000BD30380240EB
:102FB0000004024038B50446224823490860002036
:102FC0004860002120488160C16001611321416196
:102FD000022181619F21C1611621016240F29F415E
:102FE000416240F26E21816240F23F51C16240F283
:102FF0007A210163002180F83410FF2180F8351018
:1030000080F83610FDF796FD1048006840F020006B
:103010000E4908600C48FFF797FE00BF00200090A3
:103020000B48006840F40000094908600846006841
:1030300000F40000009000BF00BF2046FFF778FCBE
:1030400038BD000000680140E8030020140402407D
:103050003038024010B51048104908604FF4E13094
:10306000486000210D488160C16001610C2141610F
:1030700000218161C161FFF773FB0022022125203D
:10308000FDF7A8FE2520FDF795FE0122044903481F
:10309000FFF7E6FB10BD000000100140AC0100206E
:1030A0000E00002000BFFEE700BFFEE710B502489B
:1030B000FEF738FD10BD0000C4040020014600BF2B
:1030C000080900EB8000420001F00F001044C0B27C
:1030D00070470146002203E0521CA1F10A00C1B270
:1030E0000A29F9D2100741EA1060704770B504460A
:1030F00000252068C06800F04000A0B9681E216863
:10310000C860FDF791FC054607E0FDF78DFC401B0C
:10311000B0F57A7F01D9032070BD2068C06800F047
:1031200040000028F1D00020F6E7000010B502486A
:10313000FEF7CEFC10BD0000C404002070B50546AB
:103140000E460024002301221146184600F01EF806
:103150004FF4FA7000F032FE0023012202211846DB
:1031600000F014F8002308220321184600F00EF89E
:103170004FF40874234601220421002000F006F8D1
:1031800031462846FFF77DF870BD00002DE9FF416C
:1031900004460D4616461F464FF0000814B94FF07E
:1031A000100803E0012C01D14FF008080095CDF87C
:1031B0000480029603974FF4805269460448FFF753
:1031C0007BF818B9002004B0BDE8F0810120FAE7CF
:1031D0009004002010B5FDF72DFC02F0A5F90128A0
:1031E00001D002F087F910BD00B593B0302107A8D7
:1031F000FDF7A2F8142102A8FDF79EF800BF0020F9
:1032000001902648006840F0805024490860084634
:10321000006800F08050019000BF00BF00BF002098
:1032200001901F48006840F440401D49086008466E
:10323000006800F44040019000BF00BF01200790EB
:103240000004089002200D9041050E910F210F916E
:10325000D8211091022111910421129107A8FEF7A3
:1032600021F908B1FDF737F9FDF706FE08B1FDF7C2
:1032700032F90F20029002200390002004904FF4B6
:10328000A05005904FF480500690052102A8FDF74C
:10329000C9FF08B1FDF71FF913B000BD4038024067
:1032A000007000400348006840F470000149086065
:1032B0007047000088ED00E010B50E480068C06857
:1032C00000F0010078B10C490869804700200949E5
:1032D0000968486200BF642006490968C862642121
:1032E0000448C16000BF6FF001000249096808612D
:1032F00010BD0000C8070020B400002010B502680F
:103300002D4B98420ED0B0F1804F0BD02B4B9842F2
:1033100008D02B4B984205D02A4B984202D02A4B1A
:10332000984203D122F070024B681A43224B984214
:1033300020D0B0F1804F1DD0204B98421AD0204BA6
:10334000984217D01F4B984214D01F4B984211D06F
:103350001E4B98420ED01E4B98420BD01D4B9842EC
:1033600008D01D4B984205D01C4B984202D01C4BF4
:10337000984203D122F44072CB681A4322F08003B2
:103380004C6943EA040202608B68C3620B68836283
:10339000094B984202D00C4B984201D10B69036350
:1033A00001234361036903F001031BB1036923F0A7
:1033B0000103036110BD0000000001400004004053
:1033C00000080040000C00400004014000400140A3
:1033D000004401400048014000180040001C00402B
:1033E0000020004070B50546AC6B0020E085E0840D
:1033F0002046FFF740F870BD00BF00BF02680C32E6
:1034000052E8002F22F4907102680C3242E8001357
:10341000002BF3D100BF00BF00BF0268143252E896
:10342000002F22F001010268143242E80013002B41
:10343000F3D100BF016B01290ED100BF00BF0268AC
:103440000C3252E8002F22F0100102680C3242E8E0
:103450000013002BF3D100BF202180F8421000217F
:103460000163704710B504462068C06820F0400032
:103470002168C860202084F841002046FFF754FAF4
:10348000002010BDF8B5044694F84200222875D1FA
:10349000A068B0F5805F0CD1206950B90025A66AFC
:1034A00020684068C0F308003080A06A801CA062D9
:1034B00015E0A56A0026A068B0F5805F03D0A0687B
:1034C00028B9206918B920684068287004E020688D
:1034D000406800F07F002870A06A401CA062E08D68
:1034E000401E80B2E085002846D12068C06820F0E8
:1034F00020002168C8602068C06820F480702168BE
:10350000C8602068406920F00100216848612020DF
:1035100084F8420000206063206B012826D100203F
:10352000206300BF00BF21680C3151E8001F21F06B
:10353000100021680C3141E80002002AF3D100BFDD
:103540002068006800F0100010280AD100BF002099
:10355000009020680068009020684068009000BFDC
:1035600000BFA18D2046FEF785FF02E02046FFF751
:103570008DF90020F8BD01E00020FBE70220F9E70B
:103580002DE9F84F04462068006920F44050E168B6
:103590000843216808612169A068084361690843FC
:1035A000E169084300902068C06849F20C618843D3
:1035B000009908432168C8602068406920F4407081
:1035C000A16908432168486176492068884203D090
:1035D00075492068884203D1FDF7FCFE814602E070
:1035E000FDF7E8FE8146E069B0F5004F6CD102209E
:1035F0006168A0FB015003461920A9FB0070014639
:103600002A463846FCF74EFE6421B0FBF1F04FEA43
:10361000001A02206168A0FB01510B461920A9FB8A
:1036200000712A463846FCF73DFE83460220616859
:10363000A0FB015003461920A9FB00712A46384619
:10364000FCF730FE6421B0FBF1F000EBC00101EBB0
:103650000010ABEB8000322101EBC0006421B0FB15
:10366000F1F000F0F8000AEB400A02206168A0FBCC
:10367000015003461920A9FB007001462A4638462E
:10368000FCF710FE834602206168A0FB0150034650
:103690001920A9FB00712A463846FCF703FE642175
:1036A000B0FBF1F000EBC00101EB0010ABEB8000D0
:1036B000322101EBC0006421B0FBF1F000F0070003
:1036C0005044216888606AE004206168A0FB0150D2
:1036D00003461920A9FB007001462A463846FCF72C
:1036E000E1FD824604206168A0FB015003461920D9
:1036F000A9FB007001462A463846FCF7D3FD642139
:10370000B0FBF1F000EBC00101EB0010AAEB800070
:10371000322101EB00106421B0FBF1F000F0F00A5F
:1037200004206168A0FB017003461920A9FB005129
:103730003A462846FCF7B6FD6421B0FBF1F00AEBEF
:10374000001A04206168A0FB01510B461920A9FB57
:1037500000712A463846FCF7A5FD834604206168BF
:10376000A0FB015003461920A9FB007001462A4620
:103770003846FCF797FD6421B0FBF1F000EBC00187
:1037800001EB0010ABEB8000322101EB0010642153
:10379000B0FBF1F000F00F00504421688860BDE8F4
:1037A000F88F0000001001400014014010B50346DE
:1037B00099629A85DA8500205864222083F84200B5
:1037C000186928B11868C06840F480701C68E0600F
:1037D0001868406940F001001C6860611868C068A2
:1037E00040F020001C68E060002010BD014691F808
:1037F0004100212828D18868B0F5805F0BD1086985
:1038000048B90A6A1088C0F308000B685860086A53
:10381000801C086205E00B6A581C086218780B6867
:103820005860C88C401E80B2C88458B90868C06807
:1038300020F080000B68D8600868C06840F0400045
:103840000B68D860002070470220FCE710B50248E2
:10385000FEF712FE10BD0000AC01002000BFFEE725
:103860000FB4054B10B503A9044A029800F048F8BC
:1038700010BC5DF814FB0000053E0008A801002004
:103880000FB4084B10B504A902AA039800F038F849
:10389000044602A9002000F064FA204610BC5DF83E
:1038A00014FB0000633D000802480068C0F30220DA
:1038B000704700000CED00E010B5002804DB0A079B
:1038C000130E054A135406E00A07140E034A00F0CB
:1038D0000F031B1FD45410BD00E400E018ED00E0FE
:1038E00002E008C8121F08C1002AFAD170477047C9
:1038F000002001E001C1121F002AFBD17047000027
:103900002DE9FF4F8DB00F460546002606E025281D
:103910000BD0DDE90F1290476D1C761C287800282B
:10392000F5D111B03046BDE8F08F0024A246A14683
:103930000122EC4900E0044315F8013F203B02FA64
:1039400003F00842F7D128782A2810D06FF02F0210
:103950002878A0F13001092914D80AEB8A0102EB7A
:10396000410144F0020400EB010A6D1CF0E701CFB5
:103970005FEA000A03D544F40054CAF1000A44F097
:1039800002046D1C28782E2817D115F8010F44F079
:1039900004042A280ED06FF02F022878A0F13001FD
:1039A00009290AD809EB890102EB410100EB010961
:1039B0006D1CF2E757F8049B6D1C28786C280FD01B
:1039C00006DC4C2817D068280DD06A2814D104E0F2
:1039D000742810D07A280FD10DE044F400140AE0C6
:1039E00044F4801401E044F440146978814202D127
:1039F00004F580146D1C6D1C2A786E2A1FD00CDC17
:103A0000632A31D004DC002A8BD0582A11D1A3E0DC
:103A1000642A68D0692A0CD165E0732A2ED004DCB0
:103A20006F2A73D0702A04D19BE0752A6FD0782A50
:103A30006ED01046DDE90F129047761C50E1C4F3BA
:103A40000250022806D0032809D0042801CF09D04B
:103A5000066045E101CFF117C0E9006140E101CF07
:103A600006803DE106703BE117F8040B8DF800007D
:103A700000208DF80100EB46012003E057F804BB5D
:103A80004FF0FF3061074FF0000102D40DE008F164
:103A90000101884649450FDA8045F8DB1BF808101C
:103AA0000029F4D108E008F1010188468142FADBDF
:103AB0001BF808100029F6D1DDE90F23AAEB080056
:103AC0008146214600F036F9304400EB080604E058
:103AD000DDE90F121BF8010B9047B8F10108F7D28E
:103AE00021464846F7E00A21C4F302534FF0000B89
:103AF0000891022B04D001CFC117032B09D00AE093
:103B0000FF1D27F00707F7E8020108E032E01FE099
:103B100020E000B2C117042B01D140B2C117031E2F
:103B200071F1000307DA4FF0000CD0EB0C006CEBE6
:103B300001012D2302E0230504D52B238DF8243029
:103B4000012303E0E30701D02023F7E7984658E07C
:103B50000A2110E010210EE010204FF0000B089019
:103B60000CE010214FF0000B44F004044FF0080962
:103B7000089103E008214FF0000B0891C4F30253B1
:103B8000022B04D001CF0021032B06D006E0FF1D3D
:103B900027F00707F7E8020103E080B2042B00D109
:103BA000C0B24FF0000823072BD5702A07D0DDF8EC
:103BB00020C08CF0100C5CEA0B0C05D00EE040230A
:103BC0008DF82430012308E050EA010306D03023A9
:103BD0008DF824308DF8252002239846DDF820C08A
:103BE0008CF0080C5CEA0B0C0BD150EA010301D1FC
:103BF000630706D530238DF824304FF00108A9F172
:103C00000109582A04D038A20B9208AA0A920BE0A4
:103C10003AA2F9E75B46089AFCF744FB0B9B9B5CD6
:103C20000A9A521E0A92137050EA0102F2D10A98BF
:103C3000ADEB000000F1200B600702D524F48034C6
:103C400001E04FF00109D94502DDA9EB0B0000E0CE
:103C5000002000EB0B0141440890AAEB010AE003AD
:103C600006D4DDE90F232146504600F063F80644F0
:103C70004FF0000908E009A911F80900DDE90F1269
:103C8000904709F10109761CC145F4DBE0030CD52E
:103C9000DDE90F232146504600F04CF8064404E0CD
:103CA000DDE90F1230209047761C0899481E0890D5
:103CB0000029F5DC08E00A980A990078491C0A9165
:103CC000DDE90F129047761CBBF10001ABF1010B4F
:103CD000F1DC21465046DDE90F2300F019F80644D7
:103CE0006D1C1BE60928010030313233343536377C
:103CF0003839616263646566000000003031323338
:103D000034353637383941424344454600000000D7
:103D10002DE9F041044600251E461746880404D4C8
:103D200005E039462020B0476D1C641EF9D52846B1
:103D3000BDE8F0812DE9F041044600251E4690467D
:103D4000C80301D5302700E02027880404D505E00A
:103D500041463846B0476D1C641EF9D52846BDE87B
:103D6000F0810A68531C0B601070704770B50446F0
:103D70000420FEF7C8FA0A48046025464FF47A701A
:103D800045434FF0E020006940F002004FF0E02191
:103D9000086108464561006940F00100086170BD96
:103DA0000800002030B50446002504E04FF47A7086
:103DB00000F004F86D1CA542F8D330BD70B5034681
:103DC00000224FF0E02675690D4E366803FB06F4BD
:103DD0004FF0E026B16910E04FF0E026B06988426C
:103DE0000BD0884202D20E1A324402E02E1A0E4440
:103DF00032440146A24200D300E0EDE700BF70BDAF
:103E000008000020044A506000BF034A1268C2F351
:103E1000C012002AF9D07047001001408CB0FCF7A6
:103E200015FEFFF7E1F9FFF715F9FFF71FF8B420CA
:103E3000FFF79CFF574841685A208847FEF7E2FF8A
:103E400040F2A5215448FFF779F90020FFF7B2F8B6
:103E5000202104A8FCF770FA00F032F9044622464B
:103E60004EA104A8FFF70CFD00204FF4784104AAEE
:103E70001823CDE90032CDE902104FF480620146EB
:103E8000FEF72EFF002000F067F9044622464CA101
:103E900004A8FFF7F5FC00204FF4784104AA18238A
:103EA000CDE90032CDE902104FF48062014640F2C4
:103EB0008A20FEF715FF4BF2C801052000F0D2F969
:103EC000052000F049F90446224641A104A8FFF765
:103ED000D7FC00204FF4784104AA1823CDE9003222
:103EE000CDE902104FF4806201464FF4C670FEF730
:103EF000F7FE0021042000F097F900230722032198
:103F0000104600F035F943E04FF4FA70FFF74AFF2E
:103F1000334B344A3449354800F0B6F8344B354A0F
:103F20003549364800F096F82E48007800902E4823
:103F300003782E48027832A104A8FFF7A1FC0020E4
:103F40004FF4784104AA1823CDE90032CDE90210DC
:103F50004FF480621946FEF7C3FE264800780090B1
:103F6000254803782548027802F5FA6228A104A8BA
:103F7000FFF786FC00204FF4FC6104AA1823CDE96A
:103F80000032CDE902104FF480623021FEF7A8FE26
:103F9000BAE70000B4000020900400207274635F50
:103FA000737461746528312C6661696C65643B309B
:103FB0002C73756363656564293A25643B000000D2
:103FC000626B703020646174613A2523783B000095
:103FD000626B703520646174613A25643B000000B7
:103FE000030000200200002001000020000000204B
:103FF000070000200600002005000020040000202B
:104000002532643A2532643A2532642000000000EB
:1040100025642D25642D25642020000009480068B2
:10402000006808B9012000E0002020B14FF0FF3007
:104030000549086005E003480068C0680068024957
:10404000086070472C0000205800002001460868D6
:1040500070470000F8B507460C4615461E4600227C
:1040600069460848FDF794FD9DF8030038709DF8F7
:10407000010020709DF8020028709DF8000030704B
:10408000F8BD0000C4040020F0B585B007460C461A
:1040900015461E46002269460848FDF79FFD9DF81B
:1040A000000038709DF8010020709DF80200287013
:1040B0009DF80300307005B0F0BD0000C40400207E
:1040C00038B50024012020490860FCF71BFF00BF21
:1040D000002000901D48006840F080501B49086097
:1040E0000846006800F08050009000BF00BF1848EC
:1040F00018490860002048607F2116488160FF2130
:10410000C1600021016141618161002000F024F85B
:1041100084B21048FDF792FD08B1012038BD45F288
:10412000550084420ED0401C84420BD00023322222
:104130002D21022000F05EF8072311220B21182008
:1041400000F042F80020E9E73C0E474240380240C8
:1041500000280040C404002070B504460025214614
:104160000248FDF7EEFB0546284670BDC40400205A
:10417000F0B58BB004460D4616461F468DF8045028
:104180008DF805608DF80670002002908DF807000C
:1041900006904FF0706007904FF0804008908DF8C7
:1041A000244080150A90002201A90648FDF70EFE62
:1041B000002201212920FCF70DFE2920FCF7FAFD41
:1041C0000BB0F0BDC4040020F8B504460D461746F8
:1041D0001E468DF802708DF801508DF800608DF844
:1041E0000340002269460248FDF7F4FEF8BD0000D6
:1041F000C4040020F0B585B004460D4616461F469F
:104200008DF800408DF801508DF802608DF8037034
:10421000002003900490002269460248FDF75CFFED
:1042200005B0F0BDC404002070B504460D460C482E
:104230000068C06800F0800060F490600849096878
:10424000C860224629460648FDF78EFB002202215F
:104250000320FCF7BFFD0320FCF7ACFD70BD0000A0
:10426000C404002070B504460D46FCF74BFE2A46F8
:1042700021460248FDF76EFB70BD0000C40400201B
:1042800030B595B0054613AB12AA09A9284600F02F
:104290003FFA044614B1204615B030BD00201490FA
:1042A00026E0224909689DF8502001EBC20113ABBA
:1042B00011AA486801A900F02BFA04460CB1204667
:1042C000EAE709A901A800F0AFFC60B99DF8440035
:1042D0009DF84810884201DD0220DDE79DF850007E
:1042E000124988750AE09DF85000401CC0B2149035
:1042F0000E48007D9DF850108842D2DC00BF0B486C
:10430000007D9DF85010884201D10420C4E714A913
:10431000284600F0DDFA04460CB12046BCE79DF8C3
:104320005000024948750020B6E70000B4000020A4
:104330002DE9F0419AB09C48847D007DA04202DCCA
:104340001AB0BDE8F0819849096801EBC40106ABD9
:1043500007AA486808A900F0DBF908A993A0FFF7AD
:104360007FFA002644E09048008B0121B1400840CC
:10437000D8B122218FA0FFF773FA304600F042FB3C
:1043800089492431471839468BA0FFF769FA222161
:1043900088A0FFF765FA304600F034FB82492431EB
:1043A000084410A941F8260018E0304600F02AFB26
:1043B0007D492431085810A941F826007A48C07D6B
:1043C00030B910A850F826107CA0FFF749FA05E094
:1043D00010A850F826107AA0FFF742FA9DF81C00AA
:1043E000401EB04202D078A0FFF73AFA701CC6B265
:1043F0009DF81C008642B6DB74A0FFF731FA01F08D
:1044000009F86948407D0B280DD2DFE800F0060D61
:10441000151E27323F4E5F7287006349096851F8C5
:1044200034008047054690E05F4A126852F8341025
:1044300010988847054688E05B4B1B6853F834208A
:10444000DDE91001904705467FE0574F3F6857F878
:10445000343010A807C89847054676E0DFF848C111
:10446000DCF800C05CF8347010A80FC8B8470546E7
:104470006BE01498DFF830C10090DCF800C05CF805
:10448000347010A80FC8B84705465EE0DDE9140196
:10449000DFF814C1CDE90001DCF800C05CF834702D
:1044A00010A80FC8B84705464FE0DDE9141216986A
:1044B000DFF8F4C0CDE900120290DCF800C05CF82F
:1044C000347010A80FC8B84705463EE0DDE9142354
:1044D000DDE91610DFF8D0C0CDE90023CDE90210E8
:1044E000DCF800C05CF8347010A80FC8B847054667
:1044F0002BE0DDE91523DDE91710CDE90123CDE936
:1045000003101498DFF8A0C00090DCF800C05CF83D
:10451000347010A80FC8B847054616E0DDE9162329
:10452000DDE91810CDE90223CDE90410DDE914011D
:10453000DFF874C0CDE90001DCF800C05CF834702D
:1045400010A80FC8B847054600BF00BF00F00EFF17
:104550009DF8180001280CD11348C07D20B92946C8
:104560001BA0FFF77DF907E029461BA0FFF778F9AC
:1045700002E018A0FFF774F90B4890F8EC0088B13E
:104580000948D0F8F0000A21B0FBF1F201FB120754
:104590000548D0F8F000B0FBF1F83A46414611A0CA
:1045A000FFF75EF900BFCBE6B40000200D0A2573CB
:1045B000280000002563000025730000256C6400BE
:1045C00030582558000000002C0000002900000091
:1045D0003D256C753B0D0A003D305825583B0D0AB2
:1045E0000000000046756E6374696F6E2052756E30
:1045F0002054696D653A25642E2531646D730D0A6A
:1046000000000000F0B503461546002000220026F9
:1046100000245BE01F782C2F01D104B901221F7800
:10462000292F01D01F780FB904B950E0002E3AD1DC
:104630001F78302F02DB1F78392F17DD1F782D2FC1
:1046400014D01F782B2F11D01F78612F02DB1F7819
:10465000662F0BDD1F78412F02DB1F78462F05DD0B
:104660001F78582F02D01F78782F0CD102B12EE07E
:104670001F78612F03DB1F78203F0F7001E01F7848
:104680000F70491C1FE01F78222F04D102B11EE0D9
:104690000126012417E01F78202F14D01F782C2F1B
:1046A00011D0FF2613E01F78222F00D1002402B181
:1046B0000DE044B11F785C2F02D15B1C471CF8B29F
:1046C0001F780F70491C471CF8B25B1CA2E700BFA3
:1046D00000270F702E70F0BD10B50446002010703A
:1046E0000BE020780870641C491C1078401C107086
:1046F0001078984201DB012010BD2078202802D0DC
:1047000020780028EDD10020087000BFF4E70000F9
:104710002DE9FF4F85B08046894600270020049090
:104720000390012002904FF0000B002544461DE04D
:104730002078202816D005F07F00052812DA0DB960
:1047400045F0800505F07F00042803D120782A2851
:1047500000D00EE0207805F07F010DF80100681C04
:10476000C5B202E0852D00D103E0641C207800284A
:10477000DED100BF8DB1002005F07F010DF80100F2
:1047800051A1684600F050FA18B90021089801704C
:1047900002E001210898017000254FF0000A44460C
:1047A00014E0641C0AF1010000F0FF0A20782028C0
:1047B00002D020782A2809D1204600F0A7F9064621
:1047C000282E03D02A2E01D0CDF810A0207828283A
:1047D00002D020780028E4D14446049810B104980F
:1047E000401C04444FF0000A002654E0207810B921
:1047F0004FF0010A50E02078282803D116B9781C20
:10480000C7B213E02078292808D13EB917B1781E25
:10481000C7B201E04FF0010A47B93DE020782228F5
:1048200004D10EB9012000E00020064647B92078E7
:1048300020282FD0207889F8000009F1010929E00B
:1048400020782C2804D101200290681CC5B214E005
:104850002078202811D0207828280ED04DB9BBF11F
:10486000050F06DA20780DF80B000BF1010000F0BF
:10487000FF0B0298401CC0B20290012F0AD102988F
:10488000022807D10298401CC0B202900398401C35
:10489000C0B20390641CA9E700BF0398012809D1A6
:1048A00000200DF80B0008A1684600F0BDF908B91A
:1048B00000200390079903980870002089F80000F1
:1048C000504609B0BDE8F08F766F696400000000C3
:1048D0002DE9F043B5B005460F460024002604E05C
:1048E00000213D488155701CC6B20A2EF8DB06E057
:1048F0006D1C287818B9012035B0BDE8F083287800
:104900002828F5D16D1C61E034AA69462846FFF7D6
:1049100079FE064635449DF8D00020B1012827D005
:10492000FF284CD149E09DF8000000B333A9684648
:1049300000F0F7F806460EB10220DDE7204600F051
:1049400061F825490A31339A0A50A1F12400008BFD
:104950000121A140884320491A39088304211E48B7
:104960000155601CC4B20A2C01DD0320C4E726E017
:10497000684600F075F9401C00F0FF08204600F082
:1049800041F815490A3100EB01094946684600F033
:104990005CF911481A38018B0120A040014388B20C
:1049A0000D491A3908830C4800F80480601CC4B211
:1049B0000A2C01DD03209FE701E002209CE700BFF5
:1049C0002878292801D0287800B900E09CE700BFAA
:1049D0003C70002090E70000CE0000200020074A35
:1049E000128802F400423AB1044A11780022044BC2
:1049F0005A541846014B1A80704700000C000020E2
:104A0000F401002002460020002105E0044B5B5C1D
:104A10000344D8B24B1CD9B29142F7DB7047000077
:104A2000CE00002010B5044604EBC40000EB0410D7
:104A30000122C2EB800081B24FF47A7000F0B8FC22
:104A400001200149C87510BDB400002010B5024610
:104A5000012000E050430B1EA1F10104E1B2F9D1A5
:104A600010BD000070B50026FFF7B8FF064606B976
:104A700070BD174881683046884704461CB9144900
:104A8000C868804721E0304600F0F6F80546012D61
:104A900000D02C46CCB1012C06D0022C08D0032C1F
:104AA0000AD0042C10D10BE00AA0FEF7D9FE0BE0CF
:104AB0000BA0FEF7D5FE07E00CA0FEF7D1FE03E049
:104AC0000DA0FEF7CDFE00BF00BF00BFD0E7000085
:104AD000B4000020BAAFCAFDB4EDCEF3210D0A0038
:104AE000B2CECAFDB4EDCEF3210D0A00B2CECAFD9E
:104AF000CCABB6E0210D0A00CEB4D5D2B5BDC6A56B
:104B0000C5E4B5C4BAAFCAFD210D0A000146491C6F
:104B100000E0491C0878202801D10029F9D1087843
:104B200070472DE9F04F05460F4600264FF00A0961
:104B3000B3462C460020386034E02078392802DC67
:104B40002078302811DA28782D2802D028782B28D0
:104B500000D156B12078462802DC2078412804DABA
:104B60002078582817D1012E15D12078412801DB53
:104B70004FF0100928782D2803D14FF0020B6D1C3F
:104B80000FE028782B2803D14FF0010B6D1C08E0B3
:104B9000701CC6B205E0207800B904E00120BDE831
:104BA000F08F641CC9E700BF2C46B9F1100F0FD17C
:104BB000032E01DA0220F2E72078302806D160784F
:104BC000582803D1A41CB01EC6B204E00320E6E7B7
:104BD0000EB90420E3E71BE00EB1701EC6B22078C8
:104BE000392806DC2078302803DB2078A0F1300A51
:104BF00002E02078A0F1370A31464846FFF726FF49
:104C000039680AFB00103860641C207800B900E0A5
:104C1000E2E700BFBBF1020F04D13868C0F1000821
:104C2000C7F800800020BAE702460AE010780B7847
:104C3000984201D001207047107800B902E0521C60
:104C4000491CF3E700BF0020F5E706E002780A7090
:104C5000027802B902E0401C491CF7E700BF704728
:104C60000146002005E00A7802B903E0421CD0B2F8
:104C7000491CF8E700BF704710B58CB004461E23EE
:104C80000BAA03A92046FFF727FD0090009810B15A
:104C900001200CB010BD9DF82C00044400200B90A6
:104CA0000EE040489DF82C2050F8221003A8FFF792
:104CB000BBFF00B908E09DF82C00401CC0B20B906F
:104CC0009DF82C000728ECD300BF9DF82C00072886
:104CD00063D2DFE800F004053C5E6564630000BF5A
:104CE00031A0FEF7BDFD31A0FEF7BAFD3FA0FEF7F3
:104CF000B7FD4EA0FEF7B4FD5CA0FEF7B1FD6BA0C2
:104D0000FEF7AEFD79A0FEF7ABFD87A0FEF7A8FD8C
:104D10008CA0FEF7A5FD94A0FEF7A2FD98A0FEF7DB
:104D20009FFD9DA0FEF79CFDA2A0FEF799FDA8A007
:104D3000FEF796FDB4A0FEF793FDC1A0FEF790FD2F
:104D4000CCA0FEF78DFDD8A0FEF78AFDA2E216A04A
:104D5000FEF786FDE4A0FEF783FD00200B900EE039
:104D6000F14800689DF82C2000EBC2004168EFA0DC
:104D7000FEF776FD9DF82C00401CC0B20B90EA486F
:104D8000007D9DF82C108842EADC07A0FEF768FD44
:104D900080E205A0FEF764FDCCE179E24DE221E27C
:104DA000F4E10000680000200D0A00002D2D2D2DDB
:104DB0002D2D2D2D2D2D2D2D2D2D2D2D2D2D2D2D23
:104DC0002D2D2D2D55534D4152542056332E352D1A
:104DD0002D2D2D2D2D2D2D2D2D2D2D2D2D2D2D2D03
:104DE0002D2D2D2D2D2D2D200D0A000020202020D1
:104DF00055534D415254CAC7D3C9414C49454E54ED
:104E0000454BBFAAB7A2B5C4D2BBB8F6C1E9C7C962
:104E1000B5C4B4AEBFDAB5F7CAD4BBA5BDBBD7E93C
:104E2000BCFE2CCDA8B9FD200D0A0000CBFC2CC483
:104E3000E3BFC9D2D4CDA8B9FDB4AEBFDAD6FACAA1
:104E4000D6B5F7D3C3B3CCD0F2C0EFC3E6B5C4C870
:104E5000CEBACEBAAFCAFD2CB2A2D6B4D0D02ED222
:104E6000F2B4CB2CC4E3BFC90D0A0000D2D4CBE608
:104E7000D2E2B8FCB8C4BAAFCAFDB5C4CAE4C8EB44
:104E8000B2CECAFD28D6A7B3D6CAFDD7D6283130B0
:104E90002F3136BDF8D6C62CD6A7B3D6B8BACAFDC0
:104EA00029A1A2D7D6B7FBB4AE0D0A00A1A2BAAF12
:104EB000CAFDC8EBBFDAB5D8D6B7B5C8D7F7CEAA02
:104EC000B2CECAFD292CB5A5B8F6BAAFCAFDD7EE49
:104ED000B6E0D6A7B3D63130B8F6CAE4C8EBB2CE46
:104EE000CAFD2CB2A2D6A7B3D60D0A00BAAFCAFD2E
:104EF000B7B5BBD8D6B5CFD4CABE2ED6A7B3D6B217
:104F0000CECAFDCFD4CABEBDF8D6C6C9E8D6C3B98D
:104F1000A6C4DC2CD6A7B3D6BDF8D6C6D7AABBBBD1
:104F2000B9A6C4DC2E0D0A00BCBCCAF5D6A7B3D600
:104F30003A7777772E6F70656E6564762E636F6D46
:104F40000D0A000055534D415254D3D037B8F6CF17
:104F5000B5CDB3C3FCC1EE28B1D8D0EBD0A1D0B44D
:104F6000293A0D0A000000003F3A2020202020208E
:104F7000BBF1C8A1B0EFD6FAD0C5CFA20D0A000090
:104F800068656C703A202020BBF1C8A1B0EFD6FA5A
:104F9000D0C5CFA20D0A00006C6973743A2020209E
:104FA000BFC9D3C3B5C4BAAFCAFDC1D0B1ED0D0AF4
:104FB0000A00000069643A2020202020BFC9D3C322
:104FC000BAAFCAFDB5C44944C1D0B1ED0D0A0A005B
:104FD0006865783A20202020B2CECAFD3136BDF86F
:104FE000D6C6CFD4CABE2CBAF3B8FABFD5B8F12B07
:104FF000CAFDD7D6BCB4D6B4D0D0BDF8D6C6D7AAD1
:10500000BBBB0D0A0A0000006465633A2020202023
:10501000B2CECAFD3130BDF8D6C6CFD4CABE2CBA86
:10502000F3B8FABFD5B8F12BCAFDD7D6BCB4D6B405
:10503000D0D0BDF8D6C6D7AABBBB0D0A0A00000067
:1050400072756E74696D653A312CBFAAC6F4BAAF39
:10505000CAFDD4CBD0D0BCC6CAB13B302CB9D8B174
:10506000D5BAAFCAFDD4CBD0D0BCC6CAB13B0D0AAD
:105070000A000000C7EBB0B4D5D5B3CCD0F2B1E094
:10508000D0B4B8F1CABDCAE4C8EBBAAFCAFDC3FB1D
:10509000BCB0B2CECAFDB2A2D2D4BBD8B3B5BCFCB0
:1050A000BDE1CAF82E0D0A002D2D2D2D2D2D2D2DF3
:1050B0002D2D2D2D2D2D2D2D2D2D2D2D2D2D2D2D20
:1050C0002D2DD5FDB5E3D4ADD7D32D2D2D2D2D2DE3
:1050D0002D2D2D2D2D2D2D2D2D2D2D2D2D2D2D2D00
:1050E0002D2D2D200D0A00002D2D2D2D2D2D2D2D9A
:1050F0002D2D2D2D2D2D2D2D2D2D2D2D2D2D2D2DE0
:105100002DBAAFCAFDC7E5B5A52D2D2D2D2D2D2D01
:105110002D2D2D2D2D2D2D2D2D2D2D2D2D2D2D2DBF
:105120002D2D2D2D200D0A00B400002025730D0A11
:105130000000000059A0FEF793FB00200B901AE03E
:10514000664909689DF82C2001EBC20101AB02AA57
:10515000486803A9FFF7DCFA604800689DF82C1046
:1051600050F8312003A95EA0FEF77AFB9DF82C00D1
:10517000401CC0B20B905948007D9DF82C1088420D
:10518000DEDCAFF2DC30FEF76BFB83E0AFF2E83041
:10519000FEF766FB0BAA03A92046FFF733FA9DF83A
:1051A0002C00C8B9694603A8FFF7BBFC0B909DF81B
:1051B0002C0020B94FA00099FEF752FB0EE09DF89D
:1051C0002C00042801D0022063E54DA0FEF748FB27
:1051D00001204249C87501E002205AE547A0FEF7C8
:1051E0003FFB57E045A0FEF73BFB0BAA03A9204677
:1051F000FFF708FA9DF82C00C8B9694603A8FFF725
:1052000090FC0B909DF82C0020B942A00099FEF76D
:1052100027FB0EE09DF82C00042801D0022038E581
:105220003FA0FEF71DFB00202C49C87501E00220BD
:105230002FE532A0FEF714FB2CE030A0FEF710FBA8
:105240000BAA03A92046FFF7DDF99DF82C00C8B989
:10525000694603A8FFF765FC0B909DF82C0078B910
:105260001E49009881F8EC00084690F8EC0018B14F
:1052700030A0FEF7F5FA07E035A0FEF7F1FA03E0FB
:10528000022006E5022004E51CA0FEF7E9FA01E091
:105290000120FEE400BF0020FBE400002D2D2D2D99
:1052A0002D2D2D2D2D2D2D2D2D2D2D2D2D2D2D2D2E
:1052B0002D2D2D2D2DBAAFCAFD204944202D2D2D89
:1052C0002D2D2D2D2D2D2D2D2D2D2D2D2D2D2D2D0E
:1052D0002D2D2D2D2D2D2D2D200D0A00B40000205B
:1052E00025732069642069733A0D0A3058253038D7
:1052F000580D0A004845583A305825580D0A000004
:105300003136BDF8D6C6B2CECAFDCFD4CABE210D45
:105310000A0000004445433A256C750D0A00000060
:105320003130BDF8D6C6B2CECAFDCFD4CABE210D2B
:105330000A00000052756E2054696D652043616C4F
:1053400063756C6174696F6E204F4E0D0A0000002A
:1053500052756E2054696D652043616C63756C6194
:1053600074696F6E204F46460D0A00000E480068B3
:10537000006900F0010040B10C48D0F8F0004FF691
:10538000FF7108440949C1F8F0000848D0F8F0005E
:1053900005490968496A08440449C1F8F00008460B
:1053A000D0F8F00070470000C8070020B4000020CB
:1053B00038B505460C4600BF00BF002000901248DB
:1053C000006840F00400104908600846006800F0DA
:1053D0000400009000BF00BF00BF0C480C490860EB
:1053E0000846446000218160C5600161FCF7B9FF97
:1053F0000748FCF7EBFF002203211E20FBF7EAFC25
:105400001E20FBF7D7FC38BD4038024000080040A2
:10541000C80700206FF0010009490968086100BF52
:10542000000C07490968C86201460548C16000BF11
:1054300000200349096848620249C1F8F00070473A
:10544000C8070020B400002010B51B48006818B140
:1054500001201A4908602DE000201849086018480A
:105460000068B0FA80F0C0F11F0404EB8400154915
:1054700051F8200008B1012000E0002028B940F6D2
:10548000014211A115A0FEF7EBF904EB84010D4ACE
:1054900002EB810041684968416000F108014268FF
:1054A0008A4202D14168496841604168C9680F4A2F
:1054B000116000BF10BD0000640000204C000020FF
:1054C00040000020E40400202E2E5C4672656552E8
:1054D000544F535C7461736B732E63004572726F2B
:1054E000723A2025732C2025640D0A002800002024
:1054F0000160704710B500BF502080F31188BFF3E2
:105500004F8FBFF36F8F00BF00F01EF818B14FF040
:1055100080500449086000BF002080F3118800BF5C
:1055200010BD000004ED00E00549096809B901203B
:1055300005E00449096809B9022000E0002070472D
:1055400044000020640000202DE9F0414FF00008E5
:105550005E48006800287DD15D480068451C5C48B5
:105560000560EDB95B480068006808B9012000E0FB
:10557000002028B940F6C62257A15CA0FEF770F9BA
:10558000544807685D480068524908605B480760F6
:105590005B480068401C5A490860FEF73FFD00BFA9
:1055A00058480068854277D300BF4A4800680068C1
:1055B00008B9012000E0002020B14FF0FF30514930
:1055C000086068E043480068C068C4686668B5421F
:1055D00002D24C4806605EE06069D4E902128A603B
:1055E000D4E902214A60211D42688A4201D1E16862
:1055F0004160002262610168491E0160A06A98B1A1
:10560000A06AD4E907128A60D4E907214A6004F14C
:10561000180142688A4201D1216A41600022A262D7
:105620000168491E016000BF94F82C1001208840D9
:1056300035490968084334490860E16A01EB810192
:10564000324A02EB81014868A0608268E260211D55
:10565000826800E032E051608160E16A01EB810123
:105660002A4A02EB81026261E16A01EB8101274A69
:1056700052F82110491CE26A02EB8202234B43F8E4
:1056800022102349E06A0968C96A88428DD34FF025
:1056900001088AE700E000BF1D480068C06A00EB0F
:1056A00080001A4951F82000012801D94FF0010863
:1056B0001848006808B14FF0010804E01648006877
:1056C000401C154908604046BDE8F0816400002098
:1056D0003C0000202C0000202E2E5C467265655296
:1056E000544F535C7461736B732E63004572726F19
:1056F000723A2025732C2025640D0A00300000200A
:10570000500000205800002040000020E404002049
:10571000280000204C00002048000020000000006D
:105720000000000000000000000000003F400000FA
:105730000000000000003000400030004000000089
:1057400009000BC03D000BC03D00090018C02440FB
:105750007FE0224031800000180024C01B000D8033
:105760003240018003801C4027401C8007400040DD
:1057700010006000000000000000000000000000B9
:1057800000001F80204040200000402020401F805B
:1057900000000000090006001F800600090000004C
:1057A000040004003F8004000400000000100060BA
:1057B00000000000000000000400040004000400D9
:1057C0000400000000000040000000000000000095
:1057D000002001C006003800400000001F8020406B
:1057E000204020401F800000000010403FC00040CB
:1057F0000000000018C02140224024401840000052
:1058000010802040244024401B80000002000D0036
:1058100011003FC0014000003C802440244024404F
:10582000238000001F802440244034400380000077
:105830003000200027C03800200000001B802440DA
:10584000244024401B8000001C0022C02240224033
:105850001F80000000000000084000000000000061
:1058600000000000046000000000000000000400D0
:105870000A001100208040400900090009000900C9
:105880000900000000004040208011000A000400D0
:105890001800200023402400180000001F80204032
:1058A000274029401F400000004007C039000F007A
:1058B00001C0004020403FC0244024401B80000025
:1058C0001F802040204020403080000020403FC00A
:1058D000204020401F80000020403FC024402E4038
:1058E00030C0000020403FC024402E0030000000A7
:1058F0000F001080204022403380020020403FC033
:10590000040004003FC02040204020403FC0204011
:10591000204000000060202020203FC02000200008
:1059200020403FC024400B0030C0204020403FC0FA
:1059300020400040004000C03FC03C0003C03C008D
:105940003FC0000020403FC00C4023003FC020006B
:105950001F802040204020401F80000020403FC08A
:1059600024402400180000001F802140214020E036
:105970001FA0000020403FC02440260019C0004066
:1059800018C02440244022403180000030002040D4
:105990003FC020403000000020003F800040004019
:1059A0003F80200020003E0001C00700380020009A
:1059B000380007C03C0007C038000000204039C054
:1059C000060039C0204000002000384007C03840A1
:1059D00020000000304021C02640384020C0000098
:1059E000000000007FE04020402000000000700028
:1059F0000C000380004000000000402040207FE0B9
:105A00000000000000002000400020000000000016
:105A10000010001000100010001000100000000026
:105A2000400000000000000000000280054005402A
:105A300003C0004020003FC0044004400380000039
:105A40000000038004400440064000000000038082
:105A5000044024403FC00040000003800540054052
:105A600003400000000004401FC0244024402000E8
:105A7000000002E0055005500650042020403FC0C1
:105A80000440040003C000400000044027C0004060
:105A90000000000000100010041027E000000000CB
:105AA00020403FC00140070004C004402040204087
:105AB0003FC000400040000007C0040007C00400D1
:105AC00003C00000044007C00440040003C00040BD
:105AD000000003800440044003800000041007F02D
