:020000040800F2
:100000002804002001010008870A0008090A0008E6
:10001000850A00086D0100086D0C00080000000052
:10002000000000000000000000000000550B000868
:100030008901000800000000890A0008090C000876
:100040001B0100081B0100081B0100081B01000820
:100050001B0100081B0100081B0100081B01000810
:100060001B0100081B0100081B0100081B01000800
:100070001B0100081B0100081B0100081B010008F0
:100080001B0100081B0100081B0100081B010008E0
:100090001B0100081B0100081B0100081B010008D0
:1000A0001B0100081B0100081B0100081B010008C0
:1000B0001B0100081B0100081B0100081B010008B0
:1000C0001B0100081B0100081B0100081B010008A0
:1000D0001B0100081B0100081B0100081B01000890
:1000E0001B0100081B0100081B010008DFF80CD0F1
:1000F00000F02AF800480047AD0C00082804002052
:100100000648804706480047FEE7FEE7FEE7FEE7B1
:10011000FEE7FEE7FEE7FEE7FEE7FEE76B0C000802
:10012000ED000008D2B201E000F8012B491EFBD21D
:1001300070470022F6E710B513460A4604461946F2
:10014000FFF7F0FF204610BD064C074D06E0E068C3
:1001500040F0010394E8070098471034AC42F6D30E
:10016000FFF7C8FF6C0E00088C0E0008FEE70000C9
:100170000448016841F001010160016841F0020199
:10018000016070470C080140704700B502464FF40B
:100190007A7302E0184600F003F8521EFAD200BD4E
:1001A00000EBC000C1004FF0E020416100218161FF
:1001B000052101610169C903FCD504210161704772
:1001C00030B51D4A136823F0010313600024012396
:1001D000156825F00205156003FA04F50542156857
:1001E00002D045F0040501E025F00405156015680E
:1001F00045F002051560641CE4B2082CE8D3002029
:10020000146824F00204146003FA00F40C42146829
:1002100002D044F0040401E024F0040414601468E3
:1002200044F002041460401CC0B20828E8D31068EF
:1002300040F00100106030BD0C0801402DE9F84F7E
:10024000DFF8B8910024A9F1040B23460F2709F128
:10025000040AABF1040EC9E00125A5402A40AA42D8
:100260007DD1674ED1F804C0ACEB0608B44532D05E
:1002700014DCBCF1030F3AD009DCBCF1000F2AD02A
:10028000BCF1010F1CD0BCF1020F31D11DE0BCF15B
:10029000110F17D0BCF1120F2AD119E0B8F5881F41
:1002A00019D006DCB8F5803F15D0B8F5801F1FD1F6
:1002B00011E0B8F5001F0ED0B8F5041F18D10AE000
:1002C000CB6815E0CB681B1D12E0CB6808330FE04C
:1002D000CB680C330CE08B682BB1012B4FF008037B
:1002E00003D0456104E0042302E0056100E000233F
:1002F000FF2A01D8064601E000F104064FEA840512
:1003000001D9A5F12005D6F8008007FA05FC28EAF6
:100310000C0803FA05F548EA0508C6F800804D68A0
:10032000ED0062D5374DAE6946F00106AE61AD69AC
:1003300024F0030605F001050095334D06EB050C8E
:10034000DCF80850A607360F07FA06F825EA080574
:10035000DFF8B880404503D14FF0000817E044E0D3
:10036000DFF8AC80404502D14FF001080FE0DFF824
:10037000A480404502D14FF0020808E0DFF89880E1
:10038000404502D14FF0030801E04FF0040808FA9D
:1003900006F848EA0508CCF808804D68D9F80060EE
:1003A000ED024D4601D5164300E096432E604D68A0
:1003B000DAF80060AD02554601D5164300E09643D9
:1003C0002E604D68DBF80060AD035D4601D5164335
:1003D00000E096432E604D68DEF80060ED03754640
:1003E00001D5164300E096432E60641C0D682A4632
:1003F000E5407FF431AFBDE8F88F0000080401400C
:1004000000001110001002400000014000080140EF
:10041000000C014000100140001401400AB10161CC
:1004200070470904FBE7000001488068704700003E
:1004300018000020024881680278114481607047EA
:1004400018000020074810B5016841F01001016054
:10045000032000F067F80F2000F006F800F024F801
:10046000002010BD0020024070B50D4D04464FF431
:100470007A712878B1FBF0F00A490968B1FBF0F015
:1004800000F0AEFA48B9102C07D200222146501EC7
:1004900000F028F800206C6070BD012070BD0000E5
:1004A00018000020240000200C4808B5816941F0A4
:1004B00001018161816901F001010091C16941F08F
:1004C0008051C161C06900F08050009004484168CB
:1004D00021F0E06141F00071416008BD0010024070
:1004E00000000140F0B40E4B1B680C46C3F302231E
:1004F000C3F10705042D00D90425191D072901D2D0
:10050000002300E0DB1E012606FA05F1491E21400A
:1005100099409E40761E16403143F0BC00F0A7BBC8
:100520000CED00E0064900F0070208684FF6FF03F3
:10053000184040EA0220034A104308607047000058
:100540000CED00E00000FA052DE9F0470F4605002C
:1005500061D0434E306800F00700B84209D23068DD
:1005600020F0070038433060306800F00700B842E0
:1005700051D128683B4C810712D5400703D56068EC
:1005800040F4E06060602878000703D5606840F4BC
:10059000605060606068A96820F0F0000843606007
:1005A0002878C00728D06868012810D02168022860
:1005B00010D0890700292EDA616821F00301014378
:1005C0006160FFF731FF804641F288390DE0216814
:1005D0008903EFE78901EDE7FFF726FFA0EB0801AC
:1005E000494502D90320BDE8F0876068696800F0DA
:1005F0000C00B0EB810FEFD1306800F00700B8427B
:100600000BD9306820F0070038433060306800F0C4
:100610000700B84201D00120E5E72878400705D55A
:100620006068E96820F4E0600843606028780007AB
:1006300006D56068296920F4605040EAC100606016
:1006400000F018F86168084AC1F30311515CC84012
:100650000649086006480068FFF706FF0020C2E769
:1006600000200240001002405A0E00082400002022
:100670001C0000200E4A51680E4801F00C03042BA8
:1006800011D0082B0FD10C48C1F38343C903C05CC0
:100690000AD55168084AC1F34041921E515C054A8F
:1006A0005043B0FBF1F070470449484370470000E5
:1006B0000010024000127A004A0E000800093D00B6
:1006C0002DE9F84F040070D02078C04DC00749D004
:1006D0006868C0F38100012807D06868C0F3810012
:1006E000022809D16868C00306D52868800339D577
:1006F00060680028E7D035E06068B0F5803F0BD037
:1007000010B1B0F5A02F11D0286820F480302860F7
:10071000286820F4802002E0286840F480302860B7
:10072000606890B1FFF780FE06460AE0286840F452
:1007300080202860F0E700BFFFF776FE801B64286A
:1007400073D828688003F7D50CE0FFF76DFE0646E6
:1007500005E000BFFFF768FE801B6428F0D828681A
:100760008003F7D420789A4E80074FF001094FF0AC
:10077000000839D5686810F00C0F07D06868C0F31E
:100780008100022809D16868C00306D42868800760
:1007900014D52069012808D110E02069B0B1C6F84D
:1007A0000090FFF741FE074605E00AE1FFF73CFE37
:1007B000C01B0228C4D828688007F7D5286861695B
:1007C00020F0F80040EAC10028600DE0C6F8008083
:1007D000FFF72AFE074604E0FFF726FEC01B0228AB
:1007E00023D828688007F7D4207800072CD57948CB
:1007F000A169D9B1C0F80090FFF716FE074604E0E2
:10080000FFF712FEC01B02280FD8686A8007F7D5D1
:1008100071484FF4FA510068B0FBF1F0009000BF4E
:100820000098411E0091FAD20EE080E0C0F80080EE
:10083000FFF7FAFD074604E0FFF7F6FDC01B0228AC
:1008400075D8686A8007F7D42078400760D5E869D2
:100850000027C00008D4E86940F08050E861E869EA
:10086000012700F0805000905C480168C90513D44E
:100870000168834641F480710160FFF7D5FD82462F
:1008800006E000BFFFF7D0FDA0EB0A0064284ED8B9
:10089000DBF80000C005F5D5E06801280AD008B1F2
:1008A000052813D0286A20F001002862286A20F069
:1008B000040002E0286A40F001002862E06841F28A
:1008C000883B98B1FFF7B0FD82460BE0286A40F004
:1008D00004002862EEE700BFFFF7A6FDA0EB0A01C7
:1008E00059455AD8286A8007F6D50CE0FFF79CFDD9
:1008F000824605E0FFF798FDA0EB0A0159454CD868
:10090000286A8007F6D41FB1E86920F08050E861BA
:10091000E06988B36968C1F38101022944D00228E3
:10092000C6F8608004D0FFF77FFD044638E034E06D
:10093000FFF77AFD074604E0FFF776FDC01B0228AB
:100940002BD828688001F7D4206AB0F5803F05D104
:100950006868A16820F4003008436860D4E90801A1
:100960000843696821F4741108436860C6F8609010
:10097000FFF75AFD044606E025E000BFFFF754FDEF
:10098000001B022809D828688001F7D51BE000BFAA
:10099000FFF74AFD001B022802D90320BDE8F88FAB
:1009A00028688001F4D40EE00128F7D06868226A34
:1009B00000F48031914204D1616A00F470108842E1
:1009C00001D00120EAE70020E8E700000010024023
:1009D0000000424280044242240000200070004097
:1009E00010B5401EB0F1807F01D3012010BD4FF043
:1009F000E02460610F21601700F039F90020A06148
:100A000007202061002010BDFEE70000F0B585B092
:100A100000261A480096019602960396816941F0D5
:100A200020018161816901F020010491816941F017
:100A3000040181618069124F00F0040004900122DA
:100A400003213846FFF7EAFC002204213846FFF76D
:100A5000E5FC032401258DE87000694638460394BF
:100A6000FFF7ECFB0420CDE90005CDE9025469460F
:100A70003846FFF7E3FB05B0F0BD00000010024070
:100A800000080140FEE7FEE7704700002DE9F0474F
:100A90002C4E306820F001003060002001253168C4
:100AA00021F00201316005FA00F111F0460F3168C2
:100AB00002D041F0040101E021F00401316031680D
:100AC00041F002013160401CC0B20828E7D3012088
:100AD000FFF766FBDFF86CA01B49AAF10C0ACAF805
:100AE0000010184F0024DFF864903F1FA84600252F
:100AF000306820F0020030600120FFF751FB3068C1
:100B000040F002003060386819F804208008C007FF
:100B100008FA05F101D00A4300E08A436D1CEDB2EA
:100B200009F80420082DE3D3641CE4B2042CDED3BE
:100B3000306840F0010030600549CAF80010BDE897
:100B4000F08700000C080140334444440A000020B0
:100B50003343444470470000114910B50A6822F03D
:100B600001020A60002201230C6824F002040C60D8
:100B700003FA02F404420C6802D044F0040401E0D9
:100B800024F004040C600C6844F002040C60521C55
:100B9000D2B2082AE8D3086840F00100086010BD0E
:100BA0000C08014070B5164C164D2078295CC02009
:100BB000FFF706FB6078295CC220FFF701FBA078F5
:100BC000295CC420FFF7FCFAE078295CC620FFF717
:100BD000F7FA2079295CC820FFF7F2FA6079295CDE
:100BE000CA20FFF7EDFAA079295CCC20FFF7E8FADC
:100BF000E079295CBDE87040CE20FFF7E1BA000043
:100C00000E00002000000020FFF714BC30B58FB0AC
:100C100028216846FFF78DFA14210AA8FFF789FA00
:100C200001210804CDE9001000240294022504915A
:100C3000CDE907504FF4E01009906846FFF740FDFA
:100C400008B172B6FEE70F20CDE90A054FF48060C7
:100C5000CDE90C4002210AA80E94FFF775FC00288C
:100C600001D072B6FEE70FB030BD7047FEE709074E
:100C7000090E002804DB00F1E02080F80014704722
:100C800000F00F0000F1E02080F8141D704702E032
:100C900008C8121F08C1002AFAD170477047002007
:100CA00001E001C1121F002AFBD17047FFF7CAFB08
:100CB000FFF7ACFFFFF7AAFEFFF75AFA8B20FFF70A
:100CC0004BFF4420FFF748FF0121C120FFF778FACE
:100CD0000121C320FFF774FA0121C520FFF770FA44
:100CE0000121C720FFF76CFA0121C920FFF768FA3C
:100CF0000121CB20FFF764FA0121CD20FFF760FA34
:100D00000121CF20FFF75CFAFFF74CFFDFF830B18D
:100D10004C4F4FF001084FF000094FF0090A00BF97
:100D2000FFF7B4FE00240025385D012802D010280A
:100D300040D07CE01BF804005E46401CC0B20BF8BB
:100D400004000A2801D106F80490FFF72BFF305D5C
:100D5000C00708EB4400C0B240F0C00003D000213F
:100D6000FFF72EFA20E00121FAE700BFFFF78EFE21
:100D70006420FFF70AFA6D1CADB2032D14D9305D63
:100D8000401CC0B230550A2802D1484606F80490EB
:100D9000C00708EB4400C0B240F0C00008D00021FA
:100DA000FFF70EFAFFF7FEFE385D0128DED03EE0C9
:100DB0000121F5E70BEB04063079401CC0B230711D
:100DC0000A2801D186F80490FFF7ECFE3079C007BD
:100DD0000AEB4400C0B240F0C00004D05FF0000154
:100DE000FFF7EEF920E00121FAE700BFFFF74EFE22
:100DF0006420FFF7CAF96D1CADB2032D14D9307908
:100E0000401CC0B230710A2802D1484686F80490CE
:100E1000C0070AEB4400C0B240F0C0000DD0002172
:100E2000FFF7CEF9FFF7BEFE385D1028DED0641C58
:100E3000E4B2042CFFF477AF72E70121F0E7000081
:100E40000E0000200A00002001020203040506072C
:100E500008090A0B0C0D0E0F101000000000000016
:100E60000000010203040607080900008C0E0008B8
:100E700000000020280000008E0C0008B40E0008BE
:100E800028000020000400009E0C00083F065B4F75
:100E9000666D7D077F6F000000000000000000000D
:100EA0000000000001000000100000000000000031
:040EB0000024F40026
:04000005080000ED02
:00000001FF
