:020000040800F2
:100000006488002005030008614F0008B33E000823
:10001000F9460008270800080566000800000000EF
:10002000000000000000000000000000C101000806
:10003000F9080008000000001D020008B15E000879
:100040001F0300081F0300081F0300081F03000808
:100050001F0300081F0300081F0300081F030008F8
:100060001F0300081F0300081F0300081F030008E8
:100070001F0300081F0300081F0300081F030008D8
:100080001F0300081F0300081F0300081F030008C8
:100090001F0300081F0300081F0300081F030008B8
:1000A0001F0300081F0300081F0300081F030008A8
:1000B0001F030008955F0008A55F00081F030008E4
:1000C0001F0300081F0300081F0300081F03000888
:1000D0001F030008F56500081F0300081F03000840
:1000E0001F0300081F0300081F0300081F03000868
:1000F0001F0300081F0300081F0300081F03000858
:100100001F0300081F0300081F0300081F03000847
:100110001F0300081F0300081F0300081F03000837
:100120001F0300081F0300081F0300081F03000827
:100130001F0300081F0300081F0300081F03000817
:100140001F0300081F0300081F0300081F03000807
:100150001F0300081F0300081F0300081F030008F7
:100160001F0300081F0300081F0300081F030008E7
:100170001F0300081F0300081F0300080000000001
:100180001F0300081F0300081F0300081F030008C7
:100190001F0300081F0300081F0300081F030008B7
:1001A0001F0300081F0300081F030008DFF80CD01E
:1001B00000F0FCFA004800478177000864880020BE
:1001C0002C4B19680868B0E8F04F80F30988BFF33A
:1001D0006F8F4FF0000080F311887047000000001F
:1001E00008480068006880F308884FF0000080F33A
:1001F000148862B661B6BFF34F8FBFF36F8F00DF15
:1002000000BF00BF08ED00E0DFF80C00016841F41A
:1002100070010160704700BF88ED00E0EFF30980D6
:10022000BFF36F8F134B1A681EF0100F08BF20ED3D
:10023000108A20E9F04F106009B44FF0500080F3AD
:100240001188BFF34F8FBFF36F8F0AF0E9FB4FF0B8
:10025000000080F3118809BC19680868B0E8F04F05
:100260001EF0100F08BFB0EC108A80F30988BFF3AE
:100270006F8F704788000020EFF305807047000003
:100280000246D2E84F0F411CC2E8431F03B1F8E712
:100290007047024652E8000F411C42E8001303B1C8
:1002A000F8E770470246D2E84F0FC2E8431F03B198
:1002B000F9E77047024652E8000F42E8001303B125
:1002C000F9E77047024652E8000F830103D3BFF3FA
:1002D0002F8F0020704700F00040084342E80003E1
:1002E00003B1F0E77047024652E8000F800103D2E5
:1002F000BFF32F8F0020704742E8001303B1F3E7EC
:10030000012070470648804706480047FEE7FEE7A1
:10031000FEE7FEE7FEE7FEE7FEE7FEE7FEE7FEE7B5
:10032000815F0008AD0100082DE9F05F054600205F
:1003300092469B4688460646814640241BE0284656
:1003400041464746224600F0B1F953465A46C01A84
:10035000914110D311461846224600F098F92D1A03
:1003600067EB01084F4622460120002100F08FF97B
:1003700017EB00094E41201EA4F10104DFDC4846C2
:1003800031462A464346BDE8F09F10B5431A9342D2
:1003900009D28318881803E010F8011D03F8011D25
:1003A000521EF9D210BD40EA01039B0703D009E0B9
:1003B00008C9121F08C0042AFAD203E011F8013B51
:1003C00000F8013B521EF9D210BDD2B201E000F894
:1003D000012B491EFBD270470022F6E710B51346E9
:1003E0000A4604461946FFF7F0FF204610BD30B517
:1003F00004460020034600E05B1C934203D2E05C0D
:10040000CD5C401BF8D030BD2DE9FE4F804681EA1F
:100410000300C00F0C46009021F0004123F000457E
:10042000B8EB0200A94105D24046214690461C4641
:100430000B46024623F00040104347D0270DC7F378
:100440000A00C3F30A510290401A019040286BDA67
:10045000C3F3130040F4801B0098924620B10023A0
:10046000D2EB030A63EB0B0B01985946C0F1400233
:10047000504600F00CF906460D4650465946019A82
:1004800000F024F910EB08006141002487EA1152C2
:1004900084EAE7731A4340D0009A62B3019A012AB2
:1004A0004FEA075215DC001B61EB02014FF00042DE
:1004B00002EA0752CDE90042001C41F580113246A4
:1004C0002B4600F024F903B0BDE8F08F40462146EA
:1004D000F9E7001B61EB0201001C41F580130018D5
:1004E0005B412018A2F5001747EB030140EAD570E5
:1004F000B6196D4111E06D084FEA360645EAC07540
:100500004FEA0752001B61EB0201001C41F580110C
:1005100049084FEA30000019514132462B4603B0DA
:10052000BDE8F04F00F0E4B800980122400000233D
:10053000D0EB020263EBE073009821464FEAE074CF
:10054000B8EB000061EB0401E9E783F000435BE7EF
:1005500081F0004158E72DE9FE4F81EA030404F0E1
:10056000004421F0004100944FF0000B23F00043C1
:1005700050EA01045ED052EA03045BD0C3F30A548C
:10058000C1F30A552C44A4F2F3340194A0FB0254A5
:10059000C1F3130141F48011C3F3130343F4801337
:1005A00001FB024400FB034E840A970A44EA81548B
:1005B00047EA8357A4FB076802958D0A05FB078568
:1005C0004FEA932C04FB0C542705029D4FEA065872
:1005D00047EA1637B5EB08056EEB070C870E920E4F
:1005E00047EA811742EA8312A7FB0201B6EB0B012F
:1005F00064EB00042B0D43EA0C335E1844EB1C50F3
:10060000DA465146E7FB0201C5F313044FEA0B3308
:1006100043EA14534FEA0432019C43EA0603A4F16F
:100620000C040294009CCDE900B400F070F803B013
:10063000BDE8F08F00200146F9E70EB5C10F80EA52
:10064000E0700844CA07002140F233438DE80E00F1
:100650000A460B4600F05BF803B000BDC1F30A5236
:1006600010B5C1F3130140F2FF3341F480119A42F7
:1006700001DA002010BD40F233439A42A2F2334225
:1006800003DC524200F012F810BD904010BD202A49
:1006900004DB203A00FA02F1002070479140C2F1D9
:1006A000200320FA03F3194390407047202A04DB0B
:1006B000203A21FA02F00021704721FA02F3D040DB
:1006C000C2F120029140084319467047202A06DBF8
:1006D000CB17203A41FA02F043EAE07306E041FA10
:1006E00002F3D040C2F120029140084319467047FE
:1006F00010B5141E73F1000408DA401C41F100012A
:1007000092185B411A4301D120F0010010BD2DE980
:10071000F04D92469B4611B1B1FA81F202E0B0FA77
:1007200080F220329046FFF7B2FF04460F4640EABF
:100730000A0041EA0B0153465A46084313D01146BA
:1007400053EA010019D0C8F140025046FFF7AEFF4E
:1007500005460E46504659464246FFF798FF084365
:1007600005D0012004E020463946BDE8F08D002088
:10077000054346EAE0762C4337430A986305E40ACA
:10078000A0EB08000022FD0A44EA47540A3002D5D3
:1007900000200146E9E7010510196941DDE9084536
:1007A00000196941BDE8F04DA2E70000064C074D75
:1007B00006E0E06840F0010394E807009847103431
:1007C000AC42F6D3FFF7F6FC5CDC00087CDC0008EA
:1007D00070B58C1810F8015B15F0070301D110F803
:1007E000013B2A1106D110F8012B03E010F8016B30
:1007F00001F8016B5B1EF9D12B0705D40023521EB3
:100800000DD401F8013BFAE710F8013BCB1A921C1A
:1008100003E013F8015B01F8015B521EF9D5A14218
:10082000D8D3002070BD00BFFEE7000010B5002047
:100830000349086040F28331092006F0D7F910BD62
:10084000240000202DE9F043079F044616460D467C
:100850009C46DFF89C80D8F8008028F00108DFF87B
:100860009090C9F800804FF44038C9F80080C6F570
:100870008068A044A8F10108C9F840804FF480685E
:1008800008FB0548DFF86C9009EB4808DFF860903A
:10089000C9F83C80ACEB050808F10108A6EB040997
:1008A00009F1010948EA0948DFF84490C9F8448091
:1008B000C846C8F83870D8F8008048F00108C9F870
:1008C000008000BFDFF82880D8F8048008F0020814
:1008D000B8F1000FF6D0DFF81880D8F8088048F09B
:1008E0000208DFF80C90C9F80880BDE8F08300002A
:1008F00000B00240000000C0704772B600BFFEE7C3
:1009000070B500BF1248866900F070F90446B44221
:1009100011D200BF01210F48FFF7C4FC58B90C48A1
:100920000069401C0A49086100BF00210948FFF71F
:10093000B9FC00BF00BF00BF214605481830FFF7D3
:10094000B9FC054600BFAE42DCD1204670BD0000B8
:1009500040480020680200202DE9FF4F81B0884602
:1009600091469A464FF0070B51E000BF2E48FFF723
:1009700090FC064606F03F002C4901EB0014B0093C
:100980004FF4700101EA00510091DDE900100843C5
:100990004FF0805101EAD80108434FF0005101EABD
:1009A000990108434FF0804101EA5A01084340F0A1
:1009B0004065294604F10C00FFF784FC054605F06C
:1009C000806010B385F0806585F0004505F0004734
:1009D00028F000403843206029F000403843606030
:1009E0002AF000403843A060294604F10C00FFF7CC
:1009F0007AFC48B100BF0C48001DFFF74AFC00BF5D
:100A0000012005B0BDE8F08F04E0ABF1010BBBF1B4
:100A1000000FAAD100BF00BF03480830FFF739FC20
:100A200000BF0020EDE7000044480020C043002044
:100A3000F0B506460C461546FF2C01D2FF2D01D31A
:100A40000020F0BD002200231AE001209840304031
:100A5000A0B1214610E002EBD1000B4F385C01F051
:100A6000070C012707FA0CF7384302EBD107DFF830
:100A700018C00CF80700491CA942ECD920325B1CB5
:100A8000042BE2D30120DCE7C04700202DE9F05F12
:100A90008246894600204249087080214148FFF77C
:100AA0009BFC1821404806F046F980463C48006A05
:100AB0003E49884208D00846394908620846A0F8ED
:100AC00002800120C8610FE035484088404506D0CB
:100AD0003348A0F8028001203149C86104E0304861
:100AE000C069401C2E49C8612D48C06901280BD13E
:100AF00000202B49487048608860C8604FF48061CE
:100B00002B48FFF769FC0FE000270BE0284800EBBB
:100B10000715E86800F0806018B1E86820F04060D0
:100B2000E8607F1C402FF1D31D48C069012811D116
:100B300000F068F804461CB100F05EF8064600E0DC
:100B40000026174846610020154988610861194947
:100B5000087002E000F056F80446ECB1FE220021D5
:100B60005046FFF765FFEF2211460F20FFF760FFA9
:100B7000FE2211460420FFF75BFFFFF7C1FE83460C
:100B8000074843695946C2690B48FFF7E5FEB9F1CA
:100B9000000F01D000F012F82046BDE8F09F0000E1
:100BA00040480020C0470020CCD900086B27A5E1B1
:100BB000C04300206802002000FF000310B5094870
:100BC000007808B1012010BD012006490870FFF728
:100BD00097FE044600231A4621460348FFF7BCFE51
:100BE0000120F0E74048002001FF00030148406871
:100BF00070470000001000E00148006870470000E6
:100C0000580000200648006840F0807004490860E1
:100C10000448006840F00100024908600120704764
:100C2000FCED00E0001000E010B50346102A0CD1E6
:100C3000D1E9000440EA04200C8940EA04400C7B1E
:100C400040EA0460DC68D8600BE0D1E9000440EAC7
:100C500004200C8940EA04400C7B40EA0460DC6A12
:100C6000D862002010BD10B50346102A0CD1D1E97E
:100C7000000440EA04200C8940EA04400C7B40EA6E
:100C800004609C6898600BE0D1E9000440EA04200D
:100C90000C8940EA04400C7B40EA04609C6A98623C
:100CA000002010BD10B502460868102814D148680D
:100CB00040F008008B681843CB6818430B69184351
:100CC0004B6940EA43208B6940EA433013680D4C7E
:100CD00023401843106013E0486840F008008B6818
:100CE0001843CB6818430B6918434B6940EA43200B
:100CF0008B6940EA4330136A024C23401843106268
:100D0000002010BD8101F0FF02460868B0B9D1E9AA
:100D100001031843CB6818430B6918434B69184308
:100D20008B691843CB6918430B6A18434B6A184305
:100D300013686FF30E031843106019E0D1E907033D
:100D400018434B6A1843136823F4F84318431060A0
:100D5000D1E901031843CB6818430B6918434B6969
:100D600018438B69184353686FF30E0318435060A0
:100D7000002070470246506943F6FE73984340EAEC
:100D800041005061002070472DE9F04105460C46B6
:100D900016460027D4E900010843A168491E40EA2D
:100DA0004110E16840EA412029696FF315010843C9
:100DB000286100F08BFE07460AE0701C40B126B1A6
:100DC00000F084FEC01BB04202D90320BDE8F081D0
:100DD000A86900F020002028EFD00020F6E70000EE
:100DE00030B50346FAB90868401E4C68641E40EAF4
:100DF00004148868401E44EA0024C868401E44EA7F
:100E00000034088A401E44EA0044888A401E44EAAE
:100E10000054087E401E44EA00609C6804F0704460
:100E20002043986022E0C868401E0403888A401E60
:100E300044EA00509C680E4D2C402043986008689E
:100E4000401E4C68641E40EA04148868401E44EA50
:100E50000024088A401E44EA0044087E401E44EAFA
:100E60000060DC6804F070442043D860002030BD8E
:100E7000FF0F0FFF38B504464FF0AA300090094924
:100E8000897901FB04F004236A46002103F0B8FECF
:100E9000044989796143481C04236A46002103F010
:100EA000AFFE38BD544200202DE9FC4704460D46F4
:100EB00000275DE04FF0000820E001A830490090D5
:100EC000B1F802904FEAE97109EB91718B102C494E
:100ED000897901FB04F02A46002103F0F9FD284935
:100EE0004888C11700EB9171BDF80420B2EBA10F47
:100EF00000D007E008F101001FFA80F8204880794F
:100F00004045DADC00BF1E488079404502D1002010
:100F1000BDE8FC87204603F0B1FD064626B1394600
:100F200018A005F0F5FB21E0681CF8B10020019045
:100F300016E01349B1F802904FEAE97109EB91719B
:100F40008B100F498979BDF8042004FB0120002291
:100F5000114603F01FFEBDF80400401C80B2019052
:100F600007488079BDF804108842E2DC781C87B21B
:100F7000032F9FDB214609A005F0CAFB0120C7E72C
:100F8000544200206572726F722065726173652031
:100F9000626C6F636B3A25640D0A00006261642025
:100FA000626C6F636B20636865636B65643A25648C
:100FB0000D0A000038B50446002000900F498979D9
:100FC00001FB04F001236A46D90203F0DBFE9DF821
:100FD0000000FF2810D1094989796143481C012389
:100FE0006A46D90203F0CEFE9DF80000FF2801D129
:100FF000002038BD0120FCE70220FAE7544200201F
:101000002DE9FE4F81460F4692461D4600240020E2
:1010100002908046019000263C488079B9FBF0F8A8
:101020003A488079B9FBF0F100FB1190019000BFC4
:10103000404600F0E9F8064634484089B04202D202
:101040000120BDE8FE8F00243CE00198844222D3B9
:101050000DB32E484088C01BA84205D22B484088BB
:10106000C01B1FFA80FB01E01FFA85FB274ACDF861
:1010700000B0927906FB0241244A927908FB0240B3
:1010800053463A4603F03AFB80B202900027DA4416
:10109000A5EB0B050BE01D4A927906FB02411B4AAA
:1010A000927908FB024003F02BFC80B20290029878
:1010B00030B13046FFF7DEFE012000F029F8B7E737
:1010C000601C84B211488079A042BEDC0F48807950
:1010D000A04219D1304600F09DFA404603F0CEFC04
:1010E00000240CE00948006930F81400404504D1A0
:1010F0000649096921F8146005E0601C84B20348C0
:101100004089A042EEDC00BF00209AE75442002054
:10111000F8B5054634A0006800900026002406E0DB
:101120004FF6FF703149096921F81400641C2F48FB
:101130004089A042F4D800202C498881002433E063
:101140002A4A5188927902FB04F004236A4603F08C
:1011500019FE9DF80000FF2809D145B1234A5188A6
:1011600092796243501C01236A4603F00BFE9DF8FE
:101170000000FF2813D19DF802009DF8031000EB3A
:1011800001261A484089B04203D91849096921F853
:10119000164016488089401C1449888103E0214686
:1011A00013A005F0B5FA641C10484089A042C7D8C6
:1011B00000240BE00D48006930F814000B49498900
:1011C000884202DB0949CC8104E0641C074840895D
:1011D000A042EFD800BF0548C089642801DA022088
:1011E000F8BD0020FCE7000001010101544200208D
:1011F00062616420626C6F636B20696E6465783A2B
:1012000025640D0A0000000070B50546002418484A
:101210004089401E17490968884204D21448408911
:10122000401E1449086005F001011248006800F0F2
:1012300023F80446601C90B90D484089401E0D49B2
:10124000096888420BD90A484089401E094908604C
:1012500005F001010748006800F00EF80446601C24
:1012600010B94FF0FF3070BD024804602046FAE725
:101270005442002064020020F8B505460E460020C6
:10128000009000246C1C14E0601E00F00100B042CD
:101290000ED1611E094A927901FB02F004236A46CD
:1012A000590203F06FFD0098401C08B9601EF8BD9C
:1012B000641E002CE8D1601EF9E7000054420020B3
:1012C000F8B5002600202E498881002417E020462A
:1012D000FFF770FE05468DB9204603F0CFFB0546AB
:1012E0003DB1214627A005F013FA2046FFF7C2FDC5
:1012F00004E023488089401C21498881641C2048DF
:101300004089A042E3D81E48818922A005F000FA56
:101310001B488089642801DA0120F8BD18488089BB
:10132000C0EB401000EB4000642190FBF1F6002080
:101330000090002416E02046FFF73CFE054685B9E4
:101340000F49897901FB04F002236A4640F6020145
:1013500003F056FC0098401C00900098B04200D169
:1013600004E0641C06484089A042E4D800BF012084
:10137000FFF7CEFE08B10220CFE70020CDE7000046
:101380005442002042616420626C6F636B3A2564B2
:101390000D0A0000676F6F645F626C6F636B6E7540
:1013A0006D3A25640D0A000010B503F085FB1F4857
:1013B000006920B11D480169002006F049FD1B4865
:1013C00040894100002006F055FD184908610A4691
:1013D00052895100154A1069FEF7FEFF1348006953
:1013E00008B9012010BD0120FFF792FE044664B148
:1013F0000FA005F08DF9FFF763FF0446002C13D012
:1014000011A005F085F90220ECE70848418913A0F6
:1014100005F07EF90548818916A005F079F90348A1
:10142000C18919A005F074F90020DBE754420020BF
:10143000666F726D6174206E616E6420666C61739C
:10144000682E2E2E0D0A0000666F726D6174206684
:1014500061696C6564210D0A00000000746F74619D
:101460006C20626C6F636B206E756D3A25640D0A9B
:1014700000000000676F6F6420626C6F636B206E0A
:10148000756D3A25640D0A0076616C696420626CA2
:101490006F636B206E756D3A25640D0A00000000C5
:1014A000014600220648C089884202D24FF6FF70EA
:1014B00070470348006930F811201046F8E7000033
:1014C000544200202DE9FF4F83B014469A4600266F
:1014D000002500BF97E04E48408890FBF4F04C494F
:1014E0008979484304992944B1FBF0F002900298AD
:1014F000FFF7D6FF834646484189594503D8012066
:1015000007B0BDE8F08F4248408890FBF4F04049B6
:101510008979484304992944B1FBF0F200FB121089
:10152000604301903A4841880198B0FBF1F0384996
:1015300089790BFB0108364841880198B0FBF1F22C
:1015400001FB120932484088A0EB0900B0FBF4F01F
:1015500087B2AAEB0500B84202D2AAEB050087B217
:1015600007FB04F083B21FFA89F14046039A03F0A7
:1015700009FC0646032E39D107FB04F083B21FFA9B
:1015800089F14046039A03F0FDFB0646032E2DD158
:1015900007FB04F31FFA89F14046039AFFF730FD79
:1015A0001B488079B8FBF0F0311F0090FFF77CFCFE
:1015B00006467EB916488079B8FBF0F0002100900D
:1015C000FFF772FC064612488079B8FBF0F00090F5
:1015D00003F054FA4EB10E488079B8FBF0F0009059
:1015E000FFF748FC0120FFF793FD0026042E00D1F1
:1015F00000260EB1022083E7039804FB0700039046
:10160000781E05446D1C5545FFF465AF002077E753
:101610005442002038B50446CC20009000250649ED
:10162000897901FB04F001236A4640F6010103F0C9
:10163000E7FA0546284638BD544200202DE9FF4F01
:1016400087B014469A464FF0000B0025681E0290A2
:1016500000BFA7E05648408890FBF4F054498979D0
:10166000484308992944B1FBF0F005900598FFF72D
:1016700017FF06464E484189B14203D801200BB0FE
:10168000BDE8F08F4A48408890FBF4F048498979DA
:10169000484308992944B1FBF0F200FB1210604363
:1016A0000390434841880398B0FBF1F040498979A1
:1016B00006FB010004903E4841880398B0FBF1F21C
:1016C00001FB12093A484088A0EB090080B206905D
:1016D000BDF8180090FBF4F080B20690AAEB05006C
:1016E00087B2BDF81800874201DBBDF8187007FB10
:1016F00004F806A81FFA89F1C8F38F034FF0FF32F0
:101700000090049803F0E4F98346BBF1000F01D088
:101710000220B4E7BDF81800B0EB980F09D11FFA0A
:1017200088F31FFA89F1079A049803F069FA83464F
:1017300001E04FF0010BBBF1000F07D10298B0425E
:1017400004D03046FFF766FF83460296BBF1000FD8
:1017500022D0174880791649498848430399401A8E
:10176000B0FBF4F080B20690AAEB050087B2BDF89A
:101770001800874201DBBDF8187007FB04F81FFA58
:1017800089F14346079A0498FFF73AFC8346BBF178
:10179000000F01D0032072E7781E054407984044EB
:1017A00007906D1C5545FFF455AF002067E700001A
:1017B0005442002070B50446A56D00F087F9064636
:1017C00094F83500022808D08020606500BF002012
:1017D00084F8340000BF012070BD2068006820F04C
:1017E0001600216808602068406920F080002168A8
:1017F0004861206C08B9A06C28B12068006820F00E
:101800000800216808602068006820F00100216855
:10181000086010E000F05AF9801B05280BD9202041
:101820006065032084F8350000BF002084F8340090
:1018300000BF0320D0E72068006800F00100002806
:10184000E8D194F85C103F208840A860012084F81B
:10185000350000BF002084F8340000BF00BFBBE7A4
:10186000014691F83500022803D080204865012008
:101870007047052081F835000868006820F00100F5
:101880000A6810600020F3E770B5044600F01EF906
:1018900006462546681C10B104480078054400BF80
:1018A00000F014F9801BA842FAD370BD5400002048
:1018B000F8B502460B460025002400200021E0E098
:1018C000012606FA01F51E6806EA0504AC4274D149
:1018D0001E7906F00306012E04D01E7906F00306D9
:1018E000022E13D190684F000326BE40B0434F0034
:1018F000DE68BE4030439060506801268E40B043A1
:101900001E79C6F300168E40304350601E7906F0F3
:101910000306032E09D0D0684F000326BE40B04313
:101920004F009E68BE403043D0601E7906F003062B
:10193000022E13D1CF0802F1200656F827004E07D9
:10194000F70E0F26BE40B0434F07FF0E1E69BE4084
:101950003043CF0802F1200646F8270010684F00F8
:101960000326BE40B0431E7906F003064F00BE407A
:10197000304310605E6806F44036002E1DD000BF74
:1019800000260096414E366846F480463F4F3E6042
:101990003E46366806F48046009600BF00BF3C4EC7
:1019A0008F0856F827008E07370F0F26BE40B0432A
:1019B000384EB24202D100262EE061E0364EB242ED
:1019C00001D1012628E0354EB24201D1022623E0A2
:1019D000334EB24201D103261EE0324EB24201D153
:1019E000042619E0304EB24201D1052614E02F4EF4
:1019F000B24201D106260FE02D4EB24201D1072698
:101A00000AE02C4EB24201D1082605E02A4EB2422D
:101A100001D1092600E00A268F073F0FBE40304360
:101A20001B4E8F0846F82700244E3068A0435E689E
:101A300006F4801606B12043204E3060361D306813
:101A4000A0435E6806F4001606B120431B4E361D07
:101A500030601A4E361F3068A0435E6806F40036C8
:101A600006B12043154E361F3060361F3068A04344
:101A70005E6806F4803606B12043104E083E3060A2
:101A8000491C1029FFF41CAFF8BD00004438024087
:101A900008380140000002400004024000080240F3
:101AA000000C0240001002400014024000180240E6
:101AB000001C02400020024000240240083C01407B
:101AC0000AB1816101E00B0483617047014800683D
:101AD000704700004C000020034800680349097863
:101AE00008440149086070474C0000205400002061
:101AF00010B50D48006840F400700B4908600846B6
:101B0000006840F4806008600846006840F4807017
:101B10000860032000F0E6F90F2000F007F800F05D
:101B200037F9002010BD0000003C024070B50446AB
:101B30000E4800784FF47A71B1FBF0F00C49096857
:101B4000B1FBF0F5284601F0D4FD08B1012070BDCD
:101B5000102C07D200222146501E00F085F90548BE
:101B6000046001E00120F2E70020F0E754000020CB
:101B7000580000205000002070B504460E4615465F
:101B800000BF94F8A000012801D1022070BD0120FF
:101B900084F8A00000BF022084F8A10005EB8501B5
:101BA00001EBC50204F1380101EB82003422314619
:101BB000FEF7EBFB2A463146204602F08DF9012064
:101BC0002168486284F8A10000BF002084F8A000CA
:101BD00000BF00BFDAE7000070B50446204600F001
:101BE00075F82068806920F0704021688861D4E928
:101BF00001010843E16808432169084321688969B4
:101C0000084321688861206880682F49084021685E
:101C10008860A08A050420688068A1692943084378
:101C2000216888602068C068274908402168C8602A
:101C3000A08B05042068C068216A294308432168F5
:101C4000C860206800692049084021680861A08CAC
:101C5000050420680069A16A2943084321680861D6
:101C6000206840691849084021684861A08D050432
:101C700020684069216B294308432168486194F832
:101C80003500050294F8360006042068C06A00F0AA
:101C90007F402168C86246EA050094F83410084382
:101CA0002168C96A08432168C8622068406B40F017
:101CB0000600216848632068806940F001002168BF
:101CC0008861002070BD000000F800F010B592B0EF
:101CD0000446302106A8FEF77FFB082006907820F6
:101CE0000A9002210C9100200F9006A800F054F9F0
:101CF00008B100BFFEE700BF002000901F48006849
:101D000040F080601D4908600846006800F080606F
:101D1000009000BF00BF142101A8FEF75DFB40F258
:101D2000E7600190022002900120039003200490BC
:101D30000E20059001A91248FFF7BAFD4FF480600C
:101D4000019001A90F48FFF7B3FD4FF47E400190C9
:101D500001A90D48FFF7ACFD4FF40C60019001A9FB
:101D60000A48FFF7A5FD4FF4805001900920059027
:101D700001A90648FFF79CFD12B010BD443802408F
:101D80000020024000140240001C024000180240E3
:101D900008B500BF002000900E48006840F4804065
:101DA0000C4908600846006800F48040009000BFBD
:101DB00000BF00BF00200090081F006840F0805066
:101DC000091F08600846006800F08050009000BFBE
:101DD00000BF08BD4438024070B504460E461546A3
:101DE0000CB9012070BD94F8210028B9002084F8B6
:101DF0002000204600F023F8211D2068FEF752FF46
:101E00003146D4E90002FEF72EFF2946D4E900024C
:101E1000FEF70AFF6068102806D12068006840F0CD
:101E200004002168086005E02068006A40F00400B2
:101E300021680862012084F821000020D2E710B553
:101E4000044600F0B9FD10BD01460846002809DB34
:101E500000F01F0301229A4043099B0003F1E02395
:101E6000C3F8002100BF70472DE9F05F80460D46A2
:101E70001646002704F05CFC074639462A463346DE
:101E800001F00700C0F1070ABAF1040F02D94FF0C0
:101E9000040A01E0C0F1070AD14600F1040ABAF1D0
:101EA000070F02D24FF0000A01E0A0F1030AD44666
:101EB0004FF0010A0AFA09FAAAF1010A0AEA020A2B
:101EC0000AFA0CFA4FF0010B0BFA0CFBABF1010B09
:101ED0000BEA030B4AEA0B042146404604F030FCAF
:101EE000BDE8F09F00BF00F00702064B19684FF6EF
:101EF000FF031940044B0B4343EA0221014B1960D5
:101F000000BF70470CED00E00000FA0538B5002472
:101F100000BF002000901D48006840F080501B4921
:101F200008600846006800F08050009000BF00BFC5
:101F3000012017490864FFF7C9FD044607E0FFF7D1
:101F4000C5FD001BB0F57A7F01D9032038BD1148CB
:101F5000406800F48030B0F5803FF0D101200C499A
:101F60004864FFF7B3FD044607E0FFF7AFFD001B31
:101F7000B0F57A7F01D90320E8E70648406800F40D
:101F80000030B0F5003FF0D10020DFE740380240DC
:101F900000000E4200700040F8B5044600250026FF
:101FA000207800F0010048B9207800F002000228F3
:101FB00004D0207800F04000402862D10020B149D0
:101FC0008866FFF783FD054606E0FFF77FFD401BAF
:101FD000022801D90320F8BDAB480068C0F3C060F7
:101FE0000028F2D1207800F0010038B1606881014A
:101FF000207A41EA0070A44984310860207800F01A
:102000000200022819D1A04884300068C0F302768B
:1020100060688101207B41EA006040EA06709A49CD
:102020008431086098488C30006820F01F00E16916
:10203000491E084394498C310860207800F0400024
:1020400040280AD160688101207B41EA0061207A42
:1020500041EA00708C498431086001208949886612
:10206000FFF734FD054606E0FFF730FD401B022870
:1020700001D90320AFE784480068C0F3C06000289E
:10208000F2D0207800F00400042804D0207800F07A
:102090000800082863D100207A490867FFF716FD79
:1020A000054606E0FFF712FD401B022801D9032078
:1020B00091E775480068C0F340700028F2D120789D
:1020C00000F00400042819D16F4888300068C0F37C
:1020D000027620698101207D41EA006040EA0670B5
:1020E000694988310860081D006820F4F851206AA9
:1020F000401E41EA002064498C310860207800F0DD
:102100000800082817D1604888300068C0F30366CB
:102110002069800140EA0661207E41EA00705A4948
:1021200088310860081D006820F44030616A084367
:1021300055498C310860012052490867FFF7C6FCF9
:10214000054606E0FFF7C2FC401B022801D9032028
:1021500041E74D480068C0F340700028F2D0207875
:1021600000F0200020287DD100BF002000904648CC
:102170004030006840F080504349403108600846D4
:10218000006800F08050009000BF00BF3F4800682A
:1021900040F480703D490860FFF798FC054606E072
:1021A000FFF794FC401B022801D9032013E73748AE
:1021B000006800F480700028F2D033487030006866
:1021C00000F440764EB3208D00F44070B04224D02D
:1021D0002D487030006820F4407601202C490860BA
:1021E00000200860284870300660006800F0010098
:1021F00098B1FFF76BFC054608E0FFF767FC401B52
:1022000041F28831884201D90320E4E61E4870304B
:102210000068C0F340000028EFD000BF208D00F41C
:102220004070B0F5407F0CD117480830006820F4AA
:10223000F810184AA16A1140084313490831086090
:1022400007E011480830006820F4F8100E49083102
:1022500008600D4870300068218DC1F30B01084300
:10226000094900E002E07031086000BF207800F00A
:102270001000102803D194F82C00074908600020B2
:10228000A9E600000000474200380240007000400C
:10229000400E4742FFFCFF0FE011474270B5044675
:1022A0000D460CB9012070BD5848006800F00F00C1
:1022B000A84209D255490D700846006800F00F0089
:1022C000A84201D00120EEE7207800F002000228A9
:1022D0001DD1207800F00400042805D14C48006886
:1022E00040F4E0504A490860207800F008000828CF
:1022F00005D14748006840F46040454908604448BB
:10230000006820F0F000A168084341490860207887
:1023100000F00100A8B36068012807D13C480838E4
:102320000068C0F34040B8B90120BCE760680228EB
:1023300002D06068032807D1354808380068C0F328
:10234000406048B90120AEE7314808380068C0F362
:10235000400008B90120A6E72D48006820F00300DE
:10236000616808432A490860FFF7B0FB064609E0A8
:10237000FFF7ACFB801B41F28831884202D9032071
:1023800091E707E02248006800F00C006168B0EBBC
:10239000810FEDD11D48006800F00F00A84209D957
:1023A0001A490D700846006800F00F00A84201D0DD
:1023B000012078E7207800F00400042807D11448B1
:1023C000006820F4E050E168084311490860207873
:1023D00000F00800082808D10D48006820F460408B
:1023E000216940EAC1000A49086000F03FF8084945
:1023F0000968C1F30311074A515CC84006490860E7
:1024000006480068FFF792FB00204CE7003C0240C2
:1024100008380240B4D900085800002050000020BD
:1024200001480068704700005800002000B5FFF721
:10243000F7FF04490968C1F38221034A515CC8408F
:1024400000BD000008380240C4D9000800B5FFF7FD
:10245000E7FF04490968C1F34231034A515CC840AF
:1024600000BD000008380240C4D900082DE9F0473B
:10247000002400250026A1462548006800F00C0035
:1024800020B1042805D008283AD105E0DFF884906F
:1024900039E0DFF8849036E01D48001F006800F046
:1024A0003F041B48001F006800F4800078B11A4800
:1024B0001749091F0968C1F38811A0FB0170014683
:1024C000224600233846FDF72FFF05460EE011484F
:1024D0000F49091F0968C1F38811A0FB017001466B
:1024E000224600233846FDF71FFF05460848001F17
:1024F0000068C0F30140401C4600B5FBF6F902E05D
:10250000DFF8109000BF00BF4846BDE8F08700002C
:10251000083802400024F40040787D01F8B50446F4
:102520000CB90120F8BD207800F00100002874D01B
:10253000F948006800F00C0004280DD0F648006847
:1025400000F00C00082813D1F348001F006800F4C5
:102550008000B0F5800F0BD1EF4808380068C0F359
:102560004040002859D06068002856D10120D9E7A2
:1025700000BF6068B0F5803F08D1E74808380068C0
:1025800040F48030E449083908601EE06068B0F526
:10259000A02F0DD1E0480838006840F48020DE49C3
:1025A000083908600846006840F4803008600CE094
:1025B000D9480838006820F48030D74908390860C5
:1025C0000846006820F48020086000BF606890B171
:1025D000FFF77CFA054606E0FFF778FA401B64280F
:1025E00001D903209EE7CC4808380068C0F340407A
:1025F0000028F1D011E0FFF769FA054606E0FFF781
:1026000065FA401B642801D903208BE7C2480838CB
:102610000068C0F340400028F1D1207800F00200AB
:1026200002285FD1BC48006800F00C0058B1BA48DD
:10263000006800F00C0008281CD1B748001F006893
:1026400000F48000B0B9B44808380068C0F3400016
:1026500020B1E068012801D0012063E7AE480838C6
:10266000006820F0F800216940EAC100AA49083951
:10267000086037E0E06800B30120A8490860FFF770
:1026800025FA054606E0FFF721FA401B022801D98A
:10269000032047E7A04808380068C0F3400000283E
:1026A000F1D09D480838006820F0F800216940EA20
:1026B000C10099490839086014E000209749086072
:1026C000FFF704FA054606E0FFF700FA401B022870
:1026D00001D9032026E7904808380068C0F340007D
:1026E0000028F1D1207800F0080008282CD160697A
:1026F000A8B101208A490860FFF7E8F9054606E01D
:10270000FFF7E4F9401B022801D903200AE78248B9
:102710006C300068C0F340000028F1D014E00020C5
:102720007F490860FFF7D2F9054606E0FFF7CEF9CA
:10273000401B022801D90320F4E677486C3000687A
:10274000C0F340000028F1D1207800F004000428F4
:1027500070D1002770483830006800F0805090B980
:1027600000BF002000906C483830006840F0805076
:102770006949383108600846006800F080500090D0
:1027800000BF00BF01276748006800F48070B0B93F
:102790006448006840F4807062490860FFF796F969
:1027A000054606E0FFF792F9401B022801D90320F5
:1027B000B8E65C48006800F480700028F2D000BFE2
:1027C000A068012808D154486830006840F0010032
:1027D0005149683108601DE0A06805280DD14E48B8
:1027E0006830006840F004004B49683108600846D2
:1027F000006840F0010008600CE04748683000685D
:1028000020F001004449683108600846006820F063
:102810000400086000BFA068A8B1FFF757F905469B
:1028200009E0FFF753F9401B41F28831884202D991
:10283000032077E626E0384868300068C0F340009F
:102840000028EED013E0FFF741F9054608E0FFF756
:102850003DF9401B41F28831884201D9032061E6ED
:102860002D4868300068C0F340000028EFD1012FE8
:1028700007D129483830006820F080502649383187
:10288000086000BFA069002845D02348006800F018
:102890000C0008285DD0A069022845D100201F49FE
:1028A0000866FFF713F9054606E0FFF70FF9401B2E
:1028B000022801D9032035E6174808380068C0F31C
:1028C00040600028F1D1D4E907010843616A40EA79
:1028D00081110122A06AC2EB500041EA00412C2084
:1028E000005D41EA00600C49091F086001200B49A6
:1028F0000866FFF7EBF8054606E0FFF7E7F8401B30
:10290000022801D903200DE6034808380068C0F307
:1029100040600028F1D049E00838024000004742FA
:10292000800E474200700040002021490866FFF7F2
:10293000CDF8054606E0FFF7C9F8401B022801D98B
:102940000320EFE51B480068C0F340600028F2D187
:102950002CE0A069012800D1E4E51648001D0668B6
:10296000A069012820D006F48001E06981421BD1D2
:1029700006F03F01206A814216D147F6C070304010
:10298000616AB0EB811F0FD106F440310122A06AC9
:10299000C2EB5000B1EB004F06D106F070612C2065
:1029A000005DB1EB006F01D00120BBE50020B9E56F
:1029B000000047420038024000B587B0142102A849
:1029C000FDF70AFD3148006808B107B000BD0120DD
:1029D0002E49086000BF002001902D48006840F09B
:1029E00001002B4908600846006800F001000190D2
:1029F00000BF00BF4FF63F0002900220039000206E
:102A00000490032005900C20069002A92148FEF7AF
:102A10004FFF0D200290022003900020049003201D
:102A200005900C20069002A91B48FEF741FF48F2D2
:102A3000373002900220039000200490032005907C
:102A40000C20069002A91548FEF732FF4FF683705E
:102A500002900220039000200490032005900C2097
:102A6000069002A90E48FEF723FF4DF63370029040
:102A70000220039000200490032005900C20069073
:102A800002A90848FEF714FF00BF9EE720000020BF
:102A9000383802400014024000080240001802408A
:102AA00000100240000C024070B504460D4694F838
:102AB0002C0028B9002084F82D00204600F011F8E1
:102AC000022084F82C00211D2068FEF71DF92946FC
:102AD000D4E90002FEF784F9012084F82C000020DC
:102AE00070BD10B50446FFF767FF10BD70B5044612
:102AF0000D4694F82C00022800D170BD94F82C00EB
:102B000001280AD1022084F82C0029462068FEF70B
:102B100031F9012084F82C0001E00120EDE70020CC
:102B2000EBE72DE9F04104460E46174694F82C5089
:102B3000022D02D10220BDE8F081012D01D0052D2A
:102B400012D1022084F82C003A4631462068FEF764
:102B50001BF93068022803D1052084F82C0005E019
:102B6000012084F82C0001E00120E4E70020E2E7E6
:102B7000F0B589B004460E460027032084F83400DF
:102B8000606C032820D0B6F5805F04D1A06B40F0C4
:102B90008050A0631CE0B6F5006F07D1204603F01B
:102BA00023F80546A06B2843A06311E03EB92046F8
:102BB00002F0E6FF0546A06B2843A06308E0A06B87
:102BC00040F00060A06303E0A06B40F08050A06381
:102BD000A06B38B1174821688863012084F834005D
:102BE000012713E060680390A0680490E0680590F6
:102BF000069660690790A069089006A807C88DE846
:102C00000700206803A90EC902F0D1F94FF4007142
:102C1000206802F043FA054635B10648216888630A
:102C2000A06B2843A0630127012084F834003846B4
:102C300009B0F0BDFF0540000246506F000E08705D
:102C4000506FC0F30F20488092F874000306906F15
:102C500043EA102048607820805C0872D06F000E34
:102C60004872D06F03028020805843EA1060C86029
:102C700080208058C0F30350087480208058C0F32F
:102C80000B2048828020805CC0F34600087501203C
:102C9000487500207047000010B50246506E800F46
:102CA0000870506EC0F383604870506EC0F30160CE
:102CB0008870506E000CC870B2F86400000A087189
:102CC00092F864004871906E000DC880906EC0F359
:102CD000034008726820805AC0F3C03048726820F0
:102CE000805AC0F3803088726820805AC0F3403028
:102CF000C8726820805AC0F30030087300204873FF
:102D0000506C002836D16820805A8005030DD06EA3
:102D100043EA90700861D06EC0F3C2600875D06E4F
:102D2000C0F302604875D06EC0F342508875D06E13
:102D3000C0F38240C875D06EC0F3C230087608690F
:102D4000401C50650B7E506D03F007039B1C012453
:102D50009C4060435065087A00F00F0301209840C2
:102D60009065D2E915035B0A5843D0654FF40073B0
:102D7000136621E0506C012813D16820805C800626
:102D8000830AD06E43EA104008610869401C830240
:102D90005365536DD3654FF400739365936D13665C
:102DA0000AE02E4813689863906B40F0805090635F
:102DB000012082F8340010BD6C20805AC0F38030AE
:102DC00001F8190F6C20805AC0F3C61048706C20AF
:102DD000805C00F07F008870106FC00FC870106FAB
:102DE000C0F341700871106FC0F382604871106FBA
:102DF000C0F383508871106FC0F34050C871002039
:102E00000872106FC0F3004048727020805AC0F3FF
:102E1000C03088727020805AC0F38030C872702031
:102E2000805AC0F3403008737020805AC0F30030DD
:102E300048737020805AC0F3812088737020805AB4
:102E4000C0F30120C8737020805CC0F34600087492
:102E50000120487419390020ADE70000FF0540004B
:102E60000246506C0860906C4860D06C8860106DB1
:102E7000C860506D0861906D4861D06D8861106EBA
:102E8000C86100207047F8B50446002000906946EC
:102E9000204602F05DFE054615B1A06B2843A063F5
:102EA0000098C0F343263046F8BD10B5044694F8A8
:102EB000340008B900202077032084F8340020462D
:102EC00000F00CF808B1012010BD0020A0632063C1
:102ED000012084F834000020F6E7000070B58AB0C5
:102EE00004460020049005900690079008907620F4
:102EF000099007A807C88DE80700206804A90EC933
:102F000002F055F8064616B101200AB070BD002047
:102F10001C490860206802F064F801201949A039B2
:102F2000C1F8A0000220FEF7AFFC204602F0AAFD87
:102F300005463DB1012084F83400A06B2843A0630E
:102F40000120E2E7204602F01BFD05463DB10120CD
:102F500084F83400A06B2843A0630120D5E74FF428
:102F60000071206802F09AF805464DB106482168C4
:102F70008863A06B2843A063012084F83400C4E771
:102F80000020C2E7A0802542FF0540002DE9FF4F49
:102F900089B004468B469946DDF858A0FEF796FDA9
:102FA00002900B9800905D46BBF1000F07D1A06B1B
:102FB00040F00060A06301200DB0BDE8F08F94F8F0
:102FC000340001287ED10020A063009800EB0901A5
:102FD000E06D814205D9A06B40F00070A063012034
:102FE000EAE7032084F8340000202168C862606C9E
:102FF000012802D00098400200904FF0FF3003906B
:103000004FEA49200490902005900220069000206D
:1030100007900120089003A9206801F0A3FFB9F1EF
:10302000010F07D9022020632068009902F09EF862
:10303000804606E0012020632068009902F0B2F883
:103040008046B8F1000F0DD0784821688863A06BE6
:1030500040EA0800A063012084F8340000202063C7
:103060000120A9E7049E3AE02068406B00F400408C
:10307000E0B1DEB10020019015E0206801F0B6FF5C
:1030800007462F706D1C761E380A28706D1C761E40
:10309000380C28706D1C761E380E28706D1C761E3C
:1030A0000198401C019001980828E6D3FEF70EFD18
:1030B0000299401A504502D2BAF1000F0FD15B4875
:1030C000216800E0ABE08863A06B40F00040A063A3
:1030D000012084F834000020206303206CE720687E
:1030E000406B40F22A3108400028BDD02068406B78
:1030F00000F48070D0B1B9F1010F17D9606C0328CA
:1031000014D0206802F00EF98046B8F1000F0DD0FF
:10311000464821688863A06B40EA0800A06301204C
:1031200084F8340000202063012045E72068406BCC
:1031300000F0080020B92068406B00F4007068B10E
:103140003A4821688863A06B40F00800A063012022
:1031500084F834000020206301202DE72068406BB4
:1031600000F0020068B1314821688863A06B40F02C
:103170000200A063012084F83400002020630120B5
:103180001AE72068406B00F0200068B127482168EA
:103190008863A06B40F02000A063012084F8340015
:1031A00000202063012007E729E0206801F01EFFCE
:1031B00007462F706D1C761E380A28706D1C761E0F
:1031C000380C28706D1C761E380E28706D1C761E0B
:1031D000FEF77CFC0299401A504502D2BAF1000F6A
:1031E0000DD1124821688863A06B40F00040A063B5
:1031F000012084F83400002020630120DCE62068F0
:10320000406B00F4001008B1002ECED140F23A50CD
:1032100021688863012084F834000020CCE6A06B8C
:1032200040F00050A0630120C6E60000FF0540000A
:103230002DE9F04F89B00446894693469846FEF73B
:1032400045FC0290DA464D46B9F1000F07D1A06B5C
:1032500040F00060A063012009B0BDE8F08F94F851
:10326000340001287ED10020A0630AEB0801E06D44
:10327000814205D9A06B40F00070A0630120EBE70C
:10328000032084F8340000202168C862606C0128A3
:1032900001D04FEA4A2A4FF0FF3003904FEA48200E
:1032A000049090200590002006900790012008903F
:1032B00003A9206801F056FEB8F1010F07D92020BC
:1032C00020635146206802F04BF8064606E01020C5
:1032D00020635146206802F05FF8064666B16248F6
:1032E00021688863A06B3043A063012084F8340018
:1032F000002020630120AFE7049F43E02068406B7B
:1033000000F4804030B32FB3002001901FE02878F4
:1033100000906D1C7F1E2878009941EA00200090E3
:103320006D1C7F1E2878009941EA004000906D1CBA
:103330007F1E2878009941EA006000906D1C7F1E76
:103340006946206801F06AFE0198401C01900198CE
:103350000828DCD3FEF7BAFB0299411A1298814281
:1033600003D200E079E0129860B93F482168886391
:10337000A06B3043A063012084F834000020206358
:10338000032069E72068406B40F21A3108400028AA
:10339000B4D02068406B00F48070B8B1B8F1010F70
:1033A00014D9606C032811D0206801F0BBFF0646D9
:1033B00066B12D4821688863A06B3043A06301206B
:1033C00084F8340000202063012045E72068406B2A
:1033D00000F0080020B92068406B00F4007068B16C
:1033E000214821688863A06B40F00800A063012099
:1033F00084F834000020206301202DE72068406B12
:1034000000F0020068B1184821688863A06B40F0A2
:103410000200A063012084F8340000202063012012
:103420001AE72068406B00F0100068B10E48216870
:103430008863A06B40F01000A063012084F8340082
:1034400000202063012007E740F23A50216888639A
:10345000012084F834000020FEE6A06B40F000500C
:10346000A0630120F8E60000FF05400001460022AD
:103470008A6291F8510010B9002081F850000220B2
:1034800081F851000868006820F040000A68106068
:10349000888800F482700A8902F4044210438A8901
:1034A00002F4006210430A7C02F0020210430A7D1B
:1034B00002F0010210430A8B02F4007210430A7FEB
:1034C00002F0380210432022525C02F080021043C6
:1034D0000A8D02F4005210430A68106004228869C1
:1034E00002EA104091F8242002F0100210430A680A
:1034F00050600868C06920F400600A68D06100204C
:103500004865012081F85100002070472DE9F843FB
:1035100004460F4616461D46FEF7D8FA8046B146C9
:1035200094F85100012802D00220BDE8F88307B1C9
:103530000EB90120F9E700BF94F85000012801D12D
:103540000220F2E7012084F8500000BF032084F835
:103550005100002060652763A686E686A063A087E9
:10356000E08760642064A068B0F5004F0BD120684C
:10357000006820F04000216808602068006840F47E
:103580008040216808602068006800F04000402802
:1035900005D02068006840F0400021680860E068BD
:1035A000B0F5006F37D1606810B1B9F1010F09D1E2
:1035B000206B00882168C860206B801C2063E08E2F
:1035C000401EE08623E02068806800F002000228A8
:1035D0000AD1206B00882168C860206B801C2063A2
:1035E000E08E401EE08612E0FEF770FAA0EB0800C5
:1035F000A84201D3681C00B94DB9012084F85100DC
:1036000000BF002084F8500000BF03208DE7E08E4B
:103610000028D8D136E0606810B1B9F1010F09D1A6
:10362000206B007821680873206B401C2063E08EBB
:10363000401EE08623E02068806800F00200022837
:103640000AD1206B007821680873206B401C20632E
:10365000E08E401EE08612E0FEF738FAA0EB08008C
:10366000A84201D3681C00B94DB9012084F851006B
:1036700000BF002084F8500000BF032055E7E08E13
:103680000028D8D142462946204602F061FB08B105
:1036900020206065A06850B900BF0020009020681D
:1036A000C068009020688068009000BF00BF0120C3
:1036B00084F8510000BF002084F8500000BF606D06
:1036C00008B1012031E700202FE7042808D14FF08E
:1036D000E021096941F004014FF0E022116107E0A7
:1036E0004FF0E021096921F004014FF0E02211615F
:1036F000704770B504462546681EB0F1807F01D33F
:1037000001200FE0681E4FF0E02148610F214FF0CB
:10371000FF3003F015F800204FF0E021886107200A
:103720000861002070BD7047704710B504460CB9A1
:10373000012010BD94F83D0028B9002084F83C0019
:10374000204600F025F8022084F83D00211D206865
:1037500002F04AFC012084F8460000BF84F83E00D5
:1037600001213F200155402001554120015500BF56
:1037700000BF012084F84200432001554420015538
:103780004520015500BF012084F83D000020D0E70E
:1037900038B504460F492068884219D100BF00BFE0
:1037A000002000900C48006840F002000A490860C0
:1037B0000846006800F00200009000BF00BF00BF94
:1037C000002204211D20FEF74FFB1D20FEF73CFBCD
:1037D00038BD00000004004040380240014691F826
:1037E0003D00012801D001207047022081F83D00F2
:1037F0000868C06840F001000B68D8601A4B086880
:1038000098421BD00868B0F1804F17D0174B08685A
:10381000984213D0164B086898420FD0154B086891
:1038200098420BD0144B0868984207D0134B086895
:10383000984203D0124B086898420CD108688068FF
:1038400000F00702062A0CD00868006840F001006A
:103850000B68186005E00868006840F001000B681C
:1038600018600020C0E70000000001400004004094
:1038700000080040000C00400004014000400140EE
:1038800000180040704770B504462068C56820687D
:10389000066906F00200022819D105F0020002288C
:1038A00015D1401F216808610120207720688069B8
:1038B00000F0030018B12046FFF7E4FF05E02046C2
:1038C00000F097F8204600F095F80020207706F0E9
:1038D0000400042819D105F00400042815D1C043C0
:1038E00021680861022020772068806900F4407018
:1038F00018B12046FFF7C6FF05E0204600F079F832
:10390000204600F077F80020207706F0080008280D
:1039100019D105F00800082815D1C04321680861B5
:10392000042020772068C06900F0030018B1204609
:10393000FFF7A8FF05E0204600F05BF8204600F006
:1039400059F80020207706F01000102819D105F052
:103950001000102815D1C043216808610820207785
:103960002068C06900F4407018B12046FFF78AFF54
:1039700005E0204600F03DF8204600F03BF800202E
:10398000207706F0010048B105F0010030B16FF07A
:10399000010021680861204600F02DF806F0800043
:1039A000802809D105F08000802805D1C043216816
:1039B00008612046FFF7B7FE06F04000402809D115
:1039C00005F04000402805D1C04321680861204629
:1039D00000F012F806F02000202809D105F02000A0
:1039E000202805D1C043216808612046FFF79CFECE
:1039F00070BD704770477047704770477047000050
:103A00002DE9F84F0446206805682068C6682068DC
:103A100047694FF00009CA4605F00F09B9F1000FD8
:103A20000AD105F0200038B106F0200020B1204670
:103A300002F0FCFBBDE8F88FB9F1000F7CD007F075
:103A4000010018B906F49070002875D005F0010047
:103A500030B106F4807018B1606C40F00100606411
:103A600005F0040030B107F0010018B1606C40F0BF
:103A70000200606405F0020030B107F0010018B1E7
:103A8000606C40F00400606405F0080048B106F086
:103A9000200010B907F0010018B1606C40F0080078
:103AA0006064606C002846D005F0200028B106F064
:103AB000200010B1204602F0B9FB20684069C0F335
:103AC000801A606C00F0080010B9BAF1000F2DD018
:103AD000204602F065FB2068406900F04000402865
:103AE00020D100BF00BF2168143151E8001F21F030
:103AF00040002168143141E80002002AF3D100BFE0
:103B0000E06B50B17748E16B0865E06BFDF7A8FE0C
:103B100088B1E06B016D88470DE02046FFF76EFF2E
:103B200009E009E02046FFF769FF04E02046FFF7BF
:103B300065FF002060647DE7206B012878D105F0E7
:103B40001000002874D006F010000028FAD000BF42
:103B50000020009020680068009020684068009075
:103B600000BF00BF2068406900F04000402860D1DD
:103B7000E06B006840681FFA80F8B8F1000F56D07B
:103B8000A08D404553DDA4F82E80E06BC069B0F5F0
:103B9000807F43D000BF00BF21680C3151E8001F77
:103BA00021F4807021680C3141E80002002AF3D131
:103BB00000BF00BF00BF2168143151E8001F21F091
:103BC00001002168143141E80002002AF3D100BF4E
:103BD00000BF00BF2168143151E8001F21F04000F0
:103BE0002168143141E80002002AF3D100BF2020EF
:103BF00084F842000020206300BF00BF21680C3120
:103C000051E8001F21F0100021680C3141E800024A
:103C1000002AF3D100BFE06BFDF7CCFD022060630A
:103C2000A08DE28D801A81B22046FFF7E6FE01E703
:103C300042E0A08DE18D401A1FFA80F8E08DD0B3EC
:103C4000B8F1000F37D000BF00BF21680C3151E838
:103C5000001F21F4907021680C3141E80002002A15
:103C6000F3D100BF00BF00BF2168143151E8001F2D
:103C700021F001002168143141E80002002AF3D14B
:103C800000BF202084F842000020206300BF00BF56
:103C900021680C3151E8001F21F0100021680C311F
:103CA00041E80002002AF3D100BF022060634146D0
:103CB0002046FFF7A2FEBDE605F0800030B106F019
:103CC000800018B1204602F065FCB3E605F0400024
:103CD00030B106F0400018B1204602F097FAA9E68C
:103CE00000BFA7E68D61000810B504460CB901209D
:103CF00010BDA06900B100E000BF94F8410028B9F0
:103D0000002084F84000204600F02AF8242084F89F
:103D100041002068C06820F400502168C860204637
:103D200002F002FB2068006920F4904021680861DD
:103D30002068406920F02A00216848612068C06836
:103D400040F400502168C86000206064202084F89E
:103D5000410084F842000020606300BFC8E7000013
:103D600010B586B00446142101A8FCF735FB1B49A9
:103D70002068884230D100BF0020009018480068B9
:103D800040F01000164908600846006800F0100076
:103D9000009000BF00BF00BF002000901048143802
:103DA000006840F001000E491439086008460068B8
:103DB00000F00100009000BF00BF4FF4C060019010
:103DC0000220029000200390032004900720059019
:103DD00001A90448FDF76CFD06B010BD00100140BC
:103DE000443802400000024070B504460D461646B5
:103DF00094F8420020280BD105B10EB9012070BD06
:103E00000020206332462946204602F0A3FBF6E755
:103E10000220F4E710B504462049206888423CD1CE
:103E20001F48008800F4004090BB1D48008800F443
:103E3000804070B11B4800780A2803D00020184940
:103E4000088025E01648008840F4004014490880A6
:103E50001EE0144800780D2806D11148008840F46F
:103E600080400F49088013E00E4800780C4909880B
:103E7000C1F30D010C4A505409480088401C084900
:103E8000088008460088B0F5FA7F01DB0020088032
:103E9000012204490548FFF7A7FF10BD00100140AB
:103EA0001600002018000020B80200207002002038
:103EB000704700BFFEE7000018B5044640F25723E4
:103EC00040F2FF32002108460094FCF7BBFC014899
:103ED000048018BD1A000020F0B58E880768FF68BE
:103EE000C7F30B473E44330406688436802707FB3C
:103EF0000266766806F47047066884364FF0800CD8
:103F00000CFB026677600E680768FF68C7F30B4713
:103F10003E44761C1E43076884370CFB02777E60A4
:103F20008E890768FF68C7F30A073E4433040668B2
:103F30008436802707FB0266B66806F47047066879
:103F400084360CFB0266B7608E680768FF68C7F3AB
:103F50000A073E44761C46EA0307066884360CFBD3
:103F60000266B76006688436802707FB02663669FA
:103F700026F00707066884360CFB026637610F6976
:103F8000066884360CFB026637613126765C3302A4
:103F90003226765C34040E7E350606688436802729
:103FA00007FB0266B6690027066884360CFB0266CA
:103FB000B76191F830601E43264346EA050706685C
:103FC00084360CFB0266B76106688436802707FBDF
:103FD0000266766926F0FF07066884360CFB0266E7
:103FE00077614F69066884360CFB02667761066864
:103FF0008436802707FB0266F66940F20777BE43E6
:10400000076884370CFB0277FE61D1E907763743F6
:10401000066884360CFB0266F761066884368027E2
:1040200007FB0266B66A0027066884360CFB026648
:10403000B7624F6A066884360CFB0266B7620E6987
:104040000EB9042313E00E69012E01D103230EE003
:104050000E69042E08D00E69022E05D00E69032EBB
:1040600002D00E69072E01D1022300E00123066869
:104070008436802707FB0266F66A06F0E0270668AA
:1040800084364FF0800C0CFB0266F762D1E90076B3
:10409000F61B5E43F61C0F8D5F4346EA0747066832
:1040A00084360CFB0266F76206688436802707FBBD
:1040B0000266366BF70AFF02066884360CFB02665E
:1040C0003763CF6A066884360CFB0266376306687E
:1040D0008436D701F65946F00107066884364FEA60
:1040E000C21C46F80C70F0BD2DE9F84F0446154689
:1040F0000F461A464FEAE37B03EB5B7B4FEAEB0B81
:104100009C464FEAE37E03EB5E7E4FEAEE0EA3EBA6
:10411000CE0EBEF1000F02D04FF0010E01E04FF0C5
:10412000000EF3449A4603EBD37E4FEA6E0E0BFB70
:104130000EFB0BF0FF0BCDF800B0A5F12002D5B2BD
:104140000C2B06D105EB4502DFF808C10CEB82060B
:1041500010E0102B03D1404A02EB05160AE0182BA1
:1041600006D105EBC502DFF8F4C00CEB820601E0D6
:10417000BDE8F88F002068E016F800804FF00009D5
:104180005DE008F080024AB14FF4806C0CFB014CFA
:10419000DFF8CCA00A9A2AF81C200BE00B9A4AB947
:1041A000304A12884FF4806C0CFB014CDFF8B0A051
:1041B0002AF81C204FEA48624FEA12684A1C91B262
:1041C000B1F5167F2CDB3946621C94B2182B12D144
:1041D000032290FBF2FC02FB1C0212B9821CD0B23B
:1041E00019E0032290FBF2FC02FB1C02012A12D10F
:1041F000421CD0B20FE0102B01D00C2B0BD1024689
:1042000000EBD27C4FEA6C0CA0EB4C0CBCF1000F25
:1042100001D1421CD0B2B4F5806F00DBA8E711E0F9
:10422000CA1B9A4207D13946621C94B2B4F5806F1A
:1042300000DB9DE706E009F1010202F0FF09B9F198
:10424000080F9EDB00BF421CD0B2009A904293DB65
:1042500000BF8DE714B7000888BB000878C10008CC
:10426000000000C01A0000202DE9FE4F04460D4654
:10427000904699460CAE96E8C00CE0B2029008EB6E
:1042800004001FFA80F809EB05001FFA80F916E018
:10429000444502DB029CA81985B24D4500DB14E0C1
:1042A000CDE900AB3A78334629462046FFF71CFF9C
:1042B000304606EBD07104EB61018CB27F1C38787C
:1042C0007E2802DC38782028E2DA00BFBDE8FE8FC5
:1042D00010B58EB00446342101A8FCF77DF800200B
:1042E00001904FF480600290002003904FF416700C
:1042F000049002200590FF2006904FF48060089003
:10430000052009900C480A904FF480600B904FF400
:1043100016700C90002007908DF83400FF218DF866
:10432000351000218DF83610002201A92046FDF736
:1043300023FC0EB010BD0000000000C000B58FB01F
:1043400000200B900C900D900E9007900890099013
:104350000A903248324908604FF48070486000216A
:104360002F488160C16001614FF400314161042137
:104370008161C16148022A4948624021284881621E
:10438000C162490101630221416349028163002145
:1043900080F83C1009200B900C900A200D90092009
:1043A0000E90079008900A20099009200A9007AA09
:1043B0000BA91B48FDF710FD08B1FCF79EFA1C2164
:1043C0006846FCF709F81548E030164908600020F7
:1043D00048600121134881600821C16010210161FA
:1043E00040214161890081610021C1614FF4006178
:1043F0000162490041620021816202200090042094
:104400000190029003900220049005900690694666
:104410000448FEF749FB0FB000BD0000600000A09B
:104420007C050020BC05002000B587B0142102A83F
:10443000FBF7D2FF00BF002001905548006840F014
:104440000100534908600846006800F0010001902F
:1044500000BF00BF00BF002001900846006840F088
:10446000020008600846006800F00200019000BFEA
:1044700000BF00BF002001900846006840F0040023
:1044800008600846006800F00400019000BF00BF0B
:1044900000BF002001900846006840F00800086056
:1044A0000846006800F00800019000BF00BF00BF90
:1044B000002001900846006840F01000086008469F
:1044C000006800F01000019000BF00BF00BF002096
:1044D00001900846006840F0200008600846006827
:1044E00000F02000019000BF00BF00BF002001903D
:1044F0000846006840F0400008600846006800F088
:104500004000019000BF00BF00BF0020019008469E
:10451000006840F0800008600846006800F08000F5
:10452000019000BF00BF00BF002001900846006856
:1045300040F4807008600846006800F480700190C4
:1045400000BF00BF002220211248FDF7B9FA202049
:1045500002900120039000200490059002A90D48CC
:10456000FDF7A6F908200290002003900120049096
:1045700002A90948FDF79CF9402002900020039011
:104580000120049002A90548FDF792F907B000BD8B
:104590003038024000040240001C0240000C02407F
:1045A00038B50446244825490860002048600021A9
:1045B00022488160C1600161132141610221816152
:1045C0009F21C1611621016240F29F41416240F288
:1045D0006E21816240F23F51C16240F27A21016353
:1045E000002180F83410FF2180F8351080F8361053
:1045F000FDF7F2FA1248006840F020001049086008
:104600000E48FFF765FE00BF002000900D480068CF
:1046100040F400000B4908600846006800F4000000
:10462000009000BF00BF02200749C86148632046D0
:10463000FFF742FC38BD000000680140AC040020D8
:10464000140402403038024000B0024038B524481B
:10465000244908604FF4E13048600021214881601E
:10466000C16001610C21416100218161C161FFF7DD
:104670003BFB002202212520FDF7F6FB2520FDF75C
:10468000E3FB012218491748FFF7AEFB14484069C5
:1046900040F080001249486100BF0020009013489C
:1046A000006840F48000114908600846006800F482
:1046B0008000009000BF00BF00240D4804430D4857
:1046C000046001200B49091D0860002444F0070420
:1046D0000848143004600248001D091D086038BDF8
:1046E0000010014070020020180000203038024005
:1046F00040008309B864024000BFFEE72DE9FE4F89
:104700000746884616461D460C9C4FF000090020BF
:104710000290019083460090824675488079B7FBED
:10472000F0F080B2019072488079B8FBF0F01FFA87
:1047300080FB5846019901EBD1725210A1EB420265
:104740000BEBD0735B10ABEB43039A4203D04FF0FB
:10475000FF30BDE8FE8F002066490870664908708A
:1047600008700F70380A0870380C087035206149DD
:10477000087000F0E3FB85205E4908705E490E700A
:104780003012087081F800804FEA182008704FEA54
:10479000184008701E2000F005F9E11704EBD15114
:1047A0004912A4EB412189B10020029009E015F8DB
:1047B000010B4FF000410870BDF80800401C80B2AA
:1047C0000290BDF80800A042F1DB81E02046E1172D
:1047D00004EBD151C1F3472100913046F11706EBAC
:1047E000D151C1F3472A4FF0000936E04348006831
:1047F00040F040004FF02041C1F8800000200290BE
:1048000009E015F8010B4FF000410870BDF80800F1
:10481000401C80B20290BDF80800B0F5007FF0DBCC
:1048200000BF3648001D006800F040000028F8D0A6
:1048300032481430016809EB0A022D48183040F85C
:1048400022104FF02040D0F8800020F040002B498B
:10485000086009F1010000F0FF0900988145C5DBFF
:1048600023484088103000EB8A0080B202901E205E
:1048700000F098F885201F490870BDF808001E490F
:104880000870BDF80800001208701E2000F08AF8B9
:104890001748183000EB8A050020029013E04FF013
:1048A000000908E015F8010B4FF00041087009F10C
:1048B000010000F0FF09B9F1040FF3DBBDF80800B7
:1048C000401C80B20290BDF8081000988142E6DBDF
:1048D0001020084908704FF4967002F0EBFA00F0CF
:1048E0003FF9402801D0012033E7002031E70000E4
:1048F000544200200000018000000280800000A0DF
:104900002DE9F04104460D46002600272248807913
:10491000B4FBF0F086B220488079B5FBF0F087B2A6
:104920003846314606EBD1725210A6EB420207EB35
:10493000D0735B10A7EB43039A4203D04FF0FF30D4
:10494000BDE8F0810020154908701549087008700D
:104950000C70200A0870200C087035200F49087070
:1049600000F0ECFA85200D49087000200C49087011
:1049700008700D70280A0870280C0870102007496C
:104980000870FA2002F096FA00F0EAF8402801D008
:104990000120D5E70020D3E7544200200000018029
:1049A0000000028001B502E00098401E00900098CF
:1049B0000028F9D108BD2DE9F74F81B0054616460C
:1049C00000200090002481460120029900F038F870
:1049D00007460020029900F033F882463146012054
:1049E00000F02EF880463146002000F029F883467A
:1049F00087EA0A0080EA080080EA0B00009040F68F
:104A0000FF710098884215D187EA08042046E11713
:104A100004EB51714FEAE109E11704EB5171C91040
:104A2000A4EBC1020121914015F80920514005F87D
:104A3000091003E0012004B0BDE8F08F0020FAE780
:104A400030B502460B460020002113E00C4601EB76
:104A5000D4756D10A1EB4505954209D123FA01F4F7
:104A600004F0010424B14D100124AC400444A0B270
:104A70004C1CE1B21829E9DB30BD000010B504463A
:104A8000A40160200A4908700A490C70200A0870C5
:104A9000200C0870D02006490870042002F0FEF9AE
:104AA00000F05EF8402801D0012010BD0020FCE796
:104AB00000000180000002804FF40060034948803C
:104AC0004020887140014881704700005442002016
:104AD0002DE9F04704460D4617469846DDF820902C
:104AE000002600201349087013490D702812087021
:104AF0000C70200A0870200C087030200D490870D6
:104B000000F01CFA00BF07E04FF000400068B84218
:104B100000D003E0701C86B24645F5DB00BFA9F863
:104B2000006000F01DF8402802D00120BDE8F087A9
:104B30000020FBE7000001800000028008B5002093
:104B400000907020054908701920FFF72BFF4FF0E7
:104B50000040007800909DF8000008BD0000018032
:104B600038B500240020009010E0FFF7E7FF04466E
:104B700004F0400000B10AE00098401C00906FF083
:104B800060410098884201D3052038BDEDE700BFA1
:104B90004020FAE72DE9F04104460D4616461F462F
:104BA0004FF0000880201449087014490D70281235
:104BB00008700C70200A0870200C08701E20FFF787
:104BC000F1FE00BF06E04FF00040066008F1010072
:104BD0001FFA80F8B845F6DB102007490870FA2064
:104BE00002F068F9FFF7BCFF402802D00120BDE8C1
:104BF000F0810020FBE7000000000180000002803F
:104C00002DE9F84F80460E4615461C4600200090C0
:104C100000278246814680205649087056490E700A
:104C20003012087081F800804FEA182008704FEAAF
:104C3000184008701420FFF7B5FEE11704EBD151BE
:104C40004912A4EB412189B10020009009E015F838
:104C5000010B4FF000410870BDF80000401C80B20D
:104C60000090BDF80000A042F1DB76E02046E1179D
:104C700004EBD151C1F3472A3046F11706EBD1516D
:104C8000C1F34729002733E03C48006840F040006A
:104C90004FF02041C1F880000020009009E015F895
:104CA000010B4FF000410870BDF80000401C80B2BD
:104CB0000090BDF80000B0F5007FF0DB00BF2F488A
:104CC000001D006800F040000028F8D02B48143088
:104CD000016807EB09022A4840F822104FF02040F3
:104CE000D0F8800020F0400024490860781CC7B24A
:104CF0005745C9DB224818384088103000EB89003E
:104D000080B200901E20FFF74DFE852019490870E3
:104D1000BDF8000018490870BDF8000000120870C6
:104D20001E20FFF73FFE164800EB8905002000908B
:104D30000FE0002706E015F8010B4FF00041087066
:104D4000781CC7B2042FF6DBBDF80000401C80B20F
:104D50000090BDF800005045EBDB102005490870BD
:104D6000FFF7FEFE402802D00120BDE8F88F0020AA
:104D7000FBE700000000018000000280800000A02E
:104D80006C4200202DE9FC5F8146884617461D468F
:104D90000024A3460026002001908246009063492B
:104DA0000870634981F800804FEA2820087081F874
:104DB00000904FEA192008704FEA1940087030201F
:104DC0005A49087000F0BAF8E91705EBD1514912B9
:104DD000A5EB412151B100BF05E04FF00040007844
:104DE0003855601C84B2AC42F7DB95E02846E917E1
:104DF00005EBD151C1F3472B40464FEAE87108EB70
:104E0000D151C1F3472601974FF0000A2FE04948DE
:104E1000006840F040004FF02041C1F880000024BD
:104E200006E04FF00040007807F8010B601C84B2E8
:104E3000B4F5007FF5DB00BF3E48001D006800F0C0
:104E400040000028F8D03B48143001680AEB060205
:104E5000394840F822104FF02040D0F8800040F050
:104E60004000344908600AF1010000F0FF0ADA4509
:104E7000CDDB314818384088103000EB860084B212
:104E80001920FFF78FFD05202849087028490C706C
:104E900020120870E020254908701920FFF782FDD4
:104EA0002548103000EB8607002406E04FF0004054
:104EB000007807F8010B601C84B24FEA8B00A04217
:104EC000F4DC002426E0A1191B48103050F8211012
:104ED000A219103850F82200814219D004EB060CB8
:104EE000154B53F82C2004EB060C103353F82C1000
:104EF0004FF4007C019B0CFB0430FFF75CFD824605
:104F0000BAF1000F02D00220009001E001200090D1
:104F1000601C84B25C45D6DBFFF722FE402801D03E
:104F2000012000900098BDE8FC9F00000000018077
:104F300000000280800000A06C42002000BF0748F3
:104F40000068C0F380100028F9D100BF0348006852
:104F5000C0F380100028F9D070470000100C024008
:104F600000BFFEE710B5024600230868506248689B
:104F70009062D1E9020420430C6920434C6920432C
:104F80000343D06A20F0F7001843D062002010BD20
:104F900001460869C0B270470146086800F0030086
:104FA0007047024602F114004318186870470FB4A6
:104FB00010B504460021DDE903021043059A1043B1
:104FC000069A1043079A1043089A104301436068F9
:104FD00047F6FF62904308436060002010BC5DF814
:104FE00014FB014603200860002070470146D1F8F9
:104FF0008000704710B50246002308689060D1E930
:1050000001042043CC6820430C6920430343D0684B
:105010006FF30B001843D060002010BD02460868F3
:10502000C2F880000020704770B585B005460C4678
:1050300000943720019040200290002003904FF40C
:105040008060049069462846FFF7D4FF41F2883219
:105050003721284600F0DCF90646304605B070BD21
:1050600070B585B005460C460B48204300902920BA
:10507000019040200290002003904FF48060049043
:1050800069462846FFF7B6FF284600F0C9FA0646EB
:10509000304605B070BD00000000108070B585B0CE
:1050A00005460C46009410200190402002900020FC
:1050B00003904FF48060049069462846FFF79AFFFA
:1050C00041F288321021284600F0A2F90646304607
:1050D00005B070BD70B585B005460C46009406203D
:1050E000019040200290002003904FF480600490D3
:1050F00069462846FFF77EFF41F28832062128469E
:1051000000F086F90646304605B070BD30B585B072
:105110000446002000900190029003904FF48060BC
:10512000049069462046FFF765FF204600F050F9DD
:105130000546284605B030BD30B585B004464FF46D
:10514000D57000900820019040200290002003902C
:105150004FF48060049069462046FFF74BFF2046DD
:1051600000F0E6FA0546284605B030BD70B585B0BA
:1051700005460C4600941220019040200290002029
:1051800003904FF48060049069462846FFF732FF91
:1051900041F288321221284600F03AF9064630469C
:1051A00005B070BD70B585B005460C460094112061
:1051B000019040200290002003904FF48060049002
:1051C00069462846FFF716FF41F28832112128462A
:1051D00000F01EF90646304605B070BDF0B585B04A
:1051E000064614461D460094072001904020029078
:1051F000002003904FF48060049069463046FFF72A
:10520000F9FE41F288320721304600F001F90746E5
:10521000384605B0F0BD30B585B00446002000909A
:1052200002200190C0200290002003904FF4806083
:10523000049069462046FFF7DDFE204600F0BEF9E7
:105240000546284605B030BD70B585B005460C460C
:10525000009409200190C0200290002003904FF498
:105260008060049069462846FFF7C4FE284600F097
:10527000A5F90646304605B070BD30B585B0044688
:1052800000200090332001904020029000200390E5
:105290004FF48060049069462046FFF7ABFE41F270
:1052A00088323321204600F0B3F80546284605B081
:1052B00030BD70B585B005460C4600940D200190B8
:1052C00040200290002003904FF4806004906946D3
:1052D0002846FFF78FFE41F288320D21284600F064
:1052E00097F80646304605B070BD70B585B00546E6
:1052F0000C460020009003200190402002900020E6
:1053000003904FF48060049069462846FFF772FED0
:1053100022460321284600F0AFF90646304605B084
:1053200070BD000030B585B00446002000900C2010
:10533000019040200290002003904FF48060049080
:1053400069462046FFF756FE044A0C21204600F02D
:105350005FF80546284605B030BD000000E1F505C0
:1053600070B585B005460C46009419200190402088
:105370000290002003904FF4806004906946284614
:10538000FFF738FE41F288321921284600F040F834
:105390000646304605B070BD70B585B005460C4672
:1053A00000941820019040200290002003904FF4B8
:1053B0008060049069462846FFF71CFE41F288325F
:1053C0001821284600F024F80646304605B070BD86
:1053D00001460E480068C0084FF47A73B0FBF3F042
:1053E00041F2883300FB03F200BF101EA2F101025C
:1053F00002D14FF000407047486B00F08000002859
:10540000F3D0C52088630020F5E700005800002095
:105410002DE9F04305460F46904666480068C008EF
:105420004FF47A71B0FBF1F000FB08F900BFB9F15D
:105430000000A9F1010903D14FF00040BDE8F0835D
:105440006E6B06F045000028F1D006F400600028DD
:10545000EDD1686B00F0040010B10420A863EDE703
:10546000686B00F0010010B10120A863E6E7C520D9
:10547000A8632846FFF78CFDB84201D00120DDE784
:1054800000212846FFF78DFD04464B48204008B90F
:105490000020D3E704F00040B0F1004F02D14FF0FC
:1054A0000070CBE704F08040B0F1804F01D1402084
:1054B000C4E704F00050B0F1005F01D18020BDE7E7
:1054C00004F08050B0F1805F02D14FF48070B5E7F6
:1054D00004F00060B0F1006F02D14FF40070ADE74E
:1054E00004F08060B0F1806F02D14FF48060A5E7D6
:1054F00004F08070B0F1807F02D14FF400609DE72E
:1055000004F40000B0F5000F02D14FF4805095E78D
:1055100004F48000B0F5800F02D14FF400508DE705
:1055200004F40010B0F5001F02D14FF4804085E76D
:1055300004F48010B0F5801F02D14FF400407DE7E5
:1055400004F48020B0F5802F02D14FF4003075E7CD
:1055500004F40030B0F5003F02D14FF480206DE735
:1055600004F48030B0F5803F02D14FF4002065E7AD
:1055700004F40040B0F5004F02D14FF480105DE715
:1055800004F48040B0F5804F02D14FF4001055E78D
:1055900004F40050B0F5005F02D14FF480004DE7F5
:1055A00004F00800082801D1000547E74FF48030D7
:1055B00044E700005800002008E0FFFD10B5014658
:1055C00016480068C0084FF47A74B0FBF4F041F25A
:1055D000883400FB04F300BF181EA3F1010302D1BD
:1055E0004FF0004010BD4A6B02F045000028F3D098
:1055F00002F400600028EFD1486B00F0040010B105
:1056000004208863EEE7486B00F0010010B1012030
:105610008863E7E7C52088630020E3E7580000209F
:1056200010B5014613480068C0084FF47A74B0FB07
:10563000F4F041F2883400FB04F300BF181EA3F11C
:10564000010302D14FF0004010BD4A6B02F045004B
:105650000028F3D002F400600028EFD1486B00F07E
:10566000040010B104208863EEE7C52088630020A1
:10567000EAE70000580000202DE9F04304460F46F9
:1056800090462A480068C0084FF47A71B0FBF1F0E8
:1056900041F2883100FB01F900BFB9F10000A9F126
:1056A000010903D14FF00040BDE8F083666B06F0BE
:1056B00045000028F1D006F400600028EDD1606BB1
:1056C00000F0040010B10420A063EDE7606B00F06F
:1056D000010010B10120A063E6E72046FFF758FC67
:1056E000B84201D00120DFE7C520A0630021204699
:1056F000FFF757FC054605F4604020B9280CA8F8D0
:1057000000000020D0E705F48040B0F5804F02D1C2
:105710004FF40050C8E705F40040B0F5004F02D147
:105720004FF48050C0E74FF48030BDE758000020B0
:1057300010B5014618480068C0084FF47A74B0FBF1
:10574000F4F041F2883400FB04F300BF181EA3F10B
:10575000010302D14FF0004010BD4A6B02F045003A
:105760000028F3D002F400600028EFD1486B00F06D
:10577000040010B104208863EEE7486B00F00100DC
:1057800010B101208863E7E7486B00F0400008B1E2
:10579000402088630020DFE75800002070B50546F0
:1057A0000E460024002301221146184600F01EF880
:1057B0004FF4FA7001F07EFB00230122022118460B
:1057C00000F014F8002308220321184600F00EF818
:1057D0004FF40974234601220421002000F006F84A
:1057E00031462846FDF782F970BD00002DE9FF41E2
:1057F00004460D4616461F464FF0000814B94FF0F8
:10580000100803E0012C01D14FF008080095CDF8F5
:105810000480029603974FF4805269460448FDF7CE
:1058200080F918B9002004B0BDE8F0810120FAE742
:10583000BC0500202DE9F04389B004460F46FCF773
:1058400045F981464FF000080020019002903E4645
:1058500008212068FFF722FC05461DB1284609B043
:10586000BDE8F0835022125B11042068FFF7DCFBD7
:1058700005460DB12846F2E74FF0FF3003900820AF
:10588000049030200590022006900020079001200F
:10589000089003A92068FFF765FB2068FFF7EDFC7F
:1058A00005460DB12846DAE71CE02068406B00F49D
:1058B000001040B12068FFF799FB01A941F82800CA
:1058C00008F1010805E02068406B00F4005000B9C1
:1058D0000EE0FCF7FBF8A0EB0900401C10B94FF0FC
:1058E0000040BCE72068406B00F02A000028DCD0B4
:1058F00000BF2068406B00F0080020B92068406BB2
:1059000000F4007018B1082021688863A7E72068B8
:10591000406B00F0020018B10220216888639EE706
:105920002068406B00F0200018B1202021688863B7
:1059300095E740F23A502168886302980006029980
:1059400001F47F4140EA0120029901F47F0140EA1D
:105950001120029940EA11603060361D019800065E
:10596000019901F47F4140EA0120019901F47F018E
:1059700040EA1120019940EA1160306000206EE792
:1059800030B58FB00446012003902068FFF704FB78
:1059900018B94FF080600FB030BD606C03281BD089
:1059A0002068FFF738FC05460DB12846F3E70021D3
:1059B0002068FFF7F6FA606704212068FFF7F1FA24
:1059C000A06708212068FFF7ECFAE0670C21206847
:1059D000FFF7E7FA80210851606C032807D003A97C
:1059E0002068FFF782FC05460DB12846D3E7606CBE
:1059F000032820D0BDF80C1021655022125B110441
:105A00002068FFF721FC05460DB12846C3E70021B9
:105A10002068FFF7C6FA606604212068FFF7C1FA24
:105A2000A06608212068FFF7BCFAE0660C21206818
:105A3000FFF7B7FA206704212068FFF7B2FA010DDB
:105A4000E16404A92046FDF727F910B14FF080501A
:105A5000A1E75020005B01040A4600232068FFF7FD
:105A6000BDFB05460DB1284695E7D4E90412A069AF
:105A7000CDE90012029094E80F00FFF798FA002099
:105A800089E70000F8B504460020009000260027B2
:105A90002068FFF73BFB05460DB12846F8BD20689E
:105AA000FFF74AFB054645B10021A1642068FFF7D6
:105AB0002DFB05461DB12846F0E70121A164A06C2D
:105AC000012808D100212068FFF7AEFA054615B17C
:105AD0004FF08050E2E71DE000212068FFF7A4FAB4
