:020000040800F2
:10000000383000205D0200089911000865100008D2
:1000100095110008B9030008BD1400080000000095
:100020000000000000000000000000009D0100082A
:10003000BD03000800000000F9010008B511000828
:1000400077020008770200087702000877020008AC
:100050007702000877020008BF0300087702000853
:10006000770200087702000877020008770200088C
:10007000770200087702000877020008770200087C
:10008000770200087702000877020008770200086C
:10009000770200087702000877020008770200085C
:1000A000770200087702000877020008770200084C
:1000B000770200087702000877020008770200083C
:1000C000770200087702000877020008770200082C
:1000D000770200087702000877020008770200081C
:1000E000770200087702000877020008770200080C
:1000F00077020008770200087702000877020008FC
:1001000077020008770200087702000877020008EB
:1001100077020008770200087702000877020008DB
:1001200077020008770200087702000877020008CB
:1001300077020008770200087702000877020008BB
:1001400077020008770200087702000877020008AB
:10015000770200087702000877020008770200089B
:10016000770200087702000877020008770200088B
:1001700077020008770200087702000800000000FC
:100180007702000877020008DFF80CD000F002F9CF
:100190000048004731170008383000202C4B196800
:1001A0000868B0E8F04F80F30988BFF36F8F4FF015
:1001B000000080F3118870470000000008480068C4
:1001C000006880F308884FF0000080F3148862B65E
:1001D00061B6BFF34F8FBFF36F8F00DF00BF00BF6B
:1001E00008ED00E0DFF80C00016841F470010160E7
:1001F000704700BF88ED00E0EFF30980BFF36F8F19
:10020000134B1A681EF0100F08BF20ED108A20E96A
:10021000F04F106009B44FF0500080F31188BFF325
:100220004F8FBFF36F8F02F05FFE4FF0000080F33F
:10023000118809BC19680868B0E8F04F1EF0100F6B
:1002400008BFB0EC108A80F30988BFF36F8F704746
:1002500020000020EFF3058070470000064880472B
:1002600006480047FEE7FEE7FEE7FEE7FEE7FEE79B
:10027000FEE7FEE7FEE7FEE77D12000889010008C1
:100280002DE9F05F0546002092469B4688460646CB
:10029000814640241BE0284641464746224600F05E
:1002A00069F853465A46C01A914110D31146184670
:1002B000224600F050F82D1A67EB01084F462246FF
:1002C0000120002100F047F817EB00094E41201EE5
:1002D000A4F10104DFDC484631462A464346BDE826
:1002E000F09F40EA01039B0703D009E008C9121FF1
:1002F00008C0042AFAD203E011F8013B00F8013BE0
:10030000521EF9D27047D2B201E000F8012B491E0B
:10031000FBD270470022F6E710B513460A460446A2
:100320001946FFF7F0FF204610BD30B50B460146D9
:1003300000202022012409E021FA02F59D4205D384
:1003400003FA02F5491B04FA02F52844151EA2F12E
:100350000102F1DC30BD202A04DB203A00FA02F170
:10036000002070479140C2F1200320FA03F31943A3
:1003700090407047202A04DB203A21FA02F0002145
:10038000704721FA02F3D040C2F1200291400843A5
:1003900019467047064C074D06E0E06840F001033F
:1003A00094E8070098471034AC42F6D3FFF7F0FE0C
:1003B0009C3C0008BC3C000800BFFEE7704710B53D
:1003C000012000F02FF810BD72B600BFFEE700005C
:1003D00070B50446012C15D100250B48006803F0C8
:1003E00091FB054609A001F06BF8012D09D100BF72
:1003F00035B120070A490860BFF34F8FBFF36F8FF5
:1004000000BF00BF70BD000004000020D4DAD6D0C9
:10041000B6CFD6D0BBD6B8B45461736B310D0A00D9
:1004200004ED00E010B5044604480068204020B107
:10043000024804602046FFF7CBFF10BD143C01408A
:10044000F8B502460B460025002400200021D6E026
:10045000012606FA01F51E6806EA0504AC4274D1CD
:100460001E7906F00306012E04D01E7906F003065D
:10047000022E13D190684F000326BE40B0434F00B8
:10048000DE68BE4030439060506801268E40B04325
:100490001E79C6F300168E40304350601E7906F078
:1004A0000306032E09D0D0684F000326BE40B04398
:1004B0004F009E68BE403043D0601E7906F00306B0
:1004C000022E13D1CF0802F1200656F827004E075E
:1004D000F70E0F26BE40B0434F07FF0E1E69BE4009
:1004E0003043CF0802F1200646F8270010684F007D
:1004F0000326BE40B0431E7906F003064F00BE40FF
:10050000304310605E6806F44036002E76D000BF9F
:10051000002600963C4E366846F480463A4F3E60D0
:100520003E46366806F48046009600BF00BF374E50
:100530008F0856F827008E07370F0F26BE40B043AE
:10054000334EB24202D1002624E057E0314EB2428F
:1005500001D101261EE0304EB24201D1022619E03F
:100560002E4EB24201D1032614E02D4EB24201D1EB
:1005700004260FE02B4EB24201D105260AE02A4E96
:10058000B24201D1062605E0284EB24201D107262B
:1005900000E008268F073F0FBE4030431B4E8F08F8
:1005A00046F82700224E3068A0435E6806F48016A5
:1005B00006B120431E4E3060361D3068A0435E6891
:1005C00006F4001606B12043194E361D3060184E51
:1005D000361F3068A0435E6806F4003606B120433B
:1005E000134E361F3060361F3068A0435E6806F435
:1005F000803606B120430E4E083E3060491C10295B
:10060000FFF426AFF8BD000044380240083801402E
:10061000000002400004024000080240000C0240BA
:10062000001002400014024000180240001C02406A
:10063000083C01400148006870470000100000209D
:100640000348006803490978084401490860704775
:10065000100000201800002010B50D48006840F47C
:1006600000700B4908600846006840F4806008602C
:100670000846006840F480700860032000F0AEF87F
:100680000F2000F007F800F02BF8002010BD00004C
:10069000003C024070B504460E4800784FF47A7171
:1006A000B1FBF0F00C490968B1FBF0F5284600F009
:1006B00037FC08B1012070BD102C07D20022214662
:1006C000501E00F04DF80548046001E00120F2E7FB
:1006D0000020F0E7180000201C000020140000207B
:1006E00008B500BF002000901248006840F4804028
:1006F000104908600846006800F48040009000BF80
:1007000000BF00BF00200090081F006840F080502C
:10071000091F08600846006800F08050009000BF84
:1007200000BF00220521062000F01AF8062000F084
:1007300003F808BD443802400146084600280DDB96
:1007400000BF00BF00F01F0301229A4043099B0035
:1007500003F1E023C3F8002100BF00BF00BF7047D2
:100760002DE9F05F80460D461646002700F0B8FEE2
:10077000074639462A46334601F00700C0F1070A0A
:10078000BAF1040F02D94FF0040A01E0C0F1070AE0
:10079000D14600F1040ABAF1070F02D24FF0000A65
:1007A00001E0A0F1030AD4464FF0010A0AFA09FA5F
:1007B000AAF1010A0AEA020A0AFA0CFA4FF0010B3E
:1007C0000BFA0CFBABF1010B0BEA030B4AEA0B042F
:1007D0002146404600F08CFEBDE8F09F00BF00F0CF
:1007E0000702064B19684FF6FF031940044B0B43F1
:1007F00043EA0221014B196000BF70470CED00E095
:100800000000FA0570B504460D460CB9012070BD14
:100810005848006800F00700A84209D255490D70F9
:100820000846006800F00700A84201D00120EEE76A
:10083000207800F0020002281DD1207800F004008A
:10084000042805D14C48006840F4E0504A4908604B
:10085000207800F00800082805D14748006840F4D7
:100860006040454908604448006820F0F000A168F5
:10087000084341490860207800F00100A8B360688F
:10088000012807D13C4808380068C0F34040B8B997
:100890000120BCE76068022802D06068032807D105
:1008A000354808380068C0F3406048B90120AEE719
:1008B000314808380068C0F3400008B90120A6E7B5
:1008C0002D48006820F00300616808432A49086049
:1008D000FFF7B0FE064609E0FFF7ACFE801B41F2D1
:1008E0008831884202D9032091E707E02248006856
:1008F00000F00C006168B0EB810FEDD11D4800687D
:1009000000F00700A84209D91A490D70084600688E
:1009100000F00700A84201D0012078E7207800F01D
:100920000400042807D11448006820F4E050E1686E
:10093000084311490860207800F00800082808D111
:100940000D48006820F46040216940EAC1000A496E
:10095000086000F03FF808490968C1F30311074A2D
:10096000515CC8400649086006480068FFF792FEDF
:1009700000204CE7003C024008380240843C00085C
:100980001C0000201400002001480068704700008F
:100990001C00002000B5FFF7F7FF04490968C1F308
:1009A0008221034A515CC84000BD00000838024063
:1009B000943C000800B5FFF7E7FF04490968C1F35C
:1009C0004231034A515CC84000BD00000838024073
:1009D000943C00082DE9F047002400250026A1469C
:1009E0002548006800F00C0020B1042805D0082834
:1009F0003AD105E0DFF8849039E0DFF8849036E002
:100A00001D48001F006800F03F041B48001F0068DD
:100A100000F4800078B11A481749091F0968C1F32A
:100A20008811A0FB01700146224600233846FFF7DB
:100A300027FC05460EE011480F49091F0968C1F35C
:100A40008811A0FB01700146224600233846FFF7BB
:100A500017FC05460848001F0068C0F30140401C11
:100A60004600B5FBF6F902E0DFF8109000BF00BFCA
:100A70004846BDE8F0870000083802400024F40032
:100A800000127A00F8B504460CB90120F8BD2078B0
:100A900000F00100002874D0F948006800F00C0054
:100AA00004280DD0F648006800F00C00082813D187
:100AB000F348001F006800F48000B0F5800F0BD1F0
:100AC000EF4808380068C0F34040002859D06068FB
:100AD000002856D10120D9E700BF6068B0F5803FFB
:100AE00008D1E7480838006840F48030E449083904
:100AF00008601EE06068B0F5A02F0DD1E04808380E
:100B0000006840F48020DE49083908600846006823
:100B100040F4803008600CE0D9480838006820F4C0
:100B20008030D749083908600846006820F48020E2
:100B3000086000BF606890B1FFF77CFD054606E0E5
:100B4000FFF778FD401B642801D903209EE7CC48BD
:100B500008380068C0F340400028F1D011E0FFF7EA
:100B600069FD054606E0FFF765FD401B642801D9D5
:100B700003208BE7C24808380068C0F340400028D3
:100B8000F1D1207800F0020002285FD1BC48006853
:100B900000F00C0058B1BA48006800F00C000828BA
:100BA0001CD1B748001F006800F48000B0B9B448F9
:100BB00008380068C0F3400020B1E068012801D087
:100BC000012063E7AE480838006820F0F80021698A
:100BD00040EAC100AA490839086037E0E06800B37C
:100BE0000120A8490860FFF725FD054606E0FFF74C
:100BF00021FD401B022801D9032047E7A0480838FF
:100C00000068C0F340000028F1D09D480838006813
:100C100020F0F800216940EAC100994908390860CC
:100C200014E0002097490860FFF704FD054606E040
:100C3000FFF700FD401B022801D9032026E790485A
:100C400008380068C0F340000028F1D1207800F097
:100C5000080008282CD16069A8B101208A490860E1
:100C6000FFF7E8FC054606E0FFF7E4FC401B02281E
:100C700001D903200AE782486C300068C0F34000C5
:100C80000028F1D014E000207F490860FFF7D2FC73
:100C9000054606E0FFF7CEFC401B022801D90320E1
:100CA000F4E677486C300068C0F340000028F1D1CA
:100CB000207800F00400042870D1002770483830F4
:100CC000006800F0805090B900BF002000906C4890
:100CD0003830006840F08050694938310860084673
:100CE000006800F08050009000BF00BF01276748F7
:100CF000006800F48070B0B96448006840F4807007
:100D000062490860FFF796FC054606E0FFF792FC93
:100D1000401B022801D90320B8E65C48006800F4B3
:100D200080700028F2D000BFA068012808D1544884
:100D30006830006840F001005149683108601DE0EA
:100D4000A06805280DD14E486830006840F00400C6
:100D50004B49683108600846006840F001000860AF
:100D60000CE047486830006820F0010044496831D1
:100D700008600846006820F00400086000BFA06812
:100D8000A8B1FFF757FC054609E0FFF753FC401BED
:100D900041F28831884202D9032077E626E03848BC
:100DA00068300068C0F340000028EED013E0FFF781
:100DB00041FC054608E0FFF73DFC401B41F288314D
:100DC000884201D9032061E62D4868300068C0F3ED
:100DD00040000028EFD1012F07D1294838300068A2
:100DE00020F0805026493831086000BFA0690028F3
:100DF00045D02348006800F00C0008285DD0A069A9
:100E0000022845D100201F490866FFF713FC05465C
:100E100006E0FFF70FFC401B022801D9032035E64E
:100E2000174808380068C0F340600028F1D1D4E9C1
:100E300007010843616A40EA81110122A06AC2EBFE
:100E4000500041EA00412C20005D41EA00600C495D
:100E5000091F086001200B490866FFF7EBFB0546F8
:100E600006E0FFF7E7FB401B022801D903200DE64F
:100E7000034808380068C0F340600028F1D049E01A
:100E80000838024000004742800E47420070004090
:100E9000002021490866FFF7CDFB054606E0FFF775
:100EA000C9FB401B022801D90320EFE51B4800685D
:100EB000C0F340600028F2D12CE0A069012800D1E5
:100EC000E4E51648001D0668A069012820D006F454
:100ED0008001E06981421BD106F03F01206A814216
:100EE00016D147F6C0703040616AB0EB811F0FD158
:100EF00006F440310122A06AC2EB5000B1EB004F72
:100F000006D106F070612C20005DB1EB006F01D0BE
:100F10000120BBE50020B9E500004742003802404F
:100F200070B504462546681EB0F1807F01D30120CC
:100F30000FE0681E4FF0E02148610F214FF0FF30B5
:100F400000F0D6FA00204FF0E02188610720086108
:100F5000002070BD10B504460CB9012010BDA06979
:100F600000B100E000BF94F8410028B9002084F8E7
:100F70004000204600F02AF8242084F84100206830
:100F8000C06820F400502168C860204600F080F955
:100F90002068006920F49040216808612068406959
:100FA00020F02A00216848612068C06840F40050A1
:100FB0002168C86000206064202084F8410084F823
:100FC00042000020606300BFC8E7000010B586B093
:100FD0000446142101A8FFF79DF91F4920688842A3
:100FE00038D100BF002000901C48006840F010007D
:100FF0001A4908600846006800F01000009000BF21
:1010000000BF00BF0020009014481438006840F072
:1010100001001249143908600846006800F0010018
:10102000009000BF00BF4FF4C0600190022002900A
:1010300000200390032004900720059001A9084890
:10104000FFF7FEF9002211462520FFF789FB252036
:10105000FFF772FB06B010BD00100140443802409B
:101060000000024000BFFEE700B587B000BF0020CF
:1010700001903648006840F0800034490860084616
:10108000006800F08000019000BF00BF00BF00209A
:1010900001900846006840F00100086008460068BA
:1010A00000F00100019000BF00BF00BF00200190D0
:1010B0000846006840F0200008600846006800F01C
:1010C0002000019000BF00BF00BF00200190084633
:1010D000006840F0020008600846006800F0020066
:1010E000019000BF00BF142102A8FFF713F94FF4CD
:1010F000C06002900120039000200490059002A996
:101100001348FFF79DF912481430006820F4C060BE
:101110000F49143108604FF4407002900020039092
:10112000012004900020059002A90A48FFF788F9E1
:10113000012002904FF4881003900220049002A92D
:101140000548FFF77DF907B000BD000030380240C8
:1011500000140240000402400000024010B50B4899
:101160000B4908604FF4E130486000210848816075
:10117000C16001610C21416100218161C161FFF702
:10118000E9FE08B1FFF720F910BD00000010014092
:10119000A400002000BFFEE700BFFEE7044948604E
:1011A00000BF03490968C1F3C0110029F9D0704795
:1011B0000010014010B5FFF743FA02F0BDF9012815
:1011C00001D001F0A3FF10BD00B593B0302107A8F6
:1011D000FFF7A0F8142102A8FFF79CF800BF002039
:1011E00001902448006840F0805022490860084679
:1011F000006800F08050019000BF00BF00BF0020D9
:1012000001901D48006840F480401B490860084672
:10121000006800F48040019000BF00BF01200790EB
:101220000004089002200D9041050E9104210F91B9
:10123000A8211091022111910421129107A8FFF712
:1012400021FC08B1FFF7C0F80F20029002200390A4
:10125000002004904FF4A05005904FF48050069069
:10126000052102A8FFF7CEFA08B1FFF7ADF813B0D9
:1012700000BD000040380240007000400348006894
:1012800040F47000014908607047000088ED00E0FC
:101290002DE9F84F04462068006920F44050E168C9
:1012A0000843216808612169A0680843616908430F
:1012B000E169084300902068C06849F20C618843E6
:1012C000009908432168C8602068406920F4407094
:1012D000A16908432168486176492068884203D0A3
:1012E00075492068884203D1FFF764FB814602E01C
:1012F000FFF750FB8146E069B0F5004F6CD102204A
:101300006168A0FB015003461920A9FB007001464B
:101310002A463846FEF7B4FF6421B0FBF1F04FEAED
:10132000001A02206168A0FB01510B461920A9FB9D
:1013300000712A463846FEF7A3FF83460220616803
:10134000A0FB015003461920A9FB00712A4638462C
:10135000FEF796FF6421B0FBF1F000EBC00101EB5A
:101360000010ABEB8000322101EBC0006421B0FB28
:10137000F1F000F0F8000AEB400A02206168A0FBDF
:10138000015003461920A9FB007001462A46384641
:10139000FEF776FF834602206168A0FB01500346FA
:1013A0001920A9FB00712A463846FEF769FF64211F
:1013B000B0FBF1F000EBC00101EB0010ABEB8000E3
:1013C000322101EBC0006421B0FBF1F000F0070016
:1013D0005044216888606AE004206168A0FB0150E5
:1013E00003461920A9FB007001462A463846FEF73D
:1013F00047FF824604206168A0FB01500346192084
:10140000A9FB007001462A463846FEF739FF6421E1
:10141000B0FBF1F000EBC00101EB0010AAEB800083
:10142000322101EB00106421B0FBF1F000F0F00A72
:1014300004206168A0FB017003461920A9FB00513C
:101440003A462846FEF71CFF6421B0FBF1F00AEB98
:10145000001A04206168A0FB01510B461920A9FB6A
:1014600000712A463846FEF70BFF83460420616868
:10147000A0FB015003461920A9FB007001462A4633
:101480003846FEF7FDFE6421B0FBF1F000EBC00131
:1014900001EB0010ABEB8000322101EB0010642166
:1014A000B0FBF1F000F00F00504421688860BDE807
:1014B000F88F0000001001400014014000BFFEE75B
:1014C0000FB4054B10B503A9044A029800F034F894
:1014D00010BC5DF814FB0000F1160008A00000200D
:1014E00002480068C0F30220704700000CED00E0E5
:1014F00010B5002804DB0A07130E054A135406E052
:101500000A07140E034A00F00F031B1FD45410BD2A
:1015100000E400E018ED00E002E008C8121F08C176
:10152000002AFAD170477047002001E001C1121F64
:10153000002AFBD1704700002DE9FF4F8BB09A467F
:101540000F460546002606E025280BD052460D9989
:1015500090476D1C761C28780028F5D10FB03046D6
:10156000BDE8F08F0024A0460122604900E004435A
:1015700015F8013F203B02FA03F00842F7D1287822
:101580002E2817D115F8010F44F004042A280ED094
:101590006FF02F022878A0F1300109290AD808EB52
:1015A000880102EB410100EB01086D1CF2E757F8DE
:1015B000048B6D1C287869283ED006DC0028CDD02D
:1015C00063280BD0642804D136E0732810D0752826
:1015D0004BD052460D999047761C85E017F8040BC6
:1015E0008DF8000000208DF80100E946012003E09D
:1015F00057F8049B4FF0FF3061074FF0000401D40F
:101600000AE0641C44450DDA8442FADB19F8041040
:101610000029F6D106E0641C8442FCDB19F80410B2
:101620000029F8D1264404E019F8010B52460D991F
:101630009047641EF8D257E001CF4FF00A0B002804
:1016400002DA40422D2102E0210504D52B218DF83C
:101650002410012103E0E10705D02021F7E70DF177
:10166000200908910CE00021F9E701CF4FF00A0BA7
:10167000F9E75946FEF759FE01F1300209F8012D4C
:101680000028F6D1ADEB090000F1200B600701D472
:101690004FF00108D84502DDA8EB0B0000E0002068
:1016A0008046002406E009A85246005D0D99904747
:1016B000641C761C08988442F5DB04E03020524616
:1016C0000D999047761CB8F10001A8F10108F5DCEE
:1016D00005E019F8010B52460D999047761CBBF1B5
:1016E0000001ABF1010BF4DC6D1C34E709280100AB
:1016F00000B502460B46D0B2FFF750FD104600BDC4
:101700001CB50648012100238022CDE9001004A168
:10171000064801F0E1FE01F0F7FA1CBD00000020D0
:1017200073746172745F7461736B000061240008EC
:10173000FEF792FFFFF748FDFFF796FCFFF70EFD5F
:10174000FFF7DEFF00BFFEE72DE9F04105460E463C
:101750002948076800202949096881F8510027486D
:101760000068001D00F030FF50B92448006890F870
:101770002C100120884022490968814320480160DB
:10178000681CD8B9D6B11F4948681C4909688860E7
:101790001A4982680968CA6018490968091D82687F
:1017A000516016490968091D8160164A1349096884
:1017B0004A6111460968491C11601AE07C190F48FA
:1017C00000684460BC4207D20C480168091D0E48FD
:1017D000006800F01DFF0CE008480168091D0B4877
:1017E000006800F015FF0A480068844201D20848EA
:1017F0000460BDE8F08100003400002020000020DB
:1018000038000020FC0300202800002024000020D5
:101810005000002010B5044600F020FF2F4800685B
:10182000401C2E4908602E48006840B92C480460CE
:101830000846006801280DD100F008FA0AE029489E
:10184000006838B926480068C06AE16A884201D851
:101850002348046024480068401C2349086094F829
:101860002C10012088402149096808431F4908605D
:10187000E16A01EB81011E4A02EB81014868A06028
:101880008268E260211D826851608160E16A01EB3B
:101890008101174A02EB81026261E16A01EB810179
:1018A000134A52F82110491CE26A02EB8202104BE3
:1018B00043F8221000F016FF0A48006868B1084893
:1018C0000068C06AE16A884207D24FF08050094937
:1018D0000860BFF34F8FBFF36F8F10BD3000002043
:1018E000200000203C0000204C0000203800002098
:1018F0002C01002004ED00E010B500F0AFFE104810
:101900000068D0B90F4800F073FE0F4800F070FE79
:101910000C480E4908600C480D490860002210214F
:10192000052001F00DFC064908600846006820B15A
:1019300008A10348006800F0D5FF00F0D3FE10BDF9
:101940006800002010040020240400206000002013
:1019500064000020546D72510000000010B516E0C4
:1019600000F07CFE0C48C068C468201D00F02CFE0E
:101970000A480068401E0949086009480068401E7E
:101980000749086000F0AEFE204600F05FF804480A
:1019900000680028E4D110BDE803002030000020DA
:1019A0002C00002070B504460D46206C70B1216CEF
:1019B000E0680144E160D4E90210884201D3216863
:1019C000E1602846226CE168FEF78BFC70BD2DE9D2
:1019D000F04104460F4615464FF00008A66B206CF8
:1019E00048B9206800282CD1A06801F0A5FE8046E7
:1019F0000020A06025E07DB93946226C6068FEF7C2
:101A000070FC216C606808446060D4E90101884280
:101A100017D32068606014E03946226CE068FEF756
:101A200060FC216CE068411AE1602168E06888424E
:101A300003D2216CA068411AE160022D01D106B1E8
:101A4000761E701CA0634046BDE8F08110B50446C8
:101A5000206B00F07FFE204600F07CFE10BD0000F1
:101A60000146084A126812680AB9012200E0002201
:101A70000A600A6822B9034A1268D268106800E056
:101A8000002070476000002030B54FF42053174805
:101A900000F007042CB1C01D20F00700134C041BFC
:101AA0001B1B0246124C22600024114D6C60D018A2
:101AB000083820F007000F4C206000240D4D2D68E1
:101AC0006C600C4D2D682C601146441A4C60094C1A
:101AD00024680C60084D4C682C60084D4C682C60E4
:101AE0004FF00044064D2C6030BD0000380400204B
:101AF000740000207C000020840000208000002072
:101B00009000002000BFFFF729FF06480068012869
:101B1000F9D94FF0805004490860BFF34F8FBFF3ED
:101B20006F8FF0E72C01002004ED00E02DE9F0417B
:101B300006460D4617469846069C0DB9246000E0FF
:101B40002760E66325640121204601F039FB00206F
:101B5000A064BDE8F08100002DE9F05F82460F46E9
:101B600090469B460A9E0C9C4FEA8801A522206B5A
:101B7000FEF7C9FBA8F10100216B01EB800929F0F8
:101B8000070909F0070008B9012000E0002028B982
:101B900040F25F3224A129A0FFF792FC87B1002513
:101BA00007E0795D04F134004155785D00B902E049
:101BB0006D1C102DF5D300BF00214320015502E01C
:101BC000002084F83400202E01D2012000E0002003
:101BD00028B940F2963214A118A0FFF771FC202E0C
:101BE00000D31F26E66266640020A064201D00F07A
:101BF0000CFD04F1180000F008FD2461C6F120007E
:101C0000A06164620020E06484F8500084F8510010
:101C10005A465146484600F00DFC20600B9808B12A
:101C20000B980460BDE8F09F2E2E5C4672656552ED
:101C3000544F535C7461736B732E63004572726F03
:101C4000723A2025732C2025640D0A0010B500245B
:101C500007E004EB84010F4A02EB810000F0C8FCAE
:101C6000641C202CF5D30C4800F0C2FC0B4800F09B
:101C7000BFFC0B4800F0BCFC0A4800F0B9FC0A4865
:101C800000F0B6FC044809490860044808490860A7
:101C900010BD00002C010020AC030020C003002078
:101CA000D4030020E8030020FC03002024000020CF
:101CB0002800002010B50146164800E000680368BF
:101CC0008B42FBD30246436813448B4204D14368E2
:101CD0004C682344436001460A464B681344046839
:101CE000A34211D10C4C03682468A34208D04B686E
:101CF0000468646823444B6003681B680B6005E05C
:101D0000054B1B680B6001E003680B60884200D044
:101D1000016010BD740000207C0000202DE9F0411E
:101D200004460D4616461F464FF0000865602461C4
:101D3000B5420CD8F01BA169884202D34FF00108CC
:101D400011E0211D0948006800F062FC0BE0BE4272
:101D500004D2BD4202D34FF0010804E0211D044823
:101D6000006800F055FC4046BDE8F08164000020AA
:101D70006000002070B5054600F070FCA86B08B943
:101D8000012400E0002400F0ADFC204670BD0000FE
:101D9000F1B50098846C00262CB940F6D53220A10C
:101DA00024A0FFF78DFBA06BE16B884201D20120DC
:101DB00000E0002028B940F6D63219A11DA0FFF797
:101DC0007FFBA06BE16B884227D294F9455000223B
:101DD00069462046FFF7FBFD0646681C60B9606A4D
:101DE00008B9012000E00020B0B904F1240001F09E
:101DF00023FD88B101260FE07F2D01D0012000E0F6
:101E0000002028B940F6F63205A10AA0FFF758FBDA
:101E1000681C40B284F8450000BF3046F8BD0000A1
:101E20002E2E5C4672656552544F535C7175657514
:101E3000652E63004572726F723A2025732C20253F
:101E4000640D0A0070B505460E460E480068C0686D
:101E5000C468201D00F0B8FB94F8240000F00400D2
:101E600028B132462946204600F0F8F805E094F8FB
:101E7000240000F0FE0084F824002046216A8847F0
:101E800070BD00006000002070B586B08AE0029846
:101E900000280CDA03AE2EB940F2063247A14DA05D
:101EA000FFF70EFBD6E90020B168904700BF02980B
:101EB000002877DB049C606908B9012000E000205D
:101EC00010B9201D00F080FB01A800F0F3F80546D2
:101ED00002980A2864D2DFE800F06305072E365323
:101EE00006082F3700BF00BF00BF94F8240040F061
:101EF000010084F824000398A269811803462A4649
:101F00002046FFF70BFFA8B194F8240000F004006E
:101F100038B10398A26981182A46204600F09EF83D
:101F200005E094F8240000F0FE0084F82400204628
:101F3000216A884735E000BF94F8240000F0FE00D5
:101F400084F824002DE000BF94F8240040F0010044
:101F500084F824000398A061A06908B1012000E082
:101F6000002028B940F2593214A11AA0FFF7A8FAAC
:101F7000A06941192B462A462046FFF7CFFE10E004
:101F800094F8240000F0020018B9204600F0E2FBAB
:101F900005E094F8240000F0FE0084F8240000E03E
:101FA00000BF00BF002202A90E48006801F07EF9C0
:101FB00000287FF46CAF06B070BD00002E2E5C468A
:101FC00072656552544F535C74696D6572732E630C
:101FD000000000004572726F723A2025732C202594
:101FE000640D0A0068000020F8B505460C4600F0B4
:101FF00073FF684600F05EF80646009820BB44B9BF
:10200000B54206D801F0B6FC31462846FFF71AFF64
:102010001CE03CB10E480068006808B9012000E0EF
:1020200000200446A91B22460A48006800F098FCDC
:1020300001F0A0FC50B94FF0805007490860BFF391
:102040004F8FBFF36F8F01E001F094FCF8BD0000EB
:10205000640000206800002004ED00E070B5044634
:102060000D46164604E0A06905442046216A8847CB
:10207000A06941192B4632462046FFF74FFE002843
:10208000F1D170BD09480068006808B9012000E07E
:10209000002020B14FF0FF300549086005E00348FB
:1020A0000068C0680068024908607047240000208A
:1020B0005000002070B5044601F04EFA054607486E
:1020C0000068854204D200F00BF80120206001E096
:1020D0000020206001480560284670BD7000002087
:1020E00070B508E00D480068C06804684FF0FF3123
:1020F0002046FFF7A7FE09480068006808B90120DC
:1021000000E000200028EDD004480568044800687D
:10211000024908600248056070BD000060000020B0
:10212000640000200B480068401C08B9012000E052
:10213000002020B9E92208A112A0FFF7C1F900BFD1
:10214000502080F31188BFF34F8FBFF36F8F00BF14
:1021500000BFFEE7940000202E2E5C46726565529B
:10216000544F535C706F727461626C655C5256447C
:10217000535C41524D5F434D34465C706F72742E18
:10218000630000004572726F723A2025732C20257F
:10219000640D0A0070B5054600262C462DB940F2A4
:1021A00026720EA112A0FFF78BF9154960698842CB
:1021B00001D1012000E0002070B11249A06A8842DC
:1021C00001D1012000E0002030B9A06A08B9012047
:1021D00000E0002000B10126304670BD2E2E5C4686
:1021E00072656552544F535C7461736B732E630058
:1021F0004572726F723A2025732C2025640D0A00F7
:10220000FC030020D403002008B500BF6846FFF798
:1022100027FC044620460099FFF7E6FEFFF734FE50
:10222000F4E770B5044600F019FA94F9455019E046
:10223000A06C30B12046FFF7ABFD88B100F086FC02
:102240000EE0606A08B9012000E0002038B904F10E
:10225000240001F0F1FA18B100F078FC00E003E08E
:10226000681E45B2002DE3DC00BFFF2084F8450066
:1022700000F038FA00F0F2F994F9445010E02069C7
:1022800008B9012000E0002048B904F1100001F075
:10229000D3FA08B100F05AFC681E45B200E001E034
:1022A000002DECDC00BFFF2084F8440000F01AFA97
:1022B00070BD00002DE9F04104464FF0000800F029
:1022C0000BFE4848006808B9FFF7DEFB4648006887
:1022D0002040002873D114B304F10800A0421ED995
:1022E000083404F00700D8B104F00700C0F108007A
:1022F0002044A04211D904F00700C0F108000444B2
:1023000004F0070008B9012000E0002040B99C2239
:1023100036A140A0FFF7D4F802E0002400E000243A
:10232000002C4CD03F480068844248D83E4E30468E
:10233000056801E02E462D686868A04202D2286830
:102340000028F7D127480068854238D0306800F16E
:102350000808286830606868001B102813D92F19F6
:1023600007F0070008B9012000E0002020B9CF22C3
:102370001EA128A0FFF7A4F86868001B78606C60B5
:102380003846FFF797FC274968680968081A254905
:1023900008600846006825490968884203D2214838
:1023A0000068224908601049686809680843686045
:1023B000002028601E480068401C1D49086001F08C
:1023C000D9FA08F0070008B9012000E0002028B978
:1023D0004FF4887205A10FA0FFF772F84046BDE8E0
:1023E000F08100007C000020900000202E2E5C4632
:1023F00072656552544F535C706F727461626C65A4
:102400005C4D656D4D616E675C686561705F342E13
:10241000630000004572726F723A2025732C2025EC
:10242000640D0A0080000020740000208400002059
:1024300088000020001F4FF080730360001F21F010
:1024400001030360001F054B036014380260001F86
:102450006FF0020303602038704700002521000858
:102460001CB5044600F0FAF812480221002380222D
:10247000CDE9001010A1124801F02EF811480321F7
:1024800000238022CDE900100FA1114801F024F8AB
:102490001048042100238022CDE900100EA110482D
:1024A00001F01AF80F48006800F0BAFA00F01AF9C3
:1024B0001CBD0000040000207461736B310000003B
:1024C000E9240008080000207461736B32000000EA
:1024D0001D2500080C0000207461736B33000000A0
:1024E00055250008000000200BE00648006880F435
:1024F00080600449086004A0FEF7E2FFC82000F0F5
:1025000055FAF2E714140240C8CECEF1D2BBD5FD85
:10251000D4DAD6B4D0D00D0A000000000CE0074891
:10252000006880F40070054908604FF47A7000F08C
:102530003DFA03A0FEF7C4FFF1E7000014140240C7
:10254000C8CECEF1B6FED5FDD4DAD6B4D0D00D0AC1
:10255000000000001BE0142000F028FA0C4800687E
:10256000C0F3002038B90B48006800F027FC0AA02F
:10257000FEF7A6FF0BE006480068C0F3402030B924
:102580000448006800F050FB09A0FEF799FFE2E75D
:102590001004024004000020D4DAC8CECEF1D6D018
:1025A0003AC8CECEF131B9D2C6F00D0A0000000013
:1025B000D4DAC8CECEF1D6D03AC8CECEF131BBD621
:1025C000B8B40D0A0000000001460A69D1E90130E3
:1025D0009860D1E9010358605068884201D1886849
:1025E0005060002008611068401E1060106870473D
:1025F00000F1080141604FF0FF31816000F10801F6
:10260000C1600161002101607047002101617047D4
:1026100010B502460B685C1C0CB9106907E002F1AA
:10262000080000E04068446824689C42FAD9446885
:102630004C604C68A160886041600A611468641C49
:10264000146010BD42684A6093688B60936859605B
:102650009160086103685B1C0360704710B500BFA0
:10266000502080F31188BFF34F8FBFF36F8F00BFEF
:102670000B480068401C0A490860084600680128A9
:102680000DD108480068C0B208B9012000E0002060
:1026900028B94FF4DB7204A10EA0FEF711FF10BDA4
:1026A0009400002004ED00E02E2E5C467265655219
:1026B000544F535C706F727461626C655C52564427
:1026C000535C41524D5F434D34465C706F72742EC3
:1026D000630000004572726F723A2025732C20252A
:1026E000640D0A0010B50B48006828B940F2BD120D
:1026F00009A114A0FEF7E4FE06480068401E054943
:1027000008600846006820B9002080F3118800BFE7
:1027100000BF10BD940000202E2E5C4672656552ED
:10272000544F535C706F727461626C655C525644B6
:10273000535C41524D5F434D34465C706F72742E52
:10274000630000004572726F723A2025732C2025B9
:10275000640D0A0070B506463546002E3AD0083D95
:102760002C461D4960680968084008B1012000E056
:10277000002028B94FF4927218A122A0FEF7A0FE03
:10278000206808B9012000E0002028B940F2251295
:1027900012A11CA0FEF794FE0F496068096808406A
:1027A000C0B12068B0B90C496068096888436060AE
:1027B00000F092FB174960680968084415490860F1
:1027C0002046FFF777FA14480068401C1249086059
:1027D00001F0D0F870BD0000900000202E2E5C4665
:1027E00072656552544F535C706F727461626C65B0
:1027F0005C4D656D4D616E675C686561705F342E20
:10280000630000004572726F723A2025732C2025F8
:10281000640D0A00800000208C00002000204FF092
:10282000E02108618861064800684FF47A71B0FBC6
:10283000F1F0401E4FF0E021486107200861704729
:102840001C00002070B5FDF705FD0546102D11D3C5
:1028500005F1E02090F8F04310480078844201DB55
:10286000012000E0002028B940F217320CA117A087
:10287000FEF726FE1948006800F4E0601849096870
:10288000884201D8012000E0002028B940F2273218
:1028900003A10EA0FEF714FE70BD000098000020FA
:1028A0002E2E5C4672656552544F535C706F727485
:1028B00061626C655C525644535C41524D5F434DBE
:1028C00034465C706F72742E630000004572726F44
:1028D000723A2025732C2025640D0A000CED00E0CF
:1028E0009C0000202DE9F04106460F462EB940F627
:1028F000C82211A115A0FEF7E3FD0025BFB10024F9
:1029000012E0164800EBC4004068B04203D11348FF
:1029100000EBC4050AE035B9104850F8340010B98E
:102920000E4800EBC405641C082CEAD300BF0DB1AF
:102930002F606E60BDE8F0812E2E5C467265655298
:10294000544F535C71756575652E63004572726FE7
:10295000723A2025732C2025640D0A00EC0000201B
:102960002DE9F04105460E4617462C46FFF776FE48
:1029700094F94400401C10B9002084F8440094F9F4
:102980004500401C10B9002084F84500FFF7AAFE5E
:10299000A06B28B93A46314604F1240000F006F94C
:1029A0002046FFF73EFCBDE8F081000070B504460C
:1029B0000025ACB10F48006808B9012000E00020F4
:1029C00028B94FF4A9620CA110A0FEF779FD00F020
:1029D00083FA00212046FEF7B7FE00F0CBFF054644
:1029E0003DB94FF080500D490860BFF34F8FBFF3E2
:1029F0006F8F70BD5C0000202E2E5C4672656552A4
:102A0000544F535C7461736B732E63004572726F25
:102A1000723A2025732C2025640D0A0004ED00E095
:102A200070B50546FFF71AFE15B92F48006800E09B
:102A300028460446201DFFF7C7FD78B9E06A00EB81
:102A400080002A4951F8200040B994F82C10012048
:102A5000884027490968814325480160A06A18B168
:102A600004F11800FFF7B0FD22480068401C21491E
:102A700008601D480068844209D1211D1E48FFF7E7
:102A8000E1FD1E480068401C1C49086006E01C4827
:102A90000068401E1A490860FFF7F4FAFFF722FEAB
:102AA00011480068844202D02046FEF7CFFF154847
:102AB0000068C0B10C480068844214D11248006814
:102AC00008B9012000E0002028B940F2DB420FA144
:102AD00013A0FEF7F5FC4FF0805015490860BFF3D6
:102AE0004F8FBFF36F8F70BD200000202C0100209E
:102AF000380000204C000020E80300202C000020BB
:102B0000300000203C0000205C0000202E2E5C469F
:102B100072656552544F535C7461736B732E63001E
:102B20004572726F723A2025732C2025640D0A00BD
:102B300004ED00E003490968016003490968416048
:102B400070470000480000203400002001200149A7
:102B5000086070474400002070B504460D462CB94B
:102B600040F61B4207A10CA0FEF7AAFC0E48016824
:102B700018312046FFF74CFD01212846FEF7E4FD01
:102B800070BD00002E2E5C4672656552544F535C3A
:102B90007461736B732E63004572726F723A2025F5
:102BA000732C2025640D0A002000002070B5044617
:102BB0000E4615462CB940F6514211A115A0FEF75C
:102BC0007FFC606817490968C8611649826809680E
:102BD0000A6214490968183182685160114909680C
:102BE000183181600F4909688C622168491C216095
:102BF0000DB14FF0FF3629463046FEF7A5FD70BDFA
:102C00002E2E5C4672656552544F535C7461736B33
:102C1000732E63004572726F723A2025732C202543
:102C2000640D0A002000002070B505462C462DB921
:102C30004FF4EA6227A12CA0FEF742FC2E48006860
:102C4000844245D0002C43D0FFF708FD2046FFF713
:102C5000A1FAD8B3201DFFF7B7FC94F82C1001207F
:102C6000884026490968084324490860E16A01EB65
:102C70008101234A02EB81014868A0608268E2601A
:102C8000211D826851608160E16A01EB81011C4A6B
:102C900002EB81026261E16A01EB8101184A52F89C
:102CA0002110491CE26A02EB8202154B43F8221004
:102CB0001149E06A0968C96A884207D34FF0805019
:102CC00010490860BFF34F8FBFF36F8FFFF70AFD06
:102CD00070BD00002E2E5C4672656552544F535CE9
:102CE0007461736B732E63004572726F723A2025A4
:102CF000732C2025640D0A002000002038000020DD
:102D00002C01002004ED00E01CB51B4800210B46FF
:102D10008022CDE9001019A11A4800F0DDFB04461D
:102D2000012C02D100F074FF0446012C15D100BF24
:102D3000502080F31188BFF34F8FBFF36F8F00BF18
:102D40004FF0FF3010490860012010490860002052
:102D50000F49086000F01CF90BE0601C08B101206D
:102D600000E0002028B940F63F020AA10EA0FEF7BD
:102D7000A7FB114800681CBD5400002049444C4585
:102D800000000000051B0008500000203C0000204F
:102D9000340000202E2E5C4672656552544F535C01
:102DA0007461736B732E63004572726F723A2025E3
:102DB000732C2025640D0A005800002070B50546CC
:102DC000FFF74CFC15B93348006800E0284604467C
:102DD000201DFFF7F9FB78B9E06A00EB80002E496F
:102DE00051F8200040B994F82C10012088402B495C
:102DF0000968814329480160A06A18B104F11800EC
:102E0000FFF7E2FB211D2648FFF71CFC002009E02C
:102E100004F15001095C012903D1002204F15001A1
:102E20000A54401C0128F3DBFFF75CFC1D480068D6
:102E300028B1FFF713FCFFF725F9FFF753FC1548FE
:102E40000068844224D117480068A8B11648006879
:102E500008B9012000E0002028B940F2FC6213A16B
:102E600017A0FEF72DFB4FF0805019490860BFF303
:102E70004F8FBFF36F8F0BE0094800681549096851
:102E8000884203D100200349086001E000F02CF8DB
:102E900070BD0000200000202C0100203800002020
:102EA000FC0300203C0000205C0000202E2E5C462D
:102EB00072656552544F535C7461736B732E63007B
:102EC0004572726F723A2025732C2025640D0A001A
:102ED00004ED00E03000002002480068401C014979
:102EE000086070475C00002010B51B48006818B1EE
:102EF00001201A4908602DE0002018490860184890
:102F00000068B0FA80F0C0F11F0404EB840015499A
:102F100051F8200008B1012000E0002028B940F657
:102F2000014211A115A0FEF7CBFA04EB84010D4A72
:102F300002EB810041684968416000F10801426884
:102F40008A4202D14168496841604168C9680F4AB4
:102F5000116000BF10BD00005C0000204400002094
:102F6000380000202C0100202E2E5C467265655230
:102F7000544F535C7461736B732E63004572726FB0
:102F8000723A2025732C2025640D0A0020000020B1
:102F90001CB5484800684849884201D0012000E03B
:102FA000002028B940F2431244A14FA0FEF788FA4E
:102FB000404800684049491E884201D0012000E095
:102FC000002028B94FF4A2723CA147A0FEF778FA7E
:102FD000494C204600780190FF20214608700846A1
:102FE000007800909DF8000000F0F0009DF80010BF
:102FF000884201D1012000E0002028B940F25D1292
:103000002EA139A0FEF75CFA9DF8000000F05000F8
:103010003A49087007203A49086009E038480068D2
:10302000401E374908609DF800004006000E0090E1
:103030009DF8000000F080008028EFD03048006844
:10304000C0F10700042801D1012000E0002028B9C8
:103050004FF4BD7219A124A0FEF732FA2848006887
:103060000002274908600846008800F4E060086014
:103070002149019808700F482030006840F4700022
:103080000C49203108600846006840F07040086034
:10309000FFF7C4FB00201B490860FDF7A3F81A489E
:1030A000006840F0404018490860FDF787F80020AC
:1030B0001CBD000000ED00E071C20F412E2E5C46E9
:1030C00072656552544F535C706F727461626C65C7
:1030D0005C525644535C41524D5F434D34465C70E4
:1030E0006F72742E630000004572726F723A202571
:1030F000732C2025640D0A0000E400E098000020F5
:103100009C0000209400002034EF00E010B500BFC8
:10311000502080F31188BFF34F8FBFF36F8F00BF34
:1031200000F020FA18B14FF080500449086000BF49
:10313000002080F3118800BF10BD000004ED00E006
:103140002DE9F84305460E4617460024E5B1601EFA
:10315000B0FBF5F0B04217D305FB06F010F14D0FB0
:1031600012D805FB06F909F14C00FFF7A3F8044655
:103170008CB1A04608F14C083B46424631462846F1
:103180000094FEF7D3FC06E02CB94FF4E37203A1E0
:1031900007A0FEF795F92046BDE8F8832E2E5C4681
:1031A00072656552544F535C71756575652E630089
:1031B0004572726F723A2025732C2025640D0A0027
:1031C0002DE9F04105460E4601272C462CB94FF457
:1031D00088722CA130A0FEF773F9002C42D0E06B6E
:1031E00000283FD04FF0FF31E06BB1FBF0F0216CD5
:1031F000884237D3FFF732FAD4E90F12206801FB77
:103200000200A0600020A06320686060E06B401EA8
:10321000226C216800FB0211E160FF2084F8440069
:1032200084F845009EB9206908B9012000E000201B
:10323000A8B904F1100000F0FFFA80B14FF08050FF
:1032400019490860BFF34F8FBFF36F8F07E004F198
:103250001000FFF7CDF904F12400FFF7C9F9FFF7DB
:1032600041FA00E000270FB1012000E0002028B95A
:1032700040F2451203A108A0FEF722F93846BDE846
:10328000F08100002E2E5C4672656552544F535CEF
:1032900071756575652E63004572726F723A2025EF
:1032A000732C2025640D0A0004ED00E02DE9F741A0
:1032B00083B005460E464FF000082C462CB940F26C
:1032C00051524CA150A0FEF7FBF80EB9206C08B982
:1032D000012000E0002028B940F2555245A14AA043
:1032E000FEF7EEF800F028F908B9059808B90120B2
:1032F00000E0002028B940F25A523EA142A0FEF759
:10330000DFF800BFFFF7AAF9A76BF7B131462046F7
:10331000FEF748FB781EA063206908B9012000E091
:10332000002060B904F1100000F086FA38B14FF0C7
:10333000805039490860BFF34F8FBFF36F8FFFF79D
:10334000D1F9012006B0BDE8F081059818B9FFF762
:10335000C9F90020F6E7B8F1000F04D101A8FFF782
:10336000E9FB4FF00108FFF7BDF9FFF7B5FDFFF7E7
:1033700075F994F94400401C10B9002084F8440009
:1033800094F94500401C10B9002084F84500FFF76F
:10339000A9F905A901A800F041F8F0B92046FEF707
:1033A000E9FCA0B104F124000599FFF7D5FB204604
:1033B000FEF737FF00F0DEFA0028A3D14FF080506F
:1033C00015490860BFF34F8FBFF36F8F9AE7204610
:1033D000FEF727FF00F0CEFA94E72046FEF721FF24
:1033E00000F0C8FA2046FEF7C5FC00288AD000206D
:1033F000A8E700002E2E5C4672656552544F535C60
:1034000071756575652E63004572726F723A20257D
:10341000732C2025640D0A0004ED00E070B506460B
:103420000C462EB940F6FB421FA124A0FEF748F837
:103430002CB940F6FC421CA120A0FEF741F8FFF792
:103440000DF9224802687068131A2148006890F844
:10345000510030B100201E49096881F85100012552
:103460001EE02068401C08B9002519E019493068A1
:103470000968884206D07068904203D80125002070
:1034800020600DE02068984207D92068C01A2060AB
:103490003046FFF74FFB002502E0002020600125A9
:1034A000FFF720F9284670BD2E2E5C4672656552E6
:1034B000544F535C7461736B732E63004572726F6B
:1034C000723A2025732C2025640D0A003400002058
:1034D00020000020480000202DE9FF4F85B08046E5
:1034E00089461746DDE912ABB800FEF7E3FE064653
:1034F00056B15420FEF7DEFE04460CB1266304E00C
:103500003046FFF727F900E000247CB10020CDE928
:1035100000ABCDE902403A4649464046089BFEF7DB
:103520001BFB2046FEF776F9012501E04FF0FF3541
:10353000284609B0BDE8F08F0549096809B901209E
:1035400005E00449096809B9022000E0002070473D
:103550003C0000205C000020014908687047000022
:10356000340000202DE9F0414FF000085E4800686B
:1035700000287DD15D480068451C5C480560EDB9B8
:103580005B480068006808B9012000E0002028B905
:1035900040F6C62257A15CA0FDF792FF5448076889
:1035A0005D480068524908605B4807605B480068F6
:1035B000401C5A490860FEF765FD00BF5848006886
:1035C000854277D300BF4A480068006808B90120E7
:1035D00000E0002020B14FF0FF305149086068E062
:1035E00043480068C068C4686668B54202D24C4867
:1035F00006605EE06069D4E902128A60D4E90221C3
:103600004A60211D42688A4201D1E168416000227E
:1036100062610168491E0160A06A98B1A06AD4E99C
:1036200007128A60D4E907214A6004F11801426850
:103630008A4201D1216A41600022A2620168491ECA
:10364000016000BF94F82C100120884035490968BA
:10365000084334490860E16A01EB8101324A02EB18
:1036600081014868A0608268E260211D826800E0F4
:1036700032E051608160E16A01EB81012A4A02EB8C
:1036800081026261E16A01EB8101274A52F821104F
:10369000491CE26A02EB8202234B43F822102349C1
:1036A000E06A0968C96A88428DD34FF001088AE749
:1036B00000E000BF1D480068C06A00EB80001A49A6
:1036C00051F82000012801D94FF00108184800687E
:1036D00008B14FF0010804E016480068401C154985
:1036E00008604046BDE8F0815C0000203400002006
:1036F000240000202E2E5C4672656552544F535CA8
:103700007461736B732E63004572726F723A202579
:10371000732C2025640D0A0028000020480000209A
:1037200050000020380000202C0100202000002044
:10373000440000204000002070B505462C460026BD
:10374000002D5ED030480068844201D1012000E0A5
:10375000002028B941F24D022CA131A0FDF7B0FEA6
:10376000A06C28B941F24E0228A12DA0FDF7A8FEB9
:10377000A06C401EA064616CE06A884241D0A06CDD
:1037800000283ED1201DFEF71FFF40B994F82C10F1
:103790000120884026490968814325480160606C02
:1037A000E062E06AC0F12000A06194F82C100120D2
:1037B00088401F49096808431D490860E16A01EB18
:1037C00081011C4A02EB81014868A0608268E260C6
:1037D000211D826851608160E16A01EB8101154A17
:1037E00002EB81026261E16A01EB8101114A52F848
:1037F0002110491CE26A02EB82020E4B43F82210B0
:103800000126304670BD0000200000202E2E5C46B0
:1038100072656552544F535C7461736B732E630011
:103820004572726F723A2025732C2025640D0A00B0
:10383000380000202C01002070B50646F068C468EE
:103840002CB94FF448623CA140A0FDF739FEA06AB4
:10385000D4E907128A60D4E907214A6004F118010B
:1038600042688A4201D1216A41600022A262016855
:10387000491E01603948006800283DD16069D4E9DB
:1038800002128A60D4E902214A60211D42688A42FC
:1038900001D1E1684160002262610168491E016056
:1038A00094F82C10012088402D49096808432C49C0
:1038B0000860E16A01EB81012A4A02EB8101486854
:1038C000A0608268E260211D826851608160E16AC7
:1038D00001EB8101234A02EB81026261E16A01EBA3
:1038E0008101204A52F82110491CE26A02EB82024F
:1038F0001C4B43F8221010E01B494868E0618268C5
:10390000226204F11801826851608160164AA26245
:1039100011460968491C116000BF1449E06A096832
:10392000C96A884204D9012501201149086000E0D4
:103930000025284670BD00002E2E5C46726565523B
:10394000544F535C7461736B732E63004572726FD6
:10395000723A2025732C2025640D0A005C0000209B
:10396000380000202C010020D4030020200000207B
:103970004400002070B5002400265048006828B993
:1039800040F6B2024EA153A0FDF79AFDFEF766FE87
:103990004A480068401E49490860084600680028F7
:1039A0007ED15048006800287AD05BE04E48C0685D
:1039B000C468A06AD4E907128A60D4E907214A6082
:1039C00004F1180142688A4201D1216A4160002253
:1039D000A2620168491E01606069D4E902128A602E
:1039E000D4E902214A60211D42688A4201D1E1687E
:1039F0004160002262610168491E016094F82C1048
:103A00000120884039490968084338490860E16A5B
:103A100001EB8101364A02EB81014868A0608268AF
:103A2000E260211D826851608160E16A01EB8101E1
:103A30002F4A02EB81026261E16A01EB81012C4AAB
:103A400052F82110491CE26A02EB8202284B43F82B
:103A500022102849E06A0968C96A884202D3012015
:103A6000254908602048006808B9012000E00020CE
:103A700000289BD00CB1FEF705FB2048056865B116
:103A800000BFFFF76FFD10B101201B4908606D1EDC
:103A9000002DF6D10020194908601748006800E0A1
:103AA00008E038B10126300715490860BFF34F8F91
:103AB000BFF36F8FFEF716FE304670BD5C0000202E
:103AC0002E2E5C4672656552544F535C7461736B65
:103AD000732E63004572726F723A2025732C202575
:103AE000640D0A0030000020D403002038000020BC
:103AF0002C01002020000020440000204000002075
:103B000004ED00E02DE9F0410646002734462EB9C9
:103B100040F287722FA134A0FDF7D2FCFEF792FE8F
:103B200000BF5020EFF3118180F31188BFF34F8F56
:103B3000BFF36F8F00BF0D462046FEF72BFB00281A
:103B400041D02D480068002838D12C49E06A096826
:103B5000C96A884203D30127012029490860201D32
:103B6000FEF732FD94F82C100120884025490968A1
:103B7000084324490860E16A01EB8101224A02EB13
:103B800081014868A0608268E260211D82685160FE
:103B90008160E16A01EB81011B4A02EB81026261F3
:103BA000E16A01EB8101184A52F82110491CE26ACE
:103BB00002EB8202144B43F8221004E004F11801D6
:103BC0001248FEF73FFD00BF85F3118800BF38465D
:103BD000BDE8F0812E2E5C4672656552544F535CF1
:103BE0007461736B732E63004572726F723A202595
:103BF000732C2025640D0A005C00002020000020AA
:103C000044000020380000202C010020D4030020B4
:103C10001CB50024FDF770FE0B48006858B10B4836
:103C20001F2100234FF48072CDE9001008A10A483B
:103C3000FFF752FC04462CB940F2191207A10DA05F
:103C4000FDF73EFC20461CBD680000206C000020F3
:103C5000546D722053766300092200082E2E5C46B4
:103C600072656552544F535C74696D6572732E634F
:103C7000000000004572726F723A2025732C2025D7
:103C8000640D0A00000000000000000001020304AF
:103C9000060708090000000001020304BC3C0008FC
:103CA00000000020A400000018150008603D000876
:103CB000A4000020942F0000281500080000000038
:103CC00000000000000000000000000000000000F4
:103CD00010000000010000000024F40000000000BB
:103CE00000000000000000000000000000000000D4
:103CF00000000000000000000000000000000000C4
:103D000000000000000000000000000000000000B3
:103D1000000000001F000000000000000000000084
:103D20000000000000000000000000000000000093
:103D30000000000000000000000000000000000083
:103D40000000000000000000000000000000000073
:103D5000AAAAAAAA000000000000000000000000BB
:040000050800018965
:00000001FF
