:020000040800F2
:10000000E83400208102000865290008F321000877
:10001000612900080704000899300008000000006A
:10002000000000000000000000000000C101000806
:10003000D5040008000000001D020008012A000885
:100040009B0200089B0200089B0200089B0200081C
:100050009B0200089B0200089B0200089B0200080C
:100060009B0200089B0200089B0200089B020008FC
:100070009B0200089B0200089B0200089B020008EC
:100080009B0200089B0200089B0200089B020008DC
:100090009B0200089B0200089B0200089B020008CC
:1000A0009B0200089B0200089B0200089B020008BC
:1000B0009B020008E52A0008F52A00089B020008B8
:1000C0009B0200089B0200089B0200089B0200089C
:1000D0009B020008893000089B0200089B02000870
:1000E0009B0200089B0200089B0200089B0200087C
:1000F0009B0200089B0200089B0200089B0200086C
:100100009B0200089B0200089B0200089B0200085B
:100110009B0200089B0200089B0200089B0200084B
:100120009B0200089B0200089B0200089B0200083B
:100130009B0200089B0200089B0200089B0200082B
:100140009B0200089B0200089B0200089B0200081B
:100150009B0200089B0200089B0200089B0200080B
:100160009B0200089B0200089B0200089B020008FB
:100170009B0200089B0200089B0200080000000090
:100180009B0200089B0200089B0200089B020008DB
:100190009B0200089B0200089B0200089B020008CB
:1001A0009B0200089B0200089B020008DFF80CD0AD
:1001B00000F0ECF80048004759360008E834002009
:1001C0002C4B19680868B0E8F04F80F30988BFF33A
:1001D0006F8F4FF0000080F311887047000000001F
:1001E00008480068006880F308884FF0000080F33A
:1001F000148862B661B6BFF34F8FBFF36F8F00DF15
:1002000000BF00BF08ED00E0DFF80C00016841F41A
:1002100070010160704700BF88ED00E0EFF30980D6
:10022000BFF36F8F134B1A681EF0100F08BF20ED3D
:10023000108A20E9F04F106009B44FF0500080F3AD
:100240001188BFF34F8FBFF36F8F05F013FD4FF091
:10025000000080F3118809BC19680868B0E8F04F05
:100260001EF0100F08BFB0EC108A80F30988BFF3AE
:100270006F8F70475C000020EFF30580704700002F
:100280000648804706480047FEE7FEE7FEE7FEE730
:10029000FEE7FEE7FEE7FEE7FEE7FEE7D12A0008FD
:1002A000AD0100082DE9F05F0546002092469B460F
:1002B00088460646814640241BE02846414647467C
:1002C000224600F053F853465A46C01A914110D3C3
:1002D00011461846224600F03AF82D1A67EB01083D
:1002E0004F4622460120002100F031F817EB0009AB
:1002F0004E41201EA4F10104DFDC484631462A4667
:100300004346BDE8F09F40EA01039B0703D009E0A4
:1003100008C9121F08C0042AFAD203E011F8013BF1
:1003200000F8013B521EF9D27047D2B201E000F84A
:10033000012B491EFBD270470022F6E710B5134689
:100340000A4604461946FFF7F0FF204610BD202A52
:1003500004DB203A00FA02F1002070479140C2F11C
:10036000200320FA03F3194390407047202A04DB4E
:10037000203A21FA02F00021704721FA02F3D0401E
:10038000C2F120029140084319467047064C074DC0
:1003900006E0E06840F0010394E807009847103455
:1003A000AC42F6D3FFF706FFD48D0008F48D0008A9
:1003B00070B58C1810F8015B15F0070301D110F827
:1003C000013B2A1106D110F8012B03E010F8016B54
:1003D00001F8016B5B1EF9D12B0705D40023521ED7
:1003E0000DD401F8013BFAE710F8013BCB1A921C3F
:1003F00003E013F8015B01F8015B521EF9D5A1423D
:10040000D8D3002070BD00BFFEE700002DE9F04703
:10041000089F044616460D469C46DFF8B080D8F883
:10042000008028F00108DFF8A490C9F80080C846D1
:10043000D8F8008048F44038C9F800804FF002082E
:10044000C9F834804FF4806808FB0548DFF88090D5
:100450004FF0020A0AFB0898DFF87090C9F83C8058
:10046000A6EB040808F10108C8F58068C9F84080C7
:10047000ACEB050808F10108A6EB040909F1010934
:1004800048EA0948DFF84490C9F84480C846C8F8EB
:100490003870D8F8008048F00108C9F8008000BF23
:1004A000DFF82880D8F8048008F00208B8F1000FBF
:1004B000F6D0DFF81880D8F8088048F00208DFF896
:1004C0000C90C9F80880BDE8F087000000B0024039
:1004D000000000C0704772B600BFFEE70246086821
:1004E000B0B9D1E901031843CB6818430B6918432D
:1004F0004B6918438B691843CB6918430B6A18433F
:100500004B6A184313686FF30E031843106019E029
:10051000D1E9070318434B6A1843136823F4F843DF
:1005200018431060D1E901031843CB6818430B69E5
:1005300018434B6918438B69184353686FF30E03D4
:1005400018435060002070470246506943F6FE731E
:10055000984340EA41005061002070472DE9F04186
:1005600005460C4616460027D4E900010843A16859
:10057000491E40EA4110E16840EA412029696FF3D1
:1005800015010843286100F04FFA07460AE0701C85
:1005900040B126B100F048FAC01BB04202D9032096
:1005A000BDE8F081A86900F020002028EFD00020ED
:1005B000F6E7000030B50346FAB90868401E4C68FB
:1005C000641E40EA04148868401E44EA0024C86897
:1005D000401E44EA0034088A401E44EA0044888AE7
:1005E000401E44EA0054087E401E44EA00609C68B5
:1005F00004F070442043986022E0C868401E040361
:10060000888A401E44EA00509C680E4D2C402043CE
:1006100098600868401E4C68641E40EA04148868AC
:10062000401E44EA0024088A401E44EA0044087E32
:10063000401E44EA0060DC6804F070442043D86047
:10064000002030BDFF0F0FFF70B50446A56D00F010
:10065000EBF9064694F83500022808D08020606542
:1006600000BF002084F8340000BF012070BD206866
:10067000006820F01600216808602068406920F0BA
:10068000800021684861206C08B9A06C28B12068FE
:10069000006820F00800216808602068006820F0E9
:1006A00001002168086010E000F0BEF9801B0528F9
:1006B0000BD920206065032084F8350000BF00209E
:1006C00084F8340000BF0320D0E72068006800F001
:1006D00001000028E8D194F85C103F208840A86011
:1006E000012084F8350000BF002084F8340000BFEA
:1006F00000BFBBE7014691F83500022803D08020F7
:10070000486501207047052081F8350008680068B9
:1007100020F001000A6810600020F3E700B587B000
:10072000142102A8FFF708FE3148006808B107B09D
:1007300000BD01202E49086000BF002001902D4817
:10074000006840F001002B4908600846006800F08E
:100750000100019000BF00BF4FF63F000290022051
:10076000039000200490032005900C20069002A91D
:10077000214800F04BF80D20029002200390002049
:100780000490032005900C20069002A91B4800F05D
:100790003DF848F2371002900220039000200490A8
:1007A000032005900C20069002A9154800F02EF8B1
:1007B0004FF68370029002200390002004900320E3
:1007C00005900C20069002A90E4800F01FF84CF28C
:1007D00003700290022003900020049003200590F3
:1007E0000C20069002A9084800F010F800BF9EE710
:1007F000180000203838024000140240000802406F
:100800000018024000100240000C0240F8B50246F9
:100810000B460025002400200021E0E0012606FA16
:1008200001F51E6806EA0504AC4274D11E7906F093
:100830000306012E04D01E7906F00306022E13D102
:1008400090684F000326BE40B0434F00DE68BE40B4
:1008500030439060506801268E40B0431E79C6F345
:1008600000168E40304350601E7906F00306032EBA
:1008700009D0D0684F000326BE40B0434F009E68A9
:10088000BE403043D0601E7906F00306022E13D11D
:10089000CF0802F1200656F827004E07F70E0F2664
:1008A000BE40B0434F07FF0E1E69BE403043CF0825
:1008B00002F1200646F8270010684F000326BE40CC
:1008C000B0431E7906F003064F00BE40304310606F
:1008D0005E6806F44036002E1DD000BF002600964C
:1008E000414E366846F480463F4F3E603E4636688D
:1008F00006F48046009600BF00BF3C4E8F0856F8B5
:1009000027008E07370F0F26BE40B043384EB24245
:1009100002D100262EE061E0364EB24201D101261E
:1009200028E0354EB24201D1022623E0334EB242D6
:1009300001D103261EE0324EB24201D1042619E055
:10094000304EB24201D1052614E02F4EB24201D101
:1009500006260FE02D4EB24201D107260AE02C4EAA
:10096000B24201D1082605E02A4EB24201D1092641
:1009700000E00A268F073F0FBE4030431B4E8F0812
:1009800046F82700244E3068A0435E6806F48016BF
:1009900006B12043204E3060361D3068A0435E68AB
:1009A00006F4001606B120431B4E361D30601A4E69
:1009B000361F3068A0435E6806F4003606B1204357
:1009C000154E361F3060361F3068A0435E6806F44F
:1009D000803606B12043104E083E3060491C102975
:1009E000FFF41CAFF8BD0000443802400838014055
:1009F000000002400004024000080240000C0240D7
:100A0000001002400014024000180240001C024086
:100A10000020024000240240083C01400AB18161EC
:100A200001E00B04836170470148006870470000D3
:100A30002000002003480068034909780844014960
:100A400008607047200000202800002010B50D48E5
:100A5000006840F400700B4908600846006840F4E4
:100A6000806008600846006840F4807008600320D9
:100A700000F0EEF90F2000F007F800F077F9002001
:100A800010BD0000003C024070B504460E480078DE
:100A90004FF47A71B1FBF0F00C490968B1FBF0F545
:100AA000284600F0B7FF08B1012070BD102C07D216
:100AB00000222146501E00F08DF90548046001E037
:100AC0000120F2E70020F0E7280000202C000020A1
:100AD0002400002070B504460E46154600BF94F869
:100AE000A000012801D1022070BD012084F8A000DF
:100AF00000BF022084F8A10005EB850101EBC502CF
:100B000004F1380101EB820034223146FFF7FBFB90
:100B10002A463146204601F07FFB012021684862C9
:100B200084F8A10000BF002084F8A00000BF00BF2F
:100B3000DAE7000070B50446204600F075F820683A
:100B4000806920F0704021688861D4E90101084380
:100B5000E1680843216908432168896908432168DD
:100B60008861206880682F49084021688860A08AD1
:100B7000050420688068A1692943084321688860CA
:100B80002068C068274908402168C860A08B050418
:100B90002068C068216A294308432168C86020682A
:100BA00000692049084021680861A08C050420687C
:100BB0000069A16A294308432168086120684069E7
:100BC0001849084021684861A08D050420684069E3
:100BD000216B294308432168486194F835000502D8
:100BE00094F8360006042068C06A00F07F4021684F
:100BF000C86246EA050094F8341008432168C96ABF
:100C000008432168C8622068406B40F006002168F4
:100C100048632068806940F00100216888610020F5
:100C200070BD000000F800F010B592B0044630210D
:100C300006A8FFF781FB0820069078200A90022181
:100C40000C9100200F9006A800F05CF908B100BFDD
:100C5000FEE700BF002000903F48006840F0806041
:100C60003D4908600846006800F08060009000BFC1
:100C700000BF00BF0020009037481438006840F4DF
:100C800080703549143908600846006800F48070A7
:100C9000009000BF00BF00BF002000900846006821
:100CA00040F0200008600846006800F02000009036
:100CB00000BF00BF00BF002000900846006840F061
:100CC000800008600846006800F08000009000BFC7
:100CD00000BF00BF002000900846006840F04000C0
:100CE00008600846006800F04000009000BF00BFA8
:100CF000142101A8FFF720FB40F2E76001900220D9
:100D0000029001200390032004900E20059001A979
:100D10001248FFF77BFD4FF48060019001A9104855
:100D2000FFF774FD4FF47E40019001A90D48FFF7D5
:100D30006DFD4FF40C60019001A90B48FFF766FDB3
:100D40004FF4805001900920059001A90648FFF753
:100D50005DFD12B010BD000044380240002002408A
:100D600000140240001C02400018024008B500BFF9
:100D7000002000900E48006840F480400C49086054
:100D80000846006800F48040009000BF00BF00BF2C
:100D900000200090081F006840F08050091F086084
:100DA0000846006800F08050009000BF00BF08BDFA
:100DB0004438024001460846002809DB00F01F03C2
:100DC00001229A4043099B0003F1E023C3F800216C
:100DD00000BF70472DE9F05F80460D46164600279C
:100DE00002F06CF9074639462A46334601F00700FF
:100DF000C0F1070ABAF1040F02D94FF0040A01E06A
:100E0000C0F1070AD14600F1040ABAF1070F02D275
:100E10004FF0000A01E0A0F1030AD4464FF0010AA6
:100E20000AFA09FAAAF1010A0AEA020A0AFA0CFA0B
:100E30004FF0010B0BFA0CFBABF1010B0BEA030BB0
:100E40004AEA0B042146404602F040F9BDE8F09F13
:100E500000BF00F00702064B19684FF6FF03194068
:100E6000044B0B4343EA0221014B196000BF70475A
:100E70000CED00E00000FA0538B5002400BF0020AA
:100E800000901D48006840F080501B4908600846EB
:100E9000006800F08050009000BF00BF012017499B
:100EA0000864FFF7C1FD044607E0FFF7BDFD001B26
:100EB000B0F57A7F01D9032038BD1148406800F4AD
:100EC0008030B0F5803FF0D101200C494864FFF735
:100ED000ABFD044607E0FFF7A7FD001BB0F57A7FE6
:100EE00001D90320E8E70648406800F40030B0F577
:100EF000003FF0D10020DFE74038024000000E4202
:100F000000700040F8B5044600250026207800F067
:100F1000010048B9207800F00200022804D02078AF
:100F200000F04000402862D10020B1498866FFF7F8
:100F30007BFD054606E0FFF777FD401B022801D93F
:100F40000320F8BDAB480068C0F3C0600028F2D1B0
:100F5000207800F0010038B160688101207A41EA10
:100F60000070A44984310860207800F00200022853
:100F700019D1A04884300068C0F30276606881010E
:100F8000207B41EA006040EA06709A49843108609B
:100F900098488C30006820F01F00E169491E084322
:100FA00094498C310860207800F0400040280AD134
:100FB00060688101207B41EA0061207A41EA00708B
:100FC0008C4984310860012089498866FFF72CFD2F
:100FD000054606E0FFF728FD401B022801D9032043
:100FE000AFE784480068C0F3C0600028F2D02078E2
:100FF00000F00400042804D0207800F0080008283D
:1010000063D100207A490867FFF70EFD054606E028
:10101000FFF70AFD401B022801D9032091E775481C
:101020000068C0F340700028F2D1207800F004007E
:10103000042819D16F4888300068C0F3027620690F
:101040008101207D41EA006040EA067069498831EB
:101050000860081D006820F4F851206A401E41EA2B
:10106000002064498C310860207800F008000828CE
:1010700017D1604888300068C0F30366206980019A
:1010800040EA0661207E41EA00705A4988310860D2
:10109000081D006820F44030616A084355498C31CE
:1010A0000860012052490867FFF7BEFC054606E0CC
:1010B000FFF7BAFC401B022801D9032041E74D4845
:1010C0000068C0F340700028F2D0207800F02000C3
:1010D00020287DD100BF00200090464840300068A5
:1010E00040F080504349403108600846006800F0F5
:1010F0008050009000BF00BF3F48006840F48070FF
:101100003D490860FFF790FC054606E0FFF78CFCC0
:10111000401B022801D9032013E73748006800F478
:1011200080700028F2D033487030006800F44076B8
:101130004EB3208D00F44070B04224D02D48703062
:10114000006820F4407601202C49086000200860E7
:10115000284870300660006800F0010098B1FFF781
:1011600063FC054608E0FFF75FFC401B41F2883155
:10117000884201D90320E4E61E4870300068C0F3BD
:1011800040000028EFD000BF208D00F44070B0F583
:10119000407F0CD117480830006820F4F810184A36
:1011A000A16A1140084313490831086007E011485B
:1011B0000830006820F4F8100E49083108600D4826
:1011C00070300068218DC1F30B010843094900E02C
:1011D00002E07031086000BF207800F01000102895
:1011E00003D194F82C00074908600020A9E600000C
:1011F000000047420038024000700040400E474265
:10120000FFFCFF0FE011474270B504460D460CB9D4
:10121000012070BD5848006800F00F00A84209D2B4
:1012200055490D700846006800F00F00A84201D033
:101230000120EEE7207800F0020002281DD120787E
:1012400000F00400042805D14C48006840F4E05048
:101250004A490860207800F00800082805D147486E
:10126000006840F46040454908604448006820F048
:10127000F000A168084341490860207800F00100AF
:10128000A8B36068012807D13C4808380068C0F35B
:101290004040B8B90120BCE76068022802D060680D
:1012A000032807D1354808380068C0F3406048B9C2
:1012B0000120AEE7314808380068C0F3400008B9A3
:1012C0000120A6E72D48006820F00300616808436C
:1012D0002A490860FFF7A8FB064609E0FFF7A4FBD0
:1012E000801B41F28831884202D9032091E707E050
:1012F0002248006800F00C006168B0EB810FEDD16E
:101300001D48006800F00F00A84209D91A490D7065
:101310000846006800F00F00A84201D0012078E7DD
:10132000207800F00400042807D11448006820F455
:10133000E050E168084311490860207800F0080097
:10134000082808D10D48006820F46040216940EA6F
:10135000C1000A49086000F03FF808490968C1F374
:101360000311074A515CC8400649086006480068F6
:10137000FFF78AFB00204CE7003C0240083802409F
:101380005E8C00082C00002024000020014800682A
:10139000704700002C00002000B5FFF7F7FF04495C
:1013A0000968C1F38221034A515CC84000BD0000B6
:1013B000083802406E8C000800B5FFF7E7FF0449CB
:1013C0000968C1F34231034A515CC84000BD0000C6
:1013D000083802406E8C00082DE9F04700240025F3
:1013E0000026A1462548006800F00C0020B1042822
:1013F00005D008283AD105E0DFF8849039E0DFF81D
:10140000849036E01D48001F006800F03F041B4830
:10141000001F006800F4800078B11A481749091FBE
:101420000968C1F38811A0FB017001462246002320
:101430003846FEF737FF05460EE011480F49091FF1
:101440000968C1F38811A0FB017001462246002300
:101450003846FEF727FF05460848001F0068C0F31E
:101460000140401C4600B5FBF6F902E0DFF81090A1
:1014700000BF00BF4846BDE8F087000008380240C2
:101480000024F40040787D01F8B504460CB9012031
:10149000F8BD207800F00100002874D0F9480068F9
:1014A00000F00C0004280DD0F648006800F00C0095
:1014B000082813D1F348001F006800F48000B0F53D
:1014C000800F0BD1EF4808380068C0F34040002877
:1014D00059D06068002856D10120D9E700BF606864
:1014E000B0F5803F08D1E7480838006840F4803004
:1014F000E449083908601EE06068B0F5A02F0DD1FE
:10150000E0480838006840F48020DE490839086067
:101510000846006840F4803008600CE0D94808387C
:10152000006820F48030D749083908600846006810
:1015300020F48020086000BF606890B1FFF774FA63
:10154000054606E0FFF770FA401B642801D9032026
:101550009EE7CC4808380068C0F340400028F1D02E
:1015600011E0FFF761FA054606E0FFF75DFA401B60
:10157000642801D903208BE7C24808380068C0F30B
:1015800040400028F1D1207800F0020002285FD10D
:10159000BC48006800F00C0058B1BA48006800F080
:1015A0000C0008281CD1B748001F006800F4800018
:1015B000B0B9B44808380068C0F3400020B1E06812
:1015C000012801D0012063E7AE480838006820F008
:1015D000F800216940EAC100AA490839086037E0EB
:1015E000E06800B30120A8490860FFF71DFA05462E
:1015F00006E0FFF719FA401B022801D9032047E74C
:10160000A04808380068C0F340000028F1D09D4889
:101610000838006820F0F800216940EAC1009949C3
:101620000839086014E0002097490860FFF7FCF9CA
:10163000054606E0FFF7F8F9401B022801D9032010
:1016400026E7904808380068C0F340000028F1D130
:10165000207800F0080008282CD16069A8B101208A
:101660008A490860FFF7E0F9054606E0FFF7DCF974
:10167000401B022801D903200AE782486C30006829
:10168000C0F340000028F1D014E000207F4908603A
:10169000FFF7CAF9054606E0FFF7C6F9401B022826
:1016A00001D90320F4E677486C300068C0F34000AD
:1016B0000028F1D1207800F00400042870D1002720
:1016C00070483830006800F0805090B900BF0020AA
:1016D00000906C483830006840F0805069493831DB
:1016E00008600846006800F08050009000BF00BF0E
:1016F00001276748006800F48070B0B9644800684A
:1017000040F4807062490860FFF78EF9054606E0F4
:10171000FFF78AF9401B022801D90320B8E65C488C
:10172000006800F480700028F2D000BFA068012893
:1017300008D154486830006840F0010051496831D0
:1017400008601DE0A06805280DD14E48683000688B
:1017500040F004004B49683108600846006840F0DA
:10176000010008600CE047486830006820F0010084
:101770004449683108600846006820F004000860A9
:1017800000BFA068A8B1FFF74FF9054609E0FFF7D1
:101790004BF9401B41F28831884202D9032077E699
:1017A00026E0384868300068C0F340000028EED0DA
:1017B00013E0FFF739F9054608E0FFF735F9401B5C
:1017C00041F28831884201D9032061E62D48683012
:1017D0000068C0F340000028EFD1012F07D129484D
:1017E0003830006820F0805026493831086000BF4A
:1017F000A069002845D02348006800F00C000828A4
:101800005DD0A069022845D100201F490866FFF776
:101810000BF9054606E0FFF707F9401B022801D93E
:10182000032035E6174808380068C0F340600028F8
:10183000F1D1D4E907010843616A40EA811101222C
:10184000A06AC2EB500041EA00412C20005D41EA51
:1018500000600C49091F086001200B490866FFF76A
:10186000E3F8054606E0FFF7DFF8401B022801D940
:1018700003200DE6034808380068C0F340600028E4
:10188000F1D049E00838024000004742800E47424C
:1018900000700040002021490866FFF7C5F80546A2
:1018A00006E0FFF7C1F8401B022801D90320EFE54D
:1018B0001B480068C0F340600028F2D12CE0A0690A
:1018C000012800D1E4E51648001D0668A06901283A
:1018D00020D006F48001E06981421BD106F03F016F
:1018E000206A814216D147F6C0703040616AB0EB81
:1018F000811F0FD106F440310122A06AC2EB5000D3
:10190000B1EB004F06D106F070612C20005DB1EB09
:10191000006F01D00120BBE50020B9E5000047427F
:101920000038024070B504460D4694F82C0028B9E2
:10193000002084F82D00204600F011F8022084F8E1
:101940002C00211D2068FEF7C9FD2946D4E90002BC
:10195000FEF730FE012084F82C00002070BD10B589
:101960000446FEF7DBFE10BD70B504460D4694F844
:101970002C00022800D170BD94F82C0001280AD157
:10198000022084F82C0029462068FEF7DDFD0120A6
:1019900084F82C0001E00120EDE70020EBE72DE9C1
:1019A000F04104460E46174694F82C50022D02D101
:1019B0000220BDE8F081012D01D0052D12D10220B9
:1019C00084F82C003A4631462068FEF7C7FD30689F
:1019D000022803D1052084F82C0005E0012084F8BA
:1019E0002C0001E00120E4E70020E2E7042808D110
:1019F0004FF0E021096941F004014FF0E02211614C
:101A000007E04FF0E021096921F004014FF0E022E6
:101A10001161704770B504462546681EB0F1807F9D
:101A200001D301200FE0681E4FF0E02148610F2133
:101A30004FF0FF3001F04AFB00204FF0E0218861B9
:101A400007200861002070BD7047704710B504463C
:101A50000CB9012010BD94F83D0028B9002084F88D
:101A60003C00204600F026F8022084F83D00211DAD
:101A7000206801F061F8012084F8460000BF84F876
:101A80003E0001213F2001554020015541200155D4
:101A900000BF00BF012084F84200432001554420CC
:101AA00001554520015500BF012084F83D0000206C
:101AB000D0E7000038B504460F492068884219D1A4
:101AC00000BF00BF002000900C48006840F00200FA
:101AD0000A4908600846006800F00200009000BF54
:101AE00000BF00BF002204211D20FFF773F91D2055
:101AF000FFF760F938BD00000004004040380240A4
:101B0000014691F83D00012801D0012070470220D4
:101B100081F83D000868C06840F001000B68D8609B
:101B20001A4B086898421BD00868B0F1804F17D054
:101B3000174B0868984213D0164B086898420FD08C
:101B4000154B086898420BD0144B0868984207D090
:101B5000134B0868984203D0124B086898420CD186
:101B60000868806800F00702062A0CD00868006840
:101B700040F001000B68186005E00868006840F05C
:101B800001000B6818600020C0E700000000014061
:101B90000004004000080040000C00400004014028
:101BA0000040014000180040704770B504462068AE
:101BB000C5682068066906F00200022819D105F000
:101BC0000200022815D1401F2168086101202077FA
:101BD0002068806900F0030018B12046FFF7E4FF99
:101BE00005E0204600F097F8204600F095F8002028
:101BF000207706F00400042819D105F00400042819
:101C000015D1C043216808610220207720688069CF
:101C100000F4407018B12046FFF7C6FF05E02046EB
:101C200000F079F8204600F077F80020207706F0E1
:101C30000800082819D105F00800082815D1C0436C
:101C400021680861042020772068C06900F0030043
:101C500018B12046FFF7A8FF05E0204600F05BF82A
:101C6000204600F059F80020207706F010001028D8
:101C700019D105F01000102815D1C0432168086162
:101C8000082020772068C06900F4407018B1204611
:101C9000FFF78AFF05E0204600F03DF8204600F0FF
:101CA0003BF80020207706F0010048B105F0010064
:101CB00030B16FF0010021680861204600F02EF875
:101CC00006F08000802809D105F08000802805D129
:101CD000C043216808612046FFF7B6FE06F04000C9
:101CE000402809D105F04000402805D1C0432168B3
:101CF0000861204600F020F806F02000202809D1D5
:101D000005F02000202805D1C04321680861204645
:101D1000FFF79BFE70BD7047704700000449884282
:101D200004D104490968491C024A11607047000047
:101D30000C0500201C000020704770477047000011
:101D40002DE9F84F0446206805682068C6682068B9
:101D500047694FF00009CA4605F00F09B9F1000FB5
:101D60000AD105F0200038B106F0200020B120464D
:101D700000F0A6FFBDE8F88FB9F1000F7CD007F0A6
:101D8000010018B906F49070002875D005F0010024
:101D900030B106F4807018B1606C40F001006064EE
:101DA00005F0040030B107F0010018B1606C40F09C
:101DB0000200606405F0020030B107F0010018B1C4
:101DC000606C40F00400606405F0080048B106F063
:101DD000200010B907F0010018B1606C40F0080055
:101DE0006064606C002846D005F0200028B106F041
:101DF000200010B1204600F063FF20684069C0F366
:101E0000801A606C00F0080010B9BAF1000F2DD0F4
:101E1000204600F00FFF2068406900F04000402895
:101E200020D100BF00BF2168143151E8001F21F00C
:101E300040002168143141E80002002AF3D100BFBC
:101E4000E06B50B17748E16B0865E06BFEF752FC40
:101E500088B1E06B016D88470DE02046FFF76EFF0B
:101E600009E009E02046FFF769FF04E02046FFF79C
:101E700065FF002060647DE7206B012878D105F0C4
:101E80001000002874D006F010000028FAD000BF1F
:101E90000020009020680068009020684068009052
:101EA00000BF00BF2068406900F04000402860D1BA
:101EB000E06B006840681FFA80F8B8F1000F56D058
:101EC000A08D404553DDA4F82E80E06BC069B0F5CD
:101ED000807F43D000BF00BF21680C3151E8001F54
:101EE00021F4807021680C3141E80002002AF3D10E
:101EF00000BF00BF00BF2168143151E8001F21F06E
:101F000001002168143141E80002002AF3D100BF2A
:101F100000BF00BF2168143151E8001F21F04000CC
:101F20002168143141E80002002AF3D100BF2020CB
:101F300084F842000020206300BF00BF21680C31FC
:101F400051E8001F21F0100021680C3141E8000227
:101F5000002AF3D100BFE06BFEF776FB022060633E
:101F6000A08DE28D801A81B22046FFF7E6FE01E7E0
:101F700042E0A08DE18D401A1FFA80F8E08DD0B3C9
:101F8000B8F1000F37D000BF00BF21680C3151E815
:101F9000001F21F4907021680C3141E80002002AF2
:101FA000F3D100BF00BF00BF2168143151E8001F0A
:101FB00021F001002168143141E80002002AF3D128
:101FC00000BF202084F842000020206300BF00BF33
:101FD00021680C3151E8001F21F0100021680C31FC
:101FE00041E80002002AF3D100BF022060634146AD
:101FF0002046FFF7A2FEBDE605F0800030B106F0F6
:10200000800018B1204601F00FF8B3E605F040005B
:1020100030B106F0400018B1204600F041FEA9E6BC
:1020200000BFA7E6212C000810B504460CB901201A
:1020300010BDA06900B100E000BF94F8410028B9CC
:10204000002084F84000204600F02AF8242084F87C
:1020500041002068C06820F400502168C860204614
:1020600000F0ACFE2068006920F49040216808610F
:102070002068406920F02A00216848612068C06813
:1020800040F400502168C86000206064202084F87B
:10209000410084F842000020606300BFC8E70000F0
:1020A00010B586B00446142101A8FEF745F91B4976
:1020B0002068884230D100BF002000901848006896
:1020C00040F01000164908600846006800F0100053
:1020D000009000BF00BF00BF0020009010481438DF
:1020E000006840F001000E49143908600846006895
:1020F00000F00100009000BF00BF4FF4C0600190ED
:1021000002200290002003900320049007200590F5
:1021100001A90448FEF77AFB06B010BD001001408B
:10212000443802400000024070B504460D46164691
:1021300094F8420020280BD105B10EB9012070BDE2
:102140000020206332462946204600F04DFFF6E786
:102150000220F4E710B504462049206888423CD1AB
:102160001F48008800F4004090BB1D48008800F420
:10217000804070B11B4800780A2803D0002018491D
:10218000088025E01648008840F400401449088083
:102190001EE0144800780D2806D11148008840F44C
:1021A00080400F49088013E00E4800780C490988E8
:1021B000C1F30D010C4A505409480088401C0849DD
:1021C000088008460088B0F5FA7F01DB002008800F
:1021D000012204490548FFF7A7FF10BD0010014088
:1021E00010000020120000203C020020F40100201A
:1021F000704700BFFEE7000018B5044640F25723C1
:1022000040F2FF32002108460094FEF7FFF8014833
:10221000048018BD14000020F0B58E880768FF68A0
:10222000C7F30B473E44330406688436802707FB18
:102230000266766806F47047066884364FF0800CB4
:102240000CFB026677600E680768FF68C7F30B47F0
:102250003E44761C1E43076884370CFB02777E6081
:102260008E890768FF68C7F30A073E44330406688F
:102270008436802707FB0266B66806F47047066856
:1022800084360CFB0266B7608E680768FF68C7F388
:102290000A073E44761C46EA0307066884360CFBB0
:1022A0000266B76006688436802707FB02663669D7
:1022B00026F00707066884360CFB026637610F6953
:1022C000066884360CFB026637613126765C330281
:1022D0003226765C34040E7E350606688436802706
:1022E00007FB0266B6690027066884360CFB0266A7
:1022F000B76191F830601E43264346EA0507066839
:1023000084360CFB0266B76106688436802707FBBB
:102310000266766926F0FF07066884360CFB0266C3
:1023200077614F69066884360CFB02667761066840
:102330008436802707FB0266F66940F20777BE43C2
:10234000076884370CFB0277FE61D1E907763743D3
:10235000066884360CFB0266F761066884368027BF
:1023600007FB0266B66A0027066884360CFB026625
:10237000B7624F6A066884360CFB0266B7620E6964
:102380000EB9042313E00E69012E01D103230EE0E0
:102390000E69042E08D00E69022E05D00E69032E98
:1023A00002D00E69072E01D1022300E00123066846
:1023B0008436802707FB0266F66A06F0E027066887
:1023C00084364FF0800C0CFB0266F762D1E9007690
:1023D000F61B5E43F61C0F8D5F4346EA074706680F
:1023E00084360CFB0266F76206688436802707FB9A
:1023F0000266366BF70AFF02066884360CFB02663B
:102400003763CF6A066884360CFB0266376306685A
:102410008436D701F65946F00107066884364FEA3C
:10242000C21C46F80C70F0BD2DE9F84F0446154665
:102430000F461A464FEAE37B03EB5B7B4FEAEB0B5D
:102440009C464FEAE37E03EB5E7E4FEAEE0EA3EB83
:10245000CE0EBEF1000F02D04FF0010E01E04FF0A2
:10246000000EF3449A4603EBD37E4FEA6E0E0BFB4D
:102470000EFB0BF0FF0BCDF800B0A5F12002D5B29A
:102480000C2B06D105EB4502DFF808C10CEB8206E8
:1024900010E0102B03D1404A02EB05160AE0182B7E
:1024A00006D105EBC502DFF8F4C00CEB820601E0B3
:1024B000BDE8F88F002068E016F800804FF00009B2
:1024C0005DE008F080024AB14FF4806C0CFB014CD7
:1024D000DFF8CCA00A9A2AF81C200BE00B9A4AB924
:1024E000304A12884FF4806C0CFB014CDFF8B0A02E
:1024F0002AF81C204FEA48624FEA12684A1C91B23F
:10250000B1F5167F2CDB3946621C94B2182B12D120
:10251000032290FBF2FC02FB1C0212B9821CD0B217
:1025200019E0032290FBF2FC02FB1C02012A12D1EB
:10253000421CD0B20FE0102B01D00C2B0BD1024665
:1025400000EBD27C4FEA6C0CA0EB4C0CBCF1000F02
:1025500001D1421CD0B2B4F5806F00DBA8E711E0D6
:10256000CA1B9A4207D13946621C94B2B4F5806FF7
:1025700000DB9DE706E009F1010202F0FF09B9F175
:10258000080F9EDB00BF421CD0B2009A904293DB42
:1025900000BF8DE7E4690008586E00084874000821
:1025A000000000C0140000202DE9FE4F04460D4637
:1025B000904699460CAE96E8C00CE0B2029008EB4B
:1025C00004001FFA80F809EB05001FFA80F916E0F5
:1025D000444502DB029CA81985B24D4500DB14E09E
:1025E000CDE900AB3A78334629462046FFF71CFF79
:1025F000304606EBD07104EB61018CB27F1C387859
:102600007E2802DC38782028E2DA00BFBDE8FE8FA1
:1026100010B58EB00446342101A8FDF78DFE0020D0
:1026200001904FF480600290002003904FF41670E8
:10263000049002200590FF2006904FF480600890DF
:10264000052009900C480A904FF480600B904FF4DD
:1026500016700C90002007908DF83400FF218DF843
:10266000351000218DF83610002201A92046FEF712
:1026700031FA0EB010BD0000000000C02DE9F8478F
:1026800005460E4617469846DDE9099A0B9C2178C7
:10269000481C207041B943463A4631462846CDF899
:1026A0000090FDF7B3FE09E043463A46314628461E
:1026B000CDF800A0FDF7AAFE00202070BDE8F88745
:1026C00000B587B01C216846FDF736FE1448154951
:1026D0000860002048600121124881600821C16023
:1026E0001021016140214161890081610021C161A6
:1026F0004FF40061016249004162002181620220C1
:10270000009008200190062002900390022004907F
:102710000590069069460348FFF704F907B000BD2D
:10272000400100A0D804002000B587B0142102A801
:10273000FDF702FE00BF002001904B48006840F406
:102740008070494908600846006800F48070019074
:1027500000BF00BF00BF002001900846006840F0A5
:10276000200008600846006800F02000019000BFCB
:1027700000BF00BF002001900846006840F08000C4
:1027800008600846006800F08000019000BF00BFAC
:1027900000BF002001900846006840F00400086077
:1027A0000846006800F00400019000BF00BF00BFB1
:1027B000002001900846006840F04000086008468C
:1027C000006800F04000019000BF00BF00BF002083
:1027D00001900846006840F0100008600846006854
:1027E00000F01000019000BF00BF00BF002001906A
:1027F0000846006840F0080008600846006800F0DD
:102800000800019000BF00BF00BF002001900846F3
:10281000006840F0010008600846006800F0010010
:10282000019000BF00BF00BF002001900846006873
:1028300040F0020008600846006800F002000190C5
:1028400000BF00BF002220210848FEF7E7F8202043
:1028500002900120039000200490059002A90348F3
:10286000FDF7D4FF07B000BD30380240000402403D
:1028700038B50446224823490860002048600021FA
:1028800020488160C16001611321416102218161A1
:102890009F21C1611621016240F29F41416240F2D5
:1028A0006E21816240F23F51C16240F27A210163A0
:1028B000002180F83410FF2180F8351080F83610A0
:1028C000FEF738F91048006840F020000E49086013
:1028D0000C48FFF79DFE00BF002000900B480068E9
:1028E00040F40000094908600846006800F4000050
:1028F000009000BF00BF2046FFF77EFC38BD0000FF
:1029000000680140300400201404024030380240C6
:1029100010B51048104908604FF4E13048600021BC
:102920000D488160C16001610C214161002181611C
:10293000C161FFF779FB002202212520FEF74AFA48
:102940002520FEF737FA012204490348FFF7ECFB84
:1029500010BD000000100140F40100201200002012
:1029600000BFFEE700BFFEE770B505460E46002437
:10297000002301221146184600F01EF84FF4FA70A9
:1029800000F022FE002301220221184600F014F874
:10299000002308220321184600F00EF84FF40874B3
:1029A000234601220421002000F006F83146284683
:1029B000FEF7DAFF70BD00002DE9FF4104460D4629
:1029C00016461F464FF0000814B94FF0100803E0F8
:1029D000012C01D14FF008080095CDF80480029633
:1029E00003974FF4805269460448FEF7D8FF18B9A0
:1029F000002004B0BDE8F0810120FAE7D8040020EF
:102A000010B5FEF717F803F0CDFC012801D003F054
:102A100045FA10BD00B593B0302107A8FDF78CFC36
:102A2000142102A8FDF788FC00BF00200190264871
:102A3000006840F08050244908600846006800F0B3
:102A40008050019000BF00BF00BF002001901F48D0
:102A5000006840F440401D4908600846006800F4E2
:102A60004040019000BF00BF012007900004089083
:102A700002200D9041050E910F210F91D821109148
:102A8000022111910421129107A8FEF7FDFC08B163
:102A9000FDF721FDFEF7F0F908B1FDF71CFD0F2051
:102AA000029002200390002004904FF4A050059063
:102AB0004FF480500690052102A8FEF7A5FB08B14F
:102AC000FDF709FD13B000BD403802400070004022
:102AD0000348006840F47000014908607047000036
:102AE00088ED00E010B50248FFF75FF810BD000068
:102AF0000C05002010B50E480068C06800F0010009
:102B000078B10C4908698047002009490968486282
:102B100000BF642006490968C86264210448C16096
:102B200000BF6FF0010002490968086110BD000094
:102B3000A0300020FC00002010B502682D4B984208
:102B40000ED0B0F1804F0BD02B4B984208D02B4BBE
:102B5000984205D02A4B984202D02A4B984203D182
:102B600022F070024B681A43224B984220D0B0F1F9
:102B7000804F1DD0204B98421AD0204B984217D03E
:102B80001F4B984214D01F4B984211D01E4B9842B5
:102B90000ED01E4B98420BD01D4B984208D01D4BB7
:102BA000984205D01C4B984202D01C4B984203D14E
:102BB00022F44072CB681A4322F080034C6943EA46
:102BC000040202608B68C3620B688362094B9842FF
:102BD00002D00C4B984201D10B690363012343617E
:102BE000036903F001031BB1036923F001030361CF
:102BF00010BD00000000014000040040000800403B
:102C0000000C00400004014000400140004401402D
:102C10000048014000180040001C00400020004017
:102C200070B50546AC6B0020E085E0842046FFF7D8
:102C300085F870BD00BF00BF02680C3252E8002F5B
:102C400022F4907102680C3242E80013002BF3D199
:102C500000BF00BF00BF0268143252E8002F22F00C
:102C600001010268143242E80013002BF3D100BFC7
:102C7000016B01290ED100BF00BF02680C3252E87F
:102C8000002F22F0100102680C3242E80013002BE2
:102C9000F3D100BF202180F842100021016370476A
:102CA00010B504462068C06820F040002168C86064
:102CB000202084F841002046FFF79AFA002010BD3A
:102CC000F8B5044694F84200222875D1A068B0F502
:102CD000805F0CD1206950B90025A66A2068406841
:102CE000C0F308003080A06A801CA06215E0A56ACD
:102CF0000026A068B0F5805F03D0A06828B92069DD
:102D000018B920684068287004E02068406800F026
:102D10007F002870A06A401CA062E08D401E80B237
:102D2000E085002846D12068C06820F02000216896
:102D3000C8602068C06820F480702168C86020687E
:102D4000406920F0010021684861202084F8420099
:102D500000206063206B012826D10020206300BF83
:102D600000BF21680C3151E8001F21F010002168DC
:102D70000C3141E80002002AF3D100BF206800684E
:102D800000F0100010280AD100BF00200090206839
:102D90000068009020684068009000BF00BFA18DCF
:102DA0002046FEF7CAFF02E02046FFF7D3F90020D5
:102DB000F8BD01E00020FBE70220F9E72DE9F84F1C
:102DC00004462068006920F44050E1680843216807
:102DD00008612169A068084361690843E169084303
:102DE00000902068C06849F20C618843009908434C
:102DF0002168C8602068406920F44070A1690843D8
:102E00002168486176492068884203D07549206866
:102E1000884203D1FEF7D0FA814602E0FEF7BCFA01
:102E20008146E069B0F5004F6CD102206168A0FBDB
:102E3000015003461920A9FB007001462A46384676
:102E4000FDF730FA6421B0FBF1F04FEA001A0220DE
:102E50006168A0FB01510B461920A9FB00712A46AD
:102E60003846FDF71FFA834602206168A0FB015037
:102E700003461920A9FB00712A463846FDF712FACD
:102E80006421B0FBF1F000EBC00101EB0010ABEBF3
:102E90008000322101EBC0006421B0FBF1F000F0B2
:102EA000F8000AEB400A02206168A0FB01500346CB
:102EB0001920A9FB007001462A463846FDF7F2F9B1
:102EC000834602206168A0FB015003461920A9FB3C
:102ED00000712A463846FDF7E5F96421B0FBF1F0B0
:102EE00000EBC00101EB0010ABEB8000322101EBE5
:102EF000C0006421B0FBF1F000F0070050442168ED
:102F000088606AE004206168A0FB01500346192034
:102F1000A9FB007001462A463846FDF7C3F98246F0
:102F200004206168A0FB015003461920A9FB007032
:102F300001462A463846FDF7B5F96421B0FBF1F0A9
:102F400000EBC00101EB0010AAEB8000322101EB85
:102F500000106421B0FBF1F000F0F00A0420616879
:102F6000A0FB017003461920A9FB00513A462846F0
:102F7000FDF798F96421B0FBF1F00AEB001A042088
:102F80006168A0FB01510B461920A9FB00712A467C
:102F90003846FDF787F9834604206168A0FB01509D
:102FA00003461920A9FB007001462A463846FDF762
:102FB00079F96421B0FBF1F000EBC00101EB0010E6
:102FC000ABEB8000322101EB00106421B0FBF1F08B
:102FD00000F00F00504421688860BDE8F88F0000C1
:102FE000001001400014014010B5034699629A8513
:102FF000DA8500205864222083F84200186928B13D
:103000001868C06840F480701C68E0601868406907
:1030100040F001001C6860611868C06840F0200042
:103020001C68E060002010BD014691F84100212895
:1030300028D18868B0F5805F0BD1086948B90A6A61
:103040001088C0F308000B685860086A801C08628A
:1030500005E00B6A581C086218780B685860C88C29
:10306000401E80B2C88458B90868C06820F080004B
:103070000B68D8600868C06840F040000B68D860F2
:10308000002070470220FCE710B50248FEF758FE0A
:1030900010BD0000F401002000BFFEE70FB4054B97
:1030A00010B503A9044A029800F034F810BC5DF88A
:1030B00014FB000011360008F001002002480068EF
:1030C000C0F30220704700000CED00E010B50028AE
:1030D00004DB0A07130E054A135406E00A07140E10
:1030E000034A00F00F031B1FD45410BD00E400E09E
:1030F00018ED00E002E008C8121F08C1002AFAD14A
:1031000070477047002001E001C1121F002AFBD167
:10311000704700002DE9FF4F8DB00F460546002691
:1031200006E025280BD0DDE90F1290476D1C761CB8
:1031300028780028F5D111B03046BDE8F08F002482
:10314000A246A1460122EC4900E0044315F8013FE4
:10315000203B02FA03F00842F7D128782A2810D041
:103160006FF02F022878A0F13001092914D80AEB5A
:103170008A0102EB410144F0020400EB010A6D1CDC
:10318000F0E701CF5FEA000A03D544F40054CAF126
:10319000000A44F002046D1C28782E2817D115F877
:1031A000010F44F004042A280ED06FF02F02287873
:1031B000A0F1300109290AD809EB890102EB41018C
:1031C00000EB01096D1CF2E757F8049B6D1C287891
:1031D0006C280FD006DC4C2817D068280DD06A2840
:1031E00014D104E0742810D07A280FD10DE044F4F3
:1031F00000140AE044F4801401E044F440146978B7
:10320000814202D104F580146D1C6D1C2A786E2A4F
:103210001FD00CDC632A31D004DC002A8BD0582A62
:1032200011D1A3E0642A68D0692A0CD165E0732A21
:103230002ED004DC6F2A73D0702A04D19BE0752A4B
:103240006FD0782A6ED01046DDE90F129047761CB9
:1032500050E1C4F30250022806D0032809D0042804
:1032600001CF09D0066045E101CFF117C0E9006147
:1032700040E101CF06803DE106703BE117F8040B09
:103280008DF8000000208DF80100EB46012003E0DE
:1032900057F804BB4FF0FF3061074FF0000102D434
:1032A0000DE008F10101884649450FDA8045F8DB59
:1032B0001BF808100029F4D108E008F10101884644
:1032C0008142FADB1BF808100029F6D1DDE90F2353
:1032D000AAEB08008146214600F036F9304400EBA5
:1032E000080604E0DDE90F121BF8010B9047B8F166
:1032F0000108F7D221464846F7E00A21C4F30253F9
:103300004FF0000B0891022B04D001CFC117032B03
:1033100009D00AE0FF1D27F00707F7E8020108E0DF
:1033200032E01FE020E000B2C117042B01D140B20F
:10333000C117031E71F1000307DA4FF0000CD0EB48
:103340000C006CEB01012D2302E0230504D52B2397
:103350008DF82430012303E0E30701D02023F7E7B1
:10336000984658E00A2110E010210EE010204FF09E
:10337000000B08900CE010214FF0000B44F0040407
:103380004FF00809089103E008214FF0000B089165
:10339000C4F30253022B04D001CF0021032B06D02B
:1033A00006E0FF1D27F00707F7E8020103E080B2FF
:1033B000042B00D1C0B24FF0000823072BD5702A90
:1033C00007D0DDF820C08CF0100C5CEA0B0C05D0A7
:1033D0000EE040238DF82430012308E050EA010379
:1033E00006D030238DF824308DF82520022398460E
:1033F000DDF820C08CF0080C5CEA0B0C0BD150EA15
:10340000010301D1630706D530238DF824304FF036
:103410000108A9F10109582A04D038A20B9208AA80
:103420000A920BE03AA2F9E75B46089AFCF73AFFEA
:103430000B9B9B5C0A9A521E0A92137050EA01027F
:10344000F2D10A98ADEB000000F1200B600702D525
:1034500024F4803401E04FF00109D94502DDA9EBE5
:103460000B0000E0002000EB0B0141440890AAEBA8
:10347000010AE00306D4DDE90F232146504600F09F
:1034800063F806444FF0000908E009A911F80900A3
:10349000DDE90F12904709F10109761CC145F4DB03
:1034A000E0030CD5DDE90F232146504600F04CF82F
:1034B000064404E0DDE90F1230209047761C08999D
:1034C000481E08900029F5DC08E00A980A9900785F
:1034D000491C0A91DDE90F129047761CBBF10001EF
:1034E000ABF1010BF1DC21465046DDE90F2300F082
:1034F00019F806446D1C1BE60928010030313233EF
:10350000343536373839616263646566000000001F
:103510003031323334353637383941424344454609
:10352000000000002DE9F041044600251E46174624
:10353000880404D405E039462020B0476D1C641E81
:10354000F9D52846BDE8F0812DE9F0410446002573
:103550001E469046C80301D5302700E02027880486
:1035600004D505E041463846B0476D1C641EF9D5C8
:103570002846BDE8F081000070B504460420FEF73F
:1035800035FA0A48046025464FF47A7045434FF0F7
:10359000E020006940F002004FF0E0210861084699
:1035A0004561006940F00100086170BD0C00002019
:1035B00030B50446002504E04FF47A7000F004F8BA
:1035C0006D1CA542F8D330BD70B5034600224FF004
:1035D000E02675690D4E366803FB06F44FF0E026D1
:1035E000B16910E04FF0E026B06988420BD0884204
:1035F00002D20E1A324402E02E1A0E443244014620
:10360000A24200D300E0EDE700BF70BD0C00002037
:10361000044A506000BF034A1268C2F3C012002A75
:10362000F9D07047001001401CB506480121002365
:103630008022CDE9001004A1064802F015FE02F038
:10364000B7FA1CBD0000002073746172745F74616E
:10365000736B00005543000810B5FDF7F7F9FFF74D
:10366000D9F9FFF755F9FFF75FF8B420FFF784FFAA
:10367000084841685A208847FFF722F840F2A52100
:103680000548FFF771F90020FFF7F2F8FFF7CCFFCC
:10369000002010BDFC000020D80400202DE9F041DE
:1036A00005460E462948076800202949096881F81F
:1036B000590027480068001D01F09AFF50B92448BE
:1036C000006890F82C100120884022490968814345
:1036D00020480160681CD8B9D6B11F4948681C4908
:1036E000096888601A4982680968CA6018490968C7
:1036F000091D8268516016490968091D8160164AD2
:10370000134909684A6111460968491C11601AE0A9
:103710007C190F4800684460BC4207D20C4801681D
:10372000091D0E48006801F087FF0CE00848016899
:10373000091D0B48006801F07FFF0A4800688442B9
:1037400001D208480460BDE8F0810000700000204C
:103750005C00002074000020643000206400002021
:10376000600000208C00002010B5044601F08AFFA4
:1037700031480068401C304908603048006840B952
:103780002E4804600846006801280DD100F00EFAAA
:103790000AE02B48006838B928480068C06AE16A26
:1037A000884201D82548046026480068401C254905
:1037B000086008460068606494F82C100120884076
:1037C00021490968084320490860E16A01EB810149
:1037D0001E4A02EB81014868A0608268E260211DF8
:1037E000826851608160E16A01EB8101174A02EB56
:1037F00081026261E16A01EB8101144A52F82110F1
:10380000491CE26A02EB8202104B43F8221001F0DD
:103810007DFF0B48006868B108480068C06AE16A2B
:10382000884207D24FF0805009490860BFF34F8F9C
:10383000BFF36F8F10BD00006C0000205C00002003
:10384000780000208800002074000020942D0020C3
:1038500004ED00E010B501F015FF10480068D0B984
:103860000F4801F0D9FE0F4801F0D6FE0C480E4972
:1038700008600C480D49086000221021052002F064
:1038800027FB064908600846006820B108A10348E4
:10389000006801F0EBFF01F039FF10BDA40000202B
:1038A000783000208C3000209C000020A0000020F8
:1038B000546D72510000000010B516E001F0E2FEF8
:1038C0000C48C068C468201D01F092FE0A480068D8
:1038D000401E0949086009480068401E0749086001
:1038E00001F014FF204600F05FF80448006800284B
:1038F000E4D110BD503000206C0000206800002092
:1039000070B504460D46206C70B1216CE06801442E
:10391000E160D4E90210884201D32168E1602846C1
:10392000226CE168FCF7EFFC70BD2DE9F041044624
:103930000F4615464FF00008A66B206C48B920686A
:1039400000282CD1A06802F02DFE80460020A06047
:1039500025E07DB93946226C6068FCF7D4FC216C07
:10396000606808446060D4E90101884217D3206888
:10397000606014E03946226CE068FCF7C4FC216CFE
:10398000E068411AE1602168E068884203D2216C56
:10399000A068411AE160022D01D106B1761E701CAB
:1039A000A0634046BDE8F08110B50446206B01F0ED
:1039B000E5FE204601F0E2FE10BD00000146084A87
:1039C000126812680AB9012200E000220A600A683F
:1039D00022B9034A1268D268106800E000207047DC
:1039E0009C00002030B54FF42053174800F0070426
:1039F0002CB1C01D20F00700134C041B1B1B0246FA
:103A0000124C22600024114D6C60D018083820F050
:103A100007000F4C206000240D4D2D686C600C4D8C
:103A20002D682C601146441A4C60094C24680C60C7
:103A3000084D4C682C60084D4C682C604FF00044D9
:103A4000064D2C6030BD00005405002030000020E1
:103A500038000020400000203C0000204C000020E6
:103A600000BFFFF729FF064800680128F9D94FF089
:103A7000805004490860BFF34F8FBFF36F8FF0E7AA
:103A8000942D002004ED00E02DE9F04106460D469E
:103A900017469846069C0DB9246000E02760E6634F
:103AA00025640121204602F053FA84F8508000205A
:103AB000A064BDE8F08100002DE9F05F82460F466A
:103AC00090469B460A9E0C9C4FEA8801A522206BDB
:103AD000FCF72BFCA8F10100216B01EB800929F018
:103AE000070909F0070008B9012000E0002028B903
:103AF00040F25F3224A129A0FFF7D0FA87B1002558
:103B000007E0795D04F134004155785D00B902E0C9
:103B10006D1C102DF5D300BF00214320015502E09C
:103B2000002084F83400202E01D2012000E0002083
:103B300028B940F2963214A118A0FFF7AFFA202E50
:103B400000D31F26E662E66400202065201D01F0F8
:103B500070FD04F1180001F06CFD2461C6F1200035
:103B6000A06164620020606584F8580084F8590000
:103B70005A465146484600F0D3FB20600B9808B1E6
:103B80000B980460BDE8F09F2E2E5C46726565526E
:103B9000544F535C7461736B732E63004572726F84
:103BA000723A2025732C2025640D0A0010B50024DC
:103BB00007E004EB84010F4A02EB810001F02CFDC9
:103BC000641C202CF5D30C4801F026FD0B4801F0B5
:103BD00023FD0B4801F020FD0A4801F01DFD0A48B5
:103BE00001F01AFD044809490860044808490860C2
:103BF00010BD0000942D002014300020283000203B
:103C00003C30002050300020643000206000002054
:103C10006400002010B50146164800E00068036803
:103C20008B42FBD30246436813448B4204D1436862
:103C30004C682344436001460A464B6813440468B9
:103C4000A34211D10C4C03682468A34208D04B68EE
:103C50000468646823444B6003681B680B6005E0DC
:103C6000054B1B680B6001E003680B60884200D0C5
:103C7000016010BD30000020380000202DE9F04127
:103C800004460D4616461F464FF000086560246145
:103C9000B5420CD8F01BA169884202D34FF001084D
:103CA00011E0211D0948006801F0C6FC0BE0BE428E
:103CB00004D2BD4202D34FF0010804E0211D0448A4
:103CC000006801F0B9FC4046BDE8F081A00000208A
:103CD0009C00002070B5054601F0D4FCA86B08B923
:103CE000012400E0002401F011FD204670BD000019
:103CF000F1B50098846C00262CB940F6D53220A18D
:103D000024A0FFF7CBF9A06BE16B884201D2012020
:103D100000E0002028B940F6D63219A11DA0FFF717
:103D2000BDF9A06BE16B884227D294F9455000227F
:103D300069462046FFF7F9FD0646681C60B9606ACF
:103D400008B9012000E00020B0B904F1240002F01D
:103D5000A9FC88B101260FE07F2D01D0012000E0F1
:103D6000002028B940F6F63205A10AA0FFF796F91F
:103D7000681C40B284F8450000BF3046F8BD000022
:103D80002E2E5C4672656552544F535C7175657595
:103D9000652E63004572726F723A2025732C2025C0
:103DA000640D0A0070B505460E460E480068C068EE
:103DB000C468201D01F01CFC94F8280000F00400E9
:103DC00028B132462946204600F0F8F805E094F87C
:103DD000280000F0FE0084F828002046216A884769
:103DE00070BD00009C00002070B586B08AE002988B
:103DF00000280CDA03AE2EB940F2063247A14DA0DE
:103E0000FFF74CF9D6E90020B168904700BF02984F
:103E1000002877DB049C606908B9012000E00020DD
:103E200010B9201D01F0E4FB01A800F0F3F80546ED
:103E300002980A2864D2DFE800F06305072E3653A3
:103E400006082F3700BF00BF00BF94F8280040F0DD
:103E5000010084F828000398A269811803462A46C5
:103E60002046FFF70BFFA8B194F8280000F00400EB
:103E700038B10398A26981182A46204600F09EF8BE
:103E800005E094F8280000F0FE0084F828002046A1
:103E9000216A884735E000BF94F8280000F0FE0052
:103EA00084F828002DE000BF94F8280040F00100BD
:103EB00084F828000398A061A06908B1012000E0FF
:103EC000002028B940F2593214A11AA0FFF7E6F8F1
:103ED000A06941192B462A462046FFF7CFFE10E085
:103EE00094F8280000F0020018B9204601F046FCC2
:103EF00005E094F8280000F0FE0084F8280000E0B7
:103F000000BF00BF002202A90E48006802F096F828
:103F100000287FF46CAF06B070BD00002E2E5C460A
:103F200072656552544F535C74696D6572732E638C
:103F3000000000004572726F723A2025732C202514
:103F4000640D0A00A4000020F8B505460C4601F0F7
:103F500089FE684600F05EF80646009820BB44B92A
:103F6000B54206D802F03CFC31462846FFF71AFF5E
:103F70001CE03CB10E480068006808B9012000E070
:103F800000200446A91B22460A48006801F0ACFC48
:103F900002F026FC50B94FF0805007490860BFF38B
:103FA0004F8FBFF36F8F01E002F01AFCF8BD0000E5
:103FB000A0000020A400002004ED00E070B504463D
:103FC0000D46164604E0A06905442046216A88474C
:103FD000A06941192B4632462046FFF74FFE0028C4
:103FE000F1D170BD09480068006808B9012000E0FF
:103FF000002020B14FF0FF300549086005E003487C
:104000000068C068006802490860704760000020CE
:104010008C00002070B5044602F0D4F9054607482C
:104020000068854204D200F00BF80120206001E016
:104030000020206001480560284670BDAC000020CB
:1040400070B508E00D480068C06804684FF0FF31A3
:104050002046FFF7A7FE09480068006808B901205C
:1040600000E000200028EDD00448056804480068FE
:10407000024908600248056070BD00009C000020F5
:10408000A00000200B480068401C08B9012000E097
:10409000002020B9E92208A112A0FEF7FFFF00BF0F
:1040A000502080F31188BFF34F8FBFF36F8F00BF95
:1040B00000BFFEE7500000202E2E5C467265655260
:1040C000544F535C706F727461626C655C525644FD
:1040D000535C41524D5F434D34465C706F72742E99
:1040E000630000004572726F723A2025732C202500
:1040F000640D0A0008B500BF6846FFF75FFC044680
:1041000020460099FFF720FFFFF76EFEF4E770B539
:10411000044601F0B7FA94F9455019E0A06C30B1AB
:104120002046FFF7E5FD88B101F0D4FC0EE0606A9F
:1041300008B9012000E0002038B904F1240002F0A1
:10414000B1FA18B101F0C6FC00E003E0681E45B208
:10415000002DE3DC00BFFF2084F8450001F0D6FA13
:1041600001F090FA94F9445010E0206908B9012058
:1041700000E0002048B904F1100002F093FA08B101
:1041800001F0A8FC681E45B200E001E0002DECDC67
:1041900000BFFF2084F8440001F0B8FA70BD0000B1
:1041A0002DE9F04104464FF0000801F05BFD48485E
:1041B000006808B9FFF716FC464800682040002850
:1041C00073D114B304F10800A0421ED9083404F0DE
:1041D0000700D8B104F00700C0F108002044A04255
:1041E00011D904F00700C0F10800044404F00700EE
:1041F00008B9012000E0002040B99C2236A140A06F
:10420000FEF74CFF02E0002400E00024002C4CD01C
:104210003F480068844248D83E4E3046056801E079
:104220002E462D686868A04202D228680028F7D17F
:1042300027480068854238D0306800F108082868AF
:1042400030606868001B102813D92F1907F0070089
:1042500008B9012000E0002020B9CF221EA128A02B
:10426000FEF71CFF6868001B78606C603846FFF73B
:10427000D1FC274968680968081A2549086008467A
:10428000006825490968884203D22148006822490C
:104290000860104968680968084368600020286061
:1042A0001E480068401C1D49086002F099FA08F099
:1042B000070008B9012000E0002028B94FF48872F7
:1042C00005A10FA0FEF7EAFE4046BDE8F081000020
:1042D000380000204C0000202E2E5C46726565528E
:1042E000544F535C706F727461626C655C4D656DA8
:1042F0004D616E675C686561705F342E630000001D
:104300004572726F723A2025732C2025640D0A00C5
:104310003C0000203000002040000020440000202D
:10432000001F4FF080730360001F21F00103036042
:10433000001F054B036014380260001F6FF002037A
:104340000360203870470000854000080146086877
:10435000704700001CB5044601F094F90D48022195
:1043600000238022CDE900100BA10D4801F07CFF55
:104370000C48022100238022CDE900100AA10C483C
:1043800001F072FF0B48006801F00EFB01F0BEF96E
:104390001CBD0000040000207461736B310000003C
:1043A000B9430008080000207461736B32000000FC
:1043B000E5430008000000201FB50020039010E036
:1043C00003A81F214FF6E0723223CDE900210290AD
:1043D0001A4600210846FEF751F94FF47A7001F0B1
:1043E000A9FAEDE786B001F0EDFF059000200490FA
:1043F00018E004A81F214FF6E07240F25723CDE9E0
:1044000000210290921140F24A2140F2ED30FEF775
:1044100035F94FF4FA7001F08DFA4FF47A7105A86E
:1044200001F052FFE5E7000030B595B0054613AB4B
:1044300012AA09A9284600F03FFA044614B1204602
:1044400015B030BD0020149026E0224909689DF87F
:10445000502001EBC20113AB11AA486801A900F07A
:104460002BFA04460CB12046EAE709A901A800F09E
:10447000AFFC60B99DF844009DF84810884201DD0A
:104480000220DDE79DF85000124988750AE09DF88A
:104490005000401CC0B214900E48007D9DF8501092
:1044A0008842D2DC00BF0B48007D9DF85010884246
:1044B00001D10420C4E714A9284600F0DDFA04461F
:1044C0000CB12046BCE79DF8500002494875002019
:1044D000B6E70000FC0000202DE9F0419AB09C48AE
:1044E000847D007DA04202DC1AB0BDE8F0819849CD
:1044F000096801EBC40106AB07AA486808A900F0E7
:10450000DBF908A993A0FEF7C9FD002644E0904816
:10451000008B0121B1400840D8B122218FA0FEF7C5
:10452000BDFD304600F042FB894924314718394629
:104530008BA0FEF7B3FD222188A0FEF7AFFD304629
:1045400000F034FB82492431084410A941F82600C8
:1045500018E0304600F02AFB7D492431085810A9A4
:1045600041F826007A48C07D30B910A850F82610CE
:104570007CA0FEF793FD05E010A850F826107AA065
:10458000FEF78CFD9DF81C00401EB04202D078A0C2
:10459000FEF784FD701CC6B29DF81C008642B6DB97
:1045A00074A0FEF77BFD01F009F86948407D0B28F7
:1045B0000DD2DFE800F0060D151E27323F4E5F7268
:1045C00087006349096851F834008047054690E048
:1045D0005F4A126852F8341010988847054688E000
:1045E0005B4B1B6853F83420DDE91001904705460A
:1045F0007FE0574F3F6857F8343010A807C89847F6
:10460000054676E0DFF848C1DCF800C05CF834709D
:1046100010A80FC8B84705466BE01498DFF830C102
:104620000090DCF800C05CF8347010A80FC8B847E0
:1046300005465EE0DDE91401DFF814C1CDE90001B3
:10464000DCF800C05CF8347010A80FC8B847054605
:104650004FE0DDE914121698DFF8F4C0CDE900123E
:104660000290DCF800C05CF8347010A80FC8B8479E
:1046700005463EE0DDE91423DDE91610DFF8D0C081
:10468000CDE90023CDE90210DCF800C05CF83470FD
:1046900010A80FC8B84705462BE0DDE91523DDE972
:1046A0001710CDE90123CDE903101498DFF8A0C05D
:1046B0000090DCF800C05CF8347010A80FC8B84750
:1046C000054616E0DDE91623DDE91810CDE90223E1
:1046D000CDE90410DDE91401DFF874C0CDE9000173
:1046E000DCF800C05CF8347010A80FC8B847054665
:1046F00000BF00BF00F00EFF9DF8180001280CD18C
:104700001348C07D20B929461BA0FEF7C7FC07E06F
:1047100029461BA0FEF7C2FC02E018A0FEF7BEFC73
:104720000B4890F8EC0088B10948D0F8F0000A2155
:10473000B0FBF1F201FB12070548D0F8F000B0FB26
:10474000F1F83A46414611A0FEF7A8FC00BFCBE6BF
:10475000FC0000200D0A25732800000025630000DE
:1047600025730000256C64003058255800000000B7
:104770002C000000290000003D256C753B0D0A004F
:104780003D305825583B0D0A0000000046756E6309
:1047900074696F6E2052756E2054696D653A256498
:1047A0002E2531646D730D0A00000000F0B503463C
:1047B000154600200022002600245BE01F782C2FE5
:1047C00001D104B901221F78292F01D01F780FB918
:1047D00004B950E0002E3AD11F78302F02DB1F7849
:1047E000392F17DD1F782D2F14D01F782B2F11D0C4
:1047F0001F78612F02DB1F78662F0BDD1F78412F9A
:1048000002DB1F78462F05DD1F78582F02D01F7856
:10481000782F0CD102B12EE01F78612F03DB1F78B7
:10482000203F0F7001E01F780F70491C1FE01F78B8
:10483000222F04D102B11EE00126012417E01F78C7
:10484000202F14D01F782C2F11D0FF2613E01F78B3
:10485000222F00D1002402B10DE044B11F785C2F5B
:1048600002D15B1C471CF8B21F780F70491C471C13
:10487000F8B25B1CA2E700BF00270F702E70F0BDDE
:1048800010B50446002010700BE020780870641CFE
:10489000491C1078401C10701078984201DB0120F0
:1048A00010BD2078202802D020780028EDD10020EB
:1048B000087000BFF4E700002DE9FF4F85B0804687
:1048C00089460027002004900390012002904FF0B9
:1048D000000B002544461DE02078202816D005F066
:1048E0007F00052812DA0DB945F0800505F07F003C
:1048F000042803D120782A2800D00EE0207805F083
:104900007F010DF80100681CC5B202E0852D00D1C1
:1049100003E0641C20780028DED100BF8DB10020A8
:1049200005F07F010DF8010051A1684600F050FA32
:1049300018B900210898017002E00121089801705F
:1049400000254FF0000A444614E0641C0AF10100FF
:1049500000F0FF0A2078202802D020782A2809D1E8
:10496000204600F0A7F90646282E03D02A2E01D0B3
:10497000CDF810A02078282802D020780028E4D193
:104980004446049810B10498401C04444FF0000AB7
:10499000002654E0207810B94FF0010A50E020784A
:1049A000282803D116B9781CC7B213E0207829282B
:1049B00008D13EB917B1781EC7B201E04FF0010A25
:1049C00047B93DE02078222804D10EB9012000E04B
:1049D0000020064647B9207820282FD0207889F873
:1049E000000009F1010929E020782C2804D10120D8
:1049F0000290681CC5B214E02078202811D02078DD
:104A000028280ED04DB9BBF1050F06DA20780DF835
:104A10000B000BF1010000F0FF0B0298401CC0B22C
:104A20000290012F0AD10298022807D10298401C57
:104A3000C0B202900398401CC0B20390641CA9E766
:104A400000BF0398012809D100200DF80B0008A130
:104A5000684600F0BDF908B9002003900799039853
:104A60000870002089F80000504609B0BDE8F08FBA
:104A7000766F6964000000002DE9F043B5B005468B
:104A80000F460024002604E000213D488155701C9B
:104A9000C6B20A2EF8DB06E06D1C287818B9012092
:104AA00035B0BDE8F08328782828F5D16D1C61E089
:104AB00034AA69462846FFF779FE064635449DF834
:104AC000D00020B1012827D0FF284CD149E09DF823
:104AD000000000B333A9684600F0F7F806460EB1AF
:104AE0000220DDE7204600F061F825490A31339ABB
:104AF0000A50A1F12400008B0121A14088432049E4
:104B00001A39088304211E480155601CC4B20A2CBE
:104B100001DD0320C4E726E0684600F075F9401C7B
:104B200000F0FF08204600F041F815490A3100EB7B
:104B300001094946684600F05CF911481A38018BB2
:104B40000120A040014388B20D491A3908830C485E
:104B500000F80480601CC4B20A2C01DD03209FE72A
:104B600001E002209CE700BF2878292801D028789E
:104B700000B900E09CE700BF3C70002090E7000017
:104B8000160100200020074A128802F400423AB1C0
:104B9000044A11780022044B5A541846014B1A80DB
:104BA00070470000100000203C0200200246002058
:104BB000002105E0044B5B5C0344D8B24B1CD9B226
:104BC0009142F7DB704700001601002010B5044643
:104BD00004EBC40000EB04100122C2EB800081B2A0
:104BE0004FF47A7000F0B8FC01200149C87510BD7F
:104BF000FC00002010B50246012000E050430B1ECF
:104C0000A1F10104E1B2F9D110BD000070B5002698
:104C1000FFF7B8FF064606B970BD174881683046F1
:104C2000884704461CB91449C868804721E03046CB
:104C300000F0F6F80546012D00D02C46CCB1012C31
:104C400006D0022C08D0032C0AD0042C10D10BE083
:104C50000AA0FEF723FA0BE00BA0FEF71FFA07E00D
:104C60000CA0FEF71BFA03E00DA0FEF717FA00BF39
:104C700000BF00BFD0E70000FC000020BAAFCAFDB3
:104C8000B4EDCEF3210D0A00B2CECAFDB4EDCEF3E1
:104C9000210D0A00B2CECAFDCCABB6E0210D0A0050
:104CA000CEB4D5D2B5BDC6A5C5E4B5C4BAAFCAFDAC
:104CB000210D0A000146491C00E0491C0878202803
:104CC00001D10029F9D1087870472DE9F04F054648
:104CD0000F4600264FF00A09B3462C4600203860E4
:104CE00034E02078392802DC2078302811DA28785E
:104CF0002D2802D028782B2800D156B120784628BC
:104D000002DC2078412804DA2078582817D1012EB7
:104D100015D12078412801DB4FF0100928782D2883
:104D200003D14FF0020B6D1C0FE028782B2803D124
:104D30004FF0010B6D1C08E0701CC6B205E0207836
:104D400000B904E00120BDE8F08F641CC9E700BF92
:104D50002C46B9F1100F0FD1032E01DA0220F2E731
:104D60002078302806D16078582803D1A41CB01EC2
:104D7000C6B204E00320E6E70EB90420E3E71BE037
:104D80000EB1701EC6B22078392806DC2078302893
:104D900003DB2078A0F1300A02E02078A0F1370A86
:104DA00031464846FFF726FF39680AFB0010386095
:104DB000641C207800B900E0E2E700BFBBF1020FFD
:104DC00004D13868C0F10008C7F800800020BAE7B5
:104DD00002460AE010780B78984201D00120704713
:104DE000107800B902E0521C491CF3E700BF002014
:104DF000F5E706E002780A70027802B902E0401C8A
:104E0000491CF7E700BF70470146002005E00A781B
:104E100002B903E0421CD0B2491CF8E700BF70475A
:104E200010B58CB004461E230BAA03A92046FFF739
:104E300027FD0090009810B101200CB010BD9DF826
:104E40002C00044400200B900EE040489DF82C20DC
:104E500050F8221003A8FFF7BBFF00B908E09DF847
:104E60002C00401CC0B20B909DF82C000728ECD3FE
:104E700000BF9DF82C00072863D2DFE800F004058E
:104E80003C5E6564630000BF31A0FEF707F931A006
:104E9000FEF704F93FA0FEF701F94EA0FEF7FEF879
:104EA0005CA0FEF7FBF86BA0FEF7F8F879A0FEF720
:104EB000F5F887A0FEF7F2F88CA0FEF7EFF894A0C3
:104EC000FEF7ECF898A0FEF7E9F89DA0FEF7E6F8EB
:104ED000A2A0FEF7E3F8A8A0FEF7E0F8B4A0FEF762
:104EE000DDF8C1A0FEF7DAF8CCA0FEF7D7F8D8A01D
:104EF000FEF7D4F8A2E216A0FEF7D0F8E4A0FEF781
:104F0000CDF800200B900EE0F14800689DF82C20B1
:104F100000EBC2004168EFA0FEF7C0F89DF82C003E
:104F2000401CC0B20B90EA48007D9DF82C108842CE
:104F3000EADC07A0FEF7B2F880E205A0FEF7AEF8C3
:104F4000CCE179E24DE221E2F4E10000B000002082
:104F50000D0A00002D2D2D2D2D2D2D2D2D2D2D2D1E
:104F60002D2D2D2D2D2D2D2D2D2D2D2D55534D41EF
:104F700052542056332E352D2D2D2D2D2D2D2D2DEA
:104F80002D2D2D2D2D2D2D2D2D2D2D2D2D2D2D205E
:104F90000D0A00002020202055534D415254CAC70D
:104FA000D3C9414C49454E54454BBFAAB7A2B5C4DD
:104FB000D2BBB8F6C1E9C7C9B5C4B4AEBFDAB5F75C
:104FC000CAD4BBA5BDBBD7E9BCFE2CCDA8B9FD207A
:104FD0000D0A0000CBFC2CC4E3BFC9D2D4CDA8B9C4
:104FE000FDB4AEBFDAD6FACAD6B5F7D3C3B3CCD0C8
:104FF000F2C0EFC3E6B5C4C8CEBACEBAAFCAFD2C74
:10500000B2A2D6B4D0D02ED2F2B4CB2CC4E3BFC956
:105010000D0A0000D2D4CBE6D2E2B8FCB8C4BAAFD5
:10502000CAFDB5C4CAE4C8EBB2CECAFD28D6A7B340
:10503000D6CAFDD7D62831302F3136BDF8D6C62C8A
:10504000D6A7B3D6B8BACAFD29A1A2D7D6B7FBB4A2
:10505000AE0D0A00A1A2BAAFCAFDC8EBBFDAB5D83F
:10506000D6B7B5C8D7F7CEAAB2CECAFD292CB5A5FA
:10507000B8F6BAAFCAFDD7EEB6E0D6A7B3D6313090
:10508000B8F6CAE4C8EBB2CECAFD2CB2A2D6A7B31A
:10509000D60D0A00BAAFCAFDB7B5BBD8D6B5CFD4C6
:1050A000CABE2ED6A7B3D6B2CECAFDCFD4CABEBD15
:1050B000F8D6C6C9E8D6C3B9A6C4DC2CD6A7B3D6E1
:1050C000BDF8D6C6D7AABBBBB9A6C4DC2E0D0A0054
:1050D000BCBCCAF5D6A7B3D63A7777772E6F706582
:1050E0006E6564762E636F6D0D0A000055534D4159
:1050F0005254D3D037B8F6CFB5CDB3C3FCC1EE28E8
:10510000B1D8D0EBD0A1D0B4293A0D0A00000000EC
:105110003F3A202020202020BBF1C8A1B0EFD6FAD2
:10512000D0C5CFA20D0A000068656C703A2020201F
:10513000BBF1C8A1B0EFD6FAD0C5CFA20D0A0000CE
:105140006C6973743A202020BFC9D3C3B5C4BAAF09
:10515000CAFDC1D0B1ED0D0A0A00000069643A2011
:1051600020202020BFC9D3C3BAAFCAFDB5C449446B
:10517000C1D0B1ED0D0A0A006865783A20202020E0
:10518000B2CECAFD3136BDF8D6C6CFD4CABE2CBA0F
:10519000F3B8FABFD5B8F12BCAFDD7D6BCB4D6B494
:1051A000D0D0BDF8D6C6D7AABBBB0D0A0A000000F6
:1051B0006465633A20202020B2CECAFD3130BDF8AC
:1051C000D6C6CFD4CABE2CBAF3B8FABFD5B8F12B25
:1051D000CAFDD7D6BCB4D6B4D0D0BDF8D6C6D7AAEF
:1051E000BBBB0D0A0A00000072756E74696D653AEA
:1051F000312CBFAAC6F4BAAFCAFDD4CBD0D0BCC63E
:10520000CAB13B302CB9D8B1D5BAAFCAFDD4CBD0D6
:10521000D0BCC6CAB13B0D0A0A000000C7EBB0B44F
:10522000D5D5B3CCD0F2B1E0D0B4B8F1CABDCAE4A0
:10523000C8EBBAAFCAFDC3FBBCB0B2CECAFDB2A2C6
:10524000D2D4BBD8B3B5BCFCBDE1CAF82E0D0A0060
:105250002D2D2D2D2D2D2D2D2D2D2D2D2D2D2D2D7E
:105260002D2D2D2D2D2D2D2D2D2DD5FDB5E3D4AD91
:10527000D7D32D2D2D2D2D2D2D2D2D2D2D2D2D2D0E
:105280002D2D2D2D2D2D2D2D2D2D2D200D0A0000F8
:105290002D2D2D2D2D2D2D2D2D2D2D2D2D2D2D2D3E
:1052A0002D2D2D2D2D2D2D2D2DBAAFCAFDC7E5B5D8
:1052B000A52D2D2D2D2D2D2D2D2D2D2D2D2D2D2DA6
:1052C0002D2D2D2D2D2D2D2D2D2D2D2D200D0A008B
:1052D000FC00002025730D0A0000000059A0FDF716
:1052E000DDFE00200B901AE0664909689DF82C202D
:1052F00001EBC20101AB02AA486803A9FFF7DCFA7F
:10530000604800689DF82C1050F8312003A95EA079
:10531000FDF7C4FE9DF82C00401CC0B20B9059480C
:10532000007D9DF82C108842DEDCAFF2DC30FDF70A
:10533000B5FE83E0AFF2E830FDF7B0FE0BAA03A99B
:105340002046FFF733FA9DF82C00C8B9694603A838
:10535000FFF7BBFC0B909DF82C0020B94FA00099E3
:10536000FDF79CFE0EE09DF82C00042801D00220E1
:1053700063E54DA0FDF792FE01204249C87501E0AA
:1053800002205AE547A0FDF789FE57E045A0FDF74A
:1053900085FE0BAA03A92046FFF708FA9DF82C000A
:1053A000C8B9694603A8FFF790FC0B909DF82C0044
:1053B00020B942A00099FDF771FE0EE09DF82C0087
:1053C000042801D0022038E53FA0FDF767FE002049
:1053D0002C49C87501E002202FE532A0FDF75EFEE2
:1053E0002CE030A0FDF75AFE0BAA03A92046FFF7D8
:1053F000DDF99DF82C00C8B9694603A8FFF765FCE4
:105400000B909DF82C0078B91E49009881F8EC00AB
:10541000084690F8EC0018B130A0FDF73FFE07E019
:1054200035A0FDF73BFE03E0022006E5022004E57F
:105430001CA0FDF733FE01E00120FEE400BF0020C8
:10544000FBE400002D2D2D2D2D2D2D2D2D2D2D2D61
:105450002D2D2D2D2D2D2D2D2D2D2D2D2DBAAFCAD0
:10546000FD204944202D2D2D2D2D2D2D2D2D2D2D83
:105470002D2D2D2D2D2D2D2D2D2D2D2D2D2D2D2D5C
:10548000200D0A00FC000020257320696420697348
:105490003A0D0A3058253038580D0A004845583A18
:1054A000305825580D0A00003136BDF8D6C6B2CEA8
:1054B000CAFDCFD4CABE210D0A0000004445433ABC
:1054C000256C750D0A0000003130BDF8D6C6B2CE8D
:1054D000CAFDCFD4CABE210D0A00000052756E204D
:1054E00054696D652043616C63756C6174696F6E9E
:1054F000204F4E0D0A00000052756E2054696D65F4
:105500002043616C63756C6174696F6E204F464611
:105510000D0A00000E480068006900F0010040B16B
:105520000C48D0F8F0004FF6FF7108440949C1F863
:10553000F0000848D0F8F00005490968496A0844B5
:105540000449C1F8F0000846D0F8F00070470000A8
:10555000A0300020FC00002038B505460C4600BFF6
:1055600000BF002000901248006840F0040010497D
:1055700008600846006800F00400009000BF00BF0B
:1055800000BF0C480C490860084644600021816057
:10559000C5600161FCF75AFA0748FCF7B1FA00222E
:1055A00003211E20FBF716FC1E20FBF703FC38BD71
:1055B0004038024000080040A03000206FF0010099
:1055C00009490968086100BF000C07490968C862F9
:1055D00001460548C16000BF0020034909684862D0
:1055E0000249C1F8F0007047A0300020FC00002004
:1055F00001460A69D1E901309860D1E90103586098
:105600005068884201D188685060002008611068A5
:10561000401E10601068704700F1080141604FF0B3
:10562000FF31816000F10801C1600161002101606A
:10563000704700210161704710B502460B685C1C81
:105640000CB9106907E002F1080000E04068446806
:1056500024689C42FAD944684C604C68A160886018
:1056600041600A611468641C146010BD42684A609D
:1056700093688B60936859609160086103685B1C54
:105680000360704710B500BF502080F31188BFF34E
:105690004F8FBFF36F8F00BF0B480068401C0A4953
:1056A00008600846006801280DD108480068C0B2AB
:1056B00008B9012000E0002028B94FF4DB7204A1F2
:1056C0000EA0FDF7EBFC10BD5000002004ED00E043
:1056D0002E2E5C4672656552544F535C706F727427
:1056E00061626C655C525644535C41524D5F434D60
:1056F00034465C706F72742E630000004572726FE6
:10570000723A2025732C2025640D0A0010B50B4831
:10571000006828B940F2BD1209A114A0FDF7BEFC33
:1057200006480068401E054908600846006820B920
:10573000002080F3118800BF00BF10BD5000002082
:105740002E2E5C4672656552544F535C706F7274B6
:1057500061626C655C525644535C41524D5F434DEF
:1057600034465C706F72742E630000004572726F75
:10577000723A2025732C2025640D0A0070B5064668
:105780003546002E3AD0083D2C461D496068096810
:10579000084008B1012000E0002028B94FF49272BF
:1057A00018A122A0FDF77AFC206808B9012000E0CA
:1057B000002028B940F2251212A11CA0FDF76EFCB2
:1057C0000F49606809680840C0B12068B0B90C4949
:1057D000606809688843606000F044FA17496068AF
:1057E00009680844154908602046FEF713FA144872
:1057F0000068401C1249086000F0F2FF70BD000014
:105800004C0000202E2E5C4672656552544F535C4E
:10581000706F727461626C655C4D656D4D616E6731
:105820005C686561705F342E630000004572726FC2
:10583000723A2025732C2025640D0A003C000020BC
:105840004800002000204FF0E021086188610648F0
:1058500000684FF47A71B0FBF1F0401E4FF0E02188
:1058600048610720086170472C0000202DE9F041B5
:1058700006460F462EB940F6C82211A115A0FDF725
:105880000DFC0025BFB1002412E0164800EBC40057
:105890004068B04203D1134800EBC4050AE035B9B3
:1058A000104850F8340010B90E4800EBC405641CD1
:1058B000082CEAD300BF0DB12F606E60BDE8F08107
:1058C0002E2E5C4672656552544F535C717565753A
:1058D000652E63004572726F723A2025732C202565
:1058E000640D0A00542D00202DE9F04105460E46B6
:1058F00017462C46FFF7C6FE94F94400401C10B929
:10590000002084F8440094F94500401C10B90020A0
:1059100084F84500FFF7FAFEA06B28B93A463146F5
:1059200004F1240000F006F92046FEF7F0FBBDE884
:10593000F081000070B504460025ACB10F48006846
:1059400008B9012000E0002028B94FF4A9620CA199
:1059500010A0FDF7A3FB00F085F900212046FDF71C
:105960009DFE00F03DFF05463DB94FF080500D49CA
:105970000860BFF34F8FBFF36F8F70BD980000209A
:105980002E2E5C4672656552544F535C7461736B86
:10599000732E63004572726F723A2025732C202596
:1059A000640D0A0004ED00E070B50546FFF76AFEDD
:1059B00015B92F48006800E028460446201DFFF76F
:1059C00017FE78B9E06A00EB80002A4951F8200000
:1059D00040B994F82C100120884027490968814378
:1059E00025480160A06A18B104F11800FFF700FE15
:1059F00022480068401C214908601D480068844214
:105A000009D1211D1E48FFF731FE1E480068401CC9
:105A10001C49086006E01C480068401E1A490860DE
:105A2000FEF7E0FAFFF772FE11480068844202D0E8
:105A30002046FDF7B9FF15480068C0B10C48006862
:105A4000844214D11248006808B9012000E0002007
:105A500028B940F2DB420FA113A0FDF71FFB4FF066
:105A6000805015490860BFF34F8FBFF36F8F70BD33
:105A70005C000020942D002074000020880000208D
:105A800050300020680000206C00002078000020CA
:105A9000980000202E2E5C4672656552544F535C70
:105AA0007461736B732E63004572726F723A2025B6
:105AB000732C2025640D0A0004ED00E003490968F9
:105AC00001600349096841607047000084000020BC
:105AD000700000200120014908607047800000200C
